{
  "_format": "hh-sol-artifact-1",
  "contractName": "LandTransfer",
  "sourceName": "contracts/LandTransfer.sol",
  "abi": [
    {
      "anonymous": false,
      "inputs": [
        {
          "indexed": true,
          "internalType": "uint256",
          "name": "landId",
          "type": "uint256"
        },
        {
          "indexed": true,
          "internalType": "address",
          "name": "owner",
          "type": "address"
        }
      ],
      "name": "LandRegistered",
      "type": "event"
    },
    {
      "anonymous": false,
      "inputs": [
        {
          "indexed": true,
          "internalType": "uint256",
          "name": "landId",
          "type": "uint256"
        },
        {
          "indexed": true,
          "internalType": "address",
          "name": "from",
          "type": "address"
        },
        {
          "indexed": true,
          "internalType": "address",
          "name": "to",
          "type": "address"
        }
      ],
      "name": "LandTransferred",
      "type": "event"
    },
    {
      "anonymous": false,
      "inputs": [
        {
          "indexed": true,
          "internalType": "uint256",
          "name": "landId",
          "type": "uint256"
        },
        {
          "indexed": false,
          "internalType": "string",
          "name": "requestType",
          "type": "string"
        },
        {
          "indexed": true,
          "internalType": "address",
          "name": "requester",
          "type": "address"
        }
      ],
      "name": "RequestAdded",
      "type": "event"
    },
    {
      "anonymous": false,
      "inputs": [
        {
          "indexed": true,
          "internalType": "uint256",
          "name": "landId",
          "type": "uint256"
        },
        {
          "indexed": false,
          "internalType": "string",
          "name": "requestType",
          "type": "string"
        },
        {
          "indexed": true,
          "internalType": "address",
          "name": "verifier",
          "type": "address"
        }
      ],
      "name": "RequestVerified",
      "type": "event"
    },
    {
      "inputs": [],
      "name": "getAllLandDetails",
      "outputs": [
        {
          "components": [
            {
              "internalType": "uint256",
              "name": "Land_id",
              "type": "uint256"
            },
            {
              "internalType": "string",
              "name": "fullName",
              "type": "string"
            },
            {
              "internalType": "string",
              "name": "fatherName",
              "type": "string"
            },
            {
              "internalType": "string",
              "name": "cnic",
              "type": "string"
            },
            {
              "internalType": "string",
              "name": "email",
              "type": "string"
            },
            {
              "internalType": "string",
              "name": "permanentAddress",
              "type": "string"
            },
            {
              "internalType": "string",
              "name": "temporaryAddress",
              "type": "string"
            },
            {
              "internalType": "string",
              "name": "size",
              "type": "string"
            },
            {
              "internalType": "string",
              "name": "location",
              "type": "string"
            },
            {
              "internalType": "address",
              "name": "owner",
              "type": "address"
            },
            {
              "internalType": "bool",
              "name": "isRegister",
              "type": "bool"
            }
          ],
          "internalType": "struct LandRegistration.LandDetails[]",
          "name": "",
          "type": "tuple[]"
        }
      ],
      "stateMutability": "view",
      "type": "function"
    },
    {
      "inputs": [
        {
          "internalType": "uint256",
          "name": "_landId",
          "type": "uint256"
        }
      ],
      "name": "getLandDetails",
      "outputs": [
        {
          "internalType": "string",
          "name": "fullName",
          "type": "string"
        },
        {
          "internalType": "string",
          "name": "email",
          "type": "string"
        },
        {
          "internalType": "string",
          "name": "fatherName",
          "type": "string"
        },
        {
          "internalType": "string",
          "name": "cnic",
          "type": "string"
        },
        {
          "internalType": "string",
          "name": "permanentAddress",
          "type": "string"
        },
        {
          "internalType": "string",
          "name": "temporaryAddress",
          "type": "string"
        },
        {
          "internalType": "string",
          "name": "_size",
          "type": "string"
        },
        {
          "internalType": "string",
          "name": "_location",
          "type": "string"
        },
        {
          "internalType": "address",
          "name": "owner",
          "type": "address"
        }
      ],
      "stateMutability": "view",
      "type": "function"
    },
    {
      "inputs": [
        {
          "internalType": "address",
          "name": "_owner",
          "type": "address"
        }
      ],
      "name": "getOwnedLandDetails",
      "outputs": [
        {
          "components": [
            {
              "internalType": "uint256",
              "name": "Land_id",
              "type": "uint256"
            },
            {
              "internalType": "string",
              "name": "fullName",
              "type": "string"
            },
            {
              "internalType": "string",
              "name": "fatherName",
              "type": "string"
            },
            {
              "internalType": "string",
              "name": "cnic",
              "type": "string"
            },
            {
              "internalType": "string",
              "name": "email",
              "type": "string"
            },
            {
              "internalType": "string",
              "name": "permanentAddress",
              "type": "string"
            },
            {
              "internalType": "string",
              "name": "temporaryAddress",
              "type": "string"
            },
            {
              "internalType": "string",
              "name": "size",
              "type": "string"
            },
            {
              "internalType": "string",
              "name": "location",
              "type": "string"
            },
            {
              "internalType": "address",
              "name": "owner",
              "type": "address"
            },
            {
              "internalType": "bool",
              "name": "isRegister",
              "type": "bool"
            }
          ],
          "internalType": "struct LandRegistration.LandDetails[]",
          "name": "",
          "type": "tuple[]"
        }
      ],
      "stateMutability": "view",
      "type": "function"
    },
    {
      "inputs": [
        {
          "internalType": "uint256",
          "name": "_landId",
          "type": "uint256"
        }
      ],
      "name": "getOwnershipHistory",
      "outputs": [
        {
          "internalType": "address[]",
          "name": "",
          "type": "address[]"
        }
      ],
      "stateMutability": "view",
      "type": "function"
    },
    {
      "inputs": [],
      "name": "getPendingRequests",
      "outputs": [
        {
          "components": [
            {
              "internalType": "uint256",
              "name": "Land_id",
              "type": "uint256"
            },
            {
              "internalType": "string",
              "name": "fullName",
              "type": "string"
            },
            {
              "internalType": "string",
              "name": "fatherName",
              "type": "string"
            },
            {
              "internalType": "string",
              "name": "cnic",
              "type": "string"
            },
            {
              "internalType": "string",
              "name": "email",
              "type": "string"
            },
            {
              "internalType": "string",
              "name": "permanentAddress",
              "type": "string"
            },
            {
              "internalType": "string",
              "name": "temporaryAddress",
              "type": "string"
            },
            {
              "internalType": "string",
              "name": "size",
              "type": "string"
            },
            {
              "internalType": "string",
              "name": "location",
              "type": "string"
            },
            {
              "internalType": "address",
              "name": "owner",
              "type": "address"
            },
            {
              "internalType": "string",
              "name": "requestType",
              "type": "string"
            }
          ],
          "internalType": "struct LandRegistration.PendingRequest[]",
          "name": "",
          "type": "tuple[]"
        }
      ],
      "stateMutability": "view",
      "type": "function"
    },
    {
      "inputs": [],
      "name": "incrementLandCounter",
      "outputs": [],
      "stateMutability": "nonpayable",
      "type": "function"
    },
    {
      "inputs": [
        {
          "internalType": "uint256",
          "name": "_landId",
          "type": "uint256"
        }
      ],
      "name": "initiateTransfer",
      "outputs": [],
      "stateMutability": "nonpayable",
      "type": "function"
    },
    {
      "inputs": [],
      "name": "landCounter",
      "outputs": [
        {
          "internalType": "uint256",
          "name": "",
          "type": "uint256"
        }
      ],
      "stateMutability": "view",
      "type": "function"
    },
    {
      "inputs": [
        {
          "internalType": "uint256",
          "name": "",
          "type": "uint256"
        }
      ],
      "name": "landRegistry",
      "outputs": [
        {
          "internalType": "uint256",
          "name": "Land_id",
          "type": "uint256"
        },
        {
          "internalType": "string",
          "name": "fullName",
          "type": "string"
        },
        {
          "internalType": "string",
          "name": "fatherName",
          "type": "string"
        },
        {
          "internalType": "string",
          "name": "cnic",
          "type": "string"
        },
        {
          "internalType": "string",
          "name": "email",
          "type": "string"
        },
        {
          "internalType": "string",
          "name": "permanentAddress",
          "type": "string"
        },
        {
          "internalType": "string",
          "name": "temporaryAddress",
          "type": "string"
        },
        {
          "internalType": "string",
          "name": "size",
          "type": "string"
        },
        {
          "internalType": "string",
          "name": "location",
          "type": "string"
        },
        {
          "internalType": "address",
          "name": "owner",
          "type": "address"
        },
        {
          "internalType": "bool",
          "name": "isRegister",
          "type": "bool"
        }
      ],
      "stateMutability": "view",
      "type": "function"
    },
    {
      "inputs": [
        {
          "internalType": "uint256",
          "name": "",
          "type": "uint256"
        }
      ],
      "name": "lands",
      "outputs": [
        {
          "internalType": "address",
          "name": "owner",
          "type": "address"
        },
        {
          "internalType": "string",
          "name": "fullName",
          "type": "string"
        },
        {
          "internalType": "string",
          "name": "recipientName",
          "type": "string"
        },
        {
          "internalType": "string",
          "name": "cnic",
          "type": "string"
        },
        {
          "internalType": "string",
          "name": "recipientCnic",
          "type": "string"
        },
        {
          "internalType": "string",
          "name": "currentAddress",
          "type": "string"
        },
        {
          "internalType": "string",
          "name": "permanentAddress",
          "type": "string"
        },
        {
          "internalType": "string",
          "name": "email",
          "type": "string"
        },
        {
          "internalType": "bool",
          "name": "isTransferred",
          "type": "bool"
        }
      ],
      "stateMutability": "view",
      "type": "function"
    },
    {
      "inputs": [
        {
          "internalType": "uint256",
          "name": "",
          "type": "uint256"
        }
      ],
      "name": "ownershipHistory",
      "outputs": [
        {
          "internalType": "uint256",
          "name": "Land_id",
          "type": "uint256"
        }
      ],
      "stateMutability": "view",
      "type": "function"
    },
    {
      "inputs": [
        {
          "internalType": "uint256",
          "name": "",
          "type": "uint256"
        }
      ],
      "name": "pendingRequests",
      "outputs": [
        {
          "internalType": "uint256",
          "name": "Land_id",
          "type": "uint256"
        },
        {
          "internalType": "string",
          "name": "fullName",
          "type": "string"
        },
        {
          "internalType": "string",
          "name": "fatherName",
          "type": "string"
        },
        {
          "internalType": "string",
          "name": "cnic",
          "type": "string"
        },
        {
          "internalType": "string",
          "name": "email",
          "type": "string"
        },
        {
          "internalType": "string",
          "name": "permanentAddress",
          "type": "string"
        },
        {
          "internalType": "string",
          "name": "temporaryAddress",
          "type": "string"
        },
        {
          "internalType": "string",
          "name": "size",
          "type": "string"
        },
        {
          "internalType": "string",
          "name": "location",
          "type": "string"
        },
        {
          "internalType": "address",
          "name": "owner",
          "type": "address"
        },
        {
          "internalType": "string",
          "name": "requestType",
          "type": "string"
        }
      ],
      "stateMutability": "view",
      "type": "function"
    },
    {
      "inputs": [
        {
          "internalType": "string",
          "name": "_fullName",
          "type": "string"
        },
        {
          "internalType": "uint256",
          "name": "_Land_id",
          "type": "uint256"
        },
        {
          "internalType": "string",
          "name": "_size",
          "type": "string"
        },
        {
          "internalType": "string",
          "name": "_location",
          "type": "string"
        },
        {
          "internalType": "string",
          "name": "_fatherName",
          "type": "string"
        },
        {
          "internalType": "string",
          "name": "_email",
          "type": "string"
        },
        {
          "internalType": "string",
          "name": "_cnic",
          "type": "string"
        },
        {
          "internalType": "string",
          "name": "_permanentAddress",
          "type": "string"
        },
        {
          "internalType": "string",
          "name": "_temporaryAddress",
          "type": "string"
        }
      ],
      "name": "registerLand",
      "outputs": [],
      "stateMutability": "nonpayable",
      "type": "function"
    },
    {
      "inputs": [
        {
          "internalType": "uint256",
          "name": "",
          "type": "uint256"
        }
      ],
      "name": "registeredLandIds",
      "outputs": [
        {
          "internalType": "uint256",
          "name": "",
          "type": "uint256"
        }
      ],
      "stateMutability": "view",
      "type": "function"
    },
    {
      "inputs": [
        {
          "internalType": "uint256",
          "name": "_landId",
          "type": "uint256"
        },
        {
          "internalType": "address",
          "name": "_recipient",
          "type": "address"
        },
        {
          "internalType": "string",
          "name": "_recipientName",
          "type": "string"
        },
        {
          "internalType": "string",
          "name": "_recipientCnic",
          "type": "string"
        },
        {
          "internalType": "string",
          "name": "_recipientfatherName",
          "type": "string"
        },
        {
          "internalType": "string",
          "name": "_currentAddress",
          "type": "string"
        },
        {
          "internalType": "string",
          "name": "_permanentAddress",
          "type": "string"
        },
        {
          "internalType": "string",
          "name": "_email",
          "type": "string"
        }
      ],
      "name": "transferLand",
      "outputs": [],
      "stateMutability": "nonpayable",
      "type": "function"
    },
    {
      "inputs": [
        {
          "internalType": "string",
          "name": "_fullName",
          "type": "string"
        },
        {
          "internalType": "string",
          "name": "_recipientName",
          "type": "string"
        },
        {
          "internalType": "string",
          "name": "_cnic",
          "type": "string"
        },
        {
          "internalType": "string",
          "name": "_recipientCnic",
          "type": "string"
        },
        {
          "internalType": "string",
          "name": "_currentAddress",
          "type": "string"
        },
        {
          "internalType": "string",
          "name": "_permanentAddress",
          "type": "string"
        },
        {
          "internalType": "string",
          "name": "_email",
          "type": "string"
        }
      ],
      "name": "transferLand",
      "outputs": [],
      "stateMutability": "nonpayable",
      "type": "function"
    },
    {
      "inputs": [
        {
          "internalType": "uint256",
          "name": "_landId",
          "type": "uint256"
        },
        {
          "internalType": "string",
          "name": "_fullName",
          "type": "string"
        },
        {
          "internalType": "string",
          "name": "_fatherName",
          "type": "string"
        },
        {
          "internalType": "string",
          "name": "_cnic",
          "type": "string"
        },
        {
          "internalType": "string",
          "name": "_permanentAddress",
          "type": "string"
        },
        {
          "internalType": "string",
          "name": "_size",
          "type": "string"
        },
        {
          "internalType": "string",
          "name": "_location",
          "type": "string"
        },
        {
          "internalType": "string",
          "name": "_temporaryAddress",
          "type": "string"
        }
      ],
      "name": "updateLandDetails",
      "outputs": [],
      "stateMutability": "nonpayable",
      "type": "function"
    },
    {
      "inputs": [
        {
          "internalType": "uint256",
          "name": "_index",
          "type": "uint256"
        }
      ],
      "name": "verifyRequest",
      "outputs": [],
      "stateMutability": "nonpayable",
      "type": "function"
    }
  ],
  "bytecode": "0x6080806040523461001657613ed4908161001c8239f35b600080fdfe6080604052600436101561001257600080fd5b60003560e01c806309c05b0e14612d7c57806319159f2014612d505780631df4ce0e1461267d5780633c652a9a146125235780634abac37b146123c857806361a31e00146122d35780637ae6da9b146111f75780637ce411f914610b2257806380a1f712146109635780639e29ce1814610945578063a3695b18146107ff578063a6ac704e146106a4578063ad2ad9d214610683578063da5f55e91461064b578063e261f1e51461052e578063f1dbaccb1461047a578063f47d31dc146102815763fe0cb7dc146100e257600080fd5b3461027c57602036600319011261027c57600435600052600060205260406000206040519061011082612ec6565b8054825261012060018201612fcd565b602083019081529061013460028201612fcd565b604084019081529261014860038301612fcd565b6060820190815261015b60048401612fcd565b608083019081529461016f60058501612fcd565b60a0840190815261018260068601612fcd565b60c0850190815261019560078701612fcd565b60e08601908152916101a960088801612fcd565b946101009786898901526009015498600160a01b600190038a16976101209a898c83015260a01c60ff16151590610140015251995194519051915192519351946040519a8a8c9b8c528b016101fd91613073565b8a810360208c015261020e91613073565b89810360408b015261021f91613073565b88810360608a015261023091613073565b878103608089015261024191613073565b86810360a088015261025291613073565b85810360c087015261026391613073565b84810360e086015261027491613073565b918301520390f35b600080fd5b3461027c5760208060031936011261027c576004356001600160a01b03818116929183900361027c576003805492906000805b85811061041457506102c590613df0565b9460009260005b8681106102e557604051806102e18a826130b3565b0390f35b6102ee816131e7565b905490851b1c60005260008252604060002086600982015460a09260ff82851c1693848095610409575b610330575b505050505061032b90613cc0565b6102cc565b9288926103ce60086103fe979461032b999d97610380604051986103538a612ec6565b83548a528d61036460018601612fcd565b908b015261037460028501612fcd565b60408b01528301612fcd565b606089015261039160048301612fcd565b60808901526103a260058301612fcd565b908801526103b260068201612fcd565b60c08801526103c360078201612fcd565b60e088015201612fcd565b6101008501521661012083015215156101408201526103ed828c613e8a565b526103f8818b613e8a565b50613cc0565b9490868a808061031d565b508784841614610318565b61041d816131e7565b905490841b1c60005260008452600960406000200154878660ff8360a01c16928361046e575b505050610459575b61045490613cc0565b6102b4565b9061046661045491613cc0565b91905061044b565b1614905087868a610443565b3461027c5760208060031936011261027c57600435600052600190818152816040600020019160405191828185549182815201908195600052826000209060005b81811061051257505050836104d1910384612efd565b60405192818401908285525180915260408401949160005b8281106104f65785870386f35b83516001600160a01b03168752958101959281019284016104e9565b82546001600160a01b03168452928401929185019185016104bb565b3461027c57602036600319011261027c57600435600090815260056020526040902080546001600160a01b031661056760018301612fcd565b9161057460028201612fcd565b9061058160038201612fcd565b61058d60048301612fcd565b61059960058401612fcd565b906105a660068501612fcd565b926105b360078601612fcd565b946008015460ff169560405198899889526101208060208b015289016105d891613073565b88810360408a01526105e991613073565b87810360608901526105fa91613073565b868103608088015261060b91613073565b85810360a087015261061c91613073565b84810360c086015261062d91613073565b83810360e085015261063e91613073565b9015156101008301520390f35b3461027c57602036600319011261027c5760043560035481101561027c576106746020916131e7565b90549060031b1c604051908152f35b3461027c57600036600319011261027c5761069f600254613cc0565b600255005b3461027c57600036600319011261027c5760026106c18154613df0565b600380549192600090815b8481106106e157604051806102e188826130b3565b6106ea816131e7565b905490851b1c6000526020600081526040600020600981015460a09160ff82841c169283610726575b505050505061072190613cc0565b6106cc565b916107c26008610721979995936107f497956040519661074588612ec6565b8254885261075560018401612fcd565b908801526107648b8301612fcd565b60408801526107748d8301612fcd565b606088015261078560048301612fcd565b608088015261079660058301612fcd565b908701526107a660068201612fcd565b60c08701526107b760078201612fcd565b60e087015201612fcd565b6101008401526001600160a01b031661012083015215156101408201526107e9828a613e8a565b526103f88189613e8a565b929087808080610713565b3461027c57602036600319011261027c576004356000526000602052604060002080546001820161082f90612fcd565b9161083c60028201612fcd565b9061084960038201612fcd565b61085560048301612fcd565b61086160058401612fcd565b61086d60068501612fcd565b9161087a60078601612fcd565b9361088760088701612fcd565b956009015496604051998a998a526101608060208c01528a016108a991613073565b89810360408b01526108ba91613073565b88810360608a01526108cb91613073565b87810360808901526108dc91613073565b86810360a08801526108ed91613073565b85810360c08701526108fe91613073565b84810360e086015261090f91613073565b83810361010085015261092191613073565b90600160a01b60019003811661012084015260a01c60ff1615156101408301520390f35b3461027c57600036600319011261027c576020600254604051908152f35b3461027c57600036600319011261027c5760045461098081613be6565b9061098e6040519283612efd565b80825260046000908152602091828401917f8a35acfbc15ff81a39ae7d344fd709f28e8600b4aa8c65c6b64bfe7fe36bd19b835b838310610aff5750505050604051918083019381845251809452604083019360408160051b85010192916000955b8287106109fd5785850386f35b909192938280610aef600193603f198a8203018652885180518252610ac9610ab5610aa3610a90610a7d610a6a610a57610a458b8901518c61016080918d01528b0190613073565b60408901518a820360408c0152613073565b606080890151908a8303908b0152613073565b60808088015190898303908a0152613073565b60a0808701519088830390890152613073565b60c0808601519087830390880152613073565b60e084015185820360e0870152613073565b610100808401519085830390860152613073565b91610120878060a01b038184015116908201526101408092015191818403910152613073565b96019201960195929190926109f0565b600b86600192610b11859a999a613bfd565b8152019201920191909594956109c2565b3461027c5761010036600319011261027c576004356024356001600160401b03811161027c57610b56903690600401612f1e565b906044356001600160401b03811161027c57610b76903690600401612f1e565b916064356001600160401b03811161027c57610b96903690600401612f1e565b6084356001600160401b03811161027c57610bb5903690600401612f1e565b60a4356001600160401b03811161027c57610bd4903690600401612f1e565b9160c4356001600160401b03811161027c57610bf4903690600401612f1e565b9560e4356001600160401b03811161027c57610c14903690600401612f1e565b95806000526000602052610c3960018060a01b03600960406000200154163314613b26565b600052600060205260406000209480516001600160401b038111610f1257806001880192610c7182610c6b8654612f93565b8661323d565b602090601f831160011461118b57600092611180575b50508160011b916000199060031b1c19161790555b8051906001600160401b038211610f12578190610cc982610cc060028a0154612f93565b60028a0161323d565b602090601f831160011461111357600092611108575b50508160011b916000199060031b1c19161760028501555b8051906001600160401b038211610f12578190610d2482610d1b6003890154612f93565b6003890161323d565b602090601f83116001146110965760009261108b575b50508160011b916000199060031b1c19161760038401555b8051906001600160401b038211610f12578190610d7f82610d766005880154612f93565b6005880161323d565b602090601f83116001146110195760009261100e575b50508160011b916000199060031b1c19161760058301555b805160078301916001600160401b038211610f12578190610dd282610c6b8654612f93565b602090601f8311600114610fa857600092610f9d575b50508160011b916000199060031b1c19161790555b6008810183516001600160401b038111610f1257610e2581610e1f8454612f93565b8461323d565b6020601f8211600114610f3357819060069596600092610f28575b50508160011b916000199060031b1c19161790555b0181516001600160401b038111610f1257610e7481610e1f8454612f93565b602092601f8211600114610eb15792819293600092610ea6575b5050600019600383901b1c191660019190911b179055005b015190508380610e8e565b601f198216938360005260206000209160005b868110610efa5750836001959610610ee1575b505050811b019055005b015160001960f88460031b161c19169055838080610ed7565b91926020600181928685015181550194019201610ec4565b634e487b7160e01b600052604160045260246000fd5b015190508680610e40565b601f198216958360005260206000209660005b818110610f855750916006969791846001959410610f6c575b505050811b019055610e55565b015160001960f88460031b161c19169055868080610f5f565b83830151895560019098019760209384019301610f46565b015190508680610de8565b6000858152602081209350601f198516905b818110610ff65750908460019594939210610fdd575b505050811b019055610dfd565b015160001960f88460031b161c19169055868080610fd0565b92936020600181928786015181550195019301610fba565b015190508680610d95565b9250600585016000526020600020906000935b601f1984168510611070576001945083601f19811610611057575b505050811b016005830155610dad565b015160001960f88460031b161c19169055868080611047565b8181015183556020948501946001909301929091019061102c565b015190508780610d3a565b9250600386016000526020600020906000935b601f19841685106110ed576001945083601f198116106110d4575b505050811b016003840155610d52565b015160001960f88460031b161c191690558780806110c4565b818101518355602094850194600190930192909101906110a9565b015190508880610cdf565b600288016000908152602081209350601f198516905b818110611168575090846001959493921061114f575b505050811b016002850155610cf7565b015160001960f88460031b161c1916905588808061113f565b92936020600181928786015181550195019301611129565b015190508a80610c87565b9250836000526020600020906000935b601f19841685106111dc576001945083601f198116106111c3575b505050811b019055610c9c565b015160001960f88460031b161c191690558a80806111b6565b8181015183556020948501946001909301929091019061119b565b3461027c57602036600319011261027c5761121c611216600435612f74565b50613bfd565b61014081015160208151910120611231613202565b6020815191012014600014611cc35760e081015190610100810151602082015190825193608084015160408501519060608601519060a08701519160c08801519360018060a01b036101208a015116976040519a61128e8c612ec6565b8b5260208b015260408a01526060890152608088015260a087015260c086015260e085015261010084015261012083015260016101408301526112d2600254613cc0565b6002558051600354600160401b811015610f12578060016112f692016003556131e7565b90918254908260031b1b916000199060031b1b1916179055805160005260006020526040600020908251825560208301519283516001600160401b038111610f1257611352816113496001870154612f93565b6001870161323d565b6020601f8211600114611c54578192939495600092611c49575b50508160011b916000199060031b1c19161760018401555b60408101519283516001600160401b038111610f12576113b4816113ab6002850154612f93565b6002850161323d565b6020601f8211600114611bda578192939495600092611bcf575b50508160011b916000199060031b1c19161760028201555b60608201519283516001600160401b038111610f12576114168161140d6003860154612f93565b6003860161323d565b6020601f8211600114611b60578192939495600092611b55575b50508160011b916000199060031b1c19161760038301555b60808301519283516001600160401b038111610f12576114788161146f6004870154612f93565b6004870161323d565b6020601f8211600114611ae6578192939495600092611adb575b50508160011b916000199060031b1c19161760048401555b60a08101519283516001600160401b038111610f12576114da816114d16005850154612f93565b6005850161323d565b6020601f8211600114611a6c578192939495600092611a61575b50508160011b916000199060031b1c19161760058201555b60c08201519283516001600160401b038111610f125761153c816115336006860154612f93565b6006860161323d565b6020601f82116001146119f25781929394956000926119e7575b50508160011b916000199060031b1c19161760068301555b60e08301519283516001600160401b038111610f125761159e816115956007870154612f93565b6007870161323d565b6020601f821160011461197857819293949560009261196d575b50508160011b916000199060031b1c19161760078401555b6101008101519283516001600160401b038111610f1257611601816115f86008850154612f93565b6008850161323d565b6020601f82116001146118fa57819060099495966000926118ef575b50508160011b916000199060031b1c19161760088201555b61012080840151929091018054610140909401516001600160a81b03199094166001600160a01b039384161793151560a01b60ff60a01b169390931790925582519183015116907fcb4990052f95f6057496d19524f6c3163f50af9f33f2c15b092928e03414323e600080a35b6004548060043510156118ba57600019908082019081116118a4576116c690612f74565b506116d2600435612f74565b6117b7578181036117e3575b505060045480156117cd57016116f381612f74565b6117b757600a81600061176e935561170d60018201613da7565b61171960028201613da7565b61172560038201613da7565b61173160048201613da7565b61173d60058201613da7565b61174960068201613da7565b61175560078201613da7565b61176160088201613da7565b6000600982015501613da7565b6004556101408151910151907fbf3747916bbe426e0fd532a54a21bcf371c5ca55c33adbfd8b43756bb1bea93860405160208152806117b233956020830190613073565b0390a3005b634e487b7160e01b600052600060045260246000fd5b634e487b7160e01b600052603160045260246000fd5b600a808361189d945484556117fe6001820160018601613ccf565b61180e6002820160028601613ccf565b61181e6003820160038601613ccf565b61182e6004820160048601613ccf565b61183e6005820160058601613ccf565b61184e6006820160068601613ccf565b61185e6007820160078601613ccf565b61186e6008820160088601613ccf565b60098181015490850180546001600160a01b0319166001600160a01b0392909216919091179055019101613ccf565b82806116de565b634e487b7160e01b600052601160045260246000fd5b60405162461bcd60e51b815260206004820152600d60248201526c092dcecc2d8d2c840d2dcc8caf609b1b6044820152606490fd5b01519050868061161d565b6008830160005260206000209560005b601f198416811061195557509582916009959697600194601f1981161061193c575b505050811b016008820155611635565b015160001960f88460031b161c1916905586808061192c565b8282015188556001909701966020928301920161190a565b0151905085806115b8565b6007850160005260206000209060005b601f19841681106119cf575060019394959683601f198116106119b6575b505050811b0160078401556115d0565b015160001960f88460031b161c191690558580806119a6565b9091602060018192858b015181550193019101611988565b015190508580611556565b6006840160005260206000209060005b601f1984168110611a49575060019394959683601f19811610611a30575b505050811b01600683015561156e565b015160001960f88460031b161c19169055858080611a20565b9091602060018192858b015181550193019101611a02565b0151905085806114f4565b6005830160005260206000209060005b601f1984168110611ac3575060019394959683601f19811610611aaa575b505050811b01600582015561150c565b015160001960f88460031b161c19169055858080611a9a565b9091602060018192858b015181550193019101611a7c565b015190508580611492565b6004850160005260206000209060005b601f1984168110611b3d575060019394959683601f19811610611b24575b505050811b0160048401556114aa565b015160001960f88460031b161c19169055858080611b14565b9091602060018192858b015181550193019101611af6565b015190508580611430565b6003840160005260206000209060005b601f1984168110611bb7575060019394959683601f19811610611b9e575b505050811b016003830155611448565b015160001960f88460031b161c19169055858080611b8e565b9091602060018192858b015181550193019101611b70565b0151905085806113ce565b6002830160005260206000209060005b601f1984168110611c31575060019394959683601f19811610611c18575b505050811b0160028201556113e6565b015160001960f88460031b161c19169055858080611c08565b9091602060018192858b015181550193019101611bea565b01519050858061136c565b6001850160005260206000209060005b601f1984168110611cab575060019394959683601f19811610611c92575b505050811b016001840155611384565b015160001960f88460031b161c19169055858080611c82565b9091602060018192858b015181550193019101611c64565b61014081015160208151910120611cd8613bc2565b60208151910120036116a2578051600052600060205260018060a01b0360096040600020015416815160005260016020526001604060002001805490600160401b821015610f1257600182018082558210156122bd5760005260206000200160018060a01b031990828282541617905560018060a01b0361012084015116835160005260006020526009604060002001918254161790556020820151918051600052600160406000200183516001600160401b038111610f1257611da081610e1f8454612f93565b6020601f8211600114612254578192939495600092612249575b50508160011b916000199060031b1c19161790555b60608101519181516000526000602052600360406000200183516001600160401b038111610f1257611e0581610e1f8454612f93565b6020601f82116001146121e05781929394956000926121d5575b50508160011b916000199060031b1c19161790555b60808201519180516000526000602052600460406000200183516001600160401b038111610f1257611e6a81610e1f8454612f93565b6020601f821160011461216c578192939495600092612161575b50508160011b916000199060031b1c19161790555b60408101519181516000526000602052600260406000200183516001600160401b038111610f1257611ecf81610e1f8454612f93565b6020601f82116001146120f85781929394956000926120ed575b50508160011b916000199060031b1c19161790555b60c08201519180516000526000602052600660406000200183516001600160401b038111610f1257611f3481610e1f8454612f93565b6020601f8211600114612084578192939495600092612079575b50508160011b916000199060031b1c19161790555b60a08101519181516000526000602052600560406000200183516001600160401b038111610f1257611f9981610e1f8454612f93565b6020601f8211600114612010578192939495600092612005575b50508160011b916000199060031b1c19161790555b81516101208301516001600160a01b031691907f1080b2f211753e5090f26ef7ffdc6bb3e66a125c7290200d10b502160bb1f566600080a46116a2565b015190508580611fb3565b8260005260206000209060005b601f1984168110612061575060019394959683601f19811610612048575b505050811b019055611fc8565b015160001960f88460031b161c1916905585808061203b565b9091602060018192858b01518155019301910161201d565b015190508580611f4e565b8260005260206000209060005b601f19841681106120d5575060019394959683601f198116106120bc575b505050811b019055611f63565b015160001960f88460031b161c191690558580806120af565b9091602060018192858b015181550193019101612091565b015190508580611ee9565b8260005260206000209060005b601f1984168110612149575060019394959683601f19811610612130575b505050811b019055611efe565b015160001960f88460031b161c19169055858080612123565b9091602060018192858b015181550193019101612105565b015190508580611e84565b8260005260206000209060005b601f19841681106121bd575060019394959683601f198116106121a4575b505050811b019055611e99565b015160001960f88460031b161c19169055858080612197565b9091602060018192858b015181550193019101612179565b015190508580611e1f565b8260005260206000209060005b601f1984168110612231575060019394959683601f19811610612218575b505050811b019055611e34565b015160001960f88460031b161c1916905585808061220b565b9091602060018192858b0151815501930191016121ed565b015190508580611dba565b8260005260206000209060005b601f19841681106122a5575060019394959683601f1981161061228c575b505050811b019055611dcf565b015160001960f88460031b161c1916905585808061227f565b9091602060018192858b015181550193019101612261565b634e487b7160e01b600052603260045260246000fd5b3461027c5760208060031936011261027c57600435806000526005825261230860018060a01b03604060002054163314613b26565b806000526005825260ff6008604060002001541661238357600560009282845281815261234561233e6001604087200154612f93565b1515613b7d565b8284525260408220600801805460ff1916600117905533907f1080b2f211753e5090f26ef7ffdc6bb3e66a125c7290200d10b502160bb1f5668380a4005b60405162461bcd60e51b815260048101839052601b60248201527f4c616e6420697320616c7265616479207472616e7366657272656400000000006044820152606490fd5b3461027c5761012036600319011261027c576001600160401b0360043581811161027c576123fa903690600401612f1e565b60243560443583811161027c57612415903690600401612f1e565b60643584811161027c5761242d903690600401612f1e565b9060843585811161027c57612446903690600401612f1e565b9460a43581811161027c5761245f903690600401612f1e565b9060c43581811161027c57612478903690600401612f1e565b9160e43582811161027c57612491903690600401612f1e565b916101043590811161027c576124ab903690600401612f1e565b9286600052600060205260ff60096040600020015460a01c166124de576124dc986124d4613202565b983398613282565b005b60405162461bcd60e51b815260206004820152601a60248201527f4c616e6420697320416c726561647920526567697374657265640000000000006044820152606490fd5b3461027c57602036600319011261027c5760043560045481101561027c5761254a90612f74565b50805461255960018301612fcd565b9161256660028201612fcd565b9061257360038201612fcd565b61257f60048301612fcd565b61258b60058401612fcd565b61259760068501612fcd565b906125a460078601612fcd565b926125b160088701612fcd565b60098701546001600160a01b0316969095906125cf90600a01612fcd565b976040519a8b9a8b526101608060208d01528b016125ec91613073565b8a810360408c01526125fd91613073565b89810360608b015261260e91613073565b88810360808a015261261f91613073565b87810360a089015261263091613073565b86810360c088015261264191613073565b85810360e087015261265291613073565b84810361010086015261266491613073565b906101208401528281036101408401526102e191613073565b3461027c5760e036600319011261027c576001600160401b0360043581811161027c576126ae903690600401612f1e565b602491823581811161027c576126c8903690600401612f1e565b9060443581811161027c576126e1903690600401612f1e565b9060643581811161027c576126fa903690600401612f1e565b9160843582811161027c57612713903690600401612f1e565b9360a43583811161027c5761272c903690600401612f1e565b9560c43584811161027c57612745903690600401612f1e565b94612751600254613cc0565b978860025560405197610120890189811088821117612ad957604052338952602092838a0194855260408a0195865260608a0196875260808a0190815260a08a0191825260c08a0192835260e08a019889526101008a019a60008c526000526005845260406000209960018060a01b0390511660018060a01b03198b5416178a55600195868b0195519586518a8111612c5f576127f281610e1f8454612f93565b8087601f998a8311600114612ced57600092612ce2575b5050600019600383901b1c191690891b1790555b51805160028c01918a8211612c5f57819061283c82610c6b8654612f93565b8790898311600114612c7f57600092612c74575b5050600019600383901b1c191690881b1790555b600396878b0190518051908a8211612c5f57819061288682610c6b8654612f93565b8790898311600114612bfd57600092612bf2575b5050600019828b1b1c191690881b1790555b51805160048b0191898211612bdd5781906128cb82610c6b8654612f93565b8690888311600114612b7b57600092612b70575b5050600019828a1b1c191690871b1790555b51805160058a0191888211612b5b57819061291082610c6b8654612f93565b8590878311600114612af957600092612aee575b505060001982891b1c191690861b1790555b5180516006890191878211612ad957819061295582610c6b8654612f93565b8490868311600114612a7757600092612a6c575b505060001982881b1c191690851b1790555b600787019551988951958611612a5857506129a08561299a8854612f93565b8861323d565b809185116001146129ee57508392918391600898996000956129e3575b50501b92600019911b1c19161790555b019051151560ff80198354169116179055600080f35b0151935089806129bd565b91939290601f198416988660005283600020936000905b8b8210612a41575050846008999a10612a27575b50505050811b0190556129cd565b01519060f884600019921b161c1916905586808080612a19565b808885978294968601518155019601930190612a05565b634e487b7160e01b60009081526041600452fd5b015190508c80612969565b90879350601f1983169185600052866000209260005b88828210612ac35750508411612aab575b505050811b01905561297b565b0151600019838a1b60f8161c191690558c8080612a9e565b8385015186558b97909501949384019301612a8d565b8b634e487b7160e01b60005260416004526000fd5b015190508d80612924565b90889350601f1983169185600052876000209260005b89828210612b455750508411612b2d575b505050811b019055612936565b0151600019838b1b60f8161c191690558d8080612b20565b8385015186558c97909501949384019301612b0f565b8c634e487b7160e01b60005260416004526000fd5b015190508e806128df565b90899350601f1983169185600052886000209260005b8a828210612bc75750508411612baf575b505050811b0190556128f1565b0151600019838c1b60f8161c191690558e8080612ba2565b8385015186558d97909501949384019301612b91565b8d634e487b7160e01b60005260416004526000fd5b015190508f8061289a565b908a9350601f1983169185600052896000209260005b8b828210612c495750508411612c31575b505050811b0190556128ac565b0151600019838d1b60f8161c191690558f8080612c24565b8385015186558e97909501949384019301612c13565b8e634e487b7160e01b60005260416004526000fd5b015190508f80612850565b908a9350601f1983169185600052896000209260005b8b828210612ccc5750508411612cb3575b505050811b019055612864565b015160001960f88460031b161c191690558f8080612ca6565b8385015186558e97909501949384019301612c95565b015190503880612809565b908b9350601f19831691856000528a6000209260005b8c828210612d3a5750508411612d21575b505050811b01905561281d565b015160001960f88460031b161c19169055388080612d14565b8385015186558f97909501949384019301612d03565b3461027c57602036600319011261027c5760043560005260016020526020604060002054604051908152f35b3461027c5761010036600319011261027c576001600160a01b03600435602435828116810361027c576001600160401b039260443584811161027c57612dc6903690600401612f1e565b9060643585811161027c57612ddf903690600401612f1e565b9060843586811161027c57612df8903690600401612f1e565b9160a43587811161027c57612e11903690600401612f1e565b9160c43588811161027c57612e2a903690600401612f1e565b9160e43598891161027c57612e64612e496124dc9a3690600401612f1e565b92896000526000602052600960406000200154163314613b26565b876000526000602052612e8460ff60096040600020015460a01c16613b7d565b876000526000602052612e9d6007604060002001612fcd565b94886000526000602052612eb76008604060002001612fcd565b96612ec0613bc2565b99613282565b61016081019081106001600160401b03821117610f1257604052565b604081019081106001600160401b03821117610f1257604052565b90601f801991011681019081106001600160401b03821117610f1257604052565b81601f8201121561027c578035906001600160401b038211610f125760405192612f52601f8401601f191660200185612efd565b8284526020838301011161027c57816000926020809301838601378301015290565b6004548110156122bd576004600052600b602060002091020190600090565b90600182811c92168015612fc3575b6020831014612fad57565b634e487b7160e01b600052602260045260246000fd5b91607f1691612fa2565b9060405191826000825492612fe184612f93565b908184526001948581169081600014613050575060011461300d575b505061300b92500383612efd565b565b9093915060005260209081600020936000915b81831061303857505061300b93508201013880612ffd565b85548884018501529485019487945091830191613020565b91505061300b94506020925060ff191682840152151560051b8201013880612ffd565b919082519283825260005b84811061309f575050826000602080949584010152601f8019910116010190565b60208183018101518483018201520161307e565b602080820190808352835180925260409283810182858560051b8401019601946000925b8584106130e8575050505050505090565b909192939495968580600192603f198582030187528a5190815181526131b76131a361319061317d61316a6131576131448d6131328b8b01518c61016080918d01528b0190613073565b90808b0151908a8303908b0152613073565b6060808a015190898303908a0152613073565b6080808901519088830390890152613073565b60a0808801519087830390880152613073565b60c0808701519086830390870152613073565b60e0808601519085830390860152613073565b610100808501519084830390850152613073565b91610120868060a01b038183015116908301526101408091015115159101529901940194019295949391906130d7565b6003548110156122bd57600360005260206000200190600090565b6040519061320f82612ee2565b60088252673932b3b4b9ba32b960c11b6020830152565b818110613231575050565b60008155600101613226565b9190601f811161324c57505050565b61300b926000526020600020906020601f840160051c83019310613278575b601f0160051c0190613226565b909150819061326b565b9897949196939095926040519761329889612ec6565b8a89526020890197885260408901526060880152608087015260a086015260c085015260e08401526101008301526001600160a01b0383166101208301526101408201859052600454600160401b811015610f12578060016132fd9201600455612f74565b9190916117b75782518255518051906001600160401b038211610f1257819061332d826113496001870154612f93565b602090601f8311600114613ab457600092613aa9575b50508160011b916000199060031b1c19161760018201555b60408201518051906001600160401b038211610f1257819061338d826133846002870154612f93565b6002870161323d565b602090601f8311600114613a3757600092613a2c575b50508160011b916000199060031b1c19161760028201555b60608201518051906001600160401b038211610f125781906133ed826133e46003870154612f93565b6003870161323d565b602090601f83116001146139ba576000926139af575b50508160011b916000199060031b1c19161760038201555b60808201518051906001600160401b038211610f125781906134448261146f6004870154612f93565b602090601f831160011461393d57600092613932575b50508160011b916000199060031b1c19161760048201555b60a08201518051906001600160401b038211610f125781906134a48261349b6005870154612f93565b6005870161323d565b602090601f83116001146138c0576000926138b5575b50508160011b916000199060031b1c19161760058201555b60c08201518051906001600160401b038211610f12578190613504826134fb6006870154612f93565b6006870161323d565b602090601f831160011461384357600092613838575b50508160011b916000199060031b1c19161760068201555b60e08201518051906001600160401b038211610f1257819061355b826115956007870154612f93565b602090601f83116001146137c6576000926137bb575b50508160011b916000199060031b1c19161760078201555b61010082015180516001600160401b038111610f125760088301916135b8826135b28554612f93565b8561323d565b602090601f831160011461374c579180600a94926101409694600092613741575b50508160011b916000199060031b1c19161790555b6009810160018060a01b036101208601511660018060a01b0319825416179055019101518051906001600160401b038211610f1257613631826135b28554612f93565b602090601f83116001146136b35791806136a394927f90b328f02ed250ff4bf17cafcbd924782f15c92b3a87a4082e92ae216e1822c296946000926136a8575b50508160011b916000199060031b1c19161790555b6040519182916020835260018060a01b0316956020830190613073565b0390a3565b015190503880613671565b90601f198316918460005260206000209260005b81811061372957509260019285927f90b328f02ed250ff4bf17cafcbd924782f15c92b3a87a4082e92ae216e1822c298966136a3989610613710575b505050811b019055613686565b015160001960f88460031b161c19169055388080613703565b929360206001819287860151815501950193016136c7565b0151905038806135d9565b90601f198316918460005260206000209260005b8181106137a357509260019285926101409896600a98961061378a575b505050811b0190556135ee565b015160001960f88460031b161c1916905538808061377d565b92936020600181928786015181550195019301613760565b015190503880613571565b9250600784016000526020600020906000935b601f198416851061381d576001945083601f19811610613804575b505050811b016007820155613589565b015160001960f88460031b161c191690553880806137f4565b818101518355602094850194600190930192909101906137d9565b01519050388061351a565b9250600684016000526020600020906000935b601f198416851061389a576001945083601f19811610613881575b505050811b016006820155613532565b015160001960f88460031b161c19169055388080613871565b81810151835560209485019460019093019290910190613856565b0151905038806134ba565b9250600584016000526020600020906000935b601f1984168510613917576001945083601f198116106138fe575b505050811b0160058201556134d2565b015160001960f88460031b161c191690553880806138ee565b818101518355602094850194600190930192909101906138d3565b01519050388061345a565b9250600484016000526020600020906000935b601f1984168510613994576001945083601f1981161061397b575b505050811b016004820155613472565b015160001960f88460031b161c1916905538808061396b565b81810151835560209485019460019093019290910190613950565b015190503880613403565b9250600384016000526020600020906000935b601f1984168510613a11576001945083601f198116106139f8575b505050811b01600382015561341b565b015160001960f88460031b161c191690553880806139e8565b818101518355602094850194600190930192909101906139cd565b0151905038806133a3565b9250600284016000526020600020906000935b601f1984168510613a8e576001945083601f19811610613a75575b505050811b0160028201556133bb565b015160001960f88460031b161c19169055388080613a65565b81810151835560209485019460019093019290910190613a4a565b015190503880613343565b9250600184016000526020600020906000935b601f1984168510613b0b576001945083601f19811610613af2575b505050811b01600182015561335b565b015160001960f88460031b161c19169055388080613ae2565b81810151835560209485019460019093019290910190613ac7565b15613b2d57565b60405162461bcd60e51b815260206004820152602260248201527f596f7520617265206e6f7420746865206f776e6572206f662074686973206c616044820152611b9960f21b6064820152608490fd5b15613b8457565b60405162461bcd60e51b815260206004820152601660248201527513185b99081a5cc81b9bdd081c9959da5cdd195c995960521b6044820152606490fd5b60405190613bcf82612ee2565b60088252673a3930b739b332b960c11b6020830152565b6001600160401b038111610f125760051b60200190565b90604051613c0a81612ec6565b610140613cbb600a839580548552613c2460018201612fcd565b6020860152613c3560028201612fcd565b6040860152613c4660038201612fcd565b6060860152613c5760048201612fcd565b6080860152613c6860058201612fcd565b60a0860152613c7960068201612fcd565b60c0860152613c8a60078201612fcd565b60e0860152613c9b60088201612fcd565b61010086015260098101546001600160a01b031661012086015201612fcd565b910152565b60001981146118a45760010190565b90808214613da357613ce18154612f93565b906001600160401b038211610f12578190613d0082610c6b8654612f93565b600090601f8311600114613d3757600092613d2c575b50508160011b916000199060031b1c1916179055565b015490503880613d16565b81526020808220858352818320935090601f1985169083905b828210613d8a575050908460019594939210613d71575b505050811b019055565b015460001960f88460031b161c19169055388080613d67565b8495819295850154815560018091019601940190613d50565b5050565b613db18154612f93565b9081613dbb575050565b81601f60009311600114613dcd575055565b908083918252613dec601f60208420940160051c840160018501613226565b5555565b90613dfa82613be6565b604090613e0982519182612efd565b8381528093613e1a601f1991613be6565b0191600091825b848110613e2f575050505050565b6020908351613e3d81612ec6565b858152606083908082840152808784015280808401528060808401528060a08401528060c08401528060e08401526101008301528661012083015286610140830152828501015201613e21565b80518210156122bd5760209160051b01019056fea26469706673582212204532ba225b8802116ff7376ba27a222764ffedb317ac93a508233ebcaef0d8ca64736f6c63430008130033",
  "linkReferences": {},
  "deployedLinkReferences": {}
}