{
  "_format": "hh-sol-artifact-1",
  "contractName": "UserManagement",
  "sourceName": "contracts/UserManagement.sol",
  "abi": [
    {
      "inputs": [
        {
          "internalType": "address",
          "name": "_userAddress",
          "type": "address"
        }
      ],
      "name": "getNameForAddress",
      "outputs": [
        {
          "internalType": "string",
          "name": "",
          "type": "string"
        }
      ],
      "stateMutability": "view",
      "type": "function"
    },
    {
      "inputs": [],
      "name": "getUser",
      "outputs": [
        {
          "internalType": "string",
          "name": "",
          "type": "string"
        },
        {
          "internalType": "string",
          "name": "",
          "type": "string"
        },
        {
          "internalType": "string",
          "name": "",
          "type": "string"
        },
        {
          "internalType": "string",
          "name": "",
          "type": "string"
        }
      ],
      "stateMutability": "view",
      "type": "function"
    },
    {
      "inputs": [
        {
          "internalType": "string",
          "name": "_email",
          "type": "string"
        },
        {
          "internalType": "string",
          "name": "_password",
          "type": "string"
        }
      ],
      "name": "loginUser",
      "outputs": [],
      "stateMutability": "nonpayable",
      "type": "function"
    },
    {
      "inputs": [],
      "name": "logoutUser",
      "outputs": [],
      "stateMutability": "nonpayable",
      "type": "function"
    },
    {
      "inputs": [
        {
          "internalType": "string",
          "name": "_CNIC",
          "type": "string"
        },
        {
          "internalType": "string",
          "name": "_name",
          "type": "string"
        },
        {
          "internalType": "string",
          "name": "_fatherName",
          "type": "string"
        },
        {
          "internalType": "string",
          "name": "_phoneNumber",
          "type": "string"
        },
        {
          "internalType": "string",
          "name": "_email",
          "type": "string"
        },
        {
          "internalType": "string",
          "name": "_password",
          "type": "string"
        },
        {
          "internalType": "string",
          "name": "_permanentAddress",
          "type": "string"
        },
        {
          "internalType": "string",
          "name": "_currentAddress",
          "type": "string"
        }
      ],
      "name": "registerUser",
      "outputs": [],
      "stateMutability": "nonpayable",
      "type": "function"
    },
    {
      "inputs": [
        {
          "internalType": "address",
          "name": "",
          "type": "address"
        }
      ],
      "name": "users",
      "outputs": [
        {
          "internalType": "string",
          "name": "cnic",
          "type": "string"
        },
        {
          "internalType": "string",
          "name": "name",
          "type": "string"
        },
        {
          "internalType": "string",
          "name": "fatherName",
          "type": "string"
        },
        {
          "internalType": "string",
          "name": "phoneNumber",
          "type": "string"
        },
        {
          "internalType": "string",
          "name": "email",
          "type": "string"
        },
        {
          "internalType": "string",
          "name": "password",
          "type": "string"
        },
        {
          "internalType": "string",
          "name": "permanentAddress",
          "type": "string"
        },
        {
          "internalType": "string",
          "name": "currentAddress",
          "type": "string"
        },
        {
          "internalType": "bool",
          "name": "isregister",
          "type": "bool"
        }
      ],
      "stateMutability": "view",
      "type": "function"
    }
  ],
  "bytecode": "0x608060405234801561001057600080fd5b50611bc4806100206000396000f3fe608060405234801561001057600080fd5b50600436106100625760003560e01c806322ce12e51461006757806367601dd114610083578063832880e71461009f578063a87430ba146100c0578063d8c27b9b146100f8578063d8f145d214610128575b600080fd5b610081600480360381019061007c91906111b4565b610132565b005b61009d6004803603810190610098919061122c565b6102cc565b005b6100a7610570565b6040516100b79493929190611441565b60405180910390f35b6100da60048036038101906100d59190611500565b610a92565b6040516100ef99989796959493929190611548565b60405180910390f35b610112600480360381019061010d9190611500565b610f2d565b60405161011f919061160d565b60405180910390f35b610130610ffe565b005b81805190602001206000803373ffffffffffffffffffffffffffffffffffffffff1673ffffffffffffffffffffffffffffffffffffffff1681526020019081526020016000206004016040516101889190611732565b6040518091039020146101d0576040517f08c379a00000000000000000000000000000000000000000000000000000000081526004016101c790611795565b60405180910390fd5b80805190602001206000803373ffffffffffffffffffffffffffffffffffffffff1673ffffffffffffffffffffffffffffffffffffffff1681526020019081526020016000206005016040516102269190611732565b60405180910390201461026e576040517f08c379a000000000000000000000000000000000000000000000000000000000815260040161026590611801565b60405180910390fd5b60016000803373ffffffffffffffffffffffffffffffffffffffff1673ffffffffffffffffffffffffffffffffffffffff16815260200190815260200160002060080160006101000a81548160ff0219169083151502179055505050565b600015156000803373ffffffffffffffffffffffffffffffffffffffff1673ffffffffffffffffffffffffffffffffffffffff16815260200190815260200160002060080160009054906101000a900460ff16151514610361576040517f08c379a000000000000000000000000000000000000000000000000000000000815260040161035890611893565b60405180910390fd5b60006040518061012001604052808a8152602001898152602001888152602001878152602001868152602001858152602001848152602001838152602001600015158152509050806000803373ffffffffffffffffffffffffffffffffffffffff1673ffffffffffffffffffffffffffffffffffffffff16815260200190815260200160002060008201518160000190816103fc9190611a69565b5060208201518160010190816104129190611a69565b5060408201518160020190816104289190611a69565b50606082015181600301908161043e9190611a69565b5060808201518160040190816104549190611a69565b5060a082015181600501908161046a9190611a69565b5060c08201518160060190816104809190611a69565b5060e08201518160070190816104969190611a69565b506101008201518160080160006101000a81548160ff021916908315150217905550905050336001866040516104cc9190611b77565b908152602001604051809103902060006101000a81548173ffffffffffffffffffffffffffffffffffffffff021916908373ffffffffffffffffffffffffffffffffffffffff16021790555087600260003373ffffffffffffffffffffffffffffffffffffffff1673ffffffffffffffffffffffffffffffffffffffff16815260200190815260200160002090816105649190611a69565b50505050505050505050565b60608060608060008060003373ffffffffffffffffffffffffffffffffffffffff1673ffffffffffffffffffffffffffffffffffffffff168152602001908152602001600020604051806101200160405290816000820180546105d29061165e565b80601f01602080910402602001604051908101604052809291908181526020018280546105fe9061165e565b801561064b5780601f106106205761010080835404028352916020019161064b565b820191906000526020600020905b81548152906001019060200180831161062e57829003601f168201915b505050505081526020016001820180546106649061165e565b80601f01602080910402602001604051908101604052809291908181526020018280546106909061165e565b80156106dd5780601f106106b2576101008083540402835291602001916106dd565b820191906000526020600020905b8154815290600101906020018083116106c057829003601f168201915b505050505081526020016002820180546106f69061165e565b80601f01602080910402602001604051908101604052809291908181526020018280546107229061165e565b801561076f5780601f106107445761010080835404028352916020019161076f565b820191906000526020600020905b81548152906001019060200180831161075257829003601f168201915b505050505081526020016003820180546107889061165e565b80601f01602080910402602001604051908101604052809291908181526020018280546107b49061165e565b80156108015780601f106107d657610100808354040283529160200191610801565b820191906000526020600020905b8154815290600101906020018083116107e457829003601f168201915b5050505050815260200160048201805461081a9061165e565b80601f01602080910402602001604051908101604052809291908181526020018280546108469061165e565b80156108935780601f1061086857610100808354040283529160200191610893565b820191906000526020600020905b81548152906001019060200180831161087657829003601f168201915b505050505081526020016005820180546108ac9061165e565b80601f01602080910402602001604051908101604052809291908181526020018280546108d89061165e565b80156109255780601f106108fa57610100808354040283529160200191610925565b820191906000526020600020905b81548152906001019060200180831161090857829003601f168201915b5050505050815260200160068201805461093e9061165e565b80601f016020809104026020016040519081016040528092919081815260200182805461096a9061165e565b80156109b75780601f1061098c576101008083540402835291602001916109b7565b820191906000526020600020905b81548152906001019060200180831161099a57829003601f168201915b505050505081526020016007820180546109d09061165e565b80601f01602080910402602001604051908101604052809291908181526020018280546109fc9061165e565b8015610a495780601f10610a1e57610100808354040283529160200191610a49565b820191906000526020600020905b815481529060010190602001808311610a2c57829003601f168201915b505050505081526020016008820160009054906101000a900460ff16151515158152505090508060000151816020015182608001518360a0015194509450945094505090919293565b6000602052806000526040600020600091509050806000018054610ab59061165e565b80601f0160208091040260200160405190810160405280929190818152602001828054610ae19061165e565b8015610b2e5780601f10610b0357610100808354040283529160200191610b2e565b820191906000526020600020905b815481529060010190602001808311610b1157829003601f168201915b505050505090806001018054610b439061165e565b80601f0160208091040260200160405190810160405280929190818152602001828054610b6f9061165e565b8015610bbc5780601f10610b9157610100808354040283529160200191610bbc565b820191906000526020600020905b815481529060010190602001808311610b9f57829003601f168201915b505050505090806002018054610bd19061165e565b80601f0160208091040260200160405190810160405280929190818152602001828054610bfd9061165e565b8015610c4a5780601f10610c1f57610100808354040283529160200191610c4a565b820191906000526020600020905b815481529060010190602001808311610c2d57829003601f168201915b505050505090806003018054610c5f9061165e565b80601f0160208091040260200160405190810160405280929190818152602001828054610c8b9061165e565b8015610cd85780601f10610cad57610100808354040283529160200191610cd8565b820191906000526020600020905b815481529060010190602001808311610cbb57829003601f168201915b505050505090806004018054610ced9061165e565b80601f0160208091040260200160405190810160405280929190818152602001828054610d199061165e565b8015610d665780601f10610d3b57610100808354040283529160200191610d66565b820191906000526020600020905b815481529060010190602001808311610d4957829003601f168201915b505050505090806005018054610d7b9061165e565b80601f0160208091040260200160405190810160405280929190818152602001828054610da79061165e565b8015610df45780601f10610dc957610100808354040283529160200191610df4565b820191906000526020600020905b815481529060010190602001808311610dd757829003601f168201915b505050505090806006018054610e099061165e565b80601f0160208091040260200160405190810160405280929190818152602001828054610e359061165e565b8015610e825780601f10610e5757610100808354040283529160200191610e82565b820191906000526020600020905b815481529060010190602001808311610e6557829003601f168201915b505050505090806007018054610e979061165e565b80601f0160208091040260200160405190810160405280929190818152602001828054610ec39061165e565b8015610f105780601f10610ee557610100808354040283529160200191610f10565b820191906000526020600020905b815481529060010190602001808311610ef357829003601f168201915b5050505050908060080160009054906101000a900460ff16905089565b6060600260008373ffffffffffffffffffffffffffffffffffffffff1673ffffffffffffffffffffffffffffffffffffffff1681526020019081526020016000208054610f799061165e565b80601f0160208091040260200160405190810160405280929190818152602001828054610fa59061165e565b8015610ff25780601f10610fc757610100808354040283529160200191610ff2565b820191906000526020600020905b815481529060010190602001808311610fd557829003601f168201915b50505050509050919050565b60008060003373ffffffffffffffffffffffffffffffffffffffff1673ffffffffffffffffffffffffffffffffffffffff16815260200190815260200160002060080160006101000a81548160ff021916908315150217905550565b6000604051905090565b600080fd5b600080fd5b600080fd5b600080fd5b6000601f19601f8301169050919050565b7f4e487b7100000000000000000000000000000000000000000000000000000000600052604160045260246000fd5b6110c182611078565b810181811067ffffffffffffffff821117156110e0576110df611089565b5b80604052505050565b60006110f361105a565b90506110ff82826110b8565b919050565b600067ffffffffffffffff82111561111f5761111e611089565b5b61112882611078565b9050602081019050919050565b82818337600083830152505050565b600061115761115284611104565b6110e9565b90508281526020810184848401111561117357611172611073565b5b61117e848285611135565b509392505050565b600082601f83011261119b5761119a61106e565b5b81356111ab848260208601611144565b91505092915050565b600080604083850312156111cb576111ca611064565b5b600083013567ffffffffffffffff8111156111e9576111e8611069565b5b6111f585828601611186565b925050602083013567ffffffffffffffff81111561121657611215611069565b5b61122285828601611186565b9150509250929050565b600080600080600080600080610100898b03121561124d5761124c611064565b5b600089013567ffffffffffffffff81111561126b5761126a611069565b5b6112778b828c01611186565b985050602089013567ffffffffffffffff81111561129857611297611069565b5b6112a48b828c01611186565b975050604089013567ffffffffffffffff8111156112c5576112c4611069565b5b6112d18b828c01611186565b965050606089013567ffffffffffffffff8111156112f2576112f1611069565b5b6112fe8b828c01611186565b955050608089013567ffffffffffffffff81111561131f5761131e611069565b5b61132b8b828c01611186565b94505060a089013567ffffffffffffffff81111561134c5761134b611069565b5b6113588b828c01611186565b93505060c089013567ffffffffffffffff81111561137957611378611069565b5b6113858b828c01611186565b92505060e089013567ffffffffffffffff8111156113a6576113a5611069565b5b6113b28b828c01611186565b9150509295985092959890939650565b600081519050919050565b600082825260208201905092915050565b60005b838110156113fc5780820151818401526020810190506113e1565b60008484015250505050565b6000611413826113c2565b61141d81856113cd565b935061142d8185602086016113de565b61143681611078565b840191505092915050565b6000608082019050818103600083015261145b8187611408565b9050818103602083015261146f8186611408565b905081810360408301526114838185611408565b905081810360608301526114978184611408565b905095945050505050565b600073ffffffffffffffffffffffffffffffffffffffff82169050919050565b60006114cd826114a2565b9050919050565b6114dd816114c2565b81146114e857600080fd5b50565b6000813590506114fa816114d4565b92915050565b60006020828403121561151657611515611064565b5b6000611524848285016114eb565b91505092915050565b60008115159050919050565b6115428161152d565b82525050565b6000610120820190508181036000830152611563818c611408565b90508181036020830152611577818b611408565b9050818103604083015261158b818a611408565b9050818103606083015261159f8189611408565b905081810360808301526115b38188611408565b905081810360a08301526115c78187611408565b905081810360c08301526115db8186611408565b905081810360e08301526115ef8185611408565b90506115ff610100830184611539565b9a9950505050505050505050565b600060208201905081810360008301526116278184611408565b905092915050565b7f4e487b7100000000000000000000000000000000000000000000000000000000600052602260045260246000fd5b6000600282049050600182168061167657607f821691505b6020821081036116895761168861162f565b5b50919050565b600081905092915050565b60008190508160005260206000209050919050565b600081546116bc8161165e565b6116c6818661168f565b945060018216600081146116e157600181146116f657611729565b60ff1983168652811515820286019350611729565b6116ff8561169a565b60005b8381101561172157815481890152600182019150602081019050611702565b838801955050505b50505092915050565b600061173e82846116af565b915081905092915050565b7f456d61696c20646f6573206e6f74206d61746368000000000000000000000000600082015250565b600061177f6014836113cd565b915061178a82611749565b602082019050919050565b600060208201905081810360008301526117ae81611772565b9050919050565b7f50617373776f726420646f6573206e6f74206d61746368000000000000000000600082015250565b60006117eb6017836113cd565b91506117f6826117b5565b602082019050919050565b6000602082019050818103600083015261181a816117de565b9050919050565b7f557365722077697468207468697320457468657265756d20416464726573732060008201527f616c726561647920657869737473000000000000000000000000000000000000602082015250565b600061187d602e836113cd565b915061188882611821565b604082019050919050565b600060208201905081810360008301526118ac81611870565b9050919050565b60008190508160005260206000209050919050565b60006020601f8301049050919050565b600082821b905092915050565b6000600883026119157fffffffffffffffffffffffffffffffffffffffffffffffffffffffffffffffff826118d8565b61191f86836118d8565b95508019841693508086168417925050509392505050565b6000819050919050565b6000819050919050565b600061196661196161195c84611937565b611941565b611937565b9050919050565b6000819050919050565b6119808361194b565b61199461198c8261196d565b8484546118e5565b825550505050565b600090565b6119a961199c565b6119b4818484611977565b505050565b5b818110156119d8576119cd6000826119a1565b6001810190506119ba565b5050565b601f821115611a1d576119ee816118b3565b6119f7846118c8565b81016020851015611a06578190505b611a1a611a12856118c8565b8301826119b9565b50505b505050565b600082821c905092915050565b6000611a4060001984600802611a22565b1980831691505092915050565b6000611a598383611a2f565b9150826002028217905092915050565b611a72826113c2565b67ffffffffffffffff811115611a8b57611a8a611089565b5b611a95825461165e565b611aa08282856119dc565b600060209050601f831160018114611ad35760008415611ac1578287015190505b611acb8582611a4d565b865550611b33565b601f198416611ae1866118b3565b60005b82811015611b0957848901518255600182019150602085019450602081019050611ae4565b86831015611b265784890151611b22601f891682611a2f565b8355505b6001600288020188555050505b505050505050565b600081905092915050565b6000611b51826113c2565b611b5b8185611b3b565b9350611b6b8185602086016113de565b80840191505092915050565b6000611b838284611b46565b91508190509291505056fea2646970667358221220dc14347cb9078c06e63985fb497e281161a8877a526fea07c78444adb47d03ea64736f6c63430008130033",
  "linkReferences": {},
  "deployedLinkReferences": {}
}