{
  "_format": "hh-sol-artifact-1",
  "contractName": "UserManagement",
  "sourceName": "contracts/UserManagement.sol",
  "abi": [
    {
      "anonymous": false,
      "inputs": [
        {
          "indexed": true,
          "internalType": "address",
          "name": "userAddress",
          "type": "address"
        },
        {
          "indexed": false,
          "internalType": "string",
          "name": "cnic",
          "type": "string"
        },
        {
          "indexed": false,
          "internalType": "string",
          "name": "name",
          "type": "string"
        },
        {
          "indexed": false,
          "internalType": "string",
          "name": "email",
          "type": "string"
        }
      ],
      "name": "UserRegistered",
      "type": "event"
    },
    {
      "inputs": [],
      "name": "getAllUsers",
      "outputs": [
        {
          "components": [
            {
              "internalType": "string",
              "name": "cnic",
              "type": "string"
            },
            {
              "internalType": "string",
              "name": "name",
              "type": "string"
            },
            {
              "internalType": "string",
              "name": "fatherName",
              "type": "string"
            },
            {
              "internalType": "string",
              "name": "phoneNumber",
              "type": "string"
            },
            {
              "internalType": "string",
              "name": "email",
              "type": "string"
            },
            {
              "internalType": "string",
              "name": "password",
              "type": "string"
            },
            {
              "internalType": "string",
              "name": "permanentAddress",
              "type": "string"
            },
            {
              "internalType": "string",
              "name": "currentAddress",
              "type": "string"
            },
            {
              "internalType": "bool",
              "name": "isregister",
              "type": "bool"
            }
          ],
          "internalType": "struct UserManagement.User[]",
          "name": "",
          "type": "tuple[]"
        }
      ],
      "stateMutability": "view",
      "type": "function"
    },
    {
      "inputs": [
        {
          "internalType": "address",
          "name": "_userAddress",
          "type": "address"
        }
      ],
      "name": "getNameForAddress",
      "outputs": [
        {
          "internalType": "string",
          "name": "",
          "type": "string"
        }
      ],
      "stateMutability": "view",
      "type": "function"
    },
    {
      "inputs": [
        {
          "internalType": "address",
          "name": "_owner",
          "type": "address"
        }
      ],
      "name": "getUser",
      "outputs": [
        {
          "internalType": "string",
          "name": "",
          "type": "string"
        },
        {
          "internalType": "string",
          "name": "",
          "type": "string"
        },
        {
          "internalType": "string",
          "name": "",
          "type": "string"
        },
        {
          "internalType": "string",
          "name": "",
          "type": "string"
        },
        {
          "internalType": "string",
          "name": "",
          "type": "string"
        },
        {
          "internalType": "string",
          "name": "",
          "type": "string"
        },
        {
          "internalType": "string",
          "name": "",
          "type": "string"
        },
        {
          "internalType": "string",
          "name": "",
          "type": "string"
        },
        {
          "internalType": "bool",
          "name": "",
          "type": "bool"
        }
      ],
      "stateMutability": "view",
      "type": "function"
    },
    {
      "inputs": [
        {
          "internalType": "string",
          "name": "_email",
          "type": "string"
        },
        {
          "internalType": "string",
          "name": "_password",
          "type": "string"
        }
      ],
      "name": "loginUser",
      "outputs": [],
      "stateMutability": "nonpayable",
      "type": "function"
    },
    {
      "inputs": [],
      "name": "logoutUser",
      "outputs": [],
      "stateMutability": "nonpayable",
      "type": "function"
    },
    {
      "inputs": [
        {
          "internalType": "string",
          "name": "_CNIC",
          "type": "string"
        },
        {
          "internalType": "string",
          "name": "_name",
          "type": "string"
        },
        {
          "internalType": "string",
          "name": "_fatherName",
          "type": "string"
        },
        {
          "internalType": "string",
          "name": "_phoneNumber",
          "type": "string"
        },
        {
          "internalType": "string",
          "name": "_email",
          "type": "string"
        },
        {
          "internalType": "string",
          "name": "_password",
          "type": "string"
        },
        {
          "internalType": "string",
          "name": "_permanentAddress",
          "type": "string"
        },
        {
          "internalType": "string",
          "name": "_currentAddress",
          "type": "string"
        }
      ],
      "name": "registerUser",
      "outputs": [],
      "stateMutability": "nonpayable",
      "type": "function"
    },
    {
      "inputs": [
        {
          "internalType": "uint256",
          "name": "",
          "type": "uint256"
        }
      ],
      "name": "registeredUsers",
      "outputs": [
        {
          "internalType": "address",
          "name": "",
          "type": "address"
        }
      ],
      "stateMutability": "view",
      "type": "function"
    },
    {
      "inputs": [],
      "name": "totalUsers",
      "outputs": [
        {
          "internalType": "uint256",
          "name": "",
          "type": "uint256"
        }
      ],
      "stateMutability": "view",
      "type": "function"
    },
    {
      "inputs": [
        {
          "internalType": "address",
          "name": "",
          "type": "address"
        }
      ],
      "name": "users",
      "outputs": [
        {
          "internalType": "string",
          "name": "cnic",
          "type": "string"
        },
        {
          "internalType": "string",
          "name": "name",
          "type": "string"
        },
        {
          "internalType": "string",
          "name": "fatherName",
          "type": "string"
        },
        {
          "internalType": "string",
          "name": "phoneNumber",
          "type": "string"
        },
        {
          "internalType": "string",
          "name": "email",
          "type": "string"
        },
        {
          "internalType": "string",
          "name": "password",
          "type": "string"
        },
        {
          "internalType": "string",
          "name": "permanentAddress",
          "type": "string"
        },
        {
          "internalType": "string",
          "name": "currentAddress",
          "type": "string"
        },
        {
          "internalType": "bool",
          "name": "isregister",
          "type": "bool"
        }
      ],
      "stateMutability": "view",
      "type": "function"
    }
  ],
  "bytecode": "0x608080604052346100165761180b908161001c8239f35b600080fdfe6080604052600436101561001257600080fd5b60e0600035811c806322ce12e5146113c957806367601dd11461069b5780636f77926b146105525780637259e0f814610510578063a87430ba14610416578063bff1f9e1146103f8578063d8c27b9b14610398578063d8f145d2146103695763e2842d791461008057600080fd5b34610364576000366003190112610364576003805461009e816117aa565b916100ac6040519384611533565b818352601f196100bb836117aa565b0160005b81811061031557505060005b8281106101e357505050604051906020808301818452825180915260408401918060408360051b8701019401926000965b8388106101095786860387f35b90919293948380600192603f198a82030186528851906101c56101b56101a261018f61017c6101696101576101478951610120808b528a01906115cd565b8a8a01518982038c8b01526115cd565b604089015188820360408a01526115cd565b60608089015190888303908901526115cd565b60808088015190878303908801526115cd565b60a08087015190868303908701526115cd565b60c08086015190858303908601526115cd565b87840151838203898501526115cd565b916101008091015115159101529701930197019690939291936100fc565b806101f061031092611684565b60018060a01b03915490851b1c1660005260206000815260ff600860406000206040519361021d85611517565b6040516102358161022e81866116ef565b0382611533565b8552604051906102538261024c81600187016116ef565b0383611533565b85015260405161026a8161022e81600286016116ef565b60408501526040516102828161022e818b86016116ef565b606085015260405161029b8161022e81600486016116ef565b60808501526040516102b48161022e81600586016116ef565b60a08501526040516102cd8161022e81600686016116ef565b60c08501526040516102e68161022e81600786016116ef565b8a85015201541615156101008201526102ff82876117c1565b5261030a81866117c1565b50611785565b6100cb565b60209060405161032481611517565b60608082528390808284015280604084015280808401528060808401528060a08401528060c08401528983015260006101008301528288010152016100bf565b600080fd5b3461036457600036600319011261036457336000526000602052600860406000200160ff198154169055600080f35b34610364576020366003190112610364576004356001600160a01b038116908190036103645760005260026020526103f461022e6103e06040600020604051928380926116ef565b6040519182916020835260208301906115cd565b0390f35b34610364576000366003190112610364576020600354604051908152f35b34610364576020366003190112610364576004356001600160a01b03811690819003610364576000526000602052604060002060405161045a8161022e81856116ef565b6103f4604051926104798461047281600185016116ef565b0385611533565b6040519061048e8261024c81600285016116ef565b6040516104a28161022e81600386016116ef565b6040516104b68161022e81600487016116ef565b604051906104cb8261024c81600588016116ef565b604051926104e08461047281600689016116ef565b60ff600860405196610500886104f981600785016116ef565b0389611533565b01541695604051998a998a6115f2565b346103645760203660031901126103645760043560045481101561036457610539602091611684565b905460405160039290921b1c6001600160a01b03168152f35b5034610364576020366003190112610364576004356001600160a01b038116908190036103645760005260006020526040600020906103f460405161059681611517565b6040516105a78161022e81886116ef565b8152604051926105be8461047281600189016116ef565b60208201938452604051946105e1866105da81600285016116ef565b0387611533565b60408301958652604051906105fd8261024c81600385016116ef565b606084019182526040516106188161022e81600486016116ef565b60808501908152604051906106348261024c81600587016116ef565b60a0860191825260ff600860405194610654866105da81600685016116ef565b60c0890195865260405180986106718261024c81600787016116ef565b8a0152015416151595866101008201525197519851935190519151925193604051998a998a6115f2565b50346103645761010080600319360112610364576004356001600160401b038111610364576106ce903690600401611554565b6024356001600160401b038111610364576106ed903690600401611554565b916044356001600160401b0381116103645761070d903690600401611554565b906064356001600160401b0381116103645761072d903690600401611554565b946084356001600160401b0381116103645761074d903690600401611554565b9560a4356001600160401b0381116103645761076d903690600401611554565b60c4356001600160401b0381116103645761078c903690600401611554565b9060e4356001600160401b038111610364576107ac903690600401611554565b9233600052600060205260ff6008604060002001541661136d57604051966107d388611517565b8888528960208901526040880152606087015288608087015260a086015260c08501528184015260018284015233600052600060205260406000209083518051906001600160401b038211610c3457819061082e85546116b5565b601f811161131d575b50602090601f83116001146112b1576000926112a6575b50508160011b916000199060031b1c19161782555b60208401518051906001600160401b038211610c3457819061088860018601546116b5565b601f8111611253575b50602090601f83116001146111e1576000926111d6575b50508160011b916000199060031b1c19161760018301555b60408401518051906001600160401b038211610c345781906108e560028601546116b5565b601f8111611183575b50602090601f831160011461111157600092611106575b50508160011b916000199060031b1c19161760028301555b60608401518051906001600160401b038211610c3457819061094260038601546116b5565b601f81116110b3575b50602090601f831160011461104157600092611036575b50508160011b916000199060031b1c19161760038301555b60808401518051906001600160401b038211610c3457819061099f60048601546116b5565b601f8111610fe3575b50602090601f8311600114610f7157600092610f66575b50508160011b916000199060031b1c19161760048301555b60a08401518051906001600160401b038211610c345781906109fc60058601546116b5565b601f8111610f13575b50602090601f8311600114610ea157600092610e96575b50508160011b916000199060031b1c19161760058301555b60c08401518051906001600160401b038211610c34578190610a5960068601546116b5565b601f8111610e43575b50602090601f8311600114610dd157600092610dc6575b50508160011b916000199060031b1c19161760068301555b8301518051906001600160401b038211610c3457610ab260078401546116b5565b601f8111610d7f575b50602090601f8311600114610d0c57600893929160009183610d01575b50508160011b916000199060031b1c19161760078201555b01910151151560ff801983541691161790556040516020818551610b178183858a016115aa565b810160018152030190203360018060a01b0319825416179055336000526002602052604060002082516001600160401b038111610c3457610b5882546116b5565b601f8111610cb9575b50806020601f8211600114610c5557600091610c4a575b508160011b916000199060031b1c19161790555b610b97600354611785565b60035560045490600160401b821015610c3457610c2f610c207f509c70f523067009f7db7f46db6956d7af8b679323680dc3821a8bad001ac1e194610be5856001610c129701600455611684565b81549060031b9033821b9160018060a01b03901b19161790556040519485946060865260608601906115cd565b9084820360208601526115cd565b828103604084015233956115cd565b0390a2005b634e487b7160e01b600052604160045260246000fd5b905084015138610b78565b6000848152602081209250601f198416905b818110610ca157509083600194939210610c88575b5050811b019055610b8c565b86015160001960f88460031b161c191690553880610c7c565b9192602060018192868b015181550194019201610c67565b826000526020600020601f830160051c81019160208410610cf7575b601f0160051c01905b818110610ceb5750610b61565b60008155600101610cde565b9091508190610cd5565b015190503880610ad8565b906007840160005260206000209160005b601f1985168110610d67575091839160019360089695601f19811610610d4e575b505050811b016007820155610af0565b015160001960f88460031b161c19169055388080610d3e565b91926020600181928685015181550194019201610d1d565b600784016000526020600020601f840160051c810160208510610dbf575b601f830160051c82018110610db3575050610abb565b60008155600101610d9d565b5080610d9d565b015190503880610a79565b9250600685016000526020600020906000935b601f1984168510610e28576001945083601f19811610610e0f575b505050811b016006830155610a91565b015160001960f88460031b161c19169055388080610dff565b81810151835560209485019460019093019290910190610de4565b909150600685016000526020600020601f840160051c810160208510610e8f575b90849392915b601f830160051c82018110610e80575050610a62565b60008155859450600101610e6a565b5080610e64565b015190503880610a1c565b9250600585016000526020600020906000935b601f1984168510610ef8576001945083601f19811610610edf575b505050811b016005830155610a34565b015160001960f88460031b161c19169055388080610ecf565b81810151835560209485019460019093019290910190610eb4565b909150600585016000526020600020601f840160051c810160208510610f5f575b90849392915b601f830160051c82018110610f50575050610a05565b60008155859450600101610f3a565b5080610f34565b0151905038806109bf565b9250600485016000526020600020906000935b601f1984168510610fc8576001945083601f19811610610faf575b505050811b0160048301556109d7565b015160001960f88460031b161c19169055388080610f9f565b81810151835560209485019460019093019290910190610f84565b909150600485016000526020600020601f840160051c81016020851061102f575b90849392915b601f830160051c820181106110205750506109a8565b6000815585945060010161100a565b5080611004565b015190503880610962565b9250600385016000526020600020906000935b601f1984168510611098576001945083601f1981161061107f575b505050811b01600383015561097a565b015160001960f88460031b161c1916905538808061106f565b81810151835560209485019460019093019290910190611054565b909150600385016000526020600020601f840160051c8101602085106110ff575b90849392915b601f830160051c820181106110f057505061094b565b600081558594506001016110da565b50806110d4565b015190503880610905565b9250600285016000526020600020906000935b601f1984168510611168576001945083601f1981161061114f575b505050811b01600283015561091d565b015160001960f88460031b161c1916905538808061113f565b81810151835560209485019460019093019290910190611124565b909150600285016000526020600020601f840160051c8101602085106111cf575b90849392915b601f830160051c820181106111c05750506108ee565b600081558594506001016111aa565b50806111a4565b0151905038806108a8565b9250600185016000526020600020906000935b601f1984168510611238576001945083601f1981161061121f575b505050811b0160018301556108c0565b015160001960f88460031b161c1916905538808061120f565b818101518355602094850194600190930192909101906111f4565b909150600185016000526020600020601f840160051c81016020851061129f575b90849392915b601f830160051c82018110611290575050610891565b6000815585945060010161127a565b5080611274565b01519050388061084e565b9250846000526020600020906000935b601f1984168510611302576001945083601f198116106112e9575b505050811b018255610863565b015160001960f88460031b161c191690553880806112dc565b818101518355602094850194600190930192909101906112c1565b909150846000526020600020601f840160051c810160208510611366575b90849392915b601f830160051c82018110611357575050610837565b60008155859450600101611341565b508061133b565b60405162461bcd60e51b815260206004820152602e60248201527f557365722077697468207468697320457468657265756d20416464726573732060448201526d616c72656164792065786973747360901b6064820152608490fd5b34610364576040366003190112610364576001600160401b03600435818111610364576113fa903690600401611554565b9060243590811161036457611413903690600401611554565b336000526020916000835261022e6114386004604060002001604051928380926116ef565b83815191012090838151910120036114db57336000526000825261022e61146c6005604060002001604051928380926116ef565b828151910120908281519101200361149d57600090338252526008604060002001600160ff19825416179055600080f35b6064906040519062461bcd60e51b8252600482015260176024820152760a0c2e6e6eedee4c840c8decae640dcdee840dac2e8c6d604b1b6044820152fd5b60405162461bcd60e51b815260048101839052601460248201527308adac2d2d840c8decae640dcdee840dac2e8c6d60631b6044820152606490fd5b61012081019081106001600160401b03821117610c3457604052565b90601f801991011681019081106001600160401b03821117610c3457604052565b81601f82011215610364578035906001600160401b038211610c345760405192611588601f8401601f191660200185611533565b8284526020838301011161036457816000926020809301838601378301015290565b60005b8381106115bd5750506000910152565b81810151838201526020016115ad565b906020916115e6815180928185528580860191016115aa565b601f01601f1916010190565b97946116529061164461166e966116368c9d9e9d6101009c9861162861166099610c1261167c9f9a6101208087528601906115cd565b9160408184039101526115cd565b8c810360608e0152906115cd565b908a820360808c01526115cd565b9088820360a08a01526115cd565b9086820360c08801526115cd565b9084820360e08601526115cd565b931515910152565b60045481101561169f57600460005260206000200190600090565b634e487b7160e01b600052603260045260246000fd5b90600182811c921680156116e5575b60208310146116cf57565b634e487b7160e01b600052602260045260246000fd5b91607f16916116c4565b9060009291805491611700836116b5565b9182825260019384811690816000146117625750600114611722575b50505050565b90919394506000526020928360002092846000945b83861061174e57505050500101903880808061171c565b805485870183015294019385908201611737565b9294505050602093945060ff191683830152151560051b0101903880808061171c565b60001981146117945760010190565b634e487b7160e01b600052601160045260246000fd5b6001600160401b038111610c345760051b60200190565b805182101561169f5760209160051b01019056fea2646970667358221220472913d50e3f20ff810435afca7830f70258542dc820c2566e938fa6a5fce6fc64736f6c63430008130033",
  "linkReferences": {},
  "deployedLinkReferences": {}
}