{
  "_format": "hh-sol-artifact-1",
  "contractName": "UserManagement",
  "sourceName": "contracts/UserManagement.sol",
  "abi": [
    {
      "anonymous": false,
      "inputs": [
        {
          "indexed": true,
          "internalType": "address",
          "name": "userAddress",
          "type": "address"
        },
        {
          "indexed": false,
          "internalType": "string",
          "name": "cnic",
          "type": "string"
        },
        {
          "indexed": false,
          "internalType": "string",
          "name": "name",
          "type": "string"
        },
        {
          "indexed": false,
          "internalType": "string",
          "name": "email",
          "type": "string"
        }
      ],
      "name": "UserRegistered",
      "type": "event"
    },
    {
      "inputs": [
        {
          "internalType": "address",
          "name": "_userAddress",
          "type": "address"
        }
      ],
      "name": "getNameForAddress",
      "outputs": [
        {
          "internalType": "string",
          "name": "",
          "type": "string"
        }
      ],
      "stateMutability": "view",
      "type": "function"
    },
    {
      "inputs": [
        {
          "internalType": "address",
          "name": "_owner",
          "type": "address"
        }
      ],
      "name": "getUser",
      "outputs": [
        {
          "internalType": "string",
          "name": "",
          "type": "string"
        },
        {
          "internalType": "string",
          "name": "",
          "type": "string"
        },
        {
          "internalType": "string",
          "name": "",
          "type": "string"
        },
        {
          "internalType": "string",
          "name": "",
          "type": "string"
        },
        {
          "internalType": "string",
          "name": "",
          "type": "string"
        },
        {
          "internalType": "string",
          "name": "",
          "type": "string"
        },
        {
          "internalType": "string",
          "name": "",
          "type": "string"
        },
        {
          "internalType": "string",
          "name": "",
          "type": "string"
        },
        {
          "internalType": "bool",
          "name": "",
          "type": "bool"
        }
      ],
      "stateMutability": "view",
      "type": "function"
    },
    {
      "inputs": [
        {
          "internalType": "string",
          "name": "_email",
          "type": "string"
        },
        {
          "internalType": "string",
          "name": "_password",
          "type": "string"
        }
      ],
      "name": "loginUser",
      "outputs": [],
      "stateMutability": "nonpayable",
      "type": "function"
    },
    {
      "inputs": [],
      "name": "logoutUser",
      "outputs": [],
      "stateMutability": "nonpayable",
      "type": "function"
    },
    {
      "inputs": [
        {
          "internalType": "string",
          "name": "_CNIC",
          "type": "string"
        },
        {
          "internalType": "string",
          "name": "_name",
          "type": "string"
        },
        {
          "internalType": "string",
          "name": "_fatherName",
          "type": "string"
        },
        {
          "internalType": "string",
          "name": "_phoneNumber",
          "type": "string"
        },
        {
          "internalType": "string",
          "name": "_email",
          "type": "string"
        },
        {
          "internalType": "string",
          "name": "_password",
          "type": "string"
        },
        {
          "internalType": "string",
          "name": "_permanentAddress",
          "type": "string"
        },
        {
          "internalType": "string",
          "name": "_currentAddress",
          "type": "string"
        }
      ],
      "name": "registerUser",
      "outputs": [],
      "stateMutability": "nonpayable",
      "type": "function"
    },
    {
      "inputs": [],
      "name": "totalUsers",
      "outputs": [
        {
          "internalType": "uint256",
          "name": "",
          "type": "uint256"
        }
      ],
      "stateMutability": "view",
      "type": "function"
    },
    {
      "inputs": [
        {
          "internalType": "address",
          "name": "",
          "type": "address"
        }
      ],
      "name": "users",
      "outputs": [
        {
          "internalType": "string",
          "name": "cnic",
          "type": "string"
        },
        {
          "internalType": "string",
          "name": "name",
          "type": "string"
        },
        {
          "internalType": "string",
          "name": "fatherName",
          "type": "string"
        },
        {
          "internalType": "string",
          "name": "phoneNumber",
          "type": "string"
        },
        {
          "internalType": "string",
          "name": "email",
          "type": "string"
        },
        {
          "internalType": "string",
          "name": "password",
          "type": "string"
        },
        {
          "internalType": "string",
          "name": "permanentAddress",
          "type": "string"
        },
        {
          "internalType": "string",
          "name": "currentAddress",
          "type": "string"
        },
        {
          "internalType": "bool",
          "name": "isregister",
          "type": "bool"
        }
      ],
      "stateMutability": "view",
      "type": "function"
    }
  ],
  "bytecode": "0x60808060405234610016576114b5908161001c8239f35b600080fdfe6080604052600436101561001257600080fd5b60003560e01c806322ce12e514610fce57806367601dd1146102bd5780636f77926b146101bd578063a87430ba14610111578063bff1f9e1146100f3578063d8c27b9b1461009d5763d8f145d21461006957600080fd5b3461009857600036600319011261009857336000526000602052600860406000200160ff198154169055600080f35b600080fd5b34610098576020366003190112610098576004356001600160a01b038116908190036100985760005260026020526100ef6100db60406000206113d9565b6040519182916020835260208301906112e8565b0390f35b34610098576000366003190112610098576020600354604051908152f35b34610098576020366003190112610098576004356001600160a01b03811690819003610098576000526000602052604060002061014d816113d9565b6100ef61015c600184016113d9565b92610169600282016113d9565b90610176600382016113d9565b610182600483016113d9565b61018e600584016113d9565b9061019b600685016113d9565b9260ff60086101ac600788016113d9565b9601541695604051998a998a61130d565b34610098576020366003190112610098576004356001600160a01b0381169081900361009857600052600060205260406000206040516101fc81611232565b610205826113d9565b81526100ef610216600184016113d9565b916020810192835261022a600285016113d9565b936040820194855261023e600382016113d9565b60608301908152610251600483016113d9565b60808401908152610264600584016113d9565b60a08501908152610277600685016113d9565b9160c0860192835260ff600861028f600788016113d9565b968760e08a0152015416151595866101008201525197519851935190519151925193604051998a998a61130d565b346100985761010080600319360112610098576004356001600160401b038111610098576102ef90369060040161126f565b6024356001600160401b0381116100985761030e90369060040161126f565b906044356001600160401b0381116100985761032e90369060040161126f565b6064356001600160401b0381116100985761034d90369060040161126f565b936084356001600160401b0381116100985761036d90369060040161126f565b9460a4356001600160401b0381116100985761038d90369060040161126f565b60c4356001600160401b038111610098576103ac90369060040161126f565b9060e4356001600160401b038111610098576103cc90369060040161126f565b9233600052600060205260ff60086040600020015416610f7257604051956103f387611232565b8787528860208801526040870152606086015287608086015260a085015260c084015260e0830152600181830152336000526000602052604060002082518051906001600160401b0382116108f057819061044e845461139f565b601f8111610f22575b50602090601f8311600114610eb657600092610eab575b50508160011b916000199060031b1c19161781555b60208301518051906001600160401b0382116108f05781906104a8600185015461139f565b601f8111610e58575b50602090601f8311600114610de657600092610ddb575b50508160011b916000199060031b1c19161760018201555b60408301518051906001600160401b0382116108f0578190610505600285015461139f565b601f8111610d88575b50602090601f8311600114610d1657600092610d0b575b50508160011b916000199060031b1c19161760028201555b60608301518051906001600160401b0382116108f0578190610562600385015461139f565b601f8111610cb8575b50602090601f8311600114610c4657600092610c3b575b50508160011b916000199060031b1c19161760038201555b60808301518051906001600160401b0382116108f05781906105bf600485015461139f565b601f8111610be8575b50602090601f8311600114610b7657600092610b6b575b50508160011b916000199060031b1c19161760048201555b60a08301518051906001600160401b0382116108f057819061061c600585015461139f565b601f8111610b18575b50602090601f8311600114610aa657600092610a9b575b50508160011b916000199060031b1c19161760058201555b60c08301518051906001600160401b0382116108f0578190610679600685015461139f565b601f8111610a48575b50602090601f83116001146109d6576000926109cb575b50508160011b916000199060031b1c19161760068201555b60e08301518051906001600160401b0382116108f0576106d4600784015461139f565b601f8111610984575b50602090601f831160011461091157600893929160009183610906575b50508160011b916000199060031b1c19161760078201555b01910151151560ff8019835416911617905560405160208185516107398183858a016112c5565b810160018152030190203360018060a01b0319825416179055336000526002602052604060002082516001600160401b0381116108f05761077a825461139f565b601f81116108a8575b50806020601f821160011461084457600091610839575b508160011b916000199060031b1c19161790555b6003549060001982146108235761081e61080f7f509c70f523067009f7db7f46db6956d7af8b679323680dc3821a8bad001ac1e194600161080195016003556040519485946060865260608601906112e8565b9084820360208601526112e8565b828103604084015233956112e8565b0390a2005b634e487b7160e01b600052601160045260246000fd5b90508401518661079a565b6000848152602081209250601f198416905b81811061089057509083600194939210610877575b5050811b0190556107ae565b86015160001960f88460031b161c19169055868061086b565b9192602060018192868b015181550194019201610856565b826000526020600020601f830160051c810191602084106108e6575b601f0160051c01905b8181106108da5750610783565b600081556001016108cd565b90915081906108c4565b634e487b7160e01b600052604160045260246000fd5b0151905089806106fa565b906007840160005260206000209160005b601f198516811061096c575091839160019360089695601f19811610610953575b505050811b016007820155610712565b015160001960f88460031b161c19169055898080610943565b91926020600181928685015181550194019201610922565b600784016000526020600020601f840160051c8101602085106109c4575b601f830160051c820181106109b85750506106dd565b600081556001016109a2565b50806109a2565b015190508880610699565b9250600684016000526020600020906000935b601f1984168510610a2d576001945083601f19811610610a14575b505050811b0160068201556106b1565b015160001960f88460031b161c19169055888080610a04565b818101518355602094850194600190930192909101906109e9565b909150600684016000526020600020601f840160051c810160208510610a94575b90849392915b601f830160051c82018110610a85575050610682565b60008155859450600101610a6f565b5080610a69565b01519050888061063c565b9250600584016000526020600020906000935b601f1984168510610afd576001945083601f19811610610ae4575b505050811b016005820155610654565b015160001960f88460031b161c19169055888080610ad4565b81810151835560209485019460019093019290910190610ab9565b909150600584016000526020600020601f840160051c810160208510610b64575b90849392915b601f830160051c82018110610b55575050610625565b60008155859450600101610b3f565b5080610b39565b0151905088806105df565b9250600484016000526020600020906000935b601f1984168510610bcd576001945083601f19811610610bb4575b505050811b0160048201556105f7565b015160001960f88460031b161c19169055888080610ba4565b81810151835560209485019460019093019290910190610b89565b909150600484016000526020600020601f840160051c810160208510610c34575b90849392915b601f830160051c82018110610c255750506105c8565b60008155859450600101610c0f565b5080610c09565b015190508880610582565b9250600384016000526020600020906000935b601f1984168510610c9d576001945083601f19811610610c84575b505050811b01600382015561059a565b015160001960f88460031b161c19169055888080610c74565b81810151835560209485019460019093019290910190610c59565b909150600384016000526020600020601f840160051c810160208510610d04575b90849392915b601f830160051c82018110610cf557505061056b565b60008155859450600101610cdf565b5080610cd9565b015190508880610525565b9250600284016000526020600020906000935b601f1984168510610d6d576001945083601f19811610610d54575b505050811b01600282015561053d565b015160001960f88460031b161c19169055888080610d44565b81810151835560209485019460019093019290910190610d29565b909150600284016000526020600020601f840160051c810160208510610dd4575b90849392915b601f830160051c82018110610dc557505061050e565b60008155859450600101610daf565b5080610da9565b0151905088806104c8565b9250600184016000526020600020906000935b601f1984168510610e3d576001945083601f19811610610e24575b505050811b0160018201556104e0565b015160001960f88460031b161c19169055888080610e14565b81810151835560209485019460019093019290910190610df9565b909150600184016000526020600020601f840160051c810160208510610ea4575b90849392915b601f830160051c82018110610e955750506104b1565b60008155859450600101610e7f565b5080610e79565b01519050888061046e565b9250836000526020600020906000935b601f1984168510610f07576001945083601f19811610610eee575b505050811b018155610483565b015160001960f88460031b161c19169055888080610ee1565b81810151835560209485019460019093019290910190610ec6565b909150836000526020600020601f840160051c810160208510610f6b575b90849392915b601f830160051c82018110610f5c575050610457565b60008155859450600101610f46565b5080610f40565b60405162461bcd60e51b815260206004820152602e60248201527f557365722077697468207468697320457468657265756d20416464726573732060448201526d616c72656164792065786973747360901b6064820152608490fd5b34610098576040366003190112610098576001600160401b0360043581811161009857610fff90369060040161126f565b906024359081116100985761101890369060040161126f565b336000526020906000825260046040600020019260405193600094815495816110408861139f565b9182825287820194600199898b821691826000146112145750506001146111d3575b5061106f9250038261124e565b51902090838151910120036111975733600052600082526005604060002001604051600091818154936110a18561139f565b9283835287830195888a82169182600014611179575050600114611138575b506110cd9250038261124e565b51902090828151910120036110fa576000903382525260086040600020019060ff19825416179055600080f35b6064906040519062461bcd60e51b8252600482015260176024820152760a0c2e6e6eedee4c840c8decae640dcdee840dac2e8c6d604b1b6044820152fd5b915050600052818580600020886000915b8583106111605750506110cd9350820101886110c0565b8091929450548385880101520191018690888593611149565b60ff191688526110cd95151560051b85010192508a91506110c09050565b60405162461bcd60e51b815260048101839052601460248201527308adac2d2d840c8decae640dcdee840dac2e8c6d60631b6044820152606490fd5b915050600052818680600020896000915b8583106111fb57505061106f935082010189611062565b80919294505483858801015201910187908985936111e4565b60ff1916885261106f95151560051b85010192508b91506110629050565b61012081019081106001600160401b038211176108f057604052565b90601f801991011681019081106001600160401b038211176108f057604052565b81601f82011215610098578035906001600160401b0382116108f057604051926112a3601f8401601f19166020018561124e565b8284526020838301011161009857816000926020809301838601378301015290565b60005b8381106112d85750506000910152565b81810151838201526020016112c8565b90602091611301815180928185528580860191016112c5565b601f01601f1916010190565b979461136d9061135f611389966113518c9d9e9d6101009c9861134361137b996108016113979f9a6101208087528601906112e8565b9160408184039101526112e8565b8c810360608e0152906112e8565b908a820360808c01526112e8565b9088820360a08a01526112e8565b9086820360c08801526112e8565b9084820360e08601526112e8565b931515910152565b90600182811c921680156113cf575b60208310146113b957565b634e487b7160e01b600052602260045260246000fd5b91607f16916113ae565b90604051918260008254926113ed8461139f565b90818452600194858116908160001461145c5750600114611419575b50506114179250038361124e565b565b9093915060005260209081600020936000915b81831061144457505061141793508201013880611409565b8554888401850152948501948794509183019161142c565b91505061141794506020925060ff191682840152151560051b820101388061140956fea2646970667358221220f00ec70e406097c157b3519f1450dcd8a3a2b164dcd4a3bdf2219f2daa28f2d264736f6c63430008130033",
  "linkReferences": {},
  "deployedLinkReferences": {}
}