{
  "_format": "hh-sol-artifact-1",
  "contractName": "UserManagement",
  "sourceName": "contracts/UserManagement.sol",
  "abi": [
    {
      "anonymous": false,
      "inputs": [
        {
          "indexed": true,
          "internalType": "address",
          "name": "userAddress",
          "type": "address"
        },
        {
          "indexed": false,
          "internalType": "string",
          "name": "cnic",
          "type": "string"
        },
        {
          "indexed": false,
          "internalType": "string",
          "name": "name",
          "type": "string"
        },
        {
          "indexed": false,
          "internalType": "string",
          "name": "email",
          "type": "string"
        }
      ],
      "name": "UserRegistered",
      "type": "event"
    },
    {
      "inputs": [
        {
          "internalType": "address",
          "name": "_userAddress",
          "type": "address"
        }
      ],
      "name": "getNameForAddress",
      "outputs": [
        {
          "internalType": "string",
          "name": "",
          "type": "string"
        }
      ],
      "stateMutability": "view",
      "type": "function"
    },
    {
      "inputs": [],
      "name": "getUser",
      "outputs": [
        {
          "internalType": "string",
          "name": "",
          "type": "string"
        },
        {
          "internalType": "string",
          "name": "",
          "type": "string"
        },
        {
          "internalType": "string",
          "name": "",
          "type": "string"
        },
        {
          "internalType": "string",
          "name": "",
          "type": "string"
        }
      ],
      "stateMutability": "view",
      "type": "function"
    },
    {
      "inputs": [
        {
          "internalType": "string",
          "name": "_email",
          "type": "string"
        },
        {
          "internalType": "string",
          "name": "_password",
          "type": "string"
        }
      ],
      "name": "loginUser",
      "outputs": [],
      "stateMutability": "nonpayable",
      "type": "function"
    },
    {
      "inputs": [],
      "name": "logoutUser",
      "outputs": [],
      "stateMutability": "nonpayable",
      "type": "function"
    },
    {
      "inputs": [
        {
          "internalType": "string",
          "name": "_CNIC",
          "type": "string"
        },
        {
          "internalType": "string",
          "name": "_name",
          "type": "string"
        },
        {
          "internalType": "string",
          "name": "_fatherName",
          "type": "string"
        },
        {
          "internalType": "string",
          "name": "_phoneNumber",
          "type": "string"
        },
        {
          "internalType": "string",
          "name": "_email",
          "type": "string"
        },
        {
          "internalType": "string",
          "name": "_password",
          "type": "string"
        },
        {
          "internalType": "string",
          "name": "_permanentAddress",
          "type": "string"
        },
        {
          "internalType": "string",
          "name": "_currentAddress",
          "type": "string"
        }
      ],
      "name": "registerUser",
      "outputs": [],
      "stateMutability": "nonpayable",
      "type": "function"
    },
    {
      "inputs": [],
      "name": "totalUsers",
      "outputs": [
        {
          "internalType": "uint256",
          "name": "",
          "type": "uint256"
        }
      ],
      "stateMutability": "view",
      "type": "function"
    },
    {
      "inputs": [
        {
          "internalType": "address",
          "name": "",
          "type": "address"
        }
      ],
      "name": "users",
      "outputs": [
        {
          "internalType": "string",
          "name": "cnic",
          "type": "string"
        },
        {
          "internalType": "string",
          "name": "name",
          "type": "string"
        },
        {
          "internalType": "string",
          "name": "fatherName",
          "type": "string"
        },
        {
          "internalType": "string",
          "name": "phoneNumber",
          "type": "string"
        },
        {
          "internalType": "string",
          "name": "email",
          "type": "string"
        },
        {
          "internalType": "string",
          "name": "password",
          "type": "string"
        },
        {
          "internalType": "string",
          "name": "permanentAddress",
          "type": "string"
        },
        {
          "internalType": "string",
          "name": "currentAddress",
          "type": "string"
        },
        {
          "internalType": "bool",
          "name": "isregister",
          "type": "bool"
        }
      ],
      "stateMutability": "view",
      "type": "function"
    }
  ],
  "bytecode": "0x60808060405234610016576114c6908161001c8239f35b600080fdfe6080604052600436101561001257600080fd5b60003560e01c806322ce12e51461107157806367601dd114610360578063832880e714610249578063a87430ba14610111578063bff1f9e1146100f3578063d8c27b9b1461009d5763d8f145d21461006957600080fd5b3461009857600036600319011261009857336000526000602052600860406000200160ff198154169055600080f35b600080fd5b34610098576020366003190112610098576004356001600160a01b038116908190036100985760005260026020526100ef6100db60406000206113ea565b60405191829160208352602083019061138b565b0390f35b34610098576000366003190112610098576020600354604051908152f35b34610098576020366003190112610098576004356001600160a01b03811690819003610098576000526000602052604060002061014d816113ea565b610159600183016113ea565b91610166600282016113ea565b90610173600382016113ea565b61017f600483016113ea565b61018b600584016113ea565b90610198600685016113ea565b926101a5600786016113ea565b946008015460ff1695604051988998610120808b528a016101c59161138b565b89810360208b01526101d69161138b565b88810360408a01526101e79161138b565b87810360608901526101f89161138b565b86810360808801526102099161138b565b85810360a087015261021a9161138b565b84810360c086015261022b9161138b565b83810360e085015261023c9161138b565b9015156101008301520390f35b346100985760003660031901126100985733600052600060205261033660406000206100ef60405161027a816112d5565b610283836113ea565b8152610352610294600185016113ea565b93602083019485526102a8600282016113ea565b60408401526102b9600382016113ea565b60608401526103446102cd600483016113ea565b936080810194855260ff60086102e5600586016113ea565b9460a084019586526102f9600682016113ea565b60c085015261030a600782016113ea565b60e08501520154161515610100820152519551935191519360405197889760808952608089019061138b565b90878203602089015261138b565b90858203604087015261138b565b90838203606085015261138b565b346100985761010080600319360112610098576004356001600160401b03811161009857610392903690600401611312565b6024356001600160401b038111610098576103b1903690600401611312565b906044356001600160401b038111610098576103d1903690600401611312565b6064356001600160401b038111610098576103f0903690600401611312565b936084356001600160401b03811161009857610410903690600401611312565b9460a4356001600160401b03811161009857610430903690600401611312565b60c4356001600160401b0381116100985761044f903690600401611312565b9060e4356001600160401b0381116100985761046f903690600401611312565b9233600052600060205260ff600860406000200154166110155760405195610496876112d5565b8787528860208801526040870152606086015287608086015260a085015260c084015260e0830152600181830152336000526000602052604060002082518051906001600160401b0382116109935781906104f184546113b0565b601f8111610fc5575b50602090601f8311600114610f5957600092610f4e575b50508160011b916000199060031b1c19161781555b60208301518051906001600160401b03821161099357819061054b60018501546113b0565b601f8111610efb575b50602090601f8311600114610e8957600092610e7e575b50508160011b916000199060031b1c19161760018201555b60408301518051906001600160401b0382116109935781906105a860028501546113b0565b601f8111610e2b575b50602090601f8311600114610db957600092610dae575b50508160011b916000199060031b1c19161760028201555b60608301518051906001600160401b03821161099357819061060560038501546113b0565b601f8111610d5b575b50602090601f8311600114610ce957600092610cde575b50508160011b916000199060031b1c19161760038201555b60808301518051906001600160401b03821161099357819061066260048501546113b0565b601f8111610c8b575b50602090601f8311600114610c1957600092610c0e575b50508160011b916000199060031b1c19161760048201555b60a08301518051906001600160401b0382116109935781906106bf60058501546113b0565b601f8111610bbb575b50602090601f8311600114610b4957600092610b3e575b50508160011b916000199060031b1c19161760058201555b60c08301518051906001600160401b03821161099357819061071c60068501546113b0565b601f8111610aeb575b50602090601f8311600114610a7957600092610a6e575b50508160011b916000199060031b1c19161760068201555b60e08301518051906001600160401b0382116109935761077760078401546113b0565b601f8111610a27575b50602090601f83116001146109b4576008939291600091836109a9575b50508160011b916000199060031b1c19161760078201555b01910151151560ff8019835416911617905560405160208185516107dc8183858a01611368565b810160018152030190203360018060a01b0319825416179055336000526002602052604060002082516001600160401b0381116109935761081d82546113b0565b601f811161094b575b50806020601f82116001146108e7576000916108dc575b508160011b916000199060031b1c19161790555b6003549060001982146108c6576108c16108b27f509c70f523067009f7db7f46db6956d7af8b679323680dc3821a8bad001ac1e19460016108a4950160035560405194859460608652606086019061138b565b90848203602086015261138b565b8281036040840152339561138b565b0390a2005b634e487b7160e01b600052601160045260246000fd5b90508401518661083d565b6000848152602081209250601f198416905b8181106109335750908360019493921061091a575b5050811b019055610851565b86015160001960f88460031b161c19169055868061090e565b9192602060018192868b0151815501940192016108f9565b826000526020600020601f830160051c81019160208410610989575b601f0160051c01905b81811061097d5750610826565b60008155600101610970565b9091508190610967565b634e487b7160e01b600052604160045260246000fd5b01519050898061079d565b906007840160005260206000209160005b601f1985168110610a0f575091839160019360089695601f198116106109f6575b505050811b0160078201556107b5565b015160001960f88460031b161c191690558980806109e6565b919260206001819286850151815501940192016109c5565b600784016000526020600020601f840160051c810160208510610a67575b601f830160051c82018110610a5b575050610780565b60008155600101610a45565b5080610a45565b01519050888061073c565b9250600684016000526020600020906000935b601f1984168510610ad0576001945083601f19811610610ab7575b505050811b016006820155610754565b015160001960f88460031b161c19169055888080610aa7565b81810151835560209485019460019093019290910190610a8c565b909150600684016000526020600020601f840160051c810160208510610b37575b90849392915b601f830160051c82018110610b28575050610725565b60008155859450600101610b12565b5080610b0c565b0151905088806106df565b9250600584016000526020600020906000935b601f1984168510610ba0576001945083601f19811610610b87575b505050811b0160058201556106f7565b015160001960f88460031b161c19169055888080610b77565b81810151835560209485019460019093019290910190610b5c565b909150600584016000526020600020601f840160051c810160208510610c07575b90849392915b601f830160051c82018110610bf85750506106c8565b60008155859450600101610be2565b5080610bdc565b015190508880610682565b9250600484016000526020600020906000935b601f1984168510610c70576001945083601f19811610610c57575b505050811b01600482015561069a565b015160001960f88460031b161c19169055888080610c47565b81810151835560209485019460019093019290910190610c2c565b909150600484016000526020600020601f840160051c810160208510610cd7575b90849392915b601f830160051c82018110610cc857505061066b565b60008155859450600101610cb2565b5080610cac565b015190508880610625565b9250600384016000526020600020906000935b601f1984168510610d40576001945083601f19811610610d27575b505050811b01600382015561063d565b015160001960f88460031b161c19169055888080610d17565b81810151835560209485019460019093019290910190610cfc565b909150600384016000526020600020601f840160051c810160208510610da7575b90849392915b601f830160051c82018110610d9857505061060e565b60008155859450600101610d82565b5080610d7c565b0151905088806105c8565b9250600284016000526020600020906000935b601f1984168510610e10576001945083601f19811610610df7575b505050811b0160028201556105e0565b015160001960f88460031b161c19169055888080610de7565b81810151835560209485019460019093019290910190610dcc565b909150600284016000526020600020601f840160051c810160208510610e77575b90849392915b601f830160051c82018110610e685750506105b1565b60008155859450600101610e52565b5080610e4c565b01519050888061056b565b9250600184016000526020600020906000935b601f1984168510610ee0576001945083601f19811610610ec7575b505050811b016001820155610583565b015160001960f88460031b161c19169055888080610eb7565b81810151835560209485019460019093019290910190610e9c565b909150600184016000526020600020601f840160051c810160208510610f47575b90849392915b601f830160051c82018110610f38575050610554565b60008155859450600101610f22565b5080610f1c565b015190508880610511565b9250836000526020600020906000935b601f1984168510610faa576001945083601f19811610610f91575b505050811b018155610526565b015160001960f88460031b161c19169055888080610f84565b81810151835560209485019460019093019290910190610f69565b909150836000526020600020601f840160051c81016020851061100e575b90849392915b601f830160051c82018110610fff5750506104fa565b60008155859450600101610fe9565b5080610fe3565b60405162461bcd60e51b815260206004820152602e60248201527f557365722077697468207468697320457468657265756d20416464726573732060448201526d616c72656164792065786973747360901b6064820152608490fd5b34610098576040366003190112610098576001600160401b03600435818111610098576110a2903690600401611312565b90602435908111610098576110bb903690600401611312565b336000526020906000825260046040600020019260405193600094815495816110e3886113b0565b9182825287820194600199898b821691826000146112b7575050600114611276575b50611112925003826112f1565b519020908381519101200361123a573360005260008252600560406000200160405160009181815493611144856113b0565b9283835287830195888a8216918260001461121c5750506001146111db575b50611170925003826112f1565b519020908281519101200361119d576000903382525260086040600020019060ff19825416179055600080f35b6064906040519062461bcd60e51b8252600482015260176024820152760a0c2e6e6eedee4c840c8decae640dcdee840dac2e8c6d604b1b6044820152fd5b915050600052818580600020886000915b858310611203575050611170935082010188611163565b80919294505483858801015201910186908885936111ec565b60ff1916885261117095151560051b85010192508a91506111639050565b60405162461bcd60e51b815260048101839052601460248201527308adac2d2d840c8decae640dcdee840dac2e8c6d60631b6044820152606490fd5b915050600052818680600020896000915b85831061129e575050611112935082010189611105565b8091929450548385880101520191018790898593611287565b60ff1916885261111295151560051b85010192508b91506111059050565b61012081019081106001600160401b0382111761099357604052565b90601f801991011681019081106001600160401b0382111761099357604052565b81601f82011215610098578035906001600160401b0382116109935760405192611346601f8401601f1916602001856112f1565b8284526020838301011161009857816000926020809301838601378301015290565b60005b83811061137b5750506000910152565b818101518382015260200161136b565b906020916113a481518092818552858086019101611368565b601f01601f1916010190565b90600182811c921680156113e0575b60208310146113ca57565b634e487b7160e01b600052602260045260246000fd5b91607f16916113bf565b90604051918260008254926113fe846113b0565b90818452600194858116908160001461146d575060011461142a575b5050611428925003836112f1565b565b9093915060005260209081600020936000915b8183106114555750506114289350820101388061141a565b8554888401850152948501948794509183019161143d565b91505061142894506020925060ff191682840152151560051b820101388061141a56fea2646970667358221220bde11559ab4d1f8cfaac91a10e0a73673c601447603d36221a2874b9a8510a1464736f6c63430008130033",
  "linkReferences": {},
  "deployedLinkReferences": {}
}