{
  "_format": "hh-sol-artifact-1",
  "contractName": "UserAuthenticationManagement",
  "sourceName": "contracts/UserAuthenticationManagement.sol",
  "abi": [
    {
      "inputs": [
        {
          "internalType": "address",
          "name": "_userAddress",
          "type": "address"
        }
      ],
      "name": "getNameForAddress",
      "outputs": [
        {
          "internalType": "string",
          "name": "",
          "type": "string"
        }
      ],
      "stateMutability": "view",
      "type": "function"
    },
    {
      "inputs": [],
      "name": "getUser",
      "outputs": [
        {
          "internalType": "string",
          "name": "",
          "type": "string"
        },
        {
          "internalType": "string",
          "name": "",
          "type": "string"
        },
        {
          "internalType": "string",
          "name": "",
          "type": "string"
        },
        {
          "internalType": "string",
          "name": "",
          "type": "string"
        }
      ],
      "stateMutability": "view",
      "type": "function"
    },
    {
      "inputs": [
        {
          "internalType": "string",
          "name": "_email",
          "type": "string"
        },
        {
          "internalType": "string",
          "name": "_password",
          "type": "string"
        }
      ],
      "name": "loginUser",
      "outputs": [
        {
          "internalType": "bool",
          "name": "",
          "type": "bool"
        }
      ],
      "stateMutability": "view",
      "type": "function"
    },
    {
      "inputs": [
        {
          "internalType": "string",
          "name": "_CNIC",
          "type": "string"
        },
        {
          "internalType": "string",
          "name": "_name",
          "type": "string"
        },
        {
          "internalType": "string",
          "name": "_fatherName",
          "type": "string"
        },
        {
          "internalType": "string",
          "name": "_phoneNumber",
          "type": "string"
        },
        {
          "internalType": "string",
          "name": "_email",
          "type": "string"
        },
        {
          "internalType": "string",
          "name": "_password",
          "type": "string"
        },
        {
          "internalType": "string",
          "name": "_permanentAddress",
          "type": "string"
        },
        {
          "internalType": "string",
          "name": "_currentAddress",
          "type": "string"
        }
      ],
      "name": "registerUser",
      "outputs": [],
      "stateMutability": "nonpayable",
      "type": "function"
    },
    {
      "inputs": [
        {
          "internalType": "address",
          "name": "",
          "type": "address"
        }
      ],
      "name": "users",
      "outputs": [
        {
          "internalType": "string",
          "name": "cnic",
          "type": "string"
        },
        {
          "internalType": "string",
          "name": "name",
          "type": "string"
        },
        {
          "internalType": "string",
          "name": "fatherName",
          "type": "string"
        },
        {
          "internalType": "string",
          "name": "phoneNumber",
          "type": "string"
        },
        {
          "internalType": "string",
          "name": "email",
          "type": "string"
        },
        {
          "internalType": "string",
          "name": "password",
          "type": "string"
        },
        {
          "internalType": "string",
          "name": "permanentAddress",
          "type": "string"
        },
        {
          "internalType": "string",
          "name": "currentAddress",
          "type": "string"
        },
        {
          "internalType": "bool",
          "name": "isregister",
          "type": "bool"
        }
      ],
      "stateMutability": "view",
      "type": "function"
    }
  ],
  "bytecode": "0x608060405234801561001057600080fd5b50611ecb806100206000396000f3fe608060405234801561001057600080fd5b50600436106100575760003560e01c806322ce12e51461005c57806367601dd11461008c578063832880e7146100a8578063a87430ba146100c9578063d8c27b9b14610101575b600080fd5b610076600480360381019061007191906115c6565b610131565b6040516100839190611659565b60405180910390f35b6100a660048036038101906100a19190611674565b61073a565b005b6100b06109de565b6040516100c09493929190611889565b60405180910390f35b6100e360048036038101906100de9190611948565b610f00565b6040516100f899989796959493929190611975565b60405180910390f35b61011b60048036038101906101169190611948565b61139b565b6040516101289190611a3a565b60405180910390f35b6000806001846040516101449190611a98565b908152602001604051809103902060009054906101000a900473ffffffffffffffffffffffffffffffffffffffff169050600073ffffffffffffffffffffffffffffffffffffffff168173ffffffffffffffffffffffffffffffffffffffff16036101e4576040517f08c379a00000000000000000000000000000000000000000000000000000000081526004016101db90611afb565b60405180910390fd5b60008060008373ffffffffffffffffffffffffffffffffffffffff1673ffffffffffffffffffffffffffffffffffffffff1681526020019081526020016000206040518061012001604052908160008201805461024090611b4a565b80601f016020809104026020016040519081016040528092919081815260200182805461026c90611b4a565b80156102b95780601f1061028e576101008083540402835291602001916102b9565b820191906000526020600020905b81548152906001019060200180831161029c57829003601f168201915b505050505081526020016001820180546102d290611b4a565b80601f01602080910402602001604051908101604052809291908181526020018280546102fe90611b4a565b801561034b5780601f106103205761010080835404028352916020019161034b565b820191906000526020600020905b81548152906001019060200180831161032e57829003601f168201915b5050505050815260200160028201805461036490611b4a565b80601f016020809104026020016040519081016040528092919081815260200182805461039090611b4a565b80156103dd5780601f106103b2576101008083540402835291602001916103dd565b820191906000526020600020905b8154815290600101906020018083116103c057829003601f168201915b505050505081526020016003820180546103f690611b4a565b80601f016020809104026020016040519081016040528092919081815260200182805461042290611b4a565b801561046f5780601f106104445761010080835404028352916020019161046f565b820191906000526020600020905b81548152906001019060200180831161045257829003601f168201915b5050505050815260200160048201805461048890611b4a565b80601f01602080910402602001604051908101604052809291908181526020018280546104b490611b4a565b80156105015780601f106104d657610100808354040283529160200191610501565b820191906000526020600020905b8154815290600101906020018083116104e457829003601f168201915b5050505050815260200160058201805461051a90611b4a565b80601f016020809104026020016040519081016040528092919081815260200182805461054690611b4a565b80156105935780601f1061056857610100808354040283529160200191610593565b820191906000526020600020905b81548152906001019060200180831161057657829003601f168201915b505050505081526020016006820180546105ac90611b4a565b80601f01602080910402602001604051908101604052809291908181526020018280546105d890611b4a565b80156106255780601f106105fa57610100808354040283529160200191610625565b820191906000526020600020905b81548152906001019060200180831161060857829003601f168201915b5050505050815260200160078201805461063e90611b4a565b80601f016020809104026020016040519081016040528092919081815260200182805461066a90611b4a565b80156106b75780601f1061068c576101008083540402835291602001916106b7565b820191906000526020600020905b81548152906001019060200180831161069a57829003601f168201915b505050505081526020016008820160009054906101000a900460ff16151515158152505090508060a001516040516020016106f29190611a98565b60405160208183030381529060405280519060200120846040516020016107199190611a98565b60405160208183030381529060405280519060200120149250505092915050565b600015156000803373ffffffffffffffffffffffffffffffffffffffff1673ffffffffffffffffffffffffffffffffffffffff16815260200190815260200160002060080160009054906101000a900460ff161515146107cf576040517f08c379a00000000000000000000000000000000000000000000000000000000081526004016107c690611bed565b60405180910390fd5b60006040518061012001604052808a8152602001898152602001888152602001878152602001868152602001858152602001848152602001838152602001600115158152509050806000803373ffffffffffffffffffffffffffffffffffffffff1673ffffffffffffffffffffffffffffffffffffffff168152602001908152602001600020600082015181600001908161086a9190611dc3565b5060208201518160010190816108809190611dc3565b5060408201518160020190816108969190611dc3565b5060608201518160030190816108ac9190611dc3565b5060808201518160040190816108c29190611dc3565b5060a08201518160050190816108d89190611dc3565b5060c08201518160060190816108ee9190611dc3565b5060e08201518160070190816109049190611dc3565b506101008201518160080160006101000a81548160ff0219169083151502179055509050503360018660405161093a9190611a98565b908152602001604051809103902060006101000a81548173ffffffffffffffffffffffffffffffffffffffff021916908373ffffffffffffffffffffffffffffffffffffffff16021790555087600260003373ffffffffffffffffffffffffffffffffffffffff1673ffffffffffffffffffffffffffffffffffffffff16815260200190815260200160002090816109d29190611dc3565b50505050505050505050565b60608060608060008060003373ffffffffffffffffffffffffffffffffffffffff1673ffffffffffffffffffffffffffffffffffffffff16815260200190815260200160002060405180610120016040529081600082018054610a4090611b4a565b80601f0160208091040260200160405190810160405280929190818152602001828054610a6c90611b4a565b8015610ab95780601f10610a8e57610100808354040283529160200191610ab9565b820191906000526020600020905b815481529060010190602001808311610a9c57829003601f168201915b50505050508152602001600182018054610ad290611b4a565b80601f0160208091040260200160405190810160405280929190818152602001828054610afe90611b4a565b8015610b4b5780601f10610b2057610100808354040283529160200191610b4b565b820191906000526020600020905b815481529060010190602001808311610b2e57829003601f168201915b50505050508152602001600282018054610b6490611b4a565b80601f0160208091040260200160405190810160405280929190818152602001828054610b9090611b4a565b8015610bdd5780601f10610bb257610100808354040283529160200191610bdd565b820191906000526020600020905b815481529060010190602001808311610bc057829003601f168201915b50505050508152602001600382018054610bf690611b4a565b80601f0160208091040260200160405190810160405280929190818152602001828054610c2290611b4a565b8015610c6f5780601f10610c4457610100808354040283529160200191610c6f565b820191906000526020600020905b815481529060010190602001808311610c5257829003601f168201915b50505050508152602001600482018054610c8890611b4a565b80601f0160208091040260200160405190810160405280929190818152602001828054610cb490611b4a565b8015610d015780601f10610cd657610100808354040283529160200191610d01565b820191906000526020600020905b815481529060010190602001808311610ce457829003601f168201915b50505050508152602001600582018054610d1a90611b4a565b80601f0160208091040260200160405190810160405280929190818152602001828054610d4690611b4a565b8015610d935780601f10610d6857610100808354040283529160200191610d93565b820191906000526020600020905b815481529060010190602001808311610d7657829003601f168201915b50505050508152602001600682018054610dac90611b4a565b80601f0160208091040260200160405190810160405280929190818152602001828054610dd890611b4a565b8015610e255780601f10610dfa57610100808354040283529160200191610e25565b820191906000526020600020905b815481529060010190602001808311610e0857829003601f168201915b50505050508152602001600782018054610e3e90611b4a565b80601f0160208091040260200160405190810160405280929190818152602001828054610e6a90611b4a565b8015610eb75780601f10610e8c57610100808354040283529160200191610eb7565b820191906000526020600020905b815481529060010190602001808311610e9a57829003601f168201915b505050505081526020016008820160009054906101000a900460ff16151515158152505090508060000151816020015182608001518360a0015194509450945094505090919293565b6000602052806000526040600020600091509050806000018054610f2390611b4a565b80601f0160208091040260200160405190810160405280929190818152602001828054610f4f90611b4a565b8015610f9c5780601f10610f7157610100808354040283529160200191610f9c565b820191906000526020600020905b815481529060010190602001808311610f7f57829003601f168201915b505050505090806001018054610fb190611b4a565b80601f0160208091040260200160405190810160405280929190818152602001828054610fdd90611b4a565b801561102a5780601f10610fff5761010080835404028352916020019161102a565b820191906000526020600020905b81548152906001019060200180831161100d57829003601f168201915b50505050509080600201805461103f90611b4a565b80601f016020809104026020016040519081016040528092919081815260200182805461106b90611b4a565b80156110b85780601f1061108d576101008083540402835291602001916110b8565b820191906000526020600020905b81548152906001019060200180831161109b57829003601f168201915b5050505050908060030180546110cd90611b4a565b80601f01602080910402602001604051908101604052809291908181526020018280546110f990611b4a565b80156111465780601f1061111b57610100808354040283529160200191611146565b820191906000526020600020905b81548152906001019060200180831161112957829003601f168201915b50505050509080600401805461115b90611b4a565b80601f016020809104026020016040519081016040528092919081815260200182805461118790611b4a565b80156111d45780601f106111a9576101008083540402835291602001916111d4565b820191906000526020600020905b8154815290600101906020018083116111b757829003601f168201915b5050505050908060050180546111e990611b4a565b80601f016020809104026020016040519081016040528092919081815260200182805461121590611b4a565b80156112625780601f1061123757610100808354040283529160200191611262565b820191906000526020600020905b81548152906001019060200180831161124557829003601f168201915b50505050509080600601805461127790611b4a565b80601f01602080910402602001604051908101604052809291908181526020018280546112a390611b4a565b80156112f05780601f106112c5576101008083540402835291602001916112f0565b820191906000526020600020905b8154815290600101906020018083116112d357829003601f168201915b50505050509080600701805461130590611b4a565b80601f016020809104026020016040519081016040528092919081815260200182805461133190611b4a565b801561137e5780601f106113535761010080835404028352916020019161137e565b820191906000526020600020905b81548152906001019060200180831161136157829003601f168201915b5050505050908060080160009054906101000a900460ff16905089565b6060600260008373ffffffffffffffffffffffffffffffffffffffff1673ffffffffffffffffffffffffffffffffffffffff16815260200190815260200160002080546113e790611b4a565b80601f016020809104026020016040519081016040528092919081815260200182805461141390611b4a565b80156114605780601f1061143557610100808354040283529160200191611460565b820191906000526020600020905b81548152906001019060200180831161144357829003601f168201915b50505050509050919050565b6000604051905090565b600080fd5b600080fd5b600080fd5b600080fd5b6000601f19601f8301169050919050565b7f4e487b7100000000000000000000000000000000000000000000000000000000600052604160045260246000fd5b6114d38261148a565b810181811067ffffffffffffffff821117156114f2576114f161149b565b5b80604052505050565b600061150561146c565b905061151182826114ca565b919050565b600067ffffffffffffffff8211156115315761153061149b565b5b61153a8261148a565b9050602081019050919050565b82818337600083830152505050565b600061156961156484611516565b6114fb565b90508281526020810184848401111561158557611584611485565b5b611590848285611547565b509392505050565b600082601f8301126115ad576115ac611480565b5b81356115bd848260208601611556565b91505092915050565b600080604083850312156115dd576115dc611476565b5b600083013567ffffffffffffffff8111156115fb576115fa61147b565b5b61160785828601611598565b925050602083013567ffffffffffffffff8111156116285761162761147b565b5b61163485828601611598565b9150509250929050565b60008115159050919050565b6116538161163e565b82525050565b600060208201905061166e600083018461164a565b92915050565b600080600080600080600080610100898b03121561169557611694611476565b5b600089013567ffffffffffffffff8111156116b3576116b261147b565b5b6116bf8b828c01611598565b985050602089013567ffffffffffffffff8111156116e0576116df61147b565b5b6116ec8b828c01611598565b975050604089013567ffffffffffffffff81111561170d5761170c61147b565b5b6117198b828c01611598565b965050606089013567ffffffffffffffff81111561173a5761173961147b565b5b6117468b828c01611598565b955050608089013567ffffffffffffffff8111156117675761176661147b565b5b6117738b828c01611598565b94505060a089013567ffffffffffffffff8111156117945761179361147b565b5b6117a08b828c01611598565b93505060c089013567ffffffffffffffff8111156117c1576117c061147b565b5b6117cd8b828c01611598565b92505060e089013567ffffffffffffffff8111156117ee576117ed61147b565b5b6117fa8b828c01611598565b9150509295985092959890939650565b600081519050919050565b600082825260208201905092915050565b60005b83811015611844578082015181840152602081019050611829565b60008484015250505050565b600061185b8261180a565b6118658185611815565b9350611875818560208601611826565b61187e8161148a565b840191505092915050565b600060808201905081810360008301526118a38187611850565b905081810360208301526118b78186611850565b905081810360408301526118cb8185611850565b905081810360608301526118df8184611850565b905095945050505050565b600073ffffffffffffffffffffffffffffffffffffffff82169050919050565b6000611915826118ea565b9050919050565b6119258161190a565b811461193057600080fd5b50565b6000813590506119428161191c565b92915050565b60006020828403121561195e5761195d611476565b5b600061196c84828501611933565b91505092915050565b6000610120820190508181036000830152611990818c611850565b905081810360208301526119a4818b611850565b905081810360408301526119b8818a611850565b905081810360608301526119cc8189611850565b905081810360808301526119e08188611850565b905081810360a08301526119f48187611850565b905081810360c0830152611a088186611850565b905081810360e0830152611a1c8185611850565b9050611a2c61010083018461164a565b9a9950505050505050505050565b60006020820190508181036000830152611a548184611850565b905092915050565b600081905092915050565b6000611a728261180a565b611a7c8185611a5c565b9350611a8c818560208601611826565b80840191505092915050565b6000611aa48284611a67565b915081905092915050565b7f456d61696c206e6f7420666f756e640000000000000000000000000000000000600082015250565b6000611ae5600f83611815565b9150611af082611aaf565b602082019050919050565b60006020820190508181036000830152611b1481611ad8565b9050919050565b7f4e487b7100000000000000000000000000000000000000000000000000000000600052602260045260246000fd5b60006002820490506001821680611b6257607f821691505b602082108103611b7557611b74611b1b565b5b50919050565b7f557365722077697468207468697320457468657265756d20416464726573732060008201527f616c726561647920657869737473000000000000000000000000000000000000602082015250565b6000611bd7602e83611815565b9150611be282611b7b565b604082019050919050565b60006020820190508181036000830152611c0681611bca565b9050919050565b60008190508160005260206000209050919050565b60006020601f8301049050919050565b600082821b905092915050565b600060088302611c6f7fffffffffffffffffffffffffffffffffffffffffffffffffffffffffffffffff82611c32565b611c798683611c32565b95508019841693508086168417925050509392505050565b6000819050919050565b6000819050919050565b6000611cc0611cbb611cb684611c91565b611c9b565b611c91565b9050919050565b6000819050919050565b611cda83611ca5565b611cee611ce682611cc7565b848454611c3f565b825550505050565b600090565b611d03611cf6565b611d0e818484611cd1565b505050565b5b81811015611d3257611d27600082611cfb565b600181019050611d14565b5050565b601f821115611d7757611d4881611c0d565b611d5184611c22565b81016020851015611d60578190505b611d74611d6c85611c22565b830182611d13565b50505b505050565b600082821c905092915050565b6000611d9a60001984600802611d7c565b1980831691505092915050565b6000611db38383611d89565b9150826002028217905092915050565b611dcc8261180a565b67ffffffffffffffff811115611de557611de461149b565b5b611def8254611b4a565b611dfa828285611d36565b600060209050601f831160018114611e2d5760008415611e1b578287015190505b611e258582611da7565b865550611e8d565b601f198416611e3b86611c0d565b60005b82811015611e6357848901518255600182019150602085019450602081019050611e3e565b86831015611e805784890151611e7c601f891682611d89565b8355505b6001600288020188555050505b50505050505056fea2646970667358221220e5826fae1f672c964d2f8e3a67a50b90150c11387655b354d51fe38feb246ee664736f6c63430008130033",
  "linkReferences": {},
  "deployedLinkReferences": {}
}