{
  "_format": "hh-sol-artifact-1",
  "contractName": "UserManagement",
  "sourceName": "contracts/UserManagement.sol",
  "abi": [
    {
      "inputs": [],
      "name": "getUser",
      "outputs": [
        {
          "internalType": "string",
          "name": "",
          "type": "string"
        },
        {
          "internalType": "string",
          "name": "",
          "type": "string"
        },
        {
          "internalType": "string",
          "name": "",
          "type": "string"
        },
        {
          "internalType": "string",
          "name": "",
          "type": "string"
        }
      ],
      "stateMutability": "view",
      "type": "function"
    },
    {
      "inputs": [
        {
          "internalType": "string",
          "name": "_email",
          "type": "string"
        },
        {
          "internalType": "string",
          "name": "_password",
          "type": "string"
        }
      ],
      "name": "loginUser",
      "outputs": [],
      "stateMutability": "nonpayable",
      "type": "function"
    },
    {
      "inputs": [],
      "name": "logoutUser",
      "outputs": [],
      "stateMutability": "nonpayable",
      "type": "function"
    },
    {
      "inputs": [
        {
          "internalType": "string",
          "name": "_CNIC",
          "type": "string"
        },
        {
          "internalType": "string",
          "name": "_name",
          "type": "string"
        },
        {
          "internalType": "string",
          "name": "_fatherName",
          "type": "string"
        },
        {
          "internalType": "string",
          "name": "_phoneNumber",
          "type": "string"
        },
        {
          "internalType": "string",
          "name": "_email",
          "type": "string"
        },
        {
          "internalType": "string",
          "name": "_password",
          "type": "string"
        },
        {
          "internalType": "string",
          "name": "_permanentAddress",
          "type": "string"
        },
        {
          "internalType": "string",
          "name": "_currentAddress",
          "type": "string"
        }
      ],
      "name": "registerUser",
      "outputs": [],
      "stateMutability": "nonpayable",
      "type": "function"
    },
    {
      "inputs": [
        {
          "internalType": "address",
          "name": "",
          "type": "address"
        }
      ],
      "name": "users",
      "outputs": [
        {
          "internalType": "string",
          "name": "cnic",
          "type": "string"
        },
        {
          "internalType": "string",
          "name": "name",
          "type": "string"
        },
        {
          "internalType": "string",
          "name": "fatherName",
          "type": "string"
        },
        {
          "internalType": "string",
          "name": "phoneNumber",
          "type": "string"
        },
        {
          "internalType": "string",
          "name": "email",
          "type": "string"
        },
        {
          "internalType": "string",
          "name": "password",
          "type": "string"
        },
        {
          "internalType": "string",
          "name": "permanentAddress",
          "type": "string"
        },
        {
          "internalType": "string",
          "name": "currentAddress",
          "type": "string"
        },
        {
          "internalType": "bool",
          "name": "isregister",
          "type": "bool"
        }
      ],
      "stateMutability": "view",
      "type": "function"
    }
  ],
  "bytecode": "0x608060405234801561001057600080fd5b50611999806100206000396000f3fe608060405234801561001057600080fd5b50600436106100575760003560e01c806322ce12e51461005c57806367601dd114610078578063832880e714610094578063a87430ba146100b5578063d8f145d2146100ed575b600080fd5b61007660048036038101906100719190610ffe565b6100f7565b005b610092600480360381019061008d9190611076565b610291565b005b61009c61048b565b6040516100ac949392919061128b565b60405180910390f35b6100cf60048036038101906100ca919061134a565b6109ad565b6040516100e499989796959493929190611392565b60405180910390f35b6100f5610e48565b005b81805190602001206000803373ffffffffffffffffffffffffffffffffffffffff1673ffffffffffffffffffffffffffffffffffffffff16815260200190815260200160002060040160405161014d919061155a565b604051809103902014610195576040517f08c379a000000000000000000000000000000000000000000000000000000000815260040161018c906115bd565b60405180910390fd5b80805190602001206000803373ffffffffffffffffffffffffffffffffffffffff1673ffffffffffffffffffffffffffffffffffffffff1681526020019081526020016000206005016040516101eb919061155a565b604051809103902014610233576040517f08c379a000000000000000000000000000000000000000000000000000000000815260040161022a90611629565b60405180910390fd5b60016000803373ffffffffffffffffffffffffffffffffffffffff1673ffffffffffffffffffffffffffffffffffffffff16815260200190815260200160002060080160006101000a81548160ff0219169083151502179055505050565b600015156000803373ffffffffffffffffffffffffffffffffffffffff1673ffffffffffffffffffffffffffffffffffffffff16815260200190815260200160002060080160009054906101000a900460ff16151514610326576040517f08c379a000000000000000000000000000000000000000000000000000000000815260040161031d906116bb565b60405180910390fd5b60006040518061012001604052808a8152602001898152602001888152602001878152602001868152602001858152602001848152602001838152602001600015158152509050806000803373ffffffffffffffffffffffffffffffffffffffff1673ffffffffffffffffffffffffffffffffffffffff16815260200190815260200160002060008201518160000190816103c19190611891565b5060208201518160010190816103d79190611891565b5060408201518160020190816103ed9190611891565b5060608201518160030190816104039190611891565b5060808201518160040190816104199190611891565b5060a082015181600501908161042f9190611891565b5060c08201518160060190816104459190611891565b5060e082015181600701908161045b9190611891565b506101008201518160080160006101000a81548160ff021916908315150217905550905050505050505050505050565b60608060608060008060003373ffffffffffffffffffffffffffffffffffffffff1673ffffffffffffffffffffffffffffffffffffffff168152602001908152602001600020604051806101200160405290816000820180546104ed90611486565b80601f016020809104026020016040519081016040528092919081815260200182805461051990611486565b80156105665780601f1061053b57610100808354040283529160200191610566565b820191906000526020600020905b81548152906001019060200180831161054957829003601f168201915b5050505050815260200160018201805461057f90611486565b80601f01602080910402602001604051908101604052809291908181526020018280546105ab90611486565b80156105f85780601f106105cd576101008083540402835291602001916105f8565b820191906000526020600020905b8154815290600101906020018083116105db57829003601f168201915b5050505050815260200160028201805461061190611486565b80601f016020809104026020016040519081016040528092919081815260200182805461063d90611486565b801561068a5780601f1061065f5761010080835404028352916020019161068a565b820191906000526020600020905b81548152906001019060200180831161066d57829003601f168201915b505050505081526020016003820180546106a390611486565b80601f01602080910402602001604051908101604052809291908181526020018280546106cf90611486565b801561071c5780601f106106f15761010080835404028352916020019161071c565b820191906000526020600020905b8154815290600101906020018083116106ff57829003601f168201915b5050505050815260200160048201805461073590611486565b80601f016020809104026020016040519081016040528092919081815260200182805461076190611486565b80156107ae5780601f10610783576101008083540402835291602001916107ae565b820191906000526020600020905b81548152906001019060200180831161079157829003601f168201915b505050505081526020016005820180546107c790611486565b80601f01602080910402602001604051908101604052809291908181526020018280546107f390611486565b80156108405780601f1061081557610100808354040283529160200191610840565b820191906000526020600020905b81548152906001019060200180831161082357829003601f168201915b5050505050815260200160068201805461085990611486565b80601f016020809104026020016040519081016040528092919081815260200182805461088590611486565b80156108d25780601f106108a7576101008083540402835291602001916108d2565b820191906000526020600020905b8154815290600101906020018083116108b557829003601f168201915b505050505081526020016007820180546108eb90611486565b80601f016020809104026020016040519081016040528092919081815260200182805461091790611486565b80156109645780601f1061093957610100808354040283529160200191610964565b820191906000526020600020905b81548152906001019060200180831161094757829003601f168201915b505050505081526020016008820160009054906101000a900460ff16151515158152505090508060000151816020015182608001518360a0015194509450945094505090919293565b60006020528060005260406000206000915090508060000180546109d090611486565b80601f01602080910402602001604051908101604052809291908181526020018280546109fc90611486565b8015610a495780601f10610a1e57610100808354040283529160200191610a49565b820191906000526020600020905b815481529060010190602001808311610a2c57829003601f168201915b505050505090806001018054610a5e90611486565b80601f0160208091040260200160405190810160405280929190818152602001828054610a8a90611486565b8015610ad75780601f10610aac57610100808354040283529160200191610ad7565b820191906000526020600020905b815481529060010190602001808311610aba57829003601f168201915b505050505090806002018054610aec90611486565b80601f0160208091040260200160405190810160405280929190818152602001828054610b1890611486565b8015610b655780601f10610b3a57610100808354040283529160200191610b65565b820191906000526020600020905b815481529060010190602001808311610b4857829003601f168201915b505050505090806003018054610b7a90611486565b80601f0160208091040260200160405190810160405280929190818152602001828054610ba690611486565b8015610bf35780601f10610bc857610100808354040283529160200191610bf3565b820191906000526020600020905b815481529060010190602001808311610bd657829003601f168201915b505050505090806004018054610c0890611486565b80601f0160208091040260200160405190810160405280929190818152602001828054610c3490611486565b8015610c815780601f10610c5657610100808354040283529160200191610c81565b820191906000526020600020905b815481529060010190602001808311610c6457829003601f168201915b505050505090806005018054610c9690611486565b80601f0160208091040260200160405190810160405280929190818152602001828054610cc290611486565b8015610d0f5780601f10610ce457610100808354040283529160200191610d0f565b820191906000526020600020905b815481529060010190602001808311610cf257829003601f168201915b505050505090806006018054610d2490611486565b80601f0160208091040260200160405190810160405280929190818152602001828054610d5090611486565b8015610d9d5780601f10610d7257610100808354040283529160200191610d9d565b820191906000526020600020905b815481529060010190602001808311610d8057829003601f168201915b505050505090806007018054610db290611486565b80601f0160208091040260200160405190810160405280929190818152602001828054610dde90611486565b8015610e2b5780601f10610e0057610100808354040283529160200191610e2b565b820191906000526020600020905b815481529060010190602001808311610e0e57829003601f168201915b5050505050908060080160009054906101000a900460ff16905089565b60008060003373ffffffffffffffffffffffffffffffffffffffff1673ffffffffffffffffffffffffffffffffffffffff16815260200190815260200160002060080160006101000a81548160ff021916908315150217905550565b6000604051905090565b600080fd5b600080fd5b600080fd5b600080fd5b6000601f19601f8301169050919050565b7f4e487b7100000000000000000000000000000000000000000000000000000000600052604160045260246000fd5b610f0b82610ec2565b810181811067ffffffffffffffff82111715610f2a57610f29610ed3565b5b80604052505050565b6000610f3d610ea4565b9050610f498282610f02565b919050565b600067ffffffffffffffff821115610f6957610f68610ed3565b5b610f7282610ec2565b9050602081019050919050565b82818337600083830152505050565b6000610fa1610f9c84610f4e565b610f33565b905082815260208101848484011115610fbd57610fbc610ebd565b5b610fc8848285610f7f565b509392505050565b600082601f830112610fe557610fe4610eb8565b5b8135610ff5848260208601610f8e565b91505092915050565b6000806040838503121561101557611014610eae565b5b600083013567ffffffffffffffff81111561103357611032610eb3565b5b61103f85828601610fd0565b925050602083013567ffffffffffffffff8111156110605761105f610eb3565b5b61106c85828601610fd0565b9150509250929050565b600080600080600080600080610100898b03121561109757611096610eae565b5b600089013567ffffffffffffffff8111156110b5576110b4610eb3565b5b6110c18b828c01610fd0565b985050602089013567ffffffffffffffff8111156110e2576110e1610eb3565b5b6110ee8b828c01610fd0565b975050604089013567ffffffffffffffff81111561110f5761110e610eb3565b5b61111b8b828c01610fd0565b965050606089013567ffffffffffffffff81111561113c5761113b610eb3565b5b6111488b828c01610fd0565b955050608089013567ffffffffffffffff81111561116957611168610eb3565b5b6111758b828c01610fd0565b94505060a089013567ffffffffffffffff81111561119657611195610eb3565b5b6111a28b828c01610fd0565b93505060c089013567ffffffffffffffff8111156111c3576111c2610eb3565b5b6111cf8b828c01610fd0565b92505060e089013567ffffffffffffffff8111156111f0576111ef610eb3565b5b6111fc8b828c01610fd0565b9150509295985092959890939650565b600081519050919050565b600082825260208201905092915050565b60005b8381101561124657808201518184015260208101905061122b565b60008484015250505050565b600061125d8261120c565b6112678185611217565b9350611277818560208601611228565b61128081610ec2565b840191505092915050565b600060808201905081810360008301526112a58187611252565b905081810360208301526112b98186611252565b905081810360408301526112cd8185611252565b905081810360608301526112e18184611252565b905095945050505050565b600073ffffffffffffffffffffffffffffffffffffffff82169050919050565b6000611317826112ec565b9050919050565b6113278161130c565b811461133257600080fd5b50565b6000813590506113448161131e565b92915050565b6000602082840312156113605761135f610eae565b5b600061136e84828501611335565b91505092915050565b60008115159050919050565b61138c81611377565b82525050565b60006101208201905081810360008301526113ad818c611252565b905081810360208301526113c1818b611252565b905081810360408301526113d5818a611252565b905081810360608301526113e98189611252565b905081810360808301526113fd8188611252565b905081810360a08301526114118187611252565b905081810360c08301526114258186611252565b905081810360e08301526114398185611252565b9050611449610100830184611383565b9a9950505050505050505050565b7f4e487b7100000000000000000000000000000000000000000000000000000000600052602260045260246000fd5b6000600282049050600182168061149e57607f821691505b6020821081036114b1576114b0611457565b5b50919050565b600081905092915050565b60008190508160005260206000209050919050565b600081546114e481611486565b6114ee81866114b7565b94506001821660008114611509576001811461151e57611551565b60ff1983168652811515820286019350611551565b611527856114c2565b60005b838110156115495781548189015260018201915060208101905061152a565b838801955050505b50505092915050565b600061156682846114d7565b915081905092915050565b7f456d61696c20646f6573206e6f74206d61746368000000000000000000000000600082015250565b60006115a7601483611217565b91506115b282611571565b602082019050919050565b600060208201905081810360008301526115d68161159a565b9050919050565b7f50617373776f726420646f6573206e6f74206d61746368000000000000000000600082015250565b6000611613601783611217565b915061161e826115dd565b602082019050919050565b6000602082019050818103600083015261164281611606565b9050919050565b7f557365722077697468207468697320457468657265756d20416464726573732060008201527f616c726561647920657869737473000000000000000000000000000000000000602082015250565b60006116a5602e83611217565b91506116b082611649565b604082019050919050565b600060208201905081810360008301526116d481611698565b9050919050565b60008190508160005260206000209050919050565b60006020601f8301049050919050565b600082821b905092915050565b60006008830261173d7fffffffffffffffffffffffffffffffffffffffffffffffffffffffffffffffff82611700565b6117478683611700565b95508019841693508086168417925050509392505050565b6000819050919050565b6000819050919050565b600061178e6117896117848461175f565b611769565b61175f565b9050919050565b6000819050919050565b6117a883611773565b6117bc6117b482611795565b84845461170d565b825550505050565b600090565b6117d16117c4565b6117dc81848461179f565b505050565b5b81811015611800576117f56000826117c9565b6001810190506117e2565b5050565b601f82111561184557611816816116db565b61181f846116f0565b8101602085101561182e578190505b61184261183a856116f0565b8301826117e1565b50505b505050565b600082821c905092915050565b60006118686000198460080261184a565b1980831691505092915050565b60006118818383611857565b9150826002028217905092915050565b61189a8261120c565b67ffffffffffffffff8111156118b3576118b2610ed3565b5b6118bd8254611486565b6118c8828285611804565b600060209050601f8311600181146118fb57600084156118e9578287015190505b6118f38582611875565b86555061195b565b601f198416611909866116db565b60005b828110156119315784890151825560018201915060208501945060208101905061190c565b8683101561194e578489015161194a601f891682611857565b8355505b6001600288020188555050505b50505050505056fea264697066735822122075865fc94ee7f2185ae3578d48b8ba7b86b0f14bfcfa88b81bc8014ad1d2017d64736f6c63430008130033",
  "linkReferences": {},
  "deployedLinkReferences": {}
}