{
  "_format": "hh-sol-artifact-1",
  "contractName": "LandRegistration",
  "sourceName": "contracts/LandRegistration.sol",
  "abi": [
    {
      "inputs": [],
      "name": "getAllLandDetails",
      "outputs": [
        {
          "components": [
            {
              "internalType": "uint256",
              "name": "Land_id",
              "type": "uint256"
            },
            {
              "internalType": "string",
              "name": "fullName",
              "type": "string"
            },
            {
              "internalType": "string",
              "name": "fatherName",
              "type": "string"
            },
            {
              "internalType": "string",
              "name": "cnic",
              "type": "string"
            },
            {
              "internalType": "string",
              "name": "email",
              "type": "string"
            },
            {
              "internalType": "string",
              "name": "permanentAddress",
              "type": "string"
            },
            {
              "internalType": "string",
              "name": "temporaryAddress",
              "type": "string"
            },
            {
              "internalType": "string",
              "name": "size",
              "type": "string"
            },
            {
              "internalType": "string",
              "name": "location",
              "type": "string"
            },
            {
              "internalType": "address",
              "name": "owner",
              "type": "address"
            },
            {
              "internalType": "bool",
              "name": "isRegister",
              "type": "bool"
            }
          ],
          "internalType": "struct LandRegistration.LandDetails[]",
          "name": "",
          "type": "tuple[]"
        }
      ],
      "stateMutability": "view",
      "type": "function"
    },
    {
      "inputs": [
        {
          "internalType": "uint256",
          "name": "_landId",
          "type": "uint256"
        }
      ],
      "name": "getLandDetails",
      "outputs": [
        {
          "internalType": "string",
          "name": "fullName",
          "type": "string"
        },
        {
          "internalType": "string",
          "name": "email",
          "type": "string"
        },
        {
          "internalType": "string",
          "name": "fatherName",
          "type": "string"
        },
        {
          "internalType": "string",
          "name": "cnic",
          "type": "string"
        },
        {
          "internalType": "string",
          "name": "permanentAddress",
          "type": "string"
        },
        {
          "internalType": "string",
          "name": "temporaryAddress",
          "type": "string"
        },
        {
          "internalType": "string",
          "name": "_size",
          "type": "string"
        },
        {
          "internalType": "string",
          "name": "_location",
          "type": "string"
        },
        {
          "internalType": "address",
          "name": "owner",
          "type": "address"
        }
      ],
      "stateMutability": "view",
      "type": "function"
    },
    {
      "inputs": [
        {
          "internalType": "address",
          "name": "_userAddress",
          "type": "address"
        }
      ],
      "name": "getNameForAddress",
      "outputs": [
        {
          "internalType": "string",
          "name": "",
          "type": "string"
        }
      ],
      "stateMutability": "view",
      "type": "function"
    },
    {
      "inputs": [],
      "name": "getUser",
      "outputs": [
        {
          "internalType": "string",
          "name": "",
          "type": "string"
        },
        {
          "internalType": "string",
          "name": "",
          "type": "string"
        },
        {
          "internalType": "string",
          "name": "",
          "type": "string"
        },
        {
          "internalType": "string",
          "name": "",
          "type": "string"
        }
      ],
      "stateMutability": "view",
      "type": "function"
    },
    {
      "inputs": [],
      "name": "landCounter",
      "outputs": [
        {
          "internalType": "uint256",
          "name": "",
          "type": "uint256"
        }
      ],
      "stateMutability": "view",
      "type": "function"
    },
    {
      "inputs": [
        {
          "internalType": "uint256",
          "name": "",
          "type": "uint256"
        }
      ],
      "name": "landRegistry",
      "outputs": [
        {
          "internalType": "uint256",
          "name": "Land_id",
          "type": "uint256"
        },
        {
          "internalType": "string",
          "name": "fullName",
          "type": "string"
        },
        {
          "internalType": "string",
          "name": "fatherName",
          "type": "string"
        },
        {
          "internalType": "string",
          "name": "cnic",
          "type": "string"
        },
        {
          "internalType": "string",
          "name": "email",
          "type": "string"
        },
        {
          "internalType": "string",
          "name": "permanentAddress",
          "type": "string"
        },
        {
          "internalType": "string",
          "name": "temporaryAddress",
          "type": "string"
        },
        {
          "internalType": "string",
          "name": "size",
          "type": "string"
        },
        {
          "internalType": "string",
          "name": "location",
          "type": "string"
        },
        {
          "internalType": "address",
          "name": "owner",
          "type": "address"
        },
        {
          "internalType": "bool",
          "name": "isRegister",
          "type": "bool"
        }
      ],
      "stateMutability": "view",
      "type": "function"
    },
    {
      "inputs": [
        {
          "internalType": "string",
          "name": "_email",
          "type": "string"
        },
        {
          "internalType": "string",
          "name": "_password",
          "type": "string"
        }
      ],
      "name": "loginUser",
      "outputs": [],
      "stateMutability": "nonpayable",
      "type": "function"
    },
    {
      "inputs": [],
      "name": "logoutUser",
      "outputs": [],
      "stateMutability": "nonpayable",
      "type": "function"
    },
    {
      "inputs": [
        {
          "internalType": "string",
          "name": "_fullName",
          "type": "string"
        },
        {
          "internalType": "uint256",
          "name": "_Land_id",
          "type": "uint256"
        },
        {
          "internalType": "string",
          "name": "_size",
          "type": "string"
        },
        {
          "internalType": "string",
          "name": "_location",
          "type": "string"
        },
        {
          "internalType": "string",
          "name": "_fatherName",
          "type": "string"
        },
        {
          "internalType": "string",
          "name": "_email",
          "type": "string"
        },
        {
          "internalType": "string",
          "name": "_cnic",
          "type": "string"
        },
        {
          "internalType": "string",
          "name": "_permanentAddress",
          "type": "string"
        },
        {
          "internalType": "string",
          "name": "_temporaryAddress",
          "type": "string"
        }
      ],
      "name": "registerLand",
      "outputs": [],
      "stateMutability": "nonpayable",
      "type": "function"
    },
    {
      "inputs": [
        {
          "internalType": "string",
          "name": "_CNIC",
          "type": "string"
        },
        {
          "internalType": "string",
          "name": "_name",
          "type": "string"
        },
        {
          "internalType": "string",
          "name": "_fatherName",
          "type": "string"
        },
        {
          "internalType": "string",
          "name": "_phoneNumber",
          "type": "string"
        },
        {
          "internalType": "string",
          "name": "_email",
          "type": "string"
        },
        {
          "internalType": "string",
          "name": "_password",
          "type": "string"
        },
        {
          "internalType": "string",
          "name": "_permanentAddress",
          "type": "string"
        },
        {
          "internalType": "string",
          "name": "_currentAddress",
          "type": "string"
        }
      ],
      "name": "registerUser",
      "outputs": [],
      "stateMutability": "nonpayable",
      "type": "function"
    },
    {
      "inputs": [
        {
          "internalType": "uint256",
          "name": "",
          "type": "uint256"
        }
      ],
      "name": "registeredLandIds",
      "outputs": [
        {
          "internalType": "uint256",
          "name": "",
          "type": "uint256"
        }
      ],
      "stateMutability": "view",
      "type": "function"
    },
    {
      "inputs": [
        {
          "internalType": "uint256",
          "name": "_landId",
          "type": "uint256"
        },
        {
          "internalType": "string",
          "name": "_fullName",
          "type": "string"
        },
        {
          "internalType": "string",
          "name": "_fatherName",
          "type": "string"
        },
        {
          "internalType": "string",
          "name": "_cnic",
          "type": "string"
        },
        {
          "internalType": "string",
          "name": "_permanentAddress",
          "type": "string"
        },
        {
          "internalType": "string",
          "name": "_size",
          "type": "string"
        },
        {
          "internalType": "string",
          "name": "_location",
          "type": "string"
        },
        {
          "internalType": "string",
          "name": "_temporaryAddress",
          "type": "string"
        }
      ],
      "name": "updateLandDetails",
      "outputs": [],
      "stateMutability": "nonpayable",
      "type": "function"
    },
    {
      "inputs": [
        {
          "internalType": "address",
          "name": "",
          "type": "address"
        }
      ],
      "name": "users",
      "outputs": [
        {
          "internalType": "string",
          "name": "cnic",
          "type": "string"
        },
        {
          "internalType": "string",
          "name": "name",
          "type": "string"
        },
        {
          "internalType": "string",
          "name": "fatherName",
          "type": "string"
        },
        {
          "internalType": "string",
          "name": "phoneNumber",
          "type": "string"
        },
        {
          "internalType": "string",
          "name": "email",
          "type": "string"
        },
        {
          "internalType": "string",
          "name": "password",
          "type": "string"
        },
        {
          "internalType": "string",
          "name": "permanentAddress",
          "type": "string"
        },
        {
          "internalType": "string",
          "name": "currentAddress",
          "type": "string"
        },
        {
          "internalType": "bool",
          "name": "isregister",
          "type": "bool"
        }
      ],
      "stateMutability": "view",
      "type": "function"
    }
  ],
  "bytecode": "0x608060405234801561001057600080fd5b50613b79806100206000396000f3fe608060405234801561001057600080fd5b50600436106100cf5760003560e01c8063a3695b181161008c578063d8c27b9b11610066578063d8c27b9b14610213578063d8f145d214610243578063da5f55e91461024d578063fe0cb7dc1461027d576100cf565b8063a3695b1814610183578063a6ac704e146101bd578063a87430ba146101db576100cf565b806322ce12e5146100d45780634abac37b146100f057806367601dd11461010c5780637ce411f914610128578063832880e7146101445780639e29ce1814610165575b600080fd5b6100ee60048036038101906100e991906127ec565b6102b5565b005b61010a6004803603810190610105919061289a565b61044f565b005b61012660048036038101906101219190612a44565b6106a4565b005b610142600480360381019061013d9190612bda565b610948565b005b61014c610a8e565b60405161015c9493929190612dd3565b60405180910390f35b61016d610fb0565b60405161017a9190612e43565b60405180910390f35b61019d60048036038101906101989190612e5e565b610fb6565b6040516101b49b9a99989796959493929190612ee7565b60405180910390f35b6101c561147d565b6040516101d29190613223565b60405180910390f35b6101f560048036038101906101f09190613271565b611aaa565b60405161020a9998979695949392919061329e565b60405180910390f35b61022d60048036038101906102289190613271565b611f45565b60405161023a9190613363565b60405180910390f35b61024b612016565b005b61026760048036038101906102629190612e5e565b612072565b6040516102749190612e43565b60405180910390f35b61029760048036038101906102929190612e5e565b612096565b6040516102ac99989796959493929190613385565b60405180910390f35b81805190602001206000803373ffffffffffffffffffffffffffffffffffffffff1673ffffffffffffffffffffffffffffffffffffffff16815260200190815260200160002060040160405161030b919061354d565b604051809103902014610353576040517f08c379a000000000000000000000000000000000000000000000000000000000815260040161034a906135b0565b60405180910390fd5b80805190602001206000803373ffffffffffffffffffffffffffffffffffffffff1673ffffffffffffffffffffffffffffffffffffffff1681526020019081526020016000206005016040516103a9919061354d565b6040518091039020146103f1576040517f08c379a00000000000000000000000000000000000000000000000000000000081526004016103e89061361c565b60405180910390fd5b60016000803373ffffffffffffffffffffffffffffffffffffffff1673ffffffffffffffffffffffffffffffffffffffff16815260200190815260200160002060080160006101000a81548160ff0219169083151502179055505050565b6003600089815260200190815260200160002060090160149054906101000a900460ff16156104b3576040517f08c379a00000000000000000000000000000000000000000000000000000000081526004016104aa90613688565b60405180910390fd5b60006040518061016001604052808a81526020018b81526020018781526020018581526020018681526020018481526020018381526020018981526020018881526020013373ffffffffffffffffffffffffffffffffffffffff1681526020016001151581525090506004600081548092919061052f906136d7565b9190505550600589908060018154018082558091505060019003906000526020600020016000909190919091505580600360008b815260200190815260200160002060008201518160000155602082015181600101908161059091906138cb565b5060408201518160020190816105a691906138cb565b5060608201518160030190816105bc91906138cb565b5060808201518160040190816105d291906138cb565b5060a08201518160050190816105e891906138cb565b5060c08201518160060190816105fe91906138cb565b5060e082015181600701908161061491906138cb565b5061010082015181600801908161062b91906138cb565b506101208201518160090160006101000a81548173ffffffffffffffffffffffffffffffffffffffff021916908373ffffffffffffffffffffffffffffffffffffffff1602179055506101408201518160090160146101000a81548160ff02191690831515021790555090505050505050505050505050565b600015156000803373ffffffffffffffffffffffffffffffffffffffff1673ffffffffffffffffffffffffffffffffffffffff16815260200190815260200160002060080160009054906101000a900460ff16151514610739576040517f08c379a000000000000000000000000000000000000000000000000000000000815260040161073090613a0f565b60405180910390fd5b60006040518061012001604052808a8152602001898152602001888152602001878152602001868152602001858152602001848152602001838152602001600015158152509050806000803373ffffffffffffffffffffffffffffffffffffffff1673ffffffffffffffffffffffffffffffffffffffff16815260200190815260200160002060008201518160000190816107d491906138cb565b5060208201518160010190816107ea91906138cb565b50604082015181600201908161080091906138cb565b50606082015181600301908161081691906138cb565b50608082015181600401908161082c91906138cb565b5060a082015181600501908161084291906138cb565b5060c082015181600601908161085891906138cb565b5060e082015181600701908161086e91906138cb565b506101008201518160080160006101000a81548160ff021916908315150217905550905050336001866040516108a49190613a6b565b908152602001604051809103902060006101000a81548173ffffffffffffffffffffffffffffffffffffffff021916908373ffffffffffffffffffffffffffffffffffffffff16021790555087600260003373ffffffffffffffffffffffffffffffffffffffff1673ffffffffffffffffffffffffffffffffffffffff168152602001908152602001600020908161093c91906138cb565b50505050505050505050565b876003600082815260200190815260200160002060090160009054906101000a900473ffffffffffffffffffffffffffffffffffffffff1673ffffffffffffffffffffffffffffffffffffffff163373ffffffffffffffffffffffffffffffffffffffff16146109ed576040517f08c379a00000000000000000000000000000000000000000000000000000000081526004016109e490613af4565b60405180910390fd5b6000600360008b8152602001908152602001600020905088816001019081610a1591906138cb565b5087816002019081610a2791906138cb565b5086816003019081610a3991906138cb565b5085816005019081610a4b91906138cb565b5084816007019081610a5d91906138cb565b5083816008019081610a6f91906138cb565b5082816006019081610a8191906138cb565b5050505050505050505050565b60608060608060008060003373ffffffffffffffffffffffffffffffffffffffff1673ffffffffffffffffffffffffffffffffffffffff16815260200190815260200160002060405180610120016040529081600082018054610af090613479565b80601f0160208091040260200160405190810160405280929190818152602001828054610b1c90613479565b8015610b695780601f10610b3e57610100808354040283529160200191610b69565b820191906000526020600020905b815481529060010190602001808311610b4c57829003601f168201915b50505050508152602001600182018054610b8290613479565b80601f0160208091040260200160405190810160405280929190818152602001828054610bae90613479565b8015610bfb5780601f10610bd057610100808354040283529160200191610bfb565b820191906000526020600020905b815481529060010190602001808311610bde57829003601f168201915b50505050508152602001600282018054610c1490613479565b80601f0160208091040260200160405190810160405280929190818152602001828054610c4090613479565b8015610c8d5780601f10610c6257610100808354040283529160200191610c8d565b820191906000526020600020905b815481529060010190602001808311610c7057829003601f168201915b50505050508152602001600382018054610ca690613479565b80601f0160208091040260200160405190810160405280929190818152602001828054610cd290613479565b8015610d1f5780601f10610cf457610100808354040283529160200191610d1f565b820191906000526020600020905b815481529060010190602001808311610d0257829003601f168201915b50505050508152602001600482018054610d3890613479565b80601f0160208091040260200160405190810160405280929190818152602001828054610d6490613479565b8015610db15780601f10610d8657610100808354040283529160200191610db1565b820191906000526020600020905b815481529060010190602001808311610d9457829003601f168201915b50505050508152602001600582018054610dca90613479565b80601f0160208091040260200160405190810160405280929190818152602001828054610df690613479565b8015610e435780601f10610e1857610100808354040283529160200191610e43565b820191906000526020600020905b815481529060010190602001808311610e2657829003601f168201915b50505050508152602001600682018054610e5c90613479565b80601f0160208091040260200160405190810160405280929190818152602001828054610e8890613479565b8015610ed55780601f10610eaa57610100808354040283529160200191610ed5565b820191906000526020600020905b815481529060010190602001808311610eb857829003601f168201915b50505050508152602001600782018054610eee90613479565b80601f0160208091040260200160405190810160405280929190818152602001828054610f1a90613479565b8015610f675780601f10610f3c57610100808354040283529160200191610f67565b820191906000526020600020905b815481529060010190602001808311610f4a57829003601f168201915b505050505081526020016008820160009054906101000a900460ff16151515158152505090508060000151816020015182608001518360a0015194509450945094505090919293565b60045481565b6003602052806000526040600020600091509050806000015490806001018054610fdf90613479565b80601f016020809104026020016040519081016040528092919081815260200182805461100b90613479565b80156110585780601f1061102d57610100808354040283529160200191611058565b820191906000526020600020905b81548152906001019060200180831161103b57829003601f168201915b50505050509080600201805461106d90613479565b80601f016020809104026020016040519081016040528092919081815260200182805461109990613479565b80156110e65780601f106110bb576101008083540402835291602001916110e6565b820191906000526020600020905b8154815290600101906020018083116110c957829003601f168201915b5050505050908060030180546110fb90613479565b80601f016020809104026020016040519081016040528092919081815260200182805461112790613479565b80156111745780601f1061114957610100808354040283529160200191611174565b820191906000526020600020905b81548152906001019060200180831161115757829003601f168201915b50505050509080600401805461118990613479565b80601f01602080910402602001604051908101604052809291908181526020018280546111b590613479565b80156112025780601f106111d757610100808354040283529160200191611202565b820191906000526020600020905b8154815290600101906020018083116111e557829003601f168201915b50505050509080600501805461121790613479565b80601f016020809104026020016040519081016040528092919081815260200182805461124390613479565b80156112905780601f1061126557610100808354040283529160200191611290565b820191906000526020600020905b81548152906001019060200180831161127357829003601f168201915b5050505050908060060180546112a590613479565b80601f01602080910402602001604051908101604052809291908181526020018280546112d190613479565b801561131e5780601f106112f35761010080835404028352916020019161131e565b820191906000526020600020905b81548152906001019060200180831161130157829003601f168201915b50505050509080600701805461133390613479565b80601f016020809104026020016040519081016040528092919081815260200182805461135f90613479565b80156113ac5780601f10611381576101008083540402835291602001916113ac565b820191906000526020600020905b81548152906001019060200180831161138f57829003601f168201915b5050505050908060080180546113c190613479565b80601f01602080910402602001604051908101604052809291908181526020018280546113ed90613479565b801561143a5780601f1061140f5761010080835404028352916020019161143a565b820191906000526020600020905b81548152906001019060200180831161141d57829003601f168201915b5050505050908060090160009054906101000a900473ffffffffffffffffffffffffffffffffffffffff16908060090160149054906101000a900460ff1690508b565b6060600060045467ffffffffffffffff81111561149d5761149c6126c1565b5b6040519080825280602002602001820160405280156114d657816020015b6114c3612620565b8152602001906001900390816114bb5790505b5090506000805b600580549050811015611aa157600060058281548110611500576114ff613b14565b5b906000526020600020015490506003600082815260200190815260200160002060090160149054906101000a900460ff1615611a8d5760036000828152602001908152602001600020604051806101600160405290816000820154815260200160018201805461156f90613479565b80601f016020809104026020016040519081016040528092919081815260200182805461159b90613479565b80156115e85780601f106115bd576101008083540402835291602001916115e8565b820191906000526020600020905b8154815290600101906020018083116115cb57829003601f168201915b5050505050815260200160028201805461160190613479565b80601f016020809104026020016040519081016040528092919081815260200182805461162d90613479565b801561167a5780601f1061164f5761010080835404028352916020019161167a565b820191906000526020600020905b81548152906001019060200180831161165d57829003601f168201915b5050505050815260200160038201805461169390613479565b80601f01602080910402602001604051908101604052809291908181526020018280546116bf90613479565b801561170c5780601f106116e15761010080835404028352916020019161170c565b820191906000526020600020905b8154815290600101906020018083116116ef57829003601f168201915b5050505050815260200160048201805461172590613479565b80601f016020809104026020016040519081016040528092919081815260200182805461175190613479565b801561179e5780601f106117735761010080835404028352916020019161179e565b820191906000526020600020905b81548152906001019060200180831161178157829003601f168201915b505050505081526020016005820180546117b790613479565b80601f01602080910402602001604051908101604052809291908181526020018280546117e390613479565b80156118305780601f1061180557610100808354040283529160200191611830565b820191906000526020600020905b81548152906001019060200180831161181357829003601f168201915b5050505050815260200160068201805461184990613479565b80601f016020809104026020016040519081016040528092919081815260200182805461187590613479565b80156118c25780601f10611897576101008083540402835291602001916118c2565b820191906000526020600020905b8154815290600101906020018083116118a557829003601f168201915b505050505081526020016007820180546118db90613479565b80601f016020809104026020016040519081016040528092919081815260200182805461190790613479565b80156119545780601f1061192957610100808354040283529160200191611954565b820191906000526020600020905b81548152906001019060200180831161193757829003601f168201915b5050505050815260200160088201805461196d90613479565b80601f016020809104026020016040519081016040528092919081815260200182805461199990613479565b80156119e65780601f106119bb576101008083540402835291602001916119e6565b820191906000526020600020905b8154815290600101906020018083116119c957829003601f168201915b505050505081526020016009820160009054906101000a900473ffffffffffffffffffffffffffffffffffffffff1673ffffffffffffffffffffffffffffffffffffffff1673ffffffffffffffffffffffffffffffffffffffff1681526020016009820160149054906101000a900460ff161515151581525050848481518110611a7357611a72613b14565b5b60200260200101819052508280611a89906136d7565b9350505b508080611a99906136d7565b9150506114dd565b50819250505090565b6000602052806000526040600020600091509050806000018054611acd90613479565b80601f0160208091040260200160405190810160405280929190818152602001828054611af990613479565b8015611b465780601f10611b1b57610100808354040283529160200191611b46565b820191906000526020600020905b815481529060010190602001808311611b2957829003601f168201915b505050505090806001018054611b5b90613479565b80601f0160208091040260200160405190810160405280929190818152602001828054611b8790613479565b8015611bd45780601f10611ba957610100808354040283529160200191611bd4565b820191906000526020600020905b815481529060010190602001808311611bb757829003601f168201915b505050505090806002018054611be990613479565b80601f0160208091040260200160405190810160405280929190818152602001828054611c1590613479565b8015611c625780601f10611c3757610100808354040283529160200191611c62565b820191906000526020600020905b815481529060010190602001808311611c4557829003601f168201915b505050505090806003018054611c7790613479565b80601f0160208091040260200160405190810160405280929190818152602001828054611ca390613479565b8015611cf05780601f10611cc557610100808354040283529160200191611cf0565b820191906000526020600020905b815481529060010190602001808311611cd357829003601f168201915b505050505090806004018054611d0590613479565b80601f0160208091040260200160405190810160405280929190818152602001828054611d3190613479565b8015611d7e5780601f10611d5357610100808354040283529160200191611d7e565b820191906000526020600020905b815481529060010190602001808311611d6157829003601f168201915b505050505090806005018054611d9390613479565b80601f0160208091040260200160405190810160405280929190818152602001828054611dbf90613479565b8015611e0c5780601f10611de157610100808354040283529160200191611e0c565b820191906000526020600020905b815481529060010190602001808311611def57829003601f168201915b505050505090806006018054611e2190613479565b80601f0160208091040260200160405190810160405280929190818152602001828054611e4d90613479565b8015611e9a5780601f10611e6f57610100808354040283529160200191611e9a565b820191906000526020600020905b815481529060010190602001808311611e7d57829003601f168201915b505050505090806007018054611eaf90613479565b80601f0160208091040260200160405190810160405280929190818152602001828054611edb90613479565b8015611f285780601f10611efd57610100808354040283529160200191611f28565b820191906000526020600020905b815481529060010190602001808311611f0b57829003601f168201915b5050505050908060080160009054906101000a900460ff16905089565b6060600260008373ffffffffffffffffffffffffffffffffffffffff1673ffffffffffffffffffffffffffffffffffffffff1681526020019081526020016000208054611f9190613479565b80601f0160208091040260200160405190810160405280929190818152602001828054611fbd90613479565b801561200a5780601f10611fdf5761010080835404028352916020019161200a565b820191906000526020600020905b815481529060010190602001808311611fed57829003601f168201915b50505050509050919050565b60008060003373ffffffffffffffffffffffffffffffffffffffff1673ffffffffffffffffffffffffffffffffffffffff16815260200190815260200160002060080160006101000a81548160ff021916908315150217905550565b6005818154811061208257600080fd5b906000526020600020016000915090505481565b606080606080606080606080600080600360008c815260200190815260200160002060405180610160016040529081600082015481526020016001820180546120de90613479565b80601f016020809104026020016040519081016040528092919081815260200182805461210a90613479565b80156121575780601f1061212c57610100808354040283529160200191612157565b820191906000526020600020905b81548152906001019060200180831161213a57829003601f168201915b5050505050815260200160028201805461217090613479565b80601f016020809104026020016040519081016040528092919081815260200182805461219c90613479565b80156121e95780601f106121be576101008083540402835291602001916121e9565b820191906000526020600020905b8154815290600101906020018083116121cc57829003601f168201915b5050505050815260200160038201805461220290613479565b80601f016020809104026020016040519081016040528092919081815260200182805461222e90613479565b801561227b5780601f106122505761010080835404028352916020019161227b565b820191906000526020600020905b81548152906001019060200180831161225e57829003601f168201915b5050505050815260200160048201805461229490613479565b80601f01602080910402602001604051908101604052809291908181526020018280546122c090613479565b801561230d5780601f106122e25761010080835404028352916020019161230d565b820191906000526020600020905b8154815290600101906020018083116122f057829003601f168201915b5050505050815260200160058201805461232690613479565b80601f016020809104026020016040519081016040528092919081815260200182805461235290613479565b801561239f5780601f106123745761010080835404028352916020019161239f565b820191906000526020600020905b81548152906001019060200180831161238257829003601f168201915b505050505081526020016006820180546123b890613479565b80601f01602080910402602001604051908101604052809291908181526020018280546123e490613479565b80156124315780601f1061240657610100808354040283529160200191612431565b820191906000526020600020905b81548152906001019060200180831161241457829003601f168201915b5050505050815260200160078201805461244a90613479565b80601f016020809104026020016040519081016040528092919081815260200182805461247690613479565b80156124c35780601f10612498576101008083540402835291602001916124c3565b820191906000526020600020905b8154815290600101906020018083116124a657829003601f168201915b505050505081526020016008820180546124dc90613479565b80601f016020809104026020016040519081016040528092919081815260200182805461250890613479565b80156125555780601f1061252a57610100808354040283529160200191612555565b820191906000526020600020905b81548152906001019060200180831161253857829003601f168201915b505050505081526020016009820160009054906101000a900473ffffffffffffffffffffffffffffffffffffffff1673ffffffffffffffffffffffffffffffffffffffff1673ffffffffffffffffffffffffffffffffffffffff1681526020016009820160149054906101000a900460ff161515151581525050905080602001518160800151826040015183606001518460a001518560c001518660e00151876101000151886101200151995099509950995099509950995099509950509193959799909294969850565b604051806101600160405280600081526020016060815260200160608152602001606081526020016060815260200160608152602001606081526020016060815260200160608152602001600073ffffffffffffffffffffffffffffffffffffffff1681526020016000151581525090565b6000604051905090565b600080fd5b600080fd5b600080fd5b600080fd5b6000601f19601f8301169050919050565b7f4e487b7100000000000000000000000000000000000000000000000000000000600052604160045260246000fd5b6126f9826126b0565b810181811067ffffffffffffffff82111715612718576127176126c1565b5b80604052505050565b600061272b612692565b905061273782826126f0565b919050565b600067ffffffffffffffff821115612757576127566126c1565b5b612760826126b0565b9050602081019050919050565b82818337600083830152505050565b600061278f61278a8461273c565b612721565b9050828152602081018484840111156127ab576127aa6126ab565b5b6127b684828561276d565b509392505050565b600082601f8301126127d3576127d26126a6565b5b81356127e384826020860161277c565b91505092915050565b600080604083850312156128035761280261269c565b5b600083013567ffffffffffffffff811115612821576128206126a1565b5b61282d858286016127be565b925050602083013567ffffffffffffffff81111561284e5761284d6126a1565b5b61285a858286016127be565b9150509250929050565b6000819050919050565b61287781612864565b811461288257600080fd5b50565b6000813590506128948161286e565b92915050565b60008060008060008060008060006101208a8c0312156128bd576128bc61269c565b5b60008a013567ffffffffffffffff8111156128db576128da6126a1565b5b6128e78c828d016127be565b99505060206128f88c828d01612885565b98505060408a013567ffffffffffffffff811115612919576129186126a1565b5b6129258c828d016127be565b97505060608a013567ffffffffffffffff811115612946576129456126a1565b5b6129528c828d016127be565b96505060808a013567ffffffffffffffff811115612973576129726126a1565b5b61297f8c828d016127be565b95505060a08a013567ffffffffffffffff8111156129a05761299f6126a1565b5b6129ac8c828d016127be565b94505060c08a013567ffffffffffffffff8111156129cd576129cc6126a1565b5b6129d98c828d016127be565b93505060e08a013567ffffffffffffffff8111156129fa576129f96126a1565b5b612a068c828d016127be565b9250506101008a013567ffffffffffffffff811115612a2857612a276126a1565b5b612a348c828d016127be565b9150509295985092959850929598565b600080600080600080600080610100898b031215612a6557612a6461269c565b5b600089013567ffffffffffffffff811115612a8357612a826126a1565b5b612a8f8b828c016127be565b985050602089013567ffffffffffffffff811115612ab057612aaf6126a1565b5b612abc8b828c016127be565b975050604089013567ffffffffffffffff811115612add57612adc6126a1565b5b612ae98b828c016127be565b965050606089013567ffffffffffffffff811115612b0a57612b096126a1565b5b612b168b828c016127be565b955050608089013567ffffffffffffffff811115612b3757612b366126a1565b5b612b438b828c016127be565b94505060a089013567ffffffffffffffff811115612b6457612b636126a1565b5b612b708b828c016127be565b93505060c089013567ffffffffffffffff811115612b9157612b906126a1565b5b612b9d8b828c016127be565b92505060e089013567ffffffffffffffff811115612bbe57612bbd6126a1565b5b612bca8b828c016127be565b9150509295985092959890939650565b600080600080600080600080610100898b031215612bfb57612bfa61269c565b5b6000612c098b828c01612885565b985050602089013567ffffffffffffffff811115612c2a57612c296126a1565b5b612c368b828c016127be565b975050604089013567ffffffffffffffff811115612c5757612c566126a1565b5b612c638b828c016127be565b965050606089013567ffffffffffffffff811115612c8457612c836126a1565b5b612c908b828c016127be565b955050608089013567ffffffffffffffff811115612cb157612cb06126a1565b5b612cbd8b828c016127be565b94505060a089013567ffffffffffffffff811115612cde57612cdd6126a1565b5b612cea8b828c016127be565b93505060c089013567ffffffffffffffff811115612d0b57612d0a6126a1565b5b612d178b828c016127be565b92505060e089013567ffffffffffffffff811115612d3857612d376126a1565b5b612d448b828c016127be565b9150509295985092959890939650565b600081519050919050565b600082825260208201905092915050565b60005b83811015612d8e578082015181840152602081019050612d73565b60008484015250505050565b6000612da582612d54565b612daf8185612d5f565b9350612dbf818560208601612d70565b612dc8816126b0565b840191505092915050565b60006080820190508181036000830152612ded8187612d9a565b90508181036020830152612e018186612d9a565b90508181036040830152612e158185612d9a565b90508181036060830152612e298184612d9a565b905095945050505050565b612e3d81612864565b82525050565b6000602082019050612e586000830184612e34565b92915050565b600060208284031215612e7457612e7361269c565b5b6000612e8284828501612885565b91505092915050565b600073ffffffffffffffffffffffffffffffffffffffff82169050919050565b6000612eb682612e8b565b9050919050565b612ec681612eab565b82525050565b60008115159050919050565b612ee181612ecc565b82525050565b600061016082019050612efd600083018e612e34565b8181036020830152612f0f818d612d9a565b90508181036040830152612f23818c612d9a565b90508181036060830152612f37818b612d9a565b90508181036080830152612f4b818a612d9a565b905081810360a0830152612f5f8189612d9a565b905081810360c0830152612f738188612d9a565b905081810360e0830152612f878187612d9a565b9050818103610100830152612f9c8186612d9a565b9050612fac610120830185612ebd565b612fba610140830184612ed8565b9c9b505050505050505050505050565b600081519050919050565b600082825260208201905092915050565b6000819050602082019050919050565b612fff81612864565b82525050565b600082825260208201905092915050565b600061302182612d54565b61302b8185613005565b935061303b818560208601612d70565b613044816126b0565b840191505092915050565b61305881612eab565b82525050565b61306781612ecc565b82525050565b6000610160830160008301516130866000860182612ff6565b506020830151848203602086015261309e8282613016565b915050604083015184820360408601526130b88282613016565b915050606083015184820360608601526130d28282613016565b915050608083015184820360808601526130ec8282613016565b91505060a083015184820360a08601526131068282613016565b91505060c083015184820360c08601526131208282613016565b91505060e083015184820360e086015261313a8282613016565b9150506101008301518482036101008601526131568282613016565b91505061012083015161316d61012086018261304f565b5061014083015161318261014086018261305e565b508091505092915050565b6000613199838361306d565b905092915050565b6000602082019050919050565b60006131b982612fca565b6131c38185612fd5565b9350836020820285016131d585612fe6565b8060005b8581101561321157848403895281516131f2858261318d565b94506131fd836131a1565b925060208a019950506001810190506131d9565b50829750879550505050505092915050565b6000602082019050818103600083015261323d81846131ae565b905092915050565b61324e81612eab565b811461325957600080fd5b50565b60008135905061326b81613245565b92915050565b6000602082840312156132875761328661269c565b5b60006132958482850161325c565b91505092915050565b60006101208201905081810360008301526132b9818c612d9a565b905081810360208301526132cd818b612d9a565b905081810360408301526132e1818a612d9a565b905081810360608301526132f58189612d9a565b905081810360808301526133098188612d9a565b905081810360a083015261331d8187612d9a565b905081810360c08301526133318186612d9a565b905081810360e08301526133458185612d9a565b9050613355610100830184612ed8565b9a9950505050505050505050565b6000602082019050818103600083015261337d8184612d9a565b905092915050565b60006101208201905081810360008301526133a0818c612d9a565b905081810360208301526133b4818b612d9a565b905081810360408301526133c8818a612d9a565b905081810360608301526133dc8189612d9a565b905081810360808301526133f08188612d9a565b905081810360a08301526134048187612d9a565b905081810360c08301526134188186612d9a565b905081810360e083015261342c8185612d9a565b905061343c610100830184612ebd565b9a9950505050505050505050565b7f4e487b7100000000000000000000000000000000000000000000000000000000600052602260045260246000fd5b6000600282049050600182168061349157607f821691505b6020821081036134a4576134a361344a565b5b50919050565b600081905092915050565b60008190508160005260206000209050919050565b600081546134d781613479565b6134e181866134aa565b945060018216600081146134fc576001811461351157613544565b60ff1983168652811515820286019350613544565b61351a856134b5565b60005b8381101561353c5781548189015260018201915060208101905061351d565b838801955050505b50505092915050565b600061355982846134ca565b915081905092915050565b7f456d61696c20646f6573206e6f74206d61746368000000000000000000000000600082015250565b600061359a601483612d5f565b91506135a582613564565b602082019050919050565b600060208201905081810360008301526135c98161358d565b9050919050565b7f50617373776f726420646f6573206e6f74206d61746368000000000000000000600082015250565b6000613606601783612d5f565b9150613611826135d0565b602082019050919050565b60006020820190508181036000830152613635816135f9565b9050919050565b7f4c616e6420697320416c72656164792052656769737465726564000000000000600082015250565b6000613672601a83612d5f565b915061367d8261363c565b602082019050919050565b600060208201905081810360008301526136a181613665565b9050919050565b7f4e487b7100000000000000000000000000000000000000000000000000000000600052601160045260246000fd5b60006136e282612864565b91507fffffffffffffffffffffffffffffffffffffffffffffffffffffffffffffffff8203613714576137136136a8565b5b600182019050919050565b60008190508160005260206000209050919050565b60006020601f8301049050919050565b600082821b905092915050565b6000600883026137817fffffffffffffffffffffffffffffffffffffffffffffffffffffffffffffffff82613744565b61378b8683613744565b95508019841693508086168417925050509392505050565b6000819050919050565b60006137c86137c36137be84612864565b6137a3565b612864565b9050919050565b6000819050919050565b6137e2836137ad565b6137f66137ee826137cf565b848454613751565b825550505050565b600090565b61380b6137fe565b6138168184846137d9565b505050565b5b8181101561383a5761382f600082613803565b60018101905061381c565b5050565b601f82111561387f576138508161371f565b61385984613734565b81016020851015613868578190505b61387c61387485613734565b83018261381b565b50505b505050565b600082821c905092915050565b60006138a260001984600802613884565b1980831691505092915050565b60006138bb8383613891565b9150826002028217905092915050565b6138d482612d54565b67ffffffffffffffff8111156138ed576138ec6126c1565b5b6138f78254613479565b61390282828561383e565b600060209050601f8311600181146139355760008415613923578287015190505b61392d85826138af565b865550613995565b601f1984166139438661371f565b60005b8281101561396b57848901518255600182019150602085019450602081019050613946565b868310156139885784890151613984601f891682613891565b8355505b6001600288020188555050505b505050505050565b7f557365722077697468207468697320457468657265756d20416464726573732060008201527f616c726561647920657869737473000000000000000000000000000000000000602082015250565b60006139f9602e83612d5f565b9150613a048261399d565b604082019050919050565b60006020820190508181036000830152613a28816139ec565b9050919050565b600081905092915050565b6000613a4582612d54565b613a4f8185613a2f565b9350613a5f818560208601612d70565b80840191505092915050565b6000613a778284613a3a565b915081905092915050565b7f596f7520617265206e6f7420746865206f776e6572206f662074686973206c6160008201527f6e64000000000000000000000000000000000000000000000000000000000000602082015250565b6000613ade602283612d5f565b9150613ae982613a82565b604082019050919050565b60006020820190508181036000830152613b0d81613ad1565b9050919050565b7f4e487b7100000000000000000000000000000000000000000000000000000000600052603260045260246000fdfea26469706673582212205aaac8adcb4b8866ac207b5dd359379b005088239bdff1b0b2ed412b7ca9c1ee64736f6c63430008130033",
  "linkReferences": {},
  "deployedLinkReferences": {}
}