{
  "_format": "hh-sol-artifact-1",
  "contractName": "LandRegistration",
  "sourceName": "contracts/LandRegistration.sol",
  "abi": [
    {
      "inputs": [
        {
          "internalType": "uint256",
          "name": "_landId",
          "type": "uint256"
        }
      ],
      "name": "getLandDetails",
      "outputs": [
        {
          "internalType": "string",
          "name": "fullName",
          "type": "string"
        },
        {
          "internalType": "string",
          "name": "email",
          "type": "string"
        },
        {
          "internalType": "string",
          "name": "fatherName",
          "type": "string"
        },
        {
          "internalType": "string",
          "name": "cnic",
          "type": "string"
        },
        {
          "internalType": "string",
          "name": "permanentAddress",
          "type": "string"
        },
        {
          "internalType": "string",
          "name": "temporaryAddress",
          "type": "string"
        },
        {
          "internalType": "string",
          "name": "_size",
          "type": "string"
        },
        {
          "internalType": "string",
          "name": "_location",
          "type": "string"
        },
        {
          "internalType": "address",
          "name": "owner",
          "type": "address"
        }
      ],
      "stateMutability": "view",
      "type": "function"
    },
    {
      "inputs": [
        {
          "internalType": "address",
          "name": "_userAddress",
          "type": "address"
        }
      ],
      "name": "getNameForAddress",
      "outputs": [
        {
          "internalType": "string",
          "name": "",
          "type": "string"
        }
      ],
      "stateMutability": "view",
      "type": "function"
    },
    {
      "inputs": [],
      "name": "getUser",
      "outputs": [
        {
          "internalType": "string",
          "name": "",
          "type": "string"
        },
        {
          "internalType": "string",
          "name": "",
          "type": "string"
        },
        {
          "internalType": "string",
          "name": "",
          "type": "string"
        },
        {
          "internalType": "string",
          "name": "",
          "type": "string"
        }
      ],
      "stateMutability": "view",
      "type": "function"
    },
    {
      "inputs": [
        {
          "internalType": "uint256",
          "name": "",
          "type": "uint256"
        }
      ],
      "name": "landRegistry",
      "outputs": [
        {
          "internalType": "uint256",
          "name": "Land_id",
          "type": "uint256"
        },
        {
          "internalType": "string",
          "name": "fullName",
          "type": "string"
        },
        {
          "internalType": "string",
          "name": "fatherName",
          "type": "string"
        },
        {
          "internalType": "string",
          "name": "cnic",
          "type": "string"
        },
        {
          "internalType": "string",
          "name": "email",
          "type": "string"
        },
        {
          "internalType": "string",
          "name": "permanentAddress",
          "type": "string"
        },
        {
          "internalType": "string",
          "name": "temporaryAddress",
          "type": "string"
        },
        {
          "internalType": "string",
          "name": "size",
          "type": "string"
        },
        {
          "internalType": "string",
          "name": "location",
          "type": "string"
        },
        {
          "internalType": "address",
          "name": "owner",
          "type": "address"
        },
        {
          "internalType": "bool",
          "name": "isRegister",
          "type": "bool"
        }
      ],
      "stateMutability": "view",
      "type": "function"
    },
    {
      "inputs": [
        {
          "internalType": "string",
          "name": "_email",
          "type": "string"
        },
        {
          "internalType": "string",
          "name": "_password",
          "type": "string"
        }
      ],
      "name": "loginUser",
      "outputs": [],
      "stateMutability": "nonpayable",
      "type": "function"
    },
    {
      "inputs": [],
      "name": "logoutUser",
      "outputs": [],
      "stateMutability": "nonpayable",
      "type": "function"
    },
    {
      "inputs": [
        {
          "internalType": "string",
          "name": "_fullName",
          "type": "string"
        },
        {
          "internalType": "uint256",
          "name": "_Land_id",
          "type": "uint256"
        },
        {
          "internalType": "string",
          "name": "_size",
          "type": "string"
        },
        {
          "internalType": "string",
          "name": "_location",
          "type": "string"
        },
        {
          "internalType": "string",
          "name": "_fatherName",
          "type": "string"
        },
        {
          "internalType": "string",
          "name": "_email",
          "type": "string"
        },
        {
          "internalType": "string",
          "name": "_cnic",
          "type": "string"
        },
        {
          "internalType": "string",
          "name": "_permanentAddress",
          "type": "string"
        },
        {
          "internalType": "string",
          "name": "_temporaryAddress",
          "type": "string"
        }
      ],
      "name": "registerLand",
      "outputs": [],
      "stateMutability": "nonpayable",
      "type": "function"
    },
    {
      "inputs": [
        {
          "internalType": "string",
          "name": "_CNIC",
          "type": "string"
        },
        {
          "internalType": "string",
          "name": "_name",
          "type": "string"
        },
        {
          "internalType": "string",
          "name": "_fatherName",
          "type": "string"
        },
        {
          "internalType": "string",
          "name": "_phoneNumber",
          "type": "string"
        },
        {
          "internalType": "string",
          "name": "_email",
          "type": "string"
        },
        {
          "internalType": "string",
          "name": "_password",
          "type": "string"
        },
        {
          "internalType": "string",
          "name": "_permanentAddress",
          "type": "string"
        },
        {
          "internalType": "string",
          "name": "_currentAddress",
          "type": "string"
        }
      ],
      "name": "registerUser",
      "outputs": [],
      "stateMutability": "nonpayable",
      "type": "function"
    },
    {
      "inputs": [
        {
          "internalType": "uint256",
          "name": "_landId",
          "type": "uint256"
        },
        {
          "internalType": "string",
          "name": "_fullName",
          "type": "string"
        },
        {
          "internalType": "string",
          "name": "_fatherName",
          "type": "string"
        },
        {
          "internalType": "string",
          "name": "_cnic",
          "type": "string"
        },
        {
          "internalType": "string",
          "name": "_permanentAddress",
          "type": "string"
        },
        {
          "internalType": "string",
          "name": "_size",
          "type": "string"
        },
        {
          "internalType": "string",
          "name": "_location",
          "type": "string"
        },
        {
          "internalType": "string",
          "name": "_temporaryAddress",
          "type": "string"
        }
      ],
      "name": "updateLandDetails",
      "outputs": [],
      "stateMutability": "nonpayable",
      "type": "function"
    },
    {
      "inputs": [
        {
          "internalType": "address",
          "name": "",
          "type": "address"
        }
      ],
      "name": "users",
      "outputs": [
        {
          "internalType": "string",
          "name": "cnic",
          "type": "string"
        },
        {
          "internalType": "string",
          "name": "name",
          "type": "string"
        },
        {
          "internalType": "string",
          "name": "fatherName",
          "type": "string"
        },
        {
          "internalType": "string",
          "name": "phoneNumber",
          "type": "string"
        },
        {
          "internalType": "string",
          "name": "email",
          "type": "string"
        },
        {
          "internalType": "string",
          "name": "password",
          "type": "string"
        },
        {
          "internalType": "string",
          "name": "permanentAddress",
          "type": "string"
        },
        {
          "internalType": "string",
          "name": "currentAddress",
          "type": "string"
        },
        {
          "internalType": "bool",
          "name": "isregister",
          "type": "bool"
        }
      ],
      "stateMutability": "view",
      "type": "function"
    }
  ],
  "bytecode": "0x608060405234801561001057600080fd5b50613096806100206000396000f3fe608060405234801561001057600080fd5b506004361061009e5760003560e01c8063a3695b1811610066578063a3695b1814610134578063a87430ba1461016e578063d8c27b9b146101a6578063d8f145d2146101d6578063fe0cb7dc146101e05761009e565b806322ce12e5146100a35780634abac37b146100bf57806367601dd1146100db5780637ce411f9146100f7578063832880e714610113575b600080fd5b6100bd60048036038101906100b89190612045565b610218565b005b6100d960048036038101906100d491906120f3565b6103b2565b005b6100f560048036038101906100f0919061229d565b6105c6565b005b610111600480360381019061010c9190612433565b61086a565b005b61011b6109b0565b60405161012b949392919061262c565b60405180910390f35b61014e6004803603810190610149919061268d565b610ed2565b6040516101659b9a99989796959493929190612725565b60405180910390f35b61018860048036038101906101839190612834565b611399565b60405161019d99989796959493929190612861565b60405180910390f35b6101c060048036038101906101bb9190612834565b611834565b6040516101cd9190612926565b60405180910390f35b6101de611905565b005b6101fa60048036038101906101f5919061268d565b611961565b60405161020f99989796959493929190612948565b60405180910390f35b81805190602001206000803373ffffffffffffffffffffffffffffffffffffffff1673ffffffffffffffffffffffffffffffffffffffff16815260200190815260200160002060040160405161026e9190612b10565b6040518091039020146102b6576040517f08c379a00000000000000000000000000000000000000000000000000000000081526004016102ad90612b73565b60405180910390fd5b80805190602001206000803373ffffffffffffffffffffffffffffffffffffffff1673ffffffffffffffffffffffffffffffffffffffff16815260200190815260200160002060050160405161030c9190612b10565b604051809103902014610354576040517f08c379a000000000000000000000000000000000000000000000000000000000815260040161034b90612bdf565b60405180910390fd5b60016000803373ffffffffffffffffffffffffffffffffffffffff1673ffffffffffffffffffffffffffffffffffffffff16815260200190815260200160002060080160006101000a81548160ff0219169083151502179055505050565b6003600089815260200190815260200160002060090160149054906101000a900460ff1615610416576040517f08c379a000000000000000000000000000000000000000000000000000000000815260040161040d90612c4b565b60405180910390fd5b60006040518061016001604052808a81526020018b81526020018781526020018581526020018681526020018481526020018381526020018981526020018881526020013373ffffffffffffffffffffffffffffffffffffffff16815260200160011515815250905080600360008b81526020019081526020016000206000820151816000015560208201518160010190816104b29190612e17565b5060408201518160020190816104c89190612e17565b5060608201518160030190816104de9190612e17565b5060808201518160040190816104f49190612e17565b5060a082015181600501908161050a9190612e17565b5060c08201518160060190816105209190612e17565b5060e08201518160070190816105369190612e17565b5061010082015181600801908161054d9190612e17565b506101208201518160090160006101000a81548173ffffffffffffffffffffffffffffffffffffffff021916908373ffffffffffffffffffffffffffffffffffffffff1602179055506101408201518160090160146101000a81548160ff02191690831515021790555090505050505050505050505050565b600015156000803373ffffffffffffffffffffffffffffffffffffffff1673ffffffffffffffffffffffffffffffffffffffff16815260200190815260200160002060080160009054906101000a900460ff1615151461065b576040517f08c379a000000000000000000000000000000000000000000000000000000000815260040161065290612f5b565b60405180910390fd5b60006040518061012001604052808a8152602001898152602001888152602001878152602001868152602001858152602001848152602001838152602001600015158152509050806000803373ffffffffffffffffffffffffffffffffffffffff1673ffffffffffffffffffffffffffffffffffffffff16815260200190815260200160002060008201518160000190816106f69190612e17565b50602082015181600101908161070c9190612e17565b5060408201518160020190816107229190612e17565b5060608201518160030190816107389190612e17565b50608082015181600401908161074e9190612e17565b5060a08201518160050190816107649190612e17565b5060c082015181600601908161077a9190612e17565b5060e08201518160070190816107909190612e17565b506101008201518160080160006101000a81548160ff021916908315150217905550905050336001866040516107c69190612fb7565b908152602001604051809103902060006101000a81548173ffffffffffffffffffffffffffffffffffffffff021916908373ffffffffffffffffffffffffffffffffffffffff16021790555087600260003373ffffffffffffffffffffffffffffffffffffffff1673ffffffffffffffffffffffffffffffffffffffff168152602001908152602001600020908161085e9190612e17565b50505050505050505050565b876003600082815260200190815260200160002060090160009054906101000a900473ffffffffffffffffffffffffffffffffffffffff1673ffffffffffffffffffffffffffffffffffffffff163373ffffffffffffffffffffffffffffffffffffffff161461090f576040517f08c379a000000000000000000000000000000000000000000000000000000000815260040161090690613040565b60405180910390fd5b6000600360008b81526020019081526020016000209050888160010190816109379190612e17565b50878160020190816109499190612e17565b508681600301908161095b9190612e17565b508581600501908161096d9190612e17565b508481600701908161097f9190612e17565b50838160080190816109919190612e17565b50828160060190816109a39190612e17565b5050505050505050505050565b60608060608060008060003373ffffffffffffffffffffffffffffffffffffffff1673ffffffffffffffffffffffffffffffffffffffff16815260200190815260200160002060405180610120016040529081600082018054610a1290612a3c565b80601f0160208091040260200160405190810160405280929190818152602001828054610a3e90612a3c565b8015610a8b5780601f10610a6057610100808354040283529160200191610a8b565b820191906000526020600020905b815481529060010190602001808311610a6e57829003601f168201915b50505050508152602001600182018054610aa490612a3c565b80601f0160208091040260200160405190810160405280929190818152602001828054610ad090612a3c565b8015610b1d5780601f10610af257610100808354040283529160200191610b1d565b820191906000526020600020905b815481529060010190602001808311610b0057829003601f168201915b50505050508152602001600282018054610b3690612a3c565b80601f0160208091040260200160405190810160405280929190818152602001828054610b6290612a3c565b8015610baf5780601f10610b8457610100808354040283529160200191610baf565b820191906000526020600020905b815481529060010190602001808311610b9257829003601f168201915b50505050508152602001600382018054610bc890612a3c565b80601f0160208091040260200160405190810160405280929190818152602001828054610bf490612a3c565b8015610c415780601f10610c1657610100808354040283529160200191610c41565b820191906000526020600020905b815481529060010190602001808311610c2457829003601f168201915b50505050508152602001600482018054610c5a90612a3c565b80601f0160208091040260200160405190810160405280929190818152602001828054610c8690612a3c565b8015610cd35780601f10610ca857610100808354040283529160200191610cd3565b820191906000526020600020905b815481529060010190602001808311610cb657829003601f168201915b50505050508152602001600582018054610cec90612a3c565b80601f0160208091040260200160405190810160405280929190818152602001828054610d1890612a3c565b8015610d655780601f10610d3a57610100808354040283529160200191610d65565b820191906000526020600020905b815481529060010190602001808311610d4857829003601f168201915b50505050508152602001600682018054610d7e90612a3c565b80601f0160208091040260200160405190810160405280929190818152602001828054610daa90612a3c565b8015610df75780601f10610dcc57610100808354040283529160200191610df7565b820191906000526020600020905b815481529060010190602001808311610dda57829003601f168201915b50505050508152602001600782018054610e1090612a3c565b80601f0160208091040260200160405190810160405280929190818152602001828054610e3c90612a3c565b8015610e895780601f10610e5e57610100808354040283529160200191610e89565b820191906000526020600020905b815481529060010190602001808311610e6c57829003601f168201915b505050505081526020016008820160009054906101000a900460ff16151515158152505090508060000151816020015182608001518360a0015194509450945094505090919293565b6003602052806000526040600020600091509050806000015490806001018054610efb90612a3c565b80601f0160208091040260200160405190810160405280929190818152602001828054610f2790612a3c565b8015610f745780601f10610f4957610100808354040283529160200191610f74565b820191906000526020600020905b815481529060010190602001808311610f5757829003601f168201915b505050505090806002018054610f8990612a3c565b80601f0160208091040260200160405190810160405280929190818152602001828054610fb590612a3c565b80156110025780601f10610fd757610100808354040283529160200191611002565b820191906000526020600020905b815481529060010190602001808311610fe557829003601f168201915b50505050509080600301805461101790612a3c565b80601f016020809104026020016040519081016040528092919081815260200182805461104390612a3c565b80156110905780601f1061106557610100808354040283529160200191611090565b820191906000526020600020905b81548152906001019060200180831161107357829003601f168201915b5050505050908060040180546110a590612a3c565b80601f01602080910402602001604051908101604052809291908181526020018280546110d190612a3c565b801561111e5780601f106110f35761010080835404028352916020019161111e565b820191906000526020600020905b81548152906001019060200180831161110157829003601f168201915b50505050509080600501805461113390612a3c565b80601f016020809104026020016040519081016040528092919081815260200182805461115f90612a3c565b80156111ac5780601f10611181576101008083540402835291602001916111ac565b820191906000526020600020905b81548152906001019060200180831161118f57829003601f168201915b5050505050908060060180546111c190612a3c565b80601f01602080910402602001604051908101604052809291908181526020018280546111ed90612a3c565b801561123a5780601f1061120f5761010080835404028352916020019161123a565b820191906000526020600020905b81548152906001019060200180831161121d57829003601f168201915b50505050509080600701805461124f90612a3c565b80601f016020809104026020016040519081016040528092919081815260200182805461127b90612a3c565b80156112c85780601f1061129d576101008083540402835291602001916112c8565b820191906000526020600020905b8154815290600101906020018083116112ab57829003601f168201915b5050505050908060080180546112dd90612a3c565b80601f016020809104026020016040519081016040528092919081815260200182805461130990612a3c565b80156113565780601f1061132b57610100808354040283529160200191611356565b820191906000526020600020905b81548152906001019060200180831161133957829003601f168201915b5050505050908060090160009054906101000a900473ffffffffffffffffffffffffffffffffffffffff16908060090160149054906101000a900460ff1690508b565b60006020528060005260406000206000915090508060000180546113bc90612a3c565b80601f01602080910402602001604051908101604052809291908181526020018280546113e890612a3c565b80156114355780601f1061140a57610100808354040283529160200191611435565b820191906000526020600020905b81548152906001019060200180831161141857829003601f168201915b50505050509080600101805461144a90612a3c565b80601f016020809104026020016040519081016040528092919081815260200182805461147690612a3c565b80156114c35780601f10611498576101008083540402835291602001916114c3565b820191906000526020600020905b8154815290600101906020018083116114a657829003601f168201915b5050505050908060020180546114d890612a3c565b80601f016020809104026020016040519081016040528092919081815260200182805461150490612a3c565b80156115515780601f1061152657610100808354040283529160200191611551565b820191906000526020600020905b81548152906001019060200180831161153457829003601f168201915b50505050509080600301805461156690612a3c565b80601f016020809104026020016040519081016040528092919081815260200182805461159290612a3c565b80156115df5780601f106115b4576101008083540402835291602001916115df565b820191906000526020600020905b8154815290600101906020018083116115c257829003601f168201915b5050505050908060040180546115f490612a3c565b80601f016020809104026020016040519081016040528092919081815260200182805461162090612a3c565b801561166d5780601f106116425761010080835404028352916020019161166d565b820191906000526020600020905b81548152906001019060200180831161165057829003601f168201915b50505050509080600501805461168290612a3c565b80601f01602080910402602001604051908101604052809291908181526020018280546116ae90612a3c565b80156116fb5780601f106116d0576101008083540402835291602001916116fb565b820191906000526020600020905b8154815290600101906020018083116116de57829003601f168201915b50505050509080600601805461171090612a3c565b80601f016020809104026020016040519081016040528092919081815260200182805461173c90612a3c565b80156117895780601f1061175e57610100808354040283529160200191611789565b820191906000526020600020905b81548152906001019060200180831161176c57829003601f168201915b50505050509080600701805461179e90612a3c565b80601f01602080910402602001604051908101604052809291908181526020018280546117ca90612a3c565b80156118175780601f106117ec57610100808354040283529160200191611817565b820191906000526020600020905b8154815290600101906020018083116117fa57829003601f168201915b5050505050908060080160009054906101000a900460ff16905089565b6060600260008373ffffffffffffffffffffffffffffffffffffffff1673ffffffffffffffffffffffffffffffffffffffff168152602001908152602001600020805461188090612a3c565b80601f01602080910402602001604051908101604052809291908181526020018280546118ac90612a3c565b80156118f95780601f106118ce576101008083540402835291602001916118f9565b820191906000526020600020905b8154815290600101906020018083116118dc57829003601f168201915b50505050509050919050565b60008060003373ffffffffffffffffffffffffffffffffffffffff1673ffffffffffffffffffffffffffffffffffffffff16815260200190815260200160002060080160006101000a81548160ff021916908315150217905550565b606080606080606080606080600080600360008c815260200190815260200160002060405180610160016040529081600082015481526020016001820180546119a990612a3c565b80601f01602080910402602001604051908101604052809291908181526020018280546119d590612a3c565b8015611a225780601f106119f757610100808354040283529160200191611a22565b820191906000526020600020905b815481529060010190602001808311611a0557829003601f168201915b50505050508152602001600282018054611a3b90612a3c565b80601f0160208091040260200160405190810160405280929190818152602001828054611a6790612a3c565b8015611ab45780601f10611a8957610100808354040283529160200191611ab4565b820191906000526020600020905b815481529060010190602001808311611a9757829003601f168201915b50505050508152602001600382018054611acd90612a3c565b80601f0160208091040260200160405190810160405280929190818152602001828054611af990612a3c565b8015611b465780601f10611b1b57610100808354040283529160200191611b46565b820191906000526020600020905b815481529060010190602001808311611b2957829003601f168201915b50505050508152602001600482018054611b5f90612a3c565b80601f0160208091040260200160405190810160405280929190818152602001828054611b8b90612a3c565b8015611bd85780601f10611bad57610100808354040283529160200191611bd8565b820191906000526020600020905b815481529060010190602001808311611bbb57829003601f168201915b50505050508152602001600582018054611bf190612a3c565b80601f0160208091040260200160405190810160405280929190818152602001828054611c1d90612a3c565b8015611c6a5780601f10611c3f57610100808354040283529160200191611c6a565b820191906000526020600020905b815481529060010190602001808311611c4d57829003601f168201915b50505050508152602001600682018054611c8390612a3c565b80601f0160208091040260200160405190810160405280929190818152602001828054611caf90612a3c565b8015611cfc5780601f10611cd157610100808354040283529160200191611cfc565b820191906000526020600020905b815481529060010190602001808311611cdf57829003601f168201915b50505050508152602001600782018054611d1590612a3c565b80601f0160208091040260200160405190810160405280929190818152602001828054611d4190612a3c565b8015611d8e5780601f10611d6357610100808354040283529160200191611d8e565b820191906000526020600020905b815481529060010190602001808311611d7157829003601f168201915b50505050508152602001600882018054611da790612a3c565b80601f0160208091040260200160405190810160405280929190818152602001828054611dd390612a3c565b8015611e205780601f10611df557610100808354040283529160200191611e20565b820191906000526020600020905b815481529060010190602001808311611e0357829003601f168201915b505050505081526020016009820160009054906101000a900473ffffffffffffffffffffffffffffffffffffffff1673ffffffffffffffffffffffffffffffffffffffff1673ffffffffffffffffffffffffffffffffffffffff1681526020016009820160149054906101000a900460ff161515151581525050905080602001518160800151826040015183606001518460a001518560c001518660e00151876101000151886101200151995099509950995099509950995099509950509193959799909294969850565b6000604051905090565b600080fd5b600080fd5b600080fd5b600080fd5b6000601f19601f8301169050919050565b7f4e487b7100000000000000000000000000000000000000000000000000000000600052604160045260246000fd5b611f5282611f09565b810181811067ffffffffffffffff82111715611f7157611f70611f1a565b5b80604052505050565b6000611f84611eeb565b9050611f908282611f49565b919050565b600067ffffffffffffffff821115611fb057611faf611f1a565b5b611fb982611f09565b9050602081019050919050565b82818337600083830152505050565b6000611fe8611fe384611f95565b611f7a565b90508281526020810184848401111561200457612003611f04565b5b61200f848285611fc6565b509392505050565b600082601f83011261202c5761202b611eff565b5b813561203c848260208601611fd5565b91505092915050565b6000806040838503121561205c5761205b611ef5565b5b600083013567ffffffffffffffff81111561207a57612079611efa565b5b61208685828601612017565b925050602083013567ffffffffffffffff8111156120a7576120a6611efa565b5b6120b385828601612017565b9150509250929050565b6000819050919050565b6120d0816120bd565b81146120db57600080fd5b50565b6000813590506120ed816120c7565b92915050565b60008060008060008060008060006101208a8c03121561211657612115611ef5565b5b60008a013567ffffffffffffffff81111561213457612133611efa565b5b6121408c828d01612017565b99505060206121518c828d016120de565b98505060408a013567ffffffffffffffff81111561217257612171611efa565b5b61217e8c828d01612017565b97505060608a013567ffffffffffffffff81111561219f5761219e611efa565b5b6121ab8c828d01612017565b96505060808a013567ffffffffffffffff8111156121cc576121cb611efa565b5b6121d88c828d01612017565b95505060a08a013567ffffffffffffffff8111156121f9576121f8611efa565b5b6122058c828d01612017565b94505060c08a013567ffffffffffffffff81111561222657612225611efa565b5b6122328c828d01612017565b93505060e08a013567ffffffffffffffff81111561225357612252611efa565b5b61225f8c828d01612017565b9250506101008a013567ffffffffffffffff81111561228157612280611efa565b5b61228d8c828d01612017565b9150509295985092959850929598565b600080600080600080600080610100898b0312156122be576122bd611ef5565b5b600089013567ffffffffffffffff8111156122dc576122db611efa565b5b6122e88b828c01612017565b985050602089013567ffffffffffffffff81111561230957612308611efa565b5b6123158b828c01612017565b975050604089013567ffffffffffffffff81111561233657612335611efa565b5b6123428b828c01612017565b965050606089013567ffffffffffffffff81111561236357612362611efa565b5b61236f8b828c01612017565b955050608089013567ffffffffffffffff8111156123905761238f611efa565b5b61239c8b828c01612017565b94505060a089013567ffffffffffffffff8111156123bd576123bc611efa565b5b6123c98b828c01612017565b93505060c089013567ffffffffffffffff8111156123ea576123e9611efa565b5b6123f68b828c01612017565b92505060e089013567ffffffffffffffff81111561241757612416611efa565b5b6124238b828c01612017565b9150509295985092959890939650565b600080600080600080600080610100898b03121561245457612453611ef5565b5b60006124628b828c016120de565b985050602089013567ffffffffffffffff81111561248357612482611efa565b5b61248f8b828c01612017565b975050604089013567ffffffffffffffff8111156124b0576124af611efa565b5b6124bc8b828c01612017565b965050606089013567ffffffffffffffff8111156124dd576124dc611efa565b5b6124e98b828c01612017565b955050608089013567ffffffffffffffff81111561250a57612509611efa565b5b6125168b828c01612017565b94505060a089013567ffffffffffffffff81111561253757612536611efa565b5b6125438b828c01612017565b93505060c089013567ffffffffffffffff81111561256457612563611efa565b5b6125708b828c01612017565b92505060e089013567ffffffffffffffff81111561259157612590611efa565b5b61259d8b828c01612017565b9150509295985092959890939650565b600081519050919050565b600082825260208201905092915050565b60005b838110156125e75780820151818401526020810190506125cc565b60008484015250505050565b60006125fe826125ad565b61260881856125b8565b93506126188185602086016125c9565b61262181611f09565b840191505092915050565b6000608082019050818103600083015261264681876125f3565b9050818103602083015261265a81866125f3565b9050818103604083015261266e81856125f3565b9050818103606083015261268281846125f3565b905095945050505050565b6000602082840312156126a3576126a2611ef5565b5b60006126b1848285016120de565b91505092915050565b6126c3816120bd565b82525050565b600073ffffffffffffffffffffffffffffffffffffffff82169050919050565b60006126f4826126c9565b9050919050565b612704816126e9565b82525050565b60008115159050919050565b61271f8161270a565b82525050565b60006101608201905061273b600083018e6126ba565b818103602083015261274d818d6125f3565b90508181036040830152612761818c6125f3565b90508181036060830152612775818b6125f3565b90508181036080830152612789818a6125f3565b905081810360a083015261279d81896125f3565b905081810360c08301526127b181886125f3565b905081810360e08301526127c581876125f3565b90508181036101008301526127da81866125f3565b90506127ea6101208301856126fb565b6127f8610140830184612716565b9c9b505050505050505050505050565b612811816126e9565b811461281c57600080fd5b50565b60008135905061282e81612808565b92915050565b60006020828403121561284a57612849611ef5565b5b60006128588482850161281f565b91505092915050565b600061012082019050818103600083015261287c818c6125f3565b90508181036020830152612890818b6125f3565b905081810360408301526128a4818a6125f3565b905081810360608301526128b881896125f3565b905081810360808301526128cc81886125f3565b905081810360a08301526128e081876125f3565b905081810360c08301526128f481866125f3565b905081810360e083015261290881856125f3565b9050612918610100830184612716565b9a9950505050505050505050565b6000602082019050818103600083015261294081846125f3565b905092915050565b6000610120820190508181036000830152612963818c6125f3565b90508181036020830152612977818b6125f3565b9050818103604083015261298b818a6125f3565b9050818103606083015261299f81896125f3565b905081810360808301526129b381886125f3565b905081810360a08301526129c781876125f3565b905081810360c08301526129db81866125f3565b905081810360e08301526129ef81856125f3565b90506129ff6101008301846126fb565b9a9950505050505050505050565b7f4e487b7100000000000000000000000000000000000000000000000000000000600052602260045260246000fd5b60006002820490506001821680612a5457607f821691505b602082108103612a6757612a66612a0d565b5b50919050565b600081905092915050565b60008190508160005260206000209050919050565b60008154612a9a81612a3c565b612aa48186612a6d565b94506001821660008114612abf5760018114612ad457612b07565b60ff1983168652811515820286019350612b07565b612add85612a78565b60005b83811015612aff57815481890152600182019150602081019050612ae0565b838801955050505b50505092915050565b6000612b1c8284612a8d565b915081905092915050565b7f456d61696c20646f6573206e6f74206d61746368000000000000000000000000600082015250565b6000612b5d6014836125b8565b9150612b6882612b27565b602082019050919050565b60006020820190508181036000830152612b8c81612b50565b9050919050565b7f50617373776f726420646f6573206e6f74206d61746368000000000000000000600082015250565b6000612bc96017836125b8565b9150612bd482612b93565b602082019050919050565b60006020820190508181036000830152612bf881612bbc565b9050919050565b7f4c616e6420697320416c72656164792052656769737465726564000000000000600082015250565b6000612c35601a836125b8565b9150612c4082612bff565b602082019050919050565b60006020820190508181036000830152612c6481612c28565b9050919050565b60008190508160005260206000209050919050565b60006020601f8301049050919050565b600082821b905092915050565b600060088302612ccd7fffffffffffffffffffffffffffffffffffffffffffffffffffffffffffffffff82612c90565b612cd78683612c90565b95508019841693508086168417925050509392505050565b6000819050919050565b6000612d14612d0f612d0a846120bd565b612cef565b6120bd565b9050919050565b6000819050919050565b612d2e83612cf9565b612d42612d3a82612d1b565b848454612c9d565b825550505050565b600090565b612d57612d4a565b612d62818484612d25565b505050565b5b81811015612d8657612d7b600082612d4f565b600181019050612d68565b5050565b601f821115612dcb57612d9c81612c6b565b612da584612c80565b81016020851015612db4578190505b612dc8612dc085612c80565b830182612d67565b50505b505050565b600082821c905092915050565b6000612dee60001984600802612dd0565b1980831691505092915050565b6000612e078383612ddd565b9150826002028217905092915050565b612e20826125ad565b67ffffffffffffffff811115612e3957612e38611f1a565b5b612e438254612a3c565b612e4e828285612d8a565b600060209050601f831160018114612e815760008415612e6f578287015190505b612e798582612dfb565b865550612ee1565b601f198416612e8f86612c6b565b60005b82811015612eb757848901518255600182019150602085019450602081019050612e92565b86831015612ed45784890151612ed0601f891682612ddd565b8355505b6001600288020188555050505b505050505050565b7f557365722077697468207468697320457468657265756d20416464726573732060008201527f616c726561647920657869737473000000000000000000000000000000000000602082015250565b6000612f45602e836125b8565b9150612f5082612ee9565b604082019050919050565b60006020820190508181036000830152612f7481612f38565b9050919050565b600081905092915050565b6000612f91826125ad565b612f9b8185612f7b565b9350612fab8185602086016125c9565b80840191505092915050565b6000612fc38284612f86565b915081905092915050565b7f596f7520617265206e6f7420746865206f776e6572206f662074686973206c6160008201527f6e64000000000000000000000000000000000000000000000000000000000000602082015250565b600061302a6022836125b8565b915061303582612fce565b604082019050919050565b600060208201905081810360008301526130598161301d565b905091905056fea26469706673582212201d3cdb333a1f28405dfea6429ad2abffb493e79561c4dfc10aab8da126a61bef64736f6c63430008130033",
  "linkReferences": {},
  "deployedLinkReferences": {}
}