{
  "_format": "hh-sol-artifact-1",
  "contractName": "LandRegistration",
  "sourceName": "contracts/LandRegistration.sol",
  "abi": [
    {
      "anonymous": false,
      "inputs": [
        {
          "indexed": true,
          "internalType": "uint256",
          "name": "landId",
          "type": "uint256"
        },
        {
          "indexed": true,
          "internalType": "address",
          "name": "owner",
          "type": "address"
        }
      ],
      "name": "LandRegistered",
      "type": "event"
    },
    {
      "anonymous": false,
      "inputs": [
        {
          "indexed": true,
          "internalType": "uint256",
          "name": "landId",
          "type": "uint256"
        },
        {
          "indexed": true,
          "internalType": "address",
          "name": "from",
          "type": "address"
        },
        {
          "indexed": true,
          "internalType": "address",
          "name": "to",
          "type": "address"
        }
      ],
      "name": "LandTransferred",
      "type": "event"
    },
    {
      "anonymous": false,
      "inputs": [
        {
          "indexed": true,
          "internalType": "uint256",
          "name": "landId",
          "type": "uint256"
        },
        {
          "indexed": false,
          "internalType": "string",
          "name": "requestType",
          "type": "string"
        },
        {
          "indexed": true,
          "internalType": "address",
          "name": "requester",
          "type": "address"
        }
      ],
      "name": "RequestAdded",
      "type": "event"
    },
    {
      "anonymous": false,
      "inputs": [
        {
          "indexed": true,
          "internalType": "uint256",
          "name": "landId",
          "type": "uint256"
        },
        {
          "indexed": false,
          "internalType": "string",
          "name": "requestType",
          "type": "string"
        },
        {
          "indexed": true,
          "internalType": "address",
          "name": "verifier",
          "type": "address"
        }
      ],
      "name": "RequestVerified",
      "type": "event"
    },
    {
      "inputs": [],
      "name": "getAllLandDetails",
      "outputs": [
        {
          "components": [
            {
              "internalType": "uint256",
              "name": "Land_id",
              "type": "uint256"
            },
            {
              "internalType": "string",
              "name": "fullName",
              "type": "string"
            },
            {
              "internalType": "string",
              "name": "fatherName",
              "type": "string"
            },
            {
              "internalType": "string",
              "name": "cnic",
              "type": "string"
            },
            {
              "internalType": "string",
              "name": "email",
              "type": "string"
            },
            {
              "internalType": "string",
              "name": "permanentAddress",
              "type": "string"
            },
            {
              "internalType": "string",
              "name": "temporaryAddress",
              "type": "string"
            },
            {
              "internalType": "string",
              "name": "size",
              "type": "string"
            },
            {
              "internalType": "string",
              "name": "location",
              "type": "string"
            },
            {
              "internalType": "address",
              "name": "owner",
              "type": "address"
            },
            {
              "internalType": "bool",
              "name": "isRegister",
              "type": "bool"
            }
          ],
          "internalType": "struct LandRegistration.LandDetails[]",
          "name": "",
          "type": "tuple[]"
        }
      ],
      "stateMutability": "view",
      "type": "function"
    },
    {
      "inputs": [
        {
          "internalType": "uint256",
          "name": "_landId",
          "type": "uint256"
        }
      ],
      "name": "getLandDetails",
      "outputs": [
        {
          "internalType": "string",
          "name": "fullName",
          "type": "string"
        },
        {
          "internalType": "string",
          "name": "email",
          "type": "string"
        },
        {
          "internalType": "string",
          "name": "fatherName",
          "type": "string"
        },
        {
          "internalType": "string",
          "name": "cnic",
          "type": "string"
        },
        {
          "internalType": "string",
          "name": "permanentAddress",
          "type": "string"
        },
        {
          "internalType": "string",
          "name": "temporaryAddress",
          "type": "string"
        },
        {
          "internalType": "string",
          "name": "_size",
          "type": "string"
        },
        {
          "internalType": "string",
          "name": "_location",
          "type": "string"
        },
        {
          "internalType": "address",
          "name": "owner",
          "type": "address"
        }
      ],
      "stateMutability": "view",
      "type": "function"
    },
    {
      "inputs": [],
      "name": "getPendingRequests",
      "outputs": [
        {
          "components": [
            {
              "internalType": "uint256",
              "name": "Land_id",
              "type": "uint256"
            },
            {
              "internalType": "string",
              "name": "fullName",
              "type": "string"
            },
            {
              "internalType": "string",
              "name": "fatherName",
              "type": "string"
            },
            {
              "internalType": "string",
              "name": "cnic",
              "type": "string"
            },
            {
              "internalType": "string",
              "name": "email",
              "type": "string"
            },
            {
              "internalType": "string",
              "name": "permanentAddress",
              "type": "string"
            },
            {
              "internalType": "string",
              "name": "temporaryAddress",
              "type": "string"
            },
            {
              "internalType": "string",
              "name": "size",
              "type": "string"
            },
            {
              "internalType": "string",
              "name": "location",
              "type": "string"
            },
            {
              "internalType": "address",
              "name": "owner",
              "type": "address"
            },
            {
              "internalType": "string",
              "name": "requestType",
              "type": "string"
            }
          ],
          "internalType": "struct LandRegistration.PendingRequest[]",
          "name": "",
          "type": "tuple[]"
        }
      ],
      "stateMutability": "view",
      "type": "function"
    },
    {
      "inputs": [],
      "name": "landCounter",
      "outputs": [
        {
          "internalType": "uint256",
          "name": "",
          "type": "uint256"
        }
      ],
      "stateMutability": "view",
      "type": "function"
    },
    {
      "inputs": [
        {
          "internalType": "uint256",
          "name": "",
          "type": "uint256"
        }
      ],
      "name": "landRegistry",
      "outputs": [
        {
          "internalType": "uint256",
          "name": "Land_id",
          "type": "uint256"
        },
        {
          "internalType": "string",
          "name": "fullName",
          "type": "string"
        },
        {
          "internalType": "string",
          "name": "fatherName",
          "type": "string"
        },
        {
          "internalType": "string",
          "name": "cnic",
          "type": "string"
        },
        {
          "internalType": "string",
          "name": "email",
          "type": "string"
        },
        {
          "internalType": "string",
          "name": "permanentAddress",
          "type": "string"
        },
        {
          "internalType": "string",
          "name": "temporaryAddress",
          "type": "string"
        },
        {
          "internalType": "string",
          "name": "size",
          "type": "string"
        },
        {
          "internalType": "string",
          "name": "location",
          "type": "string"
        },
        {
          "internalType": "address",
          "name": "owner",
          "type": "address"
        },
        {
          "internalType": "bool",
          "name": "isRegister",
          "type": "bool"
        }
      ],
      "stateMutability": "view",
      "type": "function"
    },
    {
      "inputs": [
        {
          "internalType": "uint256",
          "name": "",
          "type": "uint256"
        }
      ],
      "name": "pendingRequests",
      "outputs": [
        {
          "internalType": "uint256",
          "name": "Land_id",
          "type": "uint256"
        },
        {
          "internalType": "string",
          "name": "fullName",
          "type": "string"
        },
        {
          "internalType": "string",
          "name": "fatherName",
          "type": "string"
        },
        {
          "internalType": "string",
          "name": "cnic",
          "type": "string"
        },
        {
          "internalType": "string",
          "name": "email",
          "type": "string"
        },
        {
          "internalType": "string",
          "name": "permanentAddress",
          "type": "string"
        },
        {
          "internalType": "string",
          "name": "temporaryAddress",
          "type": "string"
        },
        {
          "internalType": "string",
          "name": "size",
          "type": "string"
        },
        {
          "internalType": "string",
          "name": "location",
          "type": "string"
        },
        {
          "internalType": "address",
          "name": "owner",
          "type": "address"
        },
        {
          "internalType": "string",
          "name": "requestType",
          "type": "string"
        }
      ],
      "stateMutability": "view",
      "type": "function"
    },
    {
      "inputs": [
        {
          "internalType": "string",
          "name": "_fullName",
          "type": "string"
        },
        {
          "internalType": "uint256",
          "name": "_Land_id",
          "type": "uint256"
        },
        {
          "internalType": "string",
          "name": "_size",
          "type": "string"
        },
        {
          "internalType": "string",
          "name": "_location",
          "type": "string"
        },
        {
          "internalType": "string",
          "name": "_fatherName",
          "type": "string"
        },
        {
          "internalType": "string",
          "name": "_email",
          "type": "string"
        },
        {
          "internalType": "string",
          "name": "_cnic",
          "type": "string"
        },
        {
          "internalType": "string",
          "name": "_permanentAddress",
          "type": "string"
        },
        {
          "internalType": "string",
          "name": "_temporaryAddress",
          "type": "string"
        }
      ],
      "name": "registerLand",
      "outputs": [],
      "stateMutability": "nonpayable",
      "type": "function"
    },
    {
      "inputs": [
        {
          "internalType": "uint256",
          "name": "",
          "type": "uint256"
        }
      ],
      "name": "registeredLandIds",
      "outputs": [
        {
          "internalType": "uint256",
          "name": "",
          "type": "uint256"
        }
      ],
      "stateMutability": "view",
      "type": "function"
    },
    {
      "inputs": [
        {
          "internalType": "uint256",
          "name": "_landId",
          "type": "uint256"
        },
        {
          "internalType": "address",
          "name": "_recipient",
          "type": "address"
        },
        {
          "internalType": "string",
          "name": "_recipientName",
          "type": "string"
        },
        {
          "internalType": "string",
          "name": "_recipientCnic",
          "type": "string"
        },
        {
          "internalType": "string",
          "name": "_recipientfatherName",
          "type": "string"
        },
        {
          "internalType": "string",
          "name": "_currentAddress",
          "type": "string"
        },
        {
          "internalType": "string",
          "name": "_permanentAddress",
          "type": "string"
        },
        {
          "internalType": "string",
          "name": "_email",
          "type": "string"
        }
      ],
      "name": "transferLand",
      "outputs": [],
      "stateMutability": "nonpayable",
      "type": "function"
    },
    {
      "inputs": [
        {
          "internalType": "uint256",
          "name": "_landId",
          "type": "uint256"
        },
        {
          "internalType": "string",
          "name": "_fullName",
          "type": "string"
        },
        {
          "internalType": "string",
          "name": "_fatherName",
          "type": "string"
        },
        {
          "internalType": "string",
          "name": "_cnic",
          "type": "string"
        },
        {
          "internalType": "string",
          "name": "_permanentAddress",
          "type": "string"
        },
        {
          "internalType": "string",
          "name": "_size",
          "type": "string"
        },
        {
          "internalType": "string",
          "name": "_location",
          "type": "string"
        },
        {
          "internalType": "string",
          "name": "_temporaryAddress",
          "type": "string"
        }
      ],
      "name": "updateLandDetails",
      "outputs": [],
      "stateMutability": "nonpayable",
      "type": "function"
    },
    {
      "inputs": [
        {
          "internalType": "uint256",
          "name": "_index",
          "type": "uint256"
        }
      ],
      "name": "verifyRequest",
      "outputs": [],
      "stateMutability": "nonpayable",
      "type": "function"
    }
  ],
  "bytecode": "0x608080604052346100165761324c908161001c8239f35b600080fdfe6080604052600436101561001257600080fd5b60003560e01c806309c05b0e146122b65780633c652a9a146121585780634abac37b14611ffd5780637ae6da9b14610f815780637ce411f9146108ac57806380a1f712146106ed5780639e29ce18146106cf578063a3695b1814610589578063a6ac704e1461026b578063da5f55e9146102345763fe0cb7dc1461009557600080fd5b3461022f57602036600319011261022f5760043560005260006020526040600020604051906100c38261243b565b805482526100d360018201612558565b60208301908152906100e760028201612558565b60408401908152926100fb60038301612558565b6060820190815261010e60048401612558565b608083019081529461012260058501612558565b60a0840190815261013560068601612558565b60c0850190815261014860078701612558565b60e086019081529161015c60088801612558565b946101009786898901526009015498600160a01b600190038a16976101209a898c83015260a01c60ff16151590610140015251995194519051915192519351946040519a8a8c9b8c528b016101b0916125fe565b8a810360208c01526101c1916125fe565b89810360408b01526101d2916125fe565b88810360608a01526101e3916125fe565b87810360808901526101f4916125fe565b86810360a0880152610205916125fe565b85810360c0870152610216916125fe565b84810360e0860152610227916125fe565b918301520390f35b600080fd5b3461022f57602036600319011261022f5760043560025481101561022f5761025d60209161263e565b90546040519160031b1c8152f35b3461022f57600036600319011261022f576001805461028981612ff8565b906102976040519283612472565b8082526102a6601f1991612ff8565b0160005b81811061052957505060028054906000805b8381106103fa578486604051918291602090818401828552835180915260408501928060408360051b8801019501936000905b8382106102fc5787870388f35b918496819592949698508190603f198b8203018552895190815181526103c86103b46103a261038f61037c6103696103566103448a8a0151610160808d8c01528a01906125fe565b60408a015189820360408b01526125fe565b6060808a015190898303908a01526125fe565b60808089015190888303908901526125fe565b60a08088015190878303908801526125fe565b60c08087015190868303908701526125fe565b60e085015184820360e08601526125fe565b6101008085015190848303908501526125fe565b9161012060018060a01b03818301511690830152610140809101511515910152980192019201879695939194926102ef565b856104048261263e565b9054600391821b1c6000526020600081526040600020906009820154928760a09260ff86851c169687610448575b5050505050505050610443906130d2565b6102bc565b9461051b97946104956104439a9b98956104896104e39660089661047e6104739c6040519d8e61243b565b88548e528801612558565b908c01528501612558565b60408a01528301612558565b60608801526104a660048301612558565b60808801526104b760058301612558565b908701526104c760068201612558565b60c08701526104d860078201612558565b60e087015201612558565b6101008401526001600160a01b0316610120830152151561014082015261050a8289613202565b526105158188613202565b506130d2565b91908780808087818c610432565b6020906040516105388161243b565b6000815260608390808284015280604084015280808401528060808401528060a08401528060c08401528060e0840152610100830152600061012083015260006101408301528286010152016102aa565b3461022f57602036600319011261022f57600435600052600060205260406000208054600182016105b990612558565b916105c660028201612558565b906105d360038201612558565b6105df60048301612558565b6105eb60058401612558565b6105f760068501612558565b9161060460078601612558565b9361061160088701612558565b956009015496604051998a998a526101608060208c01528a01610633916125fe565b89810360408b0152610644916125fe565b88810360608a0152610655916125fe565b8781036080890152610666916125fe565b86810360a0880152610677916125fe565b85810360c0870152610688916125fe565b84810360e0860152610699916125fe565b8381036101008501526106ab916125fe565b90600160a01b60019003811661012084015260a01c60ff1615156101408301520390f35b3461022f57600036600319011261022f576020600154604051908152f35b3461022f57600036600319011261022f5760035461070a81612ff8565b906107186040519283612472565b80825260036000908152602091828401917fc2575a0e9e593c00f959f8c92f12db2869c3395a3b0502d05e2516446f71f85b835b8383106108895750505050604051918083019381845251809452604083019360408160051b85010192916000955b8287106107875785850386f35b909192938280610879600193603f198a820301865288518051825261085361083f61082d61081a6108076107f46107e16107cf8b8901518c61016080918d01528b01906125fe565b60408901518a820360408c01526125fe565b606080890151908a8303908b01526125fe565b60808088015190898303908a01526125fe565b60a08087015190888303908901526125fe565b60c08086015190878303908801526125fe565b60e084015185820360e08701526125fe565b6101008084015190858303908601526125fe565b91610120878060a01b0381840151169082015261014080920151918184039101526125fe565b960192019601959291909261077a565b600b8660019261089b859a999a61300f565b81520192019201919095949561074c565b3461022f5761010036600319011261022f576004356024356001600160401b03811161022f576108e0903690600401612493565b906044356001600160401b03811161022f57610900903690600401612493565b916064356001600160401b03811161022f57610920903690600401612493565b6084356001600160401b03811161022f5761093f903690600401612493565b60a4356001600160401b03811161022f5761095e903690600401612493565b9160c4356001600160401b03811161022f5761097e903690600401612493565b9560e4356001600160401b03811161022f5761099e903690600401612493565b958060005260006020526109c360018060a01b03600960406000200154163314612f7d565b600052600060205260406000209480516001600160401b038111610c9c578060018801926109fb826109f5865461251e565b86612694565b602090601f8311600114610f1557600092610f0a575b50508160011b916000199060031b1c19161790555b8051906001600160401b038211610c9c578190610a5382610a4a60028a015461251e565b60028a01612694565b602090601f8311600114610e9d57600092610e92575b50508160011b916000199060031b1c19161760028501555b8051906001600160401b038211610c9c578190610aae82610aa5600389015461251e565b60038901612694565b602090601f8311600114610e2057600092610e15575b50508160011b916000199060031b1c19161760038401555b8051906001600160401b038211610c9c578190610b0982610b00600588015461251e565b60058801612694565b602090601f8311600114610da357600092610d98575b50508160011b916000199060031b1c19161760058301555b805160078301916001600160401b038211610c9c578190610b5c826109f5865461251e565b602090601f8311600114610d3257600092610d27575b50508160011b916000199060031b1c19161790555b6008810183516001600160401b038111610c9c57610baf81610ba9845461251e565b84612694565b6020601f8211600114610cbd57819060069596600092610cb2575b50508160011b916000199060031b1c19161790555b0181516001600160401b038111610c9c57610bfe81610ba9845461251e565b602092601f8211600114610c3b5792819293600092610c30575b5050600019600383901b1c191660019190911b179055005b015190508380610c18565b601f198216938360005260206000209160005b868110610c845750836001959610610c6b575b505050811b019055005b015160001960f88460031b161c19169055838080610c61565b91926020600181928685015181550194019201610c4e565b634e487b7160e01b600052604160045260246000fd5b015190508680610bca565b601f198216958360005260206000209660005b818110610d0f5750916006969791846001959410610cf6575b505050811b019055610bdf565b015160001960f88460031b161c19169055868080610ce9565b83830151895560019098019760209384019301610cd0565b015190508680610b72565b6000858152602081209350601f198516905b818110610d805750908460019594939210610d67575b505050811b019055610b87565b015160001960f88460031b161c19169055868080610d5a565b92936020600181928786015181550195019301610d44565b015190508680610b1f565b9250600585016000526020600020906000935b601f1984168510610dfa576001945083601f19811610610de1575b505050811b016005830155610b37565b015160001960f88460031b161c19169055868080610dd1565b81810151835560209485019460019093019290910190610db6565b015190508780610ac4565b9250600386016000526020600020906000935b601f1984168510610e77576001945083601f19811610610e5e575b505050811b016003840155610adc565b015160001960f88460031b161c19169055878080610e4e565b81810151835560209485019460019093019290910190610e33565b015190508880610a69565b600288016000908152602081209350601f198516905b818110610ef25750908460019594939210610ed9575b505050811b016002850155610a81565b015160001960f88460031b161c19169055888080610ec9565b92936020600181928786015181550195019301610eb3565b015190508a80610a11565b9250836000526020600020906000935b601f1984168510610f66576001945083601f19811610610f4d575b505050811b019055610a26565b015160001960f88460031b161c191690558a8080610f40565b81810151835560209485019460019093019290910190610f25565b3461022f57602036600319011261022f57610fa6610fa06004356124e9565b5061300f565b61014081015160208151910120610fbb612659565b6020815191012014600014611a495760e081015190610100810151602082015190825193608084015160408501519060608601519060a08701519160c08801519360018060a01b036101208a015116976040519a6110188c61243b565b8b5260208b015260408a01526060890152608088015260a087015260c086015260e0850152610100840152610120830152600161014083015261105c6001546130d2565b6001558051600254600160401b811015610c9c57806001611080920160025561263e565b90918254908260031b1b916000199060031b1b1916179055805160005260006020526040600020908251825560208301519283516001600160401b038111610c9c576110dc816110d3600187015461251e565b60018701612694565b6020601f82116001146119da5781929394956000926119cf575b50508160011b916000199060031b1c19161760018401555b60408101519283516001600160401b038111610c9c5761113e81611135600285015461251e565b60028501612694565b6020601f8211600114611960578192939495600092611955575b50508160011b916000199060031b1c19161760028201555b60608201519283516001600160401b038111610c9c576111a081611197600386015461251e565b60038601612694565b6020601f82116001146118e65781929394956000926118db575b50508160011b916000199060031b1c19161760038301555b60808301519283516001600160401b038111610c9c57611202816111f9600487015461251e565b60048701612694565b6020601f821160011461186c578192939495600092611861575b50508160011b916000199060031b1c19161760048401555b60a08101519283516001600160401b038111610c9c576112648161125b600585015461251e565b60058501612694565b6020601f82116001146117f25781929394956000926117e7575b50508160011b916000199060031b1c19161760058201555b60c08201519283516001600160401b038111610c9c576112c6816112bd600686015461251e565b60068601612694565b6020601f821160011461177857819293949560009261176d575b50508160011b916000199060031b1c19161760068301555b60e08301519283516001600160401b038111610c9c576113288161131f600787015461251e565b60078701612694565b6020601f82116001146116fe5781929394956000926116f3575b50508160011b916000199060031b1c19161760078401555b6101008101519283516001600160401b038111610c9c5761138b81611382600885015461251e565b60088501612694565b6020601f82116001146116805781906009949596600092611675575b50508160011b916000199060031b1c19161760088201555b61012080840151929091018054610140909401516001600160a81b03199094166001600160a01b039384161793151560a01b60ff60a01b169390931790925582519183015116907fcb4990052f95f6057496d19524f6c3163f50af9f33f2c15b092928e03414323e600080a35b60038054806004351015611640576000199080820190811161162a57611451906124e9565b5061145d6004356124e9565b61153f5781810361156b575b50508154801561155557019061147e826124e9565b61153f57600a8160006114f89355611498600182016131b9565b6114a4600282016131b9565b6114af8482016131b9565b6114bb600482016131b9565b6114c7600582016131b9565b6114d3600682016131b9565b6114df600782016131b9565b6114eb600882016131b9565b60006009820155016131b9565b556101408151910151907fbf3747916bbe426e0fd532a54a21bcf371c5ca55c33adbfd8b43756bb1bea938604051602081528061153a339560208301906125fe565b0390a3005b634e487b7160e01b600052600060045260246000fd5b634e487b7160e01b600052603160045260246000fd5b600a80836116239454845561158660018201600186016130e1565b61159660028201600286016130e1565b6115a48782018886016130e1565b6115b460048201600486016130e1565b6115c460058201600586016130e1565b6115d460068201600686016130e1565b6115e460078201600786016130e1565b6115f460088201600886016130e1565b60098181015490850180546001600160a01b0319166001600160a01b03929092169190911790550191016130e1565b8380611469565b634e487b7160e01b600052601160045260246000fd5b60405162461bcd60e51b815260206004820152600d60248201526c092dcecc2d8d2c840d2dcc8caf609b1b6044820152606490fd5b0151905086806113a7565b6008830160005260206000209560005b601f19841681106116db57509582916009959697600194601f198116106116c2575b505050811b0160088201556113bf565b015160001960f88460031b161c191690558680806116b2565b82820151885560019097019660209283019201611690565b015190508580611342565b6007850160005260206000209060005b601f1984168110611755575060019394959683601f1981161061173c575b505050811b01600784015561135a565b015160001960f88460031b161c1916905585808061172c565b9091602060018192858b01518155019301910161170e565b0151905085806112e0565b6006840160005260206000209060005b601f19841681106117cf575060019394959683601f198116106117b6575b505050811b0160068301556112f8565b015160001960f88460031b161c191690558580806117a6565b9091602060018192858b015181550193019101611788565b01519050858061127e565b6005830160005260206000209060005b601f1984168110611849575060019394959683601f19811610611830575b505050811b016005820155611296565b015160001960f88460031b161c19169055858080611820565b9091602060018192858b015181550193019101611802565b01519050858061121c565b6004850160005260206000209060005b601f19841681106118c3575060019394959683601f198116106118aa575b505050811b016004840155611234565b015160001960f88460031b161c1916905585808061189a565b9091602060018192858b01518155019301910161187c565b0151905085806111ba565b6003840160005260206000209060005b601f198416811061193d575060019394959683601f19811610611924575b505050811b0160038301556111d2565b015160001960f88460031b161c19169055858080611914565b9091602060018192858b0151815501930191016118f6565b015190508580611158565b6002830160005260206000209060005b601f19841681106119b7575060019394959683601f1981161061199e575b505050811b016002820155611170565b015160001960f88460031b161c1916905585808061198e565b9091602060018192858b015181550193019101611970565b0151905085806110f6565b6001850160005260206000209060005b601f1984168110611a31575060019394959683601f19811610611a18575b505050811b01600184015561110e565b015160001960f88460031b161c19169055858080611a08565b9091602060018192858b0151815501930191016119ea565b61014081015160208151910120611a5e612fd4565b602081519101200361142c578051600052600060205260018060a01b036009604060002001541660018060a01b0361012083015116825160005260096040600020019060018060a01b03198254161790556020820151918051600052600160406000200183516001600160401b038111610c9c57611ae081610ba9845461251e565b6020601f8211600114611f94578192939495600092611f89575b50508160011b916000199060031b1c19161790555b60608101519181516000526000602052600360406000200183516001600160401b038111610c9c57611b4581610ba9845461251e565b6020601f8211600114611f20578192939495600092611f15575b50508160011b916000199060031b1c19161790555b60808201519180516000526000602052600460406000200183516001600160401b038111610c9c57611baa81610ba9845461251e565b6020601f8211600114611eac578192939495600092611ea1575b50508160011b916000199060031b1c19161790555b60408101519181516000526000602052600260406000200183516001600160401b038111610c9c57611c0f81610ba9845461251e565b6020601f8211600114611e38578192939495600092611e2d575b50508160011b916000199060031b1c19161790555b60c08201519180516000526000602052600660406000200183516001600160401b038111610c9c57611c7481610ba9845461251e565b6020601f8211600114611dc4578192939495600092611db9575b50508160011b916000199060031b1c19161790555b60a08101519181516000526000602052600560406000200183516001600160401b038111610c9c57611cd981610ba9845461251e565b6020601f8211600114611d50578192939495600092611d45575b50508160011b916000199060031b1c19161790555b81516101208301516001600160a01b031691907f1080b2f211753e5090f26ef7ffdc6bb3e66a125c7290200d10b502160bb1f566600080a461142c565b015190508580611cf3565b8260005260206000209060005b601f1984168110611da1575060019394959683601f19811610611d88575b505050811b019055611d08565b015160001960f88460031b161c19169055858080611d7b565b9091602060018192858b015181550193019101611d5d565b015190508580611c8e565b8260005260206000209060005b601f1984168110611e15575060019394959683601f19811610611dfc575b505050811b019055611ca3565b015160001960f88460031b161c19169055858080611def565b9091602060018192858b015181550193019101611dd1565b015190508580611c29565b8260005260206000209060005b601f1984168110611e89575060019394959683601f19811610611e70575b505050811b019055611c3e565b015160001960f88460031b161c19169055858080611e63565b9091602060018192858b015181550193019101611e45565b015190508580611bc4565b8260005260206000209060005b601f1984168110611efd575060019394959683601f19811610611ee4575b505050811b019055611bd9565b015160001960f88460031b161c19169055858080611ed7565b9091602060018192858b015181550193019101611eb9565b015190508580611b5f565b8260005260206000209060005b601f1984168110611f71575060019394959683601f19811610611f58575b505050811b019055611b74565b015160001960f88460031b161c19169055858080611f4b565b9091602060018192858b015181550193019101611f2d565b015190508580611afa565b8260005260206000209060005b601f1984168110611fe5575060019394959683601f19811610611fcc575b505050811b019055611b0f565b015160001960f88460031b161c19169055858080611fbf565b9091602060018192858b015181550193019101611fa1565b3461022f5761012036600319011261022f576001600160401b0360043581811161022f5761202f903690600401612493565b60243560443583811161022f5761204a903690600401612493565b60643584811161022f57612062903690600401612493565b9060843585811161022f5761207b903690600401612493565b9460a43581811161022f57612094903690600401612493565b9060c43581811161022f576120ad903690600401612493565b9160e43582811161022f576120c6903690600401612493565b916101043590811161022f576120e0903690600401612493565b9286600052600060205260ff60096040600020015460a01c166121135761211198612109612659565b9833986126d9565b005b60405162461bcd60e51b815260206004820152601a60248201527f4c616e6420697320416c726561647920526567697374657265640000000000006044820152606490fd5b3461022f57602036600319011261022f5760043560035481101561022f5761217f906124e9565b50805461218e60018301612558565b9161219b60028201612558565b906121a860038201612558565b6121b460048301612558565b6121c060058401612558565b6121cc60068501612558565b906121d960078601612558565b926121e660088701612558565b60098701546001600160a01b03169690959061220490600a01612558565b976040519a8b9a8b526101608060208d01528b01612221916125fe565b8a810360408c0152612232916125fe565b89810360608b0152612243916125fe565b88810360808a0152612254916125fe565b87810360a0890152612265916125fe565b86810360c0880152612276916125fe565b85810360e0870152612287916125fe565b848103610100860152612299916125fe565b906101208401528281036101408401526122b2916125fe565b0390f35b3461022f5761010036600319011261022f576001600160a01b03600435602435828116810361022f576001600160401b0360443581811161022f576122ff903690600401612493565b9060643581811161022f57612318903690600401612493565b9460843582811161022f57612331903690600401612493565b9160a43581811161022f5761234a903690600401612493565b9160c43582811161022f57612363903690600401612493565b9160e43590811161022f5761237f61239a913690600401612493565b91886000526000602052600960406000200154163314612f7d565b86600052600060205260ff60096040600020015460a01c16156123fd57612111978760005260006020526123d46007604060002001612558565b948860005260006020526123ee6008604060002001612558565b966123f7612fd4565b996126d9565b60405162461bcd60e51b815260206004820152601660248201527513185b99081a5cc81b9bdd081c9959da5cdd195c995960521b6044820152606490fd5b61016081019081106001600160401b03821117610c9c57604052565b604081019081106001600160401b03821117610c9c57604052565b90601f801991011681019081106001600160401b03821117610c9c57604052565b81601f8201121561022f578035906001600160401b038211610c9c57604051926124c7601f8401601f191660200185612472565b8284526020838301011161022f57816000926020809301838601378301015290565b600354811015612508576003600052600b602060002091020190600090565b634e487b7160e01b600052603260045260246000fd5b90600182811c9216801561254e575b602083101461253857565b634e487b7160e01b600052602260045260246000fd5b91607f169161252d565b906040519182600082549261256c8461251e565b9081845260019485811690816000146125db5750600114612598575b505061259692500383612472565b565b9093915060005260209081600020936000915b8183106125c357505061259693508201013880612588565b855488840185015294850194879450918301916125ab565b91505061259694506020925060ff191682840152151560051b8201013880612588565b919082519283825260005b84811061262a575050826000602080949584010152601f8019910116010190565b602081830181015184830182015201612609565b60025481101561250857600260005260206000200190600090565b6040519061266682612457565b60088252673932b3b4b9ba32b960c11b6020830152565b818110612688575050565b6000815560010161267d565b9190601f81116126a357505050565b612596926000526020600020906020601f840160051c830193106126cf575b601f0160051c019061267d565b90915081906126c2565b989794919693909592604051976126ef8961243b565b8a89526020890197885260408901526060880152608087015260a086015260c085015260e08401526101008301526001600160a01b0383166101208301526101408201859052600354600160401b811015610c9c5780600161275492016003556124e9565b91909161153f5782518255518051906001600160401b038211610c9c578190612784826110d3600187015461251e565b602090601f8311600114612f0b57600092612f00575b50508160011b916000199060031b1c19161760018201555b60408201518051906001600160401b038211610c9c5781906127e4826127db600287015461251e565b60028701612694565b602090601f8311600114612e8e57600092612e83575b50508160011b916000199060031b1c19161760028201555b60608201518051906001600160401b038211610c9c5781906128448261283b600387015461251e565b60038701612694565b602090601f8311600114612e1157600092612e06575b50508160011b916000199060031b1c19161760038201555b60808201518051906001600160401b038211610c9c57819061289b826111f9600487015461251e565b602090601f8311600114612d9457600092612d89575b50508160011b916000199060031b1c19161760048201555b60a08201518051906001600160401b038211610c9c5781906128fb826128f2600587015461251e565b60058701612694565b602090601f8311600114612d1757600092612d0c575b50508160011b916000199060031b1c19161760058201555b60c08201518051906001600160401b038211610c9c57819061295b82612952600687015461251e565b60068701612694565b602090601f8311600114612c9a57600092612c8f575b50508160011b916000199060031b1c19161760068201555b60e08201518051906001600160401b038211610c9c5781906129b28261131f600787015461251e565b602090601f8311600114612c1d57600092612c12575b50508160011b916000199060031b1c19161760078201555b61010082015180516001600160401b038111610c9c576008830191612a0f82612a09855461251e565b85612694565b602090601f8311600114612ba3579180600a94926101409694600092612b98575b50508160011b916000199060031b1c19161790555b6009810160018060a01b036101208601511660018060a01b0319825416179055019101518051906001600160401b038211610c9c57612a8882612a09855461251e565b602090601f8311600114612b0a579180612afa94927f90b328f02ed250ff4bf17cafcbd924782f15c92b3a87a4082e92ae216e1822c29694600092612aff575b50508160011b916000199060031b1c19161790555b6040519182916020835260018060a01b03169560208301906125fe565b0390a3565b015190503880612ac8565b90601f198316918460005260206000209260005b818110612b8057509260019285927f90b328f02ed250ff4bf17cafcbd924782f15c92b3a87a4082e92ae216e1822c29896612afa989610612b67575b505050811b019055612add565b015160001960f88460031b161c19169055388080612b5a565b92936020600181928786015181550195019301612b1e565b015190503880612a30565b90601f198316918460005260206000209260005b818110612bfa57509260019285926101409896600a989610612be1575b505050811b019055612a45565b015160001960f88460031b161c19169055388080612bd4565b92936020600181928786015181550195019301612bb7565b0151905038806129c8565b9250600784016000526020600020906000935b601f1984168510612c74576001945083601f19811610612c5b575b505050811b0160078201556129e0565b015160001960f88460031b161c19169055388080612c4b565b81810151835560209485019460019093019290910190612c30565b015190503880612971565b9250600684016000526020600020906000935b601f1984168510612cf1576001945083601f19811610612cd8575b505050811b016006820155612989565b015160001960f88460031b161c19169055388080612cc8565b81810151835560209485019460019093019290910190612cad565b015190503880612911565b9250600584016000526020600020906000935b601f1984168510612d6e576001945083601f19811610612d55575b505050811b016005820155612929565b015160001960f88460031b161c19169055388080612d45565b81810151835560209485019460019093019290910190612d2a565b0151905038806128b1565b9250600484016000526020600020906000935b601f1984168510612deb576001945083601f19811610612dd2575b505050811b0160048201556128c9565b015160001960f88460031b161c19169055388080612dc2565b81810151835560209485019460019093019290910190612da7565b01519050388061285a565b9250600384016000526020600020906000935b601f1984168510612e68576001945083601f19811610612e4f575b505050811b016003820155612872565b015160001960f88460031b161c19169055388080612e3f565b81810151835560209485019460019093019290910190612e24565b0151905038806127fa565b9250600284016000526020600020906000935b601f1984168510612ee5576001945083601f19811610612ecc575b505050811b016002820155612812565b015160001960f88460031b161c19169055388080612ebc565b81810151835560209485019460019093019290910190612ea1565b01519050388061279a565b9250600184016000526020600020906000935b601f1984168510612f62576001945083601f19811610612f49575b505050811b0160018201556127b2565b015160001960f88460031b161c19169055388080612f39565b81810151835560209485019460019093019290910190612f1e565b15612f8457565b60405162461bcd60e51b815260206004820152602260248201527f596f7520617265206e6f7420746865206f776e6572206f662074686973206c616044820152611b9960f21b6064820152608490fd5b60405190612fe182612457565b60088252673a3930b739b332b960c11b6020830152565b6001600160401b038111610c9c5760051b60200190565b9060405161301c8161243b565b6101406130cd600a83958054855261303660018201612558565b602086015261304760028201612558565b604086015261305860038201612558565b606086015261306960048201612558565b608086015261307a60058201612558565b60a086015261308b60068201612558565b60c086015261309c60078201612558565b60e08601526130ad60088201612558565b61010086015260098101546001600160a01b031661012086015201612558565b910152565b600019811461162a5760010190565b908082146131b5576130f3815461251e565b906001600160401b038211610c9c578190613112826109f5865461251e565b600090601f83116001146131495760009261313e575b50508160011b916000199060031b1c1916179055565b015490503880613128565b81526020808220858352818320935090601f1985169083905b82821061319c575050908460019594939210613183575b505050811b019055565b015460001960f88460031b161c19169055388080613179565b8495819295850154815560018091019601940190613162565b5050565b6131c3815461251e565b90816131cd575050565b81601f600093116001146131df575055565b9080839182526131fe601f60208420940160051c84016001850161267d565b5555565b80518210156125085760209160051b01019056fea26469706673582212205803bb669d1bbec5d30360c76c5042aeb8d891f0fab925afddfd78c81a8d57e564736f6c63430008130033",
  "linkReferences": {},
  "deployedLinkReferences": {}
}