{
  "_format": "hh-sol-artifact-1",
  "contractName": "LandRegistration",
  "sourceName": "contracts/LandRegistration.sol",
  "abi": [
    {
      "anonymous": false,
      "inputs": [
        {
          "indexed": true,
          "internalType": "uint256",
          "name": "landId",
          "type": "uint256"
        },
        {
          "indexed": true,
          "internalType": "address",
          "name": "owner",
          "type": "address"
        }
      ],
      "name": "LandRegistered",
      "type": "event"
    },
    {
      "anonymous": false,
      "inputs": [
        {
          "indexed": true,
          "internalType": "uint256",
          "name": "landId",
          "type": "uint256"
        },
        {
          "indexed": true,
          "internalType": "address",
          "name": "from",
          "type": "address"
        },
        {
          "indexed": true,
          "internalType": "address",
          "name": "to",
          "type": "address"
        }
      ],
      "name": "LandTransferred",
      "type": "event"
    },
    {
      "anonymous": false,
      "inputs": [
        {
          "indexed": true,
          "internalType": "uint256",
          "name": "landId",
          "type": "uint256"
        },
        {
          "indexed": false,
          "internalType": "string",
          "name": "requestType",
          "type": "string"
        },
        {
          "indexed": true,
          "internalType": "address",
          "name": "requester",
          "type": "address"
        }
      ],
      "name": "RequestAdded",
      "type": "event"
    },
    {
      "anonymous": false,
      "inputs": [
        {
          "indexed": true,
          "internalType": "uint256",
          "name": "landId",
          "type": "uint256"
        },
        {
          "indexed": false,
          "internalType": "string",
          "name": "requestType",
          "type": "string"
        },
        {
          "indexed": true,
          "internalType": "address",
          "name": "verifier",
          "type": "address"
        }
      ],
      "name": "RequestVerified",
      "type": "event"
    },
    {
      "inputs": [],
      "name": "getAllLandDetails",
      "outputs": [
        {
          "components": [
            {
              "internalType": "uint256",
              "name": "Land_id",
              "type": "uint256"
            },
            {
              "internalType": "string",
              "name": "fullName",
              "type": "string"
            },
            {
              "internalType": "string",
              "name": "fatherName",
              "type": "string"
            },
            {
              "internalType": "string",
              "name": "cnic",
              "type": "string"
            },
            {
              "internalType": "string",
              "name": "email",
              "type": "string"
            },
            {
              "internalType": "string",
              "name": "permanentAddress",
              "type": "string"
            },
            {
              "internalType": "string",
              "name": "temporaryAddress",
              "type": "string"
            },
            {
              "internalType": "string",
              "name": "size",
              "type": "string"
            },
            {
              "internalType": "string",
              "name": "location",
              "type": "string"
            },
            {
              "internalType": "address",
              "name": "owner",
              "type": "address"
            },
            {
              "internalType": "bool",
              "name": "isRegister",
              "type": "bool"
            }
          ],
          "internalType": "struct LandRegistration.LandDetails[]",
          "name": "",
          "type": "tuple[]"
        }
      ],
      "stateMutability": "view",
      "type": "function"
    },
    {
      "inputs": [
        {
          "internalType": "uint256",
          "name": "_landId",
          "type": "uint256"
        }
      ],
      "name": "getLandDetails",
      "outputs": [
        {
          "internalType": "string",
          "name": "fullName",
          "type": "string"
        },
        {
          "internalType": "string",
          "name": "email",
          "type": "string"
        },
        {
          "internalType": "string",
          "name": "fatherName",
          "type": "string"
        },
        {
          "internalType": "string",
          "name": "cnic",
          "type": "string"
        },
        {
          "internalType": "string",
          "name": "permanentAddress",
          "type": "string"
        },
        {
          "internalType": "string",
          "name": "temporaryAddress",
          "type": "string"
        },
        {
          "internalType": "string",
          "name": "_size",
          "type": "string"
        },
        {
          "internalType": "string",
          "name": "_location",
          "type": "string"
        },
        {
          "internalType": "address",
          "name": "owner",
          "type": "address"
        }
      ],
      "stateMutability": "view",
      "type": "function"
    },
    {
      "inputs": [
        {
          "internalType": "address",
          "name": "_owner",
          "type": "address"
        }
      ],
      "name": "getOwnedLandDetails",
      "outputs": [
        {
          "components": [
            {
              "internalType": "uint256",
              "name": "Land_id",
              "type": "uint256"
            },
            {
              "internalType": "string",
              "name": "fullName",
              "type": "string"
            },
            {
              "internalType": "string",
              "name": "fatherName",
              "type": "string"
            },
            {
              "internalType": "string",
              "name": "cnic",
              "type": "string"
            },
            {
              "internalType": "string",
              "name": "email",
              "type": "string"
            },
            {
              "internalType": "string",
              "name": "permanentAddress",
              "type": "string"
            },
            {
              "internalType": "string",
              "name": "temporaryAddress",
              "type": "string"
            },
            {
              "internalType": "string",
              "name": "size",
              "type": "string"
            },
            {
              "internalType": "string",
              "name": "location",
              "type": "string"
            },
            {
              "internalType": "address",
              "name": "owner",
              "type": "address"
            },
            {
              "internalType": "bool",
              "name": "isRegister",
              "type": "bool"
            }
          ],
          "internalType": "struct LandRegistration.LandDetails[]",
          "name": "",
          "type": "tuple[]"
        }
      ],
      "stateMutability": "view",
      "type": "function"
    },
    {
      "inputs": [
        {
          "internalType": "uint256",
          "name": "_landId",
          "type": "uint256"
        }
      ],
      "name": "getOwnershipHistory",
      "outputs": [
        {
          "internalType": "address[]",
          "name": "",
          "type": "address[]"
        }
      ],
      "stateMutability": "view",
      "type": "function"
    },
    {
      "inputs": [],
      "name": "getPendingRequests",
      "outputs": [
        {
          "components": [
            {
              "internalType": "uint256",
              "name": "Land_id",
              "type": "uint256"
            },
            {
              "internalType": "string",
              "name": "fullName",
              "type": "string"
            },
            {
              "internalType": "string",
              "name": "fatherName",
              "type": "string"
            },
            {
              "internalType": "string",
              "name": "cnic",
              "type": "string"
            },
            {
              "internalType": "string",
              "name": "email",
              "type": "string"
            },
            {
              "internalType": "string",
              "name": "permanentAddress",
              "type": "string"
            },
            {
              "internalType": "string",
              "name": "temporaryAddress",
              "type": "string"
            },
            {
              "internalType": "string",
              "name": "size",
              "type": "string"
            },
            {
              "internalType": "string",
              "name": "location",
              "type": "string"
            },
            {
              "internalType": "address",
              "name": "owner",
              "type": "address"
            },
            {
              "internalType": "string",
              "name": "requestType",
              "type": "string"
            }
          ],
          "internalType": "struct LandRegistration.PendingRequest[]",
          "name": "",
          "type": "tuple[]"
        }
      ],
      "stateMutability": "view",
      "type": "function"
    },
    {
      "inputs": [],
      "name": "landCounter",
      "outputs": [
        {
          "internalType": "uint256",
          "name": "",
          "type": "uint256"
        }
      ],
      "stateMutability": "view",
      "type": "function"
    },
    {
      "inputs": [
        {
          "internalType": "uint256",
          "name": "",
          "type": "uint256"
        }
      ],
      "name": "landRegistry",
      "outputs": [
        {
          "internalType": "uint256",
          "name": "Land_id",
          "type": "uint256"
        },
        {
          "internalType": "string",
          "name": "fullName",
          "type": "string"
        },
        {
          "internalType": "string",
          "name": "fatherName",
          "type": "string"
        },
        {
          "internalType": "string",
          "name": "cnic",
          "type": "string"
        },
        {
          "internalType": "string",
          "name": "email",
          "type": "string"
        },
        {
          "internalType": "string",
          "name": "permanentAddress",
          "type": "string"
        },
        {
          "internalType": "string",
          "name": "temporaryAddress",
          "type": "string"
        },
        {
          "internalType": "string",
          "name": "size",
          "type": "string"
        },
        {
          "internalType": "string",
          "name": "location",
          "type": "string"
        },
        {
          "internalType": "address",
          "name": "owner",
          "type": "address"
        },
        {
          "internalType": "bool",
          "name": "isRegister",
          "type": "bool"
        }
      ],
      "stateMutability": "view",
      "type": "function"
    },
    {
      "inputs": [
        {
          "internalType": "uint256",
          "name": "",
          "type": "uint256"
        }
      ],
      "name": "ownershipHistory",
      "outputs": [
        {
          "internalType": "uint256",
          "name": "Land_id",
          "type": "uint256"
        }
      ],
      "stateMutability": "view",
      "type": "function"
    },
    {
      "inputs": [
        {
          "internalType": "uint256",
          "name": "",
          "type": "uint256"
        }
      ],
      "name": "pendingRequests",
      "outputs": [
        {
          "internalType": "uint256",
          "name": "Land_id",
          "type": "uint256"
        },
        {
          "internalType": "string",
          "name": "fullName",
          "type": "string"
        },
        {
          "internalType": "string",
          "name": "fatherName",
          "type": "string"
        },
        {
          "internalType": "string",
          "name": "cnic",
          "type": "string"
        },
        {
          "internalType": "string",
          "name": "email",
          "type": "string"
        },
        {
          "internalType": "string",
          "name": "permanentAddress",
          "type": "string"
        },
        {
          "internalType": "string",
          "name": "temporaryAddress",
          "type": "string"
        },
        {
          "internalType": "string",
          "name": "size",
          "type": "string"
        },
        {
          "internalType": "string",
          "name": "location",
          "type": "string"
        },
        {
          "internalType": "address",
          "name": "owner",
          "type": "address"
        },
        {
          "internalType": "string",
          "name": "requestType",
          "type": "string"
        }
      ],
      "stateMutability": "view",
      "type": "function"
    },
    {
      "inputs": [
        {
          "internalType": "string",
          "name": "_fullName",
          "type": "string"
        },
        {
          "internalType": "uint256",
          "name": "_Land_id",
          "type": "uint256"
        },
        {
          "internalType": "string",
          "name": "_size",
          "type": "string"
        },
        {
          "internalType": "string",
          "name": "_location",
          "type": "string"
        },
        {
          "internalType": "string",
          "name": "_fatherName",
          "type": "string"
        },
        {
          "internalType": "string",
          "name": "_email",
          "type": "string"
        },
        {
          "internalType": "string",
          "name": "_cnic",
          "type": "string"
        },
        {
          "internalType": "string",
          "name": "_permanentAddress",
          "type": "string"
        },
        {
          "internalType": "string",
          "name": "_temporaryAddress",
          "type": "string"
        }
      ],
      "name": "registerLand",
      "outputs": [],
      "stateMutability": "nonpayable",
      "type": "function"
    },
    {
      "inputs": [
        {
          "internalType": "uint256",
          "name": "",
          "type": "uint256"
        }
      ],
      "name": "registeredLandIds",
      "outputs": [
        {
          "internalType": "uint256",
          "name": "",
          "type": "uint256"
        }
      ],
      "stateMutability": "view",
      "type": "function"
    },
    {
      "inputs": [
        {
          "internalType": "uint256",
          "name": "_landId",
          "type": "uint256"
        },
        {
          "internalType": "address",
          "name": "_recipient",
          "type": "address"
        },
        {
          "internalType": "string",
          "name": "_recipientName",
          "type": "string"
        },
        {
          "internalType": "string",
          "name": "_recipientCnic",
          "type": "string"
        },
        {
          "internalType": "string",
          "name": "_recipientfatherName",
          "type": "string"
        },
        {
          "internalType": "string",
          "name": "_currentAddress",
          "type": "string"
        },
        {
          "internalType": "string",
          "name": "_permanentAddress",
          "type": "string"
        },
        {
          "internalType": "string",
          "name": "_email",
          "type": "string"
        }
      ],
      "name": "transferLand",
      "outputs": [],
      "stateMutability": "nonpayable",
      "type": "function"
    },
    {
      "inputs": [
        {
          "internalType": "uint256",
          "name": "_landId",
          "type": "uint256"
        },
        {
          "internalType": "string",
          "name": "_fullName",
          "type": "string"
        },
        {
          "internalType": "string",
          "name": "_fatherName",
          "type": "string"
        },
        {
          "internalType": "string",
          "name": "_cnic",
          "type": "string"
        },
        {
          "internalType": "string",
          "name": "_permanentAddress",
          "type": "string"
        },
        {
          "internalType": "string",
          "name": "_size",
          "type": "string"
        },
        {
          "internalType": "string",
          "name": "_location",
          "type": "string"
        },
        {
          "internalType": "string",
          "name": "_temporaryAddress",
          "type": "string"
        }
      ],
      "name": "updateLandDetails",
      "outputs": [],
      "stateMutability": "nonpayable",
      "type": "function"
    },
    {
      "inputs": [
        {
          "internalType": "uint256",
          "name": "_index",
          "type": "uint256"
        }
      ],
      "name": "verifyRequest",
      "outputs": [],
      "stateMutability": "nonpayable",
      "type": "function"
    }
  ],
  "bytecode": "0x6080806040523461001657613598908161001c8239f35b600080fdfe6080604052600436101561001257600080fd5b60003560e01c806309c05b0e1461244a57806319159f201461241e5780633c652a9a146122c45780634abac37b146121695780637ae6da9b1461108d5780637ce411f9146109b857806380a1f712146107f95780639e29ce18146107db578063a3695b1814610695578063a6ac704e1461053a578063da5f55e914610502578063f1dbaccb1461044e578063f47d31dc146102555763fe0cb7dc146100b657600080fd5b346102505760203660031901126102505760043560005260006020526040600020604051906100e4826125cf565b805482526100f4600182016126d6565b6020830190815290610108600282016126d6565b604084019081529261011c600383016126d6565b6060820190815261012f600484016126d6565b6080830190815294610143600585016126d6565b60a08401908152610156600686016126d6565b60c08501908152610169600787016126d6565b60e086019081529161017d600888016126d6565b946101009786898901526009015498600160a01b600190038a16976101209a898c83015260a01c60ff16151590610140015251995194519051915192519351946040519a8a8c9b8c528b016101d19161277c565b8a810360208c01526101e29161277c565b89810360408b01526101f39161277c565b88810360608a01526102049161277c565b87810360808901526102159161277c565b86810360a08801526102269161277c565b85810360c08701526102379161277c565b84810360e08601526102489161277c565b918301520390f35b600080fd5b3461025057602080600319360112610250576004356001600160a01b038181169291839003610250576003805492906000805b8581106103e85750610299906134b4565b9460009260005b8681106102b957604051806102b58a826127bc565b0390f35b6102c2816128f0565b905490851b1c60005260008252604060002086600982015460a09260ff82851c16938480956103dd575b610304575b50505050506102ff90613384565b6102a0565b9288926103a260086103d297946102ff999d97610354604051986103278a6125cf565b83548a528d610338600186016126d6565b908b0152610348600285016126d6565b60408b015283016126d6565b6060890152610365600483016126d6565b6080890152610376600583016126d6565b90880152610386600682016126d6565b60c0880152610397600782016126d6565b60e0880152016126d6565b6101008501521661012083015215156101408201526103c1828c61354e565b526103cc818b61354e565b50613384565b9490868a80806102f1565b5087848416146102ec565b6103f1816128f0565b905490841b1c60005260008452600960406000200154878660ff8360a01c169283610442575b50505061042d575b61042890613384565b610288565b9061043a61042891613384565b91905061041f565b1614905087868a610417565b346102505760208060031936011261025057600435600052600190818152816040600020019160405191828185549182815201908195600052826000209060005b8181106104e657505050836104a5910384612606565b60405192818401908285525180915260408401949160005b8281106104ca5785870386f35b83516001600160a01b03168752958101959281019284016104bd565b82546001600160a01b031684529284019291850191850161048f565b34610250576020366003190112610250576004356003548110156102505761052b6020916128f0565b90549060031b1c604051908152f35b3461025057600036600319011261025057600261055781546134b4565b600380549192600090815b84811061057757604051806102b588826127bc565b610580816128f0565b905490851b1c6000526020600081526040600020600981015460a09160ff82841c1692836105bc575b50505050506105b790613384565b610562565b9161065860086105b79799959361068a9795604051966105db886125cf565b825488526105eb600184016126d6565b908801526105fa8b83016126d6565b604088015261060a8d83016126d6565b606088015261061b600483016126d6565b608088015261062c600583016126d6565b9087015261063c600682016126d6565b60c087015261064d600782016126d6565b60e0870152016126d6565b6101008401526001600160a01b0316610120830152151561014082015261067f828a61354e565b526103cc818961354e565b9290878080806105a9565b3461025057602036600319011261025057600435600052600060205260406000208054600182016106c5906126d6565b916106d2600282016126d6565b906106df600382016126d6565b6106eb600483016126d6565b6106f7600584016126d6565b610703600685016126d6565b91610710600786016126d6565b9361071d600887016126d6565b956009015496604051998a998a526101608060208c01528a0161073f9161277c565b89810360408b01526107509161277c565b88810360608a01526107619161277c565b87810360808901526107729161277c565b86810360a08801526107839161277c565b85810360c08701526107949161277c565b84810360e08601526107a59161277c565b8381036101008501526107b79161277c565b90600160a01b60019003811661012084015260a01c60ff1615156101408301520390f35b34610250576000366003190112610250576020600254604051908152f35b3461025057600036600319011261025057600454610816816132aa565b906108246040519283612606565b80825260046000908152602091828401917f8a35acfbc15ff81a39ae7d344fd709f28e8600b4aa8c65c6b64bfe7fe36bd19b835b8383106109955750505050604051918083019381845251809452604083019360408160051b85010192916000955b8287106108935785850386f35b909192938280610985600193603f198a820301865288518051825261095f61094b6109396109266109136109006108ed6108db8b8901518c61016080918d01528b019061277c565b60408901518a820360408c015261277c565b606080890151908a8303908b015261277c565b60808088015190898303908a015261277c565b60a080870151908883039089015261277c565b60c080860151908783039088015261277c565b60e084015185820360e087015261277c565b61010080840151908583039086015261277c565b91610120878060a01b03818401511690820152610140809201519181840391015261277c565b9601920196019592919092610886565b600b866001926109a7859a999a6132c1565b815201920192019190959495610858565b3461025057610100366003190112610250576004356024356001600160401b038111610250576109ec903690600401612627565b906044356001600160401b03811161025057610a0c903690600401612627565b916064356001600160401b03811161025057610a2c903690600401612627565b6084356001600160401b03811161025057610a4b903690600401612627565b60a4356001600160401b03811161025057610a6a903690600401612627565b9160c4356001600160401b03811161025057610a8a903690600401612627565b9560e4356001600160401b03811161025057610aaa903690600401612627565b95806000526000602052610acf60018060a01b0360096040600020015416331461322f565b600052600060205260406000209480516001600160401b038111610da857806001880192610b0782610b01865461269c565b86612946565b602090601f831160011461102157600092611016575b50508160011b916000199060031b1c19161790555b8051906001600160401b038211610da8578190610b5f82610b5660028a015461269c565b60028a01612946565b602090601f8311600114610fa957600092610f9e575b50508160011b916000199060031b1c19161760028501555b8051906001600160401b038211610da8578190610bba82610bb1600389015461269c565b60038901612946565b602090601f8311600114610f2c57600092610f21575b50508160011b916000199060031b1c19161760038401555b8051906001600160401b038211610da8578190610c1582610c0c600588015461269c565b60058801612946565b602090601f8311600114610eaf57600092610ea4575b50508160011b916000199060031b1c19161760058301555b805160078301916001600160401b038211610da8578190610c6882610b01865461269c565b602090601f8311600114610e3e57600092610e33575b50508160011b916000199060031b1c19161790555b6008810183516001600160401b038111610da857610cbb81610cb5845461269c565b84612946565b6020601f8211600114610dc957819060069596600092610dbe575b50508160011b916000199060031b1c19161790555b0181516001600160401b038111610da857610d0a81610cb5845461269c565b602092601f8211600114610d475792819293600092610d3c575b5050600019600383901b1c191660019190911b179055005b015190508380610d24565b601f198216938360005260206000209160005b868110610d905750836001959610610d77575b505050811b019055005b015160001960f88460031b161c19169055838080610d6d565b91926020600181928685015181550194019201610d5a565b634e487b7160e01b600052604160045260246000fd5b015190508680610cd6565b601f198216958360005260206000209660005b818110610e1b5750916006969791846001959410610e02575b505050811b019055610ceb565b015160001960f88460031b161c19169055868080610df5565b83830151895560019098019760209384019301610ddc565b015190508680610c7e565b6000858152602081209350601f198516905b818110610e8c5750908460019594939210610e73575b505050811b019055610c93565b015160001960f88460031b161c19169055868080610e66565b92936020600181928786015181550195019301610e50565b015190508680610c2b565b9250600585016000526020600020906000935b601f1984168510610f06576001945083601f19811610610eed575b505050811b016005830155610c43565b015160001960f88460031b161c19169055868080610edd565b81810151835560209485019460019093019290910190610ec2565b015190508780610bd0565b9250600386016000526020600020906000935b601f1984168510610f83576001945083601f19811610610f6a575b505050811b016003840155610be8565b015160001960f88460031b161c19169055878080610f5a565b81810151835560209485019460019093019290910190610f3f565b015190508880610b75565b600288016000908152602081209350601f198516905b818110610ffe5750908460019594939210610fe5575b505050811b016002850155610b8d565b015160001960f88460031b161c19169055888080610fd5565b92936020600181928786015181550195019301610fbf565b015190508a80610b1d565b9250836000526020600020906000935b601f1984168510611072576001945083601f19811610611059575b505050811b019055610b32565b015160001960f88460031b161c191690558a808061104c565b81810151835560209485019460019093019290910190611031565b34610250576020366003190112610250576110b26110ac60043561267d565b506132c1565b610140810151602081519101206110c761290b565b6020815191012014600014611b595760e081015190610100810151602082015190825193608084015160408501519060608601519060a08701519160c08801519360018060a01b036101208a015116976040519a6111248c6125cf565b8b5260208b015260408a01526060890152608088015260a087015260c086015260e08501526101008401526101208301526001610140830152611168600254613384565b6002558051600354600160401b811015610da85780600161118c92016003556128f0565b90918254908260031b1b916000199060031b1b1916179055805160005260006020526040600020908251825560208301519283516001600160401b038111610da8576111e8816111df600187015461269c565b60018701612946565b6020601f8211600114611aea578192939495600092611adf575b50508160011b916000199060031b1c19161760018401555b60408101519283516001600160401b038111610da85761124a81611241600285015461269c565b60028501612946565b6020601f8211600114611a70578192939495600092611a65575b50508160011b916000199060031b1c19161760028201555b60608201519283516001600160401b038111610da8576112ac816112a3600386015461269c565b60038601612946565b6020601f82116001146119f65781929394956000926119eb575b50508160011b916000199060031b1c19161760038301555b60808301519283516001600160401b038111610da85761130e81611305600487015461269c565b60048701612946565b6020601f821160011461197c578192939495600092611971575b50508160011b916000199060031b1c19161760048401555b60a08101519283516001600160401b038111610da85761137081611367600585015461269c565b60058501612946565b6020601f82116001146119025781929394956000926118f7575b50508160011b916000199060031b1c19161760058201555b60c08201519283516001600160401b038111610da8576113d2816113c9600686015461269c565b60068601612946565b6020601f821160011461188857819293949560009261187d575b50508160011b916000199060031b1c19161760068301555b60e08301519283516001600160401b038111610da8576114348161142b600787015461269c565b60078701612946565b6020601f821160011461180e578192939495600092611803575b50508160011b916000199060031b1c19161760078401555b6101008101519283516001600160401b038111610da8576114978161148e600885015461269c565b60088501612946565b6020601f82116001146117905781906009949596600092611785575b50508160011b916000199060031b1c19161760088201555b61012080840151929091018054610140909401516001600160a81b03199094166001600160a01b039384161793151560a01b60ff60a01b169390931790925582519183015116907fcb4990052f95f6057496d19524f6c3163f50af9f33f2c15b092928e03414323e600080a35b600454806004351015611750576000199080820190811161173a5761155c9061267d565b5061156860043561267d565b61164d57818103611679575b5050600454801561166357016115898161267d565b61164d57600a81600061160493556115a36001820161346b565b6115af6002820161346b565b6115bb6003820161346b565b6115c76004820161346b565b6115d36005820161346b565b6115df6006820161346b565b6115eb6007820161346b565b6115f76008820161346b565b600060098201550161346b565b6004556101408151910151907fbf3747916bbe426e0fd532a54a21bcf371c5ca55c33adbfd8b43756bb1bea93860405160208152806116483395602083019061277c565b0390a3005b634e487b7160e01b600052600060045260246000fd5b634e487b7160e01b600052603160045260246000fd5b600a8083611733945484556116946001820160018601613393565b6116a46002820160028601613393565b6116b46003820160038601613393565b6116c46004820160048601613393565b6116d46005820160058601613393565b6116e46006820160068601613393565b6116f46007820160078601613393565b6117046008820160088601613393565b60098181015490850180546001600160a01b0319166001600160a01b0392909216919091179055019101613393565b8280611574565b634e487b7160e01b600052601160045260246000fd5b60405162461bcd60e51b815260206004820152600d60248201526c092dcecc2d8d2c840d2dcc8caf609b1b6044820152606490fd5b0151905086806114b3565b6008830160005260206000209560005b601f19841681106117eb57509582916009959697600194601f198116106117d2575b505050811b0160088201556114cb565b015160001960f88460031b161c191690558680806117c2565b828201518855600190970196602092830192016117a0565b01519050858061144e565b6007850160005260206000209060005b601f1984168110611865575060019394959683601f1981161061184c575b505050811b016007840155611466565b015160001960f88460031b161c1916905585808061183c565b9091602060018192858b01518155019301910161181e565b0151905085806113ec565b6006840160005260206000209060005b601f19841681106118df575060019394959683601f198116106118c6575b505050811b016006830155611404565b015160001960f88460031b161c191690558580806118b6565b9091602060018192858b015181550193019101611898565b01519050858061138a565b6005830160005260206000209060005b601f1984168110611959575060019394959683601f19811610611940575b505050811b0160058201556113a2565b015160001960f88460031b161c19169055858080611930565b9091602060018192858b015181550193019101611912565b015190508580611328565b6004850160005260206000209060005b601f19841681106119d3575060019394959683601f198116106119ba575b505050811b016004840155611340565b015160001960f88460031b161c191690558580806119aa565b9091602060018192858b01518155019301910161198c565b0151905085806112c6565b6003840160005260206000209060005b601f1984168110611a4d575060019394959683601f19811610611a34575b505050811b0160038301556112de565b015160001960f88460031b161c19169055858080611a24565b9091602060018192858b015181550193019101611a06565b015190508580611264565b6002830160005260206000209060005b601f1984168110611ac7575060019394959683601f19811610611aae575b505050811b01600282015561127c565b015160001960f88460031b161c19169055858080611a9e565b9091602060018192858b015181550193019101611a80565b015190508580611202565b6001850160005260206000209060005b601f1984168110611b41575060019394959683601f19811610611b28575b505050811b01600184015561121a565b015160001960f88460031b161c19169055858080611b18565b9091602060018192858b015181550193019101611afa565b61014081015160208151910120611b6e613286565b6020815191012003611538578051600052600060205260018060a01b0360096040600020015416815160005260016020526001604060002001805490600160401b821015610da857600182018082558210156121535760005260206000200160018060a01b031990828282541617905560018060a01b0361012084015116835160005260006020526009604060002001918254161790556020820151918051600052600160406000200183516001600160401b038111610da857611c3681610cb5845461269c565b6020601f82116001146120ea5781929394956000926120df575b50508160011b916000199060031b1c19161790555b60608101519181516000526000602052600360406000200183516001600160401b038111610da857611c9b81610cb5845461269c565b6020601f821160011461207657819293949560009261206b575b50508160011b916000199060031b1c19161790555b60808201519180516000526000602052600460406000200183516001600160401b038111610da857611d0081610cb5845461269c565b6020601f8211600114612002578192939495600092611ff7575b50508160011b916000199060031b1c19161790555b60408101519181516000526000602052600260406000200183516001600160401b038111610da857611d6581610cb5845461269c565b6020601f8211600114611f8e578192939495600092611f83575b50508160011b916000199060031b1c19161790555b60c08201519180516000526000602052600660406000200183516001600160401b038111610da857611dca81610cb5845461269c565b6020601f8211600114611f1a578192939495600092611f0f575b50508160011b916000199060031b1c19161790555b60a08101519181516000526000602052600560406000200183516001600160401b038111610da857611e2f81610cb5845461269c565b6020601f8211600114611ea6578192939495600092611e9b575b50508160011b916000199060031b1c19161790555b81516101208301516001600160a01b031691907f1080b2f211753e5090f26ef7ffdc6bb3e66a125c7290200d10b502160bb1f566600080a4611538565b015190508580611e49565b8260005260206000209060005b601f1984168110611ef7575060019394959683601f19811610611ede575b505050811b019055611e5e565b015160001960f88460031b161c19169055858080611ed1565b9091602060018192858b015181550193019101611eb3565b015190508580611de4565b8260005260206000209060005b601f1984168110611f6b575060019394959683601f19811610611f52575b505050811b019055611df9565b015160001960f88460031b161c19169055858080611f45565b9091602060018192858b015181550193019101611f27565b015190508580611d7f565b8260005260206000209060005b601f1984168110611fdf575060019394959683601f19811610611fc6575b505050811b019055611d94565b015160001960f88460031b161c19169055858080611fb9565b9091602060018192858b015181550193019101611f9b565b015190508580611d1a565b8260005260206000209060005b601f1984168110612053575060019394959683601f1981161061203a575b505050811b019055611d2f565b015160001960f88460031b161c1916905585808061202d565b9091602060018192858b01518155019301910161200f565b015190508580611cb5565b8260005260206000209060005b601f19841681106120c7575060019394959683601f198116106120ae575b505050811b019055611cca565b015160001960f88460031b161c191690558580806120a1565b9091602060018192858b015181550193019101612083565b015190508580611c50565b8260005260206000209060005b601f198416811061213b575060019394959683601f19811610612122575b505050811b019055611c65565b015160001960f88460031b161c19169055858080612115565b9091602060018192858b0151815501930191016120f7565b634e487b7160e01b600052603260045260246000fd5b3461025057610120366003190112610250576001600160401b036004358181116102505761219b903690600401612627565b602435604435838111610250576121b6903690600401612627565b606435848111610250576121ce903690600401612627565b90608435858111610250576121e7903690600401612627565b9460a43581811161025057612200903690600401612627565b9060c43581811161025057612219903690600401612627565b9160e43582811161025057612232903690600401612627565b91610104359081116102505761224c903690600401612627565b9286600052600060205260ff60096040600020015460a01c1661227f5761227d9861227561290b565b98339861298b565b005b60405162461bcd60e51b815260206004820152601a60248201527f4c616e6420697320416c726561647920526567697374657265640000000000006044820152606490fd5b3461025057602036600319011261025057600435600454811015610250576122eb9061267d565b5080546122fa600183016126d6565b91612307600282016126d6565b90612314600382016126d6565b612320600483016126d6565b61232c600584016126d6565b612338600685016126d6565b90612345600786016126d6565b92612352600887016126d6565b60098701546001600160a01b03169690959061237090600a016126d6565b976040519a8b9a8b526101608060208d01528b0161238d9161277c565b8a810360408c015261239e9161277c565b89810360608b01526123af9161277c565b88810360808a01526123c09161277c565b87810360a08901526123d19161277c565b86810360c08801526123e29161277c565b85810360e08701526123f39161277c565b8481036101008601526124059161277c565b906101208401528281036101408401526102b59161277c565b346102505760203660031901126102505760043560005260016020526020604060002054604051908152f35b3461025057610100366003190112610250576001600160a01b036004356024358281168103610250576001600160401b0360443581811161025057612493903690600401612627565b90606435818111610250576124ac903690600401612627565b94608435828111610250576124c5903690600401612627565b9160a435818111610250576124de903690600401612627565b9160c435828111610250576124f7903690600401612627565b9160e4359081116102505761251361252e913690600401612627565b9188600052600060205260096040600020015416331461322f565b86600052600060205260ff60096040600020015460a01c16156125915761227d9787600052600060205261256860076040600020016126d6565b9488600052600060205261258260086040600020016126d6565b9661258b613286565b9961298b565b60405162461bcd60e51b815260206004820152601660248201527513185b99081a5cc81b9bdd081c9959da5cdd195c995960521b6044820152606490fd5b61016081019081106001600160401b03821117610da857604052565b604081019081106001600160401b03821117610da857604052565b90601f801991011681019081106001600160401b03821117610da857604052565b81601f82011215610250578035906001600160401b038211610da8576040519261265b601f8401601f191660200185612606565b8284526020838301011161025057816000926020809301838601378301015290565b600454811015612153576004600052600b602060002091020190600090565b90600182811c921680156126cc575b60208310146126b657565b634e487b7160e01b600052602260045260246000fd5b91607f16916126ab565b90604051918260008254926126ea8461269c565b9081845260019485811690816000146127595750600114612716575b505061271492500383612606565b565b9093915060005260209081600020936000915b81831061274157505061271493508201013880612706565b85548884018501529485019487945091830191612729565b91505061271494506020925060ff191682840152151560051b8201013880612706565b919082519283825260005b8481106127a8575050826000602080949584010152601f8019910116010190565b602081830181015184830182015201612787565b602080820190808352835180925260409283810182858560051b8401019601946000925b8584106127f1575050505050505090565b909192939495968580600192603f198582030187528a5190815181526128c06128ac61289961288661287361286061284d8d61283b8b8b01518c61016080918d01528b019061277c565b90808b0151908a8303908b015261277c565b6060808a015190898303908a015261277c565b608080890151908883039089015261277c565b60a080880151908783039088015261277c565b60c080870151908683039087015261277c565b60e080860151908583039086015261277c565b61010080850151908483039085015261277c565b91610120868060a01b038183015116908301526101408091015115159101529901940194019295949391906127e0565b60035481101561215357600360005260206000200190600090565b60405190612918826125eb565b60088252673932b3b4b9ba32b960c11b6020830152565b81811061293a575050565b6000815560010161292f565b9190601f811161295557505050565b612714926000526020600020906020601f840160051c83019310612981575b601f0160051c019061292f565b9091508190612974565b989794919693909592604051976129a1896125cf565b8a89526020890197885260408901526060880152608087015260a086015260c085015260e08401526101008301526001600160a01b0383166101208301526101408201859052600454600160401b811015610da857806001612a06920160045561267d565b91909161164d5782518255518051906001600160401b038211610da8578190612a36826111df600187015461269c565b602090601f83116001146131bd576000926131b2575b50508160011b916000199060031b1c19161760018201555b60408201518051906001600160401b038211610da8578190612a9682612a8d600287015461269c565b60028701612946565b602090601f831160011461314057600092613135575b50508160011b916000199060031b1c19161760028201555b60608201518051906001600160401b038211610da8578190612af682612aed600387015461269c565b60038701612946565b602090601f83116001146130c3576000926130b8575b50508160011b916000199060031b1c19161760038201555b60808201518051906001600160401b038211610da8578190612b4d82611305600487015461269c565b602090601f83116001146130465760009261303b575b50508160011b916000199060031b1c19161760048201555b60a08201518051906001600160401b038211610da8578190612bad82612ba4600587015461269c565b60058701612946565b602090601f8311600114612fc957600092612fbe575b50508160011b916000199060031b1c19161760058201555b60c08201518051906001600160401b038211610da8578190612c0d82612c04600687015461269c565b60068701612946565b602090601f8311600114612f4c57600092612f41575b50508160011b916000199060031b1c19161760068201555b60e08201518051906001600160401b038211610da8578190612c648261142b600787015461269c565b602090601f8311600114612ecf57600092612ec4575b50508160011b916000199060031b1c19161760078201555b61010082015180516001600160401b038111610da8576008830191612cc182612cbb855461269c565b85612946565b602090601f8311600114612e55579180600a94926101409694600092612e4a575b50508160011b916000199060031b1c19161790555b6009810160018060a01b036101208601511660018060a01b0319825416179055019101518051906001600160401b038211610da857612d3a82612cbb855461269c565b602090601f8311600114612dbc579180612dac94927f90b328f02ed250ff4bf17cafcbd924782f15c92b3a87a4082e92ae216e1822c29694600092612db1575b50508160011b916000199060031b1c19161790555b6040519182916020835260018060a01b031695602083019061277c565b0390a3565b015190503880612d7a565b90601f198316918460005260206000209260005b818110612e3257509260019285927f90b328f02ed250ff4bf17cafcbd924782f15c92b3a87a4082e92ae216e1822c29896612dac989610612e19575b505050811b019055612d8f565b015160001960f88460031b161c19169055388080612e0c565b92936020600181928786015181550195019301612dd0565b015190503880612ce2565b90601f198316918460005260206000209260005b818110612eac57509260019285926101409896600a989610612e93575b505050811b019055612cf7565b015160001960f88460031b161c19169055388080612e86565b92936020600181928786015181550195019301612e69565b015190503880612c7a565b9250600784016000526020600020906000935b601f1984168510612f26576001945083601f19811610612f0d575b505050811b016007820155612c92565b015160001960f88460031b161c19169055388080612efd565b81810151835560209485019460019093019290910190612ee2565b015190503880612c23565b9250600684016000526020600020906000935b601f1984168510612fa3576001945083601f19811610612f8a575b505050811b016006820155612c3b565b015160001960f88460031b161c19169055388080612f7a565b81810151835560209485019460019093019290910190612f5f565b015190503880612bc3565b9250600584016000526020600020906000935b601f1984168510613020576001945083601f19811610613007575b505050811b016005820155612bdb565b015160001960f88460031b161c19169055388080612ff7565b81810151835560209485019460019093019290910190612fdc565b015190503880612b63565b9250600484016000526020600020906000935b601f198416851061309d576001945083601f19811610613084575b505050811b016004820155612b7b565b015160001960f88460031b161c19169055388080613074565b81810151835560209485019460019093019290910190613059565b015190503880612b0c565b9250600384016000526020600020906000935b601f198416851061311a576001945083601f19811610613101575b505050811b016003820155612b24565b015160001960f88460031b161c191690553880806130f1565b818101518355602094850194600190930192909101906130d6565b015190503880612aac565b9250600284016000526020600020906000935b601f1984168510613197576001945083601f1981161061317e575b505050811b016002820155612ac4565b015160001960f88460031b161c1916905538808061316e565b81810151835560209485019460019093019290910190613153565b015190503880612a4c565b9250600184016000526020600020906000935b601f1984168510613214576001945083601f198116106131fb575b505050811b016001820155612a64565b015160001960f88460031b161c191690553880806131eb565b818101518355602094850194600190930192909101906131d0565b1561323657565b60405162461bcd60e51b815260206004820152602260248201527f596f7520617265206e6f7420746865206f776e6572206f662074686973206c616044820152611b9960f21b6064820152608490fd5b60405190613293826125eb565b60088252673a3930b739b332b960c11b6020830152565b6001600160401b038111610da85760051b60200190565b906040516132ce816125cf565b61014061337f600a8395805485526132e8600182016126d6565b60208601526132f9600282016126d6565b604086015261330a600382016126d6565b606086015261331b600482016126d6565b608086015261332c600582016126d6565b60a086015261333d600682016126d6565b60c086015261334e600782016126d6565b60e086015261335f600882016126d6565b61010086015260098101546001600160a01b0316610120860152016126d6565b910152565b600019811461173a5760010190565b90808214613467576133a5815461269c565b906001600160401b038211610da85781906133c482610b01865461269c565b600090601f83116001146133fb576000926133f0575b50508160011b916000199060031b1c1916179055565b0154905038806133da565b81526020808220858352818320935090601f1985169083905b82821061344e575050908460019594939210613435575b505050811b019055565b015460001960f88460031b161c1916905538808061342b565b8495819295850154815560018091019601940190613414565b5050565b613475815461269c565b908161347f575050565b81601f60009311600114613491575055565b9080839182526134b0601f60208420940160051c84016001850161292f565b5555565b906134be826132aa565b6040906134cd82519182612606565b83815280936134de601f19916132aa565b0191600091825b8481106134f3575050505050565b6020908351613501816125cf565b858152606083908082840152808784015280808401528060808401528060a08401528060c08401528060e084015261010083015286610120830152866101408301528285010152016134e5565b80518210156121535760209160051b01019056fea26469706673582212209298cd3f0fc7ba86bee24089f5565aa997bb6671389bbd684c584775f689afe264736f6c63430008130033",
  "linkReferences": {},
  "deployedLinkReferences": {}
}