{"contracts/LandRegistration.sol":{"LandRegistration":{"abi":[{"anonymous":false,"inputs":[{"indexed":true,"internalType":"uint256","name":"landId","type":"uint256"},{"indexed":true,"internalType":"address","name":"owner","type":"address"}],"name":"LandRegistered","type":"event"},{"anonymous":false,"inputs":[{"indexed":true,"internalType":"uint256","name":"landId","type":"uint256"},{"indexed":true,"internalType":"address","name":"from","type":"address"},{"indexed":true,"internalType":"address","name":"to","type":"address"}],"name":"LandTransferred","type":"event"},{"anonymous":false,"inputs":[{"indexed":true,"internalType":"uint256","name":"landId","type":"uint256"},{"indexed":false,"internalType":"string","name":"requestType","type":"string"},{"indexed":true,"internalType":"address","name":"requester","type":"address"}],"name":"RequestAdded","type":"event"},{"anonymous":false,"inputs":[{"indexed":true,"internalType":"uint256","name":"landId","type":"uint256"},{"indexed":false,"internalType":"string","name":"requestType","type":"string"},{"indexed":true,"internalType":"address","name":"verifier","type":"address"}],"name":"RequestVerified","type":"event"},{"inputs":[],"name":"getAllLandDetails","outputs":[{"components":[{"internalType":"uint256","name":"Land_id","type":"uint256"},{"internalType":"string","name":"fullName","type":"string"},{"internalType":"string","name":"fatherName","type":"string"},{"internalType":"string","name":"cnic","type":"string"},{"internalType":"string","name":"email","type":"string"},{"internalType":"string","name":"permanentAddress","type":"string"},{"internalType":"string","name":"temporaryAddress","type":"string"},{"internalType":"string","name":"size","type":"string"},{"internalType":"string","name":"location","type":"string"},{"internalType":"address","name":"owner","type":"address"},{"internalType":"bool","name":"isRegister","type":"bool"}],"internalType":"struct LandRegistration.LandDetails[]","name":"","type":"tuple[]"}],"stateMutability":"view","type":"function"},{"inputs":[{"internalType":"uint256","name":"_landId","type":"uint256"}],"name":"getLandDetails","outputs":[{"internalType":"string","name":"fullName","type":"string"},{"internalType":"string","name":"email","type":"string"},{"internalType":"string","name":"fatherName","type":"string"},{"internalType":"string","name":"cnic","type":"string"},{"internalType":"string","name":"permanentAddress","type":"string"},{"internalType":"string","name":"temporaryAddress","type":"string"},{"internalType":"string","name":"_size","type":"string"},{"internalType":"string","name":"_location","type":"string"},{"internalType":"address","name":"owner","type":"address"}],"stateMutability":"view","type":"function"},{"inputs":[{"internalType":"uint256","name":"_landId","type":"uint256"}],"name":"getOwnershipHistory","outputs":[{"internalType":"address[]","name":"","type":"address[]"}],"stateMutability":"view","type":"function"},{"inputs":[],"name":"getPendingRequests","outputs":[{"components":[{"internalType":"uint256","name":"Land_id","type":"uint256"},{"internalType":"string","name":"fullName","type":"string"},{"internalType":"string","name":"fatherName","type":"string"},{"internalType":"string","name":"cnic","type":"string"},{"internalType":"string","name":"email","type":"string"},{"internalType":"string","name":"permanentAddress","type":"string"},{"internalType":"string","name":"temporaryAddress","type":"string"},{"internalType":"string","name":"size","type":"string"},{"internalType":"string","name":"location","type":"string"},{"internalType":"address","name":"owner","type":"address"},{"internalType":"string","name":"requestType","type":"string"}],"internalType":"struct LandRegistration.PendingRequest[]","name":"","type":"tuple[]"}],"stateMutability":"view","type":"function"},{"inputs":[],"name":"landCounter","outputs":[{"internalType":"uint256","name":"","type":"uint256"}],"stateMutability":"view","type":"function"},{"inputs":[{"internalType":"uint256","name":"","type":"uint256"}],"name":"landRegistry","outputs":[{"internalType":"uint256","name":"Land_id","type":"uint256"},{"internalType":"string","name":"fullName","type":"string"},{"internalType":"string","name":"fatherName","type":"string"},{"internalType":"string","name":"cnic","type":"string"},{"internalType":"string","name":"email","type":"string"},{"internalType":"string","name":"permanentAddress","type":"string"},{"internalType":"string","name":"temporaryAddress","type":"string"},{"internalType":"string","name":"size","type":"string"},{"internalType":"string","name":"location","type":"string"},{"internalType":"address","name":"owner","type":"address"},{"internalType":"bool","name":"isRegister","type":"bool"}],"stateMutability":"view","type":"function"},{"inputs":[{"internalType":"uint256","name":"","type":"uint256"}],"name":"ownershipHistory","outputs":[{"internalType":"uint256","name":"Land_id","type":"uint256"}],"stateMutability":"view","type":"function"},{"inputs":[{"internalType":"uint256","name":"","type":"uint256"}],"name":"pendingRequests","outputs":[{"internalType":"uint256","name":"Land_id","type":"uint256"},{"internalType":"string","name":"fullName","type":"string"},{"internalType":"string","name":"fatherName","type":"string"},{"internalType":"string","name":"cnic","type":"string"},{"internalType":"string","name":"email","type":"string"},{"internalType":"string","name":"permanentAddress","type":"string"},{"internalType":"string","name":"temporaryAddress","type":"string"},{"internalType":"string","name":"size","type":"string"},{"internalType":"string","name":"location","type":"string"},{"internalType":"address","name":"owner","type":"address"},{"internalType":"string","name":"requestType","type":"string"}],"stateMutability":"view","type":"function"},{"inputs":[{"internalType":"string","name":"_fullName","type":"string"},{"internalType":"uint256","name":"_Land_id","type":"uint256"},{"internalType":"string","name":"_size","type":"string"},{"internalType":"string","name":"_location","type":"string"},{"internalType":"string","name":"_fatherName","type":"string"},{"internalType":"string","name":"_email","type":"string"},{"internalType":"string","name":"_cnic","type":"string"},{"internalType":"string","name":"_permanentAddress","type":"string"},{"internalType":"string","name":"_temporaryAddress","type":"string"}],"name":"registerLand","outputs":[],"stateMutability":"nonpayable","type":"function"},{"inputs":[{"internalType":"uint256","name":"","type":"uint256"}],"name":"registeredLandIds","outputs":[{"internalType":"uint256","name":"","type":"uint256"}],"stateMutability":"view","type":"function"},{"inputs":[{"internalType":"uint256","name":"_landId","type":"uint256"},{"internalType":"address","name":"_recipient","type":"address"},{"internalType":"string","name":"_recipientName","type":"string"},{"internalType":"string","name":"_recipientCnic","type":"string"},{"internalType":"string","name":"_recipientfatherName","type":"string"},{"internalType":"string","name":"_currentAddress","type":"string"},{"internalType":"string","name":"_permanentAddress","type":"string"},{"internalType":"string","name":"_email","type":"string"}],"name":"transferLand","outputs":[],"stateMutability":"nonpayable","type":"function"},{"inputs":[{"internalType":"uint256","name":"_landId","type":"uint256"},{"internalType":"string","name":"_fullName","type":"string"},{"internalType":"string","name":"_fatherName","type":"string"},{"internalType":"string","name":"_cnic","type":"string"},{"internalType":"string","name":"_permanentAddress","type":"string"},{"internalType":"string","name":"_size","type":"string"},{"internalType":"string","name":"_location","type":"string"},{"internalType":"string","name":"_temporaryAddress","type":"string"}],"name":"updateLandDetails","outputs":[],"stateMutability":"nonpayable","type":"function"},{"inputs":[{"internalType":"uint256","name":"_index","type":"uint256"}],"name":"verifyRequest","outputs":[],"stateMutability":"nonpayable","type":"function"}],"evm":{"bytecode":{"linkReferences":{},"object":"6080806040523461001657613378908161001c8239f35b600080fdfe6080604052600436101561001257600080fd5b60003560e01c806309c05b0e146123f857806319159f20146123cc5780633c652a9a1461226e5780634abac37b146121135780637ae6da9b146110375780637ce411f91461096257806380a1f712146107a35780639e29ce1814610785578063a3695b181461063f578063a6ac704e14610336578063da5f55e9146102fe578063f1dbaccb1461024a5763fe0cb7dc146100ab57600080fd5b346102455760203660031901126102455760043560005260006020526040600020604051906100d98261257d565b805482526100e960018201612684565b60208301908152906100fd60028201612684565b604084019081529261011160038301612684565b6060820190815261012460048401612684565b608083019081529461013860058501612684565b60a0840190815261014b60068601612684565b60c0850190815261015e60078701612684565b60e086019081529161017260088801612684565b946101009786898901526009015498600160a01b600190038a16976101209a898c83015260a01c60ff16151590610140015251995194519051915192519351946040519a8a8c9b8c528b016101c69161272a565b8a810360208c01526101d79161272a565b89810360408b01526101e89161272a565b88810360608a01526101f99161272a565b878103608089015261020a9161272a565b86810360a088015261021b9161272a565b85810360c087015261022c9161272a565b84810360e086015261023d9161272a565b918301520390f35b600080fd5b346102455760208060031936011261024557600435600052600190818152816040600020019160405191828185549182815201908195600052826000209060005b8181106102e257505050836102a19103846125b4565b60405192818401908285525180915260408401949160005b8281106102c65785870386f35b83516001600160a01b03168752958101959281019284016102b9565b82546001600160a01b031684529284019291850191850161028b565b34610245576020366003190112610245576004356003548110156102455761032760209161276a565b90549060031b1c604051908152f35b3461024557600036600319011261024557600280549061035582613124565b9161036360405193846125b4565b808352610372601f1991613124565b0160005b8181106105df5750506003805491600090815b8481106104bb576040805160208082528851818301819052600093600582901b8401810192808c01929185015b8287106103c35785850386f35b909192938280600192603f198982030185528751908151815261048c61047861046661045361044061042d61041a6104088a8a0151610160808d8c01528a019061272a565b60408a015189820360408b015261272a565b6060808a015190898303908a015261272a565b608080890151908883039089015261272a565b60a080880151908783039088015261272a565b60c080870151908683039087015261272a565b60e085015184820360e086015261272a565b61010080850151908483039085015261272a565b91610120868060a01b0381830151169083015261014080910151151591015296019201960195929190926103b6565b6104c48161276a565b905490851b1c6000526020600081526040600020600981015460a09160ff82841c169283610500575b50505050506104fb906131fe565b610389565b9161059c60086104fb979995936105d497956040519661051f8861257d565b8254885261052f60018401612684565b9088015261053e8b8301612684565b604088015261054e8d8301612684565b606088015261055f60048301612684565b608088015261057060058301612684565b9087015261058060068201612684565b60c087015261059160078201612684565b60e087015201612684565b6101008401526001600160a01b031661012083015215156101408201526105c3828a61332e565b526105ce818961332e565b506131fe565b9290878080806104ed565b6020906040516105ee8161257d565b6000815260608390808284015280604084015280808401528060808401528060a08401528060c08401528060e084015261010083015260006101208301526000610140830152828701015201610376565b34610245576020366003190112610245576004356000526000602052604060002080546001820161066f90612684565b9161067c60028201612684565b9061068960038201612684565b61069560048301612684565b6106a160058401612684565b6106ad60068501612684565b916106ba60078601612684565b936106c760088701612684565b956009015496604051998a998a526101608060208c01528a016106e99161272a565b89810360408b01526106fa9161272a565b88810360608a015261070b9161272a565b878103608089015261071c9161272a565b86810360a088015261072d9161272a565b85810360c087015261073e9161272a565b84810360e086015261074f9161272a565b8381036101008501526107619161272a565b90600160a01b60019003811661012084015260a01c60ff1615156101408301520390f35b34610245576000366003190112610245576020600254604051908152f35b34610245576000366003190112610245576004546107c081613124565b906107ce60405192836125b4565b80825260046000908152602091828401917f8a35acfbc15ff81a39ae7d344fd709f28e8600b4aa8c65c6b64bfe7fe36bd19b835b83831061093f5750505050604051918083019381845251809452604083019360408160051b85010192916000955b82871061083d5785850386f35b90919293828061092f600193603f198a82030186528851805182526109096108f56108e36108d06108bd6108aa6108976108858b8901518c61016080918d01528b019061272a565b60408901518a820360408c015261272a565b606080890151908a8303908b015261272a565b60808088015190898303908a015261272a565b60a080870151908883039089015261272a565b60c080860151908783039088015261272a565b60e084015185820360e087015261272a565b61010080840151908583039086015261272a565b91610120878060a01b03818401511690820152610140809201519181840391015261272a565b9601920196019592919092610830565b600b86600192610951859a999a61313b565b815201920192019190959495610802565b3461024557610100366003190112610245576004356024356001600160401b038111610245576109969036906004016125d5565b906044356001600160401b038111610245576109b69036906004016125d5565b916064356001600160401b038111610245576109d69036906004016125d5565b6084356001600160401b038111610245576109f59036906004016125d5565b60a4356001600160401b03811161024557610a149036906004016125d5565b9160c4356001600160401b03811161024557610a349036906004016125d5565b9560e4356001600160401b03811161024557610a549036906004016125d5565b95806000526000602052610a7960018060a01b036009604060002001541633146130a9565b600052600060205260406000209480516001600160401b038111610d5257806001880192610ab182610aab865461264a565b866127c0565b602090601f8311600114610fcb57600092610fc0575b50508160011b916000199060031b1c19161790555b8051906001600160401b038211610d52578190610b0982610b0060028a015461264a565b60028a016127c0565b602090601f8311600114610f5357600092610f48575b50508160011b916000199060031b1c19161760028501555b8051906001600160401b038211610d52578190610b6482610b5b600389015461264a565b600389016127c0565b602090601f8311600114610ed657600092610ecb575b50508160011b916000199060031b1c19161760038401555b8051906001600160401b038211610d52578190610bbf82610bb6600588015461264a565b600588016127c0565b602090601f8311600114610e5957600092610e4e575b50508160011b916000199060031b1c19161760058301555b805160078301916001600160401b038211610d52578190610c1282610aab865461264a565b602090601f8311600114610de857600092610ddd575b50508160011b916000199060031b1c19161790555b6008810183516001600160401b038111610d5257610c6581610c5f845461264a565b846127c0565b6020601f8211600114610d7357819060069596600092610d68575b50508160011b916000199060031b1c19161790555b0181516001600160401b038111610d5257610cb481610c5f845461264a565b602092601f8211600114610cf15792819293600092610ce6575b5050600019600383901b1c191660019190911b179055005b015190508380610cce565b601f198216938360005260206000209160005b868110610d3a5750836001959610610d21575b505050811b019055005b015160001960f88460031b161c19169055838080610d17565b91926020600181928685015181550194019201610d04565b634e487b7160e01b600052604160045260246000fd5b015190508680610c80565b601f198216958360005260206000209660005b818110610dc55750916006969791846001959410610dac575b505050811b019055610c95565b015160001960f88460031b161c19169055868080610d9f565b83830151895560019098019760209384019301610d86565b015190508680610c28565b6000858152602081209350601f198516905b818110610e365750908460019594939210610e1d575b505050811b019055610c3d565b015160001960f88460031b161c19169055868080610e10565b92936020600181928786015181550195019301610dfa565b015190508680610bd5565b9250600585016000526020600020906000935b601f1984168510610eb0576001945083601f19811610610e97575b505050811b016005830155610bed565b015160001960f88460031b161c19169055868080610e87565b81810151835560209485019460019093019290910190610e6c565b015190508780610b7a565b9250600386016000526020600020906000935b601f1984168510610f2d576001945083601f19811610610f14575b505050811b016003840155610b92565b015160001960f88460031b161c19169055878080610f04565b81810151835560209485019460019093019290910190610ee9565b015190508880610b1f565b600288016000908152602081209350601f198516905b818110610fa85750908460019594939210610f8f575b505050811b016002850155610b37565b015160001960f88460031b161c19169055888080610f7f565b92936020600181928786015181550195019301610f69565b015190508a80610ac7565b9250836000526020600020906000935b601f198416851061101c576001945083601f19811610611003575b505050811b019055610adc565b015160001960f88460031b161c191690558a8080610ff6565b81810151835560209485019460019093019290910190610fdb565b346102455760203660031901126102455761105c61105660043561262b565b5061313b565b61014081015160208151910120611071612785565b6020815191012014600014611b035760e081015190610100810151602082015190825193608084015160408501519060608601519060a08701519160c08801519360018060a01b036101208a015116976040519a6110ce8c61257d565b8b5260208b015260408a01526060890152608088015260a087015260c086015260e085015261010084015261012083015260016101408301526111126002546131fe565b6002558051600354600160401b811015610d5257806001611136920160035561276a565b90918254908260031b1b916000199060031b1b1916179055805160005260006020526040600020908251825560208301519283516001600160401b038111610d525761119281611189600187015461264a565b600187016127c0565b6020601f8211600114611a94578192939495600092611a89575b50508160011b916000199060031b1c19161760018401555b60408101519283516001600160401b038111610d52576111f4816111eb600285015461264a565b600285016127c0565b6020601f8211600114611a1a578192939495600092611a0f575b50508160011b916000199060031b1c19161760028201555b60608201519283516001600160401b038111610d52576112568161124d600386015461264a565b600386016127c0565b6020601f82116001146119a0578192939495600092611995575b50508160011b916000199060031b1c19161760038301555b60808301519283516001600160401b038111610d52576112b8816112af600487015461264a565b600487016127c0565b6020601f821160011461192657819293949560009261191b575b50508160011b916000199060031b1c19161760048401555b60a08101519283516001600160401b038111610d525761131a81611311600585015461264a565b600585016127c0565b6020601f82116001146118ac5781929394956000926118a1575b50508160011b916000199060031b1c19161760058201555b60c08201519283516001600160401b038111610d525761137c81611373600686015461264a565b600686016127c0565b6020601f8211600114611832578192939495600092611827575b50508160011b916000199060031b1c19161760068301555b60e08301519283516001600160401b038111610d52576113de816113d5600787015461264a565b600787016127c0565b6020601f82116001146117b85781929394956000926117ad575b50508160011b916000199060031b1c19161760078401555b6101008101519283516001600160401b038111610d525761144181611438600885015461264a565b600885016127c0565b6020601f821160011461173a578190600994959660009261172f575b50508160011b916000199060031b1c19161760088201555b61012080840151929091018054610140909401516001600160a81b03199094166001600160a01b039384161793151560a01b60ff60a01b169390931790925582519183015116907fcb4990052f95f6057496d19524f6c3163f50af9f33f2c15b092928e03414323e600080a35b6004548060043510156116fa57600019908082019081116116e4576115069061262b565b5061151260043561262b565b6115f757818103611623575b5050600454801561160d57016115338161262b565b6115f757600a8160006115ae935561154d600182016132e5565b611559600282016132e5565b611565600382016132e5565b611571600482016132e5565b61157d600582016132e5565b611589600682016132e5565b611595600782016132e5565b6115a1600882016132e5565b60006009820155016132e5565b6004556101408151910151907fbf3747916bbe426e0fd532a54a21bcf371c5ca55c33adbfd8b43756bb1bea93860405160208152806115f23395602083019061272a565b0390a3005b634e487b7160e01b600052600060045260246000fd5b634e487b7160e01b600052603160045260246000fd5b600a80836116dd9454845561163e600182016001860161320d565b61164e600282016002860161320d565b61165e600382016003860161320d565b61166e600482016004860161320d565b61167e600582016005860161320d565b61168e600682016006860161320d565b61169e600782016007860161320d565b6116ae600882016008860161320d565b60098181015490850180546001600160a01b0319166001600160a01b039290921691909117905501910161320d565b828061151e565b634e487b7160e01b600052601160045260246000fd5b60405162461bcd60e51b815260206004820152600d60248201526c092dcecc2d8d2c840d2dcc8caf609b1b6044820152606490fd5b01519050868061145d565b6008830160005260206000209560005b601f198416811061179557509582916009959697600194601f1981161061177c575b505050811b016008820155611475565b015160001960f88460031b161c1916905586808061176c565b8282015188556001909701966020928301920161174a565b0151905085806113f8565b6007850160005260206000209060005b601f198416811061180f575060019394959683601f198116106117f6575b505050811b016007840155611410565b015160001960f88460031b161c191690558580806117e6565b9091602060018192858b0151815501930191016117c8565b015190508580611396565b6006840160005260206000209060005b601f1984168110611889575060019394959683601f19811610611870575b505050811b0160068301556113ae565b015160001960f88460031b161c19169055858080611860565b9091602060018192858b015181550193019101611842565b015190508580611334565b6005830160005260206000209060005b601f1984168110611903575060019394959683601f198116106118ea575b505050811b01600582015561134c565b015160001960f88460031b161c191690558580806118da565b9091602060018192858b0151815501930191016118bc565b0151905085806112d2565b6004850160005260206000209060005b601f198416811061197d575060019394959683601f19811610611964575b505050811b0160048401556112ea565b015160001960f88460031b161c19169055858080611954565b9091602060018192858b015181550193019101611936565b015190508580611270565b6003840160005260206000209060005b601f19841681106119f7575060019394959683601f198116106119de575b505050811b016003830155611288565b015160001960f88460031b161c191690558580806119ce565b9091602060018192858b0151815501930191016119b0565b01519050858061120e565b6002830160005260206000209060005b601f1984168110611a71575060019394959683601f19811610611a58575b505050811b016002820155611226565b015160001960f88460031b161c19169055858080611a48565b9091602060018192858b015181550193019101611a2a565b0151905085806111ac565b6001850160005260206000209060005b601f1984168110611aeb575060019394959683601f19811610611ad2575b505050811b0160018401556111c4565b015160001960f88460031b161c19169055858080611ac2565b9091602060018192858b015181550193019101611aa4565b61014081015160208151910120611b18613100565b60208151910120036114e2578051600052600060205260018060a01b0360096040600020015416815160005260016020526001604060002001805490600160401b821015610d5257600182018082558210156120fd5760005260206000200160018060a01b031990828282541617905560018060a01b0361012084015116835160005260006020526009604060002001918254161790556020820151918051600052600160406000200183516001600160401b038111610d5257611be081610c5f845461264a565b6020601f8211600114612094578192939495600092612089575b50508160011b916000199060031b1c19161790555b60608101519181516000526000602052600360406000200183516001600160401b038111610d5257611c4581610c5f845461264a565b6020601f8211600114612020578192939495600092612015575b50508160011b916000199060031b1c19161790555b60808201519180516000526000602052600460406000200183516001600160401b038111610d5257611caa81610c5f845461264a565b6020601f8211600114611fac578192939495600092611fa1575b50508160011b916000199060031b1c19161790555b60408101519181516000526000602052600260406000200183516001600160401b038111610d5257611d0f81610c5f845461264a565b6020601f8211600114611f38578192939495600092611f2d575b50508160011b916000199060031b1c19161790555b60c08201519180516000526000602052600660406000200183516001600160401b038111610d5257611d7481610c5f845461264a565b6020601f8211600114611ec4578192939495600092611eb9575b50508160011b916000199060031b1c19161790555b60a08101519181516000526000602052600560406000200183516001600160401b038111610d5257611dd981610c5f845461264a565b6020601f8211600114611e50578192939495600092611e45575b50508160011b916000199060031b1c19161790555b81516101208301516001600160a01b031691907f1080b2f211753e5090f26ef7ffdc6bb3e66a125c7290200d10b502160bb1f566600080a46114e2565b015190508580611df3565b8260005260206000209060005b601f1984168110611ea1575060019394959683601f19811610611e88575b505050811b019055611e08565b015160001960f88460031b161c19169055858080611e7b565b9091602060018192858b015181550193019101611e5d565b015190508580611d8e565b8260005260206000209060005b601f1984168110611f15575060019394959683601f19811610611efc575b505050811b019055611da3565b015160001960f88460031b161c19169055858080611eef565b9091602060018192858b015181550193019101611ed1565b015190508580611d29565b8260005260206000209060005b601f1984168110611f89575060019394959683601f19811610611f70575b505050811b019055611d3e565b015160001960f88460031b161c19169055858080611f63565b9091602060018192858b015181550193019101611f45565b015190508580611cc4565b8260005260206000209060005b601f1984168110611ffd575060019394959683601f19811610611fe4575b505050811b019055611cd9565b015160001960f88460031b161c19169055858080611fd7565b9091602060018192858b015181550193019101611fb9565b015190508580611c5f565b8260005260206000209060005b601f1984168110612071575060019394959683601f19811610612058575b505050811b019055611c74565b015160001960f88460031b161c1916905585808061204b565b9091602060018192858b01518155019301910161202d565b015190508580611bfa565b8260005260206000209060005b601f19841681106120e5575060019394959683601f198116106120cc575b505050811b019055611c0f565b015160001960f88460031b161c191690558580806120bf565b9091602060018192858b0151815501930191016120a1565b634e487b7160e01b600052603260045260246000fd5b3461024557610120366003190112610245576001600160401b03600435818111610245576121459036906004016125d5565b602435604435838111610245576121609036906004016125d5565b606435848111610245576121789036906004016125d5565b90608435858111610245576121919036906004016125d5565b9460a435818111610245576121aa9036906004016125d5565b9060c435818111610245576121c39036906004016125d5565b9160e435828111610245576121dc9036906004016125d5565b9161010435908111610245576121f69036906004016125d5565b9286600052600060205260ff60096040600020015460a01c16612229576122279861221f612785565b983398612805565b005b60405162461bcd60e51b815260206004820152601a60248201527f4c616e6420697320416c726561647920526567697374657265640000000000006044820152606490fd5b3461024557602036600319011261024557600435600454811015610245576122959061262b565b5080546122a460018301612684565b916122b160028201612684565b906122be60038201612684565b6122ca60048301612684565b6122d660058401612684565b6122e260068501612684565b906122ef60078601612684565b926122fc60088701612684565b60098701546001600160a01b03169690959061231a90600a01612684565b976040519a8b9a8b526101608060208d01528b016123379161272a565b8a810360408c01526123489161272a565b89810360608b01526123599161272a565b88810360808a015261236a9161272a565b87810360a089015261237b9161272a565b86810360c088015261238c9161272a565b85810360e087015261239d9161272a565b8481036101008601526123af9161272a565b906101208401528281036101408401526123c89161272a565b0390f35b346102455760203660031901126102455760043560005260016020526020604060002054604051908152f35b3461024557610100366003190112610245576001600160a01b036004356024358281168103610245576001600160401b03604435818111610245576124419036906004016125d5565b906064358181116102455761245a9036906004016125d5565b94608435828111610245576124739036906004016125d5565b9160a4358181116102455761248c9036906004016125d5565b9160c435828111610245576124a59036906004016125d5565b9160e435908111610245576124c16124dc9136906004016125d5565b918860005260006020526009604060002001541633146130a9565b86600052600060205260ff60096040600020015460a01c161561253f57612227978760005260006020526125166007604060002001612684565b948860005260006020526125306008604060002001612684565b96612539613100565b99612805565b60405162461bcd60e51b815260206004820152601660248201527513185b99081a5cc81b9bdd081c9959da5cdd195c995960521b6044820152606490fd5b61016081019081106001600160401b03821117610d5257604052565b604081019081106001600160401b03821117610d5257604052565b90601f801991011681019081106001600160401b03821117610d5257604052565b81601f82011215610245578035906001600160401b038211610d525760405192612609601f8401601f1916602001856125b4565b8284526020838301011161024557816000926020809301838601378301015290565b6004548110156120fd576004600052600b602060002091020190600090565b90600182811c9216801561267a575b602083101461266457565b634e487b7160e01b600052602260045260246000fd5b91607f1691612659565b90604051918260008254926126988461264a565b90818452600194858116908160001461270757506001146126c4575b50506126c2925003836125b4565b565b9093915060005260209081600020936000915b8183106126ef5750506126c2935082010138806126b4565b855488840185015294850194879450918301916126d7565b9150506126c294506020925060ff191682840152151560051b82010138806126b4565b919082519283825260005b848110612756575050826000602080949584010152601f8019910116010190565b602081830181015184830182015201612735565b6003548110156120fd57600360005260206000200190600090565b6040519061279282612599565b60088252673932b3b4b9ba32b960c11b6020830152565b8181106127b4575050565b600081556001016127a9565b9190601f81116127cf57505050565b6126c2926000526020600020906020601f840160051c830193106127fb575b601f0160051c01906127a9565b90915081906127ee565b9897949196939095926040519761281b8961257d565b8a89526020890197885260408901526060880152608087015260a086015260c085015260e08401526101008301526001600160a01b0383166101208301526101408201859052600454600160401b811015610d5257806001612880920160045561262b565b9190916115f75782518255518051906001600160401b038211610d525781906128b082611189600187015461264a565b602090601f83116001146130375760009261302c575b50508160011b916000199060031b1c19161760018201555b60408201518051906001600160401b038211610d5257819061291082612907600287015461264a565b600287016127c0565b602090601f8311600114612fba57600092612faf575b50508160011b916000199060031b1c19161760028201555b60608201518051906001600160401b038211610d5257819061297082612967600387015461264a565b600387016127c0565b602090601f8311600114612f3d57600092612f32575b50508160011b916000199060031b1c19161760038201555b60808201518051906001600160401b038211610d525781906129c7826112af600487015461264a565b602090601f8311600114612ec057600092612eb5575b50508160011b916000199060031b1c19161760048201555b60a08201518051906001600160401b038211610d52578190612a2782612a1e600587015461264a565b600587016127c0565b602090601f8311600114612e4357600092612e38575b50508160011b916000199060031b1c19161760058201555b60c08201518051906001600160401b038211610d52578190612a8782612a7e600687015461264a565b600687016127c0565b602090601f8311600114612dc657600092612dbb575b50508160011b916000199060031b1c19161760068201555b60e08201518051906001600160401b038211610d52578190612ade826113d5600787015461264a565b602090601f8311600114612d4957600092612d3e575b50508160011b916000199060031b1c19161760078201555b61010082015180516001600160401b038111610d52576008830191612b3b82612b35855461264a565b856127c0565b602090601f8311600114612ccf579180600a94926101409694600092612cc4575b50508160011b916000199060031b1c19161790555b6009810160018060a01b036101208601511660018060a01b0319825416179055019101518051906001600160401b038211610d5257612bb482612b35855461264a565b602090601f8311600114612c36579180612c2694927f90b328f02ed250ff4bf17cafcbd924782f15c92b3a87a4082e92ae216e1822c29694600092612c2b575b50508160011b916000199060031b1c19161790555b6040519182916020835260018060a01b031695602083019061272a565b0390a3565b015190503880612bf4565b90601f198316918460005260206000209260005b818110612cac57509260019285927f90b328f02ed250ff4bf17cafcbd924782f15c92b3a87a4082e92ae216e1822c29896612c26989610612c93575b505050811b019055612c09565b015160001960f88460031b161c19169055388080612c86565b92936020600181928786015181550195019301612c4a565b015190503880612b5c565b90601f198316918460005260206000209260005b818110612d2657509260019285926101409896600a989610612d0d575b505050811b019055612b71565b015160001960f88460031b161c19169055388080612d00565b92936020600181928786015181550195019301612ce3565b015190503880612af4565b9250600784016000526020600020906000935b601f1984168510612da0576001945083601f19811610612d87575b505050811b016007820155612b0c565b015160001960f88460031b161c19169055388080612d77565b81810151835560209485019460019093019290910190612d5c565b015190503880612a9d565b9250600684016000526020600020906000935b601f1984168510612e1d576001945083601f19811610612e04575b505050811b016006820155612ab5565b015160001960f88460031b161c19169055388080612df4565b81810151835560209485019460019093019290910190612dd9565b015190503880612a3d565b9250600584016000526020600020906000935b601f1984168510612e9a576001945083601f19811610612e81575b505050811b016005820155612a55565b015160001960f88460031b161c19169055388080612e71565b81810151835560209485019460019093019290910190612e56565b0151905038806129dd565b9250600484016000526020600020906000935b601f1984168510612f17576001945083601f19811610612efe575b505050811b0160048201556129f5565b015160001960f88460031b161c19169055388080612eee565b81810151835560209485019460019093019290910190612ed3565b015190503880612986565b9250600384016000526020600020906000935b601f1984168510612f94576001945083601f19811610612f7b575b505050811b01600382015561299e565b015160001960f88460031b161c19169055388080612f6b565b81810151835560209485019460019093019290910190612f50565b015190503880612926565b9250600284016000526020600020906000935b601f1984168510613011576001945083601f19811610612ff8575b505050811b01600282015561293e565b015160001960f88460031b161c19169055388080612fe8565b81810151835560209485019460019093019290910190612fcd565b0151905038806128c6565b9250600184016000526020600020906000935b601f198416851061308e576001945083601f19811610613075575b505050811b0160018201556128de565b015160001960f88460031b161c19169055388080613065565b8181015183556020948501946001909301929091019061304a565b156130b057565b60405162461bcd60e51b815260206004820152602260248201527f596f7520617265206e6f7420746865206f776e6572206f662074686973206c616044820152611b9960f21b6064820152608490fd5b6040519061310d82612599565b60088252673a3930b739b332b960c11b6020830152565b6001600160401b038111610d525760051b60200190565b906040516131488161257d565b6101406131f9600a83958054855261316260018201612684565b602086015261317360028201612684565b604086015261318460038201612684565b606086015261319560048201612684565b60808601526131a660058201612684565b60a08601526131b760068201612684565b60c08601526131c860078201612684565b60e08601526131d960088201612684565b61010086015260098101546001600160a01b031661012086015201612684565b910152565b60001981146116e45760010190565b908082146132e15761321f815461264a565b906001600160401b038211610d5257819061323e82610aab865461264a565b600090601f83116001146132755760009261326a575b50508160011b916000199060031b1c1916179055565b015490503880613254565b81526020808220858352818320935090601f1985169083905b8282106132c85750509084600195949392106132af575b505050811b019055565b015460001960f88460031b161c191690553880806132a5565b849581929585015481556001809101960194019061328e565b5050565b6132ef815461264a565b90816132f9575050565b81601f6000931160011461330b575055565b90808391825261332a601f60208420940160051c8401600185016127a9565b5555565b80518210156120fd5760209160051b01019056fea26469706673582212208b7a24904f5e546196c145db8da46b4f95a5317c85579a7f635f3b13dd7ebb8964736f6c63430008130033","opcodes":"PUSH1 0x80 DUP1 PUSH1 0x40 MSTORE CALLVALUE PUSH2 0x16 JUMPI PUSH2 0x3378 SWAP1 DUP2 PUSH2 0x1C DUP3 CODECOPY RETURN JUMPDEST PUSH1 0x0 DUP1 REVERT INVALID PUSH1 0x80 PUSH1 0x40 MSTORE PUSH1 0x4 CALLDATASIZE LT ISZERO PUSH2 0x12 JUMPI PUSH1 0x0 DUP1 REVERT JUMPDEST PUSH1 0x0 CALLDATALOAD PUSH1 0xE0 SHR DUP1 PUSH4 0x9C05B0E EQ PUSH2 0x23F8 JUMPI DUP1 PUSH4 0x19159F20 EQ PUSH2 0x23CC JUMPI DUP1 PUSH4 0x3C652A9A EQ PUSH2 0x226E JUMPI DUP1 PUSH4 0x4ABAC37B EQ PUSH2 0x2113 JUMPI DUP1 PUSH4 0x7AE6DA9B EQ PUSH2 0x1037 JUMPI DUP1 PUSH4 0x7CE411F9 EQ PUSH2 0x962 JUMPI DUP1 PUSH4 0x80A1F712 EQ PUSH2 0x7A3 JUMPI DUP1 PUSH4 0x9E29CE18 EQ PUSH2 0x785 JUMPI DUP1 PUSH4 0xA3695B18 EQ PUSH2 0x63F JUMPI DUP1 PUSH4 0xA6AC704E EQ PUSH2 0x336 JUMPI DUP1 PUSH4 0xDA5F55E9 EQ PUSH2 0x2FE JUMPI DUP1 PUSH4 0xF1DBACCB EQ PUSH2 0x24A JUMPI PUSH4 0xFE0CB7DC EQ PUSH2 0xAB JUMPI PUSH1 0x0 DUP1 REVERT JUMPDEST CALLVALUE PUSH2 0x245 JUMPI PUSH1 0x20 CALLDATASIZE PUSH1 0x3 NOT ADD SLT PUSH2 0x245 JUMPI PUSH1 0x4 CALLDATALOAD PUSH1 0x0 MSTORE PUSH1 0x0 PUSH1 0x20 MSTORE PUSH1 0x40 PUSH1 0x0 KECCAK256 PUSH1 0x40 MLOAD SWAP1 PUSH2 0xD9 DUP3 PUSH2 0x257D JUMP JUMPDEST DUP1 SLOAD DUP3 MSTORE PUSH2 0xE9 PUSH1 0x1 DUP3 ADD PUSH2 0x2684 JUMP JUMPDEST PUSH1 0x20 DUP4 ADD SWAP1 DUP2 MSTORE SWAP1 PUSH2 0xFD PUSH1 0x2 DUP3 ADD PUSH2 0x2684 JUMP JUMPDEST PUSH1 0x40 DUP5 ADD SWAP1 DUP2 MSTORE SWAP3 PUSH2 0x111 PUSH1 0x3 DUP4 ADD PUSH2 0x2684 JUMP JUMPDEST PUSH1 0x60 DUP3 ADD SWAP1 DUP2 MSTORE PUSH2 0x124 PUSH1 0x4 DUP5 ADD PUSH2 0x2684 JUMP JUMPDEST PUSH1 0x80 DUP4 ADD SWAP1 DUP2 MSTORE SWAP5 PUSH2 0x138 PUSH1 0x5 DUP6 ADD PUSH2 0x2684 JUMP JUMPDEST PUSH1 0xA0 DUP5 ADD SWAP1 DUP2 MSTORE PUSH2 0x14B PUSH1 0x6 DUP7 ADD PUSH2 0x2684 JUMP JUMPDEST PUSH1 0xC0 DUP6 ADD SWAP1 DUP2 MSTORE PUSH2 0x15E PUSH1 0x7 DUP8 ADD PUSH2 0x2684 JUMP JUMPDEST PUSH1 0xE0 DUP7 ADD SWAP1 DUP2 MSTORE SWAP2 PUSH2 0x172 PUSH1 0x8 DUP9 ADD PUSH2 0x2684 JUMP JUMPDEST SWAP5 PUSH2 0x100 SWAP8 DUP7 DUP10 DUP10 ADD MSTORE PUSH1 0x9 ADD SLOAD SWAP9 PUSH1 0x1 PUSH1 0xA0 SHL PUSH1 0x1 SWAP1 SUB DUP11 AND SWAP8 PUSH2 0x120 SWAP11 DUP10 DUP13 DUP4 ADD MSTORE PUSH1 0xA0 SHR PUSH1 0xFF AND ISZERO ISZERO SWAP1 PUSH2 0x140 ADD MSTORE MLOAD SWAP10 MLOAD SWAP5 MLOAD SWAP1 MLOAD SWAP2 MLOAD SWAP3 MLOAD SWAP4 MLOAD SWAP5 PUSH1 0x40 MLOAD SWAP11 DUP11 DUP13 SWAP12 DUP13 MSTORE DUP12 ADD PUSH2 0x1C6 SWAP2 PUSH2 0x272A JUMP JUMPDEST DUP11 DUP2 SUB PUSH1 0x20 DUP13 ADD MSTORE PUSH2 0x1D7 SWAP2 PUSH2 0x272A JUMP JUMPDEST DUP10 DUP2 SUB PUSH1 0x40 DUP12 ADD MSTORE PUSH2 0x1E8 SWAP2 PUSH2 0x272A JUMP JUMPDEST DUP9 DUP2 SUB PUSH1 0x60 DUP11 ADD MSTORE PUSH2 0x1F9 SWAP2 PUSH2 0x272A JUMP JUMPDEST DUP8 DUP2 SUB PUSH1 0x80 DUP10 ADD MSTORE PUSH2 0x20A SWAP2 PUSH2 0x272A JUMP JUMPDEST DUP7 DUP2 SUB PUSH1 0xA0 DUP9 ADD MSTORE PUSH2 0x21B SWAP2 PUSH2 0x272A JUMP JUMPDEST DUP6 DUP2 SUB PUSH1 0xC0 DUP8 ADD MSTORE PUSH2 0x22C SWAP2 PUSH2 0x272A JUMP JUMPDEST DUP5 DUP2 SUB PUSH1 0xE0 DUP7 ADD MSTORE PUSH2 0x23D SWAP2 PUSH2 0x272A JUMP JUMPDEST SWAP2 DUP4 ADD MSTORE SUB SWAP1 RETURN JUMPDEST PUSH1 0x0 DUP1 REVERT JUMPDEST CALLVALUE PUSH2 0x245 JUMPI PUSH1 0x20 DUP1 PUSH1 0x3 NOT CALLDATASIZE ADD SLT PUSH2 0x245 JUMPI PUSH1 0x4 CALLDATALOAD PUSH1 0x0 MSTORE PUSH1 0x1 SWAP1 DUP2 DUP2 MSTORE DUP2 PUSH1 0x40 PUSH1 0x0 KECCAK256 ADD SWAP2 PUSH1 0x40 MLOAD SWAP2 DUP3 DUP2 DUP6 SLOAD SWAP2 DUP3 DUP2 MSTORE ADD SWAP1 DUP2 SWAP6 PUSH1 0x0 MSTORE DUP3 PUSH1 0x0 KECCAK256 SWAP1 PUSH1 0x0 JUMPDEST DUP2 DUP2 LT PUSH2 0x2E2 JUMPI POP POP POP DUP4 PUSH2 0x2A1 SWAP2 SUB DUP5 PUSH2 0x25B4 JUMP JUMPDEST PUSH1 0x40 MLOAD SWAP3 DUP2 DUP5 ADD SWAP1 DUP3 DUP6 MSTORE MLOAD DUP1 SWAP2 MSTORE PUSH1 0x40 DUP5 ADD SWAP5 SWAP2 PUSH1 0x0 JUMPDEST DUP3 DUP2 LT PUSH2 0x2C6 JUMPI DUP6 DUP8 SUB DUP7 RETURN JUMPDEST DUP4 MLOAD PUSH1 0x1 PUSH1 0x1 PUSH1 0xA0 SHL SUB AND DUP8 MSTORE SWAP6 DUP2 ADD SWAP6 SWAP3 DUP2 ADD SWAP3 DUP5 ADD PUSH2 0x2B9 JUMP JUMPDEST DUP3 SLOAD PUSH1 0x1 PUSH1 0x1 PUSH1 0xA0 SHL SUB AND DUP5 MSTORE SWAP3 DUP5 ADD SWAP3 SWAP2 DUP6 ADD SWAP2 DUP6 ADD PUSH2 0x28B JUMP JUMPDEST CALLVALUE PUSH2 0x245 JUMPI PUSH1 0x20 CALLDATASIZE PUSH1 0x3 NOT ADD SLT PUSH2 0x245 JUMPI PUSH1 0x4 CALLDATALOAD PUSH1 0x3 SLOAD DUP2 LT ISZERO PUSH2 0x245 JUMPI PUSH2 0x327 PUSH1 0x20 SWAP2 PUSH2 0x276A JUMP JUMPDEST SWAP1 SLOAD SWAP1 PUSH1 0x3 SHL SHR PUSH1 0x40 MLOAD SWAP1 DUP2 MSTORE RETURN JUMPDEST CALLVALUE PUSH2 0x245 JUMPI PUSH1 0x0 CALLDATASIZE PUSH1 0x3 NOT ADD SLT PUSH2 0x245 JUMPI PUSH1 0x2 DUP1 SLOAD SWAP1 PUSH2 0x355 DUP3 PUSH2 0x3124 JUMP JUMPDEST SWAP2 PUSH2 0x363 PUSH1 0x40 MLOAD SWAP4 DUP5 PUSH2 0x25B4 JUMP JUMPDEST DUP1 DUP4 MSTORE PUSH2 0x372 PUSH1 0x1F NOT SWAP2 PUSH2 0x3124 JUMP JUMPDEST ADD PUSH1 0x0 JUMPDEST DUP2 DUP2 LT PUSH2 0x5DF JUMPI POP POP PUSH1 0x3 DUP1 SLOAD SWAP2 PUSH1 0x0 SWAP1 DUP2 JUMPDEST DUP5 DUP2 LT PUSH2 0x4BB JUMPI PUSH1 0x40 DUP1 MLOAD PUSH1 0x20 DUP1 DUP3 MSTORE DUP9 MLOAD DUP2 DUP4 ADD DUP2 SWAP1 MSTORE PUSH1 0x0 SWAP4 PUSH1 0x5 DUP3 SWAP1 SHL DUP5 ADD DUP2 ADD SWAP3 DUP1 DUP13 ADD SWAP3 SWAP2 DUP6 ADD JUMPDEST DUP3 DUP8 LT PUSH2 0x3C3 JUMPI DUP6 DUP6 SUB DUP7 RETURN JUMPDEST SWAP1 SWAP2 SWAP3 SWAP4 DUP3 DUP1 PUSH1 0x1 SWAP3 PUSH1 0x3F NOT DUP10 DUP3 SUB ADD DUP6 MSTORE DUP8 MLOAD SWAP1 DUP2 MLOAD DUP2 MSTORE PUSH2 0x48C PUSH2 0x478 PUSH2 0x466 PUSH2 0x453 PUSH2 0x440 PUSH2 0x42D PUSH2 0x41A PUSH2 0x408 DUP11 DUP11 ADD MLOAD PUSH2 0x160 DUP1 DUP14 DUP13 ADD MSTORE DUP11 ADD SWAP1 PUSH2 0x272A JUMP JUMPDEST PUSH1 0x40 DUP11 ADD MLOAD DUP10 DUP3 SUB PUSH1 0x40 DUP12 ADD MSTORE PUSH2 0x272A JUMP JUMPDEST PUSH1 0x60 DUP1 DUP11 ADD MLOAD SWAP1 DUP10 DUP4 SUB SWAP1 DUP11 ADD MSTORE PUSH2 0x272A JUMP JUMPDEST PUSH1 0x80 DUP1 DUP10 ADD MLOAD SWAP1 DUP9 DUP4 SUB SWAP1 DUP10 ADD MSTORE PUSH2 0x272A JUMP JUMPDEST PUSH1 0xA0 DUP1 DUP9 ADD MLOAD SWAP1 DUP8 DUP4 SUB SWAP1 DUP9 ADD MSTORE PUSH2 0x272A JUMP JUMPDEST PUSH1 0xC0 DUP1 DUP8 ADD MLOAD SWAP1 DUP7 DUP4 SUB SWAP1 DUP8 ADD MSTORE PUSH2 0x272A JUMP JUMPDEST PUSH1 0xE0 DUP6 ADD MLOAD DUP5 DUP3 SUB PUSH1 0xE0 DUP7 ADD MSTORE PUSH2 0x272A JUMP JUMPDEST PUSH2 0x100 DUP1 DUP6 ADD MLOAD SWAP1 DUP5 DUP4 SUB SWAP1 DUP6 ADD MSTORE PUSH2 0x272A JUMP JUMPDEST SWAP2 PUSH2 0x120 DUP7 DUP1 PUSH1 0xA0 SHL SUB DUP2 DUP4 ADD MLOAD AND SWAP1 DUP4 ADD MSTORE PUSH2 0x140 DUP1 SWAP2 ADD MLOAD ISZERO ISZERO SWAP2 ADD MSTORE SWAP7 ADD SWAP3 ADD SWAP7 ADD SWAP6 SWAP3 SWAP2 SWAP1 SWAP3 PUSH2 0x3B6 JUMP JUMPDEST PUSH2 0x4C4 DUP2 PUSH2 0x276A JUMP JUMPDEST SWAP1 SLOAD SWAP1 DUP6 SHL SHR PUSH1 0x0 MSTORE PUSH1 0x20 PUSH1 0x0 DUP2 MSTORE PUSH1 0x40 PUSH1 0x0 KECCAK256 PUSH1 0x9 DUP2 ADD SLOAD PUSH1 0xA0 SWAP2 PUSH1 0xFF DUP3 DUP5 SHR AND SWAP3 DUP4 PUSH2 0x500 JUMPI JUMPDEST POP POP POP POP POP PUSH2 0x4FB SWAP1 PUSH2 0x31FE JUMP JUMPDEST PUSH2 0x389 JUMP JUMPDEST SWAP2 PUSH2 0x59C PUSH1 0x8 PUSH2 0x4FB SWAP8 SWAP10 SWAP6 SWAP4 PUSH2 0x5D4 SWAP8 SWAP6 PUSH1 0x40 MLOAD SWAP7 PUSH2 0x51F DUP9 PUSH2 0x257D JUMP JUMPDEST DUP3 SLOAD DUP9 MSTORE PUSH2 0x52F PUSH1 0x1 DUP5 ADD PUSH2 0x2684 JUMP JUMPDEST SWAP1 DUP9 ADD MSTORE PUSH2 0x53E DUP12 DUP4 ADD PUSH2 0x2684 JUMP JUMPDEST PUSH1 0x40 DUP9 ADD MSTORE PUSH2 0x54E DUP14 DUP4 ADD PUSH2 0x2684 JUMP JUMPDEST PUSH1 0x60 DUP9 ADD MSTORE PUSH2 0x55F PUSH1 0x4 DUP4 ADD PUSH2 0x2684 JUMP JUMPDEST PUSH1 0x80 DUP9 ADD MSTORE PUSH2 0x570 PUSH1 0x5 DUP4 ADD PUSH2 0x2684 JUMP JUMPDEST SWAP1 DUP8 ADD MSTORE PUSH2 0x580 PUSH1 0x6 DUP3 ADD PUSH2 0x2684 JUMP JUMPDEST PUSH1 0xC0 DUP8 ADD MSTORE PUSH2 0x591 PUSH1 0x7 DUP3 ADD PUSH2 0x2684 JUMP JUMPDEST PUSH1 0xE0 DUP8 ADD MSTORE ADD PUSH2 0x2684 JUMP JUMPDEST PUSH2 0x100 DUP5 ADD MSTORE PUSH1 0x1 PUSH1 0x1 PUSH1 0xA0 SHL SUB AND PUSH2 0x120 DUP4 ADD MSTORE ISZERO ISZERO PUSH2 0x140 DUP3 ADD MSTORE PUSH2 0x5C3 DUP3 DUP11 PUSH2 0x332E JUMP JUMPDEST MSTORE PUSH2 0x5CE DUP2 DUP10 PUSH2 0x332E JUMP JUMPDEST POP PUSH2 0x31FE JUMP JUMPDEST SWAP3 SWAP1 DUP8 DUP1 DUP1 DUP1 PUSH2 0x4ED JUMP JUMPDEST PUSH1 0x20 SWAP1 PUSH1 0x40 MLOAD PUSH2 0x5EE DUP2 PUSH2 0x257D JUMP JUMPDEST PUSH1 0x0 DUP2 MSTORE PUSH1 0x60 DUP4 SWAP1 DUP1 DUP3 DUP5 ADD MSTORE DUP1 PUSH1 0x40 DUP5 ADD MSTORE DUP1 DUP1 DUP5 ADD MSTORE DUP1 PUSH1 0x80 DUP5 ADD MSTORE DUP1 PUSH1 0xA0 DUP5 ADD MSTORE DUP1 PUSH1 0xC0 DUP5 ADD MSTORE DUP1 PUSH1 0xE0 DUP5 ADD MSTORE PUSH2 0x100 DUP4 ADD MSTORE PUSH1 0x0 PUSH2 0x120 DUP4 ADD MSTORE PUSH1 0x0 PUSH2 0x140 DUP4 ADD MSTORE DUP3 DUP8 ADD ADD MSTORE ADD PUSH2 0x376 JUMP JUMPDEST CALLVALUE PUSH2 0x245 JUMPI PUSH1 0x20 CALLDATASIZE PUSH1 0x3 NOT ADD SLT PUSH2 0x245 JUMPI PUSH1 0x4 CALLDATALOAD PUSH1 0x0 MSTORE PUSH1 0x0 PUSH1 0x20 MSTORE PUSH1 0x40 PUSH1 0x0 KECCAK256 DUP1 SLOAD PUSH1 0x1 DUP3 ADD PUSH2 0x66F SWAP1 PUSH2 0x2684 JUMP JUMPDEST SWAP2 PUSH2 0x67C PUSH1 0x2 DUP3 ADD PUSH2 0x2684 JUMP JUMPDEST SWAP1 PUSH2 0x689 PUSH1 0x3 DUP3 ADD PUSH2 0x2684 JUMP JUMPDEST PUSH2 0x695 PUSH1 0x4 DUP4 ADD PUSH2 0x2684 JUMP JUMPDEST PUSH2 0x6A1 PUSH1 0x5 DUP5 ADD PUSH2 0x2684 JUMP JUMPDEST PUSH2 0x6AD PUSH1 0x6 DUP6 ADD PUSH2 0x2684 JUMP JUMPDEST SWAP2 PUSH2 0x6BA PUSH1 0x7 DUP7 ADD PUSH2 0x2684 JUMP JUMPDEST SWAP4 PUSH2 0x6C7 PUSH1 0x8 DUP8 ADD PUSH2 0x2684 JUMP JUMPDEST SWAP6 PUSH1 0x9 ADD SLOAD SWAP7 PUSH1 0x40 MLOAD SWAP10 DUP11 SWAP10 DUP11 MSTORE PUSH2 0x160 DUP1 PUSH1 0x20 DUP13 ADD MSTORE DUP11 ADD PUSH2 0x6E9 SWAP2 PUSH2 0x272A JUMP JUMPDEST DUP10 DUP2 SUB PUSH1 0x40 DUP12 ADD MSTORE PUSH2 0x6FA SWAP2 PUSH2 0x272A JUMP JUMPDEST DUP9 DUP2 SUB PUSH1 0x60 DUP11 ADD MSTORE PUSH2 0x70B SWAP2 PUSH2 0x272A JUMP JUMPDEST DUP8 DUP2 SUB PUSH1 0x80 DUP10 ADD MSTORE PUSH2 0x71C SWAP2 PUSH2 0x272A JUMP JUMPDEST DUP7 DUP2 SUB PUSH1 0xA0 DUP9 ADD MSTORE PUSH2 0x72D SWAP2 PUSH2 0x272A JUMP JUMPDEST DUP6 DUP2 SUB PUSH1 0xC0 DUP8 ADD MSTORE PUSH2 0x73E SWAP2 PUSH2 0x272A JUMP JUMPDEST DUP5 DUP2 SUB PUSH1 0xE0 DUP7 ADD MSTORE PUSH2 0x74F SWAP2 PUSH2 0x272A JUMP JUMPDEST DUP4 DUP2 SUB PUSH2 0x100 DUP6 ADD MSTORE PUSH2 0x761 SWAP2 PUSH2 0x272A JUMP JUMPDEST SWAP1 PUSH1 0x1 PUSH1 0xA0 SHL PUSH1 0x1 SWAP1 SUB DUP2 AND PUSH2 0x120 DUP5 ADD MSTORE PUSH1 0xA0 SHR PUSH1 0xFF AND ISZERO ISZERO PUSH2 0x140 DUP4 ADD MSTORE SUB SWAP1 RETURN JUMPDEST CALLVALUE PUSH2 0x245 JUMPI PUSH1 0x0 CALLDATASIZE PUSH1 0x3 NOT ADD SLT PUSH2 0x245 JUMPI PUSH1 0x20 PUSH1 0x2 SLOAD PUSH1 0x40 MLOAD SWAP1 DUP2 MSTORE RETURN JUMPDEST CALLVALUE PUSH2 0x245 JUMPI PUSH1 0x0 CALLDATASIZE PUSH1 0x3 NOT ADD SLT PUSH2 0x245 JUMPI PUSH1 0x4 SLOAD PUSH2 0x7C0 DUP2 PUSH2 0x3124 JUMP JUMPDEST SWAP1 PUSH2 0x7CE PUSH1 0x40 MLOAD SWAP3 DUP4 PUSH2 0x25B4 JUMP JUMPDEST DUP1 DUP3 MSTORE PUSH1 0x4 PUSH1 0x0 SWAP1 DUP2 MSTORE PUSH1 0x20 SWAP2 DUP3 DUP5 ADD SWAP2 PUSH32 0x8A35ACFBC15FF81A39AE7D344FD709F28E8600B4AA8C65C6B64BFE7FE36BD19B DUP4 JUMPDEST DUP4 DUP4 LT PUSH2 0x93F JUMPI POP POP POP POP PUSH1 0x40 MLOAD SWAP2 DUP1 DUP4 ADD SWAP4 DUP2 DUP5 MSTORE MLOAD DUP1 SWAP5 MSTORE PUSH1 0x40 DUP4 ADD SWAP4 PUSH1 0x40 DUP2 PUSH1 0x5 SHL DUP6 ADD ADD SWAP3 SWAP2 PUSH1 0x0 SWAP6 JUMPDEST DUP3 DUP8 LT PUSH2 0x83D JUMPI DUP6 DUP6 SUB DUP7 RETURN JUMPDEST SWAP1 SWAP2 SWAP3 SWAP4 DUP3 DUP1 PUSH2 0x92F PUSH1 0x1 SWAP4 PUSH1 0x3F NOT DUP11 DUP3 SUB ADD DUP7 MSTORE DUP9 MLOAD DUP1 MLOAD DUP3 MSTORE PUSH2 0x909 PUSH2 0x8F5 PUSH2 0x8E3 PUSH2 0x8D0 PUSH2 0x8BD PUSH2 0x8AA PUSH2 0x897 PUSH2 0x885 DUP12 DUP10 ADD MLOAD DUP13 PUSH2 0x160 DUP1 SWAP2 DUP14 ADD MSTORE DUP12 ADD SWAP1 PUSH2 0x272A JUMP JUMPDEST PUSH1 0x40 DUP10 ADD MLOAD DUP11 DUP3 SUB PUSH1 0x40 DUP13 ADD MSTORE PUSH2 0x272A JUMP JUMPDEST PUSH1 0x60 DUP1 DUP10 ADD MLOAD SWAP1 DUP11 DUP4 SUB SWAP1 DUP12 ADD MSTORE PUSH2 0x272A JUMP JUMPDEST PUSH1 0x80 DUP1 DUP9 ADD MLOAD SWAP1 DUP10 DUP4 SUB SWAP1 DUP11 ADD MSTORE PUSH2 0x272A JUMP JUMPDEST PUSH1 0xA0 DUP1 DUP8 ADD MLOAD SWAP1 DUP9 DUP4 SUB SWAP1 DUP10 ADD MSTORE PUSH2 0x272A JUMP JUMPDEST PUSH1 0xC0 DUP1 DUP7 ADD MLOAD SWAP1 DUP8 DUP4 SUB SWAP1 DUP9 ADD MSTORE PUSH2 0x272A JUMP JUMPDEST PUSH1 0xE0 DUP5 ADD MLOAD DUP6 DUP3 SUB PUSH1 0xE0 DUP8 ADD MSTORE PUSH2 0x272A JUMP JUMPDEST PUSH2 0x100 DUP1 DUP5 ADD MLOAD SWAP1 DUP6 DUP4 SUB SWAP1 DUP7 ADD MSTORE PUSH2 0x272A JUMP JUMPDEST SWAP2 PUSH2 0x120 DUP8 DUP1 PUSH1 0xA0 SHL SUB DUP2 DUP5 ADD MLOAD AND SWAP1 DUP3 ADD MSTORE PUSH2 0x140 DUP1 SWAP3 ADD MLOAD SWAP2 DUP2 DUP5 SUB SWAP2 ADD MSTORE PUSH2 0x272A JUMP JUMPDEST SWAP7 ADD SWAP3 ADD SWAP7 ADD SWAP6 SWAP3 SWAP2 SWAP1 SWAP3 PUSH2 0x830 JUMP JUMPDEST PUSH1 0xB DUP7 PUSH1 0x1 SWAP3 PUSH2 0x951 DUP6 SWAP11 SWAP10 SWAP11 PUSH2 0x313B JUMP JUMPDEST DUP2 MSTORE ADD SWAP3 ADD SWAP3 ADD SWAP2 SWAP1 SWAP6 SWAP5 SWAP6 PUSH2 0x802 JUMP JUMPDEST CALLVALUE PUSH2 0x245 JUMPI PUSH2 0x100 CALLDATASIZE PUSH1 0x3 NOT ADD SLT PUSH2 0x245 JUMPI PUSH1 0x4 CALLDATALOAD PUSH1 0x24 CALLDATALOAD PUSH1 0x1 PUSH1 0x1 PUSH1 0x40 SHL SUB DUP2 GT PUSH2 0x245 JUMPI PUSH2 0x996 SWAP1 CALLDATASIZE SWAP1 PUSH1 0x4 ADD PUSH2 0x25D5 JUMP JUMPDEST SWAP1 PUSH1 0x44 CALLDATALOAD PUSH1 0x1 PUSH1 0x1 PUSH1 0x40 SHL SUB DUP2 GT PUSH2 0x245 JUMPI PUSH2 0x9B6 SWAP1 CALLDATASIZE SWAP1 PUSH1 0x4 ADD PUSH2 0x25D5 JUMP JUMPDEST SWAP2 PUSH1 0x64 CALLDATALOAD PUSH1 0x1 PUSH1 0x1 PUSH1 0x40 SHL SUB DUP2 GT PUSH2 0x245 JUMPI PUSH2 0x9D6 SWAP1 CALLDATASIZE SWAP1 PUSH1 0x4 ADD PUSH2 0x25D5 JUMP JUMPDEST PUSH1 0x84 CALLDATALOAD PUSH1 0x1 PUSH1 0x1 PUSH1 0x40 SHL SUB DUP2 GT PUSH2 0x245 JUMPI PUSH2 0x9F5 SWAP1 CALLDATASIZE SWAP1 PUSH1 0x4 ADD PUSH2 0x25D5 JUMP JUMPDEST PUSH1 0xA4 CALLDATALOAD PUSH1 0x1 PUSH1 0x1 PUSH1 0x40 SHL SUB DUP2 GT PUSH2 0x245 JUMPI PUSH2 0xA14 SWAP1 CALLDATASIZE SWAP1 PUSH1 0x4 ADD PUSH2 0x25D5 JUMP JUMPDEST SWAP2 PUSH1 0xC4 CALLDATALOAD PUSH1 0x1 PUSH1 0x1 PUSH1 0x40 SHL SUB DUP2 GT PUSH2 0x245 JUMPI PUSH2 0xA34 SWAP1 CALLDATASIZE SWAP1 PUSH1 0x4 ADD PUSH2 0x25D5 JUMP JUMPDEST SWAP6 PUSH1 0xE4 CALLDATALOAD PUSH1 0x1 PUSH1 0x1 PUSH1 0x40 SHL SUB DUP2 GT PUSH2 0x245 JUMPI PUSH2 0xA54 SWAP1 CALLDATASIZE SWAP1 PUSH1 0x4 ADD PUSH2 0x25D5 JUMP JUMPDEST SWAP6 DUP1 PUSH1 0x0 MSTORE PUSH1 0x0 PUSH1 0x20 MSTORE PUSH2 0xA79 PUSH1 0x1 DUP1 PUSH1 0xA0 SHL SUB PUSH1 0x9 PUSH1 0x40 PUSH1 0x0 KECCAK256 ADD SLOAD AND CALLER EQ PUSH2 0x30A9 JUMP JUMPDEST PUSH1 0x0 MSTORE PUSH1 0x0 PUSH1 0x20 MSTORE PUSH1 0x40 PUSH1 0x0 KECCAK256 SWAP5 DUP1 MLOAD PUSH1 0x1 PUSH1 0x1 PUSH1 0x40 SHL SUB DUP2 GT PUSH2 0xD52 JUMPI DUP1 PUSH1 0x1 DUP9 ADD SWAP3 PUSH2 0xAB1 DUP3 PUSH2 0xAAB DUP7 SLOAD PUSH2 0x264A JUMP JUMPDEST DUP7 PUSH2 0x27C0 JUMP JUMPDEST PUSH1 0x20 SWAP1 PUSH1 0x1F DUP4 GT PUSH1 0x1 EQ PUSH2 0xFCB JUMPI PUSH1 0x0 SWAP3 PUSH2 0xFC0 JUMPI JUMPDEST POP POP DUP2 PUSH1 0x1 SHL SWAP2 PUSH1 0x0 NOT SWAP1 PUSH1 0x3 SHL SHR NOT AND OR SWAP1 SSTORE JUMPDEST DUP1 MLOAD SWAP1 PUSH1 0x1 PUSH1 0x1 PUSH1 0x40 SHL SUB DUP3 GT PUSH2 0xD52 JUMPI DUP2 SWAP1 PUSH2 0xB09 DUP3 PUSH2 0xB00 PUSH1 0x2 DUP11 ADD SLOAD PUSH2 0x264A JUMP JUMPDEST PUSH1 0x2 DUP11 ADD PUSH2 0x27C0 JUMP JUMPDEST PUSH1 0x20 SWAP1 PUSH1 0x1F DUP4 GT PUSH1 0x1 EQ PUSH2 0xF53 JUMPI PUSH1 0x0 SWAP3 PUSH2 0xF48 JUMPI JUMPDEST POP POP DUP2 PUSH1 0x1 SHL SWAP2 PUSH1 0x0 NOT SWAP1 PUSH1 0x3 SHL SHR NOT AND OR PUSH1 0x2 DUP6 ADD SSTORE JUMPDEST DUP1 MLOAD SWAP1 PUSH1 0x1 PUSH1 0x1 PUSH1 0x40 SHL SUB DUP3 GT PUSH2 0xD52 JUMPI DUP2 SWAP1 PUSH2 0xB64 DUP3 PUSH2 0xB5B PUSH1 0x3 DUP10 ADD SLOAD PUSH2 0x264A JUMP JUMPDEST PUSH1 0x3 DUP10 ADD PUSH2 0x27C0 JUMP JUMPDEST PUSH1 0x20 SWAP1 PUSH1 0x1F DUP4 GT PUSH1 0x1 EQ PUSH2 0xED6 JUMPI PUSH1 0x0 SWAP3 PUSH2 0xECB JUMPI JUMPDEST POP POP DUP2 PUSH1 0x1 SHL SWAP2 PUSH1 0x0 NOT SWAP1 PUSH1 0x3 SHL SHR NOT AND OR PUSH1 0x3 DUP5 ADD SSTORE JUMPDEST DUP1 MLOAD SWAP1 PUSH1 0x1 PUSH1 0x1 PUSH1 0x40 SHL SUB DUP3 GT PUSH2 0xD52 JUMPI DUP2 SWAP1 PUSH2 0xBBF DUP3 PUSH2 0xBB6 PUSH1 0x5 DUP9 ADD SLOAD PUSH2 0x264A JUMP JUMPDEST PUSH1 0x5 DUP9 ADD PUSH2 0x27C0 JUMP JUMPDEST PUSH1 0x20 SWAP1 PUSH1 0x1F DUP4 GT PUSH1 0x1 EQ PUSH2 0xE59 JUMPI PUSH1 0x0 SWAP3 PUSH2 0xE4E JUMPI JUMPDEST POP POP DUP2 PUSH1 0x1 SHL SWAP2 PUSH1 0x0 NOT SWAP1 PUSH1 0x3 SHL SHR NOT AND OR PUSH1 0x5 DUP4 ADD SSTORE JUMPDEST DUP1 MLOAD PUSH1 0x7 DUP4 ADD SWAP2 PUSH1 0x1 PUSH1 0x1 PUSH1 0x40 SHL SUB DUP3 GT PUSH2 0xD52 JUMPI DUP2 SWAP1 PUSH2 0xC12 DUP3 PUSH2 0xAAB DUP7 SLOAD PUSH2 0x264A JUMP JUMPDEST PUSH1 0x20 SWAP1 PUSH1 0x1F DUP4 GT PUSH1 0x1 EQ PUSH2 0xDE8 JUMPI PUSH1 0x0 SWAP3 PUSH2 0xDDD JUMPI JUMPDEST POP POP DUP2 PUSH1 0x1 SHL SWAP2 PUSH1 0x0 NOT SWAP1 PUSH1 0x3 SHL SHR NOT AND OR SWAP1 SSTORE JUMPDEST PUSH1 0x8 DUP2 ADD DUP4 MLOAD PUSH1 0x1 PUSH1 0x1 PUSH1 0x40 SHL SUB DUP2 GT PUSH2 0xD52 JUMPI PUSH2 0xC65 DUP2 PUSH2 0xC5F DUP5 SLOAD PUSH2 0x264A JUMP JUMPDEST DUP5 PUSH2 0x27C0 JUMP JUMPDEST PUSH1 0x20 PUSH1 0x1F DUP3 GT PUSH1 0x1 EQ PUSH2 0xD73 JUMPI DUP2 SWAP1 PUSH1 0x6 SWAP6 SWAP7 PUSH1 0x0 SWAP3 PUSH2 0xD68 JUMPI JUMPDEST POP POP DUP2 PUSH1 0x1 SHL SWAP2 PUSH1 0x0 NOT SWAP1 PUSH1 0x3 SHL SHR NOT AND OR SWAP1 SSTORE JUMPDEST ADD DUP2 MLOAD PUSH1 0x1 PUSH1 0x1 PUSH1 0x40 SHL SUB DUP2 GT PUSH2 0xD52 JUMPI PUSH2 0xCB4 DUP2 PUSH2 0xC5F DUP5 SLOAD PUSH2 0x264A JUMP JUMPDEST PUSH1 0x20 SWAP3 PUSH1 0x1F DUP3 GT PUSH1 0x1 EQ PUSH2 0xCF1 JUMPI SWAP3 DUP2 SWAP3 SWAP4 PUSH1 0x0 SWAP3 PUSH2 0xCE6 JUMPI JUMPDEST POP POP PUSH1 0x0 NOT PUSH1 0x3 DUP4 SWAP1 SHL SHR NOT AND PUSH1 0x1 SWAP2 SWAP1 SWAP2 SHL OR SWAP1 SSTORE STOP JUMPDEST ADD MLOAD SWAP1 POP DUP4 DUP1 PUSH2 0xCCE JUMP JUMPDEST PUSH1 0x1F NOT DUP3 AND SWAP4 DUP4 PUSH1 0x0 MSTORE PUSH1 0x20 PUSH1 0x0 KECCAK256 SWAP2 PUSH1 0x0 JUMPDEST DUP7 DUP2 LT PUSH2 0xD3A JUMPI POP DUP4 PUSH1 0x1 SWAP6 SWAP7 LT PUSH2 0xD21 JUMPI JUMPDEST POP POP POP DUP2 SHL ADD SWAP1 SSTORE STOP JUMPDEST ADD MLOAD PUSH1 0x0 NOT PUSH1 0xF8 DUP5 PUSH1 0x3 SHL AND SHR NOT AND SWAP1 SSTORE DUP4 DUP1 DUP1 PUSH2 0xD17 JUMP JUMPDEST SWAP2 SWAP3 PUSH1 0x20 PUSH1 0x1 DUP2 SWAP3 DUP7 DUP6 ADD MLOAD DUP2 SSTORE ADD SWAP5 ADD SWAP3 ADD PUSH2 0xD04 JUMP JUMPDEST PUSH4 0x4E487B71 PUSH1 0xE0 SHL PUSH1 0x0 MSTORE PUSH1 0x41 PUSH1 0x4 MSTORE PUSH1 0x24 PUSH1 0x0 REVERT JUMPDEST ADD MLOAD SWAP1 POP DUP7 DUP1 PUSH2 0xC80 JUMP JUMPDEST PUSH1 0x1F NOT DUP3 AND SWAP6 DUP4 PUSH1 0x0 MSTORE PUSH1 0x20 PUSH1 0x0 KECCAK256 SWAP7 PUSH1 0x0 JUMPDEST DUP2 DUP2 LT PUSH2 0xDC5 JUMPI POP SWAP2 PUSH1 0x6 SWAP7 SWAP8 SWAP2 DUP5 PUSH1 0x1 SWAP6 SWAP5 LT PUSH2 0xDAC JUMPI JUMPDEST POP POP POP DUP2 SHL ADD SWAP1 SSTORE PUSH2 0xC95 JUMP JUMPDEST ADD MLOAD PUSH1 0x0 NOT PUSH1 0xF8 DUP5 PUSH1 0x3 SHL AND SHR NOT AND SWAP1 SSTORE DUP7 DUP1 DUP1 PUSH2 0xD9F JUMP JUMPDEST DUP4 DUP4 ADD MLOAD DUP10 SSTORE PUSH1 0x1 SWAP1 SWAP9 ADD SWAP8 PUSH1 0x20 SWAP4 DUP5 ADD SWAP4 ADD PUSH2 0xD86 JUMP JUMPDEST ADD MLOAD SWAP1 POP DUP7 DUP1 PUSH2 0xC28 JUMP JUMPDEST PUSH1 0x0 DUP6 DUP2 MSTORE PUSH1 0x20 DUP2 KECCAK256 SWAP4 POP PUSH1 0x1F NOT DUP6 AND SWAP1 JUMPDEST DUP2 DUP2 LT PUSH2 0xE36 JUMPI POP SWAP1 DUP5 PUSH1 0x1 SWAP6 SWAP5 SWAP4 SWAP3 LT PUSH2 0xE1D JUMPI JUMPDEST POP POP POP DUP2 SHL ADD SWAP1 SSTORE PUSH2 0xC3D JUMP JUMPDEST ADD MLOAD PUSH1 0x0 NOT PUSH1 0xF8 DUP5 PUSH1 0x3 SHL AND SHR NOT AND SWAP1 SSTORE DUP7 DUP1 DUP1 PUSH2 0xE10 JUMP JUMPDEST SWAP3 SWAP4 PUSH1 0x20 PUSH1 0x1 DUP2 SWAP3 DUP8 DUP7 ADD MLOAD DUP2 SSTORE ADD SWAP6 ADD SWAP4 ADD PUSH2 0xDFA JUMP JUMPDEST ADD MLOAD SWAP1 POP DUP7 DUP1 PUSH2 0xBD5 JUMP JUMPDEST SWAP3 POP PUSH1 0x5 DUP6 ADD PUSH1 0x0 MSTORE PUSH1 0x20 PUSH1 0x0 KECCAK256 SWAP1 PUSH1 0x0 SWAP4 JUMPDEST PUSH1 0x1F NOT DUP5 AND DUP6 LT PUSH2 0xEB0 JUMPI PUSH1 0x1 SWAP5 POP DUP4 PUSH1 0x1F NOT DUP2 AND LT PUSH2 0xE97 JUMPI JUMPDEST POP POP POP DUP2 SHL ADD PUSH1 0x5 DUP4 ADD SSTORE PUSH2 0xBED JUMP JUMPDEST ADD MLOAD PUSH1 0x0 NOT PUSH1 0xF8 DUP5 PUSH1 0x3 SHL AND SHR NOT AND SWAP1 SSTORE DUP7 DUP1 DUP1 PUSH2 0xE87 JUMP JUMPDEST DUP2 DUP2 ADD MLOAD DUP4 SSTORE PUSH1 0x20 SWAP5 DUP6 ADD SWAP5 PUSH1 0x1 SWAP1 SWAP4 ADD SWAP3 SWAP1 SWAP2 ADD SWAP1 PUSH2 0xE6C JUMP JUMPDEST ADD MLOAD SWAP1 POP DUP8 DUP1 PUSH2 0xB7A JUMP JUMPDEST SWAP3 POP PUSH1 0x3 DUP7 ADD PUSH1 0x0 MSTORE PUSH1 0x20 PUSH1 0x0 KECCAK256 SWAP1 PUSH1 0x0 SWAP4 JUMPDEST PUSH1 0x1F NOT DUP5 AND DUP6 LT PUSH2 0xF2D JUMPI PUSH1 0x1 SWAP5 POP DUP4 PUSH1 0x1F NOT DUP2 AND LT PUSH2 0xF14 JUMPI JUMPDEST POP POP POP DUP2 SHL ADD PUSH1 0x3 DUP5 ADD SSTORE PUSH2 0xB92 JUMP JUMPDEST ADD MLOAD PUSH1 0x0 NOT PUSH1 0xF8 DUP5 PUSH1 0x3 SHL AND SHR NOT AND SWAP1 SSTORE DUP8 DUP1 DUP1 PUSH2 0xF04 JUMP JUMPDEST DUP2 DUP2 ADD MLOAD DUP4 SSTORE PUSH1 0x20 SWAP5 DUP6 ADD SWAP5 PUSH1 0x1 SWAP1 SWAP4 ADD SWAP3 SWAP1 SWAP2 ADD SWAP1 PUSH2 0xEE9 JUMP JUMPDEST ADD MLOAD SWAP1 POP DUP9 DUP1 PUSH2 0xB1F JUMP JUMPDEST PUSH1 0x2 DUP9 ADD PUSH1 0x0 SWAP1 DUP2 MSTORE PUSH1 0x20 DUP2 KECCAK256 SWAP4 POP PUSH1 0x1F NOT DUP6 AND SWAP1 JUMPDEST DUP2 DUP2 LT PUSH2 0xFA8 JUMPI POP SWAP1 DUP5 PUSH1 0x1 SWAP6 SWAP5 SWAP4 SWAP3 LT PUSH2 0xF8F JUMPI JUMPDEST POP POP POP DUP2 SHL ADD PUSH1 0x2 DUP6 ADD SSTORE PUSH2 0xB37 JUMP JUMPDEST ADD MLOAD PUSH1 0x0 NOT PUSH1 0xF8 DUP5 PUSH1 0x3 SHL AND SHR NOT AND SWAP1 SSTORE DUP9 DUP1 DUP1 PUSH2 0xF7F JUMP JUMPDEST SWAP3 SWAP4 PUSH1 0x20 PUSH1 0x1 DUP2 SWAP3 DUP8 DUP7 ADD MLOAD DUP2 SSTORE ADD SWAP6 ADD SWAP4 ADD PUSH2 0xF69 JUMP JUMPDEST ADD MLOAD SWAP1 POP DUP11 DUP1 PUSH2 0xAC7 JUMP JUMPDEST SWAP3 POP DUP4 PUSH1 0x0 MSTORE PUSH1 0x20 PUSH1 0x0 KECCAK256 SWAP1 PUSH1 0x0 SWAP4 JUMPDEST PUSH1 0x1F NOT DUP5 AND DUP6 LT PUSH2 0x101C JUMPI PUSH1 0x1 SWAP5 POP DUP4 PUSH1 0x1F NOT DUP2 AND LT PUSH2 0x1003 JUMPI JUMPDEST POP POP POP DUP2 SHL ADD SWAP1 SSTORE PUSH2 0xADC JUMP JUMPDEST ADD MLOAD PUSH1 0x0 NOT PUSH1 0xF8 DUP5 PUSH1 0x3 SHL AND SHR NOT AND SWAP1 SSTORE DUP11 DUP1 DUP1 PUSH2 0xFF6 JUMP JUMPDEST DUP2 DUP2 ADD MLOAD DUP4 SSTORE PUSH1 0x20 SWAP5 DUP6 ADD SWAP5 PUSH1 0x1 SWAP1 SWAP4 ADD SWAP3 SWAP1 SWAP2 ADD SWAP1 PUSH2 0xFDB JUMP JUMPDEST CALLVALUE PUSH2 0x245 JUMPI PUSH1 0x20 CALLDATASIZE PUSH1 0x3 NOT ADD SLT PUSH2 0x245 JUMPI PUSH2 0x105C PUSH2 0x1056 PUSH1 0x4 CALLDATALOAD PUSH2 0x262B JUMP JUMPDEST POP PUSH2 0x313B JUMP JUMPDEST PUSH2 0x140 DUP2 ADD MLOAD PUSH1 0x20 DUP2 MLOAD SWAP2 ADD KECCAK256 PUSH2 0x1071 PUSH2 0x2785 JUMP JUMPDEST PUSH1 0x20 DUP2 MLOAD SWAP2 ADD KECCAK256 EQ PUSH1 0x0 EQ PUSH2 0x1B03 JUMPI PUSH1 0xE0 DUP2 ADD MLOAD SWAP1 PUSH2 0x100 DUP2 ADD MLOAD PUSH1 0x20 DUP3 ADD MLOAD SWAP1 DUP3 MLOAD SWAP4 PUSH1 0x80 DUP5 ADD MLOAD PUSH1 0x40 DUP6 ADD MLOAD SWAP1 PUSH1 0x60 DUP7 ADD MLOAD SWAP1 PUSH1 0xA0 DUP8 ADD MLOAD SWAP2 PUSH1 0xC0 DUP9 ADD MLOAD SWAP4 PUSH1 0x1 DUP1 PUSH1 0xA0 SHL SUB PUSH2 0x120 DUP11 ADD MLOAD AND SWAP8 PUSH1 0x40 MLOAD SWAP11 PUSH2 0x10CE DUP13 PUSH2 0x257D JUMP JUMPDEST DUP12 MSTORE PUSH1 0x20 DUP12 ADD MSTORE PUSH1 0x40 DUP11 ADD MSTORE PUSH1 0x60 DUP10 ADD MSTORE PUSH1 0x80 DUP9 ADD MSTORE PUSH1 0xA0 DUP8 ADD MSTORE PUSH1 0xC0 DUP7 ADD MSTORE PUSH1 0xE0 DUP6 ADD MSTORE PUSH2 0x100 DUP5 ADD MSTORE PUSH2 0x120 DUP4 ADD MSTORE PUSH1 0x1 PUSH2 0x140 DUP4 ADD MSTORE PUSH2 0x1112 PUSH1 0x2 SLOAD PUSH2 0x31FE JUMP JUMPDEST PUSH1 0x2 SSTORE DUP1 MLOAD PUSH1 0x3 SLOAD PUSH1 0x1 PUSH1 0x40 SHL DUP2 LT ISZERO PUSH2 0xD52 JUMPI DUP1 PUSH1 0x1 PUSH2 0x1136 SWAP3 ADD PUSH1 0x3 SSTORE PUSH2 0x276A JUMP JUMPDEST SWAP1 SWAP2 DUP3 SLOAD SWAP1 DUP3 PUSH1 0x3 SHL SHL SWAP2 PUSH1 0x0 NOT SWAP1 PUSH1 0x3 SHL SHL NOT AND OR SWAP1 SSTORE DUP1 MLOAD PUSH1 0x0 MSTORE PUSH1 0x0 PUSH1 0x20 MSTORE PUSH1 0x40 PUSH1 0x0 KECCAK256 SWAP1 DUP3 MLOAD DUP3 SSTORE PUSH1 0x20 DUP4 ADD MLOAD SWAP3 DUP4 MLOAD PUSH1 0x1 PUSH1 0x1 PUSH1 0x40 SHL SUB DUP2 GT PUSH2 0xD52 JUMPI PUSH2 0x1192 DUP2 PUSH2 0x1189 PUSH1 0x1 DUP8 ADD SLOAD PUSH2 0x264A JUMP JUMPDEST PUSH1 0x1 DUP8 ADD PUSH2 0x27C0 JUMP JUMPDEST PUSH1 0x20 PUSH1 0x1F DUP3 GT PUSH1 0x1 EQ PUSH2 0x1A94 JUMPI DUP2 SWAP3 SWAP4 SWAP5 SWAP6 PUSH1 0x0 SWAP3 PUSH2 0x1A89 JUMPI JUMPDEST POP POP DUP2 PUSH1 0x1 SHL SWAP2 PUSH1 0x0 NOT SWAP1 PUSH1 0x3 SHL SHR NOT AND OR PUSH1 0x1 DUP5 ADD SSTORE JUMPDEST PUSH1 0x40 DUP2 ADD MLOAD SWAP3 DUP4 MLOAD PUSH1 0x1 PUSH1 0x1 PUSH1 0x40 SHL SUB DUP2 GT PUSH2 0xD52 JUMPI PUSH2 0x11F4 DUP2 PUSH2 0x11EB PUSH1 0x2 DUP6 ADD SLOAD PUSH2 0x264A JUMP JUMPDEST PUSH1 0x2 DUP6 ADD PUSH2 0x27C0 JUMP JUMPDEST PUSH1 0x20 PUSH1 0x1F DUP3 GT PUSH1 0x1 EQ PUSH2 0x1A1A JUMPI DUP2 SWAP3 SWAP4 SWAP5 SWAP6 PUSH1 0x0 SWAP3 PUSH2 0x1A0F JUMPI JUMPDEST POP POP DUP2 PUSH1 0x1 SHL SWAP2 PUSH1 0x0 NOT SWAP1 PUSH1 0x3 SHL SHR NOT AND OR PUSH1 0x2 DUP3 ADD SSTORE JUMPDEST PUSH1 0x60 DUP3 ADD MLOAD SWAP3 DUP4 MLOAD PUSH1 0x1 PUSH1 0x1 PUSH1 0x40 SHL SUB DUP2 GT PUSH2 0xD52 JUMPI PUSH2 0x1256 DUP2 PUSH2 0x124D PUSH1 0x3 DUP7 ADD SLOAD PUSH2 0x264A JUMP JUMPDEST PUSH1 0x3 DUP7 ADD PUSH2 0x27C0 JUMP JUMPDEST PUSH1 0x20 PUSH1 0x1F DUP3 GT PUSH1 0x1 EQ PUSH2 0x19A0 JUMPI DUP2 SWAP3 SWAP4 SWAP5 SWAP6 PUSH1 0x0 SWAP3 PUSH2 0x1995 JUMPI JUMPDEST POP POP DUP2 PUSH1 0x1 SHL SWAP2 PUSH1 0x0 NOT SWAP1 PUSH1 0x3 SHL SHR NOT AND OR PUSH1 0x3 DUP4 ADD SSTORE JUMPDEST PUSH1 0x80 DUP4 ADD MLOAD SWAP3 DUP4 MLOAD PUSH1 0x1 PUSH1 0x1 PUSH1 0x40 SHL SUB DUP2 GT PUSH2 0xD52 JUMPI PUSH2 0x12B8 DUP2 PUSH2 0x12AF PUSH1 0x4 DUP8 ADD SLOAD PUSH2 0x264A JUMP JUMPDEST PUSH1 0x4 DUP8 ADD PUSH2 0x27C0 JUMP JUMPDEST PUSH1 0x20 PUSH1 0x1F DUP3 GT PUSH1 0x1 EQ PUSH2 0x1926 JUMPI DUP2 SWAP3 SWAP4 SWAP5 SWAP6 PUSH1 0x0 SWAP3 PUSH2 0x191B JUMPI JUMPDEST POP POP DUP2 PUSH1 0x1 SHL SWAP2 PUSH1 0x0 NOT SWAP1 PUSH1 0x3 SHL SHR NOT AND OR PUSH1 0x4 DUP5 ADD SSTORE JUMPDEST PUSH1 0xA0 DUP2 ADD MLOAD SWAP3 DUP4 MLOAD PUSH1 0x1 PUSH1 0x1 PUSH1 0x40 SHL SUB DUP2 GT PUSH2 0xD52 JUMPI PUSH2 0x131A DUP2 PUSH2 0x1311 PUSH1 0x5 DUP6 ADD SLOAD PUSH2 0x264A JUMP JUMPDEST PUSH1 0x5 DUP6 ADD PUSH2 0x27C0 JUMP JUMPDEST PUSH1 0x20 PUSH1 0x1F DUP3 GT PUSH1 0x1 EQ PUSH2 0x18AC JUMPI DUP2 SWAP3 SWAP4 SWAP5 SWAP6 PUSH1 0x0 SWAP3 PUSH2 0x18A1 JUMPI JUMPDEST POP POP DUP2 PUSH1 0x1 SHL SWAP2 PUSH1 0x0 NOT SWAP1 PUSH1 0x3 SHL SHR NOT AND OR PUSH1 0x5 DUP3 ADD SSTORE JUMPDEST PUSH1 0xC0 DUP3 ADD MLOAD SWAP3 DUP4 MLOAD PUSH1 0x1 PUSH1 0x1 PUSH1 0x40 SHL SUB DUP2 GT PUSH2 0xD52 JUMPI PUSH2 0x137C DUP2 PUSH2 0x1373 PUSH1 0x6 DUP7 ADD SLOAD PUSH2 0x264A JUMP JUMPDEST PUSH1 0x6 DUP7 ADD PUSH2 0x27C0 JUMP JUMPDEST PUSH1 0x20 PUSH1 0x1F DUP3 GT PUSH1 0x1 EQ PUSH2 0x1832 JUMPI DUP2 SWAP3 SWAP4 SWAP5 SWAP6 PUSH1 0x0 SWAP3 PUSH2 0x1827 JUMPI JUMPDEST POP POP DUP2 PUSH1 0x1 SHL SWAP2 PUSH1 0x0 NOT SWAP1 PUSH1 0x3 SHL SHR NOT AND OR PUSH1 0x6 DUP4 ADD SSTORE JUMPDEST PUSH1 0xE0 DUP4 ADD MLOAD SWAP3 DUP4 MLOAD PUSH1 0x1 PUSH1 0x1 PUSH1 0x40 SHL SUB DUP2 GT PUSH2 0xD52 JUMPI PUSH2 0x13DE DUP2 PUSH2 0x13D5 PUSH1 0x7 DUP8 ADD SLOAD PUSH2 0x264A JUMP JUMPDEST PUSH1 0x7 DUP8 ADD PUSH2 0x27C0 JUMP JUMPDEST PUSH1 0x20 PUSH1 0x1F DUP3 GT PUSH1 0x1 EQ PUSH2 0x17B8 JUMPI DUP2 SWAP3 SWAP4 SWAP5 SWAP6 PUSH1 0x0 SWAP3 PUSH2 0x17AD JUMPI JUMPDEST POP POP DUP2 PUSH1 0x1 SHL SWAP2 PUSH1 0x0 NOT SWAP1 PUSH1 0x3 SHL SHR NOT AND OR PUSH1 0x7 DUP5 ADD SSTORE JUMPDEST PUSH2 0x100 DUP2 ADD MLOAD SWAP3 DUP4 MLOAD PUSH1 0x1 PUSH1 0x1 PUSH1 0x40 SHL SUB DUP2 GT PUSH2 0xD52 JUMPI PUSH2 0x1441 DUP2 PUSH2 0x1438 PUSH1 0x8 DUP6 ADD SLOAD PUSH2 0x264A JUMP JUMPDEST PUSH1 0x8 DUP6 ADD PUSH2 0x27C0 JUMP JUMPDEST PUSH1 0x20 PUSH1 0x1F DUP3 GT PUSH1 0x1 EQ PUSH2 0x173A JUMPI DUP2 SWAP1 PUSH1 0x9 SWAP5 SWAP6 SWAP7 PUSH1 0x0 SWAP3 PUSH2 0x172F JUMPI JUMPDEST POP POP DUP2 PUSH1 0x1 SHL SWAP2 PUSH1 0x0 NOT SWAP1 PUSH1 0x3 SHL SHR NOT AND OR PUSH1 0x8 DUP3 ADD SSTORE JUMPDEST PUSH2 0x120 DUP1 DUP5 ADD MLOAD SWAP3 SWAP1 SWAP2 ADD DUP1 SLOAD PUSH2 0x140 SWAP1 SWAP5 ADD MLOAD PUSH1 0x1 PUSH1 0x1 PUSH1 0xA8 SHL SUB NOT SWAP1 SWAP5 AND PUSH1 0x1 PUSH1 0x1 PUSH1 0xA0 SHL SUB SWAP4 DUP5 AND OR SWAP4 ISZERO ISZERO PUSH1 0xA0 SHL PUSH1 0xFF PUSH1 0xA0 SHL AND SWAP4 SWAP1 SWAP4 OR SWAP1 SWAP3 SSTORE DUP3 MLOAD SWAP2 DUP4 ADD MLOAD AND SWAP1 PUSH32 0xCB4990052F95F6057496D19524F6C3163F50AF9F33F2C15B092928E03414323E PUSH1 0x0 DUP1 LOG3 JUMPDEST PUSH1 0x4 SLOAD DUP1 PUSH1 0x4 CALLDATALOAD LT ISZERO PUSH2 0x16FA JUMPI PUSH1 0x0 NOT SWAP1 DUP1 DUP3 ADD SWAP1 DUP2 GT PUSH2 0x16E4 JUMPI PUSH2 0x1506 SWAP1 PUSH2 0x262B JUMP JUMPDEST POP PUSH2 0x1512 PUSH1 0x4 CALLDATALOAD PUSH2 0x262B JUMP JUMPDEST PUSH2 0x15F7 JUMPI DUP2 DUP2 SUB PUSH2 0x1623 JUMPI JUMPDEST POP POP PUSH1 0x4 SLOAD DUP1 ISZERO PUSH2 0x160D JUMPI ADD PUSH2 0x1533 DUP2 PUSH2 0x262B JUMP JUMPDEST PUSH2 0x15F7 JUMPI PUSH1 0xA DUP2 PUSH1 0x0 PUSH2 0x15AE SWAP4 SSTORE PUSH2 0x154D PUSH1 0x1 DUP3 ADD PUSH2 0x32E5 JUMP JUMPDEST PUSH2 0x1559 PUSH1 0x2 DUP3 ADD PUSH2 0x32E5 JUMP JUMPDEST PUSH2 0x1565 PUSH1 0x3 DUP3 ADD PUSH2 0x32E5 JUMP JUMPDEST PUSH2 0x1571 PUSH1 0x4 DUP3 ADD PUSH2 0x32E5 JUMP JUMPDEST PUSH2 0x157D PUSH1 0x5 DUP3 ADD PUSH2 0x32E5 JUMP JUMPDEST PUSH2 0x1589 PUSH1 0x6 DUP3 ADD PUSH2 0x32E5 JUMP JUMPDEST PUSH2 0x1595 PUSH1 0x7 DUP3 ADD PUSH2 0x32E5 JUMP JUMPDEST PUSH2 0x15A1 PUSH1 0x8 DUP3 ADD PUSH2 0x32E5 JUMP JUMPDEST PUSH1 0x0 PUSH1 0x9 DUP3 ADD SSTORE ADD PUSH2 0x32E5 JUMP JUMPDEST PUSH1 0x4 SSTORE PUSH2 0x140 DUP2 MLOAD SWAP2 ADD MLOAD SWAP1 PUSH32 0xBF3747916BBE426E0FD532A54A21BCF371C5CA55C33ADBFD8B43756BB1BEA938 PUSH1 0x40 MLOAD PUSH1 0x20 DUP2 MSTORE DUP1 PUSH2 0x15F2 CALLER SWAP6 PUSH1 0x20 DUP4 ADD SWAP1 PUSH2 0x272A JUMP JUMPDEST SUB SWAP1 LOG3 STOP JUMPDEST PUSH4 0x4E487B71 PUSH1 0xE0 SHL PUSH1 0x0 MSTORE PUSH1 0x0 PUSH1 0x4 MSTORE PUSH1 0x24 PUSH1 0x0 REVERT JUMPDEST PUSH4 0x4E487B71 PUSH1 0xE0 SHL PUSH1 0x0 MSTORE PUSH1 0x31 PUSH1 0x4 MSTORE PUSH1 0x24 PUSH1 0x0 REVERT JUMPDEST PUSH1 0xA DUP1 DUP4 PUSH2 0x16DD SWAP5 SLOAD DUP5 SSTORE PUSH2 0x163E PUSH1 0x1 DUP3 ADD PUSH1 0x1 DUP7 ADD PUSH2 0x320D JUMP JUMPDEST PUSH2 0x164E PUSH1 0x2 DUP3 ADD PUSH1 0x2 DUP7 ADD PUSH2 0x320D JUMP JUMPDEST PUSH2 0x165E PUSH1 0x3 DUP3 ADD PUSH1 0x3 DUP7 ADD PUSH2 0x320D JUMP JUMPDEST PUSH2 0x166E PUSH1 0x4 DUP3 ADD PUSH1 0x4 DUP7 ADD PUSH2 0x320D JUMP JUMPDEST PUSH2 0x167E PUSH1 0x5 DUP3 ADD PUSH1 0x5 DUP7 ADD PUSH2 0x320D JUMP JUMPDEST PUSH2 0x168E PUSH1 0x6 DUP3 ADD PUSH1 0x6 DUP7 ADD PUSH2 0x320D JUMP JUMPDEST PUSH2 0x169E PUSH1 0x7 DUP3 ADD PUSH1 0x7 DUP7 ADD PUSH2 0x320D JUMP JUMPDEST PUSH2 0x16AE PUSH1 0x8 DUP3 ADD PUSH1 0x8 DUP7 ADD PUSH2 0x320D JUMP JUMPDEST PUSH1 0x9 DUP2 DUP2 ADD SLOAD SWAP1 DUP6 ADD DUP1 SLOAD PUSH1 0x1 PUSH1 0x1 PUSH1 0xA0 SHL SUB NOT AND PUSH1 0x1 PUSH1 0x1 PUSH1 0xA0 SHL SUB SWAP3 SWAP1 SWAP3 AND SWAP2 SWAP1 SWAP2 OR SWAP1 SSTORE ADD SWAP2 ADD PUSH2 0x320D JUMP JUMPDEST DUP3 DUP1 PUSH2 0x151E JUMP JUMPDEST PUSH4 0x4E487B71 PUSH1 0xE0 SHL PUSH1 0x0 MSTORE PUSH1 0x11 PUSH1 0x4 MSTORE PUSH1 0x24 PUSH1 0x0 REVERT JUMPDEST PUSH1 0x40 MLOAD PUSH3 0x461BCD PUSH1 0xE5 SHL DUP2 MSTORE PUSH1 0x20 PUSH1 0x4 DUP3 ADD MSTORE PUSH1 0xD PUSH1 0x24 DUP3 ADD MSTORE PUSH13 0x92DCECC2D8D2C840D2DCC8CAF PUSH1 0x9B SHL PUSH1 0x44 DUP3 ADD MSTORE PUSH1 0x64 SWAP1 REVERT JUMPDEST ADD MLOAD SWAP1 POP DUP7 DUP1 PUSH2 0x145D JUMP JUMPDEST PUSH1 0x8 DUP4 ADD PUSH1 0x0 MSTORE PUSH1 0x20 PUSH1 0x0 KECCAK256 SWAP6 PUSH1 0x0 JUMPDEST PUSH1 0x1F NOT DUP5 AND DUP2 LT PUSH2 0x1795 JUMPI POP SWAP6 DUP3 SWAP2 PUSH1 0x9 SWAP6 SWAP7 SWAP8 PUSH1 0x1 SWAP5 PUSH1 0x1F NOT DUP2 AND LT PUSH2 0x177C JUMPI JUMPDEST POP POP POP DUP2 SHL ADD PUSH1 0x8 DUP3 ADD SSTORE PUSH2 0x1475 JUMP JUMPDEST ADD MLOAD PUSH1 0x0 NOT PUSH1 0xF8 DUP5 PUSH1 0x3 SHL AND SHR NOT AND SWAP1 SSTORE DUP7 DUP1 DUP1 PUSH2 0x176C JUMP JUMPDEST DUP3 DUP3 ADD MLOAD DUP9 SSTORE PUSH1 0x1 SWAP1 SWAP8 ADD SWAP7 PUSH1 0x20 SWAP3 DUP4 ADD SWAP3 ADD PUSH2 0x174A JUMP JUMPDEST ADD MLOAD SWAP1 POP DUP6 DUP1 PUSH2 0x13F8 JUMP JUMPDEST PUSH1 0x7 DUP6 ADD PUSH1 0x0 MSTORE PUSH1 0x20 PUSH1 0x0 KECCAK256 SWAP1 PUSH1 0x0 JUMPDEST PUSH1 0x1F NOT DUP5 AND DUP2 LT PUSH2 0x180F JUMPI POP PUSH1 0x1 SWAP4 SWAP5 SWAP6 SWAP7 DUP4 PUSH1 0x1F NOT DUP2 AND LT PUSH2 0x17F6 JUMPI JUMPDEST POP POP POP DUP2 SHL ADD PUSH1 0x7 DUP5 ADD SSTORE PUSH2 0x1410 JUMP JUMPDEST ADD MLOAD PUSH1 0x0 NOT PUSH1 0xF8 DUP5 PUSH1 0x3 SHL AND SHR NOT AND SWAP1 SSTORE DUP6 DUP1 DUP1 PUSH2 0x17E6 JUMP JUMPDEST SWAP1 SWAP2 PUSH1 0x20 PUSH1 0x1 DUP2 SWAP3 DUP6 DUP12 ADD MLOAD DUP2 SSTORE ADD SWAP4 ADD SWAP2 ADD PUSH2 0x17C8 JUMP JUMPDEST ADD MLOAD SWAP1 POP DUP6 DUP1 PUSH2 0x1396 JUMP JUMPDEST PUSH1 0x6 DUP5 ADD PUSH1 0x0 MSTORE PUSH1 0x20 PUSH1 0x0 KECCAK256 SWAP1 PUSH1 0x0 JUMPDEST PUSH1 0x1F NOT DUP5 AND DUP2 LT PUSH2 0x1889 JUMPI POP PUSH1 0x1 SWAP4 SWAP5 SWAP6 SWAP7 DUP4 PUSH1 0x1F NOT DUP2 AND LT PUSH2 0x1870 JUMPI JUMPDEST POP POP POP DUP2 SHL ADD PUSH1 0x6 DUP4 ADD SSTORE PUSH2 0x13AE JUMP JUMPDEST ADD MLOAD PUSH1 0x0 NOT PUSH1 0xF8 DUP5 PUSH1 0x3 SHL AND SHR NOT AND SWAP1 SSTORE DUP6 DUP1 DUP1 PUSH2 0x1860 JUMP JUMPDEST SWAP1 SWAP2 PUSH1 0x20 PUSH1 0x1 DUP2 SWAP3 DUP6 DUP12 ADD MLOAD DUP2 SSTORE ADD SWAP4 ADD SWAP2 ADD PUSH2 0x1842 JUMP JUMPDEST ADD MLOAD SWAP1 POP DUP6 DUP1 PUSH2 0x1334 JUMP JUMPDEST PUSH1 0x5 DUP4 ADD PUSH1 0x0 MSTORE PUSH1 0x20 PUSH1 0x0 KECCAK256 SWAP1 PUSH1 0x0 JUMPDEST PUSH1 0x1F NOT DUP5 AND DUP2 LT PUSH2 0x1903 JUMPI POP PUSH1 0x1 SWAP4 SWAP5 SWAP6 SWAP7 DUP4 PUSH1 0x1F NOT DUP2 AND LT PUSH2 0x18EA JUMPI JUMPDEST POP POP POP DUP2 SHL ADD PUSH1 0x5 DUP3 ADD SSTORE PUSH2 0x134C JUMP JUMPDEST ADD MLOAD PUSH1 0x0 NOT PUSH1 0xF8 DUP5 PUSH1 0x3 SHL AND SHR NOT AND SWAP1 SSTORE DUP6 DUP1 DUP1 PUSH2 0x18DA JUMP JUMPDEST SWAP1 SWAP2 PUSH1 0x20 PUSH1 0x1 DUP2 SWAP3 DUP6 DUP12 ADD MLOAD DUP2 SSTORE ADD SWAP4 ADD SWAP2 ADD PUSH2 0x18BC JUMP JUMPDEST ADD MLOAD SWAP1 POP DUP6 DUP1 PUSH2 0x12D2 JUMP JUMPDEST PUSH1 0x4 DUP6 ADD PUSH1 0x0 MSTORE PUSH1 0x20 PUSH1 0x0 KECCAK256 SWAP1 PUSH1 0x0 JUMPDEST PUSH1 0x1F NOT DUP5 AND DUP2 LT PUSH2 0x197D JUMPI POP PUSH1 0x1 SWAP4 SWAP5 SWAP6 SWAP7 DUP4 PUSH1 0x1F NOT DUP2 AND LT PUSH2 0x1964 JUMPI JUMPDEST POP POP POP DUP2 SHL ADD PUSH1 0x4 DUP5 ADD SSTORE PUSH2 0x12EA JUMP JUMPDEST ADD MLOAD PUSH1 0x0 NOT PUSH1 0xF8 DUP5 PUSH1 0x3 SHL AND SHR NOT AND SWAP1 SSTORE DUP6 DUP1 DUP1 PUSH2 0x1954 JUMP JUMPDEST SWAP1 SWAP2 PUSH1 0x20 PUSH1 0x1 DUP2 SWAP3 DUP6 DUP12 ADD MLOAD DUP2 SSTORE ADD SWAP4 ADD SWAP2 ADD PUSH2 0x1936 JUMP JUMPDEST ADD MLOAD SWAP1 POP DUP6 DUP1 PUSH2 0x1270 JUMP JUMPDEST PUSH1 0x3 DUP5 ADD PUSH1 0x0 MSTORE PUSH1 0x20 PUSH1 0x0 KECCAK256 SWAP1 PUSH1 0x0 JUMPDEST PUSH1 0x1F NOT DUP5 AND DUP2 LT PUSH2 0x19F7 JUMPI POP PUSH1 0x1 SWAP4 SWAP5 SWAP6 SWAP7 DUP4 PUSH1 0x1F NOT DUP2 AND LT PUSH2 0x19DE JUMPI JUMPDEST POP POP POP DUP2 SHL ADD PUSH1 0x3 DUP4 ADD SSTORE PUSH2 0x1288 JUMP JUMPDEST ADD MLOAD PUSH1 0x0 NOT PUSH1 0xF8 DUP5 PUSH1 0x3 SHL AND SHR NOT AND SWAP1 SSTORE DUP6 DUP1 DUP1 PUSH2 0x19CE JUMP JUMPDEST SWAP1 SWAP2 PUSH1 0x20 PUSH1 0x1 DUP2 SWAP3 DUP6 DUP12 ADD MLOAD DUP2 SSTORE ADD SWAP4 ADD SWAP2 ADD PUSH2 0x19B0 JUMP JUMPDEST ADD MLOAD SWAP1 POP DUP6 DUP1 PUSH2 0x120E JUMP JUMPDEST PUSH1 0x2 DUP4 ADD PUSH1 0x0 MSTORE PUSH1 0x20 PUSH1 0x0 KECCAK256 SWAP1 PUSH1 0x0 JUMPDEST PUSH1 0x1F NOT DUP5 AND DUP2 LT PUSH2 0x1A71 JUMPI POP PUSH1 0x1 SWAP4 SWAP5 SWAP6 SWAP7 DUP4 PUSH1 0x1F NOT DUP2 AND LT PUSH2 0x1A58 JUMPI JUMPDEST POP POP POP DUP2 SHL ADD PUSH1 0x2 DUP3 ADD SSTORE PUSH2 0x1226 JUMP JUMPDEST ADD MLOAD PUSH1 0x0 NOT PUSH1 0xF8 DUP5 PUSH1 0x3 SHL AND SHR NOT AND SWAP1 SSTORE DUP6 DUP1 DUP1 PUSH2 0x1A48 JUMP JUMPDEST SWAP1 SWAP2 PUSH1 0x20 PUSH1 0x1 DUP2 SWAP3 DUP6 DUP12 ADD MLOAD DUP2 SSTORE ADD SWAP4 ADD SWAP2 ADD PUSH2 0x1A2A JUMP JUMPDEST ADD MLOAD SWAP1 POP DUP6 DUP1 PUSH2 0x11AC JUMP JUMPDEST PUSH1 0x1 DUP6 ADD PUSH1 0x0 MSTORE PUSH1 0x20 PUSH1 0x0 KECCAK256 SWAP1 PUSH1 0x0 JUMPDEST PUSH1 0x1F NOT DUP5 AND DUP2 LT PUSH2 0x1AEB JUMPI POP PUSH1 0x1 SWAP4 SWAP5 SWAP6 SWAP7 DUP4 PUSH1 0x1F NOT DUP2 AND LT PUSH2 0x1AD2 JUMPI JUMPDEST POP POP POP DUP2 SHL ADD PUSH1 0x1 DUP5 ADD SSTORE PUSH2 0x11C4 JUMP JUMPDEST ADD MLOAD PUSH1 0x0 NOT PUSH1 0xF8 DUP5 PUSH1 0x3 SHL AND SHR NOT AND SWAP1 SSTORE DUP6 DUP1 DUP1 PUSH2 0x1AC2 JUMP JUMPDEST SWAP1 SWAP2 PUSH1 0x20 PUSH1 0x1 DUP2 SWAP3 DUP6 DUP12 ADD MLOAD DUP2 SSTORE ADD SWAP4 ADD SWAP2 ADD PUSH2 0x1AA4 JUMP JUMPDEST PUSH2 0x140 DUP2 ADD MLOAD PUSH1 0x20 DUP2 MLOAD SWAP2 ADD KECCAK256 PUSH2 0x1B18 PUSH2 0x3100 JUMP JUMPDEST PUSH1 0x20 DUP2 MLOAD SWAP2 ADD KECCAK256 SUB PUSH2 0x14E2 JUMPI DUP1 MLOAD PUSH1 0x0 MSTORE PUSH1 0x0 PUSH1 0x20 MSTORE PUSH1 0x1 DUP1 PUSH1 0xA0 SHL SUB PUSH1 0x9 PUSH1 0x40 PUSH1 0x0 KECCAK256 ADD SLOAD AND DUP2 MLOAD PUSH1 0x0 MSTORE PUSH1 0x1 PUSH1 0x20 MSTORE PUSH1 0x1 PUSH1 0x40 PUSH1 0x0 KECCAK256 ADD DUP1 SLOAD SWAP1 PUSH1 0x1 PUSH1 0x40 SHL DUP3 LT ISZERO PUSH2 0xD52 JUMPI PUSH1 0x1 DUP3 ADD DUP1 DUP3 SSTORE DUP3 LT ISZERO PUSH2 0x20FD JUMPI PUSH1 0x0 MSTORE PUSH1 0x20 PUSH1 0x0 KECCAK256 ADD PUSH1 0x1 DUP1 PUSH1 0xA0 SHL SUB NOT SWAP1 DUP3 DUP3 DUP3 SLOAD AND OR SWAP1 SSTORE PUSH1 0x1 DUP1 PUSH1 0xA0 SHL SUB PUSH2 0x120 DUP5 ADD MLOAD AND DUP4 MLOAD PUSH1 0x0 MSTORE PUSH1 0x0 PUSH1 0x20 MSTORE PUSH1 0x9 PUSH1 0x40 PUSH1 0x0 KECCAK256 ADD SWAP2 DUP3 SLOAD AND OR SWAP1 SSTORE PUSH1 0x20 DUP3 ADD MLOAD SWAP2 DUP1 MLOAD PUSH1 0x0 MSTORE PUSH1 0x1 PUSH1 0x40 PUSH1 0x0 KECCAK256 ADD DUP4 MLOAD PUSH1 0x1 PUSH1 0x1 PUSH1 0x40 SHL SUB DUP2 GT PUSH2 0xD52 JUMPI PUSH2 0x1BE0 DUP2 PUSH2 0xC5F DUP5 SLOAD PUSH2 0x264A JUMP JUMPDEST PUSH1 0x20 PUSH1 0x1F DUP3 GT PUSH1 0x1 EQ PUSH2 0x2094 JUMPI DUP2 SWAP3 SWAP4 SWAP5 SWAP6 PUSH1 0x0 SWAP3 PUSH2 0x2089 JUMPI JUMPDEST POP POP DUP2 PUSH1 0x1 SHL SWAP2 PUSH1 0x0 NOT SWAP1 PUSH1 0x3 SHL SHR NOT AND OR SWAP1 SSTORE JUMPDEST PUSH1 0x60 DUP2 ADD MLOAD SWAP2 DUP2 MLOAD PUSH1 0x0 MSTORE PUSH1 0x0 PUSH1 0x20 MSTORE PUSH1 0x3 PUSH1 0x40 PUSH1 0x0 KECCAK256 ADD DUP4 MLOAD PUSH1 0x1 PUSH1 0x1 PUSH1 0x40 SHL SUB DUP2 GT PUSH2 0xD52 JUMPI PUSH2 0x1C45 DUP2 PUSH2 0xC5F DUP5 SLOAD PUSH2 0x264A JUMP JUMPDEST PUSH1 0x20 PUSH1 0x1F DUP3 GT PUSH1 0x1 EQ PUSH2 0x2020 JUMPI DUP2 SWAP3 SWAP4 SWAP5 SWAP6 PUSH1 0x0 SWAP3 PUSH2 0x2015 JUMPI JUMPDEST POP POP DUP2 PUSH1 0x1 SHL SWAP2 PUSH1 0x0 NOT SWAP1 PUSH1 0x3 SHL SHR NOT AND OR SWAP1 SSTORE JUMPDEST PUSH1 0x80 DUP3 ADD MLOAD SWAP2 DUP1 MLOAD PUSH1 0x0 MSTORE PUSH1 0x0 PUSH1 0x20 MSTORE PUSH1 0x4 PUSH1 0x40 PUSH1 0x0 KECCAK256 ADD DUP4 MLOAD PUSH1 0x1 PUSH1 0x1 PUSH1 0x40 SHL SUB DUP2 GT PUSH2 0xD52 JUMPI PUSH2 0x1CAA DUP2 PUSH2 0xC5F DUP5 SLOAD PUSH2 0x264A JUMP JUMPDEST PUSH1 0x20 PUSH1 0x1F DUP3 GT PUSH1 0x1 EQ PUSH2 0x1FAC JUMPI DUP2 SWAP3 SWAP4 SWAP5 SWAP6 PUSH1 0x0 SWAP3 PUSH2 0x1FA1 JUMPI JUMPDEST POP POP DUP2 PUSH1 0x1 SHL SWAP2 PUSH1 0x0 NOT SWAP1 PUSH1 0x3 SHL SHR NOT AND OR SWAP1 SSTORE JUMPDEST PUSH1 0x40 DUP2 ADD MLOAD SWAP2 DUP2 MLOAD PUSH1 0x0 MSTORE PUSH1 0x0 PUSH1 0x20 MSTORE PUSH1 0x2 PUSH1 0x40 PUSH1 0x0 KECCAK256 ADD DUP4 MLOAD PUSH1 0x1 PUSH1 0x1 PUSH1 0x40 SHL SUB DUP2 GT PUSH2 0xD52 JUMPI PUSH2 0x1D0F DUP2 PUSH2 0xC5F DUP5 SLOAD PUSH2 0x264A JUMP JUMPDEST PUSH1 0x20 PUSH1 0x1F DUP3 GT PUSH1 0x1 EQ PUSH2 0x1F38 JUMPI DUP2 SWAP3 SWAP4 SWAP5 SWAP6 PUSH1 0x0 SWAP3 PUSH2 0x1F2D JUMPI JUMPDEST POP POP DUP2 PUSH1 0x1 SHL SWAP2 PUSH1 0x0 NOT SWAP1 PUSH1 0x3 SHL SHR NOT AND OR SWAP1 SSTORE JUMPDEST PUSH1 0xC0 DUP3 ADD MLOAD SWAP2 DUP1 MLOAD PUSH1 0x0 MSTORE PUSH1 0x0 PUSH1 0x20 MSTORE PUSH1 0x6 PUSH1 0x40 PUSH1 0x0 KECCAK256 ADD DUP4 MLOAD PUSH1 0x1 PUSH1 0x1 PUSH1 0x40 SHL SUB DUP2 GT PUSH2 0xD52 JUMPI PUSH2 0x1D74 DUP2 PUSH2 0xC5F DUP5 SLOAD PUSH2 0x264A JUMP JUMPDEST PUSH1 0x20 PUSH1 0x1F DUP3 GT PUSH1 0x1 EQ PUSH2 0x1EC4 JUMPI DUP2 SWAP3 SWAP4 SWAP5 SWAP6 PUSH1 0x0 SWAP3 PUSH2 0x1EB9 JUMPI JUMPDEST POP POP DUP2 PUSH1 0x1 SHL SWAP2 PUSH1 0x0 NOT SWAP1 PUSH1 0x3 SHL SHR NOT AND OR SWAP1 SSTORE JUMPDEST PUSH1 0xA0 DUP2 ADD MLOAD SWAP2 DUP2 MLOAD PUSH1 0x0 MSTORE PUSH1 0x0 PUSH1 0x20 MSTORE PUSH1 0x5 PUSH1 0x40 PUSH1 0x0 KECCAK256 ADD DUP4 MLOAD PUSH1 0x1 PUSH1 0x1 PUSH1 0x40 SHL SUB DUP2 GT PUSH2 0xD52 JUMPI PUSH2 0x1DD9 DUP2 PUSH2 0xC5F DUP5 SLOAD PUSH2 0x264A JUMP JUMPDEST PUSH1 0x20 PUSH1 0x1F DUP3 GT PUSH1 0x1 EQ PUSH2 0x1E50 JUMPI DUP2 SWAP3 SWAP4 SWAP5 SWAP6 PUSH1 0x0 SWAP3 PUSH2 0x1E45 JUMPI JUMPDEST POP POP DUP2 PUSH1 0x1 SHL SWAP2 PUSH1 0x0 NOT SWAP1 PUSH1 0x3 SHL SHR NOT AND OR SWAP1 SSTORE JUMPDEST DUP2 MLOAD PUSH2 0x120 DUP4 ADD MLOAD PUSH1 0x1 PUSH1 0x1 PUSH1 0xA0 SHL SUB AND SWAP2 SWAP1 PUSH32 0x1080B2F211753E5090F26EF7FFDC6BB3E66A125C7290200D10B502160BB1F566 PUSH1 0x0 DUP1 LOG4 PUSH2 0x14E2 JUMP JUMPDEST ADD MLOAD SWAP1 POP DUP6 DUP1 PUSH2 0x1DF3 JUMP JUMPDEST DUP3 PUSH1 0x0 MSTORE PUSH1 0x20 PUSH1 0x0 KECCAK256 SWAP1 PUSH1 0x0 JUMPDEST PUSH1 0x1F NOT DUP5 AND DUP2 LT PUSH2 0x1EA1 JUMPI POP PUSH1 0x1 SWAP4 SWAP5 SWAP6 SWAP7 DUP4 PUSH1 0x1F NOT DUP2 AND LT PUSH2 0x1E88 JUMPI JUMPDEST POP POP POP DUP2 SHL ADD SWAP1 SSTORE PUSH2 0x1E08 JUMP JUMPDEST ADD MLOAD PUSH1 0x0 NOT PUSH1 0xF8 DUP5 PUSH1 0x3 SHL AND SHR NOT AND SWAP1 SSTORE DUP6 DUP1 DUP1 PUSH2 0x1E7B JUMP JUMPDEST SWAP1 SWAP2 PUSH1 0x20 PUSH1 0x1 DUP2 SWAP3 DUP6 DUP12 ADD MLOAD DUP2 SSTORE ADD SWAP4 ADD SWAP2 ADD PUSH2 0x1E5D JUMP JUMPDEST ADD MLOAD SWAP1 POP DUP6 DUP1 PUSH2 0x1D8E JUMP JUMPDEST DUP3 PUSH1 0x0 MSTORE PUSH1 0x20 PUSH1 0x0 KECCAK256 SWAP1 PUSH1 0x0 JUMPDEST PUSH1 0x1F NOT DUP5 AND DUP2 LT PUSH2 0x1F15 JUMPI POP PUSH1 0x1 SWAP4 SWAP5 SWAP6 SWAP7 DUP4 PUSH1 0x1F NOT DUP2 AND LT PUSH2 0x1EFC JUMPI JUMPDEST POP POP POP DUP2 SHL ADD SWAP1 SSTORE PUSH2 0x1DA3 JUMP JUMPDEST ADD MLOAD PUSH1 0x0 NOT PUSH1 0xF8 DUP5 PUSH1 0x3 SHL AND SHR NOT AND SWAP1 SSTORE DUP6 DUP1 DUP1 PUSH2 0x1EEF JUMP JUMPDEST SWAP1 SWAP2 PUSH1 0x20 PUSH1 0x1 DUP2 SWAP3 DUP6 DUP12 ADD MLOAD DUP2 SSTORE ADD SWAP4 ADD SWAP2 ADD PUSH2 0x1ED1 JUMP JUMPDEST ADD MLOAD SWAP1 POP DUP6 DUP1 PUSH2 0x1D29 JUMP JUMPDEST DUP3 PUSH1 0x0 MSTORE PUSH1 0x20 PUSH1 0x0 KECCAK256 SWAP1 PUSH1 0x0 JUMPDEST PUSH1 0x1F NOT DUP5 AND DUP2 LT PUSH2 0x1F89 JUMPI POP PUSH1 0x1 SWAP4 SWAP5 SWAP6 SWAP7 DUP4 PUSH1 0x1F NOT DUP2 AND LT PUSH2 0x1F70 JUMPI JUMPDEST POP POP POP DUP2 SHL ADD SWAP1 SSTORE PUSH2 0x1D3E JUMP JUMPDEST ADD MLOAD PUSH1 0x0 NOT PUSH1 0xF8 DUP5 PUSH1 0x3 SHL AND SHR NOT AND SWAP1 SSTORE DUP6 DUP1 DUP1 PUSH2 0x1F63 JUMP JUMPDEST SWAP1 SWAP2 PUSH1 0x20 PUSH1 0x1 DUP2 SWAP3 DUP6 DUP12 ADD MLOAD DUP2 SSTORE ADD SWAP4 ADD SWAP2 ADD PUSH2 0x1F45 JUMP JUMPDEST ADD MLOAD SWAP1 POP DUP6 DUP1 PUSH2 0x1CC4 JUMP JUMPDEST DUP3 PUSH1 0x0 MSTORE PUSH1 0x20 PUSH1 0x0 KECCAK256 SWAP1 PUSH1 0x0 JUMPDEST PUSH1 0x1F NOT DUP5 AND DUP2 LT PUSH2 0x1FFD JUMPI POP PUSH1 0x1 SWAP4 SWAP5 SWAP6 SWAP7 DUP4 PUSH1 0x1F NOT DUP2 AND LT PUSH2 0x1FE4 JUMPI JUMPDEST POP POP POP DUP2 SHL ADD SWAP1 SSTORE PUSH2 0x1CD9 JUMP JUMPDEST ADD MLOAD PUSH1 0x0 NOT PUSH1 0xF8 DUP5 PUSH1 0x3 SHL AND SHR NOT AND SWAP1 SSTORE DUP6 DUP1 DUP1 PUSH2 0x1FD7 JUMP JUMPDEST SWAP1 SWAP2 PUSH1 0x20 PUSH1 0x1 DUP2 SWAP3 DUP6 DUP12 ADD MLOAD DUP2 SSTORE ADD SWAP4 ADD SWAP2 ADD PUSH2 0x1FB9 JUMP JUMPDEST ADD MLOAD SWAP1 POP DUP6 DUP1 PUSH2 0x1C5F JUMP JUMPDEST DUP3 PUSH1 0x0 MSTORE PUSH1 0x20 PUSH1 0x0 KECCAK256 SWAP1 PUSH1 0x0 JUMPDEST PUSH1 0x1F NOT DUP5 AND DUP2 LT PUSH2 0x2071 JUMPI POP PUSH1 0x1 SWAP4 SWAP5 SWAP6 SWAP7 DUP4 PUSH1 0x1F NOT DUP2 AND LT PUSH2 0x2058 JUMPI JUMPDEST POP POP POP DUP2 SHL ADD SWAP1 SSTORE PUSH2 0x1C74 JUMP JUMPDEST ADD MLOAD PUSH1 0x0 NOT PUSH1 0xF8 DUP5 PUSH1 0x3 SHL AND SHR NOT AND SWAP1 SSTORE DUP6 DUP1 DUP1 PUSH2 0x204B JUMP JUMPDEST SWAP1 SWAP2 PUSH1 0x20 PUSH1 0x1 DUP2 SWAP3 DUP6 DUP12 ADD MLOAD DUP2 SSTORE ADD SWAP4 ADD SWAP2 ADD PUSH2 0x202D JUMP JUMPDEST ADD MLOAD SWAP1 POP DUP6 DUP1 PUSH2 0x1BFA JUMP JUMPDEST DUP3 PUSH1 0x0 MSTORE PUSH1 0x20 PUSH1 0x0 KECCAK256 SWAP1 PUSH1 0x0 JUMPDEST PUSH1 0x1F NOT DUP5 AND DUP2 LT PUSH2 0x20E5 JUMPI POP PUSH1 0x1 SWAP4 SWAP5 SWAP6 SWAP7 DUP4 PUSH1 0x1F NOT DUP2 AND LT PUSH2 0x20CC JUMPI JUMPDEST POP POP POP DUP2 SHL ADD SWAP1 SSTORE PUSH2 0x1C0F JUMP JUMPDEST ADD MLOAD PUSH1 0x0 NOT PUSH1 0xF8 DUP5 PUSH1 0x3 SHL AND SHR NOT AND SWAP1 SSTORE DUP6 DUP1 DUP1 PUSH2 0x20BF JUMP JUMPDEST SWAP1 SWAP2 PUSH1 0x20 PUSH1 0x1 DUP2 SWAP3 DUP6 DUP12 ADD MLOAD DUP2 SSTORE ADD SWAP4 ADD SWAP2 ADD PUSH2 0x20A1 JUMP JUMPDEST PUSH4 0x4E487B71 PUSH1 0xE0 SHL PUSH1 0x0 MSTORE PUSH1 0x32 PUSH1 0x4 MSTORE PUSH1 0x24 PUSH1 0x0 REVERT JUMPDEST CALLVALUE PUSH2 0x245 JUMPI PUSH2 0x120 CALLDATASIZE PUSH1 0x3 NOT ADD SLT PUSH2 0x245 JUMPI PUSH1 0x1 PUSH1 0x1 PUSH1 0x40 SHL SUB PUSH1 0x4 CALLDATALOAD DUP2 DUP2 GT PUSH2 0x245 JUMPI PUSH2 0x2145 SWAP1 CALLDATASIZE SWAP1 PUSH1 0x4 ADD PUSH2 0x25D5 JUMP JUMPDEST PUSH1 0x24 CALLDATALOAD PUSH1 0x44 CALLDATALOAD DUP4 DUP2 GT PUSH2 0x245 JUMPI PUSH2 0x2160 SWAP1 CALLDATASIZE SWAP1 PUSH1 0x4 ADD PUSH2 0x25D5 JUMP JUMPDEST PUSH1 0x64 CALLDATALOAD DUP5 DUP2 GT PUSH2 0x245 JUMPI PUSH2 0x2178 SWAP1 CALLDATASIZE SWAP1 PUSH1 0x4 ADD PUSH2 0x25D5 JUMP JUMPDEST SWAP1 PUSH1 0x84 CALLDATALOAD DUP6 DUP2 GT PUSH2 0x245 JUMPI PUSH2 0x2191 SWAP1 CALLDATASIZE SWAP1 PUSH1 0x4 ADD PUSH2 0x25D5 JUMP JUMPDEST SWAP5 PUSH1 0xA4 CALLDATALOAD DUP2 DUP2 GT PUSH2 0x245 JUMPI PUSH2 0x21AA SWAP1 CALLDATASIZE SWAP1 PUSH1 0x4 ADD PUSH2 0x25D5 JUMP JUMPDEST SWAP1 PUSH1 0xC4 CALLDATALOAD DUP2 DUP2 GT PUSH2 0x245 JUMPI PUSH2 0x21C3 SWAP1 CALLDATASIZE SWAP1 PUSH1 0x4 ADD PUSH2 0x25D5 JUMP JUMPDEST SWAP2 PUSH1 0xE4 CALLDATALOAD DUP3 DUP2 GT PUSH2 0x245 JUMPI PUSH2 0x21DC SWAP1 CALLDATASIZE SWAP1 PUSH1 0x4 ADD PUSH2 0x25D5 JUMP JUMPDEST SWAP2 PUSH2 0x104 CALLDATALOAD SWAP1 DUP2 GT PUSH2 0x245 JUMPI PUSH2 0x21F6 SWAP1 CALLDATASIZE SWAP1 PUSH1 0x4 ADD PUSH2 0x25D5 JUMP JUMPDEST SWAP3 DUP7 PUSH1 0x0 MSTORE PUSH1 0x0 PUSH1 0x20 MSTORE PUSH1 0xFF PUSH1 0x9 PUSH1 0x40 PUSH1 0x0 KECCAK256 ADD SLOAD PUSH1 0xA0 SHR AND PUSH2 0x2229 JUMPI PUSH2 0x2227 SWAP9 PUSH2 0x221F PUSH2 0x2785 JUMP JUMPDEST SWAP9 CALLER SWAP9 PUSH2 0x2805 JUMP JUMPDEST STOP JUMPDEST PUSH1 0x40 MLOAD PUSH3 0x461BCD PUSH1 0xE5 SHL DUP2 MSTORE PUSH1 0x20 PUSH1 0x4 DUP3 ADD MSTORE PUSH1 0x1A PUSH1 0x24 DUP3 ADD MSTORE PUSH32 0x4C616E6420697320416C72656164792052656769737465726564000000000000 PUSH1 0x44 DUP3 ADD MSTORE PUSH1 0x64 SWAP1 REVERT JUMPDEST CALLVALUE PUSH2 0x245 JUMPI PUSH1 0x20 CALLDATASIZE PUSH1 0x3 NOT ADD SLT PUSH2 0x245 JUMPI PUSH1 0x4 CALLDATALOAD PUSH1 0x4 SLOAD DUP2 LT ISZERO PUSH2 0x245 JUMPI PUSH2 0x2295 SWAP1 PUSH2 0x262B JUMP JUMPDEST POP DUP1 SLOAD PUSH2 0x22A4 PUSH1 0x1 DUP4 ADD PUSH2 0x2684 JUMP JUMPDEST SWAP2 PUSH2 0x22B1 PUSH1 0x2 DUP3 ADD PUSH2 0x2684 JUMP JUMPDEST SWAP1 PUSH2 0x22BE PUSH1 0x3 DUP3 ADD PUSH2 0x2684 JUMP JUMPDEST PUSH2 0x22CA PUSH1 0x4 DUP4 ADD PUSH2 0x2684 JUMP JUMPDEST PUSH2 0x22D6 PUSH1 0x5 DUP5 ADD PUSH2 0x2684 JUMP JUMPDEST PUSH2 0x22E2 PUSH1 0x6 DUP6 ADD PUSH2 0x2684 JUMP JUMPDEST SWAP1 PUSH2 0x22EF PUSH1 0x7 DUP7 ADD PUSH2 0x2684 JUMP JUMPDEST SWAP3 PUSH2 0x22FC PUSH1 0x8 DUP8 ADD PUSH2 0x2684 JUMP JUMPDEST PUSH1 0x9 DUP8 ADD SLOAD PUSH1 0x1 PUSH1 0x1 PUSH1 0xA0 SHL SUB AND SWAP7 SWAP1 SWAP6 SWAP1 PUSH2 0x231A SWAP1 PUSH1 0xA ADD PUSH2 0x2684 JUMP JUMPDEST SWAP8 PUSH1 0x40 MLOAD SWAP11 DUP12 SWAP11 DUP12 MSTORE PUSH2 0x160 DUP1 PUSH1 0x20 DUP14 ADD MSTORE DUP12 ADD PUSH2 0x2337 SWAP2 PUSH2 0x272A JUMP JUMPDEST DUP11 DUP2 SUB PUSH1 0x40 DUP13 ADD MSTORE PUSH2 0x2348 SWAP2 PUSH2 0x272A JUMP JUMPDEST DUP10 DUP2 SUB PUSH1 0x60 DUP12 ADD MSTORE PUSH2 0x2359 SWAP2 PUSH2 0x272A JUMP JUMPDEST DUP9 DUP2 SUB PUSH1 0x80 DUP11 ADD MSTORE PUSH2 0x236A SWAP2 PUSH2 0x272A JUMP JUMPDEST DUP8 DUP2 SUB PUSH1 0xA0 DUP10 ADD MSTORE PUSH2 0x237B SWAP2 PUSH2 0x272A JUMP JUMPDEST DUP7 DUP2 SUB PUSH1 0xC0 DUP9 ADD MSTORE PUSH2 0x238C SWAP2 PUSH2 0x272A JUMP JUMPDEST DUP6 DUP2 SUB PUSH1 0xE0 DUP8 ADD MSTORE PUSH2 0x239D SWAP2 PUSH2 0x272A JUMP JUMPDEST DUP5 DUP2 SUB PUSH2 0x100 DUP7 ADD MSTORE PUSH2 0x23AF SWAP2 PUSH2 0x272A JUMP JUMPDEST SWAP1 PUSH2 0x120 DUP5 ADD MSTORE DUP3 DUP2 SUB PUSH2 0x140 DUP5 ADD MSTORE PUSH2 0x23C8 SWAP2 PUSH2 0x272A JUMP JUMPDEST SUB SWAP1 RETURN JUMPDEST CALLVALUE PUSH2 0x245 JUMPI PUSH1 0x20 CALLDATASIZE PUSH1 0x3 NOT ADD SLT PUSH2 0x245 JUMPI PUSH1 0x4 CALLDATALOAD PUSH1 0x0 MSTORE PUSH1 0x1 PUSH1 0x20 MSTORE PUSH1 0x20 PUSH1 0x40 PUSH1 0x0 KECCAK256 SLOAD PUSH1 0x40 MLOAD SWAP1 DUP2 MSTORE RETURN JUMPDEST CALLVALUE PUSH2 0x245 JUMPI PUSH2 0x100 CALLDATASIZE PUSH1 0x3 NOT ADD SLT PUSH2 0x245 JUMPI PUSH1 0x1 PUSH1 0x1 PUSH1 0xA0 SHL SUB PUSH1 0x4 CALLDATALOAD PUSH1 0x24 CALLDATALOAD DUP3 DUP2 AND DUP2 SUB PUSH2 0x245 JUMPI PUSH1 0x1 PUSH1 0x1 PUSH1 0x40 SHL SUB PUSH1 0x44 CALLDATALOAD DUP2 DUP2 GT PUSH2 0x245 JUMPI PUSH2 0x2441 SWAP1 CALLDATASIZE SWAP1 PUSH1 0x4 ADD PUSH2 0x25D5 JUMP JUMPDEST SWAP1 PUSH1 0x64 CALLDATALOAD DUP2 DUP2 GT PUSH2 0x245 JUMPI PUSH2 0x245A SWAP1 CALLDATASIZE SWAP1 PUSH1 0x4 ADD PUSH2 0x25D5 JUMP JUMPDEST SWAP5 PUSH1 0x84 CALLDATALOAD DUP3 DUP2 GT PUSH2 0x245 JUMPI PUSH2 0x2473 SWAP1 CALLDATASIZE SWAP1 PUSH1 0x4 ADD PUSH2 0x25D5 JUMP JUMPDEST SWAP2 PUSH1 0xA4 CALLDATALOAD DUP2 DUP2 GT PUSH2 0x245 JUMPI PUSH2 0x248C SWAP1 CALLDATASIZE SWAP1 PUSH1 0x4 ADD PUSH2 0x25D5 JUMP JUMPDEST SWAP2 PUSH1 0xC4 CALLDATALOAD DUP3 DUP2 GT PUSH2 0x245 JUMPI PUSH2 0x24A5 SWAP1 CALLDATASIZE SWAP1 PUSH1 0x4 ADD PUSH2 0x25D5 JUMP JUMPDEST SWAP2 PUSH1 0xE4 CALLDATALOAD SWAP1 DUP2 GT PUSH2 0x245 JUMPI PUSH2 0x24C1 PUSH2 0x24DC SWAP2 CALLDATASIZE SWAP1 PUSH1 0x4 ADD PUSH2 0x25D5 JUMP JUMPDEST SWAP2 DUP9 PUSH1 0x0 MSTORE PUSH1 0x0 PUSH1 0x20 MSTORE PUSH1 0x9 PUSH1 0x40 PUSH1 0x0 KECCAK256 ADD SLOAD AND CALLER EQ PUSH2 0x30A9 JUMP JUMPDEST DUP7 PUSH1 0x0 MSTORE PUSH1 0x0 PUSH1 0x20 MSTORE PUSH1 0xFF PUSH1 0x9 PUSH1 0x40 PUSH1 0x0 KECCAK256 ADD SLOAD PUSH1 0xA0 SHR AND ISZERO PUSH2 0x253F JUMPI PUSH2 0x2227 SWAP8 DUP8 PUSH1 0x0 MSTORE PUSH1 0x0 PUSH1 0x20 MSTORE PUSH2 0x2516 PUSH1 0x7 PUSH1 0x40 PUSH1 0x0 KECCAK256 ADD PUSH2 0x2684 JUMP JUMPDEST SWAP5 DUP9 PUSH1 0x0 MSTORE PUSH1 0x0 PUSH1 0x20 MSTORE PUSH2 0x2530 PUSH1 0x8 PUSH1 0x40 PUSH1 0x0 KECCAK256 ADD PUSH2 0x2684 JUMP JUMPDEST SWAP7 PUSH2 0x2539 PUSH2 0x3100 JUMP JUMPDEST SWAP10 PUSH2 0x2805 JUMP JUMPDEST PUSH1 0x40 MLOAD PUSH3 0x461BCD PUSH1 0xE5 SHL DUP2 MSTORE PUSH1 0x20 PUSH1 0x4 DUP3 ADD MSTORE PUSH1 0x16 PUSH1 0x24 DUP3 ADD MSTORE PUSH22 0x13185B99081A5CC81B9BDD081C9959DA5CDD195C9959 PUSH1 0x52 SHL PUSH1 0x44 DUP3 ADD MSTORE PUSH1 0x64 SWAP1 REVERT JUMPDEST PUSH2 0x160 DUP2 ADD SWAP1 DUP2 LT PUSH1 0x1 PUSH1 0x1 PUSH1 0x40 SHL SUB DUP3 GT OR PUSH2 0xD52 JUMPI PUSH1 0x40 MSTORE JUMP JUMPDEST PUSH1 0x40 DUP2 ADD SWAP1 DUP2 LT PUSH1 0x1 PUSH1 0x1 PUSH1 0x40 SHL SUB DUP3 GT OR PUSH2 0xD52 JUMPI PUSH1 0x40 MSTORE JUMP JUMPDEST SWAP1 PUSH1 0x1F DUP1 NOT SWAP2 ADD AND DUP2 ADD SWAP1 DUP2 LT PUSH1 0x1 PUSH1 0x1 PUSH1 0x40 SHL SUB DUP3 GT OR PUSH2 0xD52 JUMPI PUSH1 0x40 MSTORE JUMP JUMPDEST DUP2 PUSH1 0x1F DUP3 ADD SLT ISZERO PUSH2 0x245 JUMPI DUP1 CALLDATALOAD SWAP1 PUSH1 0x1 PUSH1 0x1 PUSH1 0x40 SHL SUB DUP3 GT PUSH2 0xD52 JUMPI PUSH1 0x40 MLOAD SWAP3 PUSH2 0x2609 PUSH1 0x1F DUP5 ADD PUSH1 0x1F NOT AND PUSH1 0x20 ADD DUP6 PUSH2 0x25B4 JUMP JUMPDEST DUP3 DUP5 MSTORE PUSH1 0x20 DUP4 DUP4 ADD ADD GT PUSH2 0x245 JUMPI DUP2 PUSH1 0x0 SWAP3 PUSH1 0x20 DUP1 SWAP4 ADD DUP4 DUP7 ADD CALLDATACOPY DUP4 ADD ADD MSTORE SWAP1 JUMP JUMPDEST PUSH1 0x4 SLOAD DUP2 LT ISZERO PUSH2 0x20FD JUMPI PUSH1 0x4 PUSH1 0x0 MSTORE PUSH1 0xB PUSH1 0x20 PUSH1 0x0 KECCAK256 SWAP2 MUL ADD SWAP1 PUSH1 0x0 SWAP1 JUMP JUMPDEST SWAP1 PUSH1 0x1 DUP3 DUP2 SHR SWAP3 AND DUP1 ISZERO PUSH2 0x267A JUMPI JUMPDEST PUSH1 0x20 DUP4 LT EQ PUSH2 0x2664 JUMPI JUMP JUMPDEST PUSH4 0x4E487B71 PUSH1 0xE0 SHL PUSH1 0x0 MSTORE PUSH1 0x22 PUSH1 0x4 MSTORE PUSH1 0x24 PUSH1 0x0 REVERT JUMPDEST SWAP2 PUSH1 0x7F AND SWAP2 PUSH2 0x2659 JUMP JUMPDEST SWAP1 PUSH1 0x40 MLOAD SWAP2 DUP3 PUSH1 0x0 DUP3 SLOAD SWAP3 PUSH2 0x2698 DUP5 PUSH2 0x264A JUMP JUMPDEST SWAP1 DUP2 DUP5 MSTORE PUSH1 0x1 SWAP5 DUP6 DUP2 AND SWAP1 DUP2 PUSH1 0x0 EQ PUSH2 0x2707 JUMPI POP PUSH1 0x1 EQ PUSH2 0x26C4 JUMPI JUMPDEST POP POP PUSH2 0x26C2 SWAP3 POP SUB DUP4 PUSH2 0x25B4 JUMP JUMPDEST JUMP JUMPDEST SWAP1 SWAP4 SWAP2 POP PUSH1 0x0 MSTORE PUSH1 0x20 SWAP1 DUP2 PUSH1 0x0 KECCAK256 SWAP4 PUSH1 0x0 SWAP2 JUMPDEST DUP2 DUP4 LT PUSH2 0x26EF JUMPI POP POP PUSH2 0x26C2 SWAP4 POP DUP3 ADD ADD CODESIZE DUP1 PUSH2 0x26B4 JUMP JUMPDEST DUP6 SLOAD DUP9 DUP5 ADD DUP6 ADD MSTORE SWAP5 DUP6 ADD SWAP5 DUP8 SWAP5 POP SWAP2 DUP4 ADD SWAP2 PUSH2 0x26D7 JUMP JUMPDEST SWAP2 POP POP PUSH2 0x26C2 SWAP5 POP PUSH1 0x20 SWAP3 POP PUSH1 0xFF NOT AND DUP3 DUP5 ADD MSTORE ISZERO ISZERO PUSH1 0x5 SHL DUP3 ADD ADD CODESIZE DUP1 PUSH2 0x26B4 JUMP JUMPDEST SWAP2 SWAP1 DUP3 MLOAD SWAP3 DUP4 DUP3 MSTORE PUSH1 0x0 JUMPDEST DUP5 DUP2 LT PUSH2 0x2756 JUMPI POP POP DUP3 PUSH1 0x0 PUSH1 0x20 DUP1 SWAP5 SWAP6 DUP5 ADD ADD MSTORE PUSH1 0x1F DUP1 NOT SWAP2 ADD AND ADD ADD SWAP1 JUMP JUMPDEST PUSH1 0x20 DUP2 DUP4 ADD DUP2 ADD MLOAD DUP5 DUP4 ADD DUP3 ADD MSTORE ADD PUSH2 0x2735 JUMP JUMPDEST PUSH1 0x3 SLOAD DUP2 LT ISZERO PUSH2 0x20FD JUMPI PUSH1 0x3 PUSH1 0x0 MSTORE PUSH1 0x20 PUSH1 0x0 KECCAK256 ADD SWAP1 PUSH1 0x0 SWAP1 JUMP JUMPDEST PUSH1 0x40 MLOAD SWAP1 PUSH2 0x2792 DUP3 PUSH2 0x2599 JUMP JUMPDEST PUSH1 0x8 DUP3 MSTORE PUSH8 0x3932B3B4B9BA32B9 PUSH1 0xC1 SHL PUSH1 0x20 DUP4 ADD MSTORE JUMP JUMPDEST DUP2 DUP2 LT PUSH2 0x27B4 JUMPI POP POP JUMP JUMPDEST PUSH1 0x0 DUP2 SSTORE PUSH1 0x1 ADD PUSH2 0x27A9 JUMP JUMPDEST SWAP2 SWAP1 PUSH1 0x1F DUP2 GT PUSH2 0x27CF JUMPI POP POP POP JUMP JUMPDEST PUSH2 0x26C2 SWAP3 PUSH1 0x0 MSTORE PUSH1 0x20 PUSH1 0x0 KECCAK256 SWAP1 PUSH1 0x20 PUSH1 0x1F DUP5 ADD PUSH1 0x5 SHR DUP4 ADD SWAP4 LT PUSH2 0x27FB JUMPI JUMPDEST PUSH1 0x1F ADD PUSH1 0x5 SHR ADD SWAP1 PUSH2 0x27A9 JUMP JUMPDEST SWAP1 SWAP2 POP DUP2 SWAP1 PUSH2 0x27EE JUMP JUMPDEST SWAP9 SWAP8 SWAP5 SWAP2 SWAP7 SWAP4 SWAP1 SWAP6 SWAP3 PUSH1 0x40 MLOAD SWAP8 PUSH2 0x281B DUP10 PUSH2 0x257D JUMP JUMPDEST DUP11 DUP10 MSTORE PUSH1 0x20 DUP10 ADD SWAP8 DUP9 MSTORE PUSH1 0x40 DUP10 ADD MSTORE PUSH1 0x60 DUP9 ADD MSTORE PUSH1 0x80 DUP8 ADD MSTORE PUSH1 0xA0 DUP7 ADD MSTORE PUSH1 0xC0 DUP6 ADD MSTORE PUSH1 0xE0 DUP5 ADD MSTORE PUSH2 0x100 DUP4 ADD MSTORE PUSH1 0x1 PUSH1 0x1 PUSH1 0xA0 SHL SUB DUP4 AND PUSH2 0x120 DUP4 ADD MSTORE PUSH2 0x140 DUP3 ADD DUP6 SWAP1 MSTORE PUSH1 0x4 SLOAD PUSH1 0x1 PUSH1 0x40 SHL DUP2 LT ISZERO PUSH2 0xD52 JUMPI DUP1 PUSH1 0x1 PUSH2 0x2880 SWAP3 ADD PUSH1 0x4 SSTORE PUSH2 0x262B JUMP JUMPDEST SWAP2 SWAP1 SWAP2 PUSH2 0x15F7 JUMPI DUP3 MLOAD DUP3 SSTORE MLOAD DUP1 MLOAD SWAP1 PUSH1 0x1 PUSH1 0x1 PUSH1 0x40 SHL SUB DUP3 GT PUSH2 0xD52 JUMPI DUP2 SWAP1 PUSH2 0x28B0 DUP3 PUSH2 0x1189 PUSH1 0x1 DUP8 ADD SLOAD PUSH2 0x264A JUMP JUMPDEST PUSH1 0x20 SWAP1 PUSH1 0x1F DUP4 GT PUSH1 0x1 EQ PUSH2 0x3037 JUMPI PUSH1 0x0 SWAP3 PUSH2 0x302C JUMPI JUMPDEST POP POP DUP2 PUSH1 0x1 SHL SWAP2 PUSH1 0x0 NOT SWAP1 PUSH1 0x3 SHL SHR NOT AND OR PUSH1 0x1 DUP3 ADD SSTORE JUMPDEST PUSH1 0x40 DUP3 ADD MLOAD DUP1 MLOAD SWAP1 PUSH1 0x1 PUSH1 0x1 PUSH1 0x40 SHL SUB DUP3 GT PUSH2 0xD52 JUMPI DUP2 SWAP1 PUSH2 0x2910 DUP3 PUSH2 0x2907 PUSH1 0x2 DUP8 ADD SLOAD PUSH2 0x264A JUMP JUMPDEST PUSH1 0x2 DUP8 ADD PUSH2 0x27C0 JUMP JUMPDEST PUSH1 0x20 SWAP1 PUSH1 0x1F DUP4 GT PUSH1 0x1 EQ PUSH2 0x2FBA JUMPI PUSH1 0x0 SWAP3 PUSH2 0x2FAF JUMPI JUMPDEST POP POP DUP2 PUSH1 0x1 SHL SWAP2 PUSH1 0x0 NOT SWAP1 PUSH1 0x3 SHL SHR NOT AND OR PUSH1 0x2 DUP3 ADD SSTORE JUMPDEST PUSH1 0x60 DUP3 ADD MLOAD DUP1 MLOAD SWAP1 PUSH1 0x1 PUSH1 0x1 PUSH1 0x40 SHL SUB DUP3 GT PUSH2 0xD52 JUMPI DUP2 SWAP1 PUSH2 0x2970 DUP3 PUSH2 0x2967 PUSH1 0x3 DUP8 ADD SLOAD PUSH2 0x264A JUMP JUMPDEST PUSH1 0x3 DUP8 ADD PUSH2 0x27C0 JUMP JUMPDEST PUSH1 0x20 SWAP1 PUSH1 0x1F DUP4 GT PUSH1 0x1 EQ PUSH2 0x2F3D JUMPI PUSH1 0x0 SWAP3 PUSH2 0x2F32 JUMPI JUMPDEST POP POP DUP2 PUSH1 0x1 SHL SWAP2 PUSH1 0x0 NOT SWAP1 PUSH1 0x3 SHL SHR NOT AND OR PUSH1 0x3 DUP3 ADD SSTORE JUMPDEST PUSH1 0x80 DUP3 ADD MLOAD DUP1 MLOAD SWAP1 PUSH1 0x1 PUSH1 0x1 PUSH1 0x40 SHL SUB DUP3 GT PUSH2 0xD52 JUMPI DUP2 SWAP1 PUSH2 0x29C7 DUP3 PUSH2 0x12AF PUSH1 0x4 DUP8 ADD SLOAD PUSH2 0x264A JUMP JUMPDEST PUSH1 0x20 SWAP1 PUSH1 0x1F DUP4 GT PUSH1 0x1 EQ PUSH2 0x2EC0 JUMPI PUSH1 0x0 SWAP3 PUSH2 0x2EB5 JUMPI JUMPDEST POP POP DUP2 PUSH1 0x1 SHL SWAP2 PUSH1 0x0 NOT SWAP1 PUSH1 0x3 SHL SHR NOT AND OR PUSH1 0x4 DUP3 ADD SSTORE JUMPDEST PUSH1 0xA0 DUP3 ADD MLOAD DUP1 MLOAD SWAP1 PUSH1 0x1 PUSH1 0x1 PUSH1 0x40 SHL SUB DUP3 GT PUSH2 0xD52 JUMPI DUP2 SWAP1 PUSH2 0x2A27 DUP3 PUSH2 0x2A1E PUSH1 0x5 DUP8 ADD SLOAD PUSH2 0x264A JUMP JUMPDEST PUSH1 0x5 DUP8 ADD PUSH2 0x27C0 JUMP JUMPDEST PUSH1 0x20 SWAP1 PUSH1 0x1F DUP4 GT PUSH1 0x1 EQ PUSH2 0x2E43 JUMPI PUSH1 0x0 SWAP3 PUSH2 0x2E38 JUMPI JUMPDEST POP POP DUP2 PUSH1 0x1 SHL SWAP2 PUSH1 0x0 NOT SWAP1 PUSH1 0x3 SHL SHR NOT AND OR PUSH1 0x5 DUP3 ADD SSTORE JUMPDEST PUSH1 0xC0 DUP3 ADD MLOAD DUP1 MLOAD SWAP1 PUSH1 0x1 PUSH1 0x1 PUSH1 0x40 SHL SUB DUP3 GT PUSH2 0xD52 JUMPI DUP2 SWAP1 PUSH2 0x2A87 DUP3 PUSH2 0x2A7E PUSH1 0x6 DUP8 ADD SLOAD PUSH2 0x264A JUMP JUMPDEST PUSH1 0x6 DUP8 ADD PUSH2 0x27C0 JUMP JUMPDEST PUSH1 0x20 SWAP1 PUSH1 0x1F DUP4 GT PUSH1 0x1 EQ PUSH2 0x2DC6 JUMPI PUSH1 0x0 SWAP3 PUSH2 0x2DBB JUMPI JUMPDEST POP POP DUP2 PUSH1 0x1 SHL SWAP2 PUSH1 0x0 NOT SWAP1 PUSH1 0x3 SHL SHR NOT AND OR PUSH1 0x6 DUP3 ADD SSTORE JUMPDEST PUSH1 0xE0 DUP3 ADD MLOAD DUP1 MLOAD SWAP1 PUSH1 0x1 PUSH1 0x1 PUSH1 0x40 SHL SUB DUP3 GT PUSH2 0xD52 JUMPI DUP2 SWAP1 PUSH2 0x2ADE DUP3 PUSH2 0x13D5 PUSH1 0x7 DUP8 ADD SLOAD PUSH2 0x264A JUMP JUMPDEST PUSH1 0x20 SWAP1 PUSH1 0x1F DUP4 GT PUSH1 0x1 EQ PUSH2 0x2D49 JUMPI PUSH1 0x0 SWAP3 PUSH2 0x2D3E JUMPI JUMPDEST POP POP DUP2 PUSH1 0x1 SHL SWAP2 PUSH1 0x0 NOT SWAP1 PUSH1 0x3 SHL SHR NOT AND OR PUSH1 0x7 DUP3 ADD SSTORE JUMPDEST PUSH2 0x100 DUP3 ADD MLOAD DUP1 MLOAD PUSH1 0x1 PUSH1 0x1 PUSH1 0x40 SHL SUB DUP2 GT PUSH2 0xD52 JUMPI PUSH1 0x8 DUP4 ADD SWAP2 PUSH2 0x2B3B DUP3 PUSH2 0x2B35 DUP6 SLOAD PUSH2 0x264A JUMP JUMPDEST DUP6 PUSH2 0x27C0 JUMP JUMPDEST PUSH1 0x20 SWAP1 PUSH1 0x1F DUP4 GT PUSH1 0x1 EQ PUSH2 0x2CCF JUMPI SWAP2 DUP1 PUSH1 0xA SWAP5 SWAP3 PUSH2 0x140 SWAP7 SWAP5 PUSH1 0x0 SWAP3 PUSH2 0x2CC4 JUMPI JUMPDEST POP POP DUP2 PUSH1 0x1 SHL SWAP2 PUSH1 0x0 NOT SWAP1 PUSH1 0x3 SHL SHR NOT AND OR SWAP1 SSTORE JUMPDEST PUSH1 0x9 DUP2 ADD PUSH1 0x1 DUP1 PUSH1 0xA0 SHL SUB PUSH2 0x120 DUP7 ADD MLOAD AND PUSH1 0x1 DUP1 PUSH1 0xA0 SHL SUB NOT DUP3 SLOAD AND OR SWAP1 SSTORE ADD SWAP2 ADD MLOAD DUP1 MLOAD SWAP1 PUSH1 0x1 PUSH1 0x1 PUSH1 0x40 SHL SUB DUP3 GT PUSH2 0xD52 JUMPI PUSH2 0x2BB4 DUP3 PUSH2 0x2B35 DUP6 SLOAD PUSH2 0x264A JUMP JUMPDEST PUSH1 0x20 SWAP1 PUSH1 0x1F DUP4 GT PUSH1 0x1 EQ PUSH2 0x2C36 JUMPI SWAP2 DUP1 PUSH2 0x2C26 SWAP5 SWAP3 PUSH32 0x90B328F02ED250FF4BF17CAFCBD924782F15C92B3A87A4082E92AE216E1822C2 SWAP7 SWAP5 PUSH1 0x0 SWAP3 PUSH2 0x2C2B JUMPI JUMPDEST POP POP DUP2 PUSH1 0x1 SHL SWAP2 PUSH1 0x0 NOT SWAP1 PUSH1 0x3 SHL SHR NOT AND OR SWAP1 SSTORE JUMPDEST PUSH1 0x40 MLOAD SWAP2 DUP3 SWAP2 PUSH1 0x20 DUP4 MSTORE PUSH1 0x1 DUP1 PUSH1 0xA0 SHL SUB AND SWAP6 PUSH1 0x20 DUP4 ADD SWAP1 PUSH2 0x272A JUMP JUMPDEST SUB SWAP1 LOG3 JUMP JUMPDEST ADD MLOAD SWAP1 POP CODESIZE DUP1 PUSH2 0x2BF4 JUMP JUMPDEST SWAP1 PUSH1 0x1F NOT DUP4 AND SWAP2 DUP5 PUSH1 0x0 MSTORE PUSH1 0x20 PUSH1 0x0 KECCAK256 SWAP3 PUSH1 0x0 JUMPDEST DUP2 DUP2 LT PUSH2 0x2CAC JUMPI POP SWAP3 PUSH1 0x1 SWAP3 DUP6 SWAP3 PUSH32 0x90B328F02ED250FF4BF17CAFCBD924782F15C92B3A87A4082E92AE216E1822C2 SWAP9 SWAP7 PUSH2 0x2C26 SWAP9 SWAP7 LT PUSH2 0x2C93 JUMPI JUMPDEST POP POP POP DUP2 SHL ADD SWAP1 SSTORE PUSH2 0x2C09 JUMP JUMPDEST ADD MLOAD PUSH1 0x0 NOT PUSH1 0xF8 DUP5 PUSH1 0x3 SHL AND SHR NOT AND SWAP1 SSTORE CODESIZE DUP1 DUP1 PUSH2 0x2C86 JUMP JUMPDEST SWAP3 SWAP4 PUSH1 0x20 PUSH1 0x1 DUP2 SWAP3 DUP8 DUP7 ADD MLOAD DUP2 SSTORE ADD SWAP6 ADD SWAP4 ADD PUSH2 0x2C4A JUMP JUMPDEST ADD MLOAD SWAP1 POP CODESIZE DUP1 PUSH2 0x2B5C JUMP JUMPDEST SWAP1 PUSH1 0x1F NOT DUP4 AND SWAP2 DUP5 PUSH1 0x0 MSTORE PUSH1 0x20 PUSH1 0x0 KECCAK256 SWAP3 PUSH1 0x0 JUMPDEST DUP2 DUP2 LT PUSH2 0x2D26 JUMPI POP SWAP3 PUSH1 0x1 SWAP3 DUP6 SWAP3 PUSH2 0x140 SWAP9 SWAP7 PUSH1 0xA SWAP9 SWAP7 LT PUSH2 0x2D0D JUMPI JUMPDEST POP POP POP DUP2 SHL ADD SWAP1 SSTORE PUSH2 0x2B71 JUMP JUMPDEST ADD MLOAD PUSH1 0x0 NOT PUSH1 0xF8 DUP5 PUSH1 0x3 SHL AND SHR NOT AND SWAP1 SSTORE CODESIZE DUP1 DUP1 PUSH2 0x2D00 JUMP JUMPDEST SWAP3 SWAP4 PUSH1 0x20 PUSH1 0x1 DUP2 SWAP3 DUP8 DUP7 ADD MLOAD DUP2 SSTORE ADD SWAP6 ADD SWAP4 ADD PUSH2 0x2CE3 JUMP JUMPDEST ADD MLOAD SWAP1 POP CODESIZE DUP1 PUSH2 0x2AF4 JUMP JUMPDEST SWAP3 POP PUSH1 0x7 DUP5 ADD PUSH1 0x0 MSTORE PUSH1 0x20 PUSH1 0x0 KECCAK256 SWAP1 PUSH1 0x0 SWAP4 JUMPDEST PUSH1 0x1F NOT DUP5 AND DUP6 LT PUSH2 0x2DA0 JUMPI PUSH1 0x1 SWAP5 POP DUP4 PUSH1 0x1F NOT DUP2 AND LT PUSH2 0x2D87 JUMPI JUMPDEST POP POP POP DUP2 SHL ADD PUSH1 0x7 DUP3 ADD SSTORE PUSH2 0x2B0C JUMP JUMPDEST ADD MLOAD PUSH1 0x0 NOT PUSH1 0xF8 DUP5 PUSH1 0x3 SHL AND SHR NOT AND SWAP1 SSTORE CODESIZE DUP1 DUP1 PUSH2 0x2D77 JUMP JUMPDEST DUP2 DUP2 ADD MLOAD DUP4 SSTORE PUSH1 0x20 SWAP5 DUP6 ADD SWAP5 PUSH1 0x1 SWAP1 SWAP4 ADD SWAP3 SWAP1 SWAP2 ADD SWAP1 PUSH2 0x2D5C JUMP JUMPDEST ADD MLOAD SWAP1 POP CODESIZE DUP1 PUSH2 0x2A9D JUMP JUMPDEST SWAP3 POP PUSH1 0x6 DUP5 ADD PUSH1 0x0 MSTORE PUSH1 0x20 PUSH1 0x0 KECCAK256 SWAP1 PUSH1 0x0 SWAP4 JUMPDEST PUSH1 0x1F NOT DUP5 AND DUP6 LT PUSH2 0x2E1D JUMPI PUSH1 0x1 SWAP5 POP DUP4 PUSH1 0x1F NOT DUP2 AND LT PUSH2 0x2E04 JUMPI JUMPDEST POP POP POP DUP2 SHL ADD PUSH1 0x6 DUP3 ADD SSTORE PUSH2 0x2AB5 JUMP JUMPDEST ADD MLOAD PUSH1 0x0 NOT PUSH1 0xF8 DUP5 PUSH1 0x3 SHL AND SHR NOT AND SWAP1 SSTORE CODESIZE DUP1 DUP1 PUSH2 0x2DF4 JUMP JUMPDEST DUP2 DUP2 ADD MLOAD DUP4 SSTORE PUSH1 0x20 SWAP5 DUP6 ADD SWAP5 PUSH1 0x1 SWAP1 SWAP4 ADD SWAP3 SWAP1 SWAP2 ADD SWAP1 PUSH2 0x2DD9 JUMP JUMPDEST ADD MLOAD SWAP1 POP CODESIZE DUP1 PUSH2 0x2A3D JUMP JUMPDEST SWAP3 POP PUSH1 0x5 DUP5 ADD PUSH1 0x0 MSTORE PUSH1 0x20 PUSH1 0x0 KECCAK256 SWAP1 PUSH1 0x0 SWAP4 JUMPDEST PUSH1 0x1F NOT DUP5 AND DUP6 LT PUSH2 0x2E9A JUMPI PUSH1 0x1 SWAP5 POP DUP4 PUSH1 0x1F NOT DUP2 AND LT PUSH2 0x2E81 JUMPI JUMPDEST POP POP POP DUP2 SHL ADD PUSH1 0x5 DUP3 ADD SSTORE PUSH2 0x2A55 JUMP JUMPDEST ADD MLOAD PUSH1 0x0 NOT PUSH1 0xF8 DUP5 PUSH1 0x3 SHL AND SHR NOT AND SWAP1 SSTORE CODESIZE DUP1 DUP1 PUSH2 0x2E71 JUMP JUMPDEST DUP2 DUP2 ADD MLOAD DUP4 SSTORE PUSH1 0x20 SWAP5 DUP6 ADD SWAP5 PUSH1 0x1 SWAP1 SWAP4 ADD SWAP3 SWAP1 SWAP2 ADD SWAP1 PUSH2 0x2E56 JUMP JUMPDEST ADD MLOAD SWAP1 POP CODESIZE DUP1 PUSH2 0x29DD JUMP JUMPDEST SWAP3 POP PUSH1 0x4 DUP5 ADD PUSH1 0x0 MSTORE PUSH1 0x20 PUSH1 0x0 KECCAK256 SWAP1 PUSH1 0x0 SWAP4 JUMPDEST PUSH1 0x1F NOT DUP5 AND DUP6 LT PUSH2 0x2F17 JUMPI PUSH1 0x1 SWAP5 POP DUP4 PUSH1 0x1F NOT DUP2 AND LT PUSH2 0x2EFE JUMPI JUMPDEST POP POP POP DUP2 SHL ADD PUSH1 0x4 DUP3 ADD SSTORE PUSH2 0x29F5 JUMP JUMPDEST ADD MLOAD PUSH1 0x0 NOT PUSH1 0xF8 DUP5 PUSH1 0x3 SHL AND SHR NOT AND SWAP1 SSTORE CODESIZE DUP1 DUP1 PUSH2 0x2EEE JUMP JUMPDEST DUP2 DUP2 ADD MLOAD DUP4 SSTORE PUSH1 0x20 SWAP5 DUP6 ADD SWAP5 PUSH1 0x1 SWAP1 SWAP4 ADD SWAP3 SWAP1 SWAP2 ADD SWAP1 PUSH2 0x2ED3 JUMP JUMPDEST ADD MLOAD SWAP1 POP CODESIZE DUP1 PUSH2 0x2986 JUMP JUMPDEST SWAP3 POP PUSH1 0x3 DUP5 ADD PUSH1 0x0 MSTORE PUSH1 0x20 PUSH1 0x0 KECCAK256 SWAP1 PUSH1 0x0 SWAP4 JUMPDEST PUSH1 0x1F NOT DUP5 AND DUP6 LT PUSH2 0x2F94 JUMPI PUSH1 0x1 SWAP5 POP DUP4 PUSH1 0x1F NOT DUP2 AND LT PUSH2 0x2F7B JUMPI JUMPDEST POP POP POP DUP2 SHL ADD PUSH1 0x3 DUP3 ADD SSTORE PUSH2 0x299E JUMP JUMPDEST ADD MLOAD PUSH1 0x0 NOT PUSH1 0xF8 DUP5 PUSH1 0x3 SHL AND SHR NOT AND SWAP1 SSTORE CODESIZE DUP1 DUP1 PUSH2 0x2F6B JUMP JUMPDEST DUP2 DUP2 ADD MLOAD DUP4 SSTORE PUSH1 0x20 SWAP5 DUP6 ADD SWAP5 PUSH1 0x1 SWAP1 SWAP4 ADD SWAP3 SWAP1 SWAP2 ADD SWAP1 PUSH2 0x2F50 JUMP JUMPDEST ADD MLOAD SWAP1 POP CODESIZE DUP1 PUSH2 0x2926 JUMP JUMPDEST SWAP3 POP PUSH1 0x2 DUP5 ADD PUSH1 0x0 MSTORE PUSH1 0x20 PUSH1 0x0 KECCAK256 SWAP1 PUSH1 0x0 SWAP4 JUMPDEST PUSH1 0x1F NOT DUP5 AND DUP6 LT PUSH2 0x3011 JUMPI PUSH1 0x1 SWAP5 POP DUP4 PUSH1 0x1F NOT DUP2 AND LT PUSH2 0x2FF8 JUMPI JUMPDEST POP POP POP DUP2 SHL ADD PUSH1 0x2 DUP3 ADD SSTORE PUSH2 0x293E JUMP JUMPDEST ADD MLOAD PUSH1 0x0 NOT PUSH1 0xF8 DUP5 PUSH1 0x3 SHL AND SHR NOT AND SWAP1 SSTORE CODESIZE DUP1 DUP1 PUSH2 0x2FE8 JUMP JUMPDEST DUP2 DUP2 ADD MLOAD DUP4 SSTORE PUSH1 0x20 SWAP5 DUP6 ADD SWAP5 PUSH1 0x1 SWAP1 SWAP4 ADD SWAP3 SWAP1 SWAP2 ADD SWAP1 PUSH2 0x2FCD JUMP JUMPDEST ADD MLOAD SWAP1 POP CODESIZE DUP1 PUSH2 0x28C6 JUMP JUMPDEST SWAP3 POP PUSH1 0x1 DUP5 ADD PUSH1 0x0 MSTORE PUSH1 0x20 PUSH1 0x0 KECCAK256 SWAP1 PUSH1 0x0 SWAP4 JUMPDEST PUSH1 0x1F NOT DUP5 AND DUP6 LT PUSH2 0x308E JUMPI PUSH1 0x1 SWAP5 POP DUP4 PUSH1 0x1F NOT DUP2 AND LT PUSH2 0x3075 JUMPI JUMPDEST POP POP POP DUP2 SHL ADD PUSH1 0x1 DUP3 ADD SSTORE PUSH2 0x28DE JUMP JUMPDEST ADD MLOAD PUSH1 0x0 NOT PUSH1 0xF8 DUP5 PUSH1 0x3 SHL AND SHR NOT AND SWAP1 SSTORE CODESIZE DUP1 DUP1 PUSH2 0x3065 JUMP JUMPDEST DUP2 DUP2 ADD MLOAD DUP4 SSTORE PUSH1 0x20 SWAP5 DUP6 ADD SWAP5 PUSH1 0x1 SWAP1 SWAP4 ADD SWAP3 SWAP1 SWAP2 ADD SWAP1 PUSH2 0x304A JUMP JUMPDEST ISZERO PUSH2 0x30B0 JUMPI JUMP JUMPDEST PUSH1 0x40 MLOAD PUSH3 0x461BCD PUSH1 0xE5 SHL DUP2 MSTORE PUSH1 0x20 PUSH1 0x4 DUP3 ADD MSTORE PUSH1 0x22 PUSH1 0x24 DUP3 ADD MSTORE PUSH32 0x596F7520617265206E6F7420746865206F776E6572206F662074686973206C61 PUSH1 0x44 DUP3 ADD MSTORE PUSH2 0x1B99 PUSH1 0xF2 SHL PUSH1 0x64 DUP3 ADD MSTORE PUSH1 0x84 SWAP1 REVERT JUMPDEST PUSH1 0x40 MLOAD SWAP1 PUSH2 0x310D DUP3 PUSH2 0x2599 JUMP JUMPDEST PUSH1 0x8 DUP3 MSTORE PUSH8 0x3A3930B739B332B9 PUSH1 0xC1 SHL PUSH1 0x20 DUP4 ADD MSTORE JUMP JUMPDEST PUSH1 0x1 PUSH1 0x1 PUSH1 0x40 SHL SUB DUP2 GT PUSH2 0xD52 JUMPI PUSH1 0x5 SHL PUSH1 0x20 ADD SWAP1 JUMP JUMPDEST SWAP1 PUSH1 0x40 MLOAD PUSH2 0x3148 DUP2 PUSH2 0x257D JUMP JUMPDEST PUSH2 0x140 PUSH2 0x31F9 PUSH1 0xA DUP4 SWAP6 DUP1 SLOAD DUP6 MSTORE PUSH2 0x3162 PUSH1 0x1 DUP3 ADD PUSH2 0x2684 JUMP JUMPDEST PUSH1 0x20 DUP7 ADD MSTORE PUSH2 0x3173 PUSH1 0x2 DUP3 ADD PUSH2 0x2684 JUMP JUMPDEST PUSH1 0x40 DUP7 ADD MSTORE PUSH2 0x3184 PUSH1 0x3 DUP3 ADD PUSH2 0x2684 JUMP JUMPDEST PUSH1 0x60 DUP7 ADD MSTORE PUSH2 0x3195 PUSH1 0x4 DUP3 ADD PUSH2 0x2684 JUMP JUMPDEST PUSH1 0x80 DUP7 ADD MSTORE PUSH2 0x31A6 PUSH1 0x5 DUP3 ADD PUSH2 0x2684 JUMP JUMPDEST PUSH1 0xA0 DUP7 ADD MSTORE PUSH2 0x31B7 PUSH1 0x6 DUP3 ADD PUSH2 0x2684 JUMP JUMPDEST PUSH1 0xC0 DUP7 ADD MSTORE PUSH2 0x31C8 PUSH1 0x7 DUP3 ADD PUSH2 0x2684 JUMP JUMPDEST PUSH1 0xE0 DUP7 ADD MSTORE PUSH2 0x31D9 PUSH1 0x8 DUP3 ADD PUSH2 0x2684 JUMP JUMPDEST PUSH2 0x100 DUP7 ADD MSTORE PUSH1 0x9 DUP2 ADD SLOAD PUSH1 0x1 PUSH1 0x1 PUSH1 0xA0 SHL SUB AND PUSH2 0x120 DUP7 ADD MSTORE ADD PUSH2 0x2684 JUMP JUMPDEST SWAP2 ADD MSTORE JUMP JUMPDEST PUSH1 0x0 NOT DUP2 EQ PUSH2 0x16E4 JUMPI PUSH1 0x1 ADD SWAP1 JUMP JUMPDEST SWAP1 DUP1 DUP3 EQ PUSH2 0x32E1 JUMPI PUSH2 0x321F DUP2 SLOAD PUSH2 0x264A JUMP JUMPDEST SWAP1 PUSH1 0x1 PUSH1 0x1 PUSH1 0x40 SHL SUB DUP3 GT PUSH2 0xD52 JUMPI DUP2 SWAP1 PUSH2 0x323E DUP3 PUSH2 0xAAB DUP7 SLOAD PUSH2 0x264A JUMP JUMPDEST PUSH1 0x0 SWAP1 PUSH1 0x1F DUP4 GT PUSH1 0x1 EQ PUSH2 0x3275 JUMPI PUSH1 0x0 SWAP3 PUSH2 0x326A JUMPI JUMPDEST POP POP DUP2 PUSH1 0x1 SHL SWAP2 PUSH1 0x0 NOT SWAP1 PUSH1 0x3 SHL SHR NOT AND OR SWAP1 SSTORE JUMP JUMPDEST ADD SLOAD SWAP1 POP CODESIZE DUP1 PUSH2 0x3254 JUMP JUMPDEST DUP2 MSTORE PUSH1 0x20 DUP1 DUP3 KECCAK256 DUP6 DUP4 MSTORE DUP2 DUP4 KECCAK256 SWAP4 POP SWAP1 PUSH1 0x1F NOT DUP6 AND SWAP1 DUP4 SWAP1 JUMPDEST DUP3 DUP3 LT PUSH2 0x32C8 JUMPI POP POP SWAP1 DUP5 PUSH1 0x1 SWAP6 SWAP5 SWAP4 SWAP3 LT PUSH2 0x32AF JUMPI JUMPDEST POP POP POP DUP2 SHL ADD SWAP1 SSTORE JUMP JUMPDEST ADD SLOAD PUSH1 0x0 NOT PUSH1 0xF8 DUP5 PUSH1 0x3 SHL AND SHR NOT AND SWAP1 SSTORE CODESIZE DUP1 DUP1 PUSH2 0x32A5 JUMP JUMPDEST DUP5 SWAP6 DUP2 SWAP3 SWAP6 DUP6 ADD SLOAD DUP2 SSTORE PUSH1 0x1 DUP1 SWAP2 ADD SWAP7 ADD SWAP5 ADD SWAP1 PUSH2 0x328E JUMP JUMPDEST POP POP JUMP JUMPDEST PUSH2 0x32EF DUP2 SLOAD PUSH2 0x264A JUMP JUMPDEST SWAP1 DUP2 PUSH2 0x32F9 JUMPI POP POP JUMP JUMPDEST DUP2 PUSH1 0x1F PUSH1 0x0 SWAP4 GT PUSH1 0x1 EQ PUSH2 0x330B JUMPI POP SSTORE JUMP JUMPDEST SWAP1 DUP1 DUP4 SWAP2 DUP3 MSTORE PUSH2 0x332A PUSH1 0x1F PUSH1 0x20 DUP5 KECCAK256 SWAP5 ADD PUSH1 0x5 SHR DUP5 ADD PUSH1 0x1 DUP6 ADD PUSH2 0x27A9 JUMP JUMPDEST SSTORE SSTORE JUMP JUMPDEST DUP1 MLOAD DUP3 LT ISZERO PUSH2 0x20FD JUMPI PUSH1 0x20 SWAP2 PUSH1 0x5 SHL ADD ADD SWAP1 JUMP INVALID LOG2 PUSH5 0x6970667358 0x22 SLT KECCAK256 DUP12 PUSH27 0x24904F5E546196C145DB8DA46B4F95A5317C85579A7F635F3B13DD PUSH31 0xBB8964736F6C63430008130033000000000000000000000000000000000000 "},"methodIdentifiers":{"getAllLandDetails()":"a6ac704e","getLandDetails(uint256)":"fe0cb7dc","getOwnershipHistory(uint256)":"f1dbaccb","getPendingRequests()":"80a1f712","landCounter()":"9e29ce18","landRegistry(uint256)":"a3695b18","ownershipHistory(uint256)":"19159f20","pendingRequests(uint256)":"3c652a9a","registerLand(string,uint256,string,string,string,string,string,string,string)":"4abac37b","registeredLandIds(uint256)":"da5f55e9","transferLand(uint256,address,string,string,string,string,string,string)":"09c05b0e","updateLandDetails(uint256,string,string,string,string,string,string,string)":"7ce411f9","verifyRequest(uint256)":"7ae6da9b"}}}}}