{"contracts/LandTransfer.sol":{"LandTransfer":{"abi":[{"anonymous":false,"inputs":[{"indexed":true,"internalType":"uint256","name":"landId","type":"uint256"},{"indexed":true,"internalType":"address","name":"owner","type":"address"}],"name":"LandRegistered","type":"event"},{"anonymous":false,"inputs":[{"indexed":true,"internalType":"uint256","name":"landId","type":"uint256"},{"indexed":true,"internalType":"address","name":"from","type":"address"},{"indexed":true,"internalType":"address","name":"to","type":"address"}],"name":"LandTransferred","type":"event"},{"anonymous":false,"inputs":[{"indexed":true,"internalType":"uint256","name":"landId","type":"uint256"},{"indexed":false,"internalType":"string","name":"requestType","type":"string"},{"indexed":true,"internalType":"address","name":"requester","type":"address"}],"name":"RequestAdded","type":"event"},{"anonymous":false,"inputs":[{"indexed":true,"internalType":"uint256","name":"landId","type":"uint256"},{"indexed":false,"internalType":"string","name":"requestType","type":"string"},{"indexed":true,"internalType":"address","name":"verifier","type":"address"}],"name":"RequestVerified","type":"event"},{"inputs":[],"name":"getAllLandDetails","outputs":[{"components":[{"internalType":"uint256","name":"Land_id","type":"uint256"},{"internalType":"string","name":"fullName","type":"string"},{"internalType":"string","name":"fatherName","type":"string"},{"internalType":"string","name":"cnic","type":"string"},{"internalType":"string","name":"email","type":"string"},{"internalType":"string","name":"permanentAddress","type":"string"},{"internalType":"string","name":"temporaryAddress","type":"string"},{"internalType":"string","name":"size","type":"string"},{"internalType":"string","name":"location","type":"string"},{"internalType":"address","name":"owner","type":"address"},{"internalType":"bool","name":"isRegister","type":"bool"}],"internalType":"struct LandRegistration.LandDetails[]","name":"","type":"tuple[]"}],"stateMutability":"view","type":"function"},{"inputs":[{"internalType":"uint256","name":"_landId","type":"uint256"}],"name":"getLandDetails","outputs":[{"internalType":"string","name":"fullName","type":"string"},{"internalType":"string","name":"email","type":"string"},{"internalType":"string","name":"fatherName","type":"string"},{"internalType":"string","name":"cnic","type":"string"},{"internalType":"string","name":"permanentAddress","type":"string"},{"internalType":"string","name":"temporaryAddress","type":"string"},{"internalType":"string","name":"_size","type":"string"},{"internalType":"string","name":"_location","type":"string"},{"internalType":"address","name":"owner","type":"address"}],"stateMutability":"view","type":"function"},{"inputs":[{"internalType":"address","name":"_owner","type":"address"}],"name":"getOwnedLandDetails","outputs":[{"components":[{"internalType":"uint256","name":"Land_id","type":"uint256"},{"internalType":"string","name":"fullName","type":"string"},{"internalType":"string","name":"fatherName","type":"string"},{"internalType":"string","name":"cnic","type":"string"},{"internalType":"string","name":"email","type":"string"},{"internalType":"string","name":"permanentAddress","type":"string"},{"internalType":"string","name":"temporaryAddress","type":"string"},{"internalType":"string","name":"size","type":"string"},{"internalType":"string","name":"location","type":"string"},{"internalType":"address","name":"owner","type":"address"},{"internalType":"bool","name":"isRegister","type":"bool"}],"internalType":"struct LandRegistration.LandDetails[]","name":"","type":"tuple[]"}],"stateMutability":"view","type":"function"},{"inputs":[{"internalType":"uint256","name":"_landId","type":"uint256"}],"name":"getOwnershipHistory","outputs":[{"internalType":"address[]","name":"","type":"address[]"}],"stateMutability":"view","type":"function"},{"inputs":[],"name":"getPendingRequests","outputs":[{"components":[{"internalType":"uint256","name":"Land_id","type":"uint256"},{"internalType":"string","name":"fullName","type":"string"},{"internalType":"string","name":"fatherName","type":"string"},{"internalType":"string","name":"cnic","type":"string"},{"internalType":"string","name":"email","type":"string"},{"internalType":"string","name":"permanentAddress","type":"string"},{"internalType":"string","name":"temporaryAddress","type":"string"},{"internalType":"string","name":"size","type":"string"},{"internalType":"string","name":"location","type":"string"},{"internalType":"address","name":"owner","type":"address"},{"internalType":"string","name":"requestType","type":"string"}],"internalType":"struct LandRegistration.PendingRequest[]","name":"","type":"tuple[]"}],"stateMutability":"view","type":"function"},{"inputs":[],"name":"incrementLandCounter","outputs":[],"stateMutability":"nonpayable","type":"function"},{"inputs":[{"internalType":"uint256","name":"_landId","type":"uint256"}],"name":"initiateTransfer","outputs":[],"stateMutability":"nonpayable","type":"function"},{"inputs":[],"name":"landCounter","outputs":[{"internalType":"uint256","name":"","type":"uint256"}],"stateMutability":"view","type":"function"},{"inputs":[{"internalType":"uint256","name":"","type":"uint256"}],"name":"landRegistry","outputs":[{"internalType":"uint256","name":"Land_id","type":"uint256"},{"internalType":"string","name":"fullName","type":"string"},{"internalType":"string","name":"fatherName","type":"string"},{"internalType":"string","name":"cnic","type":"string"},{"internalType":"string","name":"email","type":"string"},{"internalType":"string","name":"permanentAddress","type":"string"},{"internalType":"string","name":"temporaryAddress","type":"string"},{"internalType":"string","name":"size","type":"string"},{"internalType":"string","name":"location","type":"string"},{"internalType":"address","name":"owner","type":"address"},{"internalType":"bool","name":"isRegister","type":"bool"}],"stateMutability":"view","type":"function"},{"inputs":[{"internalType":"uint256","name":"","type":"uint256"}],"name":"lands","outputs":[{"internalType":"address","name":"owner","type":"address"},{"internalType":"string","name":"fullName","type":"string"},{"internalType":"string","name":"recipientName","type":"string"},{"internalType":"string","name":"cnic","type":"string"},{"internalType":"string","name":"recipientCnic","type":"string"},{"internalType":"string","name":"currentAddress","type":"string"},{"internalType":"string","name":"permanentAddress","type":"string"},{"internalType":"string","name":"email","type":"string"},{"internalType":"bool","name":"isTransferred","type":"bool"}],"stateMutability":"view","type":"function"},{"inputs":[{"internalType":"uint256","name":"","type":"uint256"}],"name":"ownershipHistory","outputs":[{"internalType":"uint256","name":"Land_id","type":"uint256"}],"stateMutability":"view","type":"function"},{"inputs":[{"internalType":"uint256","name":"","type":"uint256"}],"name":"pendingRequests","outputs":[{"internalType":"uint256","name":"Land_id","type":"uint256"},{"internalType":"string","name":"fullName","type":"string"},{"internalType":"string","name":"fatherName","type":"string"},{"internalType":"string","name":"cnic","type":"string"},{"internalType":"string","name":"email","type":"string"},{"internalType":"string","name":"permanentAddress","type":"string"},{"internalType":"string","name":"temporaryAddress","type":"string"},{"internalType":"string","name":"size","type":"string"},{"internalType":"string","name":"location","type":"string"},{"internalType":"address","name":"owner","type":"address"},{"internalType":"string","name":"requestType","type":"string"}],"stateMutability":"view","type":"function"},{"inputs":[{"internalType":"string","name":"_fullName","type":"string"},{"internalType":"uint256","name":"_Land_id","type":"uint256"},{"internalType":"string","name":"_size","type":"string"},{"internalType":"string","name":"_location","type":"string"},{"internalType":"string","name":"_fatherName","type":"string"},{"internalType":"string","name":"_email","type":"string"},{"internalType":"string","name":"_cnic","type":"string"},{"internalType":"string","name":"_permanentAddress","type":"string"},{"internalType":"string","name":"_temporaryAddress","type":"string"}],"name":"registerLand","outputs":[],"stateMutability":"nonpayable","type":"function"},{"inputs":[{"internalType":"uint256","name":"","type":"uint256"}],"name":"registeredLandIds","outputs":[{"internalType":"uint256","name":"","type":"uint256"}],"stateMutability":"view","type":"function"},{"inputs":[{"internalType":"uint256","name":"_landId","type":"uint256"},{"internalType":"address","name":"_recipient","type":"address"},{"internalType":"string","name":"_recipientName","type":"string"},{"internalType":"string","name":"_recipientCnic","type":"string"},{"internalType":"string","name":"_recipientfatherName","type":"string"},{"internalType":"string","name":"_currentAddress","type":"string"},{"internalType":"string","name":"_permanentAddress","type":"string"},{"internalType":"string","name":"_email","type":"string"}],"name":"transferLand","outputs":[],"stateMutability":"nonpayable","type":"function"},{"inputs":[{"internalType":"string","name":"_fullName","type":"string"},{"internalType":"string","name":"_recipientName","type":"string"},{"internalType":"string","name":"_cnic","type":"string"},{"internalType":"string","name":"_recipientCnic","type":"string"},{"internalType":"string","name":"_currentAddress","type":"string"},{"internalType":"string","name":"_permanentAddress","type":"string"},{"internalType":"string","name":"_email","type":"string"}],"name":"transferLand","outputs":[],"stateMutability":"nonpayable","type":"function"},{"inputs":[{"internalType":"uint256","name":"_landId","type":"uint256"},{"internalType":"string","name":"_fullName","type":"string"},{"internalType":"string","name":"_fatherName","type":"string"},{"internalType":"string","name":"_cnic","type":"string"},{"internalType":"string","name":"_permanentAddress","type":"string"},{"internalType":"string","name":"_size","type":"string"},{"internalType":"string","name":"_location","type":"string"},{"internalType":"string","name":"_temporaryAddress","type":"string"}],"name":"updateLandDetails","outputs":[],"stateMutability":"nonpayable","type":"function"},{"inputs":[{"internalType":"uint256","name":"_index","type":"uint256"}],"name":"verifyRequest","outputs":[],"stateMutability":"nonpayable","type":"function"}],"evm":{"bytecode":{"linkReferences":{},"object":"6080806040523461001657613ed4908161001c8239f35b600080fdfe6080604052600436101561001257600080fd5b60003560e01c806309c05b0e14612d7c57806319159f2014612d505780631df4ce0e1461267d5780633c652a9a146125235780634abac37b146123c857806361a31e00146122d35780637ae6da9b146111f75780637ce411f914610b2257806380a1f712146109635780639e29ce1814610945578063a3695b18146107ff578063a6ac704e146106a4578063ad2ad9d214610683578063da5f55e91461064b578063e261f1e51461052e578063f1dbaccb1461047a578063f47d31dc146102815763fe0cb7dc146100e257600080fd5b3461027c57602036600319011261027c57600435600052600060205260406000206040519061011082612ec6565b8054825261012060018201612fcd565b602083019081529061013460028201612fcd565b604084019081529261014860038301612fcd565b6060820190815261015b60048401612fcd565b608083019081529461016f60058501612fcd565b60a0840190815261018260068601612fcd565b60c0850190815261019560078701612fcd565b60e08601908152916101a960088801612fcd565b946101009786898901526009015498600160a01b600190038a16976101209a898c83015260a01c60ff16151590610140015251995194519051915192519351946040519a8a8c9b8c528b016101fd91613073565b8a810360208c015261020e91613073565b89810360408b015261021f91613073565b88810360608a015261023091613073565b878103608089015261024191613073565b86810360a088015261025291613073565b85810360c087015261026391613073565b84810360e086015261027491613073565b918301520390f35b600080fd5b3461027c5760208060031936011261027c576004356001600160a01b03818116929183900361027c576003805492906000805b85811061041457506102c590613df0565b9460009260005b8681106102e557604051806102e18a826130b3565b0390f35b6102ee816131e7565b905490851b1c60005260008252604060002086600982015460a09260ff82851c1693848095610409575b610330575b505050505061032b90613cc0565b6102cc565b9288926103ce60086103fe979461032b999d97610380604051986103538a612ec6565b83548a528d61036460018601612fcd565b908b015261037460028501612fcd565b60408b01528301612fcd565b606089015261039160048301612fcd565b60808901526103a260058301612fcd565b908801526103b260068201612fcd565b60c08801526103c360078201612fcd565b60e088015201612fcd565b6101008501521661012083015215156101408201526103ed828c613e8a565b526103f8818b613e8a565b50613cc0565b9490868a808061031d565b508784841614610318565b61041d816131e7565b905490841b1c60005260008452600960406000200154878660ff8360a01c16928361046e575b505050610459575b61045490613cc0565b6102b4565b9061046661045491613cc0565b91905061044b565b1614905087868a610443565b3461027c5760208060031936011261027c57600435600052600190818152816040600020019160405191828185549182815201908195600052826000209060005b81811061051257505050836104d1910384612efd565b60405192818401908285525180915260408401949160005b8281106104f65785870386f35b83516001600160a01b03168752958101959281019284016104e9565b82546001600160a01b03168452928401929185019185016104bb565b3461027c57602036600319011261027c57600435600090815260056020526040902080546001600160a01b031661056760018301612fcd565b9161057460028201612fcd565b9061058160038201612fcd565b61058d60048301612fcd565b61059960058401612fcd565b906105a660068501612fcd565b926105b360078601612fcd565b946008015460ff169560405198899889526101208060208b015289016105d891613073565b88810360408a01526105e991613073565b87810360608901526105fa91613073565b868103608088015261060b91613073565b85810360a087015261061c91613073565b84810360c086015261062d91613073565b83810360e085015261063e91613073565b9015156101008301520390f35b3461027c57602036600319011261027c5760043560035481101561027c576106746020916131e7565b90549060031b1c604051908152f35b3461027c57600036600319011261027c5761069f600254613cc0565b600255005b3461027c57600036600319011261027c5760026106c18154613df0565b600380549192600090815b8481106106e157604051806102e188826130b3565b6106ea816131e7565b905490851b1c6000526020600081526040600020600981015460a09160ff82841c169283610726575b505050505061072190613cc0565b6106cc565b916107c26008610721979995936107f497956040519661074588612ec6565b8254885261075560018401612fcd565b908801526107648b8301612fcd565b60408801526107748d8301612fcd565b606088015261078560048301612fcd565b608088015261079660058301612fcd565b908701526107a660068201612fcd565b60c08701526107b760078201612fcd565b60e087015201612fcd565b6101008401526001600160a01b031661012083015215156101408201526107e9828a613e8a565b526103f88189613e8a565b929087808080610713565b3461027c57602036600319011261027c576004356000526000602052604060002080546001820161082f90612fcd565b9161083c60028201612fcd565b9061084960038201612fcd565b61085560048301612fcd565b61086160058401612fcd565b61086d60068501612fcd565b9161087a60078601612fcd565b9361088760088701612fcd565b956009015496604051998a998a526101608060208c01528a016108a991613073565b89810360408b01526108ba91613073565b88810360608a01526108cb91613073565b87810360808901526108dc91613073565b86810360a08801526108ed91613073565b85810360c08701526108fe91613073565b84810360e086015261090f91613073565b83810361010085015261092191613073565b90600160a01b60019003811661012084015260a01c60ff1615156101408301520390f35b3461027c57600036600319011261027c576020600254604051908152f35b3461027c57600036600319011261027c5760045461098081613be6565b9061098e6040519283612efd565b80825260046000908152602091828401917f8a35acfbc15ff81a39ae7d344fd709f28e8600b4aa8c65c6b64bfe7fe36bd19b835b838310610aff5750505050604051918083019381845251809452604083019360408160051b85010192916000955b8287106109fd5785850386f35b909192938280610aef600193603f198a8203018652885180518252610ac9610ab5610aa3610a90610a7d610a6a610a57610a458b8901518c61016080918d01528b0190613073565b60408901518a820360408c0152613073565b606080890151908a8303908b0152613073565b60808088015190898303908a0152613073565b60a0808701519088830390890152613073565b60c0808601519087830390880152613073565b60e084015185820360e0870152613073565b610100808401519085830390860152613073565b91610120878060a01b038184015116908201526101408092015191818403910152613073565b96019201960195929190926109f0565b600b86600192610b11859a999a613bfd565b8152019201920191909594956109c2565b3461027c5761010036600319011261027c576004356024356001600160401b03811161027c57610b56903690600401612f1e565b906044356001600160401b03811161027c57610b76903690600401612f1e565b916064356001600160401b03811161027c57610b96903690600401612f1e565b6084356001600160401b03811161027c57610bb5903690600401612f1e565b60a4356001600160401b03811161027c57610bd4903690600401612f1e565b9160c4356001600160401b03811161027c57610bf4903690600401612f1e565b9560e4356001600160401b03811161027c57610c14903690600401612f1e565b95806000526000602052610c3960018060a01b03600960406000200154163314613b26565b600052600060205260406000209480516001600160401b038111610f1257806001880192610c7182610c6b8654612f93565b8661323d565b602090601f831160011461118b57600092611180575b50508160011b916000199060031b1c19161790555b8051906001600160401b038211610f12578190610cc982610cc060028a0154612f93565b60028a0161323d565b602090601f831160011461111357600092611108575b50508160011b916000199060031b1c19161760028501555b8051906001600160401b038211610f12578190610d2482610d1b6003890154612f93565b6003890161323d565b602090601f83116001146110965760009261108b575b50508160011b916000199060031b1c19161760038401555b8051906001600160401b038211610f12578190610d7f82610d766005880154612f93565b6005880161323d565b602090601f83116001146110195760009261100e575b50508160011b916000199060031b1c19161760058301555b805160078301916001600160401b038211610f12578190610dd282610c6b8654612f93565b602090601f8311600114610fa857600092610f9d575b50508160011b916000199060031b1c19161790555b6008810183516001600160401b038111610f1257610e2581610e1f8454612f93565b8461323d565b6020601f8211600114610f3357819060069596600092610f28575b50508160011b916000199060031b1c19161790555b0181516001600160401b038111610f1257610e7481610e1f8454612f93565b602092601f8211600114610eb15792819293600092610ea6575b5050600019600383901b1c191660019190911b179055005b015190508380610e8e565b601f198216938360005260206000209160005b868110610efa5750836001959610610ee1575b505050811b019055005b015160001960f88460031b161c19169055838080610ed7565b91926020600181928685015181550194019201610ec4565b634e487b7160e01b600052604160045260246000fd5b015190508680610e40565b601f198216958360005260206000209660005b818110610f855750916006969791846001959410610f6c575b505050811b019055610e55565b015160001960f88460031b161c19169055868080610f5f565b83830151895560019098019760209384019301610f46565b015190508680610de8565b6000858152602081209350601f198516905b818110610ff65750908460019594939210610fdd575b505050811b019055610dfd565b015160001960f88460031b161c19169055868080610fd0565b92936020600181928786015181550195019301610fba565b015190508680610d95565b9250600585016000526020600020906000935b601f1984168510611070576001945083601f19811610611057575b505050811b016005830155610dad565b015160001960f88460031b161c19169055868080611047565b8181015183556020948501946001909301929091019061102c565b015190508780610d3a565b9250600386016000526020600020906000935b601f19841685106110ed576001945083601f198116106110d4575b505050811b016003840155610d52565b015160001960f88460031b161c191690558780806110c4565b818101518355602094850194600190930192909101906110a9565b015190508880610cdf565b600288016000908152602081209350601f198516905b818110611168575090846001959493921061114f575b505050811b016002850155610cf7565b015160001960f88460031b161c1916905588808061113f565b92936020600181928786015181550195019301611129565b015190508a80610c87565b9250836000526020600020906000935b601f19841685106111dc576001945083601f198116106111c3575b505050811b019055610c9c565b015160001960f88460031b161c191690558a80806111b6565b8181015183556020948501946001909301929091019061119b565b3461027c57602036600319011261027c5761121c611216600435612f74565b50613bfd565b61014081015160208151910120611231613202565b6020815191012014600014611cc35760e081015190610100810151602082015190825193608084015160408501519060608601519060a08701519160c08801519360018060a01b036101208a015116976040519a61128e8c612ec6565b8b5260208b015260408a01526060890152608088015260a087015260c086015260e085015261010084015261012083015260016101408301526112d2600254613cc0565b6002558051600354600160401b811015610f12578060016112f692016003556131e7565b90918254908260031b1b916000199060031b1b1916179055805160005260006020526040600020908251825560208301519283516001600160401b038111610f1257611352816113496001870154612f93565b6001870161323d565b6020601f8211600114611c54578192939495600092611c49575b50508160011b916000199060031b1c19161760018401555b60408101519283516001600160401b038111610f12576113b4816113ab6002850154612f93565b6002850161323d565b6020601f8211600114611bda578192939495600092611bcf575b50508160011b916000199060031b1c19161760028201555b60608201519283516001600160401b038111610f12576114168161140d6003860154612f93565b6003860161323d565b6020601f8211600114611b60578192939495600092611b55575b50508160011b916000199060031b1c19161760038301555b60808301519283516001600160401b038111610f12576114788161146f6004870154612f93565b6004870161323d565b6020601f8211600114611ae6578192939495600092611adb575b50508160011b916000199060031b1c19161760048401555b60a08101519283516001600160401b038111610f12576114da816114d16005850154612f93565b6005850161323d565b6020601f8211600114611a6c578192939495600092611a61575b50508160011b916000199060031b1c19161760058201555b60c08201519283516001600160401b038111610f125761153c816115336006860154612f93565b6006860161323d565b6020601f82116001146119f25781929394956000926119e7575b50508160011b916000199060031b1c19161760068301555b60e08301519283516001600160401b038111610f125761159e816115956007870154612f93565b6007870161323d565b6020601f821160011461197857819293949560009261196d575b50508160011b916000199060031b1c19161760078401555b6101008101519283516001600160401b038111610f1257611601816115f86008850154612f93565b6008850161323d565b6020601f82116001146118fa57819060099495966000926118ef575b50508160011b916000199060031b1c19161760088201555b61012080840151929091018054610140909401516001600160a81b03199094166001600160a01b039384161793151560a01b60ff60a01b169390931790925582519183015116907fcb4990052f95f6057496d19524f6c3163f50af9f33f2c15b092928e03414323e600080a35b6004548060043510156118ba57600019908082019081116118a4576116c690612f74565b506116d2600435612f74565b6117b7578181036117e3575b505060045480156117cd57016116f381612f74565b6117b757600a81600061176e935561170d60018201613da7565b61171960028201613da7565b61172560038201613da7565b61173160048201613da7565b61173d60058201613da7565b61174960068201613da7565b61175560078201613da7565b61176160088201613da7565b6000600982015501613da7565b6004556101408151910151907fbf3747916bbe426e0fd532a54a21bcf371c5ca55c33adbfd8b43756bb1bea93860405160208152806117b233956020830190613073565b0390a3005b634e487b7160e01b600052600060045260246000fd5b634e487b7160e01b600052603160045260246000fd5b600a808361189d945484556117fe6001820160018601613ccf565b61180e6002820160028601613ccf565b61181e6003820160038601613ccf565b61182e6004820160048601613ccf565b61183e6005820160058601613ccf565b61184e6006820160068601613ccf565b61185e6007820160078601613ccf565b61186e6008820160088601613ccf565b60098181015490850180546001600160a01b0319166001600160a01b0392909216919091179055019101613ccf565b82806116de565b634e487b7160e01b600052601160045260246000fd5b60405162461bcd60e51b815260206004820152600d60248201526c092dcecc2d8d2c840d2dcc8caf609b1b6044820152606490fd5b01519050868061161d565b6008830160005260206000209560005b601f198416811061195557509582916009959697600194601f1981161061193c575b505050811b016008820155611635565b015160001960f88460031b161c1916905586808061192c565b8282015188556001909701966020928301920161190a565b0151905085806115b8565b6007850160005260206000209060005b601f19841681106119cf575060019394959683601f198116106119b6575b505050811b0160078401556115d0565b015160001960f88460031b161c191690558580806119a6565b9091602060018192858b015181550193019101611988565b015190508580611556565b6006840160005260206000209060005b601f1984168110611a49575060019394959683601f19811610611a30575b505050811b01600683015561156e565b015160001960f88460031b161c19169055858080611a20565b9091602060018192858b015181550193019101611a02565b0151905085806114f4565b6005830160005260206000209060005b601f1984168110611ac3575060019394959683601f19811610611aaa575b505050811b01600582015561150c565b015160001960f88460031b161c19169055858080611a9a565b9091602060018192858b015181550193019101611a7c565b015190508580611492565b6004850160005260206000209060005b601f1984168110611b3d575060019394959683601f19811610611b24575b505050811b0160048401556114aa565b015160001960f88460031b161c19169055858080611b14565b9091602060018192858b015181550193019101611af6565b015190508580611430565b6003840160005260206000209060005b601f1984168110611bb7575060019394959683601f19811610611b9e575b505050811b016003830155611448565b015160001960f88460031b161c19169055858080611b8e565b9091602060018192858b015181550193019101611b70565b0151905085806113ce565b6002830160005260206000209060005b601f1984168110611c31575060019394959683601f19811610611c18575b505050811b0160028201556113e6565b015160001960f88460031b161c19169055858080611c08565b9091602060018192858b015181550193019101611bea565b01519050858061136c565b6001850160005260206000209060005b601f1984168110611cab575060019394959683601f19811610611c92575b505050811b016001840155611384565b015160001960f88460031b161c19169055858080611c82565b9091602060018192858b015181550193019101611c64565b61014081015160208151910120611cd8613bc2565b60208151910120036116a2578051600052600060205260018060a01b0360096040600020015416815160005260016020526001604060002001805490600160401b821015610f1257600182018082558210156122bd5760005260206000200160018060a01b031990828282541617905560018060a01b0361012084015116835160005260006020526009604060002001918254161790556020820151918051600052600160406000200183516001600160401b038111610f1257611da081610e1f8454612f93565b6020601f8211600114612254578192939495600092612249575b50508160011b916000199060031b1c19161790555b60608101519181516000526000602052600360406000200183516001600160401b038111610f1257611e0581610e1f8454612f93565b6020601f82116001146121e05781929394956000926121d5575b50508160011b916000199060031b1c19161790555b60808201519180516000526000602052600460406000200183516001600160401b038111610f1257611e6a81610e1f8454612f93565b6020601f821160011461216c578192939495600092612161575b50508160011b916000199060031b1c19161790555b60408101519181516000526000602052600260406000200183516001600160401b038111610f1257611ecf81610e1f8454612f93565b6020601f82116001146120f85781929394956000926120ed575b50508160011b916000199060031b1c19161790555b60c08201519180516000526000602052600660406000200183516001600160401b038111610f1257611f3481610e1f8454612f93565b6020601f8211600114612084578192939495600092612079575b50508160011b916000199060031b1c19161790555b60a08101519181516000526000602052600560406000200183516001600160401b038111610f1257611f9981610e1f8454612f93565b6020601f8211600114612010578192939495600092612005575b50508160011b916000199060031b1c19161790555b81516101208301516001600160a01b031691907f1080b2f211753e5090f26ef7ffdc6bb3e66a125c7290200d10b502160bb1f566600080a46116a2565b015190508580611fb3565b8260005260206000209060005b601f1984168110612061575060019394959683601f19811610612048575b505050811b019055611fc8565b015160001960f88460031b161c1916905585808061203b565b9091602060018192858b01518155019301910161201d565b015190508580611f4e565b8260005260206000209060005b601f19841681106120d5575060019394959683601f198116106120bc575b505050811b019055611f63565b015160001960f88460031b161c191690558580806120af565b9091602060018192858b015181550193019101612091565b015190508580611ee9565b8260005260206000209060005b601f1984168110612149575060019394959683601f19811610612130575b505050811b019055611efe565b015160001960f88460031b161c19169055858080612123565b9091602060018192858b015181550193019101612105565b015190508580611e84565b8260005260206000209060005b601f19841681106121bd575060019394959683601f198116106121a4575b505050811b019055611e99565b015160001960f88460031b161c19169055858080612197565b9091602060018192858b015181550193019101612179565b015190508580611e1f565b8260005260206000209060005b601f1984168110612231575060019394959683601f19811610612218575b505050811b019055611e34565b015160001960f88460031b161c1916905585808061220b565b9091602060018192858b0151815501930191016121ed565b015190508580611dba565b8260005260206000209060005b601f19841681106122a5575060019394959683601f1981161061228c575b505050811b019055611dcf565b015160001960f88460031b161c1916905585808061227f565b9091602060018192858b015181550193019101612261565b634e487b7160e01b600052603260045260246000fd5b3461027c5760208060031936011261027c57600435806000526005825261230860018060a01b03604060002054163314613b26565b806000526005825260ff6008604060002001541661238357600560009282845281815261234561233e6001604087200154612f93565b1515613b7d565b8284525260408220600801805460ff1916600117905533907f1080b2f211753e5090f26ef7ffdc6bb3e66a125c7290200d10b502160bb1f5668380a4005b60405162461bcd60e51b815260048101839052601b60248201527f4c616e6420697320616c7265616479207472616e7366657272656400000000006044820152606490fd5b3461027c5761012036600319011261027c576001600160401b0360043581811161027c576123fa903690600401612f1e565b60243560443583811161027c57612415903690600401612f1e565b60643584811161027c5761242d903690600401612f1e565b9060843585811161027c57612446903690600401612f1e565b9460a43581811161027c5761245f903690600401612f1e565b9060c43581811161027c57612478903690600401612f1e565b9160e43582811161027c57612491903690600401612f1e565b916101043590811161027c576124ab903690600401612f1e565b9286600052600060205260ff60096040600020015460a01c166124de576124dc986124d4613202565b983398613282565b005b60405162461bcd60e51b815260206004820152601a60248201527f4c616e6420697320416c726561647920526567697374657265640000000000006044820152606490fd5b3461027c57602036600319011261027c5760043560045481101561027c5761254a90612f74565b50805461255960018301612fcd565b9161256660028201612fcd565b9061257360038201612fcd565b61257f60048301612fcd565b61258b60058401612fcd565b61259760068501612fcd565b906125a460078601612fcd565b926125b160088701612fcd565b60098701546001600160a01b0316969095906125cf90600a01612fcd565b976040519a8b9a8b526101608060208d01528b016125ec91613073565b8a810360408c01526125fd91613073565b89810360608b015261260e91613073565b88810360808a015261261f91613073565b87810360a089015261263091613073565b86810360c088015261264191613073565b85810360e087015261265291613073565b84810361010086015261266491613073565b906101208401528281036101408401526102e191613073565b3461027c5760e036600319011261027c576001600160401b0360043581811161027c576126ae903690600401612f1e565b602491823581811161027c576126c8903690600401612f1e565b9060443581811161027c576126e1903690600401612f1e565b9060643581811161027c576126fa903690600401612f1e565b9160843582811161027c57612713903690600401612f1e565b9360a43583811161027c5761272c903690600401612f1e565b9560c43584811161027c57612745903690600401612f1e565b94612751600254613cc0565b978860025560405197610120890189811088821117612ad957604052338952602092838a0194855260408a0195865260608a0196875260808a0190815260a08a0191825260c08a0192835260e08a019889526101008a019a60008c526000526005845260406000209960018060a01b0390511660018060a01b03198b5416178a55600195868b0195519586518a8111612c5f576127f281610e1f8454612f93565b8087601f998a8311600114612ced57600092612ce2575b5050600019600383901b1c191690891b1790555b51805160028c01918a8211612c5f57819061283c82610c6b8654612f93565b8790898311600114612c7f57600092612c74575b5050600019600383901b1c191690881b1790555b600396878b0190518051908a8211612c5f57819061288682610c6b8654612f93565b8790898311600114612bfd57600092612bf2575b5050600019828b1b1c191690881b1790555b51805160048b0191898211612bdd5781906128cb82610c6b8654612f93565b8690888311600114612b7b57600092612b70575b5050600019828a1b1c191690871b1790555b51805160058a0191888211612b5b57819061291082610c6b8654612f93565b8590878311600114612af957600092612aee575b505060001982891b1c191690861b1790555b5180516006890191878211612ad957819061295582610c6b8654612f93565b8490868311600114612a7757600092612a6c575b505060001982881b1c191690851b1790555b600787019551988951958611612a5857506129a08561299a8854612f93565b8861323d565b809185116001146129ee57508392918391600898996000956129e3575b50501b92600019911b1c19161790555b019051151560ff80198354169116179055600080f35b0151935089806129bd565b91939290601f198416988660005283600020936000905b8b8210612a41575050846008999a10612a27575b50505050811b0190556129cd565b01519060f884600019921b161c1916905586808080612a19565b808885978294968601518155019601930190612a05565b634e487b7160e01b60009081526041600452fd5b015190508c80612969565b90879350601f1983169185600052866000209260005b88828210612ac35750508411612aab575b505050811b01905561297b565b0151600019838a1b60f8161c191690558c8080612a9e565b8385015186558b97909501949384019301612a8d565b8b634e487b7160e01b60005260416004526000fd5b015190508d80612924565b90889350601f1983169185600052876000209260005b89828210612b455750508411612b2d575b505050811b019055612936565b0151600019838b1b60f8161c191690558d8080612b20565b8385015186558c97909501949384019301612b0f565b8c634e487b7160e01b60005260416004526000fd5b015190508e806128df565b90899350601f1983169185600052886000209260005b8a828210612bc75750508411612baf575b505050811b0190556128f1565b0151600019838c1b60f8161c191690558e8080612ba2565b8385015186558d97909501949384019301612b91565b8d634e487b7160e01b60005260416004526000fd5b015190508f8061289a565b908a9350601f1983169185600052896000209260005b8b828210612c495750508411612c31575b505050811b0190556128ac565b0151600019838d1b60f8161c191690558f8080612c24565b8385015186558e97909501949384019301612c13565b8e634e487b7160e01b60005260416004526000fd5b015190508f80612850565b908a9350601f1983169185600052896000209260005b8b828210612ccc5750508411612cb3575b505050811b019055612864565b015160001960f88460031b161c191690558f8080612ca6565b8385015186558e97909501949384019301612c95565b015190503880612809565b908b9350601f19831691856000528a6000209260005b8c828210612d3a5750508411612d21575b505050811b01905561281d565b015160001960f88460031b161c19169055388080612d14565b8385015186558f97909501949384019301612d03565b3461027c57602036600319011261027c5760043560005260016020526020604060002054604051908152f35b3461027c5761010036600319011261027c576001600160a01b03600435602435828116810361027c576001600160401b039260443584811161027c57612dc6903690600401612f1e565b9060643585811161027c57612ddf903690600401612f1e565b9060843586811161027c57612df8903690600401612f1e565b9160a43587811161027c57612e11903690600401612f1e565b9160c43588811161027c57612e2a903690600401612f1e565b9160e43598891161027c57612e64612e496124dc9a3690600401612f1e565b92896000526000602052600960406000200154163314613b26565b876000526000602052612e8460ff60096040600020015460a01c16613b7d565b876000526000602052612e9d6007604060002001612fcd565b94886000526000602052612eb76008604060002001612fcd565b96612ec0613bc2565b99613282565b61016081019081106001600160401b03821117610f1257604052565b604081019081106001600160401b03821117610f1257604052565b90601f801991011681019081106001600160401b03821117610f1257604052565b81601f8201121561027c578035906001600160401b038211610f125760405192612f52601f8401601f191660200185612efd565b8284526020838301011161027c57816000926020809301838601378301015290565b6004548110156122bd576004600052600b602060002091020190600090565b90600182811c92168015612fc3575b6020831014612fad57565b634e487b7160e01b600052602260045260246000fd5b91607f1691612fa2565b9060405191826000825492612fe184612f93565b908184526001948581169081600014613050575060011461300d575b505061300b92500383612efd565b565b9093915060005260209081600020936000915b81831061303857505061300b93508201013880612ffd565b85548884018501529485019487945091830191613020565b91505061300b94506020925060ff191682840152151560051b8201013880612ffd565b919082519283825260005b84811061309f575050826000602080949584010152601f8019910116010190565b60208183018101518483018201520161307e565b602080820190808352835180925260409283810182858560051b8401019601946000925b8584106130e8575050505050505090565b909192939495968580600192603f198582030187528a5190815181526131b76131a361319061317d61316a6131576131448d6131328b8b01518c61016080918d01528b0190613073565b90808b0151908a8303908b0152613073565b6060808a015190898303908a0152613073565b6080808901519088830390890152613073565b60a0808801519087830390880152613073565b60c0808701519086830390870152613073565b60e0808601519085830390860152613073565b610100808501519084830390850152613073565b91610120868060a01b038183015116908301526101408091015115159101529901940194019295949391906130d7565b6003548110156122bd57600360005260206000200190600090565b6040519061320f82612ee2565b60088252673932b3b4b9ba32b960c11b6020830152565b818110613231575050565b60008155600101613226565b9190601f811161324c57505050565b61300b926000526020600020906020601f840160051c83019310613278575b601f0160051c0190613226565b909150819061326b565b9897949196939095926040519761329889612ec6565b8a89526020890197885260408901526060880152608087015260a086015260c085015260e08401526101008301526001600160a01b0383166101208301526101408201859052600454600160401b811015610f12578060016132fd9201600455612f74565b9190916117b75782518255518051906001600160401b038211610f1257819061332d826113496001870154612f93565b602090601f8311600114613ab457600092613aa9575b50508160011b916000199060031b1c19161760018201555b60408201518051906001600160401b038211610f1257819061338d826133846002870154612f93565b6002870161323d565b602090601f8311600114613a3757600092613a2c575b50508160011b916000199060031b1c19161760028201555b60608201518051906001600160401b038211610f125781906133ed826133e46003870154612f93565b6003870161323d565b602090601f83116001146139ba576000926139af575b50508160011b916000199060031b1c19161760038201555b60808201518051906001600160401b038211610f125781906134448261146f6004870154612f93565b602090601f831160011461393d57600092613932575b50508160011b916000199060031b1c19161760048201555b60a08201518051906001600160401b038211610f125781906134a48261349b6005870154612f93565b6005870161323d565b602090601f83116001146138c0576000926138b5575b50508160011b916000199060031b1c19161760058201555b60c08201518051906001600160401b038211610f12578190613504826134fb6006870154612f93565b6006870161323d565b602090601f831160011461384357600092613838575b50508160011b916000199060031b1c19161760068201555b60e08201518051906001600160401b038211610f1257819061355b826115956007870154612f93565b602090601f83116001146137c6576000926137bb575b50508160011b916000199060031b1c19161760078201555b61010082015180516001600160401b038111610f125760088301916135b8826135b28554612f93565b8561323d565b602090601f831160011461374c579180600a94926101409694600092613741575b50508160011b916000199060031b1c19161790555b6009810160018060a01b036101208601511660018060a01b0319825416179055019101518051906001600160401b038211610f1257613631826135b28554612f93565b602090601f83116001146136b35791806136a394927f90b328f02ed250ff4bf17cafcbd924782f15c92b3a87a4082e92ae216e1822c296946000926136a8575b50508160011b916000199060031b1c19161790555b6040519182916020835260018060a01b0316956020830190613073565b0390a3565b015190503880613671565b90601f198316918460005260206000209260005b81811061372957509260019285927f90b328f02ed250ff4bf17cafcbd924782f15c92b3a87a4082e92ae216e1822c298966136a3989610613710575b505050811b019055613686565b015160001960f88460031b161c19169055388080613703565b929360206001819287860151815501950193016136c7565b0151905038806135d9565b90601f198316918460005260206000209260005b8181106137a357509260019285926101409896600a98961061378a575b505050811b0190556135ee565b015160001960f88460031b161c1916905538808061377d565b92936020600181928786015181550195019301613760565b015190503880613571565b9250600784016000526020600020906000935b601f198416851061381d576001945083601f19811610613804575b505050811b016007820155613589565b015160001960f88460031b161c191690553880806137f4565b818101518355602094850194600190930192909101906137d9565b01519050388061351a565b9250600684016000526020600020906000935b601f198416851061389a576001945083601f19811610613881575b505050811b016006820155613532565b015160001960f88460031b161c19169055388080613871565b81810151835560209485019460019093019290910190613856565b0151905038806134ba565b9250600584016000526020600020906000935b601f1984168510613917576001945083601f198116106138fe575b505050811b0160058201556134d2565b015160001960f88460031b161c191690553880806138ee565b818101518355602094850194600190930192909101906138d3565b01519050388061345a565b9250600484016000526020600020906000935b601f1984168510613994576001945083601f1981161061397b575b505050811b016004820155613472565b015160001960f88460031b161c1916905538808061396b565b81810151835560209485019460019093019290910190613950565b015190503880613403565b9250600384016000526020600020906000935b601f1984168510613a11576001945083601f198116106139f8575b505050811b01600382015561341b565b015160001960f88460031b161c191690553880806139e8565b818101518355602094850194600190930192909101906139cd565b0151905038806133a3565b9250600284016000526020600020906000935b601f1984168510613a8e576001945083601f19811610613a75575b505050811b0160028201556133bb565b015160001960f88460031b161c19169055388080613a65565b81810151835560209485019460019093019290910190613a4a565b015190503880613343565b9250600184016000526020600020906000935b601f1984168510613b0b576001945083601f19811610613af2575b505050811b01600182015561335b565b015160001960f88460031b161c19169055388080613ae2565b81810151835560209485019460019093019290910190613ac7565b15613b2d57565b60405162461bcd60e51b815260206004820152602260248201527f596f7520617265206e6f7420746865206f776e6572206f662074686973206c616044820152611b9960f21b6064820152608490fd5b15613b8457565b60405162461bcd60e51b815260206004820152601660248201527513185b99081a5cc81b9bdd081c9959da5cdd195c995960521b6044820152606490fd5b60405190613bcf82612ee2565b60088252673a3930b739b332b960c11b6020830152565b6001600160401b038111610f125760051b60200190565b90604051613c0a81612ec6565b610140613cbb600a839580548552613c2460018201612fcd565b6020860152613c3560028201612fcd565b6040860152613c4660038201612fcd565b6060860152613c5760048201612fcd565b6080860152613c6860058201612fcd565b60a0860152613c7960068201612fcd565b60c0860152613c8a60078201612fcd565b60e0860152613c9b60088201612fcd565b61010086015260098101546001600160a01b031661012086015201612fcd565b910152565b60001981146118a45760010190565b90808214613da357613ce18154612f93565b906001600160401b038211610f12578190613d0082610c6b8654612f93565b600090601f8311600114613d3757600092613d2c575b50508160011b916000199060031b1c1916179055565b015490503880613d16565b81526020808220858352818320935090601f1985169083905b828210613d8a575050908460019594939210613d71575b505050811b019055565b015460001960f88460031b161c19169055388080613d67565b8495819295850154815560018091019601940190613d50565b5050565b613db18154612f93565b9081613dbb575050565b81601f60009311600114613dcd575055565b908083918252613dec601f60208420940160051c840160018501613226565b5555565b90613dfa82613be6565b604090613e0982519182612efd565b8381528093613e1a601f1991613be6565b0191600091825b848110613e2f575050505050565b6020908351613e3d81612ec6565b858152606083908082840152808784015280808401528060808401528060a08401528060c08401528060e08401526101008301528661012083015286610140830152828501015201613e21565b80518210156122bd5760209160051b01019056fea26469706673582212204532ba225b8802116ff7376ba27a222764ffedb317ac93a508233ebcaef0d8ca64736f6c63430008130033","opcodes":"PUSH1 0x80 DUP1 PUSH1 0x40 MSTORE CALLVALUE PUSH2 0x16 JUMPI PUSH2 0x3ED4 SWAP1 DUP2 PUSH2 0x1C DUP3 CODECOPY RETURN JUMPDEST PUSH1 0x0 DUP1 REVERT INVALID PUSH1 0x80 PUSH1 0x40 MSTORE PUSH1 0x4 CALLDATASIZE LT ISZERO PUSH2 0x12 JUMPI PUSH1 0x0 DUP1 REVERT JUMPDEST PUSH1 0x0 CALLDATALOAD PUSH1 0xE0 SHR DUP1 PUSH4 0x9C05B0E EQ PUSH2 0x2D7C JUMPI DUP1 PUSH4 0x19159F20 EQ PUSH2 0x2D50 JUMPI DUP1 PUSH4 0x1DF4CE0E EQ PUSH2 0x267D JUMPI DUP1 PUSH4 0x3C652A9A EQ PUSH2 0x2523 JUMPI DUP1 PUSH4 0x4ABAC37B EQ PUSH2 0x23C8 JUMPI DUP1 PUSH4 0x61A31E00 EQ PUSH2 0x22D3 JUMPI DUP1 PUSH4 0x7AE6DA9B EQ PUSH2 0x11F7 JUMPI DUP1 PUSH4 0x7CE411F9 EQ PUSH2 0xB22 JUMPI DUP1 PUSH4 0x80A1F712 EQ PUSH2 0x963 JUMPI DUP1 PUSH4 0x9E29CE18 EQ PUSH2 0x945 JUMPI DUP1 PUSH4 0xA3695B18 EQ PUSH2 0x7FF JUMPI DUP1 PUSH4 0xA6AC704E EQ PUSH2 0x6A4 JUMPI DUP1 PUSH4 0xAD2AD9D2 EQ PUSH2 0x683 JUMPI DUP1 PUSH4 0xDA5F55E9 EQ PUSH2 0x64B JUMPI DUP1 PUSH4 0xE261F1E5 EQ PUSH2 0x52E JUMPI DUP1 PUSH4 0xF1DBACCB EQ PUSH2 0x47A JUMPI DUP1 PUSH4 0xF47D31DC EQ PUSH2 0x281 JUMPI PUSH4 0xFE0CB7DC EQ PUSH2 0xE2 JUMPI PUSH1 0x0 DUP1 REVERT JUMPDEST CALLVALUE PUSH2 0x27C JUMPI PUSH1 0x20 CALLDATASIZE PUSH1 0x3 NOT ADD SLT PUSH2 0x27C JUMPI PUSH1 0x4 CALLDATALOAD PUSH1 0x0 MSTORE PUSH1 0x0 PUSH1 0x20 MSTORE PUSH1 0x40 PUSH1 0x0 KECCAK256 PUSH1 0x40 MLOAD SWAP1 PUSH2 0x110 DUP3 PUSH2 0x2EC6 JUMP JUMPDEST DUP1 SLOAD DUP3 MSTORE PUSH2 0x120 PUSH1 0x1 DUP3 ADD PUSH2 0x2FCD JUMP JUMPDEST PUSH1 0x20 DUP4 ADD SWAP1 DUP2 MSTORE SWAP1 PUSH2 0x134 PUSH1 0x2 DUP3 ADD PUSH2 0x2FCD JUMP JUMPDEST PUSH1 0x40 DUP5 ADD SWAP1 DUP2 MSTORE SWAP3 PUSH2 0x148 PUSH1 0x3 DUP4 ADD PUSH2 0x2FCD JUMP JUMPDEST PUSH1 0x60 DUP3 ADD SWAP1 DUP2 MSTORE PUSH2 0x15B PUSH1 0x4 DUP5 ADD PUSH2 0x2FCD JUMP JUMPDEST PUSH1 0x80 DUP4 ADD SWAP1 DUP2 MSTORE SWAP5 PUSH2 0x16F PUSH1 0x5 DUP6 ADD PUSH2 0x2FCD JUMP JUMPDEST PUSH1 0xA0 DUP5 ADD SWAP1 DUP2 MSTORE PUSH2 0x182 PUSH1 0x6 DUP7 ADD PUSH2 0x2FCD JUMP JUMPDEST PUSH1 0xC0 DUP6 ADD SWAP1 DUP2 MSTORE PUSH2 0x195 PUSH1 0x7 DUP8 ADD PUSH2 0x2FCD JUMP JUMPDEST PUSH1 0xE0 DUP7 ADD SWAP1 DUP2 MSTORE SWAP2 PUSH2 0x1A9 PUSH1 0x8 DUP9 ADD PUSH2 0x2FCD JUMP JUMPDEST SWAP5 PUSH2 0x100 SWAP8 DUP7 DUP10 DUP10 ADD MSTORE PUSH1 0x9 ADD SLOAD SWAP9 PUSH1 0x1 PUSH1 0xA0 SHL PUSH1 0x1 SWAP1 SUB DUP11 AND SWAP8 PUSH2 0x120 SWAP11 DUP10 DUP13 DUP4 ADD MSTORE PUSH1 0xA0 SHR PUSH1 0xFF AND ISZERO ISZERO SWAP1 PUSH2 0x140 ADD MSTORE MLOAD SWAP10 MLOAD SWAP5 MLOAD SWAP1 MLOAD SWAP2 MLOAD SWAP3 MLOAD SWAP4 MLOAD SWAP5 PUSH1 0x40 MLOAD SWAP11 DUP11 DUP13 SWAP12 DUP13 MSTORE DUP12 ADD PUSH2 0x1FD SWAP2 PUSH2 0x3073 JUMP JUMPDEST DUP11 DUP2 SUB PUSH1 0x20 DUP13 ADD MSTORE PUSH2 0x20E SWAP2 PUSH2 0x3073 JUMP JUMPDEST DUP10 DUP2 SUB PUSH1 0x40 DUP12 ADD MSTORE PUSH2 0x21F SWAP2 PUSH2 0x3073 JUMP JUMPDEST DUP9 DUP2 SUB PUSH1 0x60 DUP11 ADD MSTORE PUSH2 0x230 SWAP2 PUSH2 0x3073 JUMP JUMPDEST DUP8 DUP2 SUB PUSH1 0x80 DUP10 ADD MSTORE PUSH2 0x241 SWAP2 PUSH2 0x3073 JUMP JUMPDEST DUP7 DUP2 SUB PUSH1 0xA0 DUP9 ADD MSTORE PUSH2 0x252 SWAP2 PUSH2 0x3073 JUMP JUMPDEST DUP6 DUP2 SUB PUSH1 0xC0 DUP8 ADD MSTORE PUSH2 0x263 SWAP2 PUSH2 0x3073 JUMP JUMPDEST DUP5 DUP2 SUB PUSH1 0xE0 DUP7 ADD MSTORE PUSH2 0x274 SWAP2 PUSH2 0x3073 JUMP JUMPDEST SWAP2 DUP4 ADD MSTORE SUB SWAP1 RETURN JUMPDEST PUSH1 0x0 DUP1 REVERT JUMPDEST CALLVALUE PUSH2 0x27C JUMPI PUSH1 0x20 DUP1 PUSH1 0x3 NOT CALLDATASIZE ADD SLT PUSH2 0x27C JUMPI PUSH1 0x4 CALLDATALOAD PUSH1 0x1 PUSH1 0x1 PUSH1 0xA0 SHL SUB DUP2 DUP2 AND SWAP3 SWAP2 DUP4 SWAP1 SUB PUSH2 0x27C JUMPI PUSH1 0x3 DUP1 SLOAD SWAP3 SWAP1 PUSH1 0x0 DUP1 JUMPDEST DUP6 DUP2 LT PUSH2 0x414 JUMPI POP PUSH2 0x2C5 SWAP1 PUSH2 0x3DF0 JUMP JUMPDEST SWAP5 PUSH1 0x0 SWAP3 PUSH1 0x0 JUMPDEST DUP7 DUP2 LT PUSH2 0x2E5 JUMPI PUSH1 0x40 MLOAD DUP1 PUSH2 0x2E1 DUP11 DUP3 PUSH2 0x30B3 JUMP JUMPDEST SUB SWAP1 RETURN JUMPDEST PUSH2 0x2EE DUP2 PUSH2 0x31E7 JUMP JUMPDEST SWAP1 SLOAD SWAP1 DUP6 SHL SHR PUSH1 0x0 MSTORE PUSH1 0x0 DUP3 MSTORE PUSH1 0x40 PUSH1 0x0 KECCAK256 DUP7 PUSH1 0x9 DUP3 ADD SLOAD PUSH1 0xA0 SWAP3 PUSH1 0xFF DUP3 DUP6 SHR AND SWAP4 DUP5 DUP1 SWAP6 PUSH2 0x409 JUMPI JUMPDEST PUSH2 0x330 JUMPI JUMPDEST POP POP POP POP POP PUSH2 0x32B SWAP1 PUSH2 0x3CC0 JUMP JUMPDEST PUSH2 0x2CC JUMP JUMPDEST SWAP3 DUP9 SWAP3 PUSH2 0x3CE PUSH1 0x8 PUSH2 0x3FE SWAP8 SWAP5 PUSH2 0x32B SWAP10 SWAP14 SWAP8 PUSH2 0x380 PUSH1 0x40 MLOAD SWAP9 PUSH2 0x353 DUP11 PUSH2 0x2EC6 JUMP JUMPDEST DUP4 SLOAD DUP11 MSTORE DUP14 PUSH2 0x364 PUSH1 0x1 DUP7 ADD PUSH2 0x2FCD JUMP JUMPDEST SWAP1 DUP12 ADD MSTORE PUSH2 0x374 PUSH1 0x2 DUP6 ADD PUSH2 0x2FCD JUMP JUMPDEST PUSH1 0x40 DUP12 ADD MSTORE DUP4 ADD PUSH2 0x2FCD JUMP JUMPDEST PUSH1 0x60 DUP10 ADD MSTORE PUSH2 0x391 PUSH1 0x4 DUP4 ADD PUSH2 0x2FCD JUMP JUMPDEST PUSH1 0x80 DUP10 ADD MSTORE PUSH2 0x3A2 PUSH1 0x5 DUP4 ADD PUSH2 0x2FCD JUMP JUMPDEST SWAP1 DUP9 ADD MSTORE PUSH2 0x3B2 PUSH1 0x6 DUP3 ADD PUSH2 0x2FCD JUMP JUMPDEST PUSH1 0xC0 DUP9 ADD MSTORE PUSH2 0x3C3 PUSH1 0x7 DUP3 ADD PUSH2 0x2FCD JUMP JUMPDEST PUSH1 0xE0 DUP9 ADD MSTORE ADD PUSH2 0x2FCD JUMP JUMPDEST PUSH2 0x100 DUP6 ADD MSTORE AND PUSH2 0x120 DUP4 ADD MSTORE ISZERO ISZERO PUSH2 0x140 DUP3 ADD MSTORE PUSH2 0x3ED DUP3 DUP13 PUSH2 0x3E8A JUMP JUMPDEST MSTORE PUSH2 0x3F8 DUP2 DUP12 PUSH2 0x3E8A JUMP JUMPDEST POP PUSH2 0x3CC0 JUMP JUMPDEST SWAP5 SWAP1 DUP7 DUP11 DUP1 DUP1 PUSH2 0x31D JUMP JUMPDEST POP DUP8 DUP5 DUP5 AND EQ PUSH2 0x318 JUMP JUMPDEST PUSH2 0x41D DUP2 PUSH2 0x31E7 JUMP JUMPDEST SWAP1 SLOAD SWAP1 DUP5 SHL SHR PUSH1 0x0 MSTORE PUSH1 0x0 DUP5 MSTORE PUSH1 0x9 PUSH1 0x40 PUSH1 0x0 KECCAK256 ADD SLOAD DUP8 DUP7 PUSH1 0xFF DUP4 PUSH1 0xA0 SHR AND SWAP3 DUP4 PUSH2 0x46E JUMPI JUMPDEST POP POP POP PUSH2 0x459 JUMPI JUMPDEST PUSH2 0x454 SWAP1 PUSH2 0x3CC0 JUMP JUMPDEST PUSH2 0x2B4 JUMP JUMPDEST SWAP1 PUSH2 0x466 PUSH2 0x454 SWAP2 PUSH2 0x3CC0 JUMP JUMPDEST SWAP2 SWAP1 POP PUSH2 0x44B JUMP JUMPDEST AND EQ SWAP1 POP DUP8 DUP7 DUP11 PUSH2 0x443 JUMP JUMPDEST CALLVALUE PUSH2 0x27C JUMPI PUSH1 0x20 DUP1 PUSH1 0x3 NOT CALLDATASIZE ADD SLT PUSH2 0x27C JUMPI PUSH1 0x4 CALLDATALOAD PUSH1 0x0 MSTORE PUSH1 0x1 SWAP1 DUP2 DUP2 MSTORE DUP2 PUSH1 0x40 PUSH1 0x0 KECCAK256 ADD SWAP2 PUSH1 0x40 MLOAD SWAP2 DUP3 DUP2 DUP6 SLOAD SWAP2 DUP3 DUP2 MSTORE ADD SWAP1 DUP2 SWAP6 PUSH1 0x0 MSTORE DUP3 PUSH1 0x0 KECCAK256 SWAP1 PUSH1 0x0 JUMPDEST DUP2 DUP2 LT PUSH2 0x512 JUMPI POP POP POP DUP4 PUSH2 0x4D1 SWAP2 SUB DUP5 PUSH2 0x2EFD JUMP JUMPDEST PUSH1 0x40 MLOAD SWAP3 DUP2 DUP5 ADD SWAP1 DUP3 DUP6 MSTORE MLOAD DUP1 SWAP2 MSTORE PUSH1 0x40 DUP5 ADD SWAP5 SWAP2 PUSH1 0x0 JUMPDEST DUP3 DUP2 LT PUSH2 0x4F6 JUMPI DUP6 DUP8 SUB DUP7 RETURN JUMPDEST DUP4 MLOAD PUSH1 0x1 PUSH1 0x1 PUSH1 0xA0 SHL SUB AND DUP8 MSTORE SWAP6 DUP2 ADD SWAP6 SWAP3 DUP2 ADD SWAP3 DUP5 ADD PUSH2 0x4E9 JUMP JUMPDEST DUP3 SLOAD PUSH1 0x1 PUSH1 0x1 PUSH1 0xA0 SHL SUB AND DUP5 MSTORE SWAP3 DUP5 ADD SWAP3 SWAP2 DUP6 ADD SWAP2 DUP6 ADD PUSH2 0x4BB JUMP JUMPDEST CALLVALUE PUSH2 0x27C JUMPI PUSH1 0x20 CALLDATASIZE PUSH1 0x3 NOT ADD SLT PUSH2 0x27C JUMPI PUSH1 0x4 CALLDATALOAD PUSH1 0x0 SWAP1 DUP2 MSTORE PUSH1 0x5 PUSH1 0x20 MSTORE PUSH1 0x40 SWAP1 KECCAK256 DUP1 SLOAD PUSH1 0x1 PUSH1 0x1 PUSH1 0xA0 SHL SUB AND PUSH2 0x567 PUSH1 0x1 DUP4 ADD PUSH2 0x2FCD JUMP JUMPDEST SWAP2 PUSH2 0x574 PUSH1 0x2 DUP3 ADD PUSH2 0x2FCD JUMP JUMPDEST SWAP1 PUSH2 0x581 PUSH1 0x3 DUP3 ADD PUSH2 0x2FCD JUMP JUMPDEST PUSH2 0x58D PUSH1 0x4 DUP4 ADD PUSH2 0x2FCD JUMP JUMPDEST PUSH2 0x599 PUSH1 0x5 DUP5 ADD PUSH2 0x2FCD JUMP JUMPDEST SWAP1 PUSH2 0x5A6 PUSH1 0x6 DUP6 ADD PUSH2 0x2FCD JUMP JUMPDEST SWAP3 PUSH2 0x5B3 PUSH1 0x7 DUP7 ADD PUSH2 0x2FCD JUMP JUMPDEST SWAP5 PUSH1 0x8 ADD SLOAD PUSH1 0xFF AND SWAP6 PUSH1 0x40 MLOAD SWAP9 DUP10 SWAP9 DUP10 MSTORE PUSH2 0x120 DUP1 PUSH1 0x20 DUP12 ADD MSTORE DUP10 ADD PUSH2 0x5D8 SWAP2 PUSH2 0x3073 JUMP JUMPDEST DUP9 DUP2 SUB PUSH1 0x40 DUP11 ADD MSTORE PUSH2 0x5E9 SWAP2 PUSH2 0x3073 JUMP JUMPDEST DUP8 DUP2 SUB PUSH1 0x60 DUP10 ADD MSTORE PUSH2 0x5FA SWAP2 PUSH2 0x3073 JUMP JUMPDEST DUP7 DUP2 SUB PUSH1 0x80 DUP9 ADD MSTORE PUSH2 0x60B SWAP2 PUSH2 0x3073 JUMP JUMPDEST DUP6 DUP2 SUB PUSH1 0xA0 DUP8 ADD MSTORE PUSH2 0x61C SWAP2 PUSH2 0x3073 JUMP JUMPDEST DUP5 DUP2 SUB PUSH1 0xC0 DUP7 ADD MSTORE PUSH2 0x62D SWAP2 PUSH2 0x3073 JUMP JUMPDEST DUP4 DUP2 SUB PUSH1 0xE0 DUP6 ADD MSTORE PUSH2 0x63E SWAP2 PUSH2 0x3073 JUMP JUMPDEST SWAP1 ISZERO ISZERO PUSH2 0x100 DUP4 ADD MSTORE SUB SWAP1 RETURN JUMPDEST CALLVALUE PUSH2 0x27C JUMPI PUSH1 0x20 CALLDATASIZE PUSH1 0x3 NOT ADD SLT PUSH2 0x27C JUMPI PUSH1 0x4 CALLDATALOAD PUSH1 0x3 SLOAD DUP2 LT ISZERO PUSH2 0x27C JUMPI PUSH2 0x674 PUSH1 0x20 SWAP2 PUSH2 0x31E7 JUMP JUMPDEST SWAP1 SLOAD SWAP1 PUSH1 0x3 SHL SHR PUSH1 0x40 MLOAD SWAP1 DUP2 MSTORE RETURN JUMPDEST CALLVALUE PUSH2 0x27C JUMPI PUSH1 0x0 CALLDATASIZE PUSH1 0x3 NOT ADD SLT PUSH2 0x27C JUMPI PUSH2 0x69F PUSH1 0x2 SLOAD PUSH2 0x3CC0 JUMP JUMPDEST PUSH1 0x2 SSTORE STOP JUMPDEST CALLVALUE PUSH2 0x27C JUMPI PUSH1 0x0 CALLDATASIZE PUSH1 0x3 NOT ADD SLT PUSH2 0x27C JUMPI PUSH1 0x2 PUSH2 0x6C1 DUP2 SLOAD PUSH2 0x3DF0 JUMP JUMPDEST PUSH1 0x3 DUP1 SLOAD SWAP2 SWAP3 PUSH1 0x0 SWAP1 DUP2 JUMPDEST DUP5 DUP2 LT PUSH2 0x6E1 JUMPI PUSH1 0x40 MLOAD DUP1 PUSH2 0x2E1 DUP9 DUP3 PUSH2 0x30B3 JUMP JUMPDEST PUSH2 0x6EA DUP2 PUSH2 0x31E7 JUMP JUMPDEST SWAP1 SLOAD SWAP1 DUP6 SHL SHR PUSH1 0x0 MSTORE PUSH1 0x20 PUSH1 0x0 DUP2 MSTORE PUSH1 0x40 PUSH1 0x0 KECCAK256 PUSH1 0x9 DUP2 ADD SLOAD PUSH1 0xA0 SWAP2 PUSH1 0xFF DUP3 DUP5 SHR AND SWAP3 DUP4 PUSH2 0x726 JUMPI JUMPDEST POP POP POP POP POP PUSH2 0x721 SWAP1 PUSH2 0x3CC0 JUMP JUMPDEST PUSH2 0x6CC JUMP JUMPDEST SWAP2 PUSH2 0x7C2 PUSH1 0x8 PUSH2 0x721 SWAP8 SWAP10 SWAP6 SWAP4 PUSH2 0x7F4 SWAP8 SWAP6 PUSH1 0x40 MLOAD SWAP7 PUSH2 0x745 DUP9 PUSH2 0x2EC6 JUMP JUMPDEST DUP3 SLOAD DUP9 MSTORE PUSH2 0x755 PUSH1 0x1 DUP5 ADD PUSH2 0x2FCD JUMP JUMPDEST SWAP1 DUP9 ADD MSTORE PUSH2 0x764 DUP12 DUP4 ADD PUSH2 0x2FCD JUMP JUMPDEST PUSH1 0x40 DUP9 ADD MSTORE PUSH2 0x774 DUP14 DUP4 ADD PUSH2 0x2FCD JUMP JUMPDEST PUSH1 0x60 DUP9 ADD MSTORE PUSH2 0x785 PUSH1 0x4 DUP4 ADD PUSH2 0x2FCD JUMP JUMPDEST PUSH1 0x80 DUP9 ADD MSTORE PUSH2 0x796 PUSH1 0x5 DUP4 ADD PUSH2 0x2FCD JUMP JUMPDEST SWAP1 DUP8 ADD MSTORE PUSH2 0x7A6 PUSH1 0x6 DUP3 ADD PUSH2 0x2FCD JUMP JUMPDEST PUSH1 0xC0 DUP8 ADD MSTORE PUSH2 0x7B7 PUSH1 0x7 DUP3 ADD PUSH2 0x2FCD JUMP JUMPDEST PUSH1 0xE0 DUP8 ADD MSTORE ADD PUSH2 0x2FCD JUMP JUMPDEST PUSH2 0x100 DUP5 ADD MSTORE PUSH1 0x1 PUSH1 0x1 PUSH1 0xA0 SHL SUB AND PUSH2 0x120 DUP4 ADD MSTORE ISZERO ISZERO PUSH2 0x140 DUP3 ADD MSTORE PUSH2 0x7E9 DUP3 DUP11 PUSH2 0x3E8A JUMP JUMPDEST MSTORE PUSH2 0x3F8 DUP2 DUP10 PUSH2 0x3E8A JUMP JUMPDEST SWAP3 SWAP1 DUP8 DUP1 DUP1 DUP1 PUSH2 0x713 JUMP JUMPDEST CALLVALUE PUSH2 0x27C JUMPI PUSH1 0x20 CALLDATASIZE PUSH1 0x3 NOT ADD SLT PUSH2 0x27C JUMPI PUSH1 0x4 CALLDATALOAD PUSH1 0x0 MSTORE PUSH1 0x0 PUSH1 0x20 MSTORE PUSH1 0x40 PUSH1 0x0 KECCAK256 DUP1 SLOAD PUSH1 0x1 DUP3 ADD PUSH2 0x82F SWAP1 PUSH2 0x2FCD JUMP JUMPDEST SWAP2 PUSH2 0x83C PUSH1 0x2 DUP3 ADD PUSH2 0x2FCD JUMP JUMPDEST SWAP1 PUSH2 0x849 PUSH1 0x3 DUP3 ADD PUSH2 0x2FCD JUMP JUMPDEST PUSH2 0x855 PUSH1 0x4 DUP4 ADD PUSH2 0x2FCD JUMP JUMPDEST PUSH2 0x861 PUSH1 0x5 DUP5 ADD PUSH2 0x2FCD JUMP JUMPDEST PUSH2 0x86D PUSH1 0x6 DUP6 ADD PUSH2 0x2FCD JUMP JUMPDEST SWAP2 PUSH2 0x87A PUSH1 0x7 DUP7 ADD PUSH2 0x2FCD JUMP JUMPDEST SWAP4 PUSH2 0x887 PUSH1 0x8 DUP8 ADD PUSH2 0x2FCD JUMP JUMPDEST SWAP6 PUSH1 0x9 ADD SLOAD SWAP7 PUSH1 0x40 MLOAD SWAP10 DUP11 SWAP10 DUP11 MSTORE PUSH2 0x160 DUP1 PUSH1 0x20 DUP13 ADD MSTORE DUP11 ADD PUSH2 0x8A9 SWAP2 PUSH2 0x3073 JUMP JUMPDEST DUP10 DUP2 SUB PUSH1 0x40 DUP12 ADD MSTORE PUSH2 0x8BA SWAP2 PUSH2 0x3073 JUMP JUMPDEST DUP9 DUP2 SUB PUSH1 0x60 DUP11 ADD MSTORE PUSH2 0x8CB SWAP2 PUSH2 0x3073 JUMP JUMPDEST DUP8 DUP2 SUB PUSH1 0x80 DUP10 ADD MSTORE PUSH2 0x8DC SWAP2 PUSH2 0x3073 JUMP JUMPDEST DUP7 DUP2 SUB PUSH1 0xA0 DUP9 ADD MSTORE PUSH2 0x8ED SWAP2 PUSH2 0x3073 JUMP JUMPDEST DUP6 DUP2 SUB PUSH1 0xC0 DUP8 ADD MSTORE PUSH2 0x8FE SWAP2 PUSH2 0x3073 JUMP JUMPDEST DUP5 DUP2 SUB PUSH1 0xE0 DUP7 ADD MSTORE PUSH2 0x90F SWAP2 PUSH2 0x3073 JUMP JUMPDEST DUP4 DUP2 SUB PUSH2 0x100 DUP6 ADD MSTORE PUSH2 0x921 SWAP2 PUSH2 0x3073 JUMP JUMPDEST SWAP1 PUSH1 0x1 PUSH1 0xA0 SHL PUSH1 0x1 SWAP1 SUB DUP2 AND PUSH2 0x120 DUP5 ADD MSTORE PUSH1 0xA0 SHR PUSH1 0xFF AND ISZERO ISZERO PUSH2 0x140 DUP4 ADD MSTORE SUB SWAP1 RETURN JUMPDEST CALLVALUE PUSH2 0x27C JUMPI PUSH1 0x0 CALLDATASIZE PUSH1 0x3 NOT ADD SLT PUSH2 0x27C JUMPI PUSH1 0x20 PUSH1 0x2 SLOAD PUSH1 0x40 MLOAD SWAP1 DUP2 MSTORE RETURN JUMPDEST CALLVALUE PUSH2 0x27C JUMPI PUSH1 0x0 CALLDATASIZE PUSH1 0x3 NOT ADD SLT PUSH2 0x27C JUMPI PUSH1 0x4 SLOAD PUSH2 0x980 DUP2 PUSH2 0x3BE6 JUMP JUMPDEST SWAP1 PUSH2 0x98E PUSH1 0x40 MLOAD SWAP3 DUP4 PUSH2 0x2EFD JUMP JUMPDEST DUP1 DUP3 MSTORE PUSH1 0x4 PUSH1 0x0 SWAP1 DUP2 MSTORE PUSH1 0x20 SWAP2 DUP3 DUP5 ADD SWAP2 PUSH32 0x8A35ACFBC15FF81A39AE7D344FD709F28E8600B4AA8C65C6B64BFE7FE36BD19B DUP4 JUMPDEST DUP4 DUP4 LT PUSH2 0xAFF JUMPI POP POP POP POP PUSH1 0x40 MLOAD SWAP2 DUP1 DUP4 ADD SWAP4 DUP2 DUP5 MSTORE MLOAD DUP1 SWAP5 MSTORE PUSH1 0x40 DUP4 ADD SWAP4 PUSH1 0x40 DUP2 PUSH1 0x5 SHL DUP6 ADD ADD SWAP3 SWAP2 PUSH1 0x0 SWAP6 JUMPDEST DUP3 DUP8 LT PUSH2 0x9FD JUMPI DUP6 DUP6 SUB DUP7 RETURN JUMPDEST SWAP1 SWAP2 SWAP3 SWAP4 DUP3 DUP1 PUSH2 0xAEF PUSH1 0x1 SWAP4 PUSH1 0x3F NOT DUP11 DUP3 SUB ADD DUP7 MSTORE DUP9 MLOAD DUP1 MLOAD DUP3 MSTORE PUSH2 0xAC9 PUSH2 0xAB5 PUSH2 0xAA3 PUSH2 0xA90 PUSH2 0xA7D PUSH2 0xA6A PUSH2 0xA57 PUSH2 0xA45 DUP12 DUP10 ADD MLOAD DUP13 PUSH2 0x160 DUP1 SWAP2 DUP14 ADD MSTORE DUP12 ADD SWAP1 PUSH2 0x3073 JUMP JUMPDEST PUSH1 0x40 DUP10 ADD MLOAD DUP11 DUP3 SUB PUSH1 0x40 DUP13 ADD MSTORE PUSH2 0x3073 JUMP JUMPDEST PUSH1 0x60 DUP1 DUP10 ADD MLOAD SWAP1 DUP11 DUP4 SUB SWAP1 DUP12 ADD MSTORE PUSH2 0x3073 JUMP JUMPDEST PUSH1 0x80 DUP1 DUP9 ADD MLOAD SWAP1 DUP10 DUP4 SUB SWAP1 DUP11 ADD MSTORE PUSH2 0x3073 JUMP JUMPDEST PUSH1 0xA0 DUP1 DUP8 ADD MLOAD SWAP1 DUP9 DUP4 SUB SWAP1 DUP10 ADD MSTORE PUSH2 0x3073 JUMP JUMPDEST PUSH1 0xC0 DUP1 DUP7 ADD MLOAD SWAP1 DUP8 DUP4 SUB SWAP1 DUP9 ADD MSTORE PUSH2 0x3073 JUMP JUMPDEST PUSH1 0xE0 DUP5 ADD MLOAD DUP6 DUP3 SUB PUSH1 0xE0 DUP8 ADD MSTORE PUSH2 0x3073 JUMP JUMPDEST PUSH2 0x100 DUP1 DUP5 ADD MLOAD SWAP1 DUP6 DUP4 SUB SWAP1 DUP7 ADD MSTORE PUSH2 0x3073 JUMP JUMPDEST SWAP2 PUSH2 0x120 DUP8 DUP1 PUSH1 0xA0 SHL SUB DUP2 DUP5 ADD MLOAD AND SWAP1 DUP3 ADD MSTORE PUSH2 0x140 DUP1 SWAP3 ADD MLOAD SWAP2 DUP2 DUP5 SUB SWAP2 ADD MSTORE PUSH2 0x3073 JUMP JUMPDEST SWAP7 ADD SWAP3 ADD SWAP7 ADD SWAP6 SWAP3 SWAP2 SWAP1 SWAP3 PUSH2 0x9F0 JUMP JUMPDEST PUSH1 0xB DUP7 PUSH1 0x1 SWAP3 PUSH2 0xB11 DUP6 SWAP11 SWAP10 SWAP11 PUSH2 0x3BFD JUMP JUMPDEST DUP2 MSTORE ADD SWAP3 ADD SWAP3 ADD SWAP2 SWAP1 SWAP6 SWAP5 SWAP6 PUSH2 0x9C2 JUMP JUMPDEST CALLVALUE PUSH2 0x27C JUMPI PUSH2 0x100 CALLDATASIZE PUSH1 0x3 NOT ADD SLT PUSH2 0x27C JUMPI PUSH1 0x4 CALLDATALOAD PUSH1 0x24 CALLDATALOAD PUSH1 0x1 PUSH1 0x1 PUSH1 0x40 SHL SUB DUP2 GT PUSH2 0x27C JUMPI PUSH2 0xB56 SWAP1 CALLDATASIZE SWAP1 PUSH1 0x4 ADD PUSH2 0x2F1E JUMP JUMPDEST SWAP1 PUSH1 0x44 CALLDATALOAD PUSH1 0x1 PUSH1 0x1 PUSH1 0x40 SHL SUB DUP2 GT PUSH2 0x27C JUMPI PUSH2 0xB76 SWAP1 CALLDATASIZE SWAP1 PUSH1 0x4 ADD PUSH2 0x2F1E JUMP JUMPDEST SWAP2 PUSH1 0x64 CALLDATALOAD PUSH1 0x1 PUSH1 0x1 PUSH1 0x40 SHL SUB DUP2 GT PUSH2 0x27C JUMPI PUSH2 0xB96 SWAP1 CALLDATASIZE SWAP1 PUSH1 0x4 ADD PUSH2 0x2F1E JUMP JUMPDEST PUSH1 0x84 CALLDATALOAD PUSH1 0x1 PUSH1 0x1 PUSH1 0x40 SHL SUB DUP2 GT PUSH2 0x27C JUMPI PUSH2 0xBB5 SWAP1 CALLDATASIZE SWAP1 PUSH1 0x4 ADD PUSH2 0x2F1E JUMP JUMPDEST PUSH1 0xA4 CALLDATALOAD PUSH1 0x1 PUSH1 0x1 PUSH1 0x40 SHL SUB DUP2 GT PUSH2 0x27C JUMPI PUSH2 0xBD4 SWAP1 CALLDATASIZE SWAP1 PUSH1 0x4 ADD PUSH2 0x2F1E JUMP JUMPDEST SWAP2 PUSH1 0xC4 CALLDATALOAD PUSH1 0x1 PUSH1 0x1 PUSH1 0x40 SHL SUB DUP2 GT PUSH2 0x27C JUMPI PUSH2 0xBF4 SWAP1 CALLDATASIZE SWAP1 PUSH1 0x4 ADD PUSH2 0x2F1E JUMP JUMPDEST SWAP6 PUSH1 0xE4 CALLDATALOAD PUSH1 0x1 PUSH1 0x1 PUSH1 0x40 SHL SUB DUP2 GT PUSH2 0x27C JUMPI PUSH2 0xC14 SWAP1 CALLDATASIZE SWAP1 PUSH1 0x4 ADD PUSH2 0x2F1E JUMP JUMPDEST SWAP6 DUP1 PUSH1 0x0 MSTORE PUSH1 0x0 PUSH1 0x20 MSTORE PUSH2 0xC39 PUSH1 0x1 DUP1 PUSH1 0xA0 SHL SUB PUSH1 0x9 PUSH1 0x40 PUSH1 0x0 KECCAK256 ADD SLOAD AND CALLER EQ PUSH2 0x3B26 JUMP JUMPDEST PUSH1 0x0 MSTORE PUSH1 0x0 PUSH1 0x20 MSTORE PUSH1 0x40 PUSH1 0x0 KECCAK256 SWAP5 DUP1 MLOAD PUSH1 0x1 PUSH1 0x1 PUSH1 0x40 SHL SUB DUP2 GT PUSH2 0xF12 JUMPI DUP1 PUSH1 0x1 DUP9 ADD SWAP3 PUSH2 0xC71 DUP3 PUSH2 0xC6B DUP7 SLOAD PUSH2 0x2F93 JUMP JUMPDEST DUP7 PUSH2 0x323D JUMP JUMPDEST PUSH1 0x20 SWAP1 PUSH1 0x1F DUP4 GT PUSH1 0x1 EQ PUSH2 0x118B JUMPI PUSH1 0x0 SWAP3 PUSH2 0x1180 JUMPI JUMPDEST POP POP DUP2 PUSH1 0x1 SHL SWAP2 PUSH1 0x0 NOT SWAP1 PUSH1 0x3 SHL SHR NOT AND OR SWAP1 SSTORE JUMPDEST DUP1 MLOAD SWAP1 PUSH1 0x1 PUSH1 0x1 PUSH1 0x40 SHL SUB DUP3 GT PUSH2 0xF12 JUMPI DUP2 SWAP1 PUSH2 0xCC9 DUP3 PUSH2 0xCC0 PUSH1 0x2 DUP11 ADD SLOAD PUSH2 0x2F93 JUMP JUMPDEST PUSH1 0x2 DUP11 ADD PUSH2 0x323D JUMP JUMPDEST PUSH1 0x20 SWAP1 PUSH1 0x1F DUP4 GT PUSH1 0x1 EQ PUSH2 0x1113 JUMPI PUSH1 0x0 SWAP3 PUSH2 0x1108 JUMPI JUMPDEST POP POP DUP2 PUSH1 0x1 SHL SWAP2 PUSH1 0x0 NOT SWAP1 PUSH1 0x3 SHL SHR NOT AND OR PUSH1 0x2 DUP6 ADD SSTORE JUMPDEST DUP1 MLOAD SWAP1 PUSH1 0x1 PUSH1 0x1 PUSH1 0x40 SHL SUB DUP3 GT PUSH2 0xF12 JUMPI DUP2 SWAP1 PUSH2 0xD24 DUP3 PUSH2 0xD1B PUSH1 0x3 DUP10 ADD SLOAD PUSH2 0x2F93 JUMP JUMPDEST PUSH1 0x3 DUP10 ADD PUSH2 0x323D JUMP JUMPDEST PUSH1 0x20 SWAP1 PUSH1 0x1F DUP4 GT PUSH1 0x1 EQ PUSH2 0x1096 JUMPI PUSH1 0x0 SWAP3 PUSH2 0x108B JUMPI JUMPDEST POP POP DUP2 PUSH1 0x1 SHL SWAP2 PUSH1 0x0 NOT SWAP1 PUSH1 0x3 SHL SHR NOT AND OR PUSH1 0x3 DUP5 ADD SSTORE JUMPDEST DUP1 MLOAD SWAP1 PUSH1 0x1 PUSH1 0x1 PUSH1 0x40 SHL SUB DUP3 GT PUSH2 0xF12 JUMPI DUP2 SWAP1 PUSH2 0xD7F DUP3 PUSH2 0xD76 PUSH1 0x5 DUP9 ADD SLOAD PUSH2 0x2F93 JUMP JUMPDEST PUSH1 0x5 DUP9 ADD PUSH2 0x323D JUMP JUMPDEST PUSH1 0x20 SWAP1 PUSH1 0x1F DUP4 GT PUSH1 0x1 EQ PUSH2 0x1019 JUMPI PUSH1 0x0 SWAP3 PUSH2 0x100E JUMPI JUMPDEST POP POP DUP2 PUSH1 0x1 SHL SWAP2 PUSH1 0x0 NOT SWAP1 PUSH1 0x3 SHL SHR NOT AND OR PUSH1 0x5 DUP4 ADD SSTORE JUMPDEST DUP1 MLOAD PUSH1 0x7 DUP4 ADD SWAP2 PUSH1 0x1 PUSH1 0x1 PUSH1 0x40 SHL SUB DUP3 GT PUSH2 0xF12 JUMPI DUP2 SWAP1 PUSH2 0xDD2 DUP3 PUSH2 0xC6B DUP7 SLOAD PUSH2 0x2F93 JUMP JUMPDEST PUSH1 0x20 SWAP1 PUSH1 0x1F DUP4 GT PUSH1 0x1 EQ PUSH2 0xFA8 JUMPI PUSH1 0x0 SWAP3 PUSH2 0xF9D JUMPI JUMPDEST POP POP DUP2 PUSH1 0x1 SHL SWAP2 PUSH1 0x0 NOT SWAP1 PUSH1 0x3 SHL SHR NOT AND OR SWAP1 SSTORE JUMPDEST PUSH1 0x8 DUP2 ADD DUP4 MLOAD PUSH1 0x1 PUSH1 0x1 PUSH1 0x40 SHL SUB DUP2 GT PUSH2 0xF12 JUMPI PUSH2 0xE25 DUP2 PUSH2 0xE1F DUP5 SLOAD PUSH2 0x2F93 JUMP JUMPDEST DUP5 PUSH2 0x323D JUMP JUMPDEST PUSH1 0x20 PUSH1 0x1F DUP3 GT PUSH1 0x1 EQ PUSH2 0xF33 JUMPI DUP2 SWAP1 PUSH1 0x6 SWAP6 SWAP7 PUSH1 0x0 SWAP3 PUSH2 0xF28 JUMPI JUMPDEST POP POP DUP2 PUSH1 0x1 SHL SWAP2 PUSH1 0x0 NOT SWAP1 PUSH1 0x3 SHL SHR NOT AND OR SWAP1 SSTORE JUMPDEST ADD DUP2 MLOAD PUSH1 0x1 PUSH1 0x1 PUSH1 0x40 SHL SUB DUP2 GT PUSH2 0xF12 JUMPI PUSH2 0xE74 DUP2 PUSH2 0xE1F DUP5 SLOAD PUSH2 0x2F93 JUMP JUMPDEST PUSH1 0x20 SWAP3 PUSH1 0x1F DUP3 GT PUSH1 0x1 EQ PUSH2 0xEB1 JUMPI SWAP3 DUP2 SWAP3 SWAP4 PUSH1 0x0 SWAP3 PUSH2 0xEA6 JUMPI JUMPDEST POP POP PUSH1 0x0 NOT PUSH1 0x3 DUP4 SWAP1 SHL SHR NOT AND PUSH1 0x1 SWAP2 SWAP1 SWAP2 SHL OR SWAP1 SSTORE STOP JUMPDEST ADD MLOAD SWAP1 POP DUP4 DUP1 PUSH2 0xE8E JUMP JUMPDEST PUSH1 0x1F NOT DUP3 AND SWAP4 DUP4 PUSH1 0x0 MSTORE PUSH1 0x20 PUSH1 0x0 KECCAK256 SWAP2 PUSH1 0x0 JUMPDEST DUP7 DUP2 LT PUSH2 0xEFA JUMPI POP DUP4 PUSH1 0x1 SWAP6 SWAP7 LT PUSH2 0xEE1 JUMPI JUMPDEST POP POP POP DUP2 SHL ADD SWAP1 SSTORE STOP JUMPDEST ADD MLOAD PUSH1 0x0 NOT PUSH1 0xF8 DUP5 PUSH1 0x3 SHL AND SHR NOT AND SWAP1 SSTORE DUP4 DUP1 DUP1 PUSH2 0xED7 JUMP JUMPDEST SWAP2 SWAP3 PUSH1 0x20 PUSH1 0x1 DUP2 SWAP3 DUP7 DUP6 ADD MLOAD DUP2 SSTORE ADD SWAP5 ADD SWAP3 ADD PUSH2 0xEC4 JUMP JUMPDEST PUSH4 0x4E487B71 PUSH1 0xE0 SHL PUSH1 0x0 MSTORE PUSH1 0x41 PUSH1 0x4 MSTORE PUSH1 0x24 PUSH1 0x0 REVERT JUMPDEST ADD MLOAD SWAP1 POP DUP7 DUP1 PUSH2 0xE40 JUMP JUMPDEST PUSH1 0x1F NOT DUP3 AND SWAP6 DUP4 PUSH1 0x0 MSTORE PUSH1 0x20 PUSH1 0x0 KECCAK256 SWAP7 PUSH1 0x0 JUMPDEST DUP2 DUP2 LT PUSH2 0xF85 JUMPI POP SWAP2 PUSH1 0x6 SWAP7 SWAP8 SWAP2 DUP5 PUSH1 0x1 SWAP6 SWAP5 LT PUSH2 0xF6C JUMPI JUMPDEST POP POP POP DUP2 SHL ADD SWAP1 SSTORE PUSH2 0xE55 JUMP JUMPDEST ADD MLOAD PUSH1 0x0 NOT PUSH1 0xF8 DUP5 PUSH1 0x3 SHL AND SHR NOT AND SWAP1 SSTORE DUP7 DUP1 DUP1 PUSH2 0xF5F JUMP JUMPDEST DUP4 DUP4 ADD MLOAD DUP10 SSTORE PUSH1 0x1 SWAP1 SWAP9 ADD SWAP8 PUSH1 0x20 SWAP4 DUP5 ADD SWAP4 ADD PUSH2 0xF46 JUMP JUMPDEST ADD MLOAD SWAP1 POP DUP7 DUP1 PUSH2 0xDE8 JUMP JUMPDEST PUSH1 0x0 DUP6 DUP2 MSTORE PUSH1 0x20 DUP2 KECCAK256 SWAP4 POP PUSH1 0x1F NOT DUP6 AND SWAP1 JUMPDEST DUP2 DUP2 LT PUSH2 0xFF6 JUMPI POP SWAP1 DUP5 PUSH1 0x1 SWAP6 SWAP5 SWAP4 SWAP3 LT PUSH2 0xFDD JUMPI JUMPDEST POP POP POP DUP2 SHL ADD SWAP1 SSTORE PUSH2 0xDFD JUMP JUMPDEST ADD MLOAD PUSH1 0x0 NOT PUSH1 0xF8 DUP5 PUSH1 0x3 SHL AND SHR NOT AND SWAP1 SSTORE DUP7 DUP1 DUP1 PUSH2 0xFD0 JUMP JUMPDEST SWAP3 SWAP4 PUSH1 0x20 PUSH1 0x1 DUP2 SWAP3 DUP8 DUP7 ADD MLOAD DUP2 SSTORE ADD SWAP6 ADD SWAP4 ADD PUSH2 0xFBA JUMP JUMPDEST ADD MLOAD SWAP1 POP DUP7 DUP1 PUSH2 0xD95 JUMP JUMPDEST SWAP3 POP PUSH1 0x5 DUP6 ADD PUSH1 0x0 MSTORE PUSH1 0x20 PUSH1 0x0 KECCAK256 SWAP1 PUSH1 0x0 SWAP4 JUMPDEST PUSH1 0x1F NOT DUP5 AND DUP6 LT PUSH2 0x1070 JUMPI PUSH1 0x1 SWAP5 POP DUP4 PUSH1 0x1F NOT DUP2 AND LT PUSH2 0x1057 JUMPI JUMPDEST POP POP POP DUP2 SHL ADD PUSH1 0x5 DUP4 ADD SSTORE PUSH2 0xDAD JUMP JUMPDEST ADD MLOAD PUSH1 0x0 NOT PUSH1 0xF8 DUP5 PUSH1 0x3 SHL AND SHR NOT AND SWAP1 SSTORE DUP7 DUP1 DUP1 PUSH2 0x1047 JUMP JUMPDEST DUP2 DUP2 ADD MLOAD DUP4 SSTORE PUSH1 0x20 SWAP5 DUP6 ADD SWAP5 PUSH1 0x1 SWAP1 SWAP4 ADD SWAP3 SWAP1 SWAP2 ADD SWAP1 PUSH2 0x102C JUMP JUMPDEST ADD MLOAD SWAP1 POP DUP8 DUP1 PUSH2 0xD3A JUMP JUMPDEST SWAP3 POP PUSH1 0x3 DUP7 ADD PUSH1 0x0 MSTORE PUSH1 0x20 PUSH1 0x0 KECCAK256 SWAP1 PUSH1 0x0 SWAP4 JUMPDEST PUSH1 0x1F NOT DUP5 AND DUP6 LT PUSH2 0x10ED JUMPI PUSH1 0x1 SWAP5 POP DUP4 PUSH1 0x1F NOT DUP2 AND LT PUSH2 0x10D4 JUMPI JUMPDEST POP POP POP DUP2 SHL ADD PUSH1 0x3 DUP5 ADD SSTORE PUSH2 0xD52 JUMP JUMPDEST ADD MLOAD PUSH1 0x0 NOT PUSH1 0xF8 DUP5 PUSH1 0x3 SHL AND SHR NOT AND SWAP1 SSTORE DUP8 DUP1 DUP1 PUSH2 0x10C4 JUMP JUMPDEST DUP2 DUP2 ADD MLOAD DUP4 SSTORE PUSH1 0x20 SWAP5 DUP6 ADD SWAP5 PUSH1 0x1 SWAP1 SWAP4 ADD SWAP3 SWAP1 SWAP2 ADD SWAP1 PUSH2 0x10A9 JUMP JUMPDEST ADD MLOAD SWAP1 POP DUP9 DUP1 PUSH2 0xCDF JUMP JUMPDEST PUSH1 0x2 DUP9 ADD PUSH1 0x0 SWAP1 DUP2 MSTORE PUSH1 0x20 DUP2 KECCAK256 SWAP4 POP PUSH1 0x1F NOT DUP6 AND SWAP1 JUMPDEST DUP2 DUP2 LT PUSH2 0x1168 JUMPI POP SWAP1 DUP5 PUSH1 0x1 SWAP6 SWAP5 SWAP4 SWAP3 LT PUSH2 0x114F JUMPI JUMPDEST POP POP POP DUP2 SHL ADD PUSH1 0x2 DUP6 ADD SSTORE PUSH2 0xCF7 JUMP JUMPDEST ADD MLOAD PUSH1 0x0 NOT PUSH1 0xF8 DUP5 PUSH1 0x3 SHL AND SHR NOT AND SWAP1 SSTORE DUP9 DUP1 DUP1 PUSH2 0x113F JUMP JUMPDEST SWAP3 SWAP4 PUSH1 0x20 PUSH1 0x1 DUP2 SWAP3 DUP8 DUP7 ADD MLOAD DUP2 SSTORE ADD SWAP6 ADD SWAP4 ADD PUSH2 0x1129 JUMP JUMPDEST ADD MLOAD SWAP1 POP DUP11 DUP1 PUSH2 0xC87 JUMP JUMPDEST SWAP3 POP DUP4 PUSH1 0x0 MSTORE PUSH1 0x20 PUSH1 0x0 KECCAK256 SWAP1 PUSH1 0x0 SWAP4 JUMPDEST PUSH1 0x1F NOT DUP5 AND DUP6 LT PUSH2 0x11DC JUMPI PUSH1 0x1 SWAP5 POP DUP4 PUSH1 0x1F NOT DUP2 AND LT PUSH2 0x11C3 JUMPI JUMPDEST POP POP POP DUP2 SHL ADD SWAP1 SSTORE PUSH2 0xC9C JUMP JUMPDEST ADD MLOAD PUSH1 0x0 NOT PUSH1 0xF8 DUP5 PUSH1 0x3 SHL AND SHR NOT AND SWAP1 SSTORE DUP11 DUP1 DUP1 PUSH2 0x11B6 JUMP JUMPDEST DUP2 DUP2 ADD MLOAD DUP4 SSTORE PUSH1 0x20 SWAP5 DUP6 ADD SWAP5 PUSH1 0x1 SWAP1 SWAP4 ADD SWAP3 SWAP1 SWAP2 ADD SWAP1 PUSH2 0x119B JUMP JUMPDEST CALLVALUE PUSH2 0x27C JUMPI PUSH1 0x20 CALLDATASIZE PUSH1 0x3 NOT ADD SLT PUSH2 0x27C JUMPI PUSH2 0x121C PUSH2 0x1216 PUSH1 0x4 CALLDATALOAD PUSH2 0x2F74 JUMP JUMPDEST POP PUSH2 0x3BFD JUMP JUMPDEST PUSH2 0x140 DUP2 ADD MLOAD PUSH1 0x20 DUP2 MLOAD SWAP2 ADD KECCAK256 PUSH2 0x1231 PUSH2 0x3202 JUMP JUMPDEST PUSH1 0x20 DUP2 MLOAD SWAP2 ADD KECCAK256 EQ PUSH1 0x0 EQ PUSH2 0x1CC3 JUMPI PUSH1 0xE0 DUP2 ADD MLOAD SWAP1 PUSH2 0x100 DUP2 ADD MLOAD PUSH1 0x20 DUP3 ADD MLOAD SWAP1 DUP3 MLOAD SWAP4 PUSH1 0x80 DUP5 ADD MLOAD PUSH1 0x40 DUP6 ADD MLOAD SWAP1 PUSH1 0x60 DUP7 ADD MLOAD SWAP1 PUSH1 0xA0 DUP8 ADD MLOAD SWAP2 PUSH1 0xC0 DUP9 ADD MLOAD SWAP4 PUSH1 0x1 DUP1 PUSH1 0xA0 SHL SUB PUSH2 0x120 DUP11 ADD MLOAD AND SWAP8 PUSH1 0x40 MLOAD SWAP11 PUSH2 0x128E DUP13 PUSH2 0x2EC6 JUMP JUMPDEST DUP12 MSTORE PUSH1 0x20 DUP12 ADD MSTORE PUSH1 0x40 DUP11 ADD MSTORE PUSH1 0x60 DUP10 ADD MSTORE PUSH1 0x80 DUP9 ADD MSTORE PUSH1 0xA0 DUP8 ADD MSTORE PUSH1 0xC0 DUP7 ADD MSTORE PUSH1 0xE0 DUP6 ADD MSTORE PUSH2 0x100 DUP5 ADD MSTORE PUSH2 0x120 DUP4 ADD MSTORE PUSH1 0x1 PUSH2 0x140 DUP4 ADD MSTORE PUSH2 0x12D2 PUSH1 0x2 SLOAD PUSH2 0x3CC0 JUMP JUMPDEST PUSH1 0x2 SSTORE DUP1 MLOAD PUSH1 0x3 SLOAD PUSH1 0x1 PUSH1 0x40 SHL DUP2 LT ISZERO PUSH2 0xF12 JUMPI DUP1 PUSH1 0x1 PUSH2 0x12F6 SWAP3 ADD PUSH1 0x3 SSTORE PUSH2 0x31E7 JUMP JUMPDEST SWAP1 SWAP2 DUP3 SLOAD SWAP1 DUP3 PUSH1 0x3 SHL SHL SWAP2 PUSH1 0x0 NOT SWAP1 PUSH1 0x3 SHL SHL NOT AND OR SWAP1 SSTORE DUP1 MLOAD PUSH1 0x0 MSTORE PUSH1 0x0 PUSH1 0x20 MSTORE PUSH1 0x40 PUSH1 0x0 KECCAK256 SWAP1 DUP3 MLOAD DUP3 SSTORE PUSH1 0x20 DUP4 ADD MLOAD SWAP3 DUP4 MLOAD PUSH1 0x1 PUSH1 0x1 PUSH1 0x40 SHL SUB DUP2 GT PUSH2 0xF12 JUMPI PUSH2 0x1352 DUP2 PUSH2 0x1349 PUSH1 0x1 DUP8 ADD SLOAD PUSH2 0x2F93 JUMP JUMPDEST PUSH1 0x1 DUP8 ADD PUSH2 0x323D JUMP JUMPDEST PUSH1 0x20 PUSH1 0x1F DUP3 GT PUSH1 0x1 EQ PUSH2 0x1C54 JUMPI DUP2 SWAP3 SWAP4 SWAP5 SWAP6 PUSH1 0x0 SWAP3 PUSH2 0x1C49 JUMPI JUMPDEST POP POP DUP2 PUSH1 0x1 SHL SWAP2 PUSH1 0x0 NOT SWAP1 PUSH1 0x3 SHL SHR NOT AND OR PUSH1 0x1 DUP5 ADD SSTORE JUMPDEST PUSH1 0x40 DUP2 ADD MLOAD SWAP3 DUP4 MLOAD PUSH1 0x1 PUSH1 0x1 PUSH1 0x40 SHL SUB DUP2 GT PUSH2 0xF12 JUMPI PUSH2 0x13B4 DUP2 PUSH2 0x13AB PUSH1 0x2 DUP6 ADD SLOAD PUSH2 0x2F93 JUMP JUMPDEST PUSH1 0x2 DUP6 ADD PUSH2 0x323D JUMP JUMPDEST PUSH1 0x20 PUSH1 0x1F DUP3 GT PUSH1 0x1 EQ PUSH2 0x1BDA JUMPI DUP2 SWAP3 SWAP4 SWAP5 SWAP6 PUSH1 0x0 SWAP3 PUSH2 0x1BCF JUMPI JUMPDEST POP POP DUP2 PUSH1 0x1 SHL SWAP2 PUSH1 0x0 NOT SWAP1 PUSH1 0x3 SHL SHR NOT AND OR PUSH1 0x2 DUP3 ADD SSTORE JUMPDEST PUSH1 0x60 DUP3 ADD MLOAD SWAP3 DUP4 MLOAD PUSH1 0x1 PUSH1 0x1 PUSH1 0x40 SHL SUB DUP2 GT PUSH2 0xF12 JUMPI PUSH2 0x1416 DUP2 PUSH2 0x140D PUSH1 0x3 DUP7 ADD SLOAD PUSH2 0x2F93 JUMP JUMPDEST PUSH1 0x3 DUP7 ADD PUSH2 0x323D JUMP JUMPDEST PUSH1 0x20 PUSH1 0x1F DUP3 GT PUSH1 0x1 EQ PUSH2 0x1B60 JUMPI DUP2 SWAP3 SWAP4 SWAP5 SWAP6 PUSH1 0x0 SWAP3 PUSH2 0x1B55 JUMPI JUMPDEST POP POP DUP2 PUSH1 0x1 SHL SWAP2 PUSH1 0x0 NOT SWAP1 PUSH1 0x3 SHL SHR NOT AND OR PUSH1 0x3 DUP4 ADD SSTORE JUMPDEST PUSH1 0x80 DUP4 ADD MLOAD SWAP3 DUP4 MLOAD PUSH1 0x1 PUSH1 0x1 PUSH1 0x40 SHL SUB DUP2 GT PUSH2 0xF12 JUMPI PUSH2 0x1478 DUP2 PUSH2 0x146F PUSH1 0x4 DUP8 ADD SLOAD PUSH2 0x2F93 JUMP JUMPDEST PUSH1 0x4 DUP8 ADD PUSH2 0x323D JUMP JUMPDEST PUSH1 0x20 PUSH1 0x1F DUP3 GT PUSH1 0x1 EQ PUSH2 0x1AE6 JUMPI DUP2 SWAP3 SWAP4 SWAP5 SWAP6 PUSH1 0x0 SWAP3 PUSH2 0x1ADB JUMPI JUMPDEST POP POP DUP2 PUSH1 0x1 SHL SWAP2 PUSH1 0x0 NOT SWAP1 PUSH1 0x3 SHL SHR NOT AND OR PUSH1 0x4 DUP5 ADD SSTORE JUMPDEST PUSH1 0xA0 DUP2 ADD MLOAD SWAP3 DUP4 MLOAD PUSH1 0x1 PUSH1 0x1 PUSH1 0x40 SHL SUB DUP2 GT PUSH2 0xF12 JUMPI PUSH2 0x14DA DUP2 PUSH2 0x14D1 PUSH1 0x5 DUP6 ADD SLOAD PUSH2 0x2F93 JUMP JUMPDEST PUSH1 0x5 DUP6 ADD PUSH2 0x323D JUMP JUMPDEST PUSH1 0x20 PUSH1 0x1F DUP3 GT PUSH1 0x1 EQ PUSH2 0x1A6C JUMPI DUP2 SWAP3 SWAP4 SWAP5 SWAP6 PUSH1 0x0 SWAP3 PUSH2 0x1A61 JUMPI JUMPDEST POP POP DUP2 PUSH1 0x1 SHL SWAP2 PUSH1 0x0 NOT SWAP1 PUSH1 0x3 SHL SHR NOT AND OR PUSH1 0x5 DUP3 ADD SSTORE JUMPDEST PUSH1 0xC0 DUP3 ADD MLOAD SWAP3 DUP4 MLOAD PUSH1 0x1 PUSH1 0x1 PUSH1 0x40 SHL SUB DUP2 GT PUSH2 0xF12 JUMPI PUSH2 0x153C DUP2 PUSH2 0x1533 PUSH1 0x6 DUP7 ADD SLOAD PUSH2 0x2F93 JUMP JUMPDEST PUSH1 0x6 DUP7 ADD PUSH2 0x323D JUMP JUMPDEST PUSH1 0x20 PUSH1 0x1F DUP3 GT PUSH1 0x1 EQ PUSH2 0x19F2 JUMPI DUP2 SWAP3 SWAP4 SWAP5 SWAP6 PUSH1 0x0 SWAP3 PUSH2 0x19E7 JUMPI JUMPDEST POP POP DUP2 PUSH1 0x1 SHL SWAP2 PUSH1 0x0 NOT SWAP1 PUSH1 0x3 SHL SHR NOT AND OR PUSH1 0x6 DUP4 ADD SSTORE JUMPDEST PUSH1 0xE0 DUP4 ADD MLOAD SWAP3 DUP4 MLOAD PUSH1 0x1 PUSH1 0x1 PUSH1 0x40 SHL SUB DUP2 GT PUSH2 0xF12 JUMPI PUSH2 0x159E DUP2 PUSH2 0x1595 PUSH1 0x7 DUP8 ADD SLOAD PUSH2 0x2F93 JUMP JUMPDEST PUSH1 0x7 DUP8 ADD PUSH2 0x323D JUMP JUMPDEST PUSH1 0x20 PUSH1 0x1F DUP3 GT PUSH1 0x1 EQ PUSH2 0x1978 JUMPI DUP2 SWAP3 SWAP4 SWAP5 SWAP6 PUSH1 0x0 SWAP3 PUSH2 0x196D JUMPI JUMPDEST POP POP DUP2 PUSH1 0x1 SHL SWAP2 PUSH1 0x0 NOT SWAP1 PUSH1 0x3 SHL SHR NOT AND OR PUSH1 0x7 DUP5 ADD SSTORE JUMPDEST PUSH2 0x100 DUP2 ADD MLOAD SWAP3 DUP4 MLOAD PUSH1 0x1 PUSH1 0x1 PUSH1 0x40 SHL SUB DUP2 GT PUSH2 0xF12 JUMPI PUSH2 0x1601 DUP2 PUSH2 0x15F8 PUSH1 0x8 DUP6 ADD SLOAD PUSH2 0x2F93 JUMP JUMPDEST PUSH1 0x8 DUP6 ADD PUSH2 0x323D JUMP JUMPDEST PUSH1 0x20 PUSH1 0x1F DUP3 GT PUSH1 0x1 EQ PUSH2 0x18FA JUMPI DUP2 SWAP1 PUSH1 0x9 SWAP5 SWAP6 SWAP7 PUSH1 0x0 SWAP3 PUSH2 0x18EF JUMPI JUMPDEST POP POP DUP2 PUSH1 0x1 SHL SWAP2 PUSH1 0x0 NOT SWAP1 PUSH1 0x3 SHL SHR NOT AND OR PUSH1 0x8 DUP3 ADD SSTORE JUMPDEST PUSH2 0x120 DUP1 DUP5 ADD MLOAD SWAP3 SWAP1 SWAP2 ADD DUP1 SLOAD PUSH2 0x140 SWAP1 SWAP5 ADD MLOAD PUSH1 0x1 PUSH1 0x1 PUSH1 0xA8 SHL SUB NOT SWAP1 SWAP5 AND PUSH1 0x1 PUSH1 0x1 PUSH1 0xA0 SHL SUB SWAP4 DUP5 AND OR SWAP4 ISZERO ISZERO PUSH1 0xA0 SHL PUSH1 0xFF PUSH1 0xA0 SHL AND SWAP4 SWAP1 SWAP4 OR SWAP1 SWAP3 SSTORE DUP3 MLOAD SWAP2 DUP4 ADD MLOAD AND SWAP1 PUSH32 0xCB4990052F95F6057496D19524F6C3163F50AF9F33F2C15B092928E03414323E PUSH1 0x0 DUP1 LOG3 JUMPDEST PUSH1 0x4 SLOAD DUP1 PUSH1 0x4 CALLDATALOAD LT ISZERO PUSH2 0x18BA JUMPI PUSH1 0x0 NOT SWAP1 DUP1 DUP3 ADD SWAP1 DUP2 GT PUSH2 0x18A4 JUMPI PUSH2 0x16C6 SWAP1 PUSH2 0x2F74 JUMP JUMPDEST POP PUSH2 0x16D2 PUSH1 0x4 CALLDATALOAD PUSH2 0x2F74 JUMP JUMPDEST PUSH2 0x17B7 JUMPI DUP2 DUP2 SUB PUSH2 0x17E3 JUMPI JUMPDEST POP POP PUSH1 0x4 SLOAD DUP1 ISZERO PUSH2 0x17CD JUMPI ADD PUSH2 0x16F3 DUP2 PUSH2 0x2F74 JUMP JUMPDEST PUSH2 0x17B7 JUMPI PUSH1 0xA DUP2 PUSH1 0x0 PUSH2 0x176E SWAP4 SSTORE PUSH2 0x170D PUSH1 0x1 DUP3 ADD PUSH2 0x3DA7 JUMP JUMPDEST PUSH2 0x1719 PUSH1 0x2 DUP3 ADD PUSH2 0x3DA7 JUMP JUMPDEST PUSH2 0x1725 PUSH1 0x3 DUP3 ADD PUSH2 0x3DA7 JUMP JUMPDEST PUSH2 0x1731 PUSH1 0x4 DUP3 ADD PUSH2 0x3DA7 JUMP JUMPDEST PUSH2 0x173D PUSH1 0x5 DUP3 ADD PUSH2 0x3DA7 JUMP JUMPDEST PUSH2 0x1749 PUSH1 0x6 DUP3 ADD PUSH2 0x3DA7 JUMP JUMPDEST PUSH2 0x1755 PUSH1 0x7 DUP3 ADD PUSH2 0x3DA7 JUMP JUMPDEST PUSH2 0x1761 PUSH1 0x8 DUP3 ADD PUSH2 0x3DA7 JUMP JUMPDEST PUSH1 0x0 PUSH1 0x9 DUP3 ADD SSTORE ADD PUSH2 0x3DA7 JUMP JUMPDEST PUSH1 0x4 SSTORE PUSH2 0x140 DUP2 MLOAD SWAP2 ADD MLOAD SWAP1 PUSH32 0xBF3747916BBE426E0FD532A54A21BCF371C5CA55C33ADBFD8B43756BB1BEA938 PUSH1 0x40 MLOAD PUSH1 0x20 DUP2 MSTORE DUP1 PUSH2 0x17B2 CALLER SWAP6 PUSH1 0x20 DUP4 ADD SWAP1 PUSH2 0x3073 JUMP JUMPDEST SUB SWAP1 LOG3 STOP JUMPDEST PUSH4 0x4E487B71 PUSH1 0xE0 SHL PUSH1 0x0 MSTORE PUSH1 0x0 PUSH1 0x4 MSTORE PUSH1 0x24 PUSH1 0x0 REVERT JUMPDEST PUSH4 0x4E487B71 PUSH1 0xE0 SHL PUSH1 0x0 MSTORE PUSH1 0x31 PUSH1 0x4 MSTORE PUSH1 0x24 PUSH1 0x0 REVERT JUMPDEST PUSH1 0xA DUP1 DUP4 PUSH2 0x189D SWAP5 SLOAD DUP5 SSTORE PUSH2 0x17FE PUSH1 0x1 DUP3 ADD PUSH1 0x1 DUP7 ADD PUSH2 0x3CCF JUMP JUMPDEST PUSH2 0x180E PUSH1 0x2 DUP3 ADD PUSH1 0x2 DUP7 ADD PUSH2 0x3CCF JUMP JUMPDEST PUSH2 0x181E PUSH1 0x3 DUP3 ADD PUSH1 0x3 DUP7 ADD PUSH2 0x3CCF JUMP JUMPDEST PUSH2 0x182E PUSH1 0x4 DUP3 ADD PUSH1 0x4 DUP7 ADD PUSH2 0x3CCF JUMP JUMPDEST PUSH2 0x183E PUSH1 0x5 DUP3 ADD PUSH1 0x5 DUP7 ADD PUSH2 0x3CCF JUMP JUMPDEST PUSH2 0x184E PUSH1 0x6 DUP3 ADD PUSH1 0x6 DUP7 ADD PUSH2 0x3CCF JUMP JUMPDEST PUSH2 0x185E PUSH1 0x7 DUP3 ADD PUSH1 0x7 DUP7 ADD PUSH2 0x3CCF JUMP JUMPDEST PUSH2 0x186E PUSH1 0x8 DUP3 ADD PUSH1 0x8 DUP7 ADD PUSH2 0x3CCF JUMP JUMPDEST PUSH1 0x9 DUP2 DUP2 ADD SLOAD SWAP1 DUP6 ADD DUP1 SLOAD PUSH1 0x1 PUSH1 0x1 PUSH1 0xA0 SHL SUB NOT AND PUSH1 0x1 PUSH1 0x1 PUSH1 0xA0 SHL SUB SWAP3 SWAP1 SWAP3 AND SWAP2 SWAP1 SWAP2 OR SWAP1 SSTORE ADD SWAP2 ADD PUSH2 0x3CCF JUMP JUMPDEST DUP3 DUP1 PUSH2 0x16DE JUMP JUMPDEST PUSH4 0x4E487B71 PUSH1 0xE0 SHL PUSH1 0x0 MSTORE PUSH1 0x11 PUSH1 0x4 MSTORE PUSH1 0x24 PUSH1 0x0 REVERT JUMPDEST PUSH1 0x40 MLOAD PUSH3 0x461BCD PUSH1 0xE5 SHL DUP2 MSTORE PUSH1 0x20 PUSH1 0x4 DUP3 ADD MSTORE PUSH1 0xD PUSH1 0x24 DUP3 ADD MSTORE PUSH13 0x92DCECC2D8D2C840D2DCC8CAF PUSH1 0x9B SHL PUSH1 0x44 DUP3 ADD MSTORE PUSH1 0x64 SWAP1 REVERT JUMPDEST ADD MLOAD SWAP1 POP DUP7 DUP1 PUSH2 0x161D JUMP JUMPDEST PUSH1 0x8 DUP4 ADD PUSH1 0x0 MSTORE PUSH1 0x20 PUSH1 0x0 KECCAK256 SWAP6 PUSH1 0x0 JUMPDEST PUSH1 0x1F NOT DUP5 AND DUP2 LT PUSH2 0x1955 JUMPI POP SWAP6 DUP3 SWAP2 PUSH1 0x9 SWAP6 SWAP7 SWAP8 PUSH1 0x1 SWAP5 PUSH1 0x1F NOT DUP2 AND LT PUSH2 0x193C JUMPI JUMPDEST POP POP POP DUP2 SHL ADD PUSH1 0x8 DUP3 ADD SSTORE PUSH2 0x1635 JUMP JUMPDEST ADD MLOAD PUSH1 0x0 NOT PUSH1 0xF8 DUP5 PUSH1 0x3 SHL AND SHR NOT AND SWAP1 SSTORE DUP7 DUP1 DUP1 PUSH2 0x192C JUMP JUMPDEST DUP3 DUP3 ADD MLOAD DUP9 SSTORE PUSH1 0x1 SWAP1 SWAP8 ADD SWAP7 PUSH1 0x20 SWAP3 DUP4 ADD SWAP3 ADD PUSH2 0x190A JUMP JUMPDEST ADD MLOAD SWAP1 POP DUP6 DUP1 PUSH2 0x15B8 JUMP JUMPDEST PUSH1 0x7 DUP6 ADD PUSH1 0x0 MSTORE PUSH1 0x20 PUSH1 0x0 KECCAK256 SWAP1 PUSH1 0x0 JUMPDEST PUSH1 0x1F NOT DUP5 AND DUP2 LT PUSH2 0x19CF JUMPI POP PUSH1 0x1 SWAP4 SWAP5 SWAP6 SWAP7 DUP4 PUSH1 0x1F NOT DUP2 AND LT PUSH2 0x19B6 JUMPI JUMPDEST POP POP POP DUP2 SHL ADD PUSH1 0x7 DUP5 ADD SSTORE PUSH2 0x15D0 JUMP JUMPDEST ADD MLOAD PUSH1 0x0 NOT PUSH1 0xF8 DUP5 PUSH1 0x3 SHL AND SHR NOT AND SWAP1 SSTORE DUP6 DUP1 DUP1 PUSH2 0x19A6 JUMP JUMPDEST SWAP1 SWAP2 PUSH1 0x20 PUSH1 0x1 DUP2 SWAP3 DUP6 DUP12 ADD MLOAD DUP2 SSTORE ADD SWAP4 ADD SWAP2 ADD PUSH2 0x1988 JUMP JUMPDEST ADD MLOAD SWAP1 POP DUP6 DUP1 PUSH2 0x1556 JUMP JUMPDEST PUSH1 0x6 DUP5 ADD PUSH1 0x0 MSTORE PUSH1 0x20 PUSH1 0x0 KECCAK256 SWAP1 PUSH1 0x0 JUMPDEST PUSH1 0x1F NOT DUP5 AND DUP2 LT PUSH2 0x1A49 JUMPI POP PUSH1 0x1 SWAP4 SWAP5 SWAP6 SWAP7 DUP4 PUSH1 0x1F NOT DUP2 AND LT PUSH2 0x1A30 JUMPI JUMPDEST POP POP POP DUP2 SHL ADD PUSH1 0x6 DUP4 ADD SSTORE PUSH2 0x156E JUMP JUMPDEST ADD MLOAD PUSH1 0x0 NOT PUSH1 0xF8 DUP5 PUSH1 0x3 SHL AND SHR NOT AND SWAP1 SSTORE DUP6 DUP1 DUP1 PUSH2 0x1A20 JUMP JUMPDEST SWAP1 SWAP2 PUSH1 0x20 PUSH1 0x1 DUP2 SWAP3 DUP6 DUP12 ADD MLOAD DUP2 SSTORE ADD SWAP4 ADD SWAP2 ADD PUSH2 0x1A02 JUMP JUMPDEST ADD MLOAD SWAP1 POP DUP6 DUP1 PUSH2 0x14F4 JUMP JUMPDEST PUSH1 0x5 DUP4 ADD PUSH1 0x0 MSTORE PUSH1 0x20 PUSH1 0x0 KECCAK256 SWAP1 PUSH1 0x0 JUMPDEST PUSH1 0x1F NOT DUP5 AND DUP2 LT PUSH2 0x1AC3 JUMPI POP PUSH1 0x1 SWAP4 SWAP5 SWAP6 SWAP7 DUP4 PUSH1 0x1F NOT DUP2 AND LT PUSH2 0x1AAA JUMPI JUMPDEST POP POP POP DUP2 SHL ADD PUSH1 0x5 DUP3 ADD SSTORE PUSH2 0x150C JUMP JUMPDEST ADD MLOAD PUSH1 0x0 NOT PUSH1 0xF8 DUP5 PUSH1 0x3 SHL AND SHR NOT AND SWAP1 SSTORE DUP6 DUP1 DUP1 PUSH2 0x1A9A JUMP JUMPDEST SWAP1 SWAP2 PUSH1 0x20 PUSH1 0x1 DUP2 SWAP3 DUP6 DUP12 ADD MLOAD DUP2 SSTORE ADD SWAP4 ADD SWAP2 ADD PUSH2 0x1A7C JUMP JUMPDEST ADD MLOAD SWAP1 POP DUP6 DUP1 PUSH2 0x1492 JUMP JUMPDEST PUSH1 0x4 DUP6 ADD PUSH1 0x0 MSTORE PUSH1 0x20 PUSH1 0x0 KECCAK256 SWAP1 PUSH1 0x0 JUMPDEST PUSH1 0x1F NOT DUP5 AND DUP2 LT PUSH2 0x1B3D JUMPI POP PUSH1 0x1 SWAP4 SWAP5 SWAP6 SWAP7 DUP4 PUSH1 0x1F NOT DUP2 AND LT PUSH2 0x1B24 JUMPI JUMPDEST POP POP POP DUP2 SHL ADD PUSH1 0x4 DUP5 ADD SSTORE PUSH2 0x14AA JUMP JUMPDEST ADD MLOAD PUSH1 0x0 NOT PUSH1 0xF8 DUP5 PUSH1 0x3 SHL AND SHR NOT AND SWAP1 SSTORE DUP6 DUP1 DUP1 PUSH2 0x1B14 JUMP JUMPDEST SWAP1 SWAP2 PUSH1 0x20 PUSH1 0x1 DUP2 SWAP3 DUP6 DUP12 ADD MLOAD DUP2 SSTORE ADD SWAP4 ADD SWAP2 ADD PUSH2 0x1AF6 JUMP JUMPDEST ADD MLOAD SWAP1 POP DUP6 DUP1 PUSH2 0x1430 JUMP JUMPDEST PUSH1 0x3 DUP5 ADD PUSH1 0x0 MSTORE PUSH1 0x20 PUSH1 0x0 KECCAK256 SWAP1 PUSH1 0x0 JUMPDEST PUSH1 0x1F NOT DUP5 AND DUP2 LT PUSH2 0x1BB7 JUMPI POP PUSH1 0x1 SWAP4 SWAP5 SWAP6 SWAP7 DUP4 PUSH1 0x1F NOT DUP2 AND LT PUSH2 0x1B9E JUMPI JUMPDEST POP POP POP DUP2 SHL ADD PUSH1 0x3 DUP4 ADD SSTORE PUSH2 0x1448 JUMP JUMPDEST ADD MLOAD PUSH1 0x0 NOT PUSH1 0xF8 DUP5 PUSH1 0x3 SHL AND SHR NOT AND SWAP1 SSTORE DUP6 DUP1 DUP1 PUSH2 0x1B8E JUMP JUMPDEST SWAP1 SWAP2 PUSH1 0x20 PUSH1 0x1 DUP2 SWAP3 DUP6 DUP12 ADD MLOAD DUP2 SSTORE ADD SWAP4 ADD SWAP2 ADD PUSH2 0x1B70 JUMP JUMPDEST ADD MLOAD SWAP1 POP DUP6 DUP1 PUSH2 0x13CE JUMP JUMPDEST PUSH1 0x2 DUP4 ADD PUSH1 0x0 MSTORE PUSH1 0x20 PUSH1 0x0 KECCAK256 SWAP1 PUSH1 0x0 JUMPDEST PUSH1 0x1F NOT DUP5 AND DUP2 LT PUSH2 0x1C31 JUMPI POP PUSH1 0x1 SWAP4 SWAP5 SWAP6 SWAP7 DUP4 PUSH1 0x1F NOT DUP2 AND LT PUSH2 0x1C18 JUMPI JUMPDEST POP POP POP DUP2 SHL ADD PUSH1 0x2 DUP3 ADD SSTORE PUSH2 0x13E6 JUMP JUMPDEST ADD MLOAD PUSH1 0x0 NOT PUSH1 0xF8 DUP5 PUSH1 0x3 SHL AND SHR NOT AND SWAP1 SSTORE DUP6 DUP1 DUP1 PUSH2 0x1C08 JUMP JUMPDEST SWAP1 SWAP2 PUSH1 0x20 PUSH1 0x1 DUP2 SWAP3 DUP6 DUP12 ADD MLOAD DUP2 SSTORE ADD SWAP4 ADD SWAP2 ADD PUSH2 0x1BEA JUMP JUMPDEST ADD MLOAD SWAP1 POP DUP6 DUP1 PUSH2 0x136C JUMP JUMPDEST PUSH1 0x1 DUP6 ADD PUSH1 0x0 MSTORE PUSH1 0x20 PUSH1 0x0 KECCAK256 SWAP1 PUSH1 0x0 JUMPDEST PUSH1 0x1F NOT DUP5 AND DUP2 LT PUSH2 0x1CAB JUMPI POP PUSH1 0x1 SWAP4 SWAP5 SWAP6 SWAP7 DUP4 PUSH1 0x1F NOT DUP2 AND LT PUSH2 0x1C92 JUMPI JUMPDEST POP POP POP DUP2 SHL ADD PUSH1 0x1 DUP5 ADD SSTORE PUSH2 0x1384 JUMP JUMPDEST ADD MLOAD PUSH1 0x0 NOT PUSH1 0xF8 DUP5 PUSH1 0x3 SHL AND SHR NOT AND SWAP1 SSTORE DUP6 DUP1 DUP1 PUSH2 0x1C82 JUMP JUMPDEST SWAP1 SWAP2 PUSH1 0x20 PUSH1 0x1 DUP2 SWAP3 DUP6 DUP12 ADD MLOAD DUP2 SSTORE ADD SWAP4 ADD SWAP2 ADD PUSH2 0x1C64 JUMP JUMPDEST PUSH2 0x140 DUP2 ADD MLOAD PUSH1 0x20 DUP2 MLOAD SWAP2 ADD KECCAK256 PUSH2 0x1CD8 PUSH2 0x3BC2 JUMP JUMPDEST PUSH1 0x20 DUP2 MLOAD SWAP2 ADD KECCAK256 SUB PUSH2 0x16A2 JUMPI DUP1 MLOAD PUSH1 0x0 MSTORE PUSH1 0x0 PUSH1 0x20 MSTORE PUSH1 0x1 DUP1 PUSH1 0xA0 SHL SUB PUSH1 0x9 PUSH1 0x40 PUSH1 0x0 KECCAK256 ADD SLOAD AND DUP2 MLOAD PUSH1 0x0 MSTORE PUSH1 0x1 PUSH1 0x20 MSTORE PUSH1 0x1 PUSH1 0x40 PUSH1 0x0 KECCAK256 ADD DUP1 SLOAD SWAP1 PUSH1 0x1 PUSH1 0x40 SHL DUP3 LT ISZERO PUSH2 0xF12 JUMPI PUSH1 0x1 DUP3 ADD DUP1 DUP3 SSTORE DUP3 LT ISZERO PUSH2 0x22BD JUMPI PUSH1 0x0 MSTORE PUSH1 0x20 PUSH1 0x0 KECCAK256 ADD PUSH1 0x1 DUP1 PUSH1 0xA0 SHL SUB NOT SWAP1 DUP3 DUP3 DUP3 SLOAD AND OR SWAP1 SSTORE PUSH1 0x1 DUP1 PUSH1 0xA0 SHL SUB PUSH2 0x120 DUP5 ADD MLOAD AND DUP4 MLOAD PUSH1 0x0 MSTORE PUSH1 0x0 PUSH1 0x20 MSTORE PUSH1 0x9 PUSH1 0x40 PUSH1 0x0 KECCAK256 ADD SWAP2 DUP3 SLOAD AND OR SWAP1 SSTORE PUSH1 0x20 DUP3 ADD MLOAD SWAP2 DUP1 MLOAD PUSH1 0x0 MSTORE PUSH1 0x1 PUSH1 0x40 PUSH1 0x0 KECCAK256 ADD DUP4 MLOAD PUSH1 0x1 PUSH1 0x1 PUSH1 0x40 SHL SUB DUP2 GT PUSH2 0xF12 JUMPI PUSH2 0x1DA0 DUP2 PUSH2 0xE1F DUP5 SLOAD PUSH2 0x2F93 JUMP JUMPDEST PUSH1 0x20 PUSH1 0x1F DUP3 GT PUSH1 0x1 EQ PUSH2 0x2254 JUMPI DUP2 SWAP3 SWAP4 SWAP5 SWAP6 PUSH1 0x0 SWAP3 PUSH2 0x2249 JUMPI JUMPDEST POP POP DUP2 PUSH1 0x1 SHL SWAP2 PUSH1 0x0 NOT SWAP1 PUSH1 0x3 SHL SHR NOT AND OR SWAP1 SSTORE JUMPDEST PUSH1 0x60 DUP2 ADD MLOAD SWAP2 DUP2 MLOAD PUSH1 0x0 MSTORE PUSH1 0x0 PUSH1 0x20 MSTORE PUSH1 0x3 PUSH1 0x40 PUSH1 0x0 KECCAK256 ADD DUP4 MLOAD PUSH1 0x1 PUSH1 0x1 PUSH1 0x40 SHL SUB DUP2 GT PUSH2 0xF12 JUMPI PUSH2 0x1E05 DUP2 PUSH2 0xE1F DUP5 SLOAD PUSH2 0x2F93 JUMP JUMPDEST PUSH1 0x20 PUSH1 0x1F DUP3 GT PUSH1 0x1 EQ PUSH2 0x21E0 JUMPI DUP2 SWAP3 SWAP4 SWAP5 SWAP6 PUSH1 0x0 SWAP3 PUSH2 0x21D5 JUMPI JUMPDEST POP POP DUP2 PUSH1 0x1 SHL SWAP2 PUSH1 0x0 NOT SWAP1 PUSH1 0x3 SHL SHR NOT AND OR SWAP1 SSTORE JUMPDEST PUSH1 0x80 DUP3 ADD MLOAD SWAP2 DUP1 MLOAD PUSH1 0x0 MSTORE PUSH1 0x0 PUSH1 0x20 MSTORE PUSH1 0x4 PUSH1 0x40 PUSH1 0x0 KECCAK256 ADD DUP4 MLOAD PUSH1 0x1 PUSH1 0x1 PUSH1 0x40 SHL SUB DUP2 GT PUSH2 0xF12 JUMPI PUSH2 0x1E6A DUP2 PUSH2 0xE1F DUP5 SLOAD PUSH2 0x2F93 JUMP JUMPDEST PUSH1 0x20 PUSH1 0x1F DUP3 GT PUSH1 0x1 EQ PUSH2 0x216C JUMPI DUP2 SWAP3 SWAP4 SWAP5 SWAP6 PUSH1 0x0 SWAP3 PUSH2 0x2161 JUMPI JUMPDEST POP POP DUP2 PUSH1 0x1 SHL SWAP2 PUSH1 0x0 NOT SWAP1 PUSH1 0x3 SHL SHR NOT AND OR SWAP1 SSTORE JUMPDEST PUSH1 0x40 DUP2 ADD MLOAD SWAP2 DUP2 MLOAD PUSH1 0x0 MSTORE PUSH1 0x0 PUSH1 0x20 MSTORE PUSH1 0x2 PUSH1 0x40 PUSH1 0x0 KECCAK256 ADD DUP4 MLOAD PUSH1 0x1 PUSH1 0x1 PUSH1 0x40 SHL SUB DUP2 GT PUSH2 0xF12 JUMPI PUSH2 0x1ECF DUP2 PUSH2 0xE1F DUP5 SLOAD PUSH2 0x2F93 JUMP JUMPDEST PUSH1 0x20 PUSH1 0x1F DUP3 GT PUSH1 0x1 EQ PUSH2 0x20F8 JUMPI DUP2 SWAP3 SWAP4 SWAP5 SWAP6 PUSH1 0x0 SWAP3 PUSH2 0x20ED JUMPI JUMPDEST POP POP DUP2 PUSH1 0x1 SHL SWAP2 PUSH1 0x0 NOT SWAP1 PUSH1 0x3 SHL SHR NOT AND OR SWAP1 SSTORE JUMPDEST PUSH1 0xC0 DUP3 ADD MLOAD SWAP2 DUP1 MLOAD PUSH1 0x0 MSTORE PUSH1 0x0 PUSH1 0x20 MSTORE PUSH1 0x6 PUSH1 0x40 PUSH1 0x0 KECCAK256 ADD DUP4 MLOAD PUSH1 0x1 PUSH1 0x1 PUSH1 0x40 SHL SUB DUP2 GT PUSH2 0xF12 JUMPI PUSH2 0x1F34 DUP2 PUSH2 0xE1F DUP5 SLOAD PUSH2 0x2F93 JUMP JUMPDEST PUSH1 0x20 PUSH1 0x1F DUP3 GT PUSH1 0x1 EQ PUSH2 0x2084 JUMPI DUP2 SWAP3 SWAP4 SWAP5 SWAP6 PUSH1 0x0 SWAP3 PUSH2 0x2079 JUMPI JUMPDEST POP POP DUP2 PUSH1 0x1 SHL SWAP2 PUSH1 0x0 NOT SWAP1 PUSH1 0x3 SHL SHR NOT AND OR SWAP1 SSTORE JUMPDEST PUSH1 0xA0 DUP2 ADD MLOAD SWAP2 DUP2 MLOAD PUSH1 0x0 MSTORE PUSH1 0x0 PUSH1 0x20 MSTORE PUSH1 0x5 PUSH1 0x40 PUSH1 0x0 KECCAK256 ADD DUP4 MLOAD PUSH1 0x1 PUSH1 0x1 PUSH1 0x40 SHL SUB DUP2 GT PUSH2 0xF12 JUMPI PUSH2 0x1F99 DUP2 PUSH2 0xE1F DUP5 SLOAD PUSH2 0x2F93 JUMP JUMPDEST PUSH1 0x20 PUSH1 0x1F DUP3 GT PUSH1 0x1 EQ PUSH2 0x2010 JUMPI DUP2 SWAP3 SWAP4 SWAP5 SWAP6 PUSH1 0x0 SWAP3 PUSH2 0x2005 JUMPI JUMPDEST POP POP DUP2 PUSH1 0x1 SHL SWAP2 PUSH1 0x0 NOT SWAP1 PUSH1 0x3 SHL SHR NOT AND OR SWAP1 SSTORE JUMPDEST DUP2 MLOAD PUSH2 0x120 DUP4 ADD MLOAD PUSH1 0x1 PUSH1 0x1 PUSH1 0xA0 SHL SUB AND SWAP2 SWAP1 PUSH32 0x1080B2F211753E5090F26EF7FFDC6BB3E66A125C7290200D10B502160BB1F566 PUSH1 0x0 DUP1 LOG4 PUSH2 0x16A2 JUMP JUMPDEST ADD MLOAD SWAP1 POP DUP6 DUP1 PUSH2 0x1FB3 JUMP JUMPDEST DUP3 PUSH1 0x0 MSTORE PUSH1 0x20 PUSH1 0x0 KECCAK256 SWAP1 PUSH1 0x0 JUMPDEST PUSH1 0x1F NOT DUP5 AND DUP2 LT PUSH2 0x2061 JUMPI POP PUSH1 0x1 SWAP4 SWAP5 SWAP6 SWAP7 DUP4 PUSH1 0x1F NOT DUP2 AND LT PUSH2 0x2048 JUMPI JUMPDEST POP POP POP DUP2 SHL ADD SWAP1 SSTORE PUSH2 0x1FC8 JUMP JUMPDEST ADD MLOAD PUSH1 0x0 NOT PUSH1 0xF8 DUP5 PUSH1 0x3 SHL AND SHR NOT AND SWAP1 SSTORE DUP6 DUP1 DUP1 PUSH2 0x203B JUMP JUMPDEST SWAP1 SWAP2 PUSH1 0x20 PUSH1 0x1 DUP2 SWAP3 DUP6 DUP12 ADD MLOAD DUP2 SSTORE ADD SWAP4 ADD SWAP2 ADD PUSH2 0x201D JUMP JUMPDEST ADD MLOAD SWAP1 POP DUP6 DUP1 PUSH2 0x1F4E JUMP JUMPDEST DUP3 PUSH1 0x0 MSTORE PUSH1 0x20 PUSH1 0x0 KECCAK256 SWAP1 PUSH1 0x0 JUMPDEST PUSH1 0x1F NOT DUP5 AND DUP2 LT PUSH2 0x20D5 JUMPI POP PUSH1 0x1 SWAP4 SWAP5 SWAP6 SWAP7 DUP4 PUSH1 0x1F NOT DUP2 AND LT PUSH2 0x20BC JUMPI JUMPDEST POP POP POP DUP2 SHL ADD SWAP1 SSTORE PUSH2 0x1F63 JUMP JUMPDEST ADD MLOAD PUSH1 0x0 NOT PUSH1 0xF8 DUP5 PUSH1 0x3 SHL AND SHR NOT AND SWAP1 SSTORE DUP6 DUP1 DUP1 PUSH2 0x20AF JUMP JUMPDEST SWAP1 SWAP2 PUSH1 0x20 PUSH1 0x1 DUP2 SWAP3 DUP6 DUP12 ADD MLOAD DUP2 SSTORE ADD SWAP4 ADD SWAP2 ADD PUSH2 0x2091 JUMP JUMPDEST ADD MLOAD SWAP1 POP DUP6 DUP1 PUSH2 0x1EE9 JUMP JUMPDEST DUP3 PUSH1 0x0 MSTORE PUSH1 0x20 PUSH1 0x0 KECCAK256 SWAP1 PUSH1 0x0 JUMPDEST PUSH1 0x1F NOT DUP5 AND DUP2 LT PUSH2 0x2149 JUMPI POP PUSH1 0x1 SWAP4 SWAP5 SWAP6 SWAP7 DUP4 PUSH1 0x1F NOT DUP2 AND LT PUSH2 0x2130 JUMPI JUMPDEST POP POP POP DUP2 SHL ADD SWAP1 SSTORE PUSH2 0x1EFE JUMP JUMPDEST ADD MLOAD PUSH1 0x0 NOT PUSH1 0xF8 DUP5 PUSH1 0x3 SHL AND SHR NOT AND SWAP1 SSTORE DUP6 DUP1 DUP1 PUSH2 0x2123 JUMP JUMPDEST SWAP1 SWAP2 PUSH1 0x20 PUSH1 0x1 DUP2 SWAP3 DUP6 DUP12 ADD MLOAD DUP2 SSTORE ADD SWAP4 ADD SWAP2 ADD PUSH2 0x2105 JUMP JUMPDEST ADD MLOAD SWAP1 POP DUP6 DUP1 PUSH2 0x1E84 JUMP JUMPDEST DUP3 PUSH1 0x0 MSTORE PUSH1 0x20 PUSH1 0x0 KECCAK256 SWAP1 PUSH1 0x0 JUMPDEST PUSH1 0x1F NOT DUP5 AND DUP2 LT PUSH2 0x21BD JUMPI POP PUSH1 0x1 SWAP4 SWAP5 SWAP6 SWAP7 DUP4 PUSH1 0x1F NOT DUP2 AND LT PUSH2 0x21A4 JUMPI JUMPDEST POP POP POP DUP2 SHL ADD SWAP1 SSTORE PUSH2 0x1E99 JUMP JUMPDEST ADD MLOAD PUSH1 0x0 NOT PUSH1 0xF8 DUP5 PUSH1 0x3 SHL AND SHR NOT AND SWAP1 SSTORE DUP6 DUP1 DUP1 PUSH2 0x2197 JUMP JUMPDEST SWAP1 SWAP2 PUSH1 0x20 PUSH1 0x1 DUP2 SWAP3 DUP6 DUP12 ADD MLOAD DUP2 SSTORE ADD SWAP4 ADD SWAP2 ADD PUSH2 0x2179 JUMP JUMPDEST ADD MLOAD SWAP1 POP DUP6 DUP1 PUSH2 0x1E1F JUMP JUMPDEST DUP3 PUSH1 0x0 MSTORE PUSH1 0x20 PUSH1 0x0 KECCAK256 SWAP1 PUSH1 0x0 JUMPDEST PUSH1 0x1F NOT DUP5 AND DUP2 LT PUSH2 0x2231 JUMPI POP PUSH1 0x1 SWAP4 SWAP5 SWAP6 SWAP7 DUP4 PUSH1 0x1F NOT DUP2 AND LT PUSH2 0x2218 JUMPI JUMPDEST POP POP POP DUP2 SHL ADD SWAP1 SSTORE PUSH2 0x1E34 JUMP JUMPDEST ADD MLOAD PUSH1 0x0 NOT PUSH1 0xF8 DUP5 PUSH1 0x3 SHL AND SHR NOT AND SWAP1 SSTORE DUP6 DUP1 DUP1 PUSH2 0x220B JUMP JUMPDEST SWAP1 SWAP2 PUSH1 0x20 PUSH1 0x1 DUP2 SWAP3 DUP6 DUP12 ADD MLOAD DUP2 SSTORE ADD SWAP4 ADD SWAP2 ADD PUSH2 0x21ED JUMP JUMPDEST ADD MLOAD SWAP1 POP DUP6 DUP1 PUSH2 0x1DBA JUMP JUMPDEST DUP3 PUSH1 0x0 MSTORE PUSH1 0x20 PUSH1 0x0 KECCAK256 SWAP1 PUSH1 0x0 JUMPDEST PUSH1 0x1F NOT DUP5 AND DUP2 LT PUSH2 0x22A5 JUMPI POP PUSH1 0x1 SWAP4 SWAP5 SWAP6 SWAP7 DUP4 PUSH1 0x1F NOT DUP2 AND LT PUSH2 0x228C JUMPI JUMPDEST POP POP POP DUP2 SHL ADD SWAP1 SSTORE PUSH2 0x1DCF JUMP JUMPDEST ADD MLOAD PUSH1 0x0 NOT PUSH1 0xF8 DUP5 PUSH1 0x3 SHL AND SHR NOT AND SWAP1 SSTORE DUP6 DUP1 DUP1 PUSH2 0x227F JUMP JUMPDEST SWAP1 SWAP2 PUSH1 0x20 PUSH1 0x1 DUP2 SWAP3 DUP6 DUP12 ADD MLOAD DUP2 SSTORE ADD SWAP4 ADD SWAP2 ADD PUSH2 0x2261 JUMP JUMPDEST PUSH4 0x4E487B71 PUSH1 0xE0 SHL PUSH1 0x0 MSTORE PUSH1 0x32 PUSH1 0x4 MSTORE PUSH1 0x24 PUSH1 0x0 REVERT JUMPDEST CALLVALUE PUSH2 0x27C JUMPI PUSH1 0x20 DUP1 PUSH1 0x3 NOT CALLDATASIZE ADD SLT PUSH2 0x27C JUMPI PUSH1 0x4 CALLDATALOAD DUP1 PUSH1 0x0 MSTORE PUSH1 0x5 DUP3 MSTORE PUSH2 0x2308 PUSH1 0x1 DUP1 PUSH1 0xA0 SHL SUB PUSH1 0x40 PUSH1 0x0 KECCAK256 SLOAD AND CALLER EQ PUSH2 0x3B26 JUMP JUMPDEST DUP1 PUSH1 0x0 MSTORE PUSH1 0x5 DUP3 MSTORE PUSH1 0xFF PUSH1 0x8 PUSH1 0x40 PUSH1 0x0 KECCAK256 ADD SLOAD AND PUSH2 0x2383 JUMPI PUSH1 0x5 PUSH1 0x0 SWAP3 DUP3 DUP5 MSTORE DUP2 DUP2 MSTORE PUSH2 0x2345 PUSH2 0x233E PUSH1 0x1 PUSH1 0x40 DUP8 KECCAK256 ADD SLOAD PUSH2 0x2F93 JUMP JUMPDEST ISZERO ISZERO PUSH2 0x3B7D JUMP JUMPDEST DUP3 DUP5 MSTORE MSTORE PUSH1 0x40 DUP3 KECCAK256 PUSH1 0x8 ADD DUP1 SLOAD PUSH1 0xFF NOT AND PUSH1 0x1 OR SWAP1 SSTORE CALLER SWAP1 PUSH32 0x1080B2F211753E5090F26EF7FFDC6BB3E66A125C7290200D10B502160BB1F566 DUP4 DUP1 LOG4 STOP JUMPDEST PUSH1 0x40 MLOAD PUSH3 0x461BCD PUSH1 0xE5 SHL DUP2 MSTORE PUSH1 0x4 DUP2 ADD DUP4 SWAP1 MSTORE PUSH1 0x1B PUSH1 0x24 DUP3 ADD MSTORE PUSH32 0x4C616E6420697320616C7265616479207472616E736665727265640000000000 PUSH1 0x44 DUP3 ADD MSTORE PUSH1 0x64 SWAP1 REVERT JUMPDEST CALLVALUE PUSH2 0x27C JUMPI PUSH2 0x120 CALLDATASIZE PUSH1 0x3 NOT ADD SLT PUSH2 0x27C JUMPI PUSH1 0x1 PUSH1 0x1 PUSH1 0x40 SHL SUB PUSH1 0x4 CALLDATALOAD DUP2 DUP2 GT PUSH2 0x27C JUMPI PUSH2 0x23FA SWAP1 CALLDATASIZE SWAP1 PUSH1 0x4 ADD PUSH2 0x2F1E JUMP JUMPDEST PUSH1 0x24 CALLDATALOAD PUSH1 0x44 CALLDATALOAD DUP4 DUP2 GT PUSH2 0x27C JUMPI PUSH2 0x2415 SWAP1 CALLDATASIZE SWAP1 PUSH1 0x4 ADD PUSH2 0x2F1E JUMP JUMPDEST PUSH1 0x64 CALLDATALOAD DUP5 DUP2 GT PUSH2 0x27C JUMPI PUSH2 0x242D SWAP1 CALLDATASIZE SWAP1 PUSH1 0x4 ADD PUSH2 0x2F1E JUMP JUMPDEST SWAP1 PUSH1 0x84 CALLDATALOAD DUP6 DUP2 GT PUSH2 0x27C JUMPI PUSH2 0x2446 SWAP1 CALLDATASIZE SWAP1 PUSH1 0x4 ADD PUSH2 0x2F1E JUMP JUMPDEST SWAP5 PUSH1 0xA4 CALLDATALOAD DUP2 DUP2 GT PUSH2 0x27C JUMPI PUSH2 0x245F SWAP1 CALLDATASIZE SWAP1 PUSH1 0x4 ADD PUSH2 0x2F1E JUMP JUMPDEST SWAP1 PUSH1 0xC4 CALLDATALOAD DUP2 DUP2 GT PUSH2 0x27C JUMPI PUSH2 0x2478 SWAP1 CALLDATASIZE SWAP1 PUSH1 0x4 ADD PUSH2 0x2F1E JUMP JUMPDEST SWAP2 PUSH1 0xE4 CALLDATALOAD DUP3 DUP2 GT PUSH2 0x27C JUMPI PUSH2 0x2491 SWAP1 CALLDATASIZE SWAP1 PUSH1 0x4 ADD PUSH2 0x2F1E JUMP JUMPDEST SWAP2 PUSH2 0x104 CALLDATALOAD SWAP1 DUP2 GT PUSH2 0x27C JUMPI PUSH2 0x24AB SWAP1 CALLDATASIZE SWAP1 PUSH1 0x4 ADD PUSH2 0x2F1E JUMP JUMPDEST SWAP3 DUP7 PUSH1 0x0 MSTORE PUSH1 0x0 PUSH1 0x20 MSTORE PUSH1 0xFF PUSH1 0x9 PUSH1 0x40 PUSH1 0x0 KECCAK256 ADD SLOAD PUSH1 0xA0 SHR AND PUSH2 0x24DE JUMPI PUSH2 0x24DC SWAP9 PUSH2 0x24D4 PUSH2 0x3202 JUMP JUMPDEST SWAP9 CALLER SWAP9 PUSH2 0x3282 JUMP JUMPDEST STOP JUMPDEST PUSH1 0x40 MLOAD PUSH3 0x461BCD PUSH1 0xE5 SHL DUP2 MSTORE PUSH1 0x20 PUSH1 0x4 DUP3 ADD MSTORE PUSH1 0x1A PUSH1 0x24 DUP3 ADD MSTORE PUSH32 0x4C616E6420697320416C72656164792052656769737465726564000000000000 PUSH1 0x44 DUP3 ADD MSTORE PUSH1 0x64 SWAP1 REVERT JUMPDEST CALLVALUE PUSH2 0x27C JUMPI PUSH1 0x20 CALLDATASIZE PUSH1 0x3 NOT ADD SLT PUSH2 0x27C JUMPI PUSH1 0x4 CALLDATALOAD PUSH1 0x4 SLOAD DUP2 LT ISZERO PUSH2 0x27C JUMPI PUSH2 0x254A SWAP1 PUSH2 0x2F74 JUMP JUMPDEST POP DUP1 SLOAD PUSH2 0x2559 PUSH1 0x1 DUP4 ADD PUSH2 0x2FCD JUMP JUMPDEST SWAP2 PUSH2 0x2566 PUSH1 0x2 DUP3 ADD PUSH2 0x2FCD JUMP JUMPDEST SWAP1 PUSH2 0x2573 PUSH1 0x3 DUP3 ADD PUSH2 0x2FCD JUMP JUMPDEST PUSH2 0x257F PUSH1 0x4 DUP4 ADD PUSH2 0x2FCD JUMP JUMPDEST PUSH2 0x258B PUSH1 0x5 DUP5 ADD PUSH2 0x2FCD JUMP JUMPDEST PUSH2 0x2597 PUSH1 0x6 DUP6 ADD PUSH2 0x2FCD JUMP JUMPDEST SWAP1 PUSH2 0x25A4 PUSH1 0x7 DUP7 ADD PUSH2 0x2FCD JUMP JUMPDEST SWAP3 PUSH2 0x25B1 PUSH1 0x8 DUP8 ADD PUSH2 0x2FCD JUMP JUMPDEST PUSH1 0x9 DUP8 ADD SLOAD PUSH1 0x1 PUSH1 0x1 PUSH1 0xA0 SHL SUB AND SWAP7 SWAP1 SWAP6 SWAP1 PUSH2 0x25CF SWAP1 PUSH1 0xA ADD PUSH2 0x2FCD JUMP JUMPDEST SWAP8 PUSH1 0x40 MLOAD SWAP11 DUP12 SWAP11 DUP12 MSTORE PUSH2 0x160 DUP1 PUSH1 0x20 DUP14 ADD MSTORE DUP12 ADD PUSH2 0x25EC SWAP2 PUSH2 0x3073 JUMP JUMPDEST DUP11 DUP2 SUB PUSH1 0x40 DUP13 ADD MSTORE PUSH2 0x25FD SWAP2 PUSH2 0x3073 JUMP JUMPDEST DUP10 DUP2 SUB PUSH1 0x60 DUP12 ADD MSTORE PUSH2 0x260E SWAP2 PUSH2 0x3073 JUMP JUMPDEST DUP9 DUP2 SUB PUSH1 0x80 DUP11 ADD MSTORE PUSH2 0x261F SWAP2 PUSH2 0x3073 JUMP JUMPDEST DUP8 DUP2 SUB PUSH1 0xA0 DUP10 ADD MSTORE PUSH2 0x2630 SWAP2 PUSH2 0x3073 JUMP JUMPDEST DUP7 DUP2 SUB PUSH1 0xC0 DUP9 ADD MSTORE PUSH2 0x2641 SWAP2 PUSH2 0x3073 JUMP JUMPDEST DUP6 DUP2 SUB PUSH1 0xE0 DUP8 ADD MSTORE PUSH2 0x2652 SWAP2 PUSH2 0x3073 JUMP JUMPDEST DUP5 DUP2 SUB PUSH2 0x100 DUP7 ADD MSTORE PUSH2 0x2664 SWAP2 PUSH2 0x3073 JUMP JUMPDEST SWAP1 PUSH2 0x120 DUP5 ADD MSTORE DUP3 DUP2 SUB PUSH2 0x140 DUP5 ADD MSTORE PUSH2 0x2E1 SWAP2 PUSH2 0x3073 JUMP JUMPDEST CALLVALUE PUSH2 0x27C JUMPI PUSH1 0xE0 CALLDATASIZE PUSH1 0x3 NOT ADD SLT PUSH2 0x27C JUMPI PUSH1 0x1 PUSH1 0x1 PUSH1 0x40 SHL SUB PUSH1 0x4 CALLDATALOAD DUP2 DUP2 GT PUSH2 0x27C JUMPI PUSH2 0x26AE SWAP1 CALLDATASIZE SWAP1 PUSH1 0x4 ADD PUSH2 0x2F1E JUMP JUMPDEST PUSH1 0x24 SWAP2 DUP3 CALLDATALOAD DUP2 DUP2 GT PUSH2 0x27C JUMPI PUSH2 0x26C8 SWAP1 CALLDATASIZE SWAP1 PUSH1 0x4 ADD PUSH2 0x2F1E JUMP JUMPDEST SWAP1 PUSH1 0x44 CALLDATALOAD DUP2 DUP2 GT PUSH2 0x27C JUMPI PUSH2 0x26E1 SWAP1 CALLDATASIZE SWAP1 PUSH1 0x4 ADD PUSH2 0x2F1E JUMP JUMPDEST SWAP1 PUSH1 0x64 CALLDATALOAD DUP2 DUP2 GT PUSH2 0x27C JUMPI PUSH2 0x26FA SWAP1 CALLDATASIZE SWAP1 PUSH1 0x4 ADD PUSH2 0x2F1E JUMP JUMPDEST SWAP2 PUSH1 0x84 CALLDATALOAD DUP3 DUP2 GT PUSH2 0x27C JUMPI PUSH2 0x2713 SWAP1 CALLDATASIZE SWAP1 PUSH1 0x4 ADD PUSH2 0x2F1E JUMP JUMPDEST SWAP4 PUSH1 0xA4 CALLDATALOAD DUP4 DUP2 GT PUSH2 0x27C JUMPI PUSH2 0x272C SWAP1 CALLDATASIZE SWAP1 PUSH1 0x4 ADD PUSH2 0x2F1E JUMP JUMPDEST SWAP6 PUSH1 0xC4 CALLDATALOAD DUP5 DUP2 GT PUSH2 0x27C JUMPI PUSH2 0x2745 SWAP1 CALLDATASIZE SWAP1 PUSH1 0x4 ADD PUSH2 0x2F1E JUMP JUMPDEST SWAP5 PUSH2 0x2751 PUSH1 0x2 SLOAD PUSH2 0x3CC0 JUMP JUMPDEST SWAP8 DUP9 PUSH1 0x2 SSTORE PUSH1 0x40 MLOAD SWAP8 PUSH2 0x120 DUP10 ADD DUP10 DUP2 LT DUP9 DUP3 GT OR PUSH2 0x2AD9 JUMPI PUSH1 0x40 MSTORE CALLER DUP10 MSTORE PUSH1 0x20 SWAP3 DUP4 DUP11 ADD SWAP5 DUP6 MSTORE PUSH1 0x40 DUP11 ADD SWAP6 DUP7 MSTORE PUSH1 0x60 DUP11 ADD SWAP7 DUP8 MSTORE PUSH1 0x80 DUP11 ADD SWAP1 DUP2 MSTORE PUSH1 0xA0 DUP11 ADD SWAP2 DUP3 MSTORE PUSH1 0xC0 DUP11 ADD SWAP3 DUP4 MSTORE PUSH1 0xE0 DUP11 ADD SWAP9 DUP10 MSTORE PUSH2 0x100 DUP11 ADD SWAP11 PUSH1 0x0 DUP13 MSTORE PUSH1 0x0 MSTORE PUSH1 0x5 DUP5 MSTORE PUSH1 0x40 PUSH1 0x0 KECCAK256 SWAP10 PUSH1 0x1 DUP1 PUSH1 0xA0 SHL SUB SWAP1 MLOAD AND PUSH1 0x1 DUP1 PUSH1 0xA0 SHL SUB NOT DUP12 SLOAD AND OR DUP11 SSTORE PUSH1 0x1 SWAP6 DUP7 DUP12 ADD SWAP6 MLOAD SWAP6 DUP7 MLOAD DUP11 DUP2 GT PUSH2 0x2C5F JUMPI PUSH2 0x27F2 DUP2 PUSH2 0xE1F DUP5 SLOAD PUSH2 0x2F93 JUMP JUMPDEST DUP1 DUP8 PUSH1 0x1F SWAP10 DUP11 DUP4 GT PUSH1 0x1 EQ PUSH2 0x2CED JUMPI PUSH1 0x0 SWAP3 PUSH2 0x2CE2 JUMPI JUMPDEST POP POP PUSH1 0x0 NOT PUSH1 0x3 DUP4 SWAP1 SHL SHR NOT AND SWAP1 DUP10 SHL OR SWAP1 SSTORE JUMPDEST MLOAD DUP1 MLOAD PUSH1 0x2 DUP13 ADD SWAP2 DUP11 DUP3 GT PUSH2 0x2C5F JUMPI DUP2 SWAP1 PUSH2 0x283C DUP3 PUSH2 0xC6B DUP7 SLOAD PUSH2 0x2F93 JUMP JUMPDEST DUP8 SWAP1 DUP10 DUP4 GT PUSH1 0x1 EQ PUSH2 0x2C7F JUMPI PUSH1 0x0 SWAP3 PUSH2 0x2C74 JUMPI JUMPDEST POP POP PUSH1 0x0 NOT PUSH1 0x3 DUP4 SWAP1 SHL SHR NOT AND SWAP1 DUP9 SHL OR SWAP1 SSTORE JUMPDEST PUSH1 0x3 SWAP7 DUP8 DUP12 ADD SWAP1 MLOAD DUP1 MLOAD SWAP1 DUP11 DUP3 GT PUSH2 0x2C5F JUMPI DUP2 SWAP1 PUSH2 0x2886 DUP3 PUSH2 0xC6B DUP7 SLOAD PUSH2 0x2F93 JUMP JUMPDEST DUP8 SWAP1 DUP10 DUP4 GT PUSH1 0x1 EQ PUSH2 0x2BFD JUMPI PUSH1 0x0 SWAP3 PUSH2 0x2BF2 JUMPI JUMPDEST POP POP PUSH1 0x0 NOT DUP3 DUP12 SHL SHR NOT AND SWAP1 DUP9 SHL OR SWAP1 SSTORE JUMPDEST MLOAD DUP1 MLOAD PUSH1 0x4 DUP12 ADD SWAP2 DUP10 DUP3 GT PUSH2 0x2BDD JUMPI DUP2 SWAP1 PUSH2 0x28CB DUP3 PUSH2 0xC6B DUP7 SLOAD PUSH2 0x2F93 JUMP JUMPDEST DUP7 SWAP1 DUP9 DUP4 GT PUSH1 0x1 EQ PUSH2 0x2B7B JUMPI PUSH1 0x0 SWAP3 PUSH2 0x2B70 JUMPI JUMPDEST POP POP PUSH1 0x0 NOT DUP3 DUP11 SHL SHR NOT AND SWAP1 DUP8 SHL OR SWAP1 SSTORE JUMPDEST MLOAD DUP1 MLOAD PUSH1 0x5 DUP11 ADD SWAP2 DUP9 DUP3 GT PUSH2 0x2B5B JUMPI DUP2 SWAP1 PUSH2 0x2910 DUP3 PUSH2 0xC6B DUP7 SLOAD PUSH2 0x2F93 JUMP JUMPDEST DUP6 SWAP1 DUP8 DUP4 GT PUSH1 0x1 EQ PUSH2 0x2AF9 JUMPI PUSH1 0x0 SWAP3 PUSH2 0x2AEE JUMPI JUMPDEST POP POP PUSH1 0x0 NOT DUP3 DUP10 SHL SHR NOT AND SWAP1 DUP7 SHL OR SWAP1 SSTORE JUMPDEST MLOAD DUP1 MLOAD PUSH1 0x6 DUP10 ADD SWAP2 DUP8 DUP3 GT PUSH2 0x2AD9 JUMPI DUP2 SWAP1 PUSH2 0x2955 DUP3 PUSH2 0xC6B DUP7 SLOAD PUSH2 0x2F93 JUMP JUMPDEST DUP5 SWAP1 DUP7 DUP4 GT PUSH1 0x1 EQ PUSH2 0x2A77 JUMPI PUSH1 0x0 SWAP3 PUSH2 0x2A6C JUMPI JUMPDEST POP POP PUSH1 0x0 NOT DUP3 DUP9 SHL SHR NOT AND SWAP1 DUP6 SHL OR SWAP1 SSTORE JUMPDEST PUSH1 0x7 DUP8 ADD SWAP6 MLOAD SWAP9 DUP10 MLOAD SWAP6 DUP7 GT PUSH2 0x2A58 JUMPI POP PUSH2 0x29A0 DUP6 PUSH2 0x299A DUP9 SLOAD PUSH2 0x2F93 JUMP JUMPDEST DUP9 PUSH2 0x323D JUMP JUMPDEST DUP1 SWAP2 DUP6 GT PUSH1 0x1 EQ PUSH2 0x29EE JUMPI POP DUP4 SWAP3 SWAP2 DUP4 SWAP2 PUSH1 0x8 SWAP9 SWAP10 PUSH1 0x0 SWAP6 PUSH2 0x29E3 JUMPI JUMPDEST POP POP SHL SWAP3 PUSH1 0x0 NOT SWAP2 SHL SHR NOT AND OR SWAP1 SSTORE JUMPDEST ADD SWAP1 MLOAD ISZERO ISZERO PUSH1 0xFF DUP1 NOT DUP4 SLOAD AND SWAP2 AND OR SWAP1 SSTORE PUSH1 0x0 DUP1 RETURN JUMPDEST ADD MLOAD SWAP4 POP DUP10 DUP1 PUSH2 0x29BD JUMP JUMPDEST SWAP2 SWAP4 SWAP3 SWAP1 PUSH1 0x1F NOT DUP5 AND SWAP9 DUP7 PUSH1 0x0 MSTORE DUP4 PUSH1 0x0 KECCAK256 SWAP4 PUSH1 0x0 SWAP1 JUMPDEST DUP12 DUP3 LT PUSH2 0x2A41 JUMPI POP POP DUP5 PUSH1 0x8 SWAP10 SWAP11 LT PUSH2 0x2A27 JUMPI JUMPDEST POP POP POP POP DUP2 SHL ADD SWAP1 SSTORE PUSH2 0x29CD JUMP JUMPDEST ADD MLOAD SWAP1 PUSH1 0xF8 DUP5 PUSH1 0x0 NOT SWAP3 SHL AND SHR NOT AND SWAP1 SSTORE DUP7 DUP1 DUP1 DUP1 PUSH2 0x2A19 JUMP JUMPDEST DUP1 DUP9 DUP6 SWAP8 DUP3 SWAP5 SWAP7 DUP7 ADD MLOAD DUP2 SSTORE ADD SWAP7 ADD SWAP4 ADD SWAP1 PUSH2 0x2A05 JUMP JUMPDEST PUSH4 0x4E487B71 PUSH1 0xE0 SHL PUSH1 0x0 SWAP1 DUP2 MSTORE PUSH1 0x41 PUSH1 0x4 MSTORE REVERT JUMPDEST ADD MLOAD SWAP1 POP DUP13 DUP1 PUSH2 0x2969 JUMP JUMPDEST SWAP1 DUP8 SWAP4 POP PUSH1 0x1F NOT DUP4 AND SWAP2 DUP6 PUSH1 0x0 MSTORE DUP7 PUSH1 0x0 KECCAK256 SWAP3 PUSH1 0x0 JUMPDEST DUP9 DUP3 DUP3 LT PUSH2 0x2AC3 JUMPI POP POP DUP5 GT PUSH2 0x2AAB JUMPI JUMPDEST POP POP POP DUP2 SHL ADD SWAP1 SSTORE PUSH2 0x297B JUMP JUMPDEST ADD MLOAD PUSH1 0x0 NOT DUP4 DUP11 SHL PUSH1 0xF8 AND SHR NOT AND SWAP1 SSTORE DUP13 DUP1 DUP1 PUSH2 0x2A9E JUMP JUMPDEST DUP4 DUP6 ADD MLOAD DUP7 SSTORE DUP12 SWAP8 SWAP1 SWAP6 ADD SWAP5 SWAP4 DUP5 ADD SWAP4 ADD PUSH2 0x2A8D JUMP JUMPDEST DUP12 PUSH4 0x4E487B71 PUSH1 0xE0 SHL PUSH1 0x0 MSTORE PUSH1 0x41 PUSH1 0x4 MSTORE PUSH1 0x0 REVERT JUMPDEST ADD MLOAD SWAP1 POP DUP14 DUP1 PUSH2 0x2924 JUMP JUMPDEST SWAP1 DUP9 SWAP4 POP PUSH1 0x1F NOT DUP4 AND SWAP2 DUP6 PUSH1 0x0 MSTORE DUP8 PUSH1 0x0 KECCAK256 SWAP3 PUSH1 0x0 JUMPDEST DUP10 DUP3 DUP3 LT PUSH2 0x2B45 JUMPI POP POP DUP5 GT PUSH2 0x2B2D JUMPI JUMPDEST POP POP POP DUP2 SHL ADD SWAP1 SSTORE PUSH2 0x2936 JUMP JUMPDEST ADD MLOAD PUSH1 0x0 NOT DUP4 DUP12 SHL PUSH1 0xF8 AND SHR NOT AND SWAP1 SSTORE DUP14 DUP1 DUP1 PUSH2 0x2B20 JUMP JUMPDEST DUP4 DUP6 ADD MLOAD DUP7 SSTORE DUP13 SWAP8 SWAP1 SWAP6 ADD SWAP5 SWAP4 DUP5 ADD SWAP4 ADD PUSH2 0x2B0F JUMP JUMPDEST DUP13 PUSH4 0x4E487B71 PUSH1 0xE0 SHL PUSH1 0x0 MSTORE PUSH1 0x41 PUSH1 0x4 MSTORE PUSH1 0x0 REVERT JUMPDEST ADD MLOAD SWAP1 POP DUP15 DUP1 PUSH2 0x28DF JUMP JUMPDEST SWAP1 DUP10 SWAP4 POP PUSH1 0x1F NOT DUP4 AND SWAP2 DUP6 PUSH1 0x0 MSTORE DUP9 PUSH1 0x0 KECCAK256 SWAP3 PUSH1 0x0 JUMPDEST DUP11 DUP3 DUP3 LT PUSH2 0x2BC7 JUMPI POP POP DUP5 GT PUSH2 0x2BAF JUMPI JUMPDEST POP POP POP DUP2 SHL ADD SWAP1 SSTORE PUSH2 0x28F1 JUMP JUMPDEST ADD MLOAD PUSH1 0x0 NOT DUP4 DUP13 SHL PUSH1 0xF8 AND SHR NOT AND SWAP1 SSTORE DUP15 DUP1 DUP1 PUSH2 0x2BA2 JUMP JUMPDEST DUP4 DUP6 ADD MLOAD DUP7 SSTORE DUP14 SWAP8 SWAP1 SWAP6 ADD SWAP5 SWAP4 DUP5 ADD SWAP4 ADD PUSH2 0x2B91 JUMP JUMPDEST DUP14 PUSH4 0x4E487B71 PUSH1 0xE0 SHL PUSH1 0x0 MSTORE PUSH1 0x41 PUSH1 0x4 MSTORE PUSH1 0x0 REVERT JUMPDEST ADD MLOAD SWAP1 POP DUP16 DUP1 PUSH2 0x289A JUMP JUMPDEST SWAP1 DUP11 SWAP4 POP PUSH1 0x1F NOT DUP4 AND SWAP2 DUP6 PUSH1 0x0 MSTORE DUP10 PUSH1 0x0 KECCAK256 SWAP3 PUSH1 0x0 JUMPDEST DUP12 DUP3 DUP3 LT PUSH2 0x2C49 JUMPI POP POP DUP5 GT PUSH2 0x2C31 JUMPI JUMPDEST POP POP POP DUP2 SHL ADD SWAP1 SSTORE PUSH2 0x28AC JUMP JUMPDEST ADD MLOAD PUSH1 0x0 NOT DUP4 DUP14 SHL PUSH1 0xF8 AND SHR NOT AND SWAP1 SSTORE DUP16 DUP1 DUP1 PUSH2 0x2C24 JUMP JUMPDEST DUP4 DUP6 ADD MLOAD DUP7 SSTORE DUP15 SWAP8 SWAP1 SWAP6 ADD SWAP5 SWAP4 DUP5 ADD SWAP4 ADD PUSH2 0x2C13 JUMP JUMPDEST DUP15 PUSH4 0x4E487B71 PUSH1 0xE0 SHL PUSH1 0x0 MSTORE PUSH1 0x41 PUSH1 0x4 MSTORE PUSH1 0x0 REVERT JUMPDEST ADD MLOAD SWAP1 POP DUP16 DUP1 PUSH2 0x2850 JUMP JUMPDEST SWAP1 DUP11 SWAP4 POP PUSH1 0x1F NOT DUP4 AND SWAP2 DUP6 PUSH1 0x0 MSTORE DUP10 PUSH1 0x0 KECCAK256 SWAP3 PUSH1 0x0 JUMPDEST DUP12 DUP3 DUP3 LT PUSH2 0x2CCC JUMPI POP POP DUP5 GT PUSH2 0x2CB3 JUMPI JUMPDEST POP POP POP DUP2 SHL ADD SWAP1 SSTORE PUSH2 0x2864 JUMP JUMPDEST ADD MLOAD PUSH1 0x0 NOT PUSH1 0xF8 DUP5 PUSH1 0x3 SHL AND SHR NOT AND SWAP1 SSTORE DUP16 DUP1 DUP1 PUSH2 0x2CA6 JUMP JUMPDEST DUP4 DUP6 ADD MLOAD DUP7 SSTORE DUP15 SWAP8 SWAP1 SWAP6 ADD SWAP5 SWAP4 DUP5 ADD SWAP4 ADD PUSH2 0x2C95 JUMP JUMPDEST ADD MLOAD SWAP1 POP CODESIZE DUP1 PUSH2 0x2809 JUMP JUMPDEST SWAP1 DUP12 SWAP4 POP PUSH1 0x1F NOT DUP4 AND SWAP2 DUP6 PUSH1 0x0 MSTORE DUP11 PUSH1 0x0 KECCAK256 SWAP3 PUSH1 0x0 JUMPDEST DUP13 DUP3 DUP3 LT PUSH2 0x2D3A JUMPI POP POP DUP5 GT PUSH2 0x2D21 JUMPI JUMPDEST POP POP POP DUP2 SHL ADD SWAP1 SSTORE PUSH2 0x281D JUMP JUMPDEST ADD MLOAD PUSH1 0x0 NOT PUSH1 0xF8 DUP5 PUSH1 0x3 SHL AND SHR NOT AND SWAP1 SSTORE CODESIZE DUP1 DUP1 PUSH2 0x2D14 JUMP JUMPDEST DUP4 DUP6 ADD MLOAD DUP7 SSTORE DUP16 SWAP8 SWAP1 SWAP6 ADD SWAP5 SWAP4 DUP5 ADD SWAP4 ADD PUSH2 0x2D03 JUMP JUMPDEST CALLVALUE PUSH2 0x27C JUMPI PUSH1 0x20 CALLDATASIZE PUSH1 0x3 NOT ADD SLT PUSH2 0x27C JUMPI PUSH1 0x4 CALLDATALOAD PUSH1 0x0 MSTORE PUSH1 0x1 PUSH1 0x20 MSTORE PUSH1 0x20 PUSH1 0x40 PUSH1 0x0 KECCAK256 SLOAD PUSH1 0x40 MLOAD SWAP1 DUP2 MSTORE RETURN JUMPDEST CALLVALUE PUSH2 0x27C JUMPI PUSH2 0x100 CALLDATASIZE PUSH1 0x3 NOT ADD SLT PUSH2 0x27C JUMPI PUSH1 0x1 PUSH1 0x1 PUSH1 0xA0 SHL SUB PUSH1 0x4 CALLDATALOAD PUSH1 0x24 CALLDATALOAD DUP3 DUP2 AND DUP2 SUB PUSH2 0x27C JUMPI PUSH1 0x1 PUSH1 0x1 PUSH1 0x40 SHL SUB SWAP3 PUSH1 0x44 CALLDATALOAD DUP5 DUP2 GT PUSH2 0x27C JUMPI PUSH2 0x2DC6 SWAP1 CALLDATASIZE SWAP1 PUSH1 0x4 ADD PUSH2 0x2F1E JUMP JUMPDEST SWAP1 PUSH1 0x64 CALLDATALOAD DUP6 DUP2 GT PUSH2 0x27C JUMPI PUSH2 0x2DDF SWAP1 CALLDATASIZE SWAP1 PUSH1 0x4 ADD PUSH2 0x2F1E JUMP JUMPDEST SWAP1 PUSH1 0x84 CALLDATALOAD DUP7 DUP2 GT PUSH2 0x27C JUMPI PUSH2 0x2DF8 SWAP1 CALLDATASIZE SWAP1 PUSH1 0x4 ADD PUSH2 0x2F1E JUMP JUMPDEST SWAP2 PUSH1 0xA4 CALLDATALOAD DUP8 DUP2 GT PUSH2 0x27C JUMPI PUSH2 0x2E11 SWAP1 CALLDATASIZE SWAP1 PUSH1 0x4 ADD PUSH2 0x2F1E JUMP JUMPDEST SWAP2 PUSH1 0xC4 CALLDATALOAD DUP9 DUP2 GT PUSH2 0x27C JUMPI PUSH2 0x2E2A SWAP1 CALLDATASIZE SWAP1 PUSH1 0x4 ADD PUSH2 0x2F1E JUMP JUMPDEST SWAP2 PUSH1 0xE4 CALLDATALOAD SWAP9 DUP10 GT PUSH2 0x27C JUMPI PUSH2 0x2E64 PUSH2 0x2E49 PUSH2 0x24DC SWAP11 CALLDATASIZE SWAP1 PUSH1 0x4 ADD PUSH2 0x2F1E JUMP JUMPDEST SWAP3 DUP10 PUSH1 0x0 MSTORE PUSH1 0x0 PUSH1 0x20 MSTORE PUSH1 0x9 PUSH1 0x40 PUSH1 0x0 KECCAK256 ADD SLOAD AND CALLER EQ PUSH2 0x3B26 JUMP JUMPDEST DUP8 PUSH1 0x0 MSTORE PUSH1 0x0 PUSH1 0x20 MSTORE PUSH2 0x2E84 PUSH1 0xFF PUSH1 0x9 PUSH1 0x40 PUSH1 0x0 KECCAK256 ADD SLOAD PUSH1 0xA0 SHR AND PUSH2 0x3B7D JUMP JUMPDEST DUP8 PUSH1 0x0 MSTORE PUSH1 0x0 PUSH1 0x20 MSTORE PUSH2 0x2E9D PUSH1 0x7 PUSH1 0x40 PUSH1 0x0 KECCAK256 ADD PUSH2 0x2FCD JUMP JUMPDEST SWAP5 DUP9 PUSH1 0x0 MSTORE PUSH1 0x0 PUSH1 0x20 MSTORE PUSH2 0x2EB7 PUSH1 0x8 PUSH1 0x40 PUSH1 0x0 KECCAK256 ADD PUSH2 0x2FCD JUMP JUMPDEST SWAP7 PUSH2 0x2EC0 PUSH2 0x3BC2 JUMP JUMPDEST SWAP10 PUSH2 0x3282 JUMP JUMPDEST PUSH2 0x160 DUP2 ADD SWAP1 DUP2 LT PUSH1 0x1 PUSH1 0x1 PUSH1 0x40 SHL SUB DUP3 GT OR PUSH2 0xF12 JUMPI PUSH1 0x40 MSTORE JUMP JUMPDEST PUSH1 0x40 DUP2 ADD SWAP1 DUP2 LT PUSH1 0x1 PUSH1 0x1 PUSH1 0x40 SHL SUB DUP3 GT OR PUSH2 0xF12 JUMPI PUSH1 0x40 MSTORE JUMP JUMPDEST SWAP1 PUSH1 0x1F DUP1 NOT SWAP2 ADD AND DUP2 ADD SWAP1 DUP2 LT PUSH1 0x1 PUSH1 0x1 PUSH1 0x40 SHL SUB DUP3 GT OR PUSH2 0xF12 JUMPI PUSH1 0x40 MSTORE JUMP JUMPDEST DUP2 PUSH1 0x1F DUP3 ADD SLT ISZERO PUSH2 0x27C JUMPI DUP1 CALLDATALOAD SWAP1 PUSH1 0x1 PUSH1 0x1 PUSH1 0x40 SHL SUB DUP3 GT PUSH2 0xF12 JUMPI PUSH1 0x40 MLOAD SWAP3 PUSH2 0x2F52 PUSH1 0x1F DUP5 ADD PUSH1 0x1F NOT AND PUSH1 0x20 ADD DUP6 PUSH2 0x2EFD JUMP JUMPDEST DUP3 DUP5 MSTORE PUSH1 0x20 DUP4 DUP4 ADD ADD GT PUSH2 0x27C JUMPI DUP2 PUSH1 0x0 SWAP3 PUSH1 0x20 DUP1 SWAP4 ADD DUP4 DUP7 ADD CALLDATACOPY DUP4 ADD ADD MSTORE SWAP1 JUMP JUMPDEST PUSH1 0x4 SLOAD DUP2 LT ISZERO PUSH2 0x22BD JUMPI PUSH1 0x4 PUSH1 0x0 MSTORE PUSH1 0xB PUSH1 0x20 PUSH1 0x0 KECCAK256 SWAP2 MUL ADD SWAP1 PUSH1 0x0 SWAP1 JUMP JUMPDEST SWAP1 PUSH1 0x1 DUP3 DUP2 SHR SWAP3 AND DUP1 ISZERO PUSH2 0x2FC3 JUMPI JUMPDEST PUSH1 0x20 DUP4 LT EQ PUSH2 0x2FAD JUMPI JUMP JUMPDEST PUSH4 0x4E487B71 PUSH1 0xE0 SHL PUSH1 0x0 MSTORE PUSH1 0x22 PUSH1 0x4 MSTORE PUSH1 0x24 PUSH1 0x0 REVERT JUMPDEST SWAP2 PUSH1 0x7F AND SWAP2 PUSH2 0x2FA2 JUMP JUMPDEST SWAP1 PUSH1 0x40 MLOAD SWAP2 DUP3 PUSH1 0x0 DUP3 SLOAD SWAP3 PUSH2 0x2FE1 DUP5 PUSH2 0x2F93 JUMP JUMPDEST SWAP1 DUP2 DUP5 MSTORE PUSH1 0x1 SWAP5 DUP6 DUP2 AND SWAP1 DUP2 PUSH1 0x0 EQ PUSH2 0x3050 JUMPI POP PUSH1 0x1 EQ PUSH2 0x300D JUMPI JUMPDEST POP POP PUSH2 0x300B SWAP3 POP SUB DUP4 PUSH2 0x2EFD JUMP JUMPDEST JUMP JUMPDEST SWAP1 SWAP4 SWAP2 POP PUSH1 0x0 MSTORE PUSH1 0x20 SWAP1 DUP2 PUSH1 0x0 KECCAK256 SWAP4 PUSH1 0x0 SWAP2 JUMPDEST DUP2 DUP4 LT PUSH2 0x3038 JUMPI POP POP PUSH2 0x300B SWAP4 POP DUP3 ADD ADD CODESIZE DUP1 PUSH2 0x2FFD JUMP JUMPDEST DUP6 SLOAD DUP9 DUP5 ADD DUP6 ADD MSTORE SWAP5 DUP6 ADD SWAP5 DUP8 SWAP5 POP SWAP2 DUP4 ADD SWAP2 PUSH2 0x3020 JUMP JUMPDEST SWAP2 POP POP PUSH2 0x300B SWAP5 POP PUSH1 0x20 SWAP3 POP PUSH1 0xFF NOT AND DUP3 DUP5 ADD MSTORE ISZERO ISZERO PUSH1 0x5 SHL DUP3 ADD ADD CODESIZE DUP1 PUSH2 0x2FFD JUMP JUMPDEST SWAP2 SWAP1 DUP3 MLOAD SWAP3 DUP4 DUP3 MSTORE PUSH1 0x0 JUMPDEST DUP5 DUP2 LT PUSH2 0x309F JUMPI POP POP DUP3 PUSH1 0x0 PUSH1 0x20 DUP1 SWAP5 SWAP6 DUP5 ADD ADD MSTORE PUSH1 0x1F DUP1 NOT SWAP2 ADD AND ADD ADD SWAP1 JUMP JUMPDEST PUSH1 0x20 DUP2 DUP4 ADD DUP2 ADD MLOAD DUP5 DUP4 ADD DUP3 ADD MSTORE ADD PUSH2 0x307E JUMP JUMPDEST PUSH1 0x20 DUP1 DUP3 ADD SWAP1 DUP1 DUP4 MSTORE DUP4 MLOAD DUP1 SWAP3 MSTORE PUSH1 0x40 SWAP3 DUP4 DUP2 ADD DUP3 DUP6 DUP6 PUSH1 0x5 SHL DUP5 ADD ADD SWAP7 ADD SWAP5 PUSH1 0x0 SWAP3 JUMPDEST DUP6 DUP5 LT PUSH2 0x30E8 JUMPI POP POP POP POP POP POP POP SWAP1 JUMP JUMPDEST SWAP1 SWAP2 SWAP3 SWAP4 SWAP5 SWAP6 SWAP7 DUP6 DUP1 PUSH1 0x1 SWAP3 PUSH1 0x3F NOT DUP6 DUP3 SUB ADD DUP8 MSTORE DUP11 MLOAD SWAP1 DUP2 MLOAD DUP2 MSTORE PUSH2 0x31B7 PUSH2 0x31A3 PUSH2 0x3190 PUSH2 0x317D PUSH2 0x316A PUSH2 0x3157 PUSH2 0x3144 DUP14 PUSH2 0x3132 DUP12 DUP12 ADD MLOAD DUP13 PUSH2 0x160 DUP1 SWAP2 DUP14 ADD MSTORE DUP12 ADD SWAP1 PUSH2 0x3073 JUMP JUMPDEST SWAP1 DUP1 DUP12 ADD MLOAD SWAP1 DUP11 DUP4 SUB SWAP1 DUP12 ADD MSTORE PUSH2 0x3073 JUMP JUMPDEST PUSH1 0x60 DUP1 DUP11 ADD MLOAD SWAP1 DUP10 DUP4 SUB SWAP1 DUP11 ADD MSTORE PUSH2 0x3073 JUMP JUMPDEST PUSH1 0x80 DUP1 DUP10 ADD MLOAD SWAP1 DUP9 DUP4 SUB SWAP1 DUP10 ADD MSTORE PUSH2 0x3073 JUMP JUMPDEST PUSH1 0xA0 DUP1 DUP9 ADD MLOAD SWAP1 DUP8 DUP4 SUB SWAP1 DUP9 ADD MSTORE PUSH2 0x3073 JUMP JUMPDEST PUSH1 0xC0 DUP1 DUP8 ADD MLOAD SWAP1 DUP7 DUP4 SUB SWAP1 DUP8 ADD MSTORE PUSH2 0x3073 JUMP JUMPDEST PUSH1 0xE0 DUP1 DUP7 ADD MLOAD SWAP1 DUP6 DUP4 SUB SWAP1 DUP7 ADD MSTORE PUSH2 0x3073 JUMP JUMPDEST PUSH2 0x100 DUP1 DUP6 ADD MLOAD SWAP1 DUP5 DUP4 SUB SWAP1 DUP6 ADD MSTORE PUSH2 0x3073 JUMP JUMPDEST SWAP2 PUSH2 0x120 DUP7 DUP1 PUSH1 0xA0 SHL SUB DUP2 DUP4 ADD MLOAD AND SWAP1 DUP4 ADD MSTORE PUSH2 0x140 DUP1 SWAP2 ADD MLOAD ISZERO ISZERO SWAP2 ADD MSTORE SWAP10 ADD SWAP5 ADD SWAP5 ADD SWAP3 SWAP6 SWAP5 SWAP4 SWAP2 SWAP1 PUSH2 0x30D7 JUMP JUMPDEST PUSH1 0x3 SLOAD DUP2 LT ISZERO PUSH2 0x22BD JUMPI PUSH1 0x3 PUSH1 0x0 MSTORE PUSH1 0x20 PUSH1 0x0 KECCAK256 ADD SWAP1 PUSH1 0x0 SWAP1 JUMP JUMPDEST PUSH1 0x40 MLOAD SWAP1 PUSH2 0x320F DUP3 PUSH2 0x2EE2 JUMP JUMPDEST PUSH1 0x8 DUP3 MSTORE PUSH8 0x3932B3B4B9BA32B9 PUSH1 0xC1 SHL PUSH1 0x20 DUP4 ADD MSTORE JUMP JUMPDEST DUP2 DUP2 LT PUSH2 0x3231 JUMPI POP POP JUMP JUMPDEST PUSH1 0x0 DUP2 SSTORE PUSH1 0x1 ADD PUSH2 0x3226 JUMP JUMPDEST SWAP2 SWAP1 PUSH1 0x1F DUP2 GT PUSH2 0x324C JUMPI POP POP POP JUMP JUMPDEST PUSH2 0x300B SWAP3 PUSH1 0x0 MSTORE PUSH1 0x20 PUSH1 0x0 KECCAK256 SWAP1 PUSH1 0x20 PUSH1 0x1F DUP5 ADD PUSH1 0x5 SHR DUP4 ADD SWAP4 LT PUSH2 0x3278 JUMPI JUMPDEST PUSH1 0x1F ADD PUSH1 0x5 SHR ADD SWAP1 PUSH2 0x3226 JUMP JUMPDEST SWAP1 SWAP2 POP DUP2 SWAP1 PUSH2 0x326B JUMP JUMPDEST SWAP9 SWAP8 SWAP5 SWAP2 SWAP7 SWAP4 SWAP1 SWAP6 SWAP3 PUSH1 0x40 MLOAD SWAP8 PUSH2 0x3298 DUP10 PUSH2 0x2EC6 JUMP JUMPDEST DUP11 DUP10 MSTORE PUSH1 0x20 DUP10 ADD SWAP8 DUP9 MSTORE PUSH1 0x40 DUP10 ADD MSTORE PUSH1 0x60 DUP9 ADD MSTORE PUSH1 0x80 DUP8 ADD MSTORE PUSH1 0xA0 DUP7 ADD MSTORE PUSH1 0xC0 DUP6 ADD MSTORE PUSH1 0xE0 DUP5 ADD MSTORE PUSH2 0x100 DUP4 ADD MSTORE PUSH1 0x1 PUSH1 0x1 PUSH1 0xA0 SHL SUB DUP4 AND PUSH2 0x120 DUP4 ADD MSTORE PUSH2 0x140 DUP3 ADD DUP6 SWAP1 MSTORE PUSH1 0x4 SLOAD PUSH1 0x1 PUSH1 0x40 SHL DUP2 LT ISZERO PUSH2 0xF12 JUMPI DUP1 PUSH1 0x1 PUSH2 0x32FD SWAP3 ADD PUSH1 0x4 SSTORE PUSH2 0x2F74 JUMP JUMPDEST SWAP2 SWAP1 SWAP2 PUSH2 0x17B7 JUMPI DUP3 MLOAD DUP3 SSTORE MLOAD DUP1 MLOAD SWAP1 PUSH1 0x1 PUSH1 0x1 PUSH1 0x40 SHL SUB DUP3 GT PUSH2 0xF12 JUMPI DUP2 SWAP1 PUSH2 0x332D DUP3 PUSH2 0x1349 PUSH1 0x1 DUP8 ADD SLOAD PUSH2 0x2F93 JUMP JUMPDEST PUSH1 0x20 SWAP1 PUSH1 0x1F DUP4 GT PUSH1 0x1 EQ PUSH2 0x3AB4 JUMPI PUSH1 0x0 SWAP3 PUSH2 0x3AA9 JUMPI JUMPDEST POP POP DUP2 PUSH1 0x1 SHL SWAP2 PUSH1 0x0 NOT SWAP1 PUSH1 0x3 SHL SHR NOT AND OR PUSH1 0x1 DUP3 ADD SSTORE JUMPDEST PUSH1 0x40 DUP3 ADD MLOAD DUP1 MLOAD SWAP1 PUSH1 0x1 PUSH1 0x1 PUSH1 0x40 SHL SUB DUP3 GT PUSH2 0xF12 JUMPI DUP2 SWAP1 PUSH2 0x338D DUP3 PUSH2 0x3384 PUSH1 0x2 DUP8 ADD SLOAD PUSH2 0x2F93 JUMP JUMPDEST PUSH1 0x2 DUP8 ADD PUSH2 0x323D JUMP JUMPDEST PUSH1 0x20 SWAP1 PUSH1 0x1F DUP4 GT PUSH1 0x1 EQ PUSH2 0x3A37 JUMPI PUSH1 0x0 SWAP3 PUSH2 0x3A2C JUMPI JUMPDEST POP POP DUP2 PUSH1 0x1 SHL SWAP2 PUSH1 0x0 NOT SWAP1 PUSH1 0x3 SHL SHR NOT AND OR PUSH1 0x2 DUP3 ADD SSTORE JUMPDEST PUSH1 0x60 DUP3 ADD MLOAD DUP1 MLOAD SWAP1 PUSH1 0x1 PUSH1 0x1 PUSH1 0x40 SHL SUB DUP3 GT PUSH2 0xF12 JUMPI DUP2 SWAP1 PUSH2 0x33ED DUP3 PUSH2 0x33E4 PUSH1 0x3 DUP8 ADD SLOAD PUSH2 0x2F93 JUMP JUMPDEST PUSH1 0x3 DUP8 ADD PUSH2 0x323D JUMP JUMPDEST PUSH1 0x20 SWAP1 PUSH1 0x1F DUP4 GT PUSH1 0x1 EQ PUSH2 0x39BA JUMPI PUSH1 0x0 SWAP3 PUSH2 0x39AF JUMPI JUMPDEST POP POP DUP2 PUSH1 0x1 SHL SWAP2 PUSH1 0x0 NOT SWAP1 PUSH1 0x3 SHL SHR NOT AND OR PUSH1 0x3 DUP3 ADD SSTORE JUMPDEST PUSH1 0x80 DUP3 ADD MLOAD DUP1 MLOAD SWAP1 PUSH1 0x1 PUSH1 0x1 PUSH1 0x40 SHL SUB DUP3 GT PUSH2 0xF12 JUMPI DUP2 SWAP1 PUSH2 0x3444 DUP3 PUSH2 0x146F PUSH1 0x4 DUP8 ADD SLOAD PUSH2 0x2F93 JUMP JUMPDEST PUSH1 0x20 SWAP1 PUSH1 0x1F DUP4 GT PUSH1 0x1 EQ PUSH2 0x393D JUMPI PUSH1 0x0 SWAP3 PUSH2 0x3932 JUMPI JUMPDEST POP POP DUP2 PUSH1 0x1 SHL SWAP2 PUSH1 0x0 NOT SWAP1 PUSH1 0x3 SHL SHR NOT AND OR PUSH1 0x4 DUP3 ADD SSTORE JUMPDEST PUSH1 0xA0 DUP3 ADD MLOAD DUP1 MLOAD SWAP1 PUSH1 0x1 PUSH1 0x1 PUSH1 0x40 SHL SUB DUP3 GT PUSH2 0xF12 JUMPI DUP2 SWAP1 PUSH2 0x34A4 DUP3 PUSH2 0x349B PUSH1 0x5 DUP8 ADD SLOAD PUSH2 0x2F93 JUMP JUMPDEST PUSH1 0x5 DUP8 ADD PUSH2 0x323D JUMP JUMPDEST PUSH1 0x20 SWAP1 PUSH1 0x1F DUP4 GT PUSH1 0x1 EQ PUSH2 0x38C0 JUMPI PUSH1 0x0 SWAP3 PUSH2 0x38B5 JUMPI JUMPDEST POP POP DUP2 PUSH1 0x1 SHL SWAP2 PUSH1 0x0 NOT SWAP1 PUSH1 0x3 SHL SHR NOT AND OR PUSH1 0x5 DUP3 ADD SSTORE JUMPDEST PUSH1 0xC0 DUP3 ADD MLOAD DUP1 MLOAD SWAP1 PUSH1 0x1 PUSH1 0x1 PUSH1 0x40 SHL SUB DUP3 GT PUSH2 0xF12 JUMPI DUP2 SWAP1 PUSH2 0x3504 DUP3 PUSH2 0x34FB PUSH1 0x6 DUP8 ADD SLOAD PUSH2 0x2F93 JUMP JUMPDEST PUSH1 0x6 DUP8 ADD PUSH2 0x323D JUMP JUMPDEST PUSH1 0x20 SWAP1 PUSH1 0x1F DUP4 GT PUSH1 0x1 EQ PUSH2 0x3843 JUMPI PUSH1 0x0 SWAP3 PUSH2 0x3838 JUMPI JUMPDEST POP POP DUP2 PUSH1 0x1 SHL SWAP2 PUSH1 0x0 NOT SWAP1 PUSH1 0x3 SHL SHR NOT AND OR PUSH1 0x6 DUP3 ADD SSTORE JUMPDEST PUSH1 0xE0 DUP3 ADD MLOAD DUP1 MLOAD SWAP1 PUSH1 0x1 PUSH1 0x1 PUSH1 0x40 SHL SUB DUP3 GT PUSH2 0xF12 JUMPI DUP2 SWAP1 PUSH2 0x355B DUP3 PUSH2 0x1595 PUSH1 0x7 DUP8 ADD SLOAD PUSH2 0x2F93 JUMP JUMPDEST PUSH1 0x20 SWAP1 PUSH1 0x1F DUP4 GT PUSH1 0x1 EQ PUSH2 0x37C6 JUMPI PUSH1 0x0 SWAP3 PUSH2 0x37BB JUMPI JUMPDEST POP POP DUP2 PUSH1 0x1 SHL SWAP2 PUSH1 0x0 NOT SWAP1 PUSH1 0x3 SHL SHR NOT AND OR PUSH1 0x7 DUP3 ADD SSTORE JUMPDEST PUSH2 0x100 DUP3 ADD MLOAD DUP1 MLOAD PUSH1 0x1 PUSH1 0x1 PUSH1 0x40 SHL SUB DUP2 GT PUSH2 0xF12 JUMPI PUSH1 0x8 DUP4 ADD SWAP2 PUSH2 0x35B8 DUP3 PUSH2 0x35B2 DUP6 SLOAD PUSH2 0x2F93 JUMP JUMPDEST DUP6 PUSH2 0x323D JUMP JUMPDEST PUSH1 0x20 SWAP1 PUSH1 0x1F DUP4 GT PUSH1 0x1 EQ PUSH2 0x374C JUMPI SWAP2 DUP1 PUSH1 0xA SWAP5 SWAP3 PUSH2 0x140 SWAP7 SWAP5 PUSH1 0x0 SWAP3 PUSH2 0x3741 JUMPI JUMPDEST POP POP DUP2 PUSH1 0x1 SHL SWAP2 PUSH1 0x0 NOT SWAP1 PUSH1 0x3 SHL SHR NOT AND OR SWAP1 SSTORE JUMPDEST PUSH1 0x9 DUP2 ADD PUSH1 0x1 DUP1 PUSH1 0xA0 SHL SUB PUSH2 0x120 DUP7 ADD MLOAD AND PUSH1 0x1 DUP1 PUSH1 0xA0 SHL SUB NOT DUP3 SLOAD AND OR SWAP1 SSTORE ADD SWAP2 ADD MLOAD DUP1 MLOAD SWAP1 PUSH1 0x1 PUSH1 0x1 PUSH1 0x40 SHL SUB DUP3 GT PUSH2 0xF12 JUMPI PUSH2 0x3631 DUP3 PUSH2 0x35B2 DUP6 SLOAD PUSH2 0x2F93 JUMP JUMPDEST PUSH1 0x20 SWAP1 PUSH1 0x1F DUP4 GT PUSH1 0x1 EQ PUSH2 0x36B3 JUMPI SWAP2 DUP1 PUSH2 0x36A3 SWAP5 SWAP3 PUSH32 0x90B328F02ED250FF4BF17CAFCBD924782F15C92B3A87A4082E92AE216E1822C2 SWAP7 SWAP5 PUSH1 0x0 SWAP3 PUSH2 0x36A8 JUMPI JUMPDEST POP POP DUP2 PUSH1 0x1 SHL SWAP2 PUSH1 0x0 NOT SWAP1 PUSH1 0x3 SHL SHR NOT AND OR SWAP1 SSTORE JUMPDEST PUSH1 0x40 MLOAD SWAP2 DUP3 SWAP2 PUSH1 0x20 DUP4 MSTORE PUSH1 0x1 DUP1 PUSH1 0xA0 SHL SUB AND SWAP6 PUSH1 0x20 DUP4 ADD SWAP1 PUSH2 0x3073 JUMP JUMPDEST SUB SWAP1 LOG3 JUMP JUMPDEST ADD MLOAD SWAP1 POP CODESIZE DUP1 PUSH2 0x3671 JUMP JUMPDEST SWAP1 PUSH1 0x1F NOT DUP4 AND SWAP2 DUP5 PUSH1 0x0 MSTORE PUSH1 0x20 PUSH1 0x0 KECCAK256 SWAP3 PUSH1 0x0 JUMPDEST DUP2 DUP2 LT PUSH2 0x3729 JUMPI POP SWAP3 PUSH1 0x1 SWAP3 DUP6 SWAP3 PUSH32 0x90B328F02ED250FF4BF17CAFCBD924782F15C92B3A87A4082E92AE216E1822C2 SWAP9 SWAP7 PUSH2 0x36A3 SWAP9 SWAP7 LT PUSH2 0x3710 JUMPI JUMPDEST POP POP POP DUP2 SHL ADD SWAP1 SSTORE PUSH2 0x3686 JUMP JUMPDEST ADD MLOAD PUSH1 0x0 NOT PUSH1 0xF8 DUP5 PUSH1 0x3 SHL AND SHR NOT AND SWAP1 SSTORE CODESIZE DUP1 DUP1 PUSH2 0x3703 JUMP JUMPDEST SWAP3 SWAP4 PUSH1 0x20 PUSH1 0x1 DUP2 SWAP3 DUP8 DUP7 ADD MLOAD DUP2 SSTORE ADD SWAP6 ADD SWAP4 ADD PUSH2 0x36C7 JUMP JUMPDEST ADD MLOAD SWAP1 POP CODESIZE DUP1 PUSH2 0x35D9 JUMP JUMPDEST SWAP1 PUSH1 0x1F NOT DUP4 AND SWAP2 DUP5 PUSH1 0x0 MSTORE PUSH1 0x20 PUSH1 0x0 KECCAK256 SWAP3 PUSH1 0x0 JUMPDEST DUP2 DUP2 LT PUSH2 0x37A3 JUMPI POP SWAP3 PUSH1 0x1 SWAP3 DUP6 SWAP3 PUSH2 0x140 SWAP9 SWAP7 PUSH1 0xA SWAP9 SWAP7 LT PUSH2 0x378A JUMPI JUMPDEST POP POP POP DUP2 SHL ADD SWAP1 SSTORE PUSH2 0x35EE JUMP JUMPDEST ADD MLOAD PUSH1 0x0 NOT PUSH1 0xF8 DUP5 PUSH1 0x3 SHL AND SHR NOT AND SWAP1 SSTORE CODESIZE DUP1 DUP1 PUSH2 0x377D JUMP JUMPDEST SWAP3 SWAP4 PUSH1 0x20 PUSH1 0x1 DUP2 SWAP3 DUP8 DUP7 ADD MLOAD DUP2 SSTORE ADD SWAP6 ADD SWAP4 ADD PUSH2 0x3760 JUMP JUMPDEST ADD MLOAD SWAP1 POP CODESIZE DUP1 PUSH2 0x3571 JUMP JUMPDEST SWAP3 POP PUSH1 0x7 DUP5 ADD PUSH1 0x0 MSTORE PUSH1 0x20 PUSH1 0x0 KECCAK256 SWAP1 PUSH1 0x0 SWAP4 JUMPDEST PUSH1 0x1F NOT DUP5 AND DUP6 LT PUSH2 0x381D JUMPI PUSH1 0x1 SWAP5 POP DUP4 PUSH1 0x1F NOT DUP2 AND LT PUSH2 0x3804 JUMPI JUMPDEST POP POP POP DUP2 SHL ADD PUSH1 0x7 DUP3 ADD SSTORE PUSH2 0x3589 JUMP JUMPDEST ADD MLOAD PUSH1 0x0 NOT PUSH1 0xF8 DUP5 PUSH1 0x3 SHL AND SHR NOT AND SWAP1 SSTORE CODESIZE DUP1 DUP1 PUSH2 0x37F4 JUMP JUMPDEST DUP2 DUP2 ADD MLOAD DUP4 SSTORE PUSH1 0x20 SWAP5 DUP6 ADD SWAP5 PUSH1 0x1 SWAP1 SWAP4 ADD SWAP3 SWAP1 SWAP2 ADD SWAP1 PUSH2 0x37D9 JUMP JUMPDEST ADD MLOAD SWAP1 POP CODESIZE DUP1 PUSH2 0x351A JUMP JUMPDEST SWAP3 POP PUSH1 0x6 DUP5 ADD PUSH1 0x0 MSTORE PUSH1 0x20 PUSH1 0x0 KECCAK256 SWAP1 PUSH1 0x0 SWAP4 JUMPDEST PUSH1 0x1F NOT DUP5 AND DUP6 LT PUSH2 0x389A JUMPI PUSH1 0x1 SWAP5 POP DUP4 PUSH1 0x1F NOT DUP2 AND LT PUSH2 0x3881 JUMPI JUMPDEST POP POP POP DUP2 SHL ADD PUSH1 0x6 DUP3 ADD SSTORE PUSH2 0x3532 JUMP JUMPDEST ADD MLOAD PUSH1 0x0 NOT PUSH1 0xF8 DUP5 PUSH1 0x3 SHL AND SHR NOT AND SWAP1 SSTORE CODESIZE DUP1 DUP1 PUSH2 0x3871 JUMP JUMPDEST DUP2 DUP2 ADD MLOAD DUP4 SSTORE PUSH1 0x20 SWAP5 DUP6 ADD SWAP5 PUSH1 0x1 SWAP1 SWAP4 ADD SWAP3 SWAP1 SWAP2 ADD SWAP1 PUSH2 0x3856 JUMP JUMPDEST ADD MLOAD SWAP1 POP CODESIZE DUP1 PUSH2 0x34BA JUMP JUMPDEST SWAP3 POP PUSH1 0x5 DUP5 ADD PUSH1 0x0 MSTORE PUSH1 0x20 PUSH1 0x0 KECCAK256 SWAP1 PUSH1 0x0 SWAP4 JUMPDEST PUSH1 0x1F NOT DUP5 AND DUP6 LT PUSH2 0x3917 JUMPI PUSH1 0x1 SWAP5 POP DUP4 PUSH1 0x1F NOT DUP2 AND LT PUSH2 0x38FE JUMPI JUMPDEST POP POP POP DUP2 SHL ADD PUSH1 0x5 DUP3 ADD SSTORE PUSH2 0x34D2 JUMP JUMPDEST ADD MLOAD PUSH1 0x0 NOT PUSH1 0xF8 DUP5 PUSH1 0x3 SHL AND SHR NOT AND SWAP1 SSTORE CODESIZE DUP1 DUP1 PUSH2 0x38EE JUMP JUMPDEST DUP2 DUP2 ADD MLOAD DUP4 SSTORE PUSH1 0x20 SWAP5 DUP6 ADD SWAP5 PUSH1 0x1 SWAP1 SWAP4 ADD SWAP3 SWAP1 SWAP2 ADD SWAP1 PUSH2 0x38D3 JUMP JUMPDEST ADD MLOAD SWAP1 POP CODESIZE DUP1 PUSH2 0x345A JUMP JUMPDEST SWAP3 POP PUSH1 0x4 DUP5 ADD PUSH1 0x0 MSTORE PUSH1 0x20 PUSH1 0x0 KECCAK256 SWAP1 PUSH1 0x0 SWAP4 JUMPDEST PUSH1 0x1F NOT DUP5 AND DUP6 LT PUSH2 0x3994 JUMPI PUSH1 0x1 SWAP5 POP DUP4 PUSH1 0x1F NOT DUP2 AND LT PUSH2 0x397B JUMPI JUMPDEST POP POP POP DUP2 SHL ADD PUSH1 0x4 DUP3 ADD SSTORE PUSH2 0x3472 JUMP JUMPDEST ADD MLOAD PUSH1 0x0 NOT PUSH1 0xF8 DUP5 PUSH1 0x3 SHL AND SHR NOT AND SWAP1 SSTORE CODESIZE DUP1 DUP1 PUSH2 0x396B JUMP JUMPDEST DUP2 DUP2 ADD MLOAD DUP4 SSTORE PUSH1 0x20 SWAP5 DUP6 ADD SWAP5 PUSH1 0x1 SWAP1 SWAP4 ADD SWAP3 SWAP1 SWAP2 ADD SWAP1 PUSH2 0x3950 JUMP JUMPDEST ADD MLOAD SWAP1 POP CODESIZE DUP1 PUSH2 0x3403 JUMP JUMPDEST SWAP3 POP PUSH1 0x3 DUP5 ADD PUSH1 0x0 MSTORE PUSH1 0x20 PUSH1 0x0 KECCAK256 SWAP1 PUSH1 0x0 SWAP4 JUMPDEST PUSH1 0x1F NOT DUP5 AND DUP6 LT PUSH2 0x3A11 JUMPI PUSH1 0x1 SWAP5 POP DUP4 PUSH1 0x1F NOT DUP2 AND LT PUSH2 0x39F8 JUMPI JUMPDEST POP POP POP DUP2 SHL ADD PUSH1 0x3 DUP3 ADD SSTORE PUSH2 0x341B JUMP JUMPDEST ADD MLOAD PUSH1 0x0 NOT PUSH1 0xF8 DUP5 PUSH1 0x3 SHL AND SHR NOT AND SWAP1 SSTORE CODESIZE DUP1 DUP1 PUSH2 0x39E8 JUMP JUMPDEST DUP2 DUP2 ADD MLOAD DUP4 SSTORE PUSH1 0x20 SWAP5 DUP6 ADD SWAP5 PUSH1 0x1 SWAP1 SWAP4 ADD SWAP3 SWAP1 SWAP2 ADD SWAP1 PUSH2 0x39CD JUMP JUMPDEST ADD MLOAD SWAP1 POP CODESIZE DUP1 PUSH2 0x33A3 JUMP JUMPDEST SWAP3 POP PUSH1 0x2 DUP5 ADD PUSH1 0x0 MSTORE PUSH1 0x20 PUSH1 0x0 KECCAK256 SWAP1 PUSH1 0x0 SWAP4 JUMPDEST PUSH1 0x1F NOT DUP5 AND DUP6 LT PUSH2 0x3A8E JUMPI PUSH1 0x1 SWAP5 POP DUP4 PUSH1 0x1F NOT DUP2 AND LT PUSH2 0x3A75 JUMPI JUMPDEST POP POP POP DUP2 SHL ADD PUSH1 0x2 DUP3 ADD SSTORE PUSH2 0x33BB JUMP JUMPDEST ADD MLOAD PUSH1 0x0 NOT PUSH1 0xF8 DUP5 PUSH1 0x3 SHL AND SHR NOT AND SWAP1 SSTORE CODESIZE DUP1 DUP1 PUSH2 0x3A65 JUMP JUMPDEST DUP2 DUP2 ADD MLOAD DUP4 SSTORE PUSH1 0x20 SWAP5 DUP6 ADD SWAP5 PUSH1 0x1 SWAP1 SWAP4 ADD SWAP3 SWAP1 SWAP2 ADD SWAP1 PUSH2 0x3A4A JUMP JUMPDEST ADD MLOAD SWAP1 POP CODESIZE DUP1 PUSH2 0x3343 JUMP JUMPDEST SWAP3 POP PUSH1 0x1 DUP5 ADD PUSH1 0x0 MSTORE PUSH1 0x20 PUSH1 0x0 KECCAK256 SWAP1 PUSH1 0x0 SWAP4 JUMPDEST PUSH1 0x1F NOT DUP5 AND DUP6 LT PUSH2 0x3B0B JUMPI PUSH1 0x1 SWAP5 POP DUP4 PUSH1 0x1F NOT DUP2 AND LT PUSH2 0x3AF2 JUMPI JUMPDEST POP POP POP DUP2 SHL ADD PUSH1 0x1 DUP3 ADD SSTORE PUSH2 0x335B JUMP JUMPDEST ADD MLOAD PUSH1 0x0 NOT PUSH1 0xF8 DUP5 PUSH1 0x3 SHL AND SHR NOT AND SWAP1 SSTORE CODESIZE DUP1 DUP1 PUSH2 0x3AE2 JUMP JUMPDEST DUP2 DUP2 ADD MLOAD DUP4 SSTORE PUSH1 0x20 SWAP5 DUP6 ADD SWAP5 PUSH1 0x1 SWAP1 SWAP4 ADD SWAP3 SWAP1 SWAP2 ADD SWAP1 PUSH2 0x3AC7 JUMP JUMPDEST ISZERO PUSH2 0x3B2D JUMPI JUMP JUMPDEST PUSH1 0x40 MLOAD PUSH3 0x461BCD PUSH1 0xE5 SHL DUP2 MSTORE PUSH1 0x20 PUSH1 0x4 DUP3 ADD MSTORE PUSH1 0x22 PUSH1 0x24 DUP3 ADD MSTORE PUSH32 0x596F7520617265206E6F7420746865206F776E6572206F662074686973206C61 PUSH1 0x44 DUP3 ADD MSTORE PUSH2 0x1B99 PUSH1 0xF2 SHL PUSH1 0x64 DUP3 ADD MSTORE PUSH1 0x84 SWAP1 REVERT JUMPDEST ISZERO PUSH2 0x3B84 JUMPI JUMP JUMPDEST PUSH1 0x40 MLOAD PUSH3 0x461BCD PUSH1 0xE5 SHL DUP2 MSTORE PUSH1 0x20 PUSH1 0x4 DUP3 ADD MSTORE PUSH1 0x16 PUSH1 0x24 DUP3 ADD MSTORE PUSH22 0x13185B99081A5CC81B9BDD081C9959DA5CDD195C9959 PUSH1 0x52 SHL PUSH1 0x44 DUP3 ADD MSTORE PUSH1 0x64 SWAP1 REVERT JUMPDEST PUSH1 0x40 MLOAD SWAP1 PUSH2 0x3BCF DUP3 PUSH2 0x2EE2 JUMP JUMPDEST PUSH1 0x8 DUP3 MSTORE PUSH8 0x3A3930B739B332B9 PUSH1 0xC1 SHL PUSH1 0x20 DUP4 ADD MSTORE JUMP JUMPDEST PUSH1 0x1 PUSH1 0x1 PUSH1 0x40 SHL SUB DUP2 GT PUSH2 0xF12 JUMPI PUSH1 0x5 SHL PUSH1 0x20 ADD SWAP1 JUMP JUMPDEST SWAP1 PUSH1 0x40 MLOAD PUSH2 0x3C0A DUP2 PUSH2 0x2EC6 JUMP JUMPDEST PUSH2 0x140 PUSH2 0x3CBB PUSH1 0xA DUP4 SWAP6 DUP1 SLOAD DUP6 MSTORE PUSH2 0x3C24 PUSH1 0x1 DUP3 ADD PUSH2 0x2FCD JUMP JUMPDEST PUSH1 0x20 DUP7 ADD MSTORE PUSH2 0x3C35 PUSH1 0x2 DUP3 ADD PUSH2 0x2FCD JUMP JUMPDEST PUSH1 0x40 DUP7 ADD MSTORE PUSH2 0x3C46 PUSH1 0x3 DUP3 ADD PUSH2 0x2FCD JUMP JUMPDEST PUSH1 0x60 DUP7 ADD MSTORE PUSH2 0x3C57 PUSH1 0x4 DUP3 ADD PUSH2 0x2FCD JUMP JUMPDEST PUSH1 0x80 DUP7 ADD MSTORE PUSH2 0x3C68 PUSH1 0x5 DUP3 ADD PUSH2 0x2FCD JUMP JUMPDEST PUSH1 0xA0 DUP7 ADD MSTORE PUSH2 0x3C79 PUSH1 0x6 DUP3 ADD PUSH2 0x2FCD JUMP JUMPDEST PUSH1 0xC0 DUP7 ADD MSTORE PUSH2 0x3C8A PUSH1 0x7 DUP3 ADD PUSH2 0x2FCD JUMP JUMPDEST PUSH1 0xE0 DUP7 ADD MSTORE PUSH2 0x3C9B PUSH1 0x8 DUP3 ADD PUSH2 0x2FCD JUMP JUMPDEST PUSH2 0x100 DUP7 ADD MSTORE PUSH1 0x9 DUP2 ADD SLOAD PUSH1 0x1 PUSH1 0x1 PUSH1 0xA0 SHL SUB AND PUSH2 0x120 DUP7 ADD MSTORE ADD PUSH2 0x2FCD JUMP JUMPDEST SWAP2 ADD MSTORE JUMP JUMPDEST PUSH1 0x0 NOT DUP2 EQ PUSH2 0x18A4 JUMPI PUSH1 0x1 ADD SWAP1 JUMP JUMPDEST SWAP1 DUP1 DUP3 EQ PUSH2 0x3DA3 JUMPI PUSH2 0x3CE1 DUP2 SLOAD PUSH2 0x2F93 JUMP JUMPDEST SWAP1 PUSH1 0x1 PUSH1 0x1 PUSH1 0x40 SHL SUB DUP3 GT PUSH2 0xF12 JUMPI DUP2 SWAP1 PUSH2 0x3D00 DUP3 PUSH2 0xC6B DUP7 SLOAD PUSH2 0x2F93 JUMP JUMPDEST PUSH1 0x0 SWAP1 PUSH1 0x1F DUP4 GT PUSH1 0x1 EQ PUSH2 0x3D37 JUMPI PUSH1 0x0 SWAP3 PUSH2 0x3D2C JUMPI JUMPDEST POP POP DUP2 PUSH1 0x1 SHL SWAP2 PUSH1 0x0 NOT SWAP1 PUSH1 0x3 SHL SHR NOT AND OR SWAP1 SSTORE JUMP JUMPDEST ADD SLOAD SWAP1 POP CODESIZE DUP1 PUSH2 0x3D16 JUMP JUMPDEST DUP2 MSTORE PUSH1 0x20 DUP1 DUP3 KECCAK256 DUP6 DUP4 MSTORE DUP2 DUP4 KECCAK256 SWAP4 POP SWAP1 PUSH1 0x1F NOT DUP6 AND SWAP1 DUP4 SWAP1 JUMPDEST DUP3 DUP3 LT PUSH2 0x3D8A JUMPI POP POP SWAP1 DUP5 PUSH1 0x1 SWAP6 SWAP5 SWAP4 SWAP3 LT PUSH2 0x3D71 JUMPI JUMPDEST POP POP POP DUP2 SHL ADD SWAP1 SSTORE JUMP JUMPDEST ADD SLOAD PUSH1 0x0 NOT PUSH1 0xF8 DUP5 PUSH1 0x3 SHL AND SHR NOT AND SWAP1 SSTORE CODESIZE DUP1 DUP1 PUSH2 0x3D67 JUMP JUMPDEST DUP5 SWAP6 DUP2 SWAP3 SWAP6 DUP6 ADD SLOAD DUP2 SSTORE PUSH1 0x1 DUP1 SWAP2 ADD SWAP7 ADD SWAP5 ADD SWAP1 PUSH2 0x3D50 JUMP JUMPDEST POP POP JUMP JUMPDEST PUSH2 0x3DB1 DUP2 SLOAD PUSH2 0x2F93 JUMP JUMPDEST SWAP1 DUP2 PUSH2 0x3DBB JUMPI POP POP JUMP JUMPDEST DUP2 PUSH1 0x1F PUSH1 0x0 SWAP4 GT PUSH1 0x1 EQ PUSH2 0x3DCD JUMPI POP SSTORE JUMP JUMPDEST SWAP1 DUP1 DUP4 SWAP2 DUP3 MSTORE PUSH2 0x3DEC PUSH1 0x1F PUSH1 0x20 DUP5 KECCAK256 SWAP5 ADD PUSH1 0x5 SHR DUP5 ADD PUSH1 0x1 DUP6 ADD PUSH2 0x3226 JUMP JUMPDEST SSTORE SSTORE JUMP JUMPDEST SWAP1 PUSH2 0x3DFA DUP3 PUSH2 0x3BE6 JUMP JUMPDEST PUSH1 0x40 SWAP1 PUSH2 0x3E09 DUP3 MLOAD SWAP2 DUP3 PUSH2 0x2EFD JUMP JUMPDEST DUP4 DUP2 MSTORE DUP1 SWAP4 PUSH2 0x3E1A PUSH1 0x1F NOT SWAP2 PUSH2 0x3BE6 JUMP JUMPDEST ADD SWAP2 PUSH1 0x0 SWAP2 DUP3 JUMPDEST DUP5 DUP2 LT PUSH2 0x3E2F JUMPI POP POP POP POP POP JUMP JUMPDEST PUSH1 0x20 SWAP1 DUP4 MLOAD PUSH2 0x3E3D DUP2 PUSH2 0x2EC6 JUMP JUMPDEST DUP6 DUP2 MSTORE PUSH1 0x60 DUP4 SWAP1 DUP1 DUP3 DUP5 ADD MSTORE DUP1 DUP8 DUP5 ADD MSTORE DUP1 DUP1 DUP5 ADD MSTORE DUP1 PUSH1 0x80 DUP5 ADD MSTORE DUP1 PUSH1 0xA0 DUP5 ADD MSTORE DUP1 PUSH1 0xC0 DUP5 ADD MSTORE DUP1 PUSH1 0xE0 DUP5 ADD MSTORE PUSH2 0x100 DUP4 ADD MSTORE DUP7 PUSH2 0x120 DUP4 ADD MSTORE DUP7 PUSH2 0x140 DUP4 ADD MSTORE DUP3 DUP6 ADD ADD MSTORE ADD PUSH2 0x3E21 JUMP JUMPDEST DUP1 MLOAD DUP3 LT ISZERO PUSH2 0x22BD JUMPI PUSH1 0x20 SWAP2 PUSH1 0x5 SHL ADD ADD SWAP1 JUMP INVALID LOG2 PUSH5 0x6970667358 0x22 SLT KECCAK256 GASLIMIT ORIGIN 0xBA 0x22 JUMPDEST DUP9 MUL GT PUSH16 0xF7376BA27A222764FFEDB317AC93A508 0x23 RETURNDATACOPY 0xBC 0xAE CREATE 0xD8 0xCA PUSH5 0x736F6C6343 STOP ADDMOD SGT STOP CALLER "},"methodIdentifiers":{"getAllLandDetails()":"a6ac704e","getLandDetails(uint256)":"fe0cb7dc","getOwnedLandDetails(address)":"f47d31dc","getOwnershipHistory(uint256)":"f1dbaccb","getPendingRequests()":"80a1f712","incrementLandCounter()":"ad2ad9d2","initiateTransfer(uint256)":"61a31e00","landCounter()":"9e29ce18","landRegistry(uint256)":"a3695b18","lands(uint256)":"e261f1e5","ownershipHistory(uint256)":"19159f20","pendingRequests(uint256)":"3c652a9a","registerLand(string,uint256,string,string,string,string,string,string,string)":"4abac37b","registeredLandIds(uint256)":"da5f55e9","transferLand(string,string,string,string,string,string,string)":"1df4ce0e","transferLand(uint256,address,string,string,string,string,string,string)":"09c05b0e","updateLandDetails(uint256,string,string,string,string,string,string,string)":"7ce411f9","verifyRequest(uint256)":"7ae6da9b"}}}}}