{"contracts/UserManagement.sol":{"UserManagement":{"abi":[{"anonymous":false,"inputs":[{"indexed":true,"internalType":"address","name":"userAddress","type":"address"},{"indexed":false,"internalType":"string","name":"cnic","type":"string"},{"indexed":false,"internalType":"string","name":"name","type":"string"},{"indexed":false,"internalType":"string","name":"email","type":"string"}],"name":"UserRegistered","type":"event"},{"inputs":[{"internalType":"address","name":"_userAddress","type":"address"}],"name":"getNameForAddress","outputs":[{"internalType":"string","name":"","type":"string"}],"stateMutability":"view","type":"function"},{"inputs":[{"internalType":"address","name":"_owner","type":"address"}],"name":"getUser","outputs":[{"internalType":"string","name":"","type":"string"},{"internalType":"string","name":"","type":"string"},{"internalType":"string","name":"","type":"string"},{"internalType":"string","name":"","type":"string"},{"internalType":"string","name":"","type":"string"},{"internalType":"string","name":"","type":"string"},{"internalType":"string","name":"","type":"string"},{"internalType":"string","name":"","type":"string"},{"internalType":"bool","name":"","type":"bool"}],"stateMutability":"view","type":"function"},{"inputs":[{"internalType":"string","name":"_email","type":"string"},{"internalType":"string","name":"_password","type":"string"}],"name":"loginUser","outputs":[],"stateMutability":"nonpayable","type":"function"},{"inputs":[],"name":"logoutUser","outputs":[],"stateMutability":"nonpayable","type":"function"},{"inputs":[{"internalType":"string","name":"_CNIC","type":"string"},{"internalType":"string","name":"_name","type":"string"},{"internalType":"string","name":"_fatherName","type":"string"},{"internalType":"string","name":"_phoneNumber","type":"string"},{"internalType":"string","name":"_email","type":"string"},{"internalType":"string","name":"_password","type":"string"},{"internalType":"string","name":"_permanentAddress","type":"string"},{"internalType":"string","name":"_currentAddress","type":"string"}],"name":"registerUser","outputs":[],"stateMutability":"nonpayable","type":"function"},{"inputs":[],"name":"totalUsers","outputs":[{"internalType":"uint256","name":"","type":"uint256"}],"stateMutability":"view","type":"function"},{"inputs":[{"internalType":"address","name":"","type":"address"}],"name":"users","outputs":[{"internalType":"string","name":"cnic","type":"string"},{"internalType":"string","name":"name","type":"string"},{"internalType":"string","name":"fatherName","type":"string"},{"internalType":"string","name":"phoneNumber","type":"string"},{"internalType":"string","name":"email","type":"string"},{"internalType":"string","name":"password","type":"string"},{"internalType":"string","name":"permanentAddress","type":"string"},{"internalType":"string","name":"currentAddress","type":"string"},{"internalType":"bool","name":"isregister","type":"bool"}],"stateMutability":"view","type":"function"}],"evm":{"bytecode":{"linkReferences":{},"object":"60808060405234610016576114b5908161001c8239f35b600080fdfe6080604052600436101561001257600080fd5b60003560e01c806322ce12e514610fce57806367601dd1146102bd5780636f77926b146101bd578063a87430ba14610111578063bff1f9e1146100f3578063d8c27b9b1461009d5763d8f145d21461006957600080fd5b3461009857600036600319011261009857336000526000602052600860406000200160ff198154169055600080f35b600080fd5b34610098576020366003190112610098576004356001600160a01b038116908190036100985760005260026020526100ef6100db60406000206113d9565b6040519182916020835260208301906112e8565b0390f35b34610098576000366003190112610098576020600354604051908152f35b34610098576020366003190112610098576004356001600160a01b03811690819003610098576000526000602052604060002061014d816113d9565b6100ef61015c600184016113d9565b92610169600282016113d9565b90610176600382016113d9565b610182600483016113d9565b61018e600584016113d9565b9061019b600685016113d9565b9260ff60086101ac600788016113d9565b9601541695604051998a998a61130d565b34610098576020366003190112610098576004356001600160a01b0381169081900361009857600052600060205260406000206040516101fc81611232565b610205826113d9565b81526100ef610216600184016113d9565b916020810192835261022a600285016113d9565b936040820194855261023e600382016113d9565b60608301908152610251600483016113d9565b60808401908152610264600584016113d9565b60a08501908152610277600685016113d9565b9160c0860192835260ff600861028f600788016113d9565b968760e08a0152015416151595866101008201525197519851935190519151925193604051998a998a61130d565b346100985761010080600319360112610098576004356001600160401b038111610098576102ef90369060040161126f565b6024356001600160401b0381116100985761030e90369060040161126f565b906044356001600160401b0381116100985761032e90369060040161126f565b6064356001600160401b0381116100985761034d90369060040161126f565b936084356001600160401b0381116100985761036d90369060040161126f565b9460a4356001600160401b0381116100985761038d90369060040161126f565b60c4356001600160401b038111610098576103ac90369060040161126f565b9060e4356001600160401b038111610098576103cc90369060040161126f565b9233600052600060205260ff60086040600020015416610f7257604051956103f387611232565b8787528860208801526040870152606086015287608086015260a085015260c084015260e0830152600181830152336000526000602052604060002082518051906001600160401b0382116108f057819061044e845461139f565b601f8111610f22575b50602090601f8311600114610eb657600092610eab575b50508160011b916000199060031b1c19161781555b60208301518051906001600160401b0382116108f05781906104a8600185015461139f565b601f8111610e58575b50602090601f8311600114610de657600092610ddb575b50508160011b916000199060031b1c19161760018201555b60408301518051906001600160401b0382116108f0578190610505600285015461139f565b601f8111610d88575b50602090601f8311600114610d1657600092610d0b575b50508160011b916000199060031b1c19161760028201555b60608301518051906001600160401b0382116108f0578190610562600385015461139f565b601f8111610cb8575b50602090601f8311600114610c4657600092610c3b575b50508160011b916000199060031b1c19161760038201555b60808301518051906001600160401b0382116108f05781906105bf600485015461139f565b601f8111610be8575b50602090601f8311600114610b7657600092610b6b575b50508160011b916000199060031b1c19161760048201555b60a08301518051906001600160401b0382116108f057819061061c600585015461139f565b601f8111610b18575b50602090601f8311600114610aa657600092610a9b575b50508160011b916000199060031b1c19161760058201555b60c08301518051906001600160401b0382116108f0578190610679600685015461139f565b601f8111610a48575b50602090601f83116001146109d6576000926109cb575b50508160011b916000199060031b1c19161760068201555b60e08301518051906001600160401b0382116108f0576106d4600784015461139f565b601f8111610984575b50602090601f831160011461091157600893929160009183610906575b50508160011b916000199060031b1c19161760078201555b01910151151560ff8019835416911617905560405160208185516107398183858a016112c5565b810160018152030190203360018060a01b0319825416179055336000526002602052604060002082516001600160401b0381116108f05761077a825461139f565b601f81116108a8575b50806020601f821160011461084457600091610839575b508160011b916000199060031b1c19161790555b6003549060001982146108235761081e61080f7f509c70f523067009f7db7f46db6956d7af8b679323680dc3821a8bad001ac1e194600161080195016003556040519485946060865260608601906112e8565b9084820360208601526112e8565b828103604084015233956112e8565b0390a2005b634e487b7160e01b600052601160045260246000fd5b90508401518661079a565b6000848152602081209250601f198416905b81811061089057509083600194939210610877575b5050811b0190556107ae565b86015160001960f88460031b161c19169055868061086b565b9192602060018192868b015181550194019201610856565b826000526020600020601f830160051c810191602084106108e6575b601f0160051c01905b8181106108da5750610783565b600081556001016108cd565b90915081906108c4565b634e487b7160e01b600052604160045260246000fd5b0151905089806106fa565b906007840160005260206000209160005b601f198516811061096c575091839160019360089695601f19811610610953575b505050811b016007820155610712565b015160001960f88460031b161c19169055898080610943565b91926020600181928685015181550194019201610922565b600784016000526020600020601f840160051c8101602085106109c4575b601f830160051c820181106109b85750506106dd565b600081556001016109a2565b50806109a2565b015190508880610699565b9250600684016000526020600020906000935b601f1984168510610a2d576001945083601f19811610610a14575b505050811b0160068201556106b1565b015160001960f88460031b161c19169055888080610a04565b818101518355602094850194600190930192909101906109e9565b909150600684016000526020600020601f840160051c810160208510610a94575b90849392915b601f830160051c82018110610a85575050610682565b60008155859450600101610a6f565b5080610a69565b01519050888061063c565b9250600584016000526020600020906000935b601f1984168510610afd576001945083601f19811610610ae4575b505050811b016005820155610654565b015160001960f88460031b161c19169055888080610ad4565b81810151835560209485019460019093019290910190610ab9565b909150600584016000526020600020601f840160051c810160208510610b64575b90849392915b601f830160051c82018110610b55575050610625565b60008155859450600101610b3f565b5080610b39565b0151905088806105df565b9250600484016000526020600020906000935b601f1984168510610bcd576001945083601f19811610610bb4575b505050811b0160048201556105f7565b015160001960f88460031b161c19169055888080610ba4565b81810151835560209485019460019093019290910190610b89565b909150600484016000526020600020601f840160051c810160208510610c34575b90849392915b601f830160051c82018110610c255750506105c8565b60008155859450600101610c0f565b5080610c09565b015190508880610582565b9250600384016000526020600020906000935b601f1984168510610c9d576001945083601f19811610610c84575b505050811b01600382015561059a565b015160001960f88460031b161c19169055888080610c74565b81810151835560209485019460019093019290910190610c59565b909150600384016000526020600020601f840160051c810160208510610d04575b90849392915b601f830160051c82018110610cf557505061056b565b60008155859450600101610cdf565b5080610cd9565b015190508880610525565b9250600284016000526020600020906000935b601f1984168510610d6d576001945083601f19811610610d54575b505050811b01600282015561053d565b015160001960f88460031b161c19169055888080610d44565b81810151835560209485019460019093019290910190610d29565b909150600284016000526020600020601f840160051c810160208510610dd4575b90849392915b601f830160051c82018110610dc557505061050e565b60008155859450600101610daf565b5080610da9565b0151905088806104c8565b9250600184016000526020600020906000935b601f1984168510610e3d576001945083601f19811610610e24575b505050811b0160018201556104e0565b015160001960f88460031b161c19169055888080610e14565b81810151835560209485019460019093019290910190610df9565b909150600184016000526020600020601f840160051c810160208510610ea4575b90849392915b601f830160051c82018110610e955750506104b1565b60008155859450600101610e7f565b5080610e79565b01519050888061046e565b9250836000526020600020906000935b601f1984168510610f07576001945083601f19811610610eee575b505050811b018155610483565b015160001960f88460031b161c19169055888080610ee1565b81810151835560209485019460019093019290910190610ec6565b909150836000526020600020601f840160051c810160208510610f6b575b90849392915b601f830160051c82018110610f5c575050610457565b60008155859450600101610f46565b5080610f40565b60405162461bcd60e51b815260206004820152602e60248201527f557365722077697468207468697320457468657265756d20416464726573732060448201526d616c72656164792065786973747360901b6064820152608490fd5b34610098576040366003190112610098576001600160401b0360043581811161009857610fff90369060040161126f565b906024359081116100985761101890369060040161126f565b336000526020906000825260046040600020019260405193600094815495816110408861139f565b9182825287820194600199898b821691826000146112145750506001146111d3575b5061106f9250038261124e565b51902090838151910120036111975733600052600082526005604060002001604051600091818154936110a18561139f565b9283835287830195888a82169182600014611179575050600114611138575b506110cd9250038261124e565b51902090828151910120036110fa576000903382525260086040600020019060ff19825416179055600080f35b6064906040519062461bcd60e51b8252600482015260176024820152760a0c2e6e6eedee4c840c8decae640dcdee840dac2e8c6d604b1b6044820152fd5b915050600052818580600020886000915b8583106111605750506110cd9350820101886110c0565b8091929450548385880101520191018690888593611149565b60ff191688526110cd95151560051b85010192508a91506110c09050565b60405162461bcd60e51b815260048101839052601460248201527308adac2d2d840c8decae640dcdee840dac2e8c6d60631b6044820152606490fd5b915050600052818680600020896000915b8583106111fb57505061106f935082010189611062565b80919294505483858801015201910187908985936111e4565b60ff1916885261106f95151560051b85010192508b91506110629050565b61012081019081106001600160401b038211176108f057604052565b90601f801991011681019081106001600160401b038211176108f057604052565b81601f82011215610098578035906001600160401b0382116108f057604051926112a3601f8401601f19166020018561124e565b8284526020838301011161009857816000926020809301838601378301015290565b60005b8381106112d85750506000910152565b81810151838201526020016112c8565b90602091611301815180928185528580860191016112c5565b601f01601f1916010190565b979461136d9061135f611389966113518c9d9e9d6101009c9861134361137b996108016113979f9a6101208087528601906112e8565b9160408184039101526112e8565b8c810360608e0152906112e8565b908a820360808c01526112e8565b9088820360a08a01526112e8565b9086820360c08801526112e8565b9084820360e08601526112e8565b931515910152565b90600182811c921680156113cf575b60208310146113b957565b634e487b7160e01b600052602260045260246000fd5b91607f16916113ae565b90604051918260008254926113ed8461139f565b90818452600194858116908160001461145c5750600114611419575b50506114179250038361124e565b565b9093915060005260209081600020936000915b81831061144457505061141793508201013880611409565b8554888401850152948501948794509183019161142c565b91505061141794506020925060ff191682840152151560051b820101388061140956fea2646970667358221220f00ec70e406097c157b3519f1450dcd8a3a2b164dcd4a3bdf2219f2daa28f2d264736f6c63430008130033","opcodes":"PUSH1 0x80 DUP1 PUSH1 0x40 MSTORE CALLVALUE PUSH2 0x16 JUMPI PUSH2 0x14B5 SWAP1 DUP2 PUSH2 0x1C DUP3 CODECOPY RETURN JUMPDEST PUSH1 0x0 DUP1 REVERT INVALID PUSH1 0x80 PUSH1 0x40 MSTORE PUSH1 0x4 CALLDATASIZE LT ISZERO PUSH2 0x12 JUMPI PUSH1 0x0 DUP1 REVERT JUMPDEST PUSH1 0x0 CALLDATALOAD PUSH1 0xE0 SHR DUP1 PUSH4 0x22CE12E5 EQ PUSH2 0xFCE JUMPI DUP1 PUSH4 0x67601DD1 EQ PUSH2 0x2BD JUMPI DUP1 PUSH4 0x6F77926B EQ PUSH2 0x1BD JUMPI DUP1 PUSH4 0xA87430BA EQ PUSH2 0x111 JUMPI DUP1 PUSH4 0xBFF1F9E1 EQ PUSH2 0xF3 JUMPI DUP1 PUSH4 0xD8C27B9B EQ PUSH2 0x9D JUMPI PUSH4 0xD8F145D2 EQ PUSH2 0x69 JUMPI PUSH1 0x0 DUP1 REVERT JUMPDEST CALLVALUE PUSH2 0x98 JUMPI PUSH1 0x0 CALLDATASIZE PUSH1 0x3 NOT ADD SLT PUSH2 0x98 JUMPI CALLER PUSH1 0x0 MSTORE PUSH1 0x0 PUSH1 0x20 MSTORE PUSH1 0x8 PUSH1 0x40 PUSH1 0x0 KECCAK256 ADD PUSH1 0xFF NOT DUP2 SLOAD AND SWAP1 SSTORE PUSH1 0x0 DUP1 RETURN JUMPDEST PUSH1 0x0 DUP1 REVERT JUMPDEST CALLVALUE PUSH2 0x98 JUMPI PUSH1 0x20 CALLDATASIZE PUSH1 0x3 NOT ADD SLT PUSH2 0x98 JUMPI PUSH1 0x4 CALLDATALOAD PUSH1 0x1 PUSH1 0x1 PUSH1 0xA0 SHL SUB DUP2 AND SWAP1 DUP2 SWAP1 SUB PUSH2 0x98 JUMPI PUSH1 0x0 MSTORE PUSH1 0x2 PUSH1 0x20 MSTORE PUSH2 0xEF PUSH2 0xDB PUSH1 0x40 PUSH1 0x0 KECCAK256 PUSH2 0x13D9 JUMP JUMPDEST PUSH1 0x40 MLOAD SWAP2 DUP3 SWAP2 PUSH1 0x20 DUP4 MSTORE PUSH1 0x20 DUP4 ADD SWAP1 PUSH2 0x12E8 JUMP JUMPDEST SUB SWAP1 RETURN JUMPDEST CALLVALUE PUSH2 0x98 JUMPI PUSH1 0x0 CALLDATASIZE PUSH1 0x3 NOT ADD SLT PUSH2 0x98 JUMPI PUSH1 0x20 PUSH1 0x3 SLOAD PUSH1 0x40 MLOAD SWAP1 DUP2 MSTORE RETURN JUMPDEST CALLVALUE PUSH2 0x98 JUMPI PUSH1 0x20 CALLDATASIZE PUSH1 0x3 NOT ADD SLT PUSH2 0x98 JUMPI PUSH1 0x4 CALLDATALOAD PUSH1 0x1 PUSH1 0x1 PUSH1 0xA0 SHL SUB DUP2 AND SWAP1 DUP2 SWAP1 SUB PUSH2 0x98 JUMPI PUSH1 0x0 MSTORE PUSH1 0x0 PUSH1 0x20 MSTORE PUSH1 0x40 PUSH1 0x0 KECCAK256 PUSH2 0x14D DUP2 PUSH2 0x13D9 JUMP JUMPDEST PUSH2 0xEF PUSH2 0x15C PUSH1 0x1 DUP5 ADD PUSH2 0x13D9 JUMP JUMPDEST SWAP3 PUSH2 0x169 PUSH1 0x2 DUP3 ADD PUSH2 0x13D9 JUMP JUMPDEST SWAP1 PUSH2 0x176 PUSH1 0x3 DUP3 ADD PUSH2 0x13D9 JUMP JUMPDEST PUSH2 0x182 PUSH1 0x4 DUP4 ADD PUSH2 0x13D9 JUMP JUMPDEST PUSH2 0x18E PUSH1 0x5 DUP5 ADD PUSH2 0x13D9 JUMP JUMPDEST SWAP1 PUSH2 0x19B PUSH1 0x6 DUP6 ADD PUSH2 0x13D9 JUMP JUMPDEST SWAP3 PUSH1 0xFF PUSH1 0x8 PUSH2 0x1AC PUSH1 0x7 DUP9 ADD PUSH2 0x13D9 JUMP JUMPDEST SWAP7 ADD SLOAD AND SWAP6 PUSH1 0x40 MLOAD SWAP10 DUP11 SWAP10 DUP11 PUSH2 0x130D JUMP JUMPDEST CALLVALUE PUSH2 0x98 JUMPI PUSH1 0x20 CALLDATASIZE PUSH1 0x3 NOT ADD SLT PUSH2 0x98 JUMPI PUSH1 0x4 CALLDATALOAD PUSH1 0x1 PUSH1 0x1 PUSH1 0xA0 SHL SUB DUP2 AND SWAP1 DUP2 SWAP1 SUB PUSH2 0x98 JUMPI PUSH1 0x0 MSTORE PUSH1 0x0 PUSH1 0x20 MSTORE PUSH1 0x40 PUSH1 0x0 KECCAK256 PUSH1 0x40 MLOAD PUSH2 0x1FC DUP2 PUSH2 0x1232 JUMP JUMPDEST PUSH2 0x205 DUP3 PUSH2 0x13D9 JUMP JUMPDEST DUP2 MSTORE PUSH2 0xEF PUSH2 0x216 PUSH1 0x1 DUP5 ADD PUSH2 0x13D9 JUMP JUMPDEST SWAP2 PUSH1 0x20 DUP2 ADD SWAP3 DUP4 MSTORE PUSH2 0x22A PUSH1 0x2 DUP6 ADD PUSH2 0x13D9 JUMP JUMPDEST SWAP4 PUSH1 0x40 DUP3 ADD SWAP5 DUP6 MSTORE PUSH2 0x23E PUSH1 0x3 DUP3 ADD PUSH2 0x13D9 JUMP JUMPDEST PUSH1 0x60 DUP4 ADD SWAP1 DUP2 MSTORE PUSH2 0x251 PUSH1 0x4 DUP4 ADD PUSH2 0x13D9 JUMP JUMPDEST PUSH1 0x80 DUP5 ADD SWAP1 DUP2 MSTORE PUSH2 0x264 PUSH1 0x5 DUP5 ADD PUSH2 0x13D9 JUMP JUMPDEST PUSH1 0xA0 DUP6 ADD SWAP1 DUP2 MSTORE PUSH2 0x277 PUSH1 0x6 DUP6 ADD PUSH2 0x13D9 JUMP JUMPDEST SWAP2 PUSH1 0xC0 DUP7 ADD SWAP3 DUP4 MSTORE PUSH1 0xFF PUSH1 0x8 PUSH2 0x28F PUSH1 0x7 DUP9 ADD PUSH2 0x13D9 JUMP JUMPDEST SWAP7 DUP8 PUSH1 0xE0 DUP11 ADD MSTORE ADD SLOAD AND ISZERO ISZERO SWAP6 DUP7 PUSH2 0x100 DUP3 ADD MSTORE MLOAD SWAP8 MLOAD SWAP9 MLOAD SWAP4 MLOAD SWAP1 MLOAD SWAP2 MLOAD SWAP3 MLOAD SWAP4 PUSH1 0x40 MLOAD SWAP10 DUP11 SWAP10 DUP11 PUSH2 0x130D JUMP JUMPDEST CALLVALUE PUSH2 0x98 JUMPI PUSH2 0x100 DUP1 PUSH1 0x3 NOT CALLDATASIZE ADD SLT PUSH2 0x98 JUMPI PUSH1 0x4 CALLDATALOAD PUSH1 0x1 PUSH1 0x1 PUSH1 0x40 SHL SUB DUP2 GT PUSH2 0x98 JUMPI PUSH2 0x2EF SWAP1 CALLDATASIZE SWAP1 PUSH1 0x4 ADD PUSH2 0x126F JUMP JUMPDEST PUSH1 0x24 CALLDATALOAD PUSH1 0x1 PUSH1 0x1 PUSH1 0x40 SHL SUB DUP2 GT PUSH2 0x98 JUMPI PUSH2 0x30E SWAP1 CALLDATASIZE SWAP1 PUSH1 0x4 ADD PUSH2 0x126F JUMP JUMPDEST SWAP1 PUSH1 0x44 CALLDATALOAD PUSH1 0x1 PUSH1 0x1 PUSH1 0x40 SHL SUB DUP2 GT PUSH2 0x98 JUMPI PUSH2 0x32E SWAP1 CALLDATASIZE SWAP1 PUSH1 0x4 ADD PUSH2 0x126F JUMP JUMPDEST PUSH1 0x64 CALLDATALOAD PUSH1 0x1 PUSH1 0x1 PUSH1 0x40 SHL SUB DUP2 GT PUSH2 0x98 JUMPI PUSH2 0x34D SWAP1 CALLDATASIZE SWAP1 PUSH1 0x4 ADD PUSH2 0x126F JUMP JUMPDEST SWAP4 PUSH1 0x84 CALLDATALOAD PUSH1 0x1 PUSH1 0x1 PUSH1 0x40 SHL SUB DUP2 GT PUSH2 0x98 JUMPI PUSH2 0x36D SWAP1 CALLDATASIZE SWAP1 PUSH1 0x4 ADD PUSH2 0x126F JUMP JUMPDEST SWAP5 PUSH1 0xA4 CALLDATALOAD PUSH1 0x1 PUSH1 0x1 PUSH1 0x40 SHL SUB DUP2 GT PUSH2 0x98 JUMPI PUSH2 0x38D SWAP1 CALLDATASIZE SWAP1 PUSH1 0x4 ADD PUSH2 0x126F JUMP JUMPDEST PUSH1 0xC4 CALLDATALOAD PUSH1 0x1 PUSH1 0x1 PUSH1 0x40 SHL SUB DUP2 GT PUSH2 0x98 JUMPI PUSH2 0x3AC SWAP1 CALLDATASIZE SWAP1 PUSH1 0x4 ADD PUSH2 0x126F JUMP JUMPDEST SWAP1 PUSH1 0xE4 CALLDATALOAD PUSH1 0x1 PUSH1 0x1 PUSH1 0x40 SHL SUB DUP2 GT PUSH2 0x98 JUMPI PUSH2 0x3CC SWAP1 CALLDATASIZE SWAP1 PUSH1 0x4 ADD PUSH2 0x126F JUMP JUMPDEST SWAP3 CALLER PUSH1 0x0 MSTORE PUSH1 0x0 PUSH1 0x20 MSTORE PUSH1 0xFF PUSH1 0x8 PUSH1 0x40 PUSH1 0x0 KECCAK256 ADD SLOAD AND PUSH2 0xF72 JUMPI PUSH1 0x40 MLOAD SWAP6 PUSH2 0x3F3 DUP8 PUSH2 0x1232 JUMP JUMPDEST DUP8 DUP8 MSTORE DUP9 PUSH1 0x20 DUP9 ADD MSTORE PUSH1 0x40 DUP8 ADD MSTORE PUSH1 0x60 DUP7 ADD MSTORE DUP8 PUSH1 0x80 DUP7 ADD MSTORE PUSH1 0xA0 DUP6 ADD MSTORE PUSH1 0xC0 DUP5 ADD MSTORE PUSH1 0xE0 DUP4 ADD MSTORE PUSH1 0x1 DUP2 DUP4 ADD MSTORE CALLER PUSH1 0x0 MSTORE PUSH1 0x0 PUSH1 0x20 MSTORE PUSH1 0x40 PUSH1 0x0 KECCAK256 DUP3 MLOAD DUP1 MLOAD SWAP1 PUSH1 0x1 PUSH1 0x1 PUSH1 0x40 SHL SUB DUP3 GT PUSH2 0x8F0 JUMPI DUP2 SWAP1 PUSH2 0x44E DUP5 SLOAD PUSH2 0x139F JUMP JUMPDEST PUSH1 0x1F DUP2 GT PUSH2 0xF22 JUMPI JUMPDEST POP PUSH1 0x20 SWAP1 PUSH1 0x1F DUP4 GT PUSH1 0x1 EQ PUSH2 0xEB6 JUMPI PUSH1 0x0 SWAP3 PUSH2 0xEAB JUMPI JUMPDEST POP POP DUP2 PUSH1 0x1 SHL SWAP2 PUSH1 0x0 NOT SWAP1 PUSH1 0x3 SHL SHR NOT AND OR DUP2 SSTORE JUMPDEST PUSH1 0x20 DUP4 ADD MLOAD DUP1 MLOAD SWAP1 PUSH1 0x1 PUSH1 0x1 PUSH1 0x40 SHL SUB DUP3 GT PUSH2 0x8F0 JUMPI DUP2 SWAP1 PUSH2 0x4A8 PUSH1 0x1 DUP6 ADD SLOAD PUSH2 0x139F JUMP JUMPDEST PUSH1 0x1F DUP2 GT PUSH2 0xE58 JUMPI JUMPDEST POP PUSH1 0x20 SWAP1 PUSH1 0x1F DUP4 GT PUSH1 0x1 EQ PUSH2 0xDE6 JUMPI PUSH1 0x0 SWAP3 PUSH2 0xDDB JUMPI JUMPDEST POP POP DUP2 PUSH1 0x1 SHL SWAP2 PUSH1 0x0 NOT SWAP1 PUSH1 0x3 SHL SHR NOT AND OR PUSH1 0x1 DUP3 ADD SSTORE JUMPDEST PUSH1 0x40 DUP4 ADD MLOAD DUP1 MLOAD SWAP1 PUSH1 0x1 PUSH1 0x1 PUSH1 0x40 SHL SUB DUP3 GT PUSH2 0x8F0 JUMPI DUP2 SWAP1 PUSH2 0x505 PUSH1 0x2 DUP6 ADD SLOAD PUSH2 0x139F JUMP JUMPDEST PUSH1 0x1F DUP2 GT PUSH2 0xD88 JUMPI JUMPDEST POP PUSH1 0x20 SWAP1 PUSH1 0x1F DUP4 GT PUSH1 0x1 EQ PUSH2 0xD16 JUMPI PUSH1 0x0 SWAP3 PUSH2 0xD0B JUMPI JUMPDEST POP POP DUP2 PUSH1 0x1 SHL SWAP2 PUSH1 0x0 NOT SWAP1 PUSH1 0x3 SHL SHR NOT AND OR PUSH1 0x2 DUP3 ADD SSTORE JUMPDEST PUSH1 0x60 DUP4 ADD MLOAD DUP1 MLOAD SWAP1 PUSH1 0x1 PUSH1 0x1 PUSH1 0x40 SHL SUB DUP3 GT PUSH2 0x8F0 JUMPI DUP2 SWAP1 PUSH2 0x562 PUSH1 0x3 DUP6 ADD SLOAD PUSH2 0x139F JUMP JUMPDEST PUSH1 0x1F DUP2 GT PUSH2 0xCB8 JUMPI JUMPDEST POP PUSH1 0x20 SWAP1 PUSH1 0x1F DUP4 GT PUSH1 0x1 EQ PUSH2 0xC46 JUMPI PUSH1 0x0 SWAP3 PUSH2 0xC3B JUMPI JUMPDEST POP POP DUP2 PUSH1 0x1 SHL SWAP2 PUSH1 0x0 NOT SWAP1 PUSH1 0x3 SHL SHR NOT AND OR PUSH1 0x3 DUP3 ADD SSTORE JUMPDEST PUSH1 0x80 DUP4 ADD MLOAD DUP1 MLOAD SWAP1 PUSH1 0x1 PUSH1 0x1 PUSH1 0x40 SHL SUB DUP3 GT PUSH2 0x8F0 JUMPI DUP2 SWAP1 PUSH2 0x5BF PUSH1 0x4 DUP6 ADD SLOAD PUSH2 0x139F JUMP JUMPDEST PUSH1 0x1F DUP2 GT PUSH2 0xBE8 JUMPI JUMPDEST POP PUSH1 0x20 SWAP1 PUSH1 0x1F DUP4 GT PUSH1 0x1 EQ PUSH2 0xB76 JUMPI PUSH1 0x0 SWAP3 PUSH2 0xB6B JUMPI JUMPDEST POP POP DUP2 PUSH1 0x1 SHL SWAP2 PUSH1 0x0 NOT SWAP1 PUSH1 0x3 SHL SHR NOT AND OR PUSH1 0x4 DUP3 ADD SSTORE JUMPDEST PUSH1 0xA0 DUP4 ADD MLOAD DUP1 MLOAD SWAP1 PUSH1 0x1 PUSH1 0x1 PUSH1 0x40 SHL SUB DUP3 GT PUSH2 0x8F0 JUMPI DUP2 SWAP1 PUSH2 0x61C PUSH1 0x5 DUP6 ADD SLOAD PUSH2 0x139F JUMP JUMPDEST PUSH1 0x1F DUP2 GT PUSH2 0xB18 JUMPI JUMPDEST POP PUSH1 0x20 SWAP1 PUSH1 0x1F DUP4 GT PUSH1 0x1 EQ PUSH2 0xAA6 JUMPI PUSH1 0x0 SWAP3 PUSH2 0xA9B JUMPI JUMPDEST POP POP DUP2 PUSH1 0x1 SHL SWAP2 PUSH1 0x0 NOT SWAP1 PUSH1 0x3 SHL SHR NOT AND OR PUSH1 0x5 DUP3 ADD SSTORE JUMPDEST PUSH1 0xC0 DUP4 ADD MLOAD DUP1 MLOAD SWAP1 PUSH1 0x1 PUSH1 0x1 PUSH1 0x40 SHL SUB DUP3 GT PUSH2 0x8F0 JUMPI DUP2 SWAP1 PUSH2 0x679 PUSH1 0x6 DUP6 ADD SLOAD PUSH2 0x139F JUMP JUMPDEST PUSH1 0x1F DUP2 GT PUSH2 0xA48 JUMPI JUMPDEST POP PUSH1 0x20 SWAP1 PUSH1 0x1F DUP4 GT PUSH1 0x1 EQ PUSH2 0x9D6 JUMPI PUSH1 0x0 SWAP3 PUSH2 0x9CB JUMPI JUMPDEST POP POP DUP2 PUSH1 0x1 SHL SWAP2 PUSH1 0x0 NOT SWAP1 PUSH1 0x3 SHL SHR NOT AND OR PUSH1 0x6 DUP3 ADD SSTORE JUMPDEST PUSH1 0xE0 DUP4 ADD MLOAD DUP1 MLOAD SWAP1 PUSH1 0x1 PUSH1 0x1 PUSH1 0x40 SHL SUB DUP3 GT PUSH2 0x8F0 JUMPI PUSH2 0x6D4 PUSH1 0x7 DUP5 ADD SLOAD PUSH2 0x139F JUMP JUMPDEST PUSH1 0x1F DUP2 GT PUSH2 0x984 JUMPI JUMPDEST POP PUSH1 0x20 SWAP1 PUSH1 0x1F DUP4 GT PUSH1 0x1 EQ PUSH2 0x911 JUMPI PUSH1 0x8 SWAP4 SWAP3 SWAP2 PUSH1 0x0 SWAP2 DUP4 PUSH2 0x906 JUMPI JUMPDEST POP POP DUP2 PUSH1 0x1 SHL SWAP2 PUSH1 0x0 NOT SWAP1 PUSH1 0x3 SHL SHR NOT AND OR PUSH1 0x7 DUP3 ADD SSTORE JUMPDEST ADD SWAP2 ADD MLOAD ISZERO ISZERO PUSH1 0xFF DUP1 NOT DUP4 SLOAD AND SWAP2 AND OR SWAP1 SSTORE PUSH1 0x40 MLOAD PUSH1 0x20 DUP2 DUP6 MLOAD PUSH2 0x739 DUP2 DUP4 DUP6 DUP11 ADD PUSH2 0x12C5 JUMP JUMPDEST DUP2 ADD PUSH1 0x1 DUP2 MSTORE SUB ADD SWAP1 KECCAK256 CALLER PUSH1 0x1 DUP1 PUSH1 0xA0 SHL SUB NOT DUP3 SLOAD AND OR SWAP1 SSTORE CALLER PUSH1 0x0 MSTORE PUSH1 0x2 PUSH1 0x20 MSTORE PUSH1 0x40 PUSH1 0x0 KECCAK256 DUP3 MLOAD PUSH1 0x1 PUSH1 0x1 PUSH1 0x40 SHL SUB DUP2 GT PUSH2 0x8F0 JUMPI PUSH2 0x77A DUP3 SLOAD PUSH2 0x139F JUMP JUMPDEST PUSH1 0x1F DUP2 GT PUSH2 0x8A8 JUMPI JUMPDEST POP DUP1 PUSH1 0x20 PUSH1 0x1F DUP3 GT PUSH1 0x1 EQ PUSH2 0x844 JUMPI PUSH1 0x0 SWAP2 PUSH2 0x839 JUMPI JUMPDEST POP DUP2 PUSH1 0x1 SHL SWAP2 PUSH1 0x0 NOT SWAP1 PUSH1 0x3 SHL SHR NOT AND OR SWAP1 SSTORE JUMPDEST PUSH1 0x3 SLOAD SWAP1 PUSH1 0x0 NOT DUP3 EQ PUSH2 0x823 JUMPI PUSH2 0x81E PUSH2 0x80F PUSH32 0x509C70F523067009F7DB7F46DB6956D7AF8B679323680DC3821A8BAD001AC1E1 SWAP5 PUSH1 0x1 PUSH2 0x801 SWAP6 ADD PUSH1 0x3 SSTORE PUSH1 0x40 MLOAD SWAP5 DUP6 SWAP5 PUSH1 0x60 DUP7 MSTORE PUSH1 0x60 DUP7 ADD SWAP1 PUSH2 0x12E8 JUMP JUMPDEST SWAP1 DUP5 DUP3 SUB PUSH1 0x20 DUP7 ADD MSTORE PUSH2 0x12E8 JUMP JUMPDEST DUP3 DUP2 SUB PUSH1 0x40 DUP5 ADD MSTORE CALLER SWAP6 PUSH2 0x12E8 JUMP JUMPDEST SUB SWAP1 LOG2 STOP JUMPDEST PUSH4 0x4E487B71 PUSH1 0xE0 SHL PUSH1 0x0 MSTORE PUSH1 0x11 PUSH1 0x4 MSTORE PUSH1 0x24 PUSH1 0x0 REVERT JUMPDEST SWAP1 POP DUP5 ADD MLOAD DUP7 PUSH2 0x79A JUMP JUMPDEST PUSH1 0x0 DUP5 DUP2 MSTORE PUSH1 0x20 DUP2 KECCAK256 SWAP3 POP PUSH1 0x1F NOT DUP5 AND SWAP1 JUMPDEST DUP2 DUP2 LT PUSH2 0x890 JUMPI POP SWAP1 DUP4 PUSH1 0x1 SWAP5 SWAP4 SWAP3 LT PUSH2 0x877 JUMPI JUMPDEST POP POP DUP2 SHL ADD SWAP1 SSTORE PUSH2 0x7AE JUMP JUMPDEST DUP7 ADD MLOAD PUSH1 0x0 NOT PUSH1 0xF8 DUP5 PUSH1 0x3 SHL AND SHR NOT AND SWAP1 SSTORE DUP7 DUP1 PUSH2 0x86B JUMP JUMPDEST SWAP2 SWAP3 PUSH1 0x20 PUSH1 0x1 DUP2 SWAP3 DUP7 DUP12 ADD MLOAD DUP2 SSTORE ADD SWAP5 ADD SWAP3 ADD PUSH2 0x856 JUMP JUMPDEST DUP3 PUSH1 0x0 MSTORE PUSH1 0x20 PUSH1 0x0 KECCAK256 PUSH1 0x1F DUP4 ADD PUSH1 0x5 SHR DUP2 ADD SWAP2 PUSH1 0x20 DUP5 LT PUSH2 0x8E6 JUMPI JUMPDEST PUSH1 0x1F ADD PUSH1 0x5 SHR ADD SWAP1 JUMPDEST DUP2 DUP2 LT PUSH2 0x8DA JUMPI POP PUSH2 0x783 JUMP JUMPDEST PUSH1 0x0 DUP2 SSTORE PUSH1 0x1 ADD PUSH2 0x8CD JUMP JUMPDEST SWAP1 SWAP2 POP DUP2 SWAP1 PUSH2 0x8C4 JUMP JUMPDEST PUSH4 0x4E487B71 PUSH1 0xE0 SHL PUSH1 0x0 MSTORE PUSH1 0x41 PUSH1 0x4 MSTORE PUSH1 0x24 PUSH1 0x0 REVERT JUMPDEST ADD MLOAD SWAP1 POP DUP10 DUP1 PUSH2 0x6FA JUMP JUMPDEST SWAP1 PUSH1 0x7 DUP5 ADD PUSH1 0x0 MSTORE PUSH1 0x20 PUSH1 0x0 KECCAK256 SWAP2 PUSH1 0x0 JUMPDEST PUSH1 0x1F NOT DUP6 AND DUP2 LT PUSH2 0x96C JUMPI POP SWAP2 DUP4 SWAP2 PUSH1 0x1 SWAP4 PUSH1 0x8 SWAP7 SWAP6 PUSH1 0x1F NOT DUP2 AND LT PUSH2 0x953 JUMPI JUMPDEST POP POP POP DUP2 SHL ADD PUSH1 0x7 DUP3 ADD SSTORE PUSH2 0x712 JUMP JUMPDEST ADD MLOAD PUSH1 0x0 NOT PUSH1 0xF8 DUP5 PUSH1 0x3 SHL AND SHR NOT AND SWAP1 SSTORE DUP10 DUP1 DUP1 PUSH2 0x943 JUMP JUMPDEST SWAP2 SWAP3 PUSH1 0x20 PUSH1 0x1 DUP2 SWAP3 DUP7 DUP6 ADD MLOAD DUP2 SSTORE ADD SWAP5 ADD SWAP3 ADD PUSH2 0x922 JUMP JUMPDEST PUSH1 0x7 DUP5 ADD PUSH1 0x0 MSTORE PUSH1 0x20 PUSH1 0x0 KECCAK256 PUSH1 0x1F DUP5 ADD PUSH1 0x5 SHR DUP2 ADD PUSH1 0x20 DUP6 LT PUSH2 0x9C4 JUMPI JUMPDEST PUSH1 0x1F DUP4 ADD PUSH1 0x5 SHR DUP3 ADD DUP2 LT PUSH2 0x9B8 JUMPI POP POP PUSH2 0x6DD JUMP JUMPDEST PUSH1 0x0 DUP2 SSTORE PUSH1 0x1 ADD PUSH2 0x9A2 JUMP JUMPDEST POP DUP1 PUSH2 0x9A2 JUMP JUMPDEST ADD MLOAD SWAP1 POP DUP9 DUP1 PUSH2 0x699 JUMP JUMPDEST SWAP3 POP PUSH1 0x6 DUP5 ADD PUSH1 0x0 MSTORE PUSH1 0x20 PUSH1 0x0 KECCAK256 SWAP1 PUSH1 0x0 SWAP4 JUMPDEST PUSH1 0x1F NOT DUP5 AND DUP6 LT PUSH2 0xA2D JUMPI PUSH1 0x1 SWAP5 POP DUP4 PUSH1 0x1F NOT DUP2 AND LT PUSH2 0xA14 JUMPI JUMPDEST POP POP POP DUP2 SHL ADD PUSH1 0x6 DUP3 ADD SSTORE PUSH2 0x6B1 JUMP JUMPDEST ADD MLOAD PUSH1 0x0 NOT PUSH1 0xF8 DUP5 PUSH1 0x3 SHL AND SHR NOT AND SWAP1 SSTORE DUP9 DUP1 DUP1 PUSH2 0xA04 JUMP JUMPDEST DUP2 DUP2 ADD MLOAD DUP4 SSTORE PUSH1 0x20 SWAP5 DUP6 ADD SWAP5 PUSH1 0x1 SWAP1 SWAP4 ADD SWAP3 SWAP1 SWAP2 ADD SWAP1 PUSH2 0x9E9 JUMP JUMPDEST SWAP1 SWAP2 POP PUSH1 0x6 DUP5 ADD PUSH1 0x0 MSTORE PUSH1 0x20 PUSH1 0x0 KECCAK256 PUSH1 0x1F DUP5 ADD PUSH1 0x5 SHR DUP2 ADD PUSH1 0x20 DUP6 LT PUSH2 0xA94 JUMPI JUMPDEST SWAP1 DUP5 SWAP4 SWAP3 SWAP2 JUMPDEST PUSH1 0x1F DUP4 ADD PUSH1 0x5 SHR DUP3 ADD DUP2 LT PUSH2 0xA85 JUMPI POP POP PUSH2 0x682 JUMP JUMPDEST PUSH1 0x0 DUP2 SSTORE DUP6 SWAP5 POP PUSH1 0x1 ADD PUSH2 0xA6F JUMP JUMPDEST POP DUP1 PUSH2 0xA69 JUMP JUMPDEST ADD MLOAD SWAP1 POP DUP9 DUP1 PUSH2 0x63C JUMP JUMPDEST SWAP3 POP PUSH1 0x5 DUP5 ADD PUSH1 0x0 MSTORE PUSH1 0x20 PUSH1 0x0 KECCAK256 SWAP1 PUSH1 0x0 SWAP4 JUMPDEST PUSH1 0x1F NOT DUP5 AND DUP6 LT PUSH2 0xAFD JUMPI PUSH1 0x1 SWAP5 POP DUP4 PUSH1 0x1F NOT DUP2 AND LT PUSH2 0xAE4 JUMPI JUMPDEST POP POP POP DUP2 SHL ADD PUSH1 0x5 DUP3 ADD SSTORE PUSH2 0x654 JUMP JUMPDEST ADD MLOAD PUSH1 0x0 NOT PUSH1 0xF8 DUP5 PUSH1 0x3 SHL AND SHR NOT AND SWAP1 SSTORE DUP9 DUP1 DUP1 PUSH2 0xAD4 JUMP JUMPDEST DUP2 DUP2 ADD MLOAD DUP4 SSTORE PUSH1 0x20 SWAP5 DUP6 ADD SWAP5 PUSH1 0x1 SWAP1 SWAP4 ADD SWAP3 SWAP1 SWAP2 ADD SWAP1 PUSH2 0xAB9 JUMP JUMPDEST SWAP1 SWAP2 POP PUSH1 0x5 DUP5 ADD PUSH1 0x0 MSTORE PUSH1 0x20 PUSH1 0x0 KECCAK256 PUSH1 0x1F DUP5 ADD PUSH1 0x5 SHR DUP2 ADD PUSH1 0x20 DUP6 LT PUSH2 0xB64 JUMPI JUMPDEST SWAP1 DUP5 SWAP4 SWAP3 SWAP2 JUMPDEST PUSH1 0x1F DUP4 ADD PUSH1 0x5 SHR DUP3 ADD DUP2 LT PUSH2 0xB55 JUMPI POP POP PUSH2 0x625 JUMP JUMPDEST PUSH1 0x0 DUP2 SSTORE DUP6 SWAP5 POP PUSH1 0x1 ADD PUSH2 0xB3F JUMP JUMPDEST POP DUP1 PUSH2 0xB39 JUMP JUMPDEST ADD MLOAD SWAP1 POP DUP9 DUP1 PUSH2 0x5DF JUMP JUMPDEST SWAP3 POP PUSH1 0x4 DUP5 ADD PUSH1 0x0 MSTORE PUSH1 0x20 PUSH1 0x0 KECCAK256 SWAP1 PUSH1 0x0 SWAP4 JUMPDEST PUSH1 0x1F NOT DUP5 AND DUP6 LT PUSH2 0xBCD JUMPI PUSH1 0x1 SWAP5 POP DUP4 PUSH1 0x1F NOT DUP2 AND LT PUSH2 0xBB4 JUMPI JUMPDEST POP POP POP DUP2 SHL ADD PUSH1 0x4 DUP3 ADD SSTORE PUSH2 0x5F7 JUMP JUMPDEST ADD MLOAD PUSH1 0x0 NOT PUSH1 0xF8 DUP5 PUSH1 0x3 SHL AND SHR NOT AND SWAP1 SSTORE DUP9 DUP1 DUP1 PUSH2 0xBA4 JUMP JUMPDEST DUP2 DUP2 ADD MLOAD DUP4 SSTORE PUSH1 0x20 SWAP5 DUP6 ADD SWAP5 PUSH1 0x1 SWAP1 SWAP4 ADD SWAP3 SWAP1 SWAP2 ADD SWAP1 PUSH2 0xB89 JUMP JUMPDEST SWAP1 SWAP2 POP PUSH1 0x4 DUP5 ADD PUSH1 0x0 MSTORE PUSH1 0x20 PUSH1 0x0 KECCAK256 PUSH1 0x1F DUP5 ADD PUSH1 0x5 SHR DUP2 ADD PUSH1 0x20 DUP6 LT PUSH2 0xC34 JUMPI JUMPDEST SWAP1 DUP5 SWAP4 SWAP3 SWAP2 JUMPDEST PUSH1 0x1F DUP4 ADD PUSH1 0x5 SHR DUP3 ADD DUP2 LT PUSH2 0xC25 JUMPI POP POP PUSH2 0x5C8 JUMP JUMPDEST PUSH1 0x0 DUP2 SSTORE DUP6 SWAP5 POP PUSH1 0x1 ADD PUSH2 0xC0F JUMP JUMPDEST POP DUP1 PUSH2 0xC09 JUMP JUMPDEST ADD MLOAD SWAP1 POP DUP9 DUP1 PUSH2 0x582 JUMP JUMPDEST SWAP3 POP PUSH1 0x3 DUP5 ADD PUSH1 0x0 MSTORE PUSH1 0x20 PUSH1 0x0 KECCAK256 SWAP1 PUSH1 0x0 SWAP4 JUMPDEST PUSH1 0x1F NOT DUP5 AND DUP6 LT PUSH2 0xC9D JUMPI PUSH1 0x1 SWAP5 POP DUP4 PUSH1 0x1F NOT DUP2 AND LT PUSH2 0xC84 JUMPI JUMPDEST POP POP POP DUP2 SHL ADD PUSH1 0x3 DUP3 ADD SSTORE PUSH2 0x59A JUMP JUMPDEST ADD MLOAD PUSH1 0x0 NOT PUSH1 0xF8 DUP5 PUSH1 0x3 SHL AND SHR NOT AND SWAP1 SSTORE DUP9 DUP1 DUP1 PUSH2 0xC74 JUMP JUMPDEST DUP2 DUP2 ADD MLOAD DUP4 SSTORE PUSH1 0x20 SWAP5 DUP6 ADD SWAP5 PUSH1 0x1 SWAP1 SWAP4 ADD SWAP3 SWAP1 SWAP2 ADD SWAP1 PUSH2 0xC59 JUMP JUMPDEST SWAP1 SWAP2 POP PUSH1 0x3 DUP5 ADD PUSH1 0x0 MSTORE PUSH1 0x20 PUSH1 0x0 KECCAK256 PUSH1 0x1F DUP5 ADD PUSH1 0x5 SHR DUP2 ADD PUSH1 0x20 DUP6 LT PUSH2 0xD04 JUMPI JUMPDEST SWAP1 DUP5 SWAP4 SWAP3 SWAP2 JUMPDEST PUSH1 0x1F DUP4 ADD PUSH1 0x5 SHR DUP3 ADD DUP2 LT PUSH2 0xCF5 JUMPI POP POP PUSH2 0x56B JUMP JUMPDEST PUSH1 0x0 DUP2 SSTORE DUP6 SWAP5 POP PUSH1 0x1 ADD PUSH2 0xCDF JUMP JUMPDEST POP DUP1 PUSH2 0xCD9 JUMP JUMPDEST ADD MLOAD SWAP1 POP DUP9 DUP1 PUSH2 0x525 JUMP JUMPDEST SWAP3 POP PUSH1 0x2 DUP5 ADD PUSH1 0x0 MSTORE PUSH1 0x20 PUSH1 0x0 KECCAK256 SWAP1 PUSH1 0x0 SWAP4 JUMPDEST PUSH1 0x1F NOT DUP5 AND DUP6 LT PUSH2 0xD6D JUMPI PUSH1 0x1 SWAP5 POP DUP4 PUSH1 0x1F NOT DUP2 AND LT PUSH2 0xD54 JUMPI JUMPDEST POP POP POP DUP2 SHL ADD PUSH1 0x2 DUP3 ADD SSTORE PUSH2 0x53D JUMP JUMPDEST ADD MLOAD PUSH1 0x0 NOT PUSH1 0xF8 DUP5 PUSH1 0x3 SHL AND SHR NOT AND SWAP1 SSTORE DUP9 DUP1 DUP1 PUSH2 0xD44 JUMP JUMPDEST DUP2 DUP2 ADD MLOAD DUP4 SSTORE PUSH1 0x20 SWAP5 DUP6 ADD SWAP5 PUSH1 0x1 SWAP1 SWAP4 ADD SWAP3 SWAP1 SWAP2 ADD SWAP1 PUSH2 0xD29 JUMP JUMPDEST SWAP1 SWAP2 POP PUSH1 0x2 DUP5 ADD PUSH1 0x0 MSTORE PUSH1 0x20 PUSH1 0x0 KECCAK256 PUSH1 0x1F DUP5 ADD PUSH1 0x5 SHR DUP2 ADD PUSH1 0x20 DUP6 LT PUSH2 0xDD4 JUMPI JUMPDEST SWAP1 DUP5 SWAP4 SWAP3 SWAP2 JUMPDEST PUSH1 0x1F DUP4 ADD PUSH1 0x5 SHR DUP3 ADD DUP2 LT PUSH2 0xDC5 JUMPI POP POP PUSH2 0x50E JUMP JUMPDEST PUSH1 0x0 DUP2 SSTORE DUP6 SWAP5 POP PUSH1 0x1 ADD PUSH2 0xDAF JUMP JUMPDEST POP DUP1 PUSH2 0xDA9 JUMP JUMPDEST ADD MLOAD SWAP1 POP DUP9 DUP1 PUSH2 0x4C8 JUMP JUMPDEST SWAP3 POP PUSH1 0x1 DUP5 ADD PUSH1 0x0 MSTORE PUSH1 0x20 PUSH1 0x0 KECCAK256 SWAP1 PUSH1 0x0 SWAP4 JUMPDEST PUSH1 0x1F NOT DUP5 AND DUP6 LT PUSH2 0xE3D JUMPI PUSH1 0x1 SWAP5 POP DUP4 PUSH1 0x1F NOT DUP2 AND LT PUSH2 0xE24 JUMPI JUMPDEST POP POP POP DUP2 SHL ADD PUSH1 0x1 DUP3 ADD SSTORE PUSH2 0x4E0 JUMP JUMPDEST ADD MLOAD PUSH1 0x0 NOT PUSH1 0xF8 DUP5 PUSH1 0x3 SHL AND SHR NOT AND SWAP1 SSTORE DUP9 DUP1 DUP1 PUSH2 0xE14 JUMP JUMPDEST DUP2 DUP2 ADD MLOAD DUP4 SSTORE PUSH1 0x20 SWAP5 DUP6 ADD SWAP5 PUSH1 0x1 SWAP1 SWAP4 ADD SWAP3 SWAP1 SWAP2 ADD SWAP1 PUSH2 0xDF9 JUMP JUMPDEST SWAP1 SWAP2 POP PUSH1 0x1 DUP5 ADD PUSH1 0x0 MSTORE PUSH1 0x20 PUSH1 0x0 KECCAK256 PUSH1 0x1F DUP5 ADD PUSH1 0x5 SHR DUP2 ADD PUSH1 0x20 DUP6 LT PUSH2 0xEA4 JUMPI JUMPDEST SWAP1 DUP5 SWAP4 SWAP3 SWAP2 JUMPDEST PUSH1 0x1F DUP4 ADD PUSH1 0x5 SHR DUP3 ADD DUP2 LT PUSH2 0xE95 JUMPI POP POP PUSH2 0x4B1 JUMP JUMPDEST PUSH1 0x0 DUP2 SSTORE DUP6 SWAP5 POP PUSH1 0x1 ADD PUSH2 0xE7F JUMP JUMPDEST POP DUP1 PUSH2 0xE79 JUMP JUMPDEST ADD MLOAD SWAP1 POP DUP9 DUP1 PUSH2 0x46E JUMP JUMPDEST SWAP3 POP DUP4 PUSH1 0x0 MSTORE PUSH1 0x20 PUSH1 0x0 KECCAK256 SWAP1 PUSH1 0x0 SWAP4 JUMPDEST PUSH1 0x1F NOT DUP5 AND DUP6 LT PUSH2 0xF07 JUMPI PUSH1 0x1 SWAP5 POP DUP4 PUSH1 0x1F NOT DUP2 AND LT PUSH2 0xEEE JUMPI JUMPDEST POP POP POP DUP2 SHL ADD DUP2 SSTORE PUSH2 0x483 JUMP JUMPDEST ADD MLOAD PUSH1 0x0 NOT PUSH1 0xF8 DUP5 PUSH1 0x3 SHL AND SHR NOT AND SWAP1 SSTORE DUP9 DUP1 DUP1 PUSH2 0xEE1 JUMP JUMPDEST DUP2 DUP2 ADD MLOAD DUP4 SSTORE PUSH1 0x20 SWAP5 DUP6 ADD SWAP5 PUSH1 0x1 SWAP1 SWAP4 ADD SWAP3 SWAP1 SWAP2 ADD SWAP1 PUSH2 0xEC6 JUMP JUMPDEST SWAP1 SWAP2 POP DUP4 PUSH1 0x0 MSTORE PUSH1 0x20 PUSH1 0x0 KECCAK256 PUSH1 0x1F DUP5 ADD PUSH1 0x5 SHR DUP2 ADD PUSH1 0x20 DUP6 LT PUSH2 0xF6B JUMPI JUMPDEST SWAP1 DUP5 SWAP4 SWAP3 SWAP2 JUMPDEST PUSH1 0x1F DUP4 ADD PUSH1 0x5 SHR DUP3 ADD DUP2 LT PUSH2 0xF5C JUMPI POP POP PUSH2 0x457 JUMP JUMPDEST PUSH1 0x0 DUP2 SSTORE DUP6 SWAP5 POP PUSH1 0x1 ADD PUSH2 0xF46 JUMP JUMPDEST POP DUP1 PUSH2 0xF40 JUMP JUMPDEST PUSH1 0x40 MLOAD PUSH3 0x461BCD PUSH1 0xE5 SHL DUP2 MSTORE PUSH1 0x20 PUSH1 0x4 DUP3 ADD MSTORE PUSH1 0x2E PUSH1 0x24 DUP3 ADD MSTORE PUSH32 0x557365722077697468207468697320457468657265756D204164647265737320 PUSH1 0x44 DUP3 ADD MSTORE PUSH14 0x616C726561647920657869737473 PUSH1 0x90 SHL PUSH1 0x64 DUP3 ADD MSTORE PUSH1 0x84 SWAP1 REVERT JUMPDEST CALLVALUE PUSH2 0x98 JUMPI PUSH1 0x40 CALLDATASIZE PUSH1 0x3 NOT ADD SLT PUSH2 0x98 JUMPI PUSH1 0x1 PUSH1 0x1 PUSH1 0x40 SHL SUB PUSH1 0x4 CALLDATALOAD DUP2 DUP2 GT PUSH2 0x98 JUMPI PUSH2 0xFFF SWAP1 CALLDATASIZE SWAP1 PUSH1 0x4 ADD PUSH2 0x126F JUMP JUMPDEST SWAP1 PUSH1 0x24 CALLDATALOAD SWAP1 DUP2 GT PUSH2 0x98 JUMPI PUSH2 0x1018 SWAP1 CALLDATASIZE SWAP1 PUSH1 0x4 ADD PUSH2 0x126F JUMP JUMPDEST CALLER PUSH1 0x0 MSTORE PUSH1 0x20 SWAP1 PUSH1 0x0 DUP3 MSTORE PUSH1 0x4 PUSH1 0x40 PUSH1 0x0 KECCAK256 ADD SWAP3 PUSH1 0x40 MLOAD SWAP4 PUSH1 0x0 SWAP5 DUP2 SLOAD SWAP6 DUP2 PUSH2 0x1040 DUP9 PUSH2 0x139F JUMP JUMPDEST SWAP2 DUP3 DUP3 MSTORE DUP8 DUP3 ADD SWAP5 PUSH1 0x1 SWAP10 DUP10 DUP12 DUP3 AND SWAP2 DUP3 PUSH1 0x0 EQ PUSH2 0x1214 JUMPI POP POP PUSH1 0x1 EQ PUSH2 0x11D3 JUMPI JUMPDEST POP PUSH2 0x106F SWAP3 POP SUB DUP3 PUSH2 0x124E JUMP JUMPDEST MLOAD SWAP1 KECCAK256 SWAP1 DUP4 DUP2 MLOAD SWAP2 ADD KECCAK256 SUB PUSH2 0x1197 JUMPI CALLER PUSH1 0x0 MSTORE PUSH1 0x0 DUP3 MSTORE PUSH1 0x5 PUSH1 0x40 PUSH1 0x0 KECCAK256 ADD PUSH1 0x40 MLOAD PUSH1 0x0 SWAP2 DUP2 DUP2 SLOAD SWAP4 PUSH2 0x10A1 DUP6 PUSH2 0x139F JUMP JUMPDEST SWAP3 DUP4 DUP4 MSTORE DUP8 DUP4 ADD SWAP6 DUP9 DUP11 DUP3 AND SWAP2 DUP3 PUSH1 0x0 EQ PUSH2 0x1179 JUMPI POP POP PUSH1 0x1 EQ PUSH2 0x1138 JUMPI JUMPDEST POP PUSH2 0x10CD SWAP3 POP SUB DUP3 PUSH2 0x124E JUMP JUMPDEST MLOAD SWAP1 KECCAK256 SWAP1 DUP3 DUP2 MLOAD SWAP2 ADD KECCAK256 SUB PUSH2 0x10FA JUMPI PUSH1 0x0 SWAP1 CALLER DUP3 MSTORE MSTORE PUSH1 0x8 PUSH1 0x40 PUSH1 0x0 KECCAK256 ADD SWAP1 PUSH1 0xFF NOT DUP3 SLOAD AND OR SWAP1 SSTORE PUSH1 0x0 DUP1 RETURN JUMPDEST PUSH1 0x64 SWAP1 PUSH1 0x40 MLOAD SWAP1 PUSH3 0x461BCD PUSH1 0xE5 SHL DUP3 MSTORE PUSH1 0x4 DUP3 ADD MSTORE PUSH1 0x17 PUSH1 0x24 DUP3 ADD MSTORE PUSH23 0xA0C2E6E6EEDEE4C840C8DECAE640DCDEE840DAC2E8C6D PUSH1 0x4B SHL PUSH1 0x44 DUP3 ADD MSTORE REVERT JUMPDEST SWAP2 POP POP PUSH1 0x0 MSTORE DUP2 DUP6 DUP1 PUSH1 0x0 KECCAK256 DUP9 PUSH1 0x0 SWAP2 JUMPDEST DUP6 DUP4 LT PUSH2 0x1160 JUMPI POP POP PUSH2 0x10CD SWAP4 POP DUP3 ADD ADD DUP9 PUSH2 0x10C0 JUMP JUMPDEST DUP1 SWAP2 SWAP3 SWAP5 POP SLOAD DUP4 DUP6 DUP9 ADD ADD MSTORE ADD SWAP2 ADD DUP7 SWAP1 DUP9 DUP6 SWAP4 PUSH2 0x1149 JUMP JUMPDEST PUSH1 0xFF NOT AND DUP9 MSTORE PUSH2 0x10CD SWAP6 ISZERO ISZERO PUSH1 0x5 SHL DUP6 ADD ADD SWAP3 POP DUP11 SWAP2 POP PUSH2 0x10C0 SWAP1 POP JUMP JUMPDEST PUSH1 0x40 MLOAD PUSH3 0x461BCD PUSH1 0xE5 SHL DUP2 MSTORE PUSH1 0x4 DUP2 ADD DUP4 SWAP1 MSTORE PUSH1 0x14 PUSH1 0x24 DUP3 ADD MSTORE PUSH20 0x8ADAC2D2D840C8DECAE640DCDEE840DAC2E8C6D PUSH1 0x63 SHL PUSH1 0x44 DUP3 ADD MSTORE PUSH1 0x64 SWAP1 REVERT JUMPDEST SWAP2 POP POP PUSH1 0x0 MSTORE DUP2 DUP7 DUP1 PUSH1 0x0 KECCAK256 DUP10 PUSH1 0x0 SWAP2 JUMPDEST DUP6 DUP4 LT PUSH2 0x11FB JUMPI POP POP PUSH2 0x106F SWAP4 POP DUP3 ADD ADD DUP10 PUSH2 0x1062 JUMP JUMPDEST DUP1 SWAP2 SWAP3 SWAP5 POP SLOAD DUP4 DUP6 DUP9 ADD ADD MSTORE ADD SWAP2 ADD DUP8 SWAP1 DUP10 DUP6 SWAP4 PUSH2 0x11E4 JUMP JUMPDEST PUSH1 0xFF NOT AND DUP9 MSTORE PUSH2 0x106F SWAP6 ISZERO ISZERO PUSH1 0x5 SHL DUP6 ADD ADD SWAP3 POP DUP12 SWAP2 POP PUSH2 0x1062 SWAP1 POP JUMP JUMPDEST PUSH2 0x120 DUP2 ADD SWAP1 DUP2 LT PUSH1 0x1 PUSH1 0x1 PUSH1 0x40 SHL SUB DUP3 GT OR PUSH2 0x8F0 JUMPI PUSH1 0x40 MSTORE JUMP JUMPDEST SWAP1 PUSH1 0x1F DUP1 NOT SWAP2 ADD AND DUP2 ADD SWAP1 DUP2 LT PUSH1 0x1 PUSH1 0x1 PUSH1 0x40 SHL SUB DUP3 GT OR PUSH2 0x8F0 JUMPI PUSH1 0x40 MSTORE JUMP JUMPDEST DUP2 PUSH1 0x1F DUP3 ADD SLT ISZERO PUSH2 0x98 JUMPI DUP1 CALLDATALOAD SWAP1 PUSH1 0x1 PUSH1 0x1 PUSH1 0x40 SHL SUB DUP3 GT PUSH2 0x8F0 JUMPI PUSH1 0x40 MLOAD SWAP3 PUSH2 0x12A3 PUSH1 0x1F DUP5 ADD PUSH1 0x1F NOT AND PUSH1 0x20 ADD DUP6 PUSH2 0x124E JUMP JUMPDEST DUP3 DUP5 MSTORE PUSH1 0x20 DUP4 DUP4 ADD ADD GT PUSH2 0x98 JUMPI DUP2 PUSH1 0x0 SWAP3 PUSH1 0x20 DUP1 SWAP4 ADD DUP4 DUP7 ADD CALLDATACOPY DUP4 ADD ADD MSTORE SWAP1 JUMP JUMPDEST PUSH1 0x0 JUMPDEST DUP4 DUP2 LT PUSH2 0x12D8 JUMPI POP POP PUSH1 0x0 SWAP2 ADD MSTORE JUMP JUMPDEST DUP2 DUP2 ADD MLOAD DUP4 DUP3 ADD MSTORE PUSH1 0x20 ADD PUSH2 0x12C8 JUMP JUMPDEST SWAP1 PUSH1 0x20 SWAP2 PUSH2 0x1301 DUP2 MLOAD DUP1 SWAP3 DUP2 DUP6 MSTORE DUP6 DUP1 DUP7 ADD SWAP2 ADD PUSH2 0x12C5 JUMP JUMPDEST PUSH1 0x1F ADD PUSH1 0x1F NOT AND ADD ADD SWAP1 JUMP JUMPDEST SWAP8 SWAP5 PUSH2 0x136D SWAP1 PUSH2 0x135F PUSH2 0x1389 SWAP7 PUSH2 0x1351 DUP13 SWAP14 SWAP15 SWAP14 PUSH2 0x100 SWAP13 SWAP9 PUSH2 0x1343 PUSH2 0x137B SWAP10 PUSH2 0x801 PUSH2 0x1397 SWAP16 SWAP11 PUSH2 0x120 DUP1 DUP8 MSTORE DUP7 ADD SWAP1 PUSH2 0x12E8 JUMP JUMPDEST SWAP2 PUSH1 0x40 DUP2 DUP5 SUB SWAP2 ADD MSTORE PUSH2 0x12E8 JUMP JUMPDEST DUP13 DUP2 SUB PUSH1 0x60 DUP15 ADD MSTORE SWAP1 PUSH2 0x12E8 JUMP JUMPDEST SWAP1 DUP11 DUP3 SUB PUSH1 0x80 DUP13 ADD MSTORE PUSH2 0x12E8 JUMP JUMPDEST SWAP1 DUP9 DUP3 SUB PUSH1 0xA0 DUP11 ADD MSTORE PUSH2 0x12E8 JUMP JUMPDEST SWAP1 DUP7 DUP3 SUB PUSH1 0xC0 DUP9 ADD MSTORE PUSH2 0x12E8 JUMP JUMPDEST SWAP1 DUP5 DUP3 SUB PUSH1 0xE0 DUP7 ADD MSTORE PUSH2 0x12E8 JUMP JUMPDEST SWAP4 ISZERO ISZERO SWAP2 ADD MSTORE JUMP JUMPDEST SWAP1 PUSH1 0x1 DUP3 DUP2 SHR SWAP3 AND DUP1 ISZERO PUSH2 0x13CF JUMPI JUMPDEST PUSH1 0x20 DUP4 LT EQ PUSH2 0x13B9 JUMPI JUMP JUMPDEST PUSH4 0x4E487B71 PUSH1 0xE0 SHL PUSH1 0x0 MSTORE PUSH1 0x22 PUSH1 0x4 MSTORE PUSH1 0x24 PUSH1 0x0 REVERT JUMPDEST SWAP2 PUSH1 0x7F AND SWAP2 PUSH2 0x13AE JUMP JUMPDEST SWAP1 PUSH1 0x40 MLOAD SWAP2 DUP3 PUSH1 0x0 DUP3 SLOAD SWAP3 PUSH2 0x13ED DUP5 PUSH2 0x139F JUMP JUMPDEST SWAP1 DUP2 DUP5 MSTORE PUSH1 0x1 SWAP5 DUP6 DUP2 AND SWAP1 DUP2 PUSH1 0x0 EQ PUSH2 0x145C JUMPI POP PUSH1 0x1 EQ PUSH2 0x1419 JUMPI JUMPDEST POP POP PUSH2 0x1417 SWAP3 POP SUB DUP4 PUSH2 0x124E JUMP JUMPDEST JUMP JUMPDEST SWAP1 SWAP4 SWAP2 POP PUSH1 0x0 MSTORE PUSH1 0x20 SWAP1 DUP2 PUSH1 0x0 KECCAK256 SWAP4 PUSH1 0x0 SWAP2 JUMPDEST DUP2 DUP4 LT PUSH2 0x1444 JUMPI POP POP PUSH2 0x1417 SWAP4 POP DUP3 ADD ADD CODESIZE DUP1 PUSH2 0x1409 JUMP JUMPDEST DUP6 SLOAD DUP9 DUP5 ADD DUP6 ADD MSTORE SWAP5 DUP6 ADD SWAP5 DUP8 SWAP5 POP SWAP2 DUP4 ADD SWAP2 PUSH2 0x142C JUMP JUMPDEST SWAP2 POP POP PUSH2 0x1417 SWAP5 POP PUSH1 0x20 SWAP3 POP PUSH1 0xFF NOT AND DUP3 DUP5 ADD MSTORE ISZERO ISZERO PUSH1 0x5 SHL DUP3 ADD ADD CODESIZE DUP1 PUSH2 0x1409 JUMP INVALID LOG2 PUSH5 0x6970667358 0x22 SLT KECCAK256 CREATE 0xE 0xC7 0xE BLOCKHASH PUSH1 0x97 0xC1 JUMPI 0xB3 MLOAD SWAP16 EQ POP 0xDC 0xD8 LOG3 LOG2 0xB1 PUSH5 0xDCD4A3BDF2 0x21 SWAP16 0x2D 0xAA 0x28 CALLCODE 0xD2 PUSH5 0x736F6C6343 STOP ADDMOD SGT STOP CALLER "},"methodIdentifiers":{"getNameForAddress(address)":"d8c27b9b","getUser(address)":"6f77926b","loginUser(string,string)":"22ce12e5","logoutUser()":"d8f145d2","registerUser(string,string,string,string,string,string,string,string)":"67601dd1","totalUsers()":"bff1f9e1","users(address)":"a87430ba"}}}}}