{"contracts/LandRegistration.sol":{"LandRegistration":{"abi":[{"anonymous":false,"inputs":[{"indexed":true,"internalType":"uint256","name":"landId","type":"uint256"},{"indexed":true,"internalType":"address","name":"owner","type":"address"}],"name":"LandRegistered","type":"event"},{"anonymous":false,"inputs":[{"indexed":true,"internalType":"uint256","name":"landId","type":"uint256"},{"indexed":true,"internalType":"address","name":"from","type":"address"},{"indexed":true,"internalType":"address","name":"to","type":"address"}],"name":"LandTransferred","type":"event"},{"anonymous":false,"inputs":[{"indexed":true,"internalType":"uint256","name":"landId","type":"uint256"},{"indexed":false,"internalType":"string","name":"requestType","type":"string"},{"indexed":true,"internalType":"address","name":"requester","type":"address"}],"name":"RequestAdded","type":"event"},{"anonymous":false,"inputs":[{"indexed":true,"internalType":"uint256","name":"landId","type":"uint256"},{"indexed":false,"internalType":"string","name":"requestType","type":"string"},{"indexed":true,"internalType":"address","name":"verifier","type":"address"}],"name":"RequestVerified","type":"event"},{"inputs":[],"name":"getAllLandDetails","outputs":[{"components":[{"internalType":"uint256","name":"Land_id","type":"uint256"},{"internalType":"string","name":"fullName","type":"string"},{"internalType":"string","name":"fatherName","type":"string"},{"internalType":"string","name":"cnic","type":"string"},{"internalType":"string","name":"email","type":"string"},{"internalType":"string","name":"permanentAddress","type":"string"},{"internalType":"string","name":"temporaryAddress","type":"string"},{"internalType":"string","name":"size","type":"string"},{"internalType":"string","name":"location","type":"string"},{"internalType":"address","name":"owner","type":"address"},{"internalType":"bool","name":"isRegister","type":"bool"}],"internalType":"struct LandRegistration.LandDetails[]","name":"","type":"tuple[]"}],"stateMutability":"view","type":"function"},{"inputs":[{"internalType":"uint256","name":"_landId","type":"uint256"}],"name":"getLandDetails","outputs":[{"internalType":"string","name":"fullName","type":"string"},{"internalType":"string","name":"email","type":"string"},{"internalType":"string","name":"fatherName","type":"string"},{"internalType":"string","name":"cnic","type":"string"},{"internalType":"string","name":"permanentAddress","type":"string"},{"internalType":"string","name":"temporaryAddress","type":"string"},{"internalType":"string","name":"_size","type":"string"},{"internalType":"string","name":"_location","type":"string"},{"internalType":"address","name":"owner","type":"address"}],"stateMutability":"view","type":"function"},{"inputs":[],"name":"getPendingRequests","outputs":[{"components":[{"internalType":"uint256","name":"Land_id","type":"uint256"},{"internalType":"string","name":"fullName","type":"string"},{"internalType":"string","name":"fatherName","type":"string"},{"internalType":"string","name":"cnic","type":"string"},{"internalType":"string","name":"email","type":"string"},{"internalType":"string","name":"permanentAddress","type":"string"},{"internalType":"string","name":"temporaryAddress","type":"string"},{"internalType":"string","name":"size","type":"string"},{"internalType":"string","name":"location","type":"string"},{"internalType":"address","name":"owner","type":"address"},{"internalType":"string","name":"requestType","type":"string"}],"internalType":"struct LandRegistration.PendingRequest[]","name":"","type":"tuple[]"}],"stateMutability":"view","type":"function"},{"inputs":[],"name":"landCounter","outputs":[{"internalType":"uint256","name":"","type":"uint256"}],"stateMutability":"view","type":"function"},{"inputs":[{"internalType":"uint256","name":"","type":"uint256"}],"name":"landRegistry","outputs":[{"internalType":"uint256","name":"Land_id","type":"uint256"},{"internalType":"string","name":"fullName","type":"string"},{"internalType":"string","name":"fatherName","type":"string"},{"internalType":"string","name":"cnic","type":"string"},{"internalType":"string","name":"email","type":"string"},{"internalType":"string","name":"permanentAddress","type":"string"},{"internalType":"string","name":"temporaryAddress","type":"string"},{"internalType":"string","name":"size","type":"string"},{"internalType":"string","name":"location","type":"string"},{"internalType":"address","name":"owner","type":"address"},{"internalType":"bool","name":"isRegister","type":"bool"}],"stateMutability":"view","type":"function"},{"inputs":[{"internalType":"uint256","name":"","type":"uint256"}],"name":"pendingRequests","outputs":[{"internalType":"uint256","name":"Land_id","type":"uint256"},{"internalType":"string","name":"fullName","type":"string"},{"internalType":"string","name":"fatherName","type":"string"},{"internalType":"string","name":"cnic","type":"string"},{"internalType":"string","name":"email","type":"string"},{"internalType":"string","name":"permanentAddress","type":"string"},{"internalType":"string","name":"temporaryAddress","type":"string"},{"internalType":"string","name":"size","type":"string"},{"internalType":"string","name":"location","type":"string"},{"internalType":"address","name":"owner","type":"address"},{"internalType":"string","name":"requestType","type":"string"}],"stateMutability":"view","type":"function"},{"inputs":[{"internalType":"string","name":"_fullName","type":"string"},{"internalType":"uint256","name":"_Land_id","type":"uint256"},{"internalType":"string","name":"_size","type":"string"},{"internalType":"string","name":"_location","type":"string"},{"internalType":"string","name":"_fatherName","type":"string"},{"internalType":"string","name":"_email","type":"string"},{"internalType":"string","name":"_cnic","type":"string"},{"internalType":"string","name":"_permanentAddress","type":"string"},{"internalType":"string","name":"_temporaryAddress","type":"string"}],"name":"registerLand","outputs":[],"stateMutability":"nonpayable","type":"function"},{"inputs":[{"internalType":"uint256","name":"","type":"uint256"}],"name":"registeredLandIds","outputs":[{"internalType":"uint256","name":"","type":"uint256"}],"stateMutability":"view","type":"function"},{"inputs":[{"internalType":"uint256","name":"_landId","type":"uint256"},{"internalType":"address","name":"_recipient","type":"address"},{"internalType":"string","name":"_recipientName","type":"string"},{"internalType":"string","name":"_recipientCnic","type":"string"},{"internalType":"string","name":"_recipientfatherName","type":"string"},{"internalType":"string","name":"_currentAddress","type":"string"},{"internalType":"string","name":"_permanentAddress","type":"string"},{"internalType":"string","name":"_email","type":"string"}],"name":"transferLand","outputs":[],"stateMutability":"nonpayable","type":"function"},{"inputs":[{"internalType":"uint256","name":"_landId","type":"uint256"},{"internalType":"string","name":"_fullName","type":"string"},{"internalType":"string","name":"_fatherName","type":"string"},{"internalType":"string","name":"_cnic","type":"string"},{"internalType":"string","name":"_permanentAddress","type":"string"},{"internalType":"string","name":"_size","type":"string"},{"internalType":"string","name":"_location","type":"string"},{"internalType":"string","name":"_temporaryAddress","type":"string"}],"name":"updateLandDetails","outputs":[],"stateMutability":"nonpayable","type":"function"},{"inputs":[{"internalType":"uint256","name":"_index","type":"uint256"}],"name":"verifyRequest","outputs":[],"stateMutability":"nonpayable","type":"function"}],"evm":{"bytecode":{"linkReferences":{},"object":"608080604052346100165761324c908161001c8239f35b600080fdfe6080604052600436101561001257600080fd5b60003560e01c806309c05b0e146122b65780633c652a9a146121585780634abac37b14611ffd5780637ae6da9b14610f815780637ce411f9146108ac57806380a1f712146106ed5780639e29ce18146106cf578063a3695b1814610589578063a6ac704e1461026b578063da5f55e9146102345763fe0cb7dc1461009557600080fd5b3461022f57602036600319011261022f5760043560005260006020526040600020604051906100c38261243b565b805482526100d360018201612558565b60208301908152906100e760028201612558565b60408401908152926100fb60038301612558565b6060820190815261010e60048401612558565b608083019081529461012260058501612558565b60a0840190815261013560068601612558565b60c0850190815261014860078701612558565b60e086019081529161015c60088801612558565b946101009786898901526009015498600160a01b600190038a16976101209a898c83015260a01c60ff16151590610140015251995194519051915192519351946040519a8a8c9b8c528b016101b0916125fe565b8a810360208c01526101c1916125fe565b89810360408b01526101d2916125fe565b88810360608a01526101e3916125fe565b87810360808901526101f4916125fe565b86810360a0880152610205916125fe565b85810360c0870152610216916125fe565b84810360e0860152610227916125fe565b918301520390f35b600080fd5b3461022f57602036600319011261022f5760043560025481101561022f5761025d60209161263e565b90546040519160031b1c8152f35b3461022f57600036600319011261022f576001805461028981612ff8565b906102976040519283612472565b8082526102a6601f1991612ff8565b0160005b81811061052957505060028054906000805b8381106103fa578486604051918291602090818401828552835180915260408501928060408360051b8801019501936000905b8382106102fc5787870388f35b918496819592949698508190603f198b8203018552895190815181526103c86103b46103a261038f61037c6103696103566103448a8a0151610160808d8c01528a01906125fe565b60408a015189820360408b01526125fe565b6060808a015190898303908a01526125fe565b60808089015190888303908901526125fe565b60a08088015190878303908801526125fe565b60c08087015190868303908701526125fe565b60e085015184820360e08601526125fe565b6101008085015190848303908501526125fe565b9161012060018060a01b03818301511690830152610140809101511515910152980192019201879695939194926102ef565b856104048261263e565b9054600391821b1c6000526020600081526040600020906009820154928760a09260ff86851c169687610448575b5050505050505050610443906130d2565b6102bc565b9461051b97946104956104439a9b98956104896104e39660089661047e6104739c6040519d8e61243b565b88548e528801612558565b908c01528501612558565b60408a01528301612558565b60608801526104a660048301612558565b60808801526104b760058301612558565b908701526104c760068201612558565b60c08701526104d860078201612558565b60e087015201612558565b6101008401526001600160a01b0316610120830152151561014082015261050a8289613202565b526105158188613202565b506130d2565b91908780808087818c610432565b6020906040516105388161243b565b6000815260608390808284015280604084015280808401528060808401528060a08401528060c08401528060e0840152610100830152600061012083015260006101408301528286010152016102aa565b3461022f57602036600319011261022f57600435600052600060205260406000208054600182016105b990612558565b916105c660028201612558565b906105d360038201612558565b6105df60048301612558565b6105eb60058401612558565b6105f760068501612558565b9161060460078601612558565b9361061160088701612558565b956009015496604051998a998a526101608060208c01528a01610633916125fe565b89810360408b0152610644916125fe565b88810360608a0152610655916125fe565b8781036080890152610666916125fe565b86810360a0880152610677916125fe565b85810360c0870152610688916125fe565b84810360e0860152610699916125fe565b8381036101008501526106ab916125fe565b90600160a01b60019003811661012084015260a01c60ff1615156101408301520390f35b3461022f57600036600319011261022f576020600154604051908152f35b3461022f57600036600319011261022f5760035461070a81612ff8565b906107186040519283612472565b80825260036000908152602091828401917fc2575a0e9e593c00f959f8c92f12db2869c3395a3b0502d05e2516446f71f85b835b8383106108895750505050604051918083019381845251809452604083019360408160051b85010192916000955b8287106107875785850386f35b909192938280610879600193603f198a820301865288518051825261085361083f61082d61081a6108076107f46107e16107cf8b8901518c61016080918d01528b01906125fe565b60408901518a820360408c01526125fe565b606080890151908a8303908b01526125fe565b60808088015190898303908a01526125fe565b60a08087015190888303908901526125fe565b60c08086015190878303908801526125fe565b60e084015185820360e08701526125fe565b6101008084015190858303908601526125fe565b91610120878060a01b0381840151169082015261014080920151918184039101526125fe565b960192019601959291909261077a565b600b8660019261089b859a999a61300f565b81520192019201919095949561074c565b3461022f5761010036600319011261022f576004356024356001600160401b03811161022f576108e0903690600401612493565b906044356001600160401b03811161022f57610900903690600401612493565b916064356001600160401b03811161022f57610920903690600401612493565b6084356001600160401b03811161022f5761093f903690600401612493565b60a4356001600160401b03811161022f5761095e903690600401612493565b9160c4356001600160401b03811161022f5761097e903690600401612493565b9560e4356001600160401b03811161022f5761099e903690600401612493565b958060005260006020526109c360018060a01b03600960406000200154163314612f7d565b600052600060205260406000209480516001600160401b038111610c9c578060018801926109fb826109f5865461251e565b86612694565b602090601f8311600114610f1557600092610f0a575b50508160011b916000199060031b1c19161790555b8051906001600160401b038211610c9c578190610a5382610a4a60028a015461251e565b60028a01612694565b602090601f8311600114610e9d57600092610e92575b50508160011b916000199060031b1c19161760028501555b8051906001600160401b038211610c9c578190610aae82610aa5600389015461251e565b60038901612694565b602090601f8311600114610e2057600092610e15575b50508160011b916000199060031b1c19161760038401555b8051906001600160401b038211610c9c578190610b0982610b00600588015461251e565b60058801612694565b602090601f8311600114610da357600092610d98575b50508160011b916000199060031b1c19161760058301555b805160078301916001600160401b038211610c9c578190610b5c826109f5865461251e565b602090601f8311600114610d3257600092610d27575b50508160011b916000199060031b1c19161790555b6008810183516001600160401b038111610c9c57610baf81610ba9845461251e565b84612694565b6020601f8211600114610cbd57819060069596600092610cb2575b50508160011b916000199060031b1c19161790555b0181516001600160401b038111610c9c57610bfe81610ba9845461251e565b602092601f8211600114610c3b5792819293600092610c30575b5050600019600383901b1c191660019190911b179055005b015190508380610c18565b601f198216938360005260206000209160005b868110610c845750836001959610610c6b575b505050811b019055005b015160001960f88460031b161c19169055838080610c61565b91926020600181928685015181550194019201610c4e565b634e487b7160e01b600052604160045260246000fd5b015190508680610bca565b601f198216958360005260206000209660005b818110610d0f5750916006969791846001959410610cf6575b505050811b019055610bdf565b015160001960f88460031b161c19169055868080610ce9565b83830151895560019098019760209384019301610cd0565b015190508680610b72565b6000858152602081209350601f198516905b818110610d805750908460019594939210610d67575b505050811b019055610b87565b015160001960f88460031b161c19169055868080610d5a565b92936020600181928786015181550195019301610d44565b015190508680610b1f565b9250600585016000526020600020906000935b601f1984168510610dfa576001945083601f19811610610de1575b505050811b016005830155610b37565b015160001960f88460031b161c19169055868080610dd1565b81810151835560209485019460019093019290910190610db6565b015190508780610ac4565b9250600386016000526020600020906000935b601f1984168510610e77576001945083601f19811610610e5e575b505050811b016003840155610adc565b015160001960f88460031b161c19169055878080610e4e565b81810151835560209485019460019093019290910190610e33565b015190508880610a69565b600288016000908152602081209350601f198516905b818110610ef25750908460019594939210610ed9575b505050811b016002850155610a81565b015160001960f88460031b161c19169055888080610ec9565b92936020600181928786015181550195019301610eb3565b015190508a80610a11565b9250836000526020600020906000935b601f1984168510610f66576001945083601f19811610610f4d575b505050811b019055610a26565b015160001960f88460031b161c191690558a8080610f40565b81810151835560209485019460019093019290910190610f25565b3461022f57602036600319011261022f57610fa6610fa06004356124e9565b5061300f565b61014081015160208151910120610fbb612659565b6020815191012014600014611a495760e081015190610100810151602082015190825193608084015160408501519060608601519060a08701519160c08801519360018060a01b036101208a015116976040519a6110188c61243b565b8b5260208b015260408a01526060890152608088015260a087015260c086015260e0850152610100840152610120830152600161014083015261105c6001546130d2565b6001558051600254600160401b811015610c9c57806001611080920160025561263e565b90918254908260031b1b916000199060031b1b1916179055805160005260006020526040600020908251825560208301519283516001600160401b038111610c9c576110dc816110d3600187015461251e565b60018701612694565b6020601f82116001146119da5781929394956000926119cf575b50508160011b916000199060031b1c19161760018401555b60408101519283516001600160401b038111610c9c5761113e81611135600285015461251e565b60028501612694565b6020601f8211600114611960578192939495600092611955575b50508160011b916000199060031b1c19161760028201555b60608201519283516001600160401b038111610c9c576111a081611197600386015461251e565b60038601612694565b6020601f82116001146118e65781929394956000926118db575b50508160011b916000199060031b1c19161760038301555b60808301519283516001600160401b038111610c9c57611202816111f9600487015461251e565b60048701612694565b6020601f821160011461186c578192939495600092611861575b50508160011b916000199060031b1c19161760048401555b60a08101519283516001600160401b038111610c9c576112648161125b600585015461251e565b60058501612694565b6020601f82116001146117f25781929394956000926117e7575b50508160011b916000199060031b1c19161760058201555b60c08201519283516001600160401b038111610c9c576112c6816112bd600686015461251e565b60068601612694565b6020601f821160011461177857819293949560009261176d575b50508160011b916000199060031b1c19161760068301555b60e08301519283516001600160401b038111610c9c576113288161131f600787015461251e565b60078701612694565b6020601f82116001146116fe5781929394956000926116f3575b50508160011b916000199060031b1c19161760078401555b6101008101519283516001600160401b038111610c9c5761138b81611382600885015461251e565b60088501612694565b6020601f82116001146116805781906009949596600092611675575b50508160011b916000199060031b1c19161760088201555b61012080840151929091018054610140909401516001600160a81b03199094166001600160a01b039384161793151560a01b60ff60a01b169390931790925582519183015116907fcb4990052f95f6057496d19524f6c3163f50af9f33f2c15b092928e03414323e600080a35b60038054806004351015611640576000199080820190811161162a57611451906124e9565b5061145d6004356124e9565b61153f5781810361156b575b50508154801561155557019061147e826124e9565b61153f57600a8160006114f89355611498600182016131b9565b6114a4600282016131b9565b6114af8482016131b9565b6114bb600482016131b9565b6114c7600582016131b9565b6114d3600682016131b9565b6114df600782016131b9565b6114eb600882016131b9565b60006009820155016131b9565b556101408151910151907fbf3747916bbe426e0fd532a54a21bcf371c5ca55c33adbfd8b43756bb1bea938604051602081528061153a339560208301906125fe565b0390a3005b634e487b7160e01b600052600060045260246000fd5b634e487b7160e01b600052603160045260246000fd5b600a80836116239454845561158660018201600186016130e1565b61159660028201600286016130e1565b6115a48782018886016130e1565b6115b460048201600486016130e1565b6115c460058201600586016130e1565b6115d460068201600686016130e1565b6115e460078201600786016130e1565b6115f460088201600886016130e1565b60098181015490850180546001600160a01b0319166001600160a01b03929092169190911790550191016130e1565b8380611469565b634e487b7160e01b600052601160045260246000fd5b60405162461bcd60e51b815260206004820152600d60248201526c092dcecc2d8d2c840d2dcc8caf609b1b6044820152606490fd5b0151905086806113a7565b6008830160005260206000209560005b601f19841681106116db57509582916009959697600194601f198116106116c2575b505050811b0160088201556113bf565b015160001960f88460031b161c191690558680806116b2565b82820151885560019097019660209283019201611690565b015190508580611342565b6007850160005260206000209060005b601f1984168110611755575060019394959683601f1981161061173c575b505050811b01600784015561135a565b015160001960f88460031b161c1916905585808061172c565b9091602060018192858b01518155019301910161170e565b0151905085806112e0565b6006840160005260206000209060005b601f19841681106117cf575060019394959683601f198116106117b6575b505050811b0160068301556112f8565b015160001960f88460031b161c191690558580806117a6565b9091602060018192858b015181550193019101611788565b01519050858061127e565b6005830160005260206000209060005b601f1984168110611849575060019394959683601f19811610611830575b505050811b016005820155611296565b015160001960f88460031b161c19169055858080611820565b9091602060018192858b015181550193019101611802565b01519050858061121c565b6004850160005260206000209060005b601f19841681106118c3575060019394959683601f198116106118aa575b505050811b016004840155611234565b015160001960f88460031b161c1916905585808061189a565b9091602060018192858b01518155019301910161187c565b0151905085806111ba565b6003840160005260206000209060005b601f198416811061193d575060019394959683601f19811610611924575b505050811b0160038301556111d2565b015160001960f88460031b161c19169055858080611914565b9091602060018192858b0151815501930191016118f6565b015190508580611158565b6002830160005260206000209060005b601f19841681106119b7575060019394959683601f1981161061199e575b505050811b016002820155611170565b015160001960f88460031b161c1916905585808061198e565b9091602060018192858b015181550193019101611970565b0151905085806110f6565b6001850160005260206000209060005b601f1984168110611a31575060019394959683601f19811610611a18575b505050811b01600184015561110e565b015160001960f88460031b161c19169055858080611a08565b9091602060018192858b0151815501930191016119ea565b61014081015160208151910120611a5e612fd4565b602081519101200361142c578051600052600060205260018060a01b036009604060002001541660018060a01b0361012083015116825160005260096040600020019060018060a01b03198254161790556020820151918051600052600160406000200183516001600160401b038111610c9c57611ae081610ba9845461251e565b6020601f8211600114611f94578192939495600092611f89575b50508160011b916000199060031b1c19161790555b60608101519181516000526000602052600360406000200183516001600160401b038111610c9c57611b4581610ba9845461251e565b6020601f8211600114611f20578192939495600092611f15575b50508160011b916000199060031b1c19161790555b60808201519180516000526000602052600460406000200183516001600160401b038111610c9c57611baa81610ba9845461251e565b6020601f8211600114611eac578192939495600092611ea1575b50508160011b916000199060031b1c19161790555b60408101519181516000526000602052600260406000200183516001600160401b038111610c9c57611c0f81610ba9845461251e565b6020601f8211600114611e38578192939495600092611e2d575b50508160011b916000199060031b1c19161790555b60c08201519180516000526000602052600660406000200183516001600160401b038111610c9c57611c7481610ba9845461251e565b6020601f8211600114611dc4578192939495600092611db9575b50508160011b916000199060031b1c19161790555b60a08101519181516000526000602052600560406000200183516001600160401b038111610c9c57611cd981610ba9845461251e565b6020601f8211600114611d50578192939495600092611d45575b50508160011b916000199060031b1c19161790555b81516101208301516001600160a01b031691907f1080b2f211753e5090f26ef7ffdc6bb3e66a125c7290200d10b502160bb1f566600080a461142c565b015190508580611cf3565b8260005260206000209060005b601f1984168110611da1575060019394959683601f19811610611d88575b505050811b019055611d08565b015160001960f88460031b161c19169055858080611d7b565b9091602060018192858b015181550193019101611d5d565b015190508580611c8e565b8260005260206000209060005b601f1984168110611e15575060019394959683601f19811610611dfc575b505050811b019055611ca3565b015160001960f88460031b161c19169055858080611def565b9091602060018192858b015181550193019101611dd1565b015190508580611c29565b8260005260206000209060005b601f1984168110611e89575060019394959683601f19811610611e70575b505050811b019055611c3e565b015160001960f88460031b161c19169055858080611e63565b9091602060018192858b015181550193019101611e45565b015190508580611bc4565b8260005260206000209060005b601f1984168110611efd575060019394959683601f19811610611ee4575b505050811b019055611bd9565b015160001960f88460031b161c19169055858080611ed7565b9091602060018192858b015181550193019101611eb9565b015190508580611b5f565b8260005260206000209060005b601f1984168110611f71575060019394959683601f19811610611f58575b505050811b019055611b74565b015160001960f88460031b161c19169055858080611f4b565b9091602060018192858b015181550193019101611f2d565b015190508580611afa565b8260005260206000209060005b601f1984168110611fe5575060019394959683601f19811610611fcc575b505050811b019055611b0f565b015160001960f88460031b161c19169055858080611fbf565b9091602060018192858b015181550193019101611fa1565b3461022f5761012036600319011261022f576001600160401b0360043581811161022f5761202f903690600401612493565b60243560443583811161022f5761204a903690600401612493565b60643584811161022f57612062903690600401612493565b9060843585811161022f5761207b903690600401612493565b9460a43581811161022f57612094903690600401612493565b9060c43581811161022f576120ad903690600401612493565b9160e43582811161022f576120c6903690600401612493565b916101043590811161022f576120e0903690600401612493565b9286600052600060205260ff60096040600020015460a01c166121135761211198612109612659565b9833986126d9565b005b60405162461bcd60e51b815260206004820152601a60248201527f4c616e6420697320416c726561647920526567697374657265640000000000006044820152606490fd5b3461022f57602036600319011261022f5760043560035481101561022f5761217f906124e9565b50805461218e60018301612558565b9161219b60028201612558565b906121a860038201612558565b6121b460048301612558565b6121c060058401612558565b6121cc60068501612558565b906121d960078601612558565b926121e660088701612558565b60098701546001600160a01b03169690959061220490600a01612558565b976040519a8b9a8b526101608060208d01528b01612221916125fe565b8a810360408c0152612232916125fe565b89810360608b0152612243916125fe565b88810360808a0152612254916125fe565b87810360a0890152612265916125fe565b86810360c0880152612276916125fe565b85810360e0870152612287916125fe565b848103610100860152612299916125fe565b906101208401528281036101408401526122b2916125fe565b0390f35b3461022f5761010036600319011261022f576001600160a01b03600435602435828116810361022f576001600160401b0360443581811161022f576122ff903690600401612493565b9060643581811161022f57612318903690600401612493565b9460843582811161022f57612331903690600401612493565b9160a43581811161022f5761234a903690600401612493565b9160c43582811161022f57612363903690600401612493565b9160e43590811161022f5761237f61239a913690600401612493565b91886000526000602052600960406000200154163314612f7d565b86600052600060205260ff60096040600020015460a01c16156123fd57612111978760005260006020526123d46007604060002001612558565b948860005260006020526123ee6008604060002001612558565b966123f7612fd4565b996126d9565b60405162461bcd60e51b815260206004820152601660248201527513185b99081a5cc81b9bdd081c9959da5cdd195c995960521b6044820152606490fd5b61016081019081106001600160401b03821117610c9c57604052565b604081019081106001600160401b03821117610c9c57604052565b90601f801991011681019081106001600160401b03821117610c9c57604052565b81601f8201121561022f578035906001600160401b038211610c9c57604051926124c7601f8401601f191660200185612472565b8284526020838301011161022f57816000926020809301838601378301015290565b600354811015612508576003600052600b602060002091020190600090565b634e487b7160e01b600052603260045260246000fd5b90600182811c9216801561254e575b602083101461253857565b634e487b7160e01b600052602260045260246000fd5b91607f169161252d565b906040519182600082549261256c8461251e565b9081845260019485811690816000146125db5750600114612598575b505061259692500383612472565b565b9093915060005260209081600020936000915b8183106125c357505061259693508201013880612588565b855488840185015294850194879450918301916125ab565b91505061259694506020925060ff191682840152151560051b8201013880612588565b919082519283825260005b84811061262a575050826000602080949584010152601f8019910116010190565b602081830181015184830182015201612609565b60025481101561250857600260005260206000200190600090565b6040519061266682612457565b60088252673932b3b4b9ba32b960c11b6020830152565b818110612688575050565b6000815560010161267d565b9190601f81116126a357505050565b612596926000526020600020906020601f840160051c830193106126cf575b601f0160051c019061267d565b90915081906126c2565b989794919693909592604051976126ef8961243b565b8a89526020890197885260408901526060880152608087015260a086015260c085015260e08401526101008301526001600160a01b0383166101208301526101408201859052600354600160401b811015610c9c5780600161275492016003556124e9565b91909161153f5782518255518051906001600160401b038211610c9c578190612784826110d3600187015461251e565b602090601f8311600114612f0b57600092612f00575b50508160011b916000199060031b1c19161760018201555b60408201518051906001600160401b038211610c9c5781906127e4826127db600287015461251e565b60028701612694565b602090601f8311600114612e8e57600092612e83575b50508160011b916000199060031b1c19161760028201555b60608201518051906001600160401b038211610c9c5781906128448261283b600387015461251e565b60038701612694565b602090601f8311600114612e1157600092612e06575b50508160011b916000199060031b1c19161760038201555b60808201518051906001600160401b038211610c9c57819061289b826111f9600487015461251e565b602090601f8311600114612d9457600092612d89575b50508160011b916000199060031b1c19161760048201555b60a08201518051906001600160401b038211610c9c5781906128fb826128f2600587015461251e565b60058701612694565b602090601f8311600114612d1757600092612d0c575b50508160011b916000199060031b1c19161760058201555b60c08201518051906001600160401b038211610c9c57819061295b82612952600687015461251e565b60068701612694565b602090601f8311600114612c9a57600092612c8f575b50508160011b916000199060031b1c19161760068201555b60e08201518051906001600160401b038211610c9c5781906129b28261131f600787015461251e565b602090601f8311600114612c1d57600092612c12575b50508160011b916000199060031b1c19161760078201555b61010082015180516001600160401b038111610c9c576008830191612a0f82612a09855461251e565b85612694565b602090601f8311600114612ba3579180600a94926101409694600092612b98575b50508160011b916000199060031b1c19161790555b6009810160018060a01b036101208601511660018060a01b0319825416179055019101518051906001600160401b038211610c9c57612a8882612a09855461251e565b602090601f8311600114612b0a579180612afa94927f90b328f02ed250ff4bf17cafcbd924782f15c92b3a87a4082e92ae216e1822c29694600092612aff575b50508160011b916000199060031b1c19161790555b6040519182916020835260018060a01b03169560208301906125fe565b0390a3565b015190503880612ac8565b90601f198316918460005260206000209260005b818110612b8057509260019285927f90b328f02ed250ff4bf17cafcbd924782f15c92b3a87a4082e92ae216e1822c29896612afa989610612b67575b505050811b019055612add565b015160001960f88460031b161c19169055388080612b5a565b92936020600181928786015181550195019301612b1e565b015190503880612a30565b90601f198316918460005260206000209260005b818110612bfa57509260019285926101409896600a989610612be1575b505050811b019055612a45565b015160001960f88460031b161c19169055388080612bd4565b92936020600181928786015181550195019301612bb7565b0151905038806129c8565b9250600784016000526020600020906000935b601f1984168510612c74576001945083601f19811610612c5b575b505050811b0160078201556129e0565b015160001960f88460031b161c19169055388080612c4b565b81810151835560209485019460019093019290910190612c30565b015190503880612971565b9250600684016000526020600020906000935b601f1984168510612cf1576001945083601f19811610612cd8575b505050811b016006820155612989565b015160001960f88460031b161c19169055388080612cc8565b81810151835560209485019460019093019290910190612cad565b015190503880612911565b9250600584016000526020600020906000935b601f1984168510612d6e576001945083601f19811610612d55575b505050811b016005820155612929565b015160001960f88460031b161c19169055388080612d45565b81810151835560209485019460019093019290910190612d2a565b0151905038806128b1565b9250600484016000526020600020906000935b601f1984168510612deb576001945083601f19811610612dd2575b505050811b0160048201556128c9565b015160001960f88460031b161c19169055388080612dc2565b81810151835560209485019460019093019290910190612da7565b01519050388061285a565b9250600384016000526020600020906000935b601f1984168510612e68576001945083601f19811610612e4f575b505050811b016003820155612872565b015160001960f88460031b161c19169055388080612e3f565b81810151835560209485019460019093019290910190612e24565b0151905038806127fa565b9250600284016000526020600020906000935b601f1984168510612ee5576001945083601f19811610612ecc575b505050811b016002820155612812565b015160001960f88460031b161c19169055388080612ebc565b81810151835560209485019460019093019290910190612ea1565b01519050388061279a565b9250600184016000526020600020906000935b601f1984168510612f62576001945083601f19811610612f49575b505050811b0160018201556127b2565b015160001960f88460031b161c19169055388080612f39565b81810151835560209485019460019093019290910190612f1e565b15612f8457565b60405162461bcd60e51b815260206004820152602260248201527f596f7520617265206e6f7420746865206f776e6572206f662074686973206c616044820152611b9960f21b6064820152608490fd5b60405190612fe182612457565b60088252673a3930b739b332b960c11b6020830152565b6001600160401b038111610c9c5760051b60200190565b9060405161301c8161243b565b6101406130cd600a83958054855261303660018201612558565b602086015261304760028201612558565b604086015261305860038201612558565b606086015261306960048201612558565b608086015261307a60058201612558565b60a086015261308b60068201612558565b60c086015261309c60078201612558565b60e08601526130ad60088201612558565b61010086015260098101546001600160a01b031661012086015201612558565b910152565b600019811461162a5760010190565b908082146131b5576130f3815461251e565b906001600160401b038211610c9c578190613112826109f5865461251e565b600090601f83116001146131495760009261313e575b50508160011b916000199060031b1c1916179055565b015490503880613128565b81526020808220858352818320935090601f1985169083905b82821061319c575050908460019594939210613183575b505050811b019055565b015460001960f88460031b161c19169055388080613179565b8495819295850154815560018091019601940190613162565b5050565b6131c3815461251e565b90816131cd575050565b81601f600093116001146131df575055565b9080839182526131fe601f60208420940160051c84016001850161267d565b5555565b80518210156125085760209160051b01019056fea2646970667358221220c8c48a336772b0301da12f323ce383e4a0be075a3b2cba82574053b34516026f64736f6c63430008130033","opcodes":"PUSH1 0x80 DUP1 PUSH1 0x40 MSTORE CALLVALUE PUSH2 0x16 JUMPI PUSH2 0x324C SWAP1 DUP2 PUSH2 0x1C DUP3 CODECOPY RETURN JUMPDEST PUSH1 0x0 DUP1 REVERT INVALID PUSH1 0x80 PUSH1 0x40 MSTORE PUSH1 0x4 CALLDATASIZE LT ISZERO PUSH2 0x12 JUMPI PUSH1 0x0 DUP1 REVERT JUMPDEST PUSH1 0x0 CALLDATALOAD PUSH1 0xE0 SHR DUP1 PUSH4 0x9C05B0E EQ PUSH2 0x22B6 JUMPI DUP1 PUSH4 0x3C652A9A EQ PUSH2 0x2158 JUMPI DUP1 PUSH4 0x4ABAC37B EQ PUSH2 0x1FFD JUMPI DUP1 PUSH4 0x7AE6DA9B EQ PUSH2 0xF81 JUMPI DUP1 PUSH4 0x7CE411F9 EQ PUSH2 0x8AC JUMPI DUP1 PUSH4 0x80A1F712 EQ PUSH2 0x6ED JUMPI DUP1 PUSH4 0x9E29CE18 EQ PUSH2 0x6CF JUMPI DUP1 PUSH4 0xA3695B18 EQ PUSH2 0x589 JUMPI DUP1 PUSH4 0xA6AC704E EQ PUSH2 0x26B JUMPI DUP1 PUSH4 0xDA5F55E9 EQ PUSH2 0x234 JUMPI PUSH4 0xFE0CB7DC EQ PUSH2 0x95 JUMPI PUSH1 0x0 DUP1 REVERT JUMPDEST CALLVALUE PUSH2 0x22F JUMPI PUSH1 0x20 CALLDATASIZE PUSH1 0x3 NOT ADD SLT PUSH2 0x22F JUMPI PUSH1 0x4 CALLDATALOAD PUSH1 0x0 MSTORE PUSH1 0x0 PUSH1 0x20 MSTORE PUSH1 0x40 PUSH1 0x0 KECCAK256 PUSH1 0x40 MLOAD SWAP1 PUSH2 0xC3 DUP3 PUSH2 0x243B JUMP JUMPDEST DUP1 SLOAD DUP3 MSTORE PUSH2 0xD3 PUSH1 0x1 DUP3 ADD PUSH2 0x2558 JUMP JUMPDEST PUSH1 0x20 DUP4 ADD SWAP1 DUP2 MSTORE SWAP1 PUSH2 0xE7 PUSH1 0x2 DUP3 ADD PUSH2 0x2558 JUMP JUMPDEST PUSH1 0x40 DUP5 ADD SWAP1 DUP2 MSTORE SWAP3 PUSH2 0xFB PUSH1 0x3 DUP4 ADD PUSH2 0x2558 JUMP JUMPDEST PUSH1 0x60 DUP3 ADD SWAP1 DUP2 MSTORE PUSH2 0x10E PUSH1 0x4 DUP5 ADD PUSH2 0x2558 JUMP JUMPDEST PUSH1 0x80 DUP4 ADD SWAP1 DUP2 MSTORE SWAP5 PUSH2 0x122 PUSH1 0x5 DUP6 ADD PUSH2 0x2558 JUMP JUMPDEST PUSH1 0xA0 DUP5 ADD SWAP1 DUP2 MSTORE PUSH2 0x135 PUSH1 0x6 DUP7 ADD PUSH2 0x2558 JUMP JUMPDEST PUSH1 0xC0 DUP6 ADD SWAP1 DUP2 MSTORE PUSH2 0x148 PUSH1 0x7 DUP8 ADD PUSH2 0x2558 JUMP JUMPDEST PUSH1 0xE0 DUP7 ADD SWAP1 DUP2 MSTORE SWAP2 PUSH2 0x15C PUSH1 0x8 DUP9 ADD PUSH2 0x2558 JUMP JUMPDEST SWAP5 PUSH2 0x100 SWAP8 DUP7 DUP10 DUP10 ADD MSTORE PUSH1 0x9 ADD SLOAD SWAP9 PUSH1 0x1 PUSH1 0xA0 SHL PUSH1 0x1 SWAP1 SUB DUP11 AND SWAP8 PUSH2 0x120 SWAP11 DUP10 DUP13 DUP4 ADD MSTORE PUSH1 0xA0 SHR PUSH1 0xFF AND ISZERO ISZERO SWAP1 PUSH2 0x140 ADD MSTORE MLOAD SWAP10 MLOAD SWAP5 MLOAD SWAP1 MLOAD SWAP2 MLOAD SWAP3 MLOAD SWAP4 MLOAD SWAP5 PUSH1 0x40 MLOAD SWAP11 DUP11 DUP13 SWAP12 DUP13 MSTORE DUP12 ADD PUSH2 0x1B0 SWAP2 PUSH2 0x25FE JUMP JUMPDEST DUP11 DUP2 SUB PUSH1 0x20 DUP13 ADD MSTORE PUSH2 0x1C1 SWAP2 PUSH2 0x25FE JUMP JUMPDEST DUP10 DUP2 SUB PUSH1 0x40 DUP12 ADD MSTORE PUSH2 0x1D2 SWAP2 PUSH2 0x25FE JUMP JUMPDEST DUP9 DUP2 SUB PUSH1 0x60 DUP11 ADD MSTORE PUSH2 0x1E3 SWAP2 PUSH2 0x25FE JUMP JUMPDEST DUP8 DUP2 SUB PUSH1 0x80 DUP10 ADD MSTORE PUSH2 0x1F4 SWAP2 PUSH2 0x25FE JUMP JUMPDEST DUP7 DUP2 SUB PUSH1 0xA0 DUP9 ADD MSTORE PUSH2 0x205 SWAP2 PUSH2 0x25FE JUMP JUMPDEST DUP6 DUP2 SUB PUSH1 0xC0 DUP8 ADD MSTORE PUSH2 0x216 SWAP2 PUSH2 0x25FE JUMP JUMPDEST DUP5 DUP2 SUB PUSH1 0xE0 DUP7 ADD MSTORE PUSH2 0x227 SWAP2 PUSH2 0x25FE JUMP JUMPDEST SWAP2 DUP4 ADD MSTORE SUB SWAP1 RETURN JUMPDEST PUSH1 0x0 DUP1 REVERT JUMPDEST CALLVALUE PUSH2 0x22F JUMPI PUSH1 0x20 CALLDATASIZE PUSH1 0x3 NOT ADD SLT PUSH2 0x22F JUMPI PUSH1 0x4 CALLDATALOAD PUSH1 0x2 SLOAD DUP2 LT ISZERO PUSH2 0x22F JUMPI PUSH2 0x25D PUSH1 0x20 SWAP2 PUSH2 0x263E JUMP JUMPDEST SWAP1 SLOAD PUSH1 0x40 MLOAD SWAP2 PUSH1 0x3 SHL SHR DUP2 MSTORE RETURN JUMPDEST CALLVALUE PUSH2 0x22F JUMPI PUSH1 0x0 CALLDATASIZE PUSH1 0x3 NOT ADD SLT PUSH2 0x22F JUMPI PUSH1 0x1 DUP1 SLOAD PUSH2 0x289 DUP2 PUSH2 0x2FF8 JUMP JUMPDEST SWAP1 PUSH2 0x297 PUSH1 0x40 MLOAD SWAP3 DUP4 PUSH2 0x2472 JUMP JUMPDEST DUP1 DUP3 MSTORE PUSH2 0x2A6 PUSH1 0x1F NOT SWAP2 PUSH2 0x2FF8 JUMP JUMPDEST ADD PUSH1 0x0 JUMPDEST DUP2 DUP2 LT PUSH2 0x529 JUMPI POP POP PUSH1 0x2 DUP1 SLOAD SWAP1 PUSH1 0x0 DUP1 JUMPDEST DUP4 DUP2 LT PUSH2 0x3FA JUMPI DUP5 DUP7 PUSH1 0x40 MLOAD SWAP2 DUP3 SWAP2 PUSH1 0x20 SWAP1 DUP2 DUP5 ADD DUP3 DUP6 MSTORE DUP4 MLOAD DUP1 SWAP2 MSTORE PUSH1 0x40 DUP6 ADD SWAP3 DUP1 PUSH1 0x40 DUP4 PUSH1 0x5 SHL DUP9 ADD ADD SWAP6 ADD SWAP4 PUSH1 0x0 SWAP1 JUMPDEST DUP4 DUP3 LT PUSH2 0x2FC JUMPI DUP8 DUP8 SUB DUP9 RETURN JUMPDEST SWAP2 DUP5 SWAP7 DUP2 SWAP6 SWAP3 SWAP5 SWAP7 SWAP9 POP DUP2 SWAP1 PUSH1 0x3F NOT DUP12 DUP3 SUB ADD DUP6 MSTORE DUP10 MLOAD SWAP1 DUP2 MLOAD DUP2 MSTORE PUSH2 0x3C8 PUSH2 0x3B4 PUSH2 0x3A2 PUSH2 0x38F PUSH2 0x37C PUSH2 0x369 PUSH2 0x356 PUSH2 0x344 DUP11 DUP11 ADD MLOAD PUSH2 0x160 DUP1 DUP14 DUP13 ADD MSTORE DUP11 ADD SWAP1 PUSH2 0x25FE JUMP JUMPDEST PUSH1 0x40 DUP11 ADD MLOAD DUP10 DUP3 SUB PUSH1 0x40 DUP12 ADD MSTORE PUSH2 0x25FE JUMP JUMPDEST PUSH1 0x60 DUP1 DUP11 ADD MLOAD SWAP1 DUP10 DUP4 SUB SWAP1 DUP11 ADD MSTORE PUSH2 0x25FE JUMP JUMPDEST PUSH1 0x80 DUP1 DUP10 ADD MLOAD SWAP1 DUP9 DUP4 SUB SWAP1 DUP10 ADD MSTORE PUSH2 0x25FE JUMP JUMPDEST PUSH1 0xA0 DUP1 DUP9 ADD MLOAD SWAP1 DUP8 DUP4 SUB SWAP1 DUP9 ADD MSTORE PUSH2 0x25FE JUMP JUMPDEST PUSH1 0xC0 DUP1 DUP8 ADD MLOAD SWAP1 DUP7 DUP4 SUB SWAP1 DUP8 ADD MSTORE PUSH2 0x25FE JUMP JUMPDEST PUSH1 0xE0 DUP6 ADD MLOAD DUP5 DUP3 SUB PUSH1 0xE0 DUP7 ADD MSTORE PUSH2 0x25FE JUMP JUMPDEST PUSH2 0x100 DUP1 DUP6 ADD MLOAD SWAP1 DUP5 DUP4 SUB SWAP1 DUP6 ADD MSTORE PUSH2 0x25FE JUMP JUMPDEST SWAP2 PUSH2 0x120 PUSH1 0x1 DUP1 PUSH1 0xA0 SHL SUB DUP2 DUP4 ADD MLOAD AND SWAP1 DUP4 ADD MSTORE PUSH2 0x140 DUP1 SWAP2 ADD MLOAD ISZERO ISZERO SWAP2 ADD MSTORE SWAP9 ADD SWAP3 ADD SWAP3 ADD DUP8 SWAP7 SWAP6 SWAP4 SWAP2 SWAP5 SWAP3 PUSH2 0x2EF JUMP JUMPDEST DUP6 PUSH2 0x404 DUP3 PUSH2 0x263E JUMP JUMPDEST SWAP1 SLOAD PUSH1 0x3 SWAP2 DUP3 SHL SHR PUSH1 0x0 MSTORE PUSH1 0x20 PUSH1 0x0 DUP2 MSTORE PUSH1 0x40 PUSH1 0x0 KECCAK256 SWAP1 PUSH1 0x9 DUP3 ADD SLOAD SWAP3 DUP8 PUSH1 0xA0 SWAP3 PUSH1 0xFF DUP7 DUP6 SHR AND SWAP7 DUP8 PUSH2 0x448 JUMPI JUMPDEST POP POP POP POP POP POP POP POP PUSH2 0x443 SWAP1 PUSH2 0x30D2 JUMP JUMPDEST PUSH2 0x2BC JUMP JUMPDEST SWAP5 PUSH2 0x51B SWAP8 SWAP5 PUSH2 0x495 PUSH2 0x443 SWAP11 SWAP12 SWAP9 SWAP6 PUSH2 0x489 PUSH2 0x4E3 SWAP7 PUSH1 0x8 SWAP7 PUSH2 0x47E PUSH2 0x473 SWAP13 PUSH1 0x40 MLOAD SWAP14 DUP15 PUSH2 0x243B JUMP JUMPDEST DUP9 SLOAD DUP15 MSTORE DUP9 ADD PUSH2 0x2558 JUMP JUMPDEST SWAP1 DUP13 ADD MSTORE DUP6 ADD PUSH2 0x2558 JUMP JUMPDEST PUSH1 0x40 DUP11 ADD MSTORE DUP4 ADD PUSH2 0x2558 JUMP JUMPDEST PUSH1 0x60 DUP9 ADD MSTORE PUSH2 0x4A6 PUSH1 0x4 DUP4 ADD PUSH2 0x2558 JUMP JUMPDEST PUSH1 0x80 DUP9 ADD MSTORE PUSH2 0x4B7 PUSH1 0x5 DUP4 ADD PUSH2 0x2558 JUMP JUMPDEST SWAP1 DUP8 ADD MSTORE PUSH2 0x4C7 PUSH1 0x6 DUP3 ADD PUSH2 0x2558 JUMP JUMPDEST PUSH1 0xC0 DUP8 ADD MSTORE PUSH2 0x4D8 PUSH1 0x7 DUP3 ADD PUSH2 0x2558 JUMP JUMPDEST PUSH1 0xE0 DUP8 ADD MSTORE ADD PUSH2 0x2558 JUMP JUMPDEST PUSH2 0x100 DUP5 ADD MSTORE PUSH1 0x1 PUSH1 0x1 PUSH1 0xA0 SHL SUB AND PUSH2 0x120 DUP4 ADD MSTORE ISZERO ISZERO PUSH2 0x140 DUP3 ADD MSTORE PUSH2 0x50A DUP3 DUP10 PUSH2 0x3202 JUMP JUMPDEST MSTORE PUSH2 0x515 DUP2 DUP9 PUSH2 0x3202 JUMP JUMPDEST POP PUSH2 0x30D2 JUMP JUMPDEST SWAP2 SWAP1 DUP8 DUP1 DUP1 DUP1 DUP8 DUP2 DUP13 PUSH2 0x432 JUMP JUMPDEST PUSH1 0x20 SWAP1 PUSH1 0x40 MLOAD PUSH2 0x538 DUP2 PUSH2 0x243B JUMP JUMPDEST PUSH1 0x0 DUP2 MSTORE PUSH1 0x60 DUP4 SWAP1 DUP1 DUP3 DUP5 ADD MSTORE DUP1 PUSH1 0x40 DUP5 ADD MSTORE DUP1 DUP1 DUP5 ADD MSTORE DUP1 PUSH1 0x80 DUP5 ADD MSTORE DUP1 PUSH1 0xA0 DUP5 ADD MSTORE DUP1 PUSH1 0xC0 DUP5 ADD MSTORE DUP1 PUSH1 0xE0 DUP5 ADD MSTORE PUSH2 0x100 DUP4 ADD MSTORE PUSH1 0x0 PUSH2 0x120 DUP4 ADD MSTORE PUSH1 0x0 PUSH2 0x140 DUP4 ADD MSTORE DUP3 DUP7 ADD ADD MSTORE ADD PUSH2 0x2AA JUMP JUMPDEST CALLVALUE PUSH2 0x22F JUMPI PUSH1 0x20 CALLDATASIZE PUSH1 0x3 NOT ADD SLT PUSH2 0x22F JUMPI PUSH1 0x4 CALLDATALOAD PUSH1 0x0 MSTORE PUSH1 0x0 PUSH1 0x20 MSTORE PUSH1 0x40 PUSH1 0x0 KECCAK256 DUP1 SLOAD PUSH1 0x1 DUP3 ADD PUSH2 0x5B9 SWAP1 PUSH2 0x2558 JUMP JUMPDEST SWAP2 PUSH2 0x5C6 PUSH1 0x2 DUP3 ADD PUSH2 0x2558 JUMP JUMPDEST SWAP1 PUSH2 0x5D3 PUSH1 0x3 DUP3 ADD PUSH2 0x2558 JUMP JUMPDEST PUSH2 0x5DF PUSH1 0x4 DUP4 ADD PUSH2 0x2558 JUMP JUMPDEST PUSH2 0x5EB PUSH1 0x5 DUP5 ADD PUSH2 0x2558 JUMP JUMPDEST PUSH2 0x5F7 PUSH1 0x6 DUP6 ADD PUSH2 0x2558 JUMP JUMPDEST SWAP2 PUSH2 0x604 PUSH1 0x7 DUP7 ADD PUSH2 0x2558 JUMP JUMPDEST SWAP4 PUSH2 0x611 PUSH1 0x8 DUP8 ADD PUSH2 0x2558 JUMP JUMPDEST SWAP6 PUSH1 0x9 ADD SLOAD SWAP7 PUSH1 0x40 MLOAD SWAP10 DUP11 SWAP10 DUP11 MSTORE PUSH2 0x160 DUP1 PUSH1 0x20 DUP13 ADD MSTORE DUP11 ADD PUSH2 0x633 SWAP2 PUSH2 0x25FE JUMP JUMPDEST DUP10 DUP2 SUB PUSH1 0x40 DUP12 ADD MSTORE PUSH2 0x644 SWAP2 PUSH2 0x25FE JUMP JUMPDEST DUP9 DUP2 SUB PUSH1 0x60 DUP11 ADD MSTORE PUSH2 0x655 SWAP2 PUSH2 0x25FE JUMP JUMPDEST DUP8 DUP2 SUB PUSH1 0x80 DUP10 ADD MSTORE PUSH2 0x666 SWAP2 PUSH2 0x25FE JUMP JUMPDEST DUP7 DUP2 SUB PUSH1 0xA0 DUP9 ADD MSTORE PUSH2 0x677 SWAP2 PUSH2 0x25FE JUMP JUMPDEST DUP6 DUP2 SUB PUSH1 0xC0 DUP8 ADD MSTORE PUSH2 0x688 SWAP2 PUSH2 0x25FE JUMP JUMPDEST DUP5 DUP2 SUB PUSH1 0xE0 DUP7 ADD MSTORE PUSH2 0x699 SWAP2 PUSH2 0x25FE JUMP JUMPDEST DUP4 DUP2 SUB PUSH2 0x100 DUP6 ADD MSTORE PUSH2 0x6AB SWAP2 PUSH2 0x25FE JUMP JUMPDEST SWAP1 PUSH1 0x1 PUSH1 0xA0 SHL PUSH1 0x1 SWAP1 SUB DUP2 AND PUSH2 0x120 DUP5 ADD MSTORE PUSH1 0xA0 SHR PUSH1 0xFF AND ISZERO ISZERO PUSH2 0x140 DUP4 ADD MSTORE SUB SWAP1 RETURN JUMPDEST CALLVALUE PUSH2 0x22F JUMPI PUSH1 0x0 CALLDATASIZE PUSH1 0x3 NOT ADD SLT PUSH2 0x22F JUMPI PUSH1 0x20 PUSH1 0x1 SLOAD PUSH1 0x40 MLOAD SWAP1 DUP2 MSTORE RETURN JUMPDEST CALLVALUE PUSH2 0x22F JUMPI PUSH1 0x0 CALLDATASIZE PUSH1 0x3 NOT ADD SLT PUSH2 0x22F JUMPI PUSH1 0x3 SLOAD PUSH2 0x70A DUP2 PUSH2 0x2FF8 JUMP JUMPDEST SWAP1 PUSH2 0x718 PUSH1 0x40 MLOAD SWAP3 DUP4 PUSH2 0x2472 JUMP JUMPDEST DUP1 DUP3 MSTORE PUSH1 0x3 PUSH1 0x0 SWAP1 DUP2 MSTORE PUSH1 0x20 SWAP2 DUP3 DUP5 ADD SWAP2 PUSH32 0xC2575A0E9E593C00F959F8C92F12DB2869C3395A3B0502D05E2516446F71F85B DUP4 JUMPDEST DUP4 DUP4 LT PUSH2 0x889 JUMPI POP POP POP POP PUSH1 0x40 MLOAD SWAP2 DUP1 DUP4 ADD SWAP4 DUP2 DUP5 MSTORE MLOAD DUP1 SWAP5 MSTORE PUSH1 0x40 DUP4 ADD SWAP4 PUSH1 0x40 DUP2 PUSH1 0x5 SHL DUP6 ADD ADD SWAP3 SWAP2 PUSH1 0x0 SWAP6 JUMPDEST DUP3 DUP8 LT PUSH2 0x787 JUMPI DUP6 DUP6 SUB DUP7 RETURN JUMPDEST SWAP1 SWAP2 SWAP3 SWAP4 DUP3 DUP1 PUSH2 0x879 PUSH1 0x1 SWAP4 PUSH1 0x3F NOT DUP11 DUP3 SUB ADD DUP7 MSTORE DUP9 MLOAD DUP1 MLOAD DUP3 MSTORE PUSH2 0x853 PUSH2 0x83F PUSH2 0x82D PUSH2 0x81A PUSH2 0x807 PUSH2 0x7F4 PUSH2 0x7E1 PUSH2 0x7CF DUP12 DUP10 ADD MLOAD DUP13 PUSH2 0x160 DUP1 SWAP2 DUP14 ADD MSTORE DUP12 ADD SWAP1 PUSH2 0x25FE JUMP JUMPDEST PUSH1 0x40 DUP10 ADD MLOAD DUP11 DUP3 SUB PUSH1 0x40 DUP13 ADD MSTORE PUSH2 0x25FE JUMP JUMPDEST PUSH1 0x60 DUP1 DUP10 ADD MLOAD SWAP1 DUP11 DUP4 SUB SWAP1 DUP12 ADD MSTORE PUSH2 0x25FE JUMP JUMPDEST PUSH1 0x80 DUP1 DUP9 ADD MLOAD SWAP1 DUP10 DUP4 SUB SWAP1 DUP11 ADD MSTORE PUSH2 0x25FE JUMP JUMPDEST PUSH1 0xA0 DUP1 DUP8 ADD MLOAD SWAP1 DUP9 DUP4 SUB SWAP1 DUP10 ADD MSTORE PUSH2 0x25FE JUMP JUMPDEST PUSH1 0xC0 DUP1 DUP7 ADD MLOAD SWAP1 DUP8 DUP4 SUB SWAP1 DUP9 ADD MSTORE PUSH2 0x25FE JUMP JUMPDEST PUSH1 0xE0 DUP5 ADD MLOAD DUP6 DUP3 SUB PUSH1 0xE0 DUP8 ADD MSTORE PUSH2 0x25FE JUMP JUMPDEST PUSH2 0x100 DUP1 DUP5 ADD MLOAD SWAP1 DUP6 DUP4 SUB SWAP1 DUP7 ADD MSTORE PUSH2 0x25FE JUMP JUMPDEST SWAP2 PUSH2 0x120 DUP8 DUP1 PUSH1 0xA0 SHL SUB DUP2 DUP5 ADD MLOAD AND SWAP1 DUP3 ADD MSTORE PUSH2 0x140 DUP1 SWAP3 ADD MLOAD SWAP2 DUP2 DUP5 SUB SWAP2 ADD MSTORE PUSH2 0x25FE JUMP JUMPDEST SWAP7 ADD SWAP3 ADD SWAP7 ADD SWAP6 SWAP3 SWAP2 SWAP1 SWAP3 PUSH2 0x77A JUMP JUMPDEST PUSH1 0xB DUP7 PUSH1 0x1 SWAP3 PUSH2 0x89B DUP6 SWAP11 SWAP10 SWAP11 PUSH2 0x300F JUMP JUMPDEST DUP2 MSTORE ADD SWAP3 ADD SWAP3 ADD SWAP2 SWAP1 SWAP6 SWAP5 SWAP6 PUSH2 0x74C JUMP JUMPDEST CALLVALUE PUSH2 0x22F JUMPI PUSH2 0x100 CALLDATASIZE PUSH1 0x3 NOT ADD SLT PUSH2 0x22F JUMPI PUSH1 0x4 CALLDATALOAD PUSH1 0x24 CALLDATALOAD PUSH1 0x1 PUSH1 0x1 PUSH1 0x40 SHL SUB DUP2 GT PUSH2 0x22F JUMPI PUSH2 0x8E0 SWAP1 CALLDATASIZE SWAP1 PUSH1 0x4 ADD PUSH2 0x2493 JUMP JUMPDEST SWAP1 PUSH1 0x44 CALLDATALOAD PUSH1 0x1 PUSH1 0x1 PUSH1 0x40 SHL SUB DUP2 GT PUSH2 0x22F JUMPI PUSH2 0x900 SWAP1 CALLDATASIZE SWAP1 PUSH1 0x4 ADD PUSH2 0x2493 JUMP JUMPDEST SWAP2 PUSH1 0x64 CALLDATALOAD PUSH1 0x1 PUSH1 0x1 PUSH1 0x40 SHL SUB DUP2 GT PUSH2 0x22F JUMPI PUSH2 0x920 SWAP1 CALLDATASIZE SWAP1 PUSH1 0x4 ADD PUSH2 0x2493 JUMP JUMPDEST PUSH1 0x84 CALLDATALOAD PUSH1 0x1 PUSH1 0x1 PUSH1 0x40 SHL SUB DUP2 GT PUSH2 0x22F JUMPI PUSH2 0x93F SWAP1 CALLDATASIZE SWAP1 PUSH1 0x4 ADD PUSH2 0x2493 JUMP JUMPDEST PUSH1 0xA4 CALLDATALOAD PUSH1 0x1 PUSH1 0x1 PUSH1 0x40 SHL SUB DUP2 GT PUSH2 0x22F JUMPI PUSH2 0x95E SWAP1 CALLDATASIZE SWAP1 PUSH1 0x4 ADD PUSH2 0x2493 JUMP JUMPDEST SWAP2 PUSH1 0xC4 CALLDATALOAD PUSH1 0x1 PUSH1 0x1 PUSH1 0x40 SHL SUB DUP2 GT PUSH2 0x22F JUMPI PUSH2 0x97E SWAP1 CALLDATASIZE SWAP1 PUSH1 0x4 ADD PUSH2 0x2493 JUMP JUMPDEST SWAP6 PUSH1 0xE4 CALLDATALOAD PUSH1 0x1 PUSH1 0x1 PUSH1 0x40 SHL SUB DUP2 GT PUSH2 0x22F JUMPI PUSH2 0x99E SWAP1 CALLDATASIZE SWAP1 PUSH1 0x4 ADD PUSH2 0x2493 JUMP JUMPDEST SWAP6 DUP1 PUSH1 0x0 MSTORE PUSH1 0x0 PUSH1 0x20 MSTORE PUSH2 0x9C3 PUSH1 0x1 DUP1 PUSH1 0xA0 SHL SUB PUSH1 0x9 PUSH1 0x40 PUSH1 0x0 KECCAK256 ADD SLOAD AND CALLER EQ PUSH2 0x2F7D JUMP JUMPDEST PUSH1 0x0 MSTORE PUSH1 0x0 PUSH1 0x20 MSTORE PUSH1 0x40 PUSH1 0x0 KECCAK256 SWAP5 DUP1 MLOAD PUSH1 0x1 PUSH1 0x1 PUSH1 0x40 SHL SUB DUP2 GT PUSH2 0xC9C JUMPI DUP1 PUSH1 0x1 DUP9 ADD SWAP3 PUSH2 0x9FB DUP3 PUSH2 0x9F5 DUP7 SLOAD PUSH2 0x251E JUMP JUMPDEST DUP7 PUSH2 0x2694 JUMP JUMPDEST PUSH1 0x20 SWAP1 PUSH1 0x1F DUP4 GT PUSH1 0x1 EQ PUSH2 0xF15 JUMPI PUSH1 0x0 SWAP3 PUSH2 0xF0A JUMPI JUMPDEST POP POP DUP2 PUSH1 0x1 SHL SWAP2 PUSH1 0x0 NOT SWAP1 PUSH1 0x3 SHL SHR NOT AND OR SWAP1 SSTORE JUMPDEST DUP1 MLOAD SWAP1 PUSH1 0x1 PUSH1 0x1 PUSH1 0x40 SHL SUB DUP3 GT PUSH2 0xC9C JUMPI DUP2 SWAP1 PUSH2 0xA53 DUP3 PUSH2 0xA4A PUSH1 0x2 DUP11 ADD SLOAD PUSH2 0x251E JUMP JUMPDEST PUSH1 0x2 DUP11 ADD PUSH2 0x2694 JUMP JUMPDEST PUSH1 0x20 SWAP1 PUSH1 0x1F DUP4 GT PUSH1 0x1 EQ PUSH2 0xE9D JUMPI PUSH1 0x0 SWAP3 PUSH2 0xE92 JUMPI JUMPDEST POP POP DUP2 PUSH1 0x1 SHL SWAP2 PUSH1 0x0 NOT SWAP1 PUSH1 0x3 SHL SHR NOT AND OR PUSH1 0x2 DUP6 ADD SSTORE JUMPDEST DUP1 MLOAD SWAP1 PUSH1 0x1 PUSH1 0x1 PUSH1 0x40 SHL SUB DUP3 GT PUSH2 0xC9C JUMPI DUP2 SWAP1 PUSH2 0xAAE DUP3 PUSH2 0xAA5 PUSH1 0x3 DUP10 ADD SLOAD PUSH2 0x251E JUMP JUMPDEST PUSH1 0x3 DUP10 ADD PUSH2 0x2694 JUMP JUMPDEST PUSH1 0x20 SWAP1 PUSH1 0x1F DUP4 GT PUSH1 0x1 EQ PUSH2 0xE20 JUMPI PUSH1 0x0 SWAP3 PUSH2 0xE15 JUMPI JUMPDEST POP POP DUP2 PUSH1 0x1 SHL SWAP2 PUSH1 0x0 NOT SWAP1 PUSH1 0x3 SHL SHR NOT AND OR PUSH1 0x3 DUP5 ADD SSTORE JUMPDEST DUP1 MLOAD SWAP1 PUSH1 0x1 PUSH1 0x1 PUSH1 0x40 SHL SUB DUP3 GT PUSH2 0xC9C JUMPI DUP2 SWAP1 PUSH2 0xB09 DUP3 PUSH2 0xB00 PUSH1 0x5 DUP9 ADD SLOAD PUSH2 0x251E JUMP JUMPDEST PUSH1 0x5 DUP9 ADD PUSH2 0x2694 JUMP JUMPDEST PUSH1 0x20 SWAP1 PUSH1 0x1F DUP4 GT PUSH1 0x1 EQ PUSH2 0xDA3 JUMPI PUSH1 0x0 SWAP3 PUSH2 0xD98 JUMPI JUMPDEST POP POP DUP2 PUSH1 0x1 SHL SWAP2 PUSH1 0x0 NOT SWAP1 PUSH1 0x3 SHL SHR NOT AND OR PUSH1 0x5 DUP4 ADD SSTORE JUMPDEST DUP1 MLOAD PUSH1 0x7 DUP4 ADD SWAP2 PUSH1 0x1 PUSH1 0x1 PUSH1 0x40 SHL SUB DUP3 GT PUSH2 0xC9C JUMPI DUP2 SWAP1 PUSH2 0xB5C DUP3 PUSH2 0x9F5 DUP7 SLOAD PUSH2 0x251E JUMP JUMPDEST PUSH1 0x20 SWAP1 PUSH1 0x1F DUP4 GT PUSH1 0x1 EQ PUSH2 0xD32 JUMPI PUSH1 0x0 SWAP3 PUSH2 0xD27 JUMPI JUMPDEST POP POP DUP2 PUSH1 0x1 SHL SWAP2 PUSH1 0x0 NOT SWAP1 PUSH1 0x3 SHL SHR NOT AND OR SWAP1 SSTORE JUMPDEST PUSH1 0x8 DUP2 ADD DUP4 MLOAD PUSH1 0x1 PUSH1 0x1 PUSH1 0x40 SHL SUB DUP2 GT PUSH2 0xC9C JUMPI PUSH2 0xBAF DUP2 PUSH2 0xBA9 DUP5 SLOAD PUSH2 0x251E JUMP JUMPDEST DUP5 PUSH2 0x2694 JUMP JUMPDEST PUSH1 0x20 PUSH1 0x1F DUP3 GT PUSH1 0x1 EQ PUSH2 0xCBD JUMPI DUP2 SWAP1 PUSH1 0x6 SWAP6 SWAP7 PUSH1 0x0 SWAP3 PUSH2 0xCB2 JUMPI JUMPDEST POP POP DUP2 PUSH1 0x1 SHL SWAP2 PUSH1 0x0 NOT SWAP1 PUSH1 0x3 SHL SHR NOT AND OR SWAP1 SSTORE JUMPDEST ADD DUP2 MLOAD PUSH1 0x1 PUSH1 0x1 PUSH1 0x40 SHL SUB DUP2 GT PUSH2 0xC9C JUMPI PUSH2 0xBFE DUP2 PUSH2 0xBA9 DUP5 SLOAD PUSH2 0x251E JUMP JUMPDEST PUSH1 0x20 SWAP3 PUSH1 0x1F DUP3 GT PUSH1 0x1 EQ PUSH2 0xC3B JUMPI SWAP3 DUP2 SWAP3 SWAP4 PUSH1 0x0 SWAP3 PUSH2 0xC30 JUMPI JUMPDEST POP POP PUSH1 0x0 NOT PUSH1 0x3 DUP4 SWAP1 SHL SHR NOT AND PUSH1 0x1 SWAP2 SWAP1 SWAP2 SHL OR SWAP1 SSTORE STOP JUMPDEST ADD MLOAD SWAP1 POP DUP4 DUP1 PUSH2 0xC18 JUMP JUMPDEST PUSH1 0x1F NOT DUP3 AND SWAP4 DUP4 PUSH1 0x0 MSTORE PUSH1 0x20 PUSH1 0x0 KECCAK256 SWAP2 PUSH1 0x0 JUMPDEST DUP7 DUP2 LT PUSH2 0xC84 JUMPI POP DUP4 PUSH1 0x1 SWAP6 SWAP7 LT PUSH2 0xC6B JUMPI JUMPDEST POP POP POP DUP2 SHL ADD SWAP1 SSTORE STOP JUMPDEST ADD MLOAD PUSH1 0x0 NOT PUSH1 0xF8 DUP5 PUSH1 0x3 SHL AND SHR NOT AND SWAP1 SSTORE DUP4 DUP1 DUP1 PUSH2 0xC61 JUMP JUMPDEST SWAP2 SWAP3 PUSH1 0x20 PUSH1 0x1 DUP2 SWAP3 DUP7 DUP6 ADD MLOAD DUP2 SSTORE ADD SWAP5 ADD SWAP3 ADD PUSH2 0xC4E JUMP JUMPDEST PUSH4 0x4E487B71 PUSH1 0xE0 SHL PUSH1 0x0 MSTORE PUSH1 0x41 PUSH1 0x4 MSTORE PUSH1 0x24 PUSH1 0x0 REVERT JUMPDEST ADD MLOAD SWAP1 POP DUP7 DUP1 PUSH2 0xBCA JUMP JUMPDEST PUSH1 0x1F NOT DUP3 AND SWAP6 DUP4 PUSH1 0x0 MSTORE PUSH1 0x20 PUSH1 0x0 KECCAK256 SWAP7 PUSH1 0x0 JUMPDEST DUP2 DUP2 LT PUSH2 0xD0F JUMPI POP SWAP2 PUSH1 0x6 SWAP7 SWAP8 SWAP2 DUP5 PUSH1 0x1 SWAP6 SWAP5 LT PUSH2 0xCF6 JUMPI JUMPDEST POP POP POP DUP2 SHL ADD SWAP1 SSTORE PUSH2 0xBDF JUMP JUMPDEST ADD MLOAD PUSH1 0x0 NOT PUSH1 0xF8 DUP5 PUSH1 0x3 SHL AND SHR NOT AND SWAP1 SSTORE DUP7 DUP1 DUP1 PUSH2 0xCE9 JUMP JUMPDEST DUP4 DUP4 ADD MLOAD DUP10 SSTORE PUSH1 0x1 SWAP1 SWAP9 ADD SWAP8 PUSH1 0x20 SWAP4 DUP5 ADD SWAP4 ADD PUSH2 0xCD0 JUMP JUMPDEST ADD MLOAD SWAP1 POP DUP7 DUP1 PUSH2 0xB72 JUMP JUMPDEST PUSH1 0x0 DUP6 DUP2 MSTORE PUSH1 0x20 DUP2 KECCAK256 SWAP4 POP PUSH1 0x1F NOT DUP6 AND SWAP1 JUMPDEST DUP2 DUP2 LT PUSH2 0xD80 JUMPI POP SWAP1 DUP5 PUSH1 0x1 SWAP6 SWAP5 SWAP4 SWAP3 LT PUSH2 0xD67 JUMPI JUMPDEST POP POP POP DUP2 SHL ADD SWAP1 SSTORE PUSH2 0xB87 JUMP JUMPDEST ADD MLOAD PUSH1 0x0 NOT PUSH1 0xF8 DUP5 PUSH1 0x3 SHL AND SHR NOT AND SWAP1 SSTORE DUP7 DUP1 DUP1 PUSH2 0xD5A JUMP JUMPDEST SWAP3 SWAP4 PUSH1 0x20 PUSH1 0x1 DUP2 SWAP3 DUP8 DUP7 ADD MLOAD DUP2 SSTORE ADD SWAP6 ADD SWAP4 ADD PUSH2 0xD44 JUMP JUMPDEST ADD MLOAD SWAP1 POP DUP7 DUP1 PUSH2 0xB1F JUMP JUMPDEST SWAP3 POP PUSH1 0x5 DUP6 ADD PUSH1 0x0 MSTORE PUSH1 0x20 PUSH1 0x0 KECCAK256 SWAP1 PUSH1 0x0 SWAP4 JUMPDEST PUSH1 0x1F NOT DUP5 AND DUP6 LT PUSH2 0xDFA JUMPI PUSH1 0x1 SWAP5 POP DUP4 PUSH1 0x1F NOT DUP2 AND LT PUSH2 0xDE1 JUMPI JUMPDEST POP POP POP DUP2 SHL ADD PUSH1 0x5 DUP4 ADD SSTORE PUSH2 0xB37 JUMP JUMPDEST ADD MLOAD PUSH1 0x0 NOT PUSH1 0xF8 DUP5 PUSH1 0x3 SHL AND SHR NOT AND SWAP1 SSTORE DUP7 DUP1 DUP1 PUSH2 0xDD1 JUMP JUMPDEST DUP2 DUP2 ADD MLOAD DUP4 SSTORE PUSH1 0x20 SWAP5 DUP6 ADD SWAP5 PUSH1 0x1 SWAP1 SWAP4 ADD SWAP3 SWAP1 SWAP2 ADD SWAP1 PUSH2 0xDB6 JUMP JUMPDEST ADD MLOAD SWAP1 POP DUP8 DUP1 PUSH2 0xAC4 JUMP JUMPDEST SWAP3 POP PUSH1 0x3 DUP7 ADD PUSH1 0x0 MSTORE PUSH1 0x20 PUSH1 0x0 KECCAK256 SWAP1 PUSH1 0x0 SWAP4 JUMPDEST PUSH1 0x1F NOT DUP5 AND DUP6 LT PUSH2 0xE77 JUMPI PUSH1 0x1 SWAP5 POP DUP4 PUSH1 0x1F NOT DUP2 AND LT PUSH2 0xE5E JUMPI JUMPDEST POP POP POP DUP2 SHL ADD PUSH1 0x3 DUP5 ADD SSTORE PUSH2 0xADC JUMP JUMPDEST ADD MLOAD PUSH1 0x0 NOT PUSH1 0xF8 DUP5 PUSH1 0x3 SHL AND SHR NOT AND SWAP1 SSTORE DUP8 DUP1 DUP1 PUSH2 0xE4E JUMP JUMPDEST DUP2 DUP2 ADD MLOAD DUP4 SSTORE PUSH1 0x20 SWAP5 DUP6 ADD SWAP5 PUSH1 0x1 SWAP1 SWAP4 ADD SWAP3 SWAP1 SWAP2 ADD SWAP1 PUSH2 0xE33 JUMP JUMPDEST ADD MLOAD SWAP1 POP DUP9 DUP1 PUSH2 0xA69 JUMP JUMPDEST PUSH1 0x2 DUP9 ADD PUSH1 0x0 SWAP1 DUP2 MSTORE PUSH1 0x20 DUP2 KECCAK256 SWAP4 POP PUSH1 0x1F NOT DUP6 AND SWAP1 JUMPDEST DUP2 DUP2 LT PUSH2 0xEF2 JUMPI POP SWAP1 DUP5 PUSH1 0x1 SWAP6 SWAP5 SWAP4 SWAP3 LT PUSH2 0xED9 JUMPI JUMPDEST POP POP POP DUP2 SHL ADD PUSH1 0x2 DUP6 ADD SSTORE PUSH2 0xA81 JUMP JUMPDEST ADD MLOAD PUSH1 0x0 NOT PUSH1 0xF8 DUP5 PUSH1 0x3 SHL AND SHR NOT AND SWAP1 SSTORE DUP9 DUP1 DUP1 PUSH2 0xEC9 JUMP JUMPDEST SWAP3 SWAP4 PUSH1 0x20 PUSH1 0x1 DUP2 SWAP3 DUP8 DUP7 ADD MLOAD DUP2 SSTORE ADD SWAP6 ADD SWAP4 ADD PUSH2 0xEB3 JUMP JUMPDEST ADD MLOAD SWAP1 POP DUP11 DUP1 PUSH2 0xA11 JUMP JUMPDEST SWAP3 POP DUP4 PUSH1 0x0 MSTORE PUSH1 0x20 PUSH1 0x0 KECCAK256 SWAP1 PUSH1 0x0 SWAP4 JUMPDEST PUSH1 0x1F NOT DUP5 AND DUP6 LT PUSH2 0xF66 JUMPI PUSH1 0x1 SWAP5 POP DUP4 PUSH1 0x1F NOT DUP2 AND LT PUSH2 0xF4D JUMPI JUMPDEST POP POP POP DUP2 SHL ADD SWAP1 SSTORE PUSH2 0xA26 JUMP JUMPDEST ADD MLOAD PUSH1 0x0 NOT PUSH1 0xF8 DUP5 PUSH1 0x3 SHL AND SHR NOT AND SWAP1 SSTORE DUP11 DUP1 DUP1 PUSH2 0xF40 JUMP JUMPDEST DUP2 DUP2 ADD MLOAD DUP4 SSTORE PUSH1 0x20 SWAP5 DUP6 ADD SWAP5 PUSH1 0x1 SWAP1 SWAP4 ADD SWAP3 SWAP1 SWAP2 ADD SWAP1 PUSH2 0xF25 JUMP JUMPDEST CALLVALUE PUSH2 0x22F JUMPI PUSH1 0x20 CALLDATASIZE PUSH1 0x3 NOT ADD SLT PUSH2 0x22F JUMPI PUSH2 0xFA6 PUSH2 0xFA0 PUSH1 0x4 CALLDATALOAD PUSH2 0x24E9 JUMP JUMPDEST POP PUSH2 0x300F JUMP JUMPDEST PUSH2 0x140 DUP2 ADD MLOAD PUSH1 0x20 DUP2 MLOAD SWAP2 ADD KECCAK256 PUSH2 0xFBB PUSH2 0x2659 JUMP JUMPDEST PUSH1 0x20 DUP2 MLOAD SWAP2 ADD KECCAK256 EQ PUSH1 0x0 EQ PUSH2 0x1A49 JUMPI PUSH1 0xE0 DUP2 ADD MLOAD SWAP1 PUSH2 0x100 DUP2 ADD MLOAD PUSH1 0x20 DUP3 ADD MLOAD SWAP1 DUP3 MLOAD SWAP4 PUSH1 0x80 DUP5 ADD MLOAD PUSH1 0x40 DUP6 ADD MLOAD SWAP1 PUSH1 0x60 DUP7 ADD MLOAD SWAP1 PUSH1 0xA0 DUP8 ADD MLOAD SWAP2 PUSH1 0xC0 DUP9 ADD MLOAD SWAP4 PUSH1 0x1 DUP1 PUSH1 0xA0 SHL SUB PUSH2 0x120 DUP11 ADD MLOAD AND SWAP8 PUSH1 0x40 MLOAD SWAP11 PUSH2 0x1018 DUP13 PUSH2 0x243B JUMP JUMPDEST DUP12 MSTORE PUSH1 0x20 DUP12 ADD MSTORE PUSH1 0x40 DUP11 ADD MSTORE PUSH1 0x60 DUP10 ADD MSTORE PUSH1 0x80 DUP9 ADD MSTORE PUSH1 0xA0 DUP8 ADD MSTORE PUSH1 0xC0 DUP7 ADD MSTORE PUSH1 0xE0 DUP6 ADD MSTORE PUSH2 0x100 DUP5 ADD MSTORE PUSH2 0x120 DUP4 ADD MSTORE PUSH1 0x1 PUSH2 0x140 DUP4 ADD MSTORE PUSH2 0x105C PUSH1 0x1 SLOAD PUSH2 0x30D2 JUMP JUMPDEST PUSH1 0x1 SSTORE DUP1 MLOAD PUSH1 0x2 SLOAD PUSH1 0x1 PUSH1 0x40 SHL DUP2 LT ISZERO PUSH2 0xC9C JUMPI DUP1 PUSH1 0x1 PUSH2 0x1080 SWAP3 ADD PUSH1 0x2 SSTORE PUSH2 0x263E JUMP JUMPDEST SWAP1 SWAP2 DUP3 SLOAD SWAP1 DUP3 PUSH1 0x3 SHL SHL SWAP2 PUSH1 0x0 NOT SWAP1 PUSH1 0x3 SHL SHL NOT AND OR SWAP1 SSTORE DUP1 MLOAD PUSH1 0x0 MSTORE PUSH1 0x0 PUSH1 0x20 MSTORE PUSH1 0x40 PUSH1 0x0 KECCAK256 SWAP1 DUP3 MLOAD DUP3 SSTORE PUSH1 0x20 DUP4 ADD MLOAD SWAP3 DUP4 MLOAD PUSH1 0x1 PUSH1 0x1 PUSH1 0x40 SHL SUB DUP2 GT PUSH2 0xC9C JUMPI PUSH2 0x10DC DUP2 PUSH2 0x10D3 PUSH1 0x1 DUP8 ADD SLOAD PUSH2 0x251E JUMP JUMPDEST PUSH1 0x1 DUP8 ADD PUSH2 0x2694 JUMP JUMPDEST PUSH1 0x20 PUSH1 0x1F DUP3 GT PUSH1 0x1 EQ PUSH2 0x19DA JUMPI DUP2 SWAP3 SWAP4 SWAP5 SWAP6 PUSH1 0x0 SWAP3 PUSH2 0x19CF JUMPI JUMPDEST POP POP DUP2 PUSH1 0x1 SHL SWAP2 PUSH1 0x0 NOT SWAP1 PUSH1 0x3 SHL SHR NOT AND OR PUSH1 0x1 DUP5 ADD SSTORE JUMPDEST PUSH1 0x40 DUP2 ADD MLOAD SWAP3 DUP4 MLOAD PUSH1 0x1 PUSH1 0x1 PUSH1 0x40 SHL SUB DUP2 GT PUSH2 0xC9C JUMPI PUSH2 0x113E DUP2 PUSH2 0x1135 PUSH1 0x2 DUP6 ADD SLOAD PUSH2 0x251E JUMP JUMPDEST PUSH1 0x2 DUP6 ADD PUSH2 0x2694 JUMP JUMPDEST PUSH1 0x20 PUSH1 0x1F DUP3 GT PUSH1 0x1 EQ PUSH2 0x1960 JUMPI DUP2 SWAP3 SWAP4 SWAP5 SWAP6 PUSH1 0x0 SWAP3 PUSH2 0x1955 JUMPI JUMPDEST POP POP DUP2 PUSH1 0x1 SHL SWAP2 PUSH1 0x0 NOT SWAP1 PUSH1 0x3 SHL SHR NOT AND OR PUSH1 0x2 DUP3 ADD SSTORE JUMPDEST PUSH1 0x60 DUP3 ADD MLOAD SWAP3 DUP4 MLOAD PUSH1 0x1 PUSH1 0x1 PUSH1 0x40 SHL SUB DUP2 GT PUSH2 0xC9C JUMPI PUSH2 0x11A0 DUP2 PUSH2 0x1197 PUSH1 0x3 DUP7 ADD SLOAD PUSH2 0x251E JUMP JUMPDEST PUSH1 0x3 DUP7 ADD PUSH2 0x2694 JUMP JUMPDEST PUSH1 0x20 PUSH1 0x1F DUP3 GT PUSH1 0x1 EQ PUSH2 0x18E6 JUMPI DUP2 SWAP3 SWAP4 SWAP5 SWAP6 PUSH1 0x0 SWAP3 PUSH2 0x18DB JUMPI JUMPDEST POP POP DUP2 PUSH1 0x1 SHL SWAP2 PUSH1 0x0 NOT SWAP1 PUSH1 0x3 SHL SHR NOT AND OR PUSH1 0x3 DUP4 ADD SSTORE JUMPDEST PUSH1 0x80 DUP4 ADD MLOAD SWAP3 DUP4 MLOAD PUSH1 0x1 PUSH1 0x1 PUSH1 0x40 SHL SUB DUP2 GT PUSH2 0xC9C JUMPI PUSH2 0x1202 DUP2 PUSH2 0x11F9 PUSH1 0x4 DUP8 ADD SLOAD PUSH2 0x251E JUMP JUMPDEST PUSH1 0x4 DUP8 ADD PUSH2 0x2694 JUMP JUMPDEST PUSH1 0x20 PUSH1 0x1F DUP3 GT PUSH1 0x1 EQ PUSH2 0x186C JUMPI DUP2 SWAP3 SWAP4 SWAP5 SWAP6 PUSH1 0x0 SWAP3 PUSH2 0x1861 JUMPI JUMPDEST POP POP DUP2 PUSH1 0x1 SHL SWAP2 PUSH1 0x0 NOT SWAP1 PUSH1 0x3 SHL SHR NOT AND OR PUSH1 0x4 DUP5 ADD SSTORE JUMPDEST PUSH1 0xA0 DUP2 ADD MLOAD SWAP3 DUP4 MLOAD PUSH1 0x1 PUSH1 0x1 PUSH1 0x40 SHL SUB DUP2 GT PUSH2 0xC9C JUMPI PUSH2 0x1264 DUP2 PUSH2 0x125B PUSH1 0x5 DUP6 ADD SLOAD PUSH2 0x251E JUMP JUMPDEST PUSH1 0x5 DUP6 ADD PUSH2 0x2694 JUMP JUMPDEST PUSH1 0x20 PUSH1 0x1F DUP3 GT PUSH1 0x1 EQ PUSH2 0x17F2 JUMPI DUP2 SWAP3 SWAP4 SWAP5 SWAP6 PUSH1 0x0 SWAP3 PUSH2 0x17E7 JUMPI JUMPDEST POP POP DUP2 PUSH1 0x1 SHL SWAP2 PUSH1 0x0 NOT SWAP1 PUSH1 0x3 SHL SHR NOT AND OR PUSH1 0x5 DUP3 ADD SSTORE JUMPDEST PUSH1 0xC0 DUP3 ADD MLOAD SWAP3 DUP4 MLOAD PUSH1 0x1 PUSH1 0x1 PUSH1 0x40 SHL SUB DUP2 GT PUSH2 0xC9C JUMPI PUSH2 0x12C6 DUP2 PUSH2 0x12BD PUSH1 0x6 DUP7 ADD SLOAD PUSH2 0x251E JUMP JUMPDEST PUSH1 0x6 DUP7 ADD PUSH2 0x2694 JUMP JUMPDEST PUSH1 0x20 PUSH1 0x1F DUP3 GT PUSH1 0x1 EQ PUSH2 0x1778 JUMPI DUP2 SWAP3 SWAP4 SWAP5 SWAP6 PUSH1 0x0 SWAP3 PUSH2 0x176D JUMPI JUMPDEST POP POP DUP2 PUSH1 0x1 SHL SWAP2 PUSH1 0x0 NOT SWAP1 PUSH1 0x3 SHL SHR NOT AND OR PUSH1 0x6 DUP4 ADD SSTORE JUMPDEST PUSH1 0xE0 DUP4 ADD MLOAD SWAP3 DUP4 MLOAD PUSH1 0x1 PUSH1 0x1 PUSH1 0x40 SHL SUB DUP2 GT PUSH2 0xC9C JUMPI PUSH2 0x1328 DUP2 PUSH2 0x131F PUSH1 0x7 DUP8 ADD SLOAD PUSH2 0x251E JUMP JUMPDEST PUSH1 0x7 DUP8 ADD PUSH2 0x2694 JUMP JUMPDEST PUSH1 0x20 PUSH1 0x1F DUP3 GT PUSH1 0x1 EQ PUSH2 0x16FE JUMPI DUP2 SWAP3 SWAP4 SWAP5 SWAP6 PUSH1 0x0 SWAP3 PUSH2 0x16F3 JUMPI JUMPDEST POP POP DUP2 PUSH1 0x1 SHL SWAP2 PUSH1 0x0 NOT SWAP1 PUSH1 0x3 SHL SHR NOT AND OR PUSH1 0x7 DUP5 ADD SSTORE JUMPDEST PUSH2 0x100 DUP2 ADD MLOAD SWAP3 DUP4 MLOAD PUSH1 0x1 PUSH1 0x1 PUSH1 0x40 SHL SUB DUP2 GT PUSH2 0xC9C JUMPI PUSH2 0x138B DUP2 PUSH2 0x1382 PUSH1 0x8 DUP6 ADD SLOAD PUSH2 0x251E JUMP JUMPDEST PUSH1 0x8 DUP6 ADD PUSH2 0x2694 JUMP JUMPDEST PUSH1 0x20 PUSH1 0x1F DUP3 GT PUSH1 0x1 EQ PUSH2 0x1680 JUMPI DUP2 SWAP1 PUSH1 0x9 SWAP5 SWAP6 SWAP7 PUSH1 0x0 SWAP3 PUSH2 0x1675 JUMPI JUMPDEST POP POP DUP2 PUSH1 0x1 SHL SWAP2 PUSH1 0x0 NOT SWAP1 PUSH1 0x3 SHL SHR NOT AND OR PUSH1 0x8 DUP3 ADD SSTORE JUMPDEST PUSH2 0x120 DUP1 DUP5 ADD MLOAD SWAP3 SWAP1 SWAP2 ADD DUP1 SLOAD PUSH2 0x140 SWAP1 SWAP5 ADD MLOAD PUSH1 0x1 PUSH1 0x1 PUSH1 0xA8 SHL SUB NOT SWAP1 SWAP5 AND PUSH1 0x1 PUSH1 0x1 PUSH1 0xA0 SHL SUB SWAP4 DUP5 AND OR SWAP4 ISZERO ISZERO PUSH1 0xA0 SHL PUSH1 0xFF PUSH1 0xA0 SHL AND SWAP4 SWAP1 SWAP4 OR SWAP1 SWAP3 SSTORE DUP3 MLOAD SWAP2 DUP4 ADD MLOAD AND SWAP1 PUSH32 0xCB4990052F95F6057496D19524F6C3163F50AF9F33F2C15B092928E03414323E PUSH1 0x0 DUP1 LOG3 JUMPDEST PUSH1 0x3 DUP1 SLOAD DUP1 PUSH1 0x4 CALLDATALOAD LT ISZERO PUSH2 0x1640 JUMPI PUSH1 0x0 NOT SWAP1 DUP1 DUP3 ADD SWAP1 DUP2 GT PUSH2 0x162A JUMPI PUSH2 0x1451 SWAP1 PUSH2 0x24E9 JUMP JUMPDEST POP PUSH2 0x145D PUSH1 0x4 CALLDATALOAD PUSH2 0x24E9 JUMP JUMPDEST PUSH2 0x153F JUMPI DUP2 DUP2 SUB PUSH2 0x156B JUMPI JUMPDEST POP POP DUP2 SLOAD DUP1 ISZERO PUSH2 0x1555 JUMPI ADD SWAP1 PUSH2 0x147E DUP3 PUSH2 0x24E9 JUMP JUMPDEST PUSH2 0x153F JUMPI PUSH1 0xA DUP2 PUSH1 0x0 PUSH2 0x14F8 SWAP4 SSTORE PUSH2 0x1498 PUSH1 0x1 DUP3 ADD PUSH2 0x31B9 JUMP JUMPDEST PUSH2 0x14A4 PUSH1 0x2 DUP3 ADD PUSH2 0x31B9 JUMP JUMPDEST PUSH2 0x14AF DUP5 DUP3 ADD PUSH2 0x31B9 JUMP JUMPDEST PUSH2 0x14BB PUSH1 0x4 DUP3 ADD PUSH2 0x31B9 JUMP JUMPDEST PUSH2 0x14C7 PUSH1 0x5 DUP3 ADD PUSH2 0x31B9 JUMP JUMPDEST PUSH2 0x14D3 PUSH1 0x6 DUP3 ADD PUSH2 0x31B9 JUMP JUMPDEST PUSH2 0x14DF PUSH1 0x7 DUP3 ADD PUSH2 0x31B9 JUMP JUMPDEST PUSH2 0x14EB PUSH1 0x8 DUP3 ADD PUSH2 0x31B9 JUMP JUMPDEST PUSH1 0x0 PUSH1 0x9 DUP3 ADD SSTORE ADD PUSH2 0x31B9 JUMP JUMPDEST SSTORE PUSH2 0x140 DUP2 MLOAD SWAP2 ADD MLOAD SWAP1 PUSH32 0xBF3747916BBE426E0FD532A54A21BCF371C5CA55C33ADBFD8B43756BB1BEA938 PUSH1 0x40 MLOAD PUSH1 0x20 DUP2 MSTORE DUP1 PUSH2 0x153A CALLER SWAP6 PUSH1 0x20 DUP4 ADD SWAP1 PUSH2 0x25FE JUMP JUMPDEST SUB SWAP1 LOG3 STOP JUMPDEST PUSH4 0x4E487B71 PUSH1 0xE0 SHL PUSH1 0x0 MSTORE PUSH1 0x0 PUSH1 0x4 MSTORE PUSH1 0x24 PUSH1 0x0 REVERT JUMPDEST PUSH4 0x4E487B71 PUSH1 0xE0 SHL PUSH1 0x0 MSTORE PUSH1 0x31 PUSH1 0x4 MSTORE PUSH1 0x24 PUSH1 0x0 REVERT JUMPDEST PUSH1 0xA DUP1 DUP4 PUSH2 0x1623 SWAP5 SLOAD DUP5 SSTORE PUSH2 0x1586 PUSH1 0x1 DUP3 ADD PUSH1 0x1 DUP7 ADD PUSH2 0x30E1 JUMP JUMPDEST PUSH2 0x1596 PUSH1 0x2 DUP3 ADD PUSH1 0x2 DUP7 ADD PUSH2 0x30E1 JUMP JUMPDEST PUSH2 0x15A4 DUP8 DUP3 ADD DUP9 DUP7 ADD PUSH2 0x30E1 JUMP JUMPDEST PUSH2 0x15B4 PUSH1 0x4 DUP3 ADD PUSH1 0x4 DUP7 ADD PUSH2 0x30E1 JUMP JUMPDEST PUSH2 0x15C4 PUSH1 0x5 DUP3 ADD PUSH1 0x5 DUP7 ADD PUSH2 0x30E1 JUMP JUMPDEST PUSH2 0x15D4 PUSH1 0x6 DUP3 ADD PUSH1 0x6 DUP7 ADD PUSH2 0x30E1 JUMP JUMPDEST PUSH2 0x15E4 PUSH1 0x7 DUP3 ADD PUSH1 0x7 DUP7 ADD PUSH2 0x30E1 JUMP JUMPDEST PUSH2 0x15F4 PUSH1 0x8 DUP3 ADD PUSH1 0x8 DUP7 ADD PUSH2 0x30E1 JUMP JUMPDEST PUSH1 0x9 DUP2 DUP2 ADD SLOAD SWAP1 DUP6 ADD DUP1 SLOAD PUSH1 0x1 PUSH1 0x1 PUSH1 0xA0 SHL SUB NOT AND PUSH1 0x1 PUSH1 0x1 PUSH1 0xA0 SHL SUB SWAP3 SWAP1 SWAP3 AND SWAP2 SWAP1 SWAP2 OR SWAP1 SSTORE ADD SWAP2 ADD PUSH2 0x30E1 JUMP JUMPDEST DUP4 DUP1 PUSH2 0x1469 JUMP JUMPDEST PUSH4 0x4E487B71 PUSH1 0xE0 SHL PUSH1 0x0 MSTORE PUSH1 0x11 PUSH1 0x4 MSTORE PUSH1 0x24 PUSH1 0x0 REVERT JUMPDEST PUSH1 0x40 MLOAD PUSH3 0x461BCD PUSH1 0xE5 SHL DUP2 MSTORE PUSH1 0x20 PUSH1 0x4 DUP3 ADD MSTORE PUSH1 0xD PUSH1 0x24 DUP3 ADD MSTORE PUSH13 0x92DCECC2D8D2C840D2DCC8CAF PUSH1 0x9B SHL PUSH1 0x44 DUP3 ADD MSTORE PUSH1 0x64 SWAP1 REVERT JUMPDEST ADD MLOAD SWAP1 POP DUP7 DUP1 PUSH2 0x13A7 JUMP JUMPDEST PUSH1 0x8 DUP4 ADD PUSH1 0x0 MSTORE PUSH1 0x20 PUSH1 0x0 KECCAK256 SWAP6 PUSH1 0x0 JUMPDEST PUSH1 0x1F NOT DUP5 AND DUP2 LT PUSH2 0x16DB JUMPI POP SWAP6 DUP3 SWAP2 PUSH1 0x9 SWAP6 SWAP7 SWAP8 PUSH1 0x1 SWAP5 PUSH1 0x1F NOT DUP2 AND LT PUSH2 0x16C2 JUMPI JUMPDEST POP POP POP DUP2 SHL ADD PUSH1 0x8 DUP3 ADD SSTORE PUSH2 0x13BF JUMP JUMPDEST ADD MLOAD PUSH1 0x0 NOT PUSH1 0xF8 DUP5 PUSH1 0x3 SHL AND SHR NOT AND SWAP1 SSTORE DUP7 DUP1 DUP1 PUSH2 0x16B2 JUMP JUMPDEST DUP3 DUP3 ADD MLOAD DUP9 SSTORE PUSH1 0x1 SWAP1 SWAP8 ADD SWAP7 PUSH1 0x20 SWAP3 DUP4 ADD SWAP3 ADD PUSH2 0x1690 JUMP JUMPDEST ADD MLOAD SWAP1 POP DUP6 DUP1 PUSH2 0x1342 JUMP JUMPDEST PUSH1 0x7 DUP6 ADD PUSH1 0x0 MSTORE PUSH1 0x20 PUSH1 0x0 KECCAK256 SWAP1 PUSH1 0x0 JUMPDEST PUSH1 0x1F NOT DUP5 AND DUP2 LT PUSH2 0x1755 JUMPI POP PUSH1 0x1 SWAP4 SWAP5 SWAP6 SWAP7 DUP4 PUSH1 0x1F NOT DUP2 AND LT PUSH2 0x173C JUMPI JUMPDEST POP POP POP DUP2 SHL ADD PUSH1 0x7 DUP5 ADD SSTORE PUSH2 0x135A JUMP JUMPDEST ADD MLOAD PUSH1 0x0 NOT PUSH1 0xF8 DUP5 PUSH1 0x3 SHL AND SHR NOT AND SWAP1 SSTORE DUP6 DUP1 DUP1 PUSH2 0x172C JUMP JUMPDEST SWAP1 SWAP2 PUSH1 0x20 PUSH1 0x1 DUP2 SWAP3 DUP6 DUP12 ADD MLOAD DUP2 SSTORE ADD SWAP4 ADD SWAP2 ADD PUSH2 0x170E JUMP JUMPDEST ADD MLOAD SWAP1 POP DUP6 DUP1 PUSH2 0x12E0 JUMP JUMPDEST PUSH1 0x6 DUP5 ADD PUSH1 0x0 MSTORE PUSH1 0x20 PUSH1 0x0 KECCAK256 SWAP1 PUSH1 0x0 JUMPDEST PUSH1 0x1F NOT DUP5 AND DUP2 LT PUSH2 0x17CF JUMPI POP PUSH1 0x1 SWAP4 SWAP5 SWAP6 SWAP7 DUP4 PUSH1 0x1F NOT DUP2 AND LT PUSH2 0x17B6 JUMPI JUMPDEST POP POP POP DUP2 SHL ADD PUSH1 0x6 DUP4 ADD SSTORE PUSH2 0x12F8 JUMP JUMPDEST ADD MLOAD PUSH1 0x0 NOT PUSH1 0xF8 DUP5 PUSH1 0x3 SHL AND SHR NOT AND SWAP1 SSTORE DUP6 DUP1 DUP1 PUSH2 0x17A6 JUMP JUMPDEST SWAP1 SWAP2 PUSH1 0x20 PUSH1 0x1 DUP2 SWAP3 DUP6 DUP12 ADD MLOAD DUP2 SSTORE ADD SWAP4 ADD SWAP2 ADD PUSH2 0x1788 JUMP JUMPDEST ADD MLOAD SWAP1 POP DUP6 DUP1 PUSH2 0x127E JUMP JUMPDEST PUSH1 0x5 DUP4 ADD PUSH1 0x0 MSTORE PUSH1 0x20 PUSH1 0x0 KECCAK256 SWAP1 PUSH1 0x0 JUMPDEST PUSH1 0x1F NOT DUP5 AND DUP2 LT PUSH2 0x1849 JUMPI POP PUSH1 0x1 SWAP4 SWAP5 SWAP6 SWAP7 DUP4 PUSH1 0x1F NOT DUP2 AND LT PUSH2 0x1830 JUMPI JUMPDEST POP POP POP DUP2 SHL ADD PUSH1 0x5 DUP3 ADD SSTORE PUSH2 0x1296 JUMP JUMPDEST ADD MLOAD PUSH1 0x0 NOT PUSH1 0xF8 DUP5 PUSH1 0x3 SHL AND SHR NOT AND SWAP1 SSTORE DUP6 DUP1 DUP1 PUSH2 0x1820 JUMP JUMPDEST SWAP1 SWAP2 PUSH1 0x20 PUSH1 0x1 DUP2 SWAP3 DUP6 DUP12 ADD MLOAD DUP2 SSTORE ADD SWAP4 ADD SWAP2 ADD PUSH2 0x1802 JUMP JUMPDEST ADD MLOAD SWAP1 POP DUP6 DUP1 PUSH2 0x121C JUMP JUMPDEST PUSH1 0x4 DUP6 ADD PUSH1 0x0 MSTORE PUSH1 0x20 PUSH1 0x0 KECCAK256 SWAP1 PUSH1 0x0 JUMPDEST PUSH1 0x1F NOT DUP5 AND DUP2 LT PUSH2 0x18C3 JUMPI POP PUSH1 0x1 SWAP4 SWAP5 SWAP6 SWAP7 DUP4 PUSH1 0x1F NOT DUP2 AND LT PUSH2 0x18AA JUMPI JUMPDEST POP POP POP DUP2 SHL ADD PUSH1 0x4 DUP5 ADD SSTORE PUSH2 0x1234 JUMP JUMPDEST ADD MLOAD PUSH1 0x0 NOT PUSH1 0xF8 DUP5 PUSH1 0x3 SHL AND SHR NOT AND SWAP1 SSTORE DUP6 DUP1 DUP1 PUSH2 0x189A JUMP JUMPDEST SWAP1 SWAP2 PUSH1 0x20 PUSH1 0x1 DUP2 SWAP3 DUP6 DUP12 ADD MLOAD DUP2 SSTORE ADD SWAP4 ADD SWAP2 ADD PUSH2 0x187C JUMP JUMPDEST ADD MLOAD SWAP1 POP DUP6 DUP1 PUSH2 0x11BA JUMP JUMPDEST PUSH1 0x3 DUP5 ADD PUSH1 0x0 MSTORE PUSH1 0x20 PUSH1 0x0 KECCAK256 SWAP1 PUSH1 0x0 JUMPDEST PUSH1 0x1F NOT DUP5 AND DUP2 LT PUSH2 0x193D JUMPI POP PUSH1 0x1 SWAP4 SWAP5 SWAP6 SWAP7 DUP4 PUSH1 0x1F NOT DUP2 AND LT PUSH2 0x1924 JUMPI JUMPDEST POP POP POP DUP2 SHL ADD PUSH1 0x3 DUP4 ADD SSTORE PUSH2 0x11D2 JUMP JUMPDEST ADD MLOAD PUSH1 0x0 NOT PUSH1 0xF8 DUP5 PUSH1 0x3 SHL AND SHR NOT AND SWAP1 SSTORE DUP6 DUP1 DUP1 PUSH2 0x1914 JUMP JUMPDEST SWAP1 SWAP2 PUSH1 0x20 PUSH1 0x1 DUP2 SWAP3 DUP6 DUP12 ADD MLOAD DUP2 SSTORE ADD SWAP4 ADD SWAP2 ADD PUSH2 0x18F6 JUMP JUMPDEST ADD MLOAD SWAP1 POP DUP6 DUP1 PUSH2 0x1158 JUMP JUMPDEST PUSH1 0x2 DUP4 ADD PUSH1 0x0 MSTORE PUSH1 0x20 PUSH1 0x0 KECCAK256 SWAP1 PUSH1 0x0 JUMPDEST PUSH1 0x1F NOT DUP5 AND DUP2 LT PUSH2 0x19B7 JUMPI POP PUSH1 0x1 SWAP4 SWAP5 SWAP6 SWAP7 DUP4 PUSH1 0x1F NOT DUP2 AND LT PUSH2 0x199E JUMPI JUMPDEST POP POP POP DUP2 SHL ADD PUSH1 0x2 DUP3 ADD SSTORE PUSH2 0x1170 JUMP JUMPDEST ADD MLOAD PUSH1 0x0 NOT PUSH1 0xF8 DUP5 PUSH1 0x3 SHL AND SHR NOT AND SWAP1 SSTORE DUP6 DUP1 DUP1 PUSH2 0x198E JUMP JUMPDEST SWAP1 SWAP2 PUSH1 0x20 PUSH1 0x1 DUP2 SWAP3 DUP6 DUP12 ADD MLOAD DUP2 SSTORE ADD SWAP4 ADD SWAP2 ADD PUSH2 0x1970 JUMP JUMPDEST ADD MLOAD SWAP1 POP DUP6 DUP1 PUSH2 0x10F6 JUMP JUMPDEST PUSH1 0x1 DUP6 ADD PUSH1 0x0 MSTORE PUSH1 0x20 PUSH1 0x0 KECCAK256 SWAP1 PUSH1 0x0 JUMPDEST PUSH1 0x1F NOT DUP5 AND DUP2 LT PUSH2 0x1A31 JUMPI POP PUSH1 0x1 SWAP4 SWAP5 SWAP6 SWAP7 DUP4 PUSH1 0x1F NOT DUP2 AND LT PUSH2 0x1A18 JUMPI JUMPDEST POP POP POP DUP2 SHL ADD PUSH1 0x1 DUP5 ADD SSTORE PUSH2 0x110E JUMP JUMPDEST ADD MLOAD PUSH1 0x0 NOT PUSH1 0xF8 DUP5 PUSH1 0x3 SHL AND SHR NOT AND SWAP1 SSTORE DUP6 DUP1 DUP1 PUSH2 0x1A08 JUMP JUMPDEST SWAP1 SWAP2 PUSH1 0x20 PUSH1 0x1 DUP2 SWAP3 DUP6 DUP12 ADD MLOAD DUP2 SSTORE ADD SWAP4 ADD SWAP2 ADD PUSH2 0x19EA JUMP JUMPDEST PUSH2 0x140 DUP2 ADD MLOAD PUSH1 0x20 DUP2 MLOAD SWAP2 ADD KECCAK256 PUSH2 0x1A5E PUSH2 0x2FD4 JUMP JUMPDEST PUSH1 0x20 DUP2 MLOAD SWAP2 ADD KECCAK256 SUB PUSH2 0x142C JUMPI DUP1 MLOAD PUSH1 0x0 MSTORE PUSH1 0x0 PUSH1 0x20 MSTORE PUSH1 0x1 DUP1 PUSH1 0xA0 SHL SUB PUSH1 0x9 PUSH1 0x40 PUSH1 0x0 KECCAK256 ADD SLOAD AND PUSH1 0x1 DUP1 PUSH1 0xA0 SHL SUB PUSH2 0x120 DUP4 ADD MLOAD AND DUP3 MLOAD PUSH1 0x0 MSTORE PUSH1 0x9 PUSH1 0x40 PUSH1 0x0 KECCAK256 ADD SWAP1 PUSH1 0x1 DUP1 PUSH1 0xA0 SHL SUB NOT DUP3 SLOAD AND OR SWAP1 SSTORE PUSH1 0x20 DUP3 ADD MLOAD SWAP2 DUP1 MLOAD PUSH1 0x0 MSTORE PUSH1 0x1 PUSH1 0x40 PUSH1 0x0 KECCAK256 ADD DUP4 MLOAD PUSH1 0x1 PUSH1 0x1 PUSH1 0x40 SHL SUB DUP2 GT PUSH2 0xC9C JUMPI PUSH2 0x1AE0 DUP2 PUSH2 0xBA9 DUP5 SLOAD PUSH2 0x251E JUMP JUMPDEST PUSH1 0x20 PUSH1 0x1F DUP3 GT PUSH1 0x1 EQ PUSH2 0x1F94 JUMPI DUP2 SWAP3 SWAP4 SWAP5 SWAP6 PUSH1 0x0 SWAP3 PUSH2 0x1F89 JUMPI JUMPDEST POP POP DUP2 PUSH1 0x1 SHL SWAP2 PUSH1 0x0 NOT SWAP1 PUSH1 0x3 SHL SHR NOT AND OR SWAP1 SSTORE JUMPDEST PUSH1 0x60 DUP2 ADD MLOAD SWAP2 DUP2 MLOAD PUSH1 0x0 MSTORE PUSH1 0x0 PUSH1 0x20 MSTORE PUSH1 0x3 PUSH1 0x40 PUSH1 0x0 KECCAK256 ADD DUP4 MLOAD PUSH1 0x1 PUSH1 0x1 PUSH1 0x40 SHL SUB DUP2 GT PUSH2 0xC9C JUMPI PUSH2 0x1B45 DUP2 PUSH2 0xBA9 DUP5 SLOAD PUSH2 0x251E JUMP JUMPDEST PUSH1 0x20 PUSH1 0x1F DUP3 GT PUSH1 0x1 EQ PUSH2 0x1F20 JUMPI DUP2 SWAP3 SWAP4 SWAP5 SWAP6 PUSH1 0x0 SWAP3 PUSH2 0x1F15 JUMPI JUMPDEST POP POP DUP2 PUSH1 0x1 SHL SWAP2 PUSH1 0x0 NOT SWAP1 PUSH1 0x3 SHL SHR NOT AND OR SWAP1 SSTORE JUMPDEST PUSH1 0x80 DUP3 ADD MLOAD SWAP2 DUP1 MLOAD PUSH1 0x0 MSTORE PUSH1 0x0 PUSH1 0x20 MSTORE PUSH1 0x4 PUSH1 0x40 PUSH1 0x0 KECCAK256 ADD DUP4 MLOAD PUSH1 0x1 PUSH1 0x1 PUSH1 0x40 SHL SUB DUP2 GT PUSH2 0xC9C JUMPI PUSH2 0x1BAA DUP2 PUSH2 0xBA9 DUP5 SLOAD PUSH2 0x251E JUMP JUMPDEST PUSH1 0x20 PUSH1 0x1F DUP3 GT PUSH1 0x1 EQ PUSH2 0x1EAC JUMPI DUP2 SWAP3 SWAP4 SWAP5 SWAP6 PUSH1 0x0 SWAP3 PUSH2 0x1EA1 JUMPI JUMPDEST POP POP DUP2 PUSH1 0x1 SHL SWAP2 PUSH1 0x0 NOT SWAP1 PUSH1 0x3 SHL SHR NOT AND OR SWAP1 SSTORE JUMPDEST PUSH1 0x40 DUP2 ADD MLOAD SWAP2 DUP2 MLOAD PUSH1 0x0 MSTORE PUSH1 0x0 PUSH1 0x20 MSTORE PUSH1 0x2 PUSH1 0x40 PUSH1 0x0 KECCAK256 ADD DUP4 MLOAD PUSH1 0x1 PUSH1 0x1 PUSH1 0x40 SHL SUB DUP2 GT PUSH2 0xC9C JUMPI PUSH2 0x1C0F DUP2 PUSH2 0xBA9 DUP5 SLOAD PUSH2 0x251E JUMP JUMPDEST PUSH1 0x20 PUSH1 0x1F DUP3 GT PUSH1 0x1 EQ PUSH2 0x1E38 JUMPI DUP2 SWAP3 SWAP4 SWAP5 SWAP6 PUSH1 0x0 SWAP3 PUSH2 0x1E2D JUMPI JUMPDEST POP POP DUP2 PUSH1 0x1 SHL SWAP2 PUSH1 0x0 NOT SWAP1 PUSH1 0x3 SHL SHR NOT AND OR SWAP1 SSTORE JUMPDEST PUSH1 0xC0 DUP3 ADD MLOAD SWAP2 DUP1 MLOAD PUSH1 0x0 MSTORE PUSH1 0x0 PUSH1 0x20 MSTORE PUSH1 0x6 PUSH1 0x40 PUSH1 0x0 KECCAK256 ADD DUP4 MLOAD PUSH1 0x1 PUSH1 0x1 PUSH1 0x40 SHL SUB DUP2 GT PUSH2 0xC9C JUMPI PUSH2 0x1C74 DUP2 PUSH2 0xBA9 DUP5 SLOAD PUSH2 0x251E JUMP JUMPDEST PUSH1 0x20 PUSH1 0x1F DUP3 GT PUSH1 0x1 EQ PUSH2 0x1DC4 JUMPI DUP2 SWAP3 SWAP4 SWAP5 SWAP6 PUSH1 0x0 SWAP3 PUSH2 0x1DB9 JUMPI JUMPDEST POP POP DUP2 PUSH1 0x1 SHL SWAP2 PUSH1 0x0 NOT SWAP1 PUSH1 0x3 SHL SHR NOT AND OR SWAP1 SSTORE JUMPDEST PUSH1 0xA0 DUP2 ADD MLOAD SWAP2 DUP2 MLOAD PUSH1 0x0 MSTORE PUSH1 0x0 PUSH1 0x20 MSTORE PUSH1 0x5 PUSH1 0x40 PUSH1 0x0 KECCAK256 ADD DUP4 MLOAD PUSH1 0x1 PUSH1 0x1 PUSH1 0x40 SHL SUB DUP2 GT PUSH2 0xC9C JUMPI PUSH2 0x1CD9 DUP2 PUSH2 0xBA9 DUP5 SLOAD PUSH2 0x251E JUMP JUMPDEST PUSH1 0x20 PUSH1 0x1F DUP3 GT PUSH1 0x1 EQ PUSH2 0x1D50 JUMPI DUP2 SWAP3 SWAP4 SWAP5 SWAP6 PUSH1 0x0 SWAP3 PUSH2 0x1D45 JUMPI JUMPDEST POP POP DUP2 PUSH1 0x1 SHL SWAP2 PUSH1 0x0 NOT SWAP1 PUSH1 0x3 SHL SHR NOT AND OR SWAP1 SSTORE JUMPDEST DUP2 MLOAD PUSH2 0x120 DUP4 ADD MLOAD PUSH1 0x1 PUSH1 0x1 PUSH1 0xA0 SHL SUB AND SWAP2 SWAP1 PUSH32 0x1080B2F211753E5090F26EF7FFDC6BB3E66A125C7290200D10B502160BB1F566 PUSH1 0x0 DUP1 LOG4 PUSH2 0x142C JUMP JUMPDEST ADD MLOAD SWAP1 POP DUP6 DUP1 PUSH2 0x1CF3 JUMP JUMPDEST DUP3 PUSH1 0x0 MSTORE PUSH1 0x20 PUSH1 0x0 KECCAK256 SWAP1 PUSH1 0x0 JUMPDEST PUSH1 0x1F NOT DUP5 AND DUP2 LT PUSH2 0x1DA1 JUMPI POP PUSH1 0x1 SWAP4 SWAP5 SWAP6 SWAP7 DUP4 PUSH1 0x1F NOT DUP2 AND LT PUSH2 0x1D88 JUMPI JUMPDEST POP POP POP DUP2 SHL ADD SWAP1 SSTORE PUSH2 0x1D08 JUMP JUMPDEST ADD MLOAD PUSH1 0x0 NOT PUSH1 0xF8 DUP5 PUSH1 0x3 SHL AND SHR NOT AND SWAP1 SSTORE DUP6 DUP1 DUP1 PUSH2 0x1D7B JUMP JUMPDEST SWAP1 SWAP2 PUSH1 0x20 PUSH1 0x1 DUP2 SWAP3 DUP6 DUP12 ADD MLOAD DUP2 SSTORE ADD SWAP4 ADD SWAP2 ADD PUSH2 0x1D5D JUMP JUMPDEST ADD MLOAD SWAP1 POP DUP6 DUP1 PUSH2 0x1C8E JUMP JUMPDEST DUP3 PUSH1 0x0 MSTORE PUSH1 0x20 PUSH1 0x0 KECCAK256 SWAP1 PUSH1 0x0 JUMPDEST PUSH1 0x1F NOT DUP5 AND DUP2 LT PUSH2 0x1E15 JUMPI POP PUSH1 0x1 SWAP4 SWAP5 SWAP6 SWAP7 DUP4 PUSH1 0x1F NOT DUP2 AND LT PUSH2 0x1DFC JUMPI JUMPDEST POP POP POP DUP2 SHL ADD SWAP1 SSTORE PUSH2 0x1CA3 JUMP JUMPDEST ADD MLOAD PUSH1 0x0 NOT PUSH1 0xF8 DUP5 PUSH1 0x3 SHL AND SHR NOT AND SWAP1 SSTORE DUP6 DUP1 DUP1 PUSH2 0x1DEF JUMP JUMPDEST SWAP1 SWAP2 PUSH1 0x20 PUSH1 0x1 DUP2 SWAP3 DUP6 DUP12 ADD MLOAD DUP2 SSTORE ADD SWAP4 ADD SWAP2 ADD PUSH2 0x1DD1 JUMP JUMPDEST ADD MLOAD SWAP1 POP DUP6 DUP1 PUSH2 0x1C29 JUMP JUMPDEST DUP3 PUSH1 0x0 MSTORE PUSH1 0x20 PUSH1 0x0 KECCAK256 SWAP1 PUSH1 0x0 JUMPDEST PUSH1 0x1F NOT DUP5 AND DUP2 LT PUSH2 0x1E89 JUMPI POP PUSH1 0x1 SWAP4 SWAP5 SWAP6 SWAP7 DUP4 PUSH1 0x1F NOT DUP2 AND LT PUSH2 0x1E70 JUMPI JUMPDEST POP POP POP DUP2 SHL ADD SWAP1 SSTORE PUSH2 0x1C3E JUMP JUMPDEST ADD MLOAD PUSH1 0x0 NOT PUSH1 0xF8 DUP5 PUSH1 0x3 SHL AND SHR NOT AND SWAP1 SSTORE DUP6 DUP1 DUP1 PUSH2 0x1E63 JUMP JUMPDEST SWAP1 SWAP2 PUSH1 0x20 PUSH1 0x1 DUP2 SWAP3 DUP6 DUP12 ADD MLOAD DUP2 SSTORE ADD SWAP4 ADD SWAP2 ADD PUSH2 0x1E45 JUMP JUMPDEST ADD MLOAD SWAP1 POP DUP6 DUP1 PUSH2 0x1BC4 JUMP JUMPDEST DUP3 PUSH1 0x0 MSTORE PUSH1 0x20 PUSH1 0x0 KECCAK256 SWAP1 PUSH1 0x0 JUMPDEST PUSH1 0x1F NOT DUP5 AND DUP2 LT PUSH2 0x1EFD JUMPI POP PUSH1 0x1 SWAP4 SWAP5 SWAP6 SWAP7 DUP4 PUSH1 0x1F NOT DUP2 AND LT PUSH2 0x1EE4 JUMPI JUMPDEST POP POP POP DUP2 SHL ADD SWAP1 SSTORE PUSH2 0x1BD9 JUMP JUMPDEST ADD MLOAD PUSH1 0x0 NOT PUSH1 0xF8 DUP5 PUSH1 0x3 SHL AND SHR NOT AND SWAP1 SSTORE DUP6 DUP1 DUP1 PUSH2 0x1ED7 JUMP JUMPDEST SWAP1 SWAP2 PUSH1 0x20 PUSH1 0x1 DUP2 SWAP3 DUP6 DUP12 ADD MLOAD DUP2 SSTORE ADD SWAP4 ADD SWAP2 ADD PUSH2 0x1EB9 JUMP JUMPDEST ADD MLOAD SWAP1 POP DUP6 DUP1 PUSH2 0x1B5F JUMP JUMPDEST DUP3 PUSH1 0x0 MSTORE PUSH1 0x20 PUSH1 0x0 KECCAK256 SWAP1 PUSH1 0x0 JUMPDEST PUSH1 0x1F NOT DUP5 AND DUP2 LT PUSH2 0x1F71 JUMPI POP PUSH1 0x1 SWAP4 SWAP5 SWAP6 SWAP7 DUP4 PUSH1 0x1F NOT DUP2 AND LT PUSH2 0x1F58 JUMPI JUMPDEST POP POP POP DUP2 SHL ADD SWAP1 SSTORE PUSH2 0x1B74 JUMP JUMPDEST ADD MLOAD PUSH1 0x0 NOT PUSH1 0xF8 DUP5 PUSH1 0x3 SHL AND SHR NOT AND SWAP1 SSTORE DUP6 DUP1 DUP1 PUSH2 0x1F4B JUMP JUMPDEST SWAP1 SWAP2 PUSH1 0x20 PUSH1 0x1 DUP2 SWAP3 DUP6 DUP12 ADD MLOAD DUP2 SSTORE ADD SWAP4 ADD SWAP2 ADD PUSH2 0x1F2D JUMP JUMPDEST ADD MLOAD SWAP1 POP DUP6 DUP1 PUSH2 0x1AFA JUMP JUMPDEST DUP3 PUSH1 0x0 MSTORE PUSH1 0x20 PUSH1 0x0 KECCAK256 SWAP1 PUSH1 0x0 JUMPDEST PUSH1 0x1F NOT DUP5 AND DUP2 LT PUSH2 0x1FE5 JUMPI POP PUSH1 0x1 SWAP4 SWAP5 SWAP6 SWAP7 DUP4 PUSH1 0x1F NOT DUP2 AND LT PUSH2 0x1FCC JUMPI JUMPDEST POP POP POP DUP2 SHL ADD SWAP1 SSTORE PUSH2 0x1B0F JUMP JUMPDEST ADD MLOAD PUSH1 0x0 NOT PUSH1 0xF8 DUP5 PUSH1 0x3 SHL AND SHR NOT AND SWAP1 SSTORE DUP6 DUP1 DUP1 PUSH2 0x1FBF JUMP JUMPDEST SWAP1 SWAP2 PUSH1 0x20 PUSH1 0x1 DUP2 SWAP3 DUP6 DUP12 ADD MLOAD DUP2 SSTORE ADD SWAP4 ADD SWAP2 ADD PUSH2 0x1FA1 JUMP JUMPDEST CALLVALUE PUSH2 0x22F JUMPI PUSH2 0x120 CALLDATASIZE PUSH1 0x3 NOT ADD SLT PUSH2 0x22F JUMPI PUSH1 0x1 PUSH1 0x1 PUSH1 0x40 SHL SUB PUSH1 0x4 CALLDATALOAD DUP2 DUP2 GT PUSH2 0x22F JUMPI PUSH2 0x202F SWAP1 CALLDATASIZE SWAP1 PUSH1 0x4 ADD PUSH2 0x2493 JUMP JUMPDEST PUSH1 0x24 CALLDATALOAD PUSH1 0x44 CALLDATALOAD DUP4 DUP2 GT PUSH2 0x22F JUMPI PUSH2 0x204A SWAP1 CALLDATASIZE SWAP1 PUSH1 0x4 ADD PUSH2 0x2493 JUMP JUMPDEST PUSH1 0x64 CALLDATALOAD DUP5 DUP2 GT PUSH2 0x22F JUMPI PUSH2 0x2062 SWAP1 CALLDATASIZE SWAP1 PUSH1 0x4 ADD PUSH2 0x2493 JUMP JUMPDEST SWAP1 PUSH1 0x84 CALLDATALOAD DUP6 DUP2 GT PUSH2 0x22F JUMPI PUSH2 0x207B SWAP1 CALLDATASIZE SWAP1 PUSH1 0x4 ADD PUSH2 0x2493 JUMP JUMPDEST SWAP5 PUSH1 0xA4 CALLDATALOAD DUP2 DUP2 GT PUSH2 0x22F JUMPI PUSH2 0x2094 SWAP1 CALLDATASIZE SWAP1 PUSH1 0x4 ADD PUSH2 0x2493 JUMP JUMPDEST SWAP1 PUSH1 0xC4 CALLDATALOAD DUP2 DUP2 GT PUSH2 0x22F JUMPI PUSH2 0x20AD SWAP1 CALLDATASIZE SWAP1 PUSH1 0x4 ADD PUSH2 0x2493 JUMP JUMPDEST SWAP2 PUSH1 0xE4 CALLDATALOAD DUP3 DUP2 GT PUSH2 0x22F JUMPI PUSH2 0x20C6 SWAP1 CALLDATASIZE SWAP1 PUSH1 0x4 ADD PUSH2 0x2493 JUMP JUMPDEST SWAP2 PUSH2 0x104 CALLDATALOAD SWAP1 DUP2 GT PUSH2 0x22F JUMPI PUSH2 0x20E0 SWAP1 CALLDATASIZE SWAP1 PUSH1 0x4 ADD PUSH2 0x2493 JUMP JUMPDEST SWAP3 DUP7 PUSH1 0x0 MSTORE PUSH1 0x0 PUSH1 0x20 MSTORE PUSH1 0xFF PUSH1 0x9 PUSH1 0x40 PUSH1 0x0 KECCAK256 ADD SLOAD PUSH1 0xA0 SHR AND PUSH2 0x2113 JUMPI PUSH2 0x2111 SWAP9 PUSH2 0x2109 PUSH2 0x2659 JUMP JUMPDEST SWAP9 CALLER SWAP9 PUSH2 0x26D9 JUMP JUMPDEST STOP JUMPDEST PUSH1 0x40 MLOAD PUSH3 0x461BCD PUSH1 0xE5 SHL DUP2 MSTORE PUSH1 0x20 PUSH1 0x4 DUP3 ADD MSTORE PUSH1 0x1A PUSH1 0x24 DUP3 ADD MSTORE PUSH32 0x4C616E6420697320416C72656164792052656769737465726564000000000000 PUSH1 0x44 DUP3 ADD MSTORE PUSH1 0x64 SWAP1 REVERT JUMPDEST CALLVALUE PUSH2 0x22F JUMPI PUSH1 0x20 CALLDATASIZE PUSH1 0x3 NOT ADD SLT PUSH2 0x22F JUMPI PUSH1 0x4 CALLDATALOAD PUSH1 0x3 SLOAD DUP2 LT ISZERO PUSH2 0x22F JUMPI PUSH2 0x217F SWAP1 PUSH2 0x24E9 JUMP JUMPDEST POP DUP1 SLOAD PUSH2 0x218E PUSH1 0x1 DUP4 ADD PUSH2 0x2558 JUMP JUMPDEST SWAP2 PUSH2 0x219B PUSH1 0x2 DUP3 ADD PUSH2 0x2558 JUMP JUMPDEST SWAP1 PUSH2 0x21A8 PUSH1 0x3 DUP3 ADD PUSH2 0x2558 JUMP JUMPDEST PUSH2 0x21B4 PUSH1 0x4 DUP4 ADD PUSH2 0x2558 JUMP JUMPDEST PUSH2 0x21C0 PUSH1 0x5 DUP5 ADD PUSH2 0x2558 JUMP JUMPDEST PUSH2 0x21CC PUSH1 0x6 DUP6 ADD PUSH2 0x2558 JUMP JUMPDEST SWAP1 PUSH2 0x21D9 PUSH1 0x7 DUP7 ADD PUSH2 0x2558 JUMP JUMPDEST SWAP3 PUSH2 0x21E6 PUSH1 0x8 DUP8 ADD PUSH2 0x2558 JUMP JUMPDEST PUSH1 0x9 DUP8 ADD SLOAD PUSH1 0x1 PUSH1 0x1 PUSH1 0xA0 SHL SUB AND SWAP7 SWAP1 SWAP6 SWAP1 PUSH2 0x2204 SWAP1 PUSH1 0xA ADD PUSH2 0x2558 JUMP JUMPDEST SWAP8 PUSH1 0x40 MLOAD SWAP11 DUP12 SWAP11 DUP12 MSTORE PUSH2 0x160 DUP1 PUSH1 0x20 DUP14 ADD MSTORE DUP12 ADD PUSH2 0x2221 SWAP2 PUSH2 0x25FE JUMP JUMPDEST DUP11 DUP2 SUB PUSH1 0x40 DUP13 ADD MSTORE PUSH2 0x2232 SWAP2 PUSH2 0x25FE JUMP JUMPDEST DUP10 DUP2 SUB PUSH1 0x60 DUP12 ADD MSTORE PUSH2 0x2243 SWAP2 PUSH2 0x25FE JUMP JUMPDEST DUP9 DUP2 SUB PUSH1 0x80 DUP11 ADD MSTORE PUSH2 0x2254 SWAP2 PUSH2 0x25FE JUMP JUMPDEST DUP8 DUP2 SUB PUSH1 0xA0 DUP10 ADD MSTORE PUSH2 0x2265 SWAP2 PUSH2 0x25FE JUMP JUMPDEST DUP7 DUP2 SUB PUSH1 0xC0 DUP9 ADD MSTORE PUSH2 0x2276 SWAP2 PUSH2 0x25FE JUMP JUMPDEST DUP6 DUP2 SUB PUSH1 0xE0 DUP8 ADD MSTORE PUSH2 0x2287 SWAP2 PUSH2 0x25FE JUMP JUMPDEST DUP5 DUP2 SUB PUSH2 0x100 DUP7 ADD MSTORE PUSH2 0x2299 SWAP2 PUSH2 0x25FE JUMP JUMPDEST SWAP1 PUSH2 0x120 DUP5 ADD MSTORE DUP3 DUP2 SUB PUSH2 0x140 DUP5 ADD MSTORE PUSH2 0x22B2 SWAP2 PUSH2 0x25FE JUMP JUMPDEST SUB SWAP1 RETURN JUMPDEST CALLVALUE PUSH2 0x22F JUMPI PUSH2 0x100 CALLDATASIZE PUSH1 0x3 NOT ADD SLT PUSH2 0x22F JUMPI PUSH1 0x1 PUSH1 0x1 PUSH1 0xA0 SHL SUB PUSH1 0x4 CALLDATALOAD PUSH1 0x24 CALLDATALOAD DUP3 DUP2 AND DUP2 SUB PUSH2 0x22F JUMPI PUSH1 0x1 PUSH1 0x1 PUSH1 0x40 SHL SUB PUSH1 0x44 CALLDATALOAD DUP2 DUP2 GT PUSH2 0x22F JUMPI PUSH2 0x22FF SWAP1 CALLDATASIZE SWAP1 PUSH1 0x4 ADD PUSH2 0x2493 JUMP JUMPDEST SWAP1 PUSH1 0x64 CALLDATALOAD DUP2 DUP2 GT PUSH2 0x22F JUMPI PUSH2 0x2318 SWAP1 CALLDATASIZE SWAP1 PUSH1 0x4 ADD PUSH2 0x2493 JUMP JUMPDEST SWAP5 PUSH1 0x84 CALLDATALOAD DUP3 DUP2 GT PUSH2 0x22F JUMPI PUSH2 0x2331 SWAP1 CALLDATASIZE SWAP1 PUSH1 0x4 ADD PUSH2 0x2493 JUMP JUMPDEST SWAP2 PUSH1 0xA4 CALLDATALOAD DUP2 DUP2 GT PUSH2 0x22F JUMPI PUSH2 0x234A SWAP1 CALLDATASIZE SWAP1 PUSH1 0x4 ADD PUSH2 0x2493 JUMP JUMPDEST SWAP2 PUSH1 0xC4 CALLDATALOAD DUP3 DUP2 GT PUSH2 0x22F JUMPI PUSH2 0x2363 SWAP1 CALLDATASIZE SWAP1 PUSH1 0x4 ADD PUSH2 0x2493 JUMP JUMPDEST SWAP2 PUSH1 0xE4 CALLDATALOAD SWAP1 DUP2 GT PUSH2 0x22F JUMPI PUSH2 0x237F PUSH2 0x239A SWAP2 CALLDATASIZE SWAP1 PUSH1 0x4 ADD PUSH2 0x2493 JUMP JUMPDEST SWAP2 DUP9 PUSH1 0x0 MSTORE PUSH1 0x0 PUSH1 0x20 MSTORE PUSH1 0x9 PUSH1 0x40 PUSH1 0x0 KECCAK256 ADD SLOAD AND CALLER EQ PUSH2 0x2F7D JUMP JUMPDEST DUP7 PUSH1 0x0 MSTORE PUSH1 0x0 PUSH1 0x20 MSTORE PUSH1 0xFF PUSH1 0x9 PUSH1 0x40 PUSH1 0x0 KECCAK256 ADD SLOAD PUSH1 0xA0 SHR AND ISZERO PUSH2 0x23FD JUMPI PUSH2 0x2111 SWAP8 DUP8 PUSH1 0x0 MSTORE PUSH1 0x0 PUSH1 0x20 MSTORE PUSH2 0x23D4 PUSH1 0x7 PUSH1 0x40 PUSH1 0x0 KECCAK256 ADD PUSH2 0x2558 JUMP JUMPDEST SWAP5 DUP9 PUSH1 0x0 MSTORE PUSH1 0x0 PUSH1 0x20 MSTORE PUSH2 0x23EE PUSH1 0x8 PUSH1 0x40 PUSH1 0x0 KECCAK256 ADD PUSH2 0x2558 JUMP JUMPDEST SWAP7 PUSH2 0x23F7 PUSH2 0x2FD4 JUMP JUMPDEST SWAP10 PUSH2 0x26D9 JUMP JUMPDEST PUSH1 0x40 MLOAD PUSH3 0x461BCD PUSH1 0xE5 SHL DUP2 MSTORE PUSH1 0x20 PUSH1 0x4 DUP3 ADD MSTORE PUSH1 0x16 PUSH1 0x24 DUP3 ADD MSTORE PUSH22 0x13185B99081A5CC81B9BDD081C9959DA5CDD195C9959 PUSH1 0x52 SHL PUSH1 0x44 DUP3 ADD MSTORE PUSH1 0x64 SWAP1 REVERT JUMPDEST PUSH2 0x160 DUP2 ADD SWAP1 DUP2 LT PUSH1 0x1 PUSH1 0x1 PUSH1 0x40 SHL SUB DUP3 GT OR PUSH2 0xC9C JUMPI PUSH1 0x40 MSTORE JUMP JUMPDEST PUSH1 0x40 DUP2 ADD SWAP1 DUP2 LT PUSH1 0x1 PUSH1 0x1 PUSH1 0x40 SHL SUB DUP3 GT OR PUSH2 0xC9C JUMPI PUSH1 0x40 MSTORE JUMP JUMPDEST SWAP1 PUSH1 0x1F DUP1 NOT SWAP2 ADD AND DUP2 ADD SWAP1 DUP2 LT PUSH1 0x1 PUSH1 0x1 PUSH1 0x40 SHL SUB DUP3 GT OR PUSH2 0xC9C JUMPI PUSH1 0x40 MSTORE JUMP JUMPDEST DUP2 PUSH1 0x1F DUP3 ADD SLT ISZERO PUSH2 0x22F JUMPI DUP1 CALLDATALOAD SWAP1 PUSH1 0x1 PUSH1 0x1 PUSH1 0x40 SHL SUB DUP3 GT PUSH2 0xC9C JUMPI PUSH1 0x40 MLOAD SWAP3 PUSH2 0x24C7 PUSH1 0x1F DUP5 ADD PUSH1 0x1F NOT AND PUSH1 0x20 ADD DUP6 PUSH2 0x2472 JUMP JUMPDEST DUP3 DUP5 MSTORE PUSH1 0x20 DUP4 DUP4 ADD ADD GT PUSH2 0x22F JUMPI DUP2 PUSH1 0x0 SWAP3 PUSH1 0x20 DUP1 SWAP4 ADD DUP4 DUP7 ADD CALLDATACOPY DUP4 ADD ADD MSTORE SWAP1 JUMP JUMPDEST PUSH1 0x3 SLOAD DUP2 LT ISZERO PUSH2 0x2508 JUMPI PUSH1 0x3 PUSH1 0x0 MSTORE PUSH1 0xB PUSH1 0x20 PUSH1 0x0 KECCAK256 SWAP2 MUL ADD SWAP1 PUSH1 0x0 SWAP1 JUMP JUMPDEST PUSH4 0x4E487B71 PUSH1 0xE0 SHL PUSH1 0x0 MSTORE PUSH1 0x32 PUSH1 0x4 MSTORE PUSH1 0x24 PUSH1 0x0 REVERT JUMPDEST SWAP1 PUSH1 0x1 DUP3 DUP2 SHR SWAP3 AND DUP1 ISZERO PUSH2 0x254E JUMPI JUMPDEST PUSH1 0x20 DUP4 LT EQ PUSH2 0x2538 JUMPI JUMP JUMPDEST PUSH4 0x4E487B71 PUSH1 0xE0 SHL PUSH1 0x0 MSTORE PUSH1 0x22 PUSH1 0x4 MSTORE PUSH1 0x24 PUSH1 0x0 REVERT JUMPDEST SWAP2 PUSH1 0x7F AND SWAP2 PUSH2 0x252D JUMP JUMPDEST SWAP1 PUSH1 0x40 MLOAD SWAP2 DUP3 PUSH1 0x0 DUP3 SLOAD SWAP3 PUSH2 0x256C DUP5 PUSH2 0x251E JUMP JUMPDEST SWAP1 DUP2 DUP5 MSTORE PUSH1 0x1 SWAP5 DUP6 DUP2 AND SWAP1 DUP2 PUSH1 0x0 EQ PUSH2 0x25DB JUMPI POP PUSH1 0x1 EQ PUSH2 0x2598 JUMPI JUMPDEST POP POP PUSH2 0x2596 SWAP3 POP SUB DUP4 PUSH2 0x2472 JUMP JUMPDEST JUMP JUMPDEST SWAP1 SWAP4 SWAP2 POP PUSH1 0x0 MSTORE PUSH1 0x20 SWAP1 DUP2 PUSH1 0x0 KECCAK256 SWAP4 PUSH1 0x0 SWAP2 JUMPDEST DUP2 DUP4 LT PUSH2 0x25C3 JUMPI POP POP PUSH2 0x2596 SWAP4 POP DUP3 ADD ADD CODESIZE DUP1 PUSH2 0x2588 JUMP JUMPDEST DUP6 SLOAD DUP9 DUP5 ADD DUP6 ADD MSTORE SWAP5 DUP6 ADD SWAP5 DUP8 SWAP5 POP SWAP2 DUP4 ADD SWAP2 PUSH2 0x25AB JUMP JUMPDEST SWAP2 POP POP PUSH2 0x2596 SWAP5 POP PUSH1 0x20 SWAP3 POP PUSH1 0xFF NOT AND DUP3 DUP5 ADD MSTORE ISZERO ISZERO PUSH1 0x5 SHL DUP3 ADD ADD CODESIZE DUP1 PUSH2 0x2588 JUMP JUMPDEST SWAP2 SWAP1 DUP3 MLOAD SWAP3 DUP4 DUP3 MSTORE PUSH1 0x0 JUMPDEST DUP5 DUP2 LT PUSH2 0x262A JUMPI POP POP DUP3 PUSH1 0x0 PUSH1 0x20 DUP1 SWAP5 SWAP6 DUP5 ADD ADD MSTORE PUSH1 0x1F DUP1 NOT SWAP2 ADD AND ADD ADD SWAP1 JUMP JUMPDEST PUSH1 0x20 DUP2 DUP4 ADD DUP2 ADD MLOAD DUP5 DUP4 ADD DUP3 ADD MSTORE ADD PUSH2 0x2609 JUMP JUMPDEST PUSH1 0x2 SLOAD DUP2 LT ISZERO PUSH2 0x2508 JUMPI PUSH1 0x2 PUSH1 0x0 MSTORE PUSH1 0x20 PUSH1 0x0 KECCAK256 ADD SWAP1 PUSH1 0x0 SWAP1 JUMP JUMPDEST PUSH1 0x40 MLOAD SWAP1 PUSH2 0x2666 DUP3 PUSH2 0x2457 JUMP JUMPDEST PUSH1 0x8 DUP3 MSTORE PUSH8 0x3932B3B4B9BA32B9 PUSH1 0xC1 SHL PUSH1 0x20 DUP4 ADD MSTORE JUMP JUMPDEST DUP2 DUP2 LT PUSH2 0x2688 JUMPI POP POP JUMP JUMPDEST PUSH1 0x0 DUP2 SSTORE PUSH1 0x1 ADD PUSH2 0x267D JUMP JUMPDEST SWAP2 SWAP1 PUSH1 0x1F DUP2 GT PUSH2 0x26A3 JUMPI POP POP POP JUMP JUMPDEST PUSH2 0x2596 SWAP3 PUSH1 0x0 MSTORE PUSH1 0x20 PUSH1 0x0 KECCAK256 SWAP1 PUSH1 0x20 PUSH1 0x1F DUP5 ADD PUSH1 0x5 SHR DUP4 ADD SWAP4 LT PUSH2 0x26CF JUMPI JUMPDEST PUSH1 0x1F ADD PUSH1 0x5 SHR ADD SWAP1 PUSH2 0x267D JUMP JUMPDEST SWAP1 SWAP2 POP DUP2 SWAP1 PUSH2 0x26C2 JUMP JUMPDEST SWAP9 SWAP8 SWAP5 SWAP2 SWAP7 SWAP4 SWAP1 SWAP6 SWAP3 PUSH1 0x40 MLOAD SWAP8 PUSH2 0x26EF DUP10 PUSH2 0x243B JUMP JUMPDEST DUP11 DUP10 MSTORE PUSH1 0x20 DUP10 ADD SWAP8 DUP9 MSTORE PUSH1 0x40 DUP10 ADD MSTORE PUSH1 0x60 DUP9 ADD MSTORE PUSH1 0x80 DUP8 ADD MSTORE PUSH1 0xA0 DUP7 ADD MSTORE PUSH1 0xC0 DUP6 ADD MSTORE PUSH1 0xE0 DUP5 ADD MSTORE PUSH2 0x100 DUP4 ADD MSTORE PUSH1 0x1 PUSH1 0x1 PUSH1 0xA0 SHL SUB DUP4 AND PUSH2 0x120 DUP4 ADD MSTORE PUSH2 0x140 DUP3 ADD DUP6 SWAP1 MSTORE PUSH1 0x3 SLOAD PUSH1 0x1 PUSH1 0x40 SHL DUP2 LT ISZERO PUSH2 0xC9C JUMPI DUP1 PUSH1 0x1 PUSH2 0x2754 SWAP3 ADD PUSH1 0x3 SSTORE PUSH2 0x24E9 JUMP JUMPDEST SWAP2 SWAP1 SWAP2 PUSH2 0x153F JUMPI DUP3 MLOAD DUP3 SSTORE MLOAD DUP1 MLOAD SWAP1 PUSH1 0x1 PUSH1 0x1 PUSH1 0x40 SHL SUB DUP3 GT PUSH2 0xC9C JUMPI DUP2 SWAP1 PUSH2 0x2784 DUP3 PUSH2 0x10D3 PUSH1 0x1 DUP8 ADD SLOAD PUSH2 0x251E JUMP JUMPDEST PUSH1 0x20 SWAP1 PUSH1 0x1F DUP4 GT PUSH1 0x1 EQ PUSH2 0x2F0B JUMPI PUSH1 0x0 SWAP3 PUSH2 0x2F00 JUMPI JUMPDEST POP POP DUP2 PUSH1 0x1 SHL SWAP2 PUSH1 0x0 NOT SWAP1 PUSH1 0x3 SHL SHR NOT AND OR PUSH1 0x1 DUP3 ADD SSTORE JUMPDEST PUSH1 0x40 DUP3 ADD MLOAD DUP1 MLOAD SWAP1 PUSH1 0x1 PUSH1 0x1 PUSH1 0x40 SHL SUB DUP3 GT PUSH2 0xC9C JUMPI DUP2 SWAP1 PUSH2 0x27E4 DUP3 PUSH2 0x27DB PUSH1 0x2 DUP8 ADD SLOAD PUSH2 0x251E JUMP JUMPDEST PUSH1 0x2 DUP8 ADD PUSH2 0x2694 JUMP JUMPDEST PUSH1 0x20 SWAP1 PUSH1 0x1F DUP4 GT PUSH1 0x1 EQ PUSH2 0x2E8E JUMPI PUSH1 0x0 SWAP3 PUSH2 0x2E83 JUMPI JUMPDEST POP POP DUP2 PUSH1 0x1 SHL SWAP2 PUSH1 0x0 NOT SWAP1 PUSH1 0x3 SHL SHR NOT AND OR PUSH1 0x2 DUP3 ADD SSTORE JUMPDEST PUSH1 0x60 DUP3 ADD MLOAD DUP1 MLOAD SWAP1 PUSH1 0x1 PUSH1 0x1 PUSH1 0x40 SHL SUB DUP3 GT PUSH2 0xC9C JUMPI DUP2 SWAP1 PUSH2 0x2844 DUP3 PUSH2 0x283B PUSH1 0x3 DUP8 ADD SLOAD PUSH2 0x251E JUMP JUMPDEST PUSH1 0x3 DUP8 ADD PUSH2 0x2694 JUMP JUMPDEST PUSH1 0x20 SWAP1 PUSH1 0x1F DUP4 GT PUSH1 0x1 EQ PUSH2 0x2E11 JUMPI PUSH1 0x0 SWAP3 PUSH2 0x2E06 JUMPI JUMPDEST POP POP DUP2 PUSH1 0x1 SHL SWAP2 PUSH1 0x0 NOT SWAP1 PUSH1 0x3 SHL SHR NOT AND OR PUSH1 0x3 DUP3 ADD SSTORE JUMPDEST PUSH1 0x80 DUP3 ADD MLOAD DUP1 MLOAD SWAP1 PUSH1 0x1 PUSH1 0x1 PUSH1 0x40 SHL SUB DUP3 GT PUSH2 0xC9C JUMPI DUP2 SWAP1 PUSH2 0x289B DUP3 PUSH2 0x11F9 PUSH1 0x4 DUP8 ADD SLOAD PUSH2 0x251E JUMP JUMPDEST PUSH1 0x20 SWAP1 PUSH1 0x1F DUP4 GT PUSH1 0x1 EQ PUSH2 0x2D94 JUMPI PUSH1 0x0 SWAP3 PUSH2 0x2D89 JUMPI JUMPDEST POP POP DUP2 PUSH1 0x1 SHL SWAP2 PUSH1 0x0 NOT SWAP1 PUSH1 0x3 SHL SHR NOT AND OR PUSH1 0x4 DUP3 ADD SSTORE JUMPDEST PUSH1 0xA0 DUP3 ADD MLOAD DUP1 MLOAD SWAP1 PUSH1 0x1 PUSH1 0x1 PUSH1 0x40 SHL SUB DUP3 GT PUSH2 0xC9C JUMPI DUP2 SWAP1 PUSH2 0x28FB DUP3 PUSH2 0x28F2 PUSH1 0x5 DUP8 ADD SLOAD PUSH2 0x251E JUMP JUMPDEST PUSH1 0x5 DUP8 ADD PUSH2 0x2694 JUMP JUMPDEST PUSH1 0x20 SWAP1 PUSH1 0x1F DUP4 GT PUSH1 0x1 EQ PUSH2 0x2D17 JUMPI PUSH1 0x0 SWAP3 PUSH2 0x2D0C JUMPI JUMPDEST POP POP DUP2 PUSH1 0x1 SHL SWAP2 PUSH1 0x0 NOT SWAP1 PUSH1 0x3 SHL SHR NOT AND OR PUSH1 0x5 DUP3 ADD SSTORE JUMPDEST PUSH1 0xC0 DUP3 ADD MLOAD DUP1 MLOAD SWAP1 PUSH1 0x1 PUSH1 0x1 PUSH1 0x40 SHL SUB DUP3 GT PUSH2 0xC9C JUMPI DUP2 SWAP1 PUSH2 0x295B DUP3 PUSH2 0x2952 PUSH1 0x6 DUP8 ADD SLOAD PUSH2 0x251E JUMP JUMPDEST PUSH1 0x6 DUP8 ADD PUSH2 0x2694 JUMP JUMPDEST PUSH1 0x20 SWAP1 PUSH1 0x1F DUP4 GT PUSH1 0x1 EQ PUSH2 0x2C9A JUMPI PUSH1 0x0 SWAP3 PUSH2 0x2C8F JUMPI JUMPDEST POP POP DUP2 PUSH1 0x1 SHL SWAP2 PUSH1 0x0 NOT SWAP1 PUSH1 0x3 SHL SHR NOT AND OR PUSH1 0x6 DUP3 ADD SSTORE JUMPDEST PUSH1 0xE0 DUP3 ADD MLOAD DUP1 MLOAD SWAP1 PUSH1 0x1 PUSH1 0x1 PUSH1 0x40 SHL SUB DUP3 GT PUSH2 0xC9C JUMPI DUP2 SWAP1 PUSH2 0x29B2 DUP3 PUSH2 0x131F PUSH1 0x7 DUP8 ADD SLOAD PUSH2 0x251E JUMP JUMPDEST PUSH1 0x20 SWAP1 PUSH1 0x1F DUP4 GT PUSH1 0x1 EQ PUSH2 0x2C1D JUMPI PUSH1 0x0 SWAP3 PUSH2 0x2C12 JUMPI JUMPDEST POP POP DUP2 PUSH1 0x1 SHL SWAP2 PUSH1 0x0 NOT SWAP1 PUSH1 0x3 SHL SHR NOT AND OR PUSH1 0x7 DUP3 ADD SSTORE JUMPDEST PUSH2 0x100 DUP3 ADD MLOAD DUP1 MLOAD PUSH1 0x1 PUSH1 0x1 PUSH1 0x40 SHL SUB DUP2 GT PUSH2 0xC9C JUMPI PUSH1 0x8 DUP4 ADD SWAP2 PUSH2 0x2A0F DUP3 PUSH2 0x2A09 DUP6 SLOAD PUSH2 0x251E JUMP JUMPDEST DUP6 PUSH2 0x2694 JUMP JUMPDEST PUSH1 0x20 SWAP1 PUSH1 0x1F DUP4 GT PUSH1 0x1 EQ PUSH2 0x2BA3 JUMPI SWAP2 DUP1 PUSH1 0xA SWAP5 SWAP3 PUSH2 0x140 SWAP7 SWAP5 PUSH1 0x0 SWAP3 PUSH2 0x2B98 JUMPI JUMPDEST POP POP DUP2 PUSH1 0x1 SHL SWAP2 PUSH1 0x0 NOT SWAP1 PUSH1 0x3 SHL SHR NOT AND OR SWAP1 SSTORE JUMPDEST PUSH1 0x9 DUP2 ADD PUSH1 0x1 DUP1 PUSH1 0xA0 SHL SUB PUSH2 0x120 DUP7 ADD MLOAD AND PUSH1 0x1 DUP1 PUSH1 0xA0 SHL SUB NOT DUP3 SLOAD AND OR SWAP1 SSTORE ADD SWAP2 ADD MLOAD DUP1 MLOAD SWAP1 PUSH1 0x1 PUSH1 0x1 PUSH1 0x40 SHL SUB DUP3 GT PUSH2 0xC9C JUMPI PUSH2 0x2A88 DUP3 PUSH2 0x2A09 DUP6 SLOAD PUSH2 0x251E JUMP JUMPDEST PUSH1 0x20 SWAP1 PUSH1 0x1F DUP4 GT PUSH1 0x1 EQ PUSH2 0x2B0A JUMPI SWAP2 DUP1 PUSH2 0x2AFA SWAP5 SWAP3 PUSH32 0x90B328F02ED250FF4BF17CAFCBD924782F15C92B3A87A4082E92AE216E1822C2 SWAP7 SWAP5 PUSH1 0x0 SWAP3 PUSH2 0x2AFF JUMPI JUMPDEST POP POP DUP2 PUSH1 0x1 SHL SWAP2 PUSH1 0x0 NOT SWAP1 PUSH1 0x3 SHL SHR NOT AND OR SWAP1 SSTORE JUMPDEST PUSH1 0x40 MLOAD SWAP2 DUP3 SWAP2 PUSH1 0x20 DUP4 MSTORE PUSH1 0x1 DUP1 PUSH1 0xA0 SHL SUB AND SWAP6 PUSH1 0x20 DUP4 ADD SWAP1 PUSH2 0x25FE JUMP JUMPDEST SUB SWAP1 LOG3 JUMP JUMPDEST ADD MLOAD SWAP1 POP CODESIZE DUP1 PUSH2 0x2AC8 JUMP JUMPDEST SWAP1 PUSH1 0x1F NOT DUP4 AND SWAP2 DUP5 PUSH1 0x0 MSTORE PUSH1 0x20 PUSH1 0x0 KECCAK256 SWAP3 PUSH1 0x0 JUMPDEST DUP2 DUP2 LT PUSH2 0x2B80 JUMPI POP SWAP3 PUSH1 0x1 SWAP3 DUP6 SWAP3 PUSH32 0x90B328F02ED250FF4BF17CAFCBD924782F15C92B3A87A4082E92AE216E1822C2 SWAP9 SWAP7 PUSH2 0x2AFA SWAP9 SWAP7 LT PUSH2 0x2B67 JUMPI JUMPDEST POP POP POP DUP2 SHL ADD SWAP1 SSTORE PUSH2 0x2ADD JUMP JUMPDEST ADD MLOAD PUSH1 0x0 NOT PUSH1 0xF8 DUP5 PUSH1 0x3 SHL AND SHR NOT AND SWAP1 SSTORE CODESIZE DUP1 DUP1 PUSH2 0x2B5A JUMP JUMPDEST SWAP3 SWAP4 PUSH1 0x20 PUSH1 0x1 DUP2 SWAP3 DUP8 DUP7 ADD MLOAD DUP2 SSTORE ADD SWAP6 ADD SWAP4 ADD PUSH2 0x2B1E JUMP JUMPDEST ADD MLOAD SWAP1 POP CODESIZE DUP1 PUSH2 0x2A30 JUMP JUMPDEST SWAP1 PUSH1 0x1F NOT DUP4 AND SWAP2 DUP5 PUSH1 0x0 MSTORE PUSH1 0x20 PUSH1 0x0 KECCAK256 SWAP3 PUSH1 0x0 JUMPDEST DUP2 DUP2 LT PUSH2 0x2BFA JUMPI POP SWAP3 PUSH1 0x1 SWAP3 DUP6 SWAP3 PUSH2 0x140 SWAP9 SWAP7 PUSH1 0xA SWAP9 SWAP7 LT PUSH2 0x2BE1 JUMPI JUMPDEST POP POP POP DUP2 SHL ADD SWAP1 SSTORE PUSH2 0x2A45 JUMP JUMPDEST ADD MLOAD PUSH1 0x0 NOT PUSH1 0xF8 DUP5 PUSH1 0x3 SHL AND SHR NOT AND SWAP1 SSTORE CODESIZE DUP1 DUP1 PUSH2 0x2BD4 JUMP JUMPDEST SWAP3 SWAP4 PUSH1 0x20 PUSH1 0x1 DUP2 SWAP3 DUP8 DUP7 ADD MLOAD DUP2 SSTORE ADD SWAP6 ADD SWAP4 ADD PUSH2 0x2BB7 JUMP JUMPDEST ADD MLOAD SWAP1 POP CODESIZE DUP1 PUSH2 0x29C8 JUMP JUMPDEST SWAP3 POP PUSH1 0x7 DUP5 ADD PUSH1 0x0 MSTORE PUSH1 0x20 PUSH1 0x0 KECCAK256 SWAP1 PUSH1 0x0 SWAP4 JUMPDEST PUSH1 0x1F NOT DUP5 AND DUP6 LT PUSH2 0x2C74 JUMPI PUSH1 0x1 SWAP5 POP DUP4 PUSH1 0x1F NOT DUP2 AND LT PUSH2 0x2C5B JUMPI JUMPDEST POP POP POP DUP2 SHL ADD PUSH1 0x7 DUP3 ADD SSTORE PUSH2 0x29E0 JUMP JUMPDEST ADD MLOAD PUSH1 0x0 NOT PUSH1 0xF8 DUP5 PUSH1 0x3 SHL AND SHR NOT AND SWAP1 SSTORE CODESIZE DUP1 DUP1 PUSH2 0x2C4B JUMP JUMPDEST DUP2 DUP2 ADD MLOAD DUP4 SSTORE PUSH1 0x20 SWAP5 DUP6 ADD SWAP5 PUSH1 0x1 SWAP1 SWAP4 ADD SWAP3 SWAP1 SWAP2 ADD SWAP1 PUSH2 0x2C30 JUMP JUMPDEST ADD MLOAD SWAP1 POP CODESIZE DUP1 PUSH2 0x2971 JUMP JUMPDEST SWAP3 POP PUSH1 0x6 DUP5 ADD PUSH1 0x0 MSTORE PUSH1 0x20 PUSH1 0x0 KECCAK256 SWAP1 PUSH1 0x0 SWAP4 JUMPDEST PUSH1 0x1F NOT DUP5 AND DUP6 LT PUSH2 0x2CF1 JUMPI PUSH1 0x1 SWAP5 POP DUP4 PUSH1 0x1F NOT DUP2 AND LT PUSH2 0x2CD8 JUMPI JUMPDEST POP POP POP DUP2 SHL ADD PUSH1 0x6 DUP3 ADD SSTORE PUSH2 0x2989 JUMP JUMPDEST ADD MLOAD PUSH1 0x0 NOT PUSH1 0xF8 DUP5 PUSH1 0x3 SHL AND SHR NOT AND SWAP1 SSTORE CODESIZE DUP1 DUP1 PUSH2 0x2CC8 JUMP JUMPDEST DUP2 DUP2 ADD MLOAD DUP4 SSTORE PUSH1 0x20 SWAP5 DUP6 ADD SWAP5 PUSH1 0x1 SWAP1 SWAP4 ADD SWAP3 SWAP1 SWAP2 ADD SWAP1 PUSH2 0x2CAD JUMP JUMPDEST ADD MLOAD SWAP1 POP CODESIZE DUP1 PUSH2 0x2911 JUMP JUMPDEST SWAP3 POP PUSH1 0x5 DUP5 ADD PUSH1 0x0 MSTORE PUSH1 0x20 PUSH1 0x0 KECCAK256 SWAP1 PUSH1 0x0 SWAP4 JUMPDEST PUSH1 0x1F NOT DUP5 AND DUP6 LT PUSH2 0x2D6E JUMPI PUSH1 0x1 SWAP5 POP DUP4 PUSH1 0x1F NOT DUP2 AND LT PUSH2 0x2D55 JUMPI JUMPDEST POP POP POP DUP2 SHL ADD PUSH1 0x5 DUP3 ADD SSTORE PUSH2 0x2929 JUMP JUMPDEST ADD MLOAD PUSH1 0x0 NOT PUSH1 0xF8 DUP5 PUSH1 0x3 SHL AND SHR NOT AND SWAP1 SSTORE CODESIZE DUP1 DUP1 PUSH2 0x2D45 JUMP JUMPDEST DUP2 DUP2 ADD MLOAD DUP4 SSTORE PUSH1 0x20 SWAP5 DUP6 ADD SWAP5 PUSH1 0x1 SWAP1 SWAP4 ADD SWAP3 SWAP1 SWAP2 ADD SWAP1 PUSH2 0x2D2A JUMP JUMPDEST ADD MLOAD SWAP1 POP CODESIZE DUP1 PUSH2 0x28B1 JUMP JUMPDEST SWAP3 POP PUSH1 0x4 DUP5 ADD PUSH1 0x0 MSTORE PUSH1 0x20 PUSH1 0x0 KECCAK256 SWAP1 PUSH1 0x0 SWAP4 JUMPDEST PUSH1 0x1F NOT DUP5 AND DUP6 LT PUSH2 0x2DEB JUMPI PUSH1 0x1 SWAP5 POP DUP4 PUSH1 0x1F NOT DUP2 AND LT PUSH2 0x2DD2 JUMPI JUMPDEST POP POP POP DUP2 SHL ADD PUSH1 0x4 DUP3 ADD SSTORE PUSH2 0x28C9 JUMP JUMPDEST ADD MLOAD PUSH1 0x0 NOT PUSH1 0xF8 DUP5 PUSH1 0x3 SHL AND SHR NOT AND SWAP1 SSTORE CODESIZE DUP1 DUP1 PUSH2 0x2DC2 JUMP JUMPDEST DUP2 DUP2 ADD MLOAD DUP4 SSTORE PUSH1 0x20 SWAP5 DUP6 ADD SWAP5 PUSH1 0x1 SWAP1 SWAP4 ADD SWAP3 SWAP1 SWAP2 ADD SWAP1 PUSH2 0x2DA7 JUMP JUMPDEST ADD MLOAD SWAP1 POP CODESIZE DUP1 PUSH2 0x285A JUMP JUMPDEST SWAP3 POP PUSH1 0x3 DUP5 ADD PUSH1 0x0 MSTORE PUSH1 0x20 PUSH1 0x0 KECCAK256 SWAP1 PUSH1 0x0 SWAP4 JUMPDEST PUSH1 0x1F NOT DUP5 AND DUP6 LT PUSH2 0x2E68 JUMPI PUSH1 0x1 SWAP5 POP DUP4 PUSH1 0x1F NOT DUP2 AND LT PUSH2 0x2E4F JUMPI JUMPDEST POP POP POP DUP2 SHL ADD PUSH1 0x3 DUP3 ADD SSTORE PUSH2 0x2872 JUMP JUMPDEST ADD MLOAD PUSH1 0x0 NOT PUSH1 0xF8 DUP5 PUSH1 0x3 SHL AND SHR NOT AND SWAP1 SSTORE CODESIZE DUP1 DUP1 PUSH2 0x2E3F JUMP JUMPDEST DUP2 DUP2 ADD MLOAD DUP4 SSTORE PUSH1 0x20 SWAP5 DUP6 ADD SWAP5 PUSH1 0x1 SWAP1 SWAP4 ADD SWAP3 SWAP1 SWAP2 ADD SWAP1 PUSH2 0x2E24 JUMP JUMPDEST ADD MLOAD SWAP1 POP CODESIZE DUP1 PUSH2 0x27FA JUMP JUMPDEST SWAP3 POP PUSH1 0x2 DUP5 ADD PUSH1 0x0 MSTORE PUSH1 0x20 PUSH1 0x0 KECCAK256 SWAP1 PUSH1 0x0 SWAP4 JUMPDEST PUSH1 0x1F NOT DUP5 AND DUP6 LT PUSH2 0x2EE5 JUMPI PUSH1 0x1 SWAP5 POP DUP4 PUSH1 0x1F NOT DUP2 AND LT PUSH2 0x2ECC JUMPI JUMPDEST POP POP POP DUP2 SHL ADD PUSH1 0x2 DUP3 ADD SSTORE PUSH2 0x2812 JUMP JUMPDEST ADD MLOAD PUSH1 0x0 NOT PUSH1 0xF8 DUP5 PUSH1 0x3 SHL AND SHR NOT AND SWAP1 SSTORE CODESIZE DUP1 DUP1 PUSH2 0x2EBC JUMP JUMPDEST DUP2 DUP2 ADD MLOAD DUP4 SSTORE PUSH1 0x20 SWAP5 DUP6 ADD SWAP5 PUSH1 0x1 SWAP1 SWAP4 ADD SWAP3 SWAP1 SWAP2 ADD SWAP1 PUSH2 0x2EA1 JUMP JUMPDEST ADD MLOAD SWAP1 POP CODESIZE DUP1 PUSH2 0x279A JUMP JUMPDEST SWAP3 POP PUSH1 0x1 DUP5 ADD PUSH1 0x0 MSTORE PUSH1 0x20 PUSH1 0x0 KECCAK256 SWAP1 PUSH1 0x0 SWAP4 JUMPDEST PUSH1 0x1F NOT DUP5 AND DUP6 LT PUSH2 0x2F62 JUMPI PUSH1 0x1 SWAP5 POP DUP4 PUSH1 0x1F NOT DUP2 AND LT PUSH2 0x2F49 JUMPI JUMPDEST POP POP POP DUP2 SHL ADD PUSH1 0x1 DUP3 ADD SSTORE PUSH2 0x27B2 JUMP JUMPDEST ADD MLOAD PUSH1 0x0 NOT PUSH1 0xF8 DUP5 PUSH1 0x3 SHL AND SHR NOT AND SWAP1 SSTORE CODESIZE DUP1 DUP1 PUSH2 0x2F39 JUMP JUMPDEST DUP2 DUP2 ADD MLOAD DUP4 SSTORE PUSH1 0x20 SWAP5 DUP6 ADD SWAP5 PUSH1 0x1 SWAP1 SWAP4 ADD SWAP3 SWAP1 SWAP2 ADD SWAP1 PUSH2 0x2F1E JUMP JUMPDEST ISZERO PUSH2 0x2F84 JUMPI JUMP JUMPDEST PUSH1 0x40 MLOAD PUSH3 0x461BCD PUSH1 0xE5 SHL DUP2 MSTORE PUSH1 0x20 PUSH1 0x4 DUP3 ADD MSTORE PUSH1 0x22 PUSH1 0x24 DUP3 ADD MSTORE PUSH32 0x596F7520617265206E6F7420746865206F776E6572206F662074686973206C61 PUSH1 0x44 DUP3 ADD MSTORE PUSH2 0x1B99 PUSH1 0xF2 SHL PUSH1 0x64 DUP3 ADD MSTORE PUSH1 0x84 SWAP1 REVERT JUMPDEST PUSH1 0x40 MLOAD SWAP1 PUSH2 0x2FE1 DUP3 PUSH2 0x2457 JUMP JUMPDEST PUSH1 0x8 DUP3 MSTORE PUSH8 0x3A3930B739B332B9 PUSH1 0xC1 SHL PUSH1 0x20 DUP4 ADD MSTORE JUMP JUMPDEST PUSH1 0x1 PUSH1 0x1 PUSH1 0x40 SHL SUB DUP2 GT PUSH2 0xC9C JUMPI PUSH1 0x5 SHL PUSH1 0x20 ADD SWAP1 JUMP JUMPDEST SWAP1 PUSH1 0x40 MLOAD PUSH2 0x301C DUP2 PUSH2 0x243B JUMP JUMPDEST PUSH2 0x140 PUSH2 0x30CD PUSH1 0xA DUP4 SWAP6 DUP1 SLOAD DUP6 MSTORE PUSH2 0x3036 PUSH1 0x1 DUP3 ADD PUSH2 0x2558 JUMP JUMPDEST PUSH1 0x20 DUP7 ADD MSTORE PUSH2 0x3047 PUSH1 0x2 DUP3 ADD PUSH2 0x2558 JUMP JUMPDEST PUSH1 0x40 DUP7 ADD MSTORE PUSH2 0x3058 PUSH1 0x3 DUP3 ADD PUSH2 0x2558 JUMP JUMPDEST PUSH1 0x60 DUP7 ADD MSTORE PUSH2 0x3069 PUSH1 0x4 DUP3 ADD PUSH2 0x2558 JUMP JUMPDEST PUSH1 0x80 DUP7 ADD MSTORE PUSH2 0x307A PUSH1 0x5 DUP3 ADD PUSH2 0x2558 JUMP JUMPDEST PUSH1 0xA0 DUP7 ADD MSTORE PUSH2 0x308B PUSH1 0x6 DUP3 ADD PUSH2 0x2558 JUMP JUMPDEST PUSH1 0xC0 DUP7 ADD MSTORE PUSH2 0x309C PUSH1 0x7 DUP3 ADD PUSH2 0x2558 JUMP JUMPDEST PUSH1 0xE0 DUP7 ADD MSTORE PUSH2 0x30AD PUSH1 0x8 DUP3 ADD PUSH2 0x2558 JUMP JUMPDEST PUSH2 0x100 DUP7 ADD MSTORE PUSH1 0x9 DUP2 ADD SLOAD PUSH1 0x1 PUSH1 0x1 PUSH1 0xA0 SHL SUB AND PUSH2 0x120 DUP7 ADD MSTORE ADD PUSH2 0x2558 JUMP JUMPDEST SWAP2 ADD MSTORE JUMP JUMPDEST PUSH1 0x0 NOT DUP2 EQ PUSH2 0x162A JUMPI PUSH1 0x1 ADD SWAP1 JUMP JUMPDEST SWAP1 DUP1 DUP3 EQ PUSH2 0x31B5 JUMPI PUSH2 0x30F3 DUP2 SLOAD PUSH2 0x251E JUMP JUMPDEST SWAP1 PUSH1 0x1 PUSH1 0x1 PUSH1 0x40 SHL SUB DUP3 GT PUSH2 0xC9C JUMPI DUP2 SWAP1 PUSH2 0x3112 DUP3 PUSH2 0x9F5 DUP7 SLOAD PUSH2 0x251E JUMP JUMPDEST PUSH1 0x0 SWAP1 PUSH1 0x1F DUP4 GT PUSH1 0x1 EQ PUSH2 0x3149 JUMPI PUSH1 0x0 SWAP3 PUSH2 0x313E JUMPI JUMPDEST POP POP DUP2 PUSH1 0x1 SHL SWAP2 PUSH1 0x0 NOT SWAP1 PUSH1 0x3 SHL SHR NOT AND OR SWAP1 SSTORE JUMP JUMPDEST ADD SLOAD SWAP1 POP CODESIZE DUP1 PUSH2 0x3128 JUMP JUMPDEST DUP2 MSTORE PUSH1 0x20 DUP1 DUP3 KECCAK256 DUP6 DUP4 MSTORE DUP2 DUP4 KECCAK256 SWAP4 POP SWAP1 PUSH1 0x1F NOT DUP6 AND SWAP1 DUP4 SWAP1 JUMPDEST DUP3 DUP3 LT PUSH2 0x319C JUMPI POP POP SWAP1 DUP5 PUSH1 0x1 SWAP6 SWAP5 SWAP4 SWAP3 LT PUSH2 0x3183 JUMPI JUMPDEST POP POP POP DUP2 SHL ADD SWAP1 SSTORE JUMP JUMPDEST ADD SLOAD PUSH1 0x0 NOT PUSH1 0xF8 DUP5 PUSH1 0x3 SHL AND SHR NOT AND SWAP1 SSTORE CODESIZE DUP1 DUP1 PUSH2 0x3179 JUMP JUMPDEST DUP5 SWAP6 DUP2 SWAP3 SWAP6 DUP6 ADD SLOAD DUP2 SSTORE PUSH1 0x1 DUP1 SWAP2 ADD SWAP7 ADD SWAP5 ADD SWAP1 PUSH2 0x3162 JUMP JUMPDEST POP POP JUMP JUMPDEST PUSH2 0x31C3 DUP2 SLOAD PUSH2 0x251E JUMP JUMPDEST SWAP1 DUP2 PUSH2 0x31CD JUMPI POP POP JUMP JUMPDEST DUP2 PUSH1 0x1F PUSH1 0x0 SWAP4 GT PUSH1 0x1 EQ PUSH2 0x31DF JUMPI POP SSTORE JUMP JUMPDEST SWAP1 DUP1 DUP4 SWAP2 DUP3 MSTORE PUSH2 0x31FE PUSH1 0x1F PUSH1 0x20 DUP5 KECCAK256 SWAP5 ADD PUSH1 0x5 SHR DUP5 ADD PUSH1 0x1 DUP6 ADD PUSH2 0x267D JUMP JUMPDEST SSTORE SSTORE JUMP JUMPDEST DUP1 MLOAD DUP3 LT ISZERO PUSH2 0x2508 JUMPI PUSH1 0x20 SWAP2 PUSH1 0x5 SHL ADD ADD SWAP1 JUMP INVALID LOG2 PUSH5 0x6970667358 0x22 SLT KECCAK256 0xC8 0xC4 DUP11 CALLER PUSH8 0x72B0301DA12F323C 0xE3 DUP4 0xE4 LOG0 0xBE SMOD GAS EXTCODESIZE 0x2C 0xBA DUP3 JUMPI BLOCKHASH MSTORE8 0xB3 GASLIMIT AND MUL PUSH16 0x64736F6C634300081300330000000000 "},"methodIdentifiers":{"getAllLandDetails()":"a6ac704e","getLandDetails(uint256)":"fe0cb7dc","getPendingRequests()":"80a1f712","landCounter()":"9e29ce18","landRegistry(uint256)":"a3695b18","pendingRequests(uint256)":"3c652a9a","registerLand(string,uint256,string,string,string,string,string,string,string)":"4abac37b","registeredLandIds(uint256)":"da5f55e9","transferLand(uint256,address,string,string,string,string,string,string)":"09c05b0e","updateLandDetails(uint256,string,string,string,string,string,string,string)":"7ce411f9","verifyRequest(uint256)":"7ae6da9b"}}}}}