{"contracts/UserManagement.sol":{"UserManagement":{"abi":[{"anonymous":false,"inputs":[{"indexed":true,"internalType":"address","name":"userAddress","type":"address"},{"indexed":false,"internalType":"string","name":"cnic","type":"string"},{"indexed":false,"internalType":"string","name":"name","type":"string"},{"indexed":false,"internalType":"string","name":"email","type":"string"}],"name":"UserRegistered","type":"event"},{"inputs":[{"internalType":"address","name":"_userAddress","type":"address"}],"name":"getNameForAddress","outputs":[{"internalType":"string","name":"","type":"string"}],"stateMutability":"view","type":"function"},{"inputs":[],"name":"getUser","outputs":[{"internalType":"string","name":"","type":"string"},{"internalType":"string","name":"","type":"string"},{"internalType":"string","name":"","type":"string"},{"internalType":"string","name":"","type":"string"}],"stateMutability":"view","type":"function"},{"inputs":[{"internalType":"string","name":"_email","type":"string"},{"internalType":"string","name":"_password","type":"string"}],"name":"loginUser","outputs":[],"stateMutability":"nonpayable","type":"function"},{"inputs":[],"name":"logoutUser","outputs":[],"stateMutability":"nonpayable","type":"function"},{"inputs":[{"internalType":"string","name":"_CNIC","type":"string"},{"internalType":"string","name":"_name","type":"string"},{"internalType":"string","name":"_fatherName","type":"string"},{"internalType":"string","name":"_phoneNumber","type":"string"},{"internalType":"string","name":"_email","type":"string"},{"internalType":"string","name":"_password","type":"string"},{"internalType":"string","name":"_permanentAddress","type":"string"},{"internalType":"string","name":"_currentAddress","type":"string"}],"name":"registerUser","outputs":[],"stateMutability":"nonpayable","type":"function"},{"inputs":[],"name":"totalUsers","outputs":[{"internalType":"uint256","name":"","type":"uint256"}],"stateMutability":"view","type":"function"},{"inputs":[{"internalType":"address","name":"","type":"address"}],"name":"users","outputs":[{"internalType":"string","name":"cnic","type":"string"},{"internalType":"string","name":"name","type":"string"},{"internalType":"string","name":"fatherName","type":"string"},{"internalType":"string","name":"phoneNumber","type":"string"},{"internalType":"string","name":"email","type":"string"},{"internalType":"string","name":"password","type":"string"},{"internalType":"string","name":"permanentAddress","type":"string"},{"internalType":"string","name":"currentAddress","type":"string"},{"internalType":"bool","name":"isregister","type":"bool"}],"stateMutability":"view","type":"function"}],"evm":{"bytecode":{"linkReferences":{},"object":"60808060405234610016576114c6908161001c8239f35b600080fdfe6080604052600436101561001257600080fd5b60003560e01c806322ce12e51461107157806367601dd114610360578063832880e714610249578063a87430ba14610111578063bff1f9e1146100f3578063d8c27b9b1461009d5763d8f145d21461006957600080fd5b3461009857600036600319011261009857336000526000602052600860406000200160ff198154169055600080f35b600080fd5b34610098576020366003190112610098576004356001600160a01b038116908190036100985760005260026020526100ef6100db60406000206113ea565b60405191829160208352602083019061138b565b0390f35b34610098576000366003190112610098576020600354604051908152f35b34610098576020366003190112610098576004356001600160a01b03811690819003610098576000526000602052604060002061014d816113ea565b610159600183016113ea565b91610166600282016113ea565b90610173600382016113ea565b61017f600483016113ea565b61018b600584016113ea565b90610198600685016113ea565b926101a5600786016113ea565b946008015460ff1695604051988998610120808b528a016101c59161138b565b89810360208b01526101d69161138b565b88810360408a01526101e79161138b565b87810360608901526101f89161138b565b86810360808801526102099161138b565b85810360a087015261021a9161138b565b84810360c086015261022b9161138b565b83810360e085015261023c9161138b565b9015156101008301520390f35b346100985760003660031901126100985733600052600060205261033660406000206100ef60405161027a816112d5565b610283836113ea565b8152610352610294600185016113ea565b93602083019485526102a8600282016113ea565b60408401526102b9600382016113ea565b60608401526103446102cd600483016113ea565b936080810194855260ff60086102e5600586016113ea565b9460a084019586526102f9600682016113ea565b60c085015261030a600782016113ea565b60e08501520154161515610100820152519551935191519360405197889760808952608089019061138b565b90878203602089015261138b565b90858203604087015261138b565b90838203606085015261138b565b346100985761010080600319360112610098576004356001600160401b03811161009857610392903690600401611312565b6024356001600160401b038111610098576103b1903690600401611312565b906044356001600160401b038111610098576103d1903690600401611312565b6064356001600160401b038111610098576103f0903690600401611312565b936084356001600160401b03811161009857610410903690600401611312565b9460a4356001600160401b03811161009857610430903690600401611312565b60c4356001600160401b0381116100985761044f903690600401611312565b9060e4356001600160401b0381116100985761046f903690600401611312565b9233600052600060205260ff600860406000200154166110155760405195610496876112d5565b8787528860208801526040870152606086015287608086015260a085015260c084015260e0830152600181830152336000526000602052604060002082518051906001600160401b0382116109935781906104f184546113b0565b601f8111610fc5575b50602090601f8311600114610f5957600092610f4e575b50508160011b916000199060031b1c19161781555b60208301518051906001600160401b03821161099357819061054b60018501546113b0565b601f8111610efb575b50602090601f8311600114610e8957600092610e7e575b50508160011b916000199060031b1c19161760018201555b60408301518051906001600160401b0382116109935781906105a860028501546113b0565b601f8111610e2b575b50602090601f8311600114610db957600092610dae575b50508160011b916000199060031b1c19161760028201555b60608301518051906001600160401b03821161099357819061060560038501546113b0565b601f8111610d5b575b50602090601f8311600114610ce957600092610cde575b50508160011b916000199060031b1c19161760038201555b60808301518051906001600160401b03821161099357819061066260048501546113b0565b601f8111610c8b575b50602090601f8311600114610c1957600092610c0e575b50508160011b916000199060031b1c19161760048201555b60a08301518051906001600160401b0382116109935781906106bf60058501546113b0565b601f8111610bbb575b50602090601f8311600114610b4957600092610b3e575b50508160011b916000199060031b1c19161760058201555b60c08301518051906001600160401b03821161099357819061071c60068501546113b0565b601f8111610aeb575b50602090601f8311600114610a7957600092610a6e575b50508160011b916000199060031b1c19161760068201555b60e08301518051906001600160401b0382116109935761077760078401546113b0565b601f8111610a27575b50602090601f83116001146109b4576008939291600091836109a9575b50508160011b916000199060031b1c19161760078201555b01910151151560ff8019835416911617905560405160208185516107dc8183858a01611368565b810160018152030190203360018060a01b0319825416179055336000526002602052604060002082516001600160401b0381116109935761081d82546113b0565b601f811161094b575b50806020601f82116001146108e7576000916108dc575b508160011b916000199060031b1c19161790555b6003549060001982146108c6576108c16108b27f509c70f523067009f7db7f46db6956d7af8b679323680dc3821a8bad001ac1e19460016108a4950160035560405194859460608652606086019061138b565b90848203602086015261138b565b8281036040840152339561138b565b0390a2005b634e487b7160e01b600052601160045260246000fd5b90508401518661083d565b6000848152602081209250601f198416905b8181106109335750908360019493921061091a575b5050811b019055610851565b86015160001960f88460031b161c19169055868061090e565b9192602060018192868b0151815501940192016108f9565b826000526020600020601f830160051c81019160208410610989575b601f0160051c01905b81811061097d5750610826565b60008155600101610970565b9091508190610967565b634e487b7160e01b600052604160045260246000fd5b01519050898061079d565b906007840160005260206000209160005b601f1985168110610a0f575091839160019360089695601f198116106109f6575b505050811b0160078201556107b5565b015160001960f88460031b161c191690558980806109e6565b919260206001819286850151815501940192016109c5565b600784016000526020600020601f840160051c810160208510610a67575b601f830160051c82018110610a5b575050610780565b60008155600101610a45565b5080610a45565b01519050888061073c565b9250600684016000526020600020906000935b601f1984168510610ad0576001945083601f19811610610ab7575b505050811b016006820155610754565b015160001960f88460031b161c19169055888080610aa7565b81810151835560209485019460019093019290910190610a8c565b909150600684016000526020600020601f840160051c810160208510610b37575b90849392915b601f830160051c82018110610b28575050610725565b60008155859450600101610b12565b5080610b0c565b0151905088806106df565b9250600584016000526020600020906000935b601f1984168510610ba0576001945083601f19811610610b87575b505050811b0160058201556106f7565b015160001960f88460031b161c19169055888080610b77565b81810151835560209485019460019093019290910190610b5c565b909150600584016000526020600020601f840160051c810160208510610c07575b90849392915b601f830160051c82018110610bf85750506106c8565b60008155859450600101610be2565b5080610bdc565b015190508880610682565b9250600484016000526020600020906000935b601f1984168510610c70576001945083601f19811610610c57575b505050811b01600482015561069a565b015160001960f88460031b161c19169055888080610c47565b81810151835560209485019460019093019290910190610c2c565b909150600484016000526020600020601f840160051c810160208510610cd7575b90849392915b601f830160051c82018110610cc857505061066b565b60008155859450600101610cb2565b5080610cac565b015190508880610625565b9250600384016000526020600020906000935b601f1984168510610d40576001945083601f19811610610d27575b505050811b01600382015561063d565b015160001960f88460031b161c19169055888080610d17565b81810151835560209485019460019093019290910190610cfc565b909150600384016000526020600020601f840160051c810160208510610da7575b90849392915b601f830160051c82018110610d9857505061060e565b60008155859450600101610d82565b5080610d7c565b0151905088806105c8565b9250600284016000526020600020906000935b601f1984168510610e10576001945083601f19811610610df7575b505050811b0160028201556105e0565b015160001960f88460031b161c19169055888080610de7565b81810151835560209485019460019093019290910190610dcc565b909150600284016000526020600020601f840160051c810160208510610e77575b90849392915b601f830160051c82018110610e685750506105b1565b60008155859450600101610e52565b5080610e4c565b01519050888061056b565b9250600184016000526020600020906000935b601f1984168510610ee0576001945083601f19811610610ec7575b505050811b016001820155610583565b015160001960f88460031b161c19169055888080610eb7565b81810151835560209485019460019093019290910190610e9c565b909150600184016000526020600020601f840160051c810160208510610f47575b90849392915b601f830160051c82018110610f38575050610554565b60008155859450600101610f22565b5080610f1c565b015190508880610511565b9250836000526020600020906000935b601f1984168510610faa576001945083601f19811610610f91575b505050811b018155610526565b015160001960f88460031b161c19169055888080610f84565b81810151835560209485019460019093019290910190610f69565b909150836000526020600020601f840160051c81016020851061100e575b90849392915b601f830160051c82018110610fff5750506104fa565b60008155859450600101610fe9565b5080610fe3565b60405162461bcd60e51b815260206004820152602e60248201527f557365722077697468207468697320457468657265756d20416464726573732060448201526d616c72656164792065786973747360901b6064820152608490fd5b34610098576040366003190112610098576001600160401b03600435818111610098576110a2903690600401611312565b90602435908111610098576110bb903690600401611312565b336000526020906000825260046040600020019260405193600094815495816110e3886113b0565b9182825287820194600199898b821691826000146112b7575050600114611276575b50611112925003826112f1565b519020908381519101200361123a573360005260008252600560406000200160405160009181815493611144856113b0565b9283835287830195888a8216918260001461121c5750506001146111db575b50611170925003826112f1565b519020908281519101200361119d576000903382525260086040600020019060ff19825416179055600080f35b6064906040519062461bcd60e51b8252600482015260176024820152760a0c2e6e6eedee4c840c8decae640dcdee840dac2e8c6d604b1b6044820152fd5b915050600052818580600020886000915b858310611203575050611170935082010188611163565b80919294505483858801015201910186908885936111ec565b60ff1916885261117095151560051b85010192508a91506111639050565b60405162461bcd60e51b815260048101839052601460248201527308adac2d2d840c8decae640dcdee840dac2e8c6d60631b6044820152606490fd5b915050600052818680600020896000915b85831061129e575050611112935082010189611105565b8091929450548385880101520191018790898593611287565b60ff1916885261111295151560051b85010192508b91506111059050565b61012081019081106001600160401b0382111761099357604052565b90601f801991011681019081106001600160401b0382111761099357604052565b81601f82011215610098578035906001600160401b0382116109935760405192611346601f8401601f1916602001856112f1565b8284526020838301011161009857816000926020809301838601378301015290565b60005b83811061137b5750506000910152565b818101518382015260200161136b565b906020916113a481518092818552858086019101611368565b601f01601f1916010190565b90600182811c921680156113e0575b60208310146113ca57565b634e487b7160e01b600052602260045260246000fd5b91607f16916113bf565b90604051918260008254926113fe846113b0565b90818452600194858116908160001461146d575060011461142a575b5050611428925003836112f1565b565b9093915060005260209081600020936000915b8183106114555750506114289350820101388061141a565b8554888401850152948501948794509183019161143d565b91505061142894506020925060ff191682840152151560051b820101388061141a56fea264697066735822122064a3502c88c42179e9cb687a374a5e13991869cf6094497d300c88a8d198ce4a64736f6c63430008130033","opcodes":"PUSH1 0x80 DUP1 PUSH1 0x40 MSTORE CALLVALUE PUSH2 0x16 JUMPI PUSH2 0x14C6 SWAP1 DUP2 PUSH2 0x1C DUP3 CODECOPY RETURN JUMPDEST PUSH1 0x0 DUP1 REVERT INVALID PUSH1 0x80 PUSH1 0x40 MSTORE PUSH1 0x4 CALLDATASIZE LT ISZERO PUSH2 0x12 JUMPI PUSH1 0x0 DUP1 REVERT JUMPDEST PUSH1 0x0 CALLDATALOAD PUSH1 0xE0 SHR DUP1 PUSH4 0x22CE12E5 EQ PUSH2 0x1071 JUMPI DUP1 PUSH4 0x67601DD1 EQ PUSH2 0x360 JUMPI DUP1 PUSH4 0x832880E7 EQ PUSH2 0x249 JUMPI DUP1 PUSH4 0xA87430BA EQ PUSH2 0x111 JUMPI DUP1 PUSH4 0xBFF1F9E1 EQ PUSH2 0xF3 JUMPI DUP1 PUSH4 0xD8C27B9B EQ PUSH2 0x9D JUMPI PUSH4 0xD8F145D2 EQ PUSH2 0x69 JUMPI PUSH1 0x0 DUP1 REVERT JUMPDEST CALLVALUE PUSH2 0x98 JUMPI PUSH1 0x0 CALLDATASIZE PUSH1 0x3 NOT ADD SLT PUSH2 0x98 JUMPI CALLER PUSH1 0x0 MSTORE PUSH1 0x0 PUSH1 0x20 MSTORE PUSH1 0x8 PUSH1 0x40 PUSH1 0x0 KECCAK256 ADD PUSH1 0xFF NOT DUP2 SLOAD AND SWAP1 SSTORE PUSH1 0x0 DUP1 RETURN JUMPDEST PUSH1 0x0 DUP1 REVERT JUMPDEST CALLVALUE PUSH2 0x98 JUMPI PUSH1 0x20 CALLDATASIZE PUSH1 0x3 NOT ADD SLT PUSH2 0x98 JUMPI PUSH1 0x4 CALLDATALOAD PUSH1 0x1 PUSH1 0x1 PUSH1 0xA0 SHL SUB DUP2 AND SWAP1 DUP2 SWAP1 SUB PUSH2 0x98 JUMPI PUSH1 0x0 MSTORE PUSH1 0x2 PUSH1 0x20 MSTORE PUSH2 0xEF PUSH2 0xDB PUSH1 0x40 PUSH1 0x0 KECCAK256 PUSH2 0x13EA JUMP JUMPDEST PUSH1 0x40 MLOAD SWAP2 DUP3 SWAP2 PUSH1 0x20 DUP4 MSTORE PUSH1 0x20 DUP4 ADD SWAP1 PUSH2 0x138B JUMP JUMPDEST SUB SWAP1 RETURN JUMPDEST CALLVALUE PUSH2 0x98 JUMPI PUSH1 0x0 CALLDATASIZE PUSH1 0x3 NOT ADD SLT PUSH2 0x98 JUMPI PUSH1 0x20 PUSH1 0x3 SLOAD PUSH1 0x40 MLOAD SWAP1 DUP2 MSTORE RETURN JUMPDEST CALLVALUE PUSH2 0x98 JUMPI PUSH1 0x20 CALLDATASIZE PUSH1 0x3 NOT ADD SLT PUSH2 0x98 JUMPI PUSH1 0x4 CALLDATALOAD PUSH1 0x1 PUSH1 0x1 PUSH1 0xA0 SHL SUB DUP2 AND SWAP1 DUP2 SWAP1 SUB PUSH2 0x98 JUMPI PUSH1 0x0 MSTORE PUSH1 0x0 PUSH1 0x20 MSTORE PUSH1 0x40 PUSH1 0x0 KECCAK256 PUSH2 0x14D DUP2 PUSH2 0x13EA JUMP JUMPDEST PUSH2 0x159 PUSH1 0x1 DUP4 ADD PUSH2 0x13EA JUMP JUMPDEST SWAP2 PUSH2 0x166 PUSH1 0x2 DUP3 ADD PUSH2 0x13EA JUMP JUMPDEST SWAP1 PUSH2 0x173 PUSH1 0x3 DUP3 ADD PUSH2 0x13EA JUMP JUMPDEST PUSH2 0x17F PUSH1 0x4 DUP4 ADD PUSH2 0x13EA JUMP JUMPDEST PUSH2 0x18B PUSH1 0x5 DUP5 ADD PUSH2 0x13EA JUMP JUMPDEST SWAP1 PUSH2 0x198 PUSH1 0x6 DUP6 ADD PUSH2 0x13EA JUMP JUMPDEST SWAP3 PUSH2 0x1A5 PUSH1 0x7 DUP7 ADD PUSH2 0x13EA JUMP JUMPDEST SWAP5 PUSH1 0x8 ADD SLOAD PUSH1 0xFF AND SWAP6 PUSH1 0x40 MLOAD SWAP9 DUP10 SWAP9 PUSH2 0x120 DUP1 DUP12 MSTORE DUP11 ADD PUSH2 0x1C5 SWAP2 PUSH2 0x138B JUMP JUMPDEST DUP10 DUP2 SUB PUSH1 0x20 DUP12 ADD MSTORE PUSH2 0x1D6 SWAP2 PUSH2 0x138B JUMP JUMPDEST DUP9 DUP2 SUB PUSH1 0x40 DUP11 ADD MSTORE PUSH2 0x1E7 SWAP2 PUSH2 0x138B JUMP JUMPDEST DUP8 DUP2 SUB PUSH1 0x60 DUP10 ADD MSTORE PUSH2 0x1F8 SWAP2 PUSH2 0x138B JUMP JUMPDEST DUP7 DUP2 SUB PUSH1 0x80 DUP9 ADD MSTORE PUSH2 0x209 SWAP2 PUSH2 0x138B JUMP JUMPDEST DUP6 DUP2 SUB PUSH1 0xA0 DUP8 ADD MSTORE PUSH2 0x21A SWAP2 PUSH2 0x138B JUMP JUMPDEST DUP5 DUP2 SUB PUSH1 0xC0 DUP7 ADD MSTORE PUSH2 0x22B SWAP2 PUSH2 0x138B JUMP JUMPDEST DUP4 DUP2 SUB PUSH1 0xE0 DUP6 ADD MSTORE PUSH2 0x23C SWAP2 PUSH2 0x138B JUMP JUMPDEST SWAP1 ISZERO ISZERO PUSH2 0x100 DUP4 ADD MSTORE SUB SWAP1 RETURN JUMPDEST CALLVALUE PUSH2 0x98 JUMPI PUSH1 0x0 CALLDATASIZE PUSH1 0x3 NOT ADD SLT PUSH2 0x98 JUMPI CALLER PUSH1 0x0 MSTORE PUSH1 0x0 PUSH1 0x20 MSTORE PUSH2 0x336 PUSH1 0x40 PUSH1 0x0 KECCAK256 PUSH2 0xEF PUSH1 0x40 MLOAD PUSH2 0x27A DUP2 PUSH2 0x12D5 JUMP JUMPDEST PUSH2 0x283 DUP4 PUSH2 0x13EA JUMP JUMPDEST DUP2 MSTORE PUSH2 0x352 PUSH2 0x294 PUSH1 0x1 DUP6 ADD PUSH2 0x13EA JUMP JUMPDEST SWAP4 PUSH1 0x20 DUP4 ADD SWAP5 DUP6 MSTORE PUSH2 0x2A8 PUSH1 0x2 DUP3 ADD PUSH2 0x13EA JUMP JUMPDEST PUSH1 0x40 DUP5 ADD MSTORE PUSH2 0x2B9 PUSH1 0x3 DUP3 ADD PUSH2 0x13EA JUMP JUMPDEST PUSH1 0x60 DUP5 ADD MSTORE PUSH2 0x344 PUSH2 0x2CD PUSH1 0x4 DUP4 ADD PUSH2 0x13EA JUMP JUMPDEST SWAP4 PUSH1 0x80 DUP2 ADD SWAP5 DUP6 MSTORE PUSH1 0xFF PUSH1 0x8 PUSH2 0x2E5 PUSH1 0x5 DUP7 ADD PUSH2 0x13EA JUMP JUMPDEST SWAP5 PUSH1 0xA0 DUP5 ADD SWAP6 DUP7 MSTORE PUSH2 0x2F9 PUSH1 0x6 DUP3 ADD PUSH2 0x13EA JUMP JUMPDEST PUSH1 0xC0 DUP6 ADD MSTORE PUSH2 0x30A PUSH1 0x7 DUP3 ADD PUSH2 0x13EA JUMP JUMPDEST PUSH1 0xE0 DUP6 ADD MSTORE ADD SLOAD AND ISZERO ISZERO PUSH2 0x100 DUP3 ADD MSTORE MLOAD SWAP6 MLOAD SWAP4 MLOAD SWAP2 MLOAD SWAP4 PUSH1 0x40 MLOAD SWAP8 DUP9 SWAP8 PUSH1 0x80 DUP10 MSTORE PUSH1 0x80 DUP10 ADD SWAP1 PUSH2 0x138B JUMP JUMPDEST SWAP1 DUP8 DUP3 SUB PUSH1 0x20 DUP10 ADD MSTORE PUSH2 0x138B JUMP JUMPDEST SWAP1 DUP6 DUP3 SUB PUSH1 0x40 DUP8 ADD MSTORE PUSH2 0x138B JUMP JUMPDEST SWAP1 DUP4 DUP3 SUB PUSH1 0x60 DUP6 ADD MSTORE PUSH2 0x138B JUMP JUMPDEST CALLVALUE PUSH2 0x98 JUMPI PUSH2 0x100 DUP1 PUSH1 0x3 NOT CALLDATASIZE ADD SLT PUSH2 0x98 JUMPI PUSH1 0x4 CALLDATALOAD PUSH1 0x1 PUSH1 0x1 PUSH1 0x40 SHL SUB DUP2 GT PUSH2 0x98 JUMPI PUSH2 0x392 SWAP1 CALLDATASIZE SWAP1 PUSH1 0x4 ADD PUSH2 0x1312 JUMP JUMPDEST PUSH1 0x24 CALLDATALOAD PUSH1 0x1 PUSH1 0x1 PUSH1 0x40 SHL SUB DUP2 GT PUSH2 0x98 JUMPI PUSH2 0x3B1 SWAP1 CALLDATASIZE SWAP1 PUSH1 0x4 ADD PUSH2 0x1312 JUMP JUMPDEST SWAP1 PUSH1 0x44 CALLDATALOAD PUSH1 0x1 PUSH1 0x1 PUSH1 0x40 SHL SUB DUP2 GT PUSH2 0x98 JUMPI PUSH2 0x3D1 SWAP1 CALLDATASIZE SWAP1 PUSH1 0x4 ADD PUSH2 0x1312 JUMP JUMPDEST PUSH1 0x64 CALLDATALOAD PUSH1 0x1 PUSH1 0x1 PUSH1 0x40 SHL SUB DUP2 GT PUSH2 0x98 JUMPI PUSH2 0x3F0 SWAP1 CALLDATASIZE SWAP1 PUSH1 0x4 ADD PUSH2 0x1312 JUMP JUMPDEST SWAP4 PUSH1 0x84 CALLDATALOAD PUSH1 0x1 PUSH1 0x1 PUSH1 0x40 SHL SUB DUP2 GT PUSH2 0x98 JUMPI PUSH2 0x410 SWAP1 CALLDATASIZE SWAP1 PUSH1 0x4 ADD PUSH2 0x1312 JUMP JUMPDEST SWAP5 PUSH1 0xA4 CALLDATALOAD PUSH1 0x1 PUSH1 0x1 PUSH1 0x40 SHL SUB DUP2 GT PUSH2 0x98 JUMPI PUSH2 0x430 SWAP1 CALLDATASIZE SWAP1 PUSH1 0x4 ADD PUSH2 0x1312 JUMP JUMPDEST PUSH1 0xC4 CALLDATALOAD PUSH1 0x1 PUSH1 0x1 PUSH1 0x40 SHL SUB DUP2 GT PUSH2 0x98 JUMPI PUSH2 0x44F SWAP1 CALLDATASIZE SWAP1 PUSH1 0x4 ADD PUSH2 0x1312 JUMP JUMPDEST SWAP1 PUSH1 0xE4 CALLDATALOAD PUSH1 0x1 PUSH1 0x1 PUSH1 0x40 SHL SUB DUP2 GT PUSH2 0x98 JUMPI PUSH2 0x46F SWAP1 CALLDATASIZE SWAP1 PUSH1 0x4 ADD PUSH2 0x1312 JUMP JUMPDEST SWAP3 CALLER PUSH1 0x0 MSTORE PUSH1 0x0 PUSH1 0x20 MSTORE PUSH1 0xFF PUSH1 0x8 PUSH1 0x40 PUSH1 0x0 KECCAK256 ADD SLOAD AND PUSH2 0x1015 JUMPI PUSH1 0x40 MLOAD SWAP6 PUSH2 0x496 DUP8 PUSH2 0x12D5 JUMP JUMPDEST DUP8 DUP8 MSTORE DUP9 PUSH1 0x20 DUP9 ADD MSTORE PUSH1 0x40 DUP8 ADD MSTORE PUSH1 0x60 DUP7 ADD MSTORE DUP8 PUSH1 0x80 DUP7 ADD MSTORE PUSH1 0xA0 DUP6 ADD MSTORE PUSH1 0xC0 DUP5 ADD MSTORE PUSH1 0xE0 DUP4 ADD MSTORE PUSH1 0x1 DUP2 DUP4 ADD MSTORE CALLER PUSH1 0x0 MSTORE PUSH1 0x0 PUSH1 0x20 MSTORE PUSH1 0x40 PUSH1 0x0 KECCAK256 DUP3 MLOAD DUP1 MLOAD SWAP1 PUSH1 0x1 PUSH1 0x1 PUSH1 0x40 SHL SUB DUP3 GT PUSH2 0x993 JUMPI DUP2 SWAP1 PUSH2 0x4F1 DUP5 SLOAD PUSH2 0x13B0 JUMP JUMPDEST PUSH1 0x1F DUP2 GT PUSH2 0xFC5 JUMPI JUMPDEST POP PUSH1 0x20 SWAP1 PUSH1 0x1F DUP4 GT PUSH1 0x1 EQ PUSH2 0xF59 JUMPI PUSH1 0x0 SWAP3 PUSH2 0xF4E JUMPI JUMPDEST POP POP DUP2 PUSH1 0x1 SHL SWAP2 PUSH1 0x0 NOT SWAP1 PUSH1 0x3 SHL SHR NOT AND OR DUP2 SSTORE JUMPDEST PUSH1 0x20 DUP4 ADD MLOAD DUP1 MLOAD SWAP1 PUSH1 0x1 PUSH1 0x1 PUSH1 0x40 SHL SUB DUP3 GT PUSH2 0x993 JUMPI DUP2 SWAP1 PUSH2 0x54B PUSH1 0x1 DUP6 ADD SLOAD PUSH2 0x13B0 JUMP JUMPDEST PUSH1 0x1F DUP2 GT PUSH2 0xEFB JUMPI JUMPDEST POP PUSH1 0x20 SWAP1 PUSH1 0x1F DUP4 GT PUSH1 0x1 EQ PUSH2 0xE89 JUMPI PUSH1 0x0 SWAP3 PUSH2 0xE7E JUMPI JUMPDEST POP POP DUP2 PUSH1 0x1 SHL SWAP2 PUSH1 0x0 NOT SWAP1 PUSH1 0x3 SHL SHR NOT AND OR PUSH1 0x1 DUP3 ADD SSTORE JUMPDEST PUSH1 0x40 DUP4 ADD MLOAD DUP1 MLOAD SWAP1 PUSH1 0x1 PUSH1 0x1 PUSH1 0x40 SHL SUB DUP3 GT PUSH2 0x993 JUMPI DUP2 SWAP1 PUSH2 0x5A8 PUSH1 0x2 DUP6 ADD SLOAD PUSH2 0x13B0 JUMP JUMPDEST PUSH1 0x1F DUP2 GT PUSH2 0xE2B JUMPI JUMPDEST POP PUSH1 0x20 SWAP1 PUSH1 0x1F DUP4 GT PUSH1 0x1 EQ PUSH2 0xDB9 JUMPI PUSH1 0x0 SWAP3 PUSH2 0xDAE JUMPI JUMPDEST POP POP DUP2 PUSH1 0x1 SHL SWAP2 PUSH1 0x0 NOT SWAP1 PUSH1 0x3 SHL SHR NOT AND OR PUSH1 0x2 DUP3 ADD SSTORE JUMPDEST PUSH1 0x60 DUP4 ADD MLOAD DUP1 MLOAD SWAP1 PUSH1 0x1 PUSH1 0x1 PUSH1 0x40 SHL SUB DUP3 GT PUSH2 0x993 JUMPI DUP2 SWAP1 PUSH2 0x605 PUSH1 0x3 DUP6 ADD SLOAD PUSH2 0x13B0 JUMP JUMPDEST PUSH1 0x1F DUP2 GT PUSH2 0xD5B JUMPI JUMPDEST POP PUSH1 0x20 SWAP1 PUSH1 0x1F DUP4 GT PUSH1 0x1 EQ PUSH2 0xCE9 JUMPI PUSH1 0x0 SWAP3 PUSH2 0xCDE JUMPI JUMPDEST POP POP DUP2 PUSH1 0x1 SHL SWAP2 PUSH1 0x0 NOT SWAP1 PUSH1 0x3 SHL SHR NOT AND OR PUSH1 0x3 DUP3 ADD SSTORE JUMPDEST PUSH1 0x80 DUP4 ADD MLOAD DUP1 MLOAD SWAP1 PUSH1 0x1 PUSH1 0x1 PUSH1 0x40 SHL SUB DUP3 GT PUSH2 0x993 JUMPI DUP2 SWAP1 PUSH2 0x662 PUSH1 0x4 DUP6 ADD SLOAD PUSH2 0x13B0 JUMP JUMPDEST PUSH1 0x1F DUP2 GT PUSH2 0xC8B JUMPI JUMPDEST POP PUSH1 0x20 SWAP1 PUSH1 0x1F DUP4 GT PUSH1 0x1 EQ PUSH2 0xC19 JUMPI PUSH1 0x0 SWAP3 PUSH2 0xC0E JUMPI JUMPDEST POP POP DUP2 PUSH1 0x1 SHL SWAP2 PUSH1 0x0 NOT SWAP1 PUSH1 0x3 SHL SHR NOT AND OR PUSH1 0x4 DUP3 ADD SSTORE JUMPDEST PUSH1 0xA0 DUP4 ADD MLOAD DUP1 MLOAD SWAP1 PUSH1 0x1 PUSH1 0x1 PUSH1 0x40 SHL SUB DUP3 GT PUSH2 0x993 JUMPI DUP2 SWAP1 PUSH2 0x6BF PUSH1 0x5 DUP6 ADD SLOAD PUSH2 0x13B0 JUMP JUMPDEST PUSH1 0x1F DUP2 GT PUSH2 0xBBB JUMPI JUMPDEST POP PUSH1 0x20 SWAP1 PUSH1 0x1F DUP4 GT PUSH1 0x1 EQ PUSH2 0xB49 JUMPI PUSH1 0x0 SWAP3 PUSH2 0xB3E JUMPI JUMPDEST POP POP DUP2 PUSH1 0x1 SHL SWAP2 PUSH1 0x0 NOT SWAP1 PUSH1 0x3 SHL SHR NOT AND OR PUSH1 0x5 DUP3 ADD SSTORE JUMPDEST PUSH1 0xC0 DUP4 ADD MLOAD DUP1 MLOAD SWAP1 PUSH1 0x1 PUSH1 0x1 PUSH1 0x40 SHL SUB DUP3 GT PUSH2 0x993 JUMPI DUP2 SWAP1 PUSH2 0x71C PUSH1 0x6 DUP6 ADD SLOAD PUSH2 0x13B0 JUMP JUMPDEST PUSH1 0x1F DUP2 GT PUSH2 0xAEB JUMPI JUMPDEST POP PUSH1 0x20 SWAP1 PUSH1 0x1F DUP4 GT PUSH1 0x1 EQ PUSH2 0xA79 JUMPI PUSH1 0x0 SWAP3 PUSH2 0xA6E JUMPI JUMPDEST POP POP DUP2 PUSH1 0x1 SHL SWAP2 PUSH1 0x0 NOT SWAP1 PUSH1 0x3 SHL SHR NOT AND OR PUSH1 0x6 DUP3 ADD SSTORE JUMPDEST PUSH1 0xE0 DUP4 ADD MLOAD DUP1 MLOAD SWAP1 PUSH1 0x1 PUSH1 0x1 PUSH1 0x40 SHL SUB DUP3 GT PUSH2 0x993 JUMPI PUSH2 0x777 PUSH1 0x7 DUP5 ADD SLOAD PUSH2 0x13B0 JUMP JUMPDEST PUSH1 0x1F DUP2 GT PUSH2 0xA27 JUMPI JUMPDEST POP PUSH1 0x20 SWAP1 PUSH1 0x1F DUP4 GT PUSH1 0x1 EQ PUSH2 0x9B4 JUMPI PUSH1 0x8 SWAP4 SWAP3 SWAP2 PUSH1 0x0 SWAP2 DUP4 PUSH2 0x9A9 JUMPI JUMPDEST POP POP DUP2 PUSH1 0x1 SHL SWAP2 PUSH1 0x0 NOT SWAP1 PUSH1 0x3 SHL SHR NOT AND OR PUSH1 0x7 DUP3 ADD SSTORE JUMPDEST ADD SWAP2 ADD MLOAD ISZERO ISZERO PUSH1 0xFF DUP1 NOT DUP4 SLOAD AND SWAP2 AND OR SWAP1 SSTORE PUSH1 0x40 MLOAD PUSH1 0x20 DUP2 DUP6 MLOAD PUSH2 0x7DC DUP2 DUP4 DUP6 DUP11 ADD PUSH2 0x1368 JUMP JUMPDEST DUP2 ADD PUSH1 0x1 DUP2 MSTORE SUB ADD SWAP1 KECCAK256 CALLER PUSH1 0x1 DUP1 PUSH1 0xA0 SHL SUB NOT DUP3 SLOAD AND OR SWAP1 SSTORE CALLER PUSH1 0x0 MSTORE PUSH1 0x2 PUSH1 0x20 MSTORE PUSH1 0x40 PUSH1 0x0 KECCAK256 DUP3 MLOAD PUSH1 0x1 PUSH1 0x1 PUSH1 0x40 SHL SUB DUP2 GT PUSH2 0x993 JUMPI PUSH2 0x81D DUP3 SLOAD PUSH2 0x13B0 JUMP JUMPDEST PUSH1 0x1F DUP2 GT PUSH2 0x94B JUMPI JUMPDEST POP DUP1 PUSH1 0x20 PUSH1 0x1F DUP3 GT PUSH1 0x1 EQ PUSH2 0x8E7 JUMPI PUSH1 0x0 SWAP2 PUSH2 0x8DC JUMPI JUMPDEST POP DUP2 PUSH1 0x1 SHL SWAP2 PUSH1 0x0 NOT SWAP1 PUSH1 0x3 SHL SHR NOT AND OR SWAP1 SSTORE JUMPDEST PUSH1 0x3 SLOAD SWAP1 PUSH1 0x0 NOT DUP3 EQ PUSH2 0x8C6 JUMPI PUSH2 0x8C1 PUSH2 0x8B2 PUSH32 0x509C70F523067009F7DB7F46DB6956D7AF8B679323680DC3821A8BAD001AC1E1 SWAP5 PUSH1 0x1 PUSH2 0x8A4 SWAP6 ADD PUSH1 0x3 SSTORE PUSH1 0x40 MLOAD SWAP5 DUP6 SWAP5 PUSH1 0x60 DUP7 MSTORE PUSH1 0x60 DUP7 ADD SWAP1 PUSH2 0x138B JUMP JUMPDEST SWAP1 DUP5 DUP3 SUB PUSH1 0x20 DUP7 ADD MSTORE PUSH2 0x138B JUMP JUMPDEST DUP3 DUP2 SUB PUSH1 0x40 DUP5 ADD MSTORE CALLER SWAP6 PUSH2 0x138B JUMP JUMPDEST SUB SWAP1 LOG2 STOP JUMPDEST PUSH4 0x4E487B71 PUSH1 0xE0 SHL PUSH1 0x0 MSTORE PUSH1 0x11 PUSH1 0x4 MSTORE PUSH1 0x24 PUSH1 0x0 REVERT JUMPDEST SWAP1 POP DUP5 ADD MLOAD DUP7 PUSH2 0x83D JUMP JUMPDEST PUSH1 0x0 DUP5 DUP2 MSTORE PUSH1 0x20 DUP2 KECCAK256 SWAP3 POP PUSH1 0x1F NOT DUP5 AND SWAP1 JUMPDEST DUP2 DUP2 LT PUSH2 0x933 JUMPI POP SWAP1 DUP4 PUSH1 0x1 SWAP5 SWAP4 SWAP3 LT PUSH2 0x91A JUMPI JUMPDEST POP POP DUP2 SHL ADD SWAP1 SSTORE PUSH2 0x851 JUMP JUMPDEST DUP7 ADD MLOAD PUSH1 0x0 NOT PUSH1 0xF8 DUP5 PUSH1 0x3 SHL AND SHR NOT AND SWAP1 SSTORE DUP7 DUP1 PUSH2 0x90E JUMP JUMPDEST SWAP2 SWAP3 PUSH1 0x20 PUSH1 0x1 DUP2 SWAP3 DUP7 DUP12 ADD MLOAD DUP2 SSTORE ADD SWAP5 ADD SWAP3 ADD PUSH2 0x8F9 JUMP JUMPDEST DUP3 PUSH1 0x0 MSTORE PUSH1 0x20 PUSH1 0x0 KECCAK256 PUSH1 0x1F DUP4 ADD PUSH1 0x5 SHR DUP2 ADD SWAP2 PUSH1 0x20 DUP5 LT PUSH2 0x989 JUMPI JUMPDEST PUSH1 0x1F ADD PUSH1 0x5 SHR ADD SWAP1 JUMPDEST DUP2 DUP2 LT PUSH2 0x97D JUMPI POP PUSH2 0x826 JUMP JUMPDEST PUSH1 0x0 DUP2 SSTORE PUSH1 0x1 ADD PUSH2 0x970 JUMP JUMPDEST SWAP1 SWAP2 POP DUP2 SWAP1 PUSH2 0x967 JUMP JUMPDEST PUSH4 0x4E487B71 PUSH1 0xE0 SHL PUSH1 0x0 MSTORE PUSH1 0x41 PUSH1 0x4 MSTORE PUSH1 0x24 PUSH1 0x0 REVERT JUMPDEST ADD MLOAD SWAP1 POP DUP10 DUP1 PUSH2 0x79D JUMP JUMPDEST SWAP1 PUSH1 0x7 DUP5 ADD PUSH1 0x0 MSTORE PUSH1 0x20 PUSH1 0x0 KECCAK256 SWAP2 PUSH1 0x0 JUMPDEST PUSH1 0x1F NOT DUP6 AND DUP2 LT PUSH2 0xA0F JUMPI POP SWAP2 DUP4 SWAP2 PUSH1 0x1 SWAP4 PUSH1 0x8 SWAP7 SWAP6 PUSH1 0x1F NOT DUP2 AND LT PUSH2 0x9F6 JUMPI JUMPDEST POP POP POP DUP2 SHL ADD PUSH1 0x7 DUP3 ADD SSTORE PUSH2 0x7B5 JUMP JUMPDEST ADD MLOAD PUSH1 0x0 NOT PUSH1 0xF8 DUP5 PUSH1 0x3 SHL AND SHR NOT AND SWAP1 SSTORE DUP10 DUP1 DUP1 PUSH2 0x9E6 JUMP JUMPDEST SWAP2 SWAP3 PUSH1 0x20 PUSH1 0x1 DUP2 SWAP3 DUP7 DUP6 ADD MLOAD DUP2 SSTORE ADD SWAP5 ADD SWAP3 ADD PUSH2 0x9C5 JUMP JUMPDEST PUSH1 0x7 DUP5 ADD PUSH1 0x0 MSTORE PUSH1 0x20 PUSH1 0x0 KECCAK256 PUSH1 0x1F DUP5 ADD PUSH1 0x5 SHR DUP2 ADD PUSH1 0x20 DUP6 LT PUSH2 0xA67 JUMPI JUMPDEST PUSH1 0x1F DUP4 ADD PUSH1 0x5 SHR DUP3 ADD DUP2 LT PUSH2 0xA5B JUMPI POP POP PUSH2 0x780 JUMP JUMPDEST PUSH1 0x0 DUP2 SSTORE PUSH1 0x1 ADD PUSH2 0xA45 JUMP JUMPDEST POP DUP1 PUSH2 0xA45 JUMP JUMPDEST ADD MLOAD SWAP1 POP DUP9 DUP1 PUSH2 0x73C JUMP JUMPDEST SWAP3 POP PUSH1 0x6 DUP5 ADD PUSH1 0x0 MSTORE PUSH1 0x20 PUSH1 0x0 KECCAK256 SWAP1 PUSH1 0x0 SWAP4 JUMPDEST PUSH1 0x1F NOT DUP5 AND DUP6 LT PUSH2 0xAD0 JUMPI PUSH1 0x1 SWAP5 POP DUP4 PUSH1 0x1F NOT DUP2 AND LT PUSH2 0xAB7 JUMPI JUMPDEST POP POP POP DUP2 SHL ADD PUSH1 0x6 DUP3 ADD SSTORE PUSH2 0x754 JUMP JUMPDEST ADD MLOAD PUSH1 0x0 NOT PUSH1 0xF8 DUP5 PUSH1 0x3 SHL AND SHR NOT AND SWAP1 SSTORE DUP9 DUP1 DUP1 PUSH2 0xAA7 JUMP JUMPDEST DUP2 DUP2 ADD MLOAD DUP4 SSTORE PUSH1 0x20 SWAP5 DUP6 ADD SWAP5 PUSH1 0x1 SWAP1 SWAP4 ADD SWAP3 SWAP1 SWAP2 ADD SWAP1 PUSH2 0xA8C JUMP JUMPDEST SWAP1 SWAP2 POP PUSH1 0x6 DUP5 ADD PUSH1 0x0 MSTORE PUSH1 0x20 PUSH1 0x0 KECCAK256 PUSH1 0x1F DUP5 ADD PUSH1 0x5 SHR DUP2 ADD PUSH1 0x20 DUP6 LT PUSH2 0xB37 JUMPI JUMPDEST SWAP1 DUP5 SWAP4 SWAP3 SWAP2 JUMPDEST PUSH1 0x1F DUP4 ADD PUSH1 0x5 SHR DUP3 ADD DUP2 LT PUSH2 0xB28 JUMPI POP POP PUSH2 0x725 JUMP JUMPDEST PUSH1 0x0 DUP2 SSTORE DUP6 SWAP5 POP PUSH1 0x1 ADD PUSH2 0xB12 JUMP JUMPDEST POP DUP1 PUSH2 0xB0C JUMP JUMPDEST ADD MLOAD SWAP1 POP DUP9 DUP1 PUSH2 0x6DF JUMP JUMPDEST SWAP3 POP PUSH1 0x5 DUP5 ADD PUSH1 0x0 MSTORE PUSH1 0x20 PUSH1 0x0 KECCAK256 SWAP1 PUSH1 0x0 SWAP4 JUMPDEST PUSH1 0x1F NOT DUP5 AND DUP6 LT PUSH2 0xBA0 JUMPI PUSH1 0x1 SWAP5 POP DUP4 PUSH1 0x1F NOT DUP2 AND LT PUSH2 0xB87 JUMPI JUMPDEST POP POP POP DUP2 SHL ADD PUSH1 0x5 DUP3 ADD SSTORE PUSH2 0x6F7 JUMP JUMPDEST ADD MLOAD PUSH1 0x0 NOT PUSH1 0xF8 DUP5 PUSH1 0x3 SHL AND SHR NOT AND SWAP1 SSTORE DUP9 DUP1 DUP1 PUSH2 0xB77 JUMP JUMPDEST DUP2 DUP2 ADD MLOAD DUP4 SSTORE PUSH1 0x20 SWAP5 DUP6 ADD SWAP5 PUSH1 0x1 SWAP1 SWAP4 ADD SWAP3 SWAP1 SWAP2 ADD SWAP1 PUSH2 0xB5C JUMP JUMPDEST SWAP1 SWAP2 POP PUSH1 0x5 DUP5 ADD PUSH1 0x0 MSTORE PUSH1 0x20 PUSH1 0x0 KECCAK256 PUSH1 0x1F DUP5 ADD PUSH1 0x5 SHR DUP2 ADD PUSH1 0x20 DUP6 LT PUSH2 0xC07 JUMPI JUMPDEST SWAP1 DUP5 SWAP4 SWAP3 SWAP2 JUMPDEST PUSH1 0x1F DUP4 ADD PUSH1 0x5 SHR DUP3 ADD DUP2 LT PUSH2 0xBF8 JUMPI POP POP PUSH2 0x6C8 JUMP JUMPDEST PUSH1 0x0 DUP2 SSTORE DUP6 SWAP5 POP PUSH1 0x1 ADD PUSH2 0xBE2 JUMP JUMPDEST POP DUP1 PUSH2 0xBDC JUMP JUMPDEST ADD MLOAD SWAP1 POP DUP9 DUP1 PUSH2 0x682 JUMP JUMPDEST SWAP3 POP PUSH1 0x4 DUP5 ADD PUSH1 0x0 MSTORE PUSH1 0x20 PUSH1 0x0 KECCAK256 SWAP1 PUSH1 0x0 SWAP4 JUMPDEST PUSH1 0x1F NOT DUP5 AND DUP6 LT PUSH2 0xC70 JUMPI PUSH1 0x1 SWAP5 POP DUP4 PUSH1 0x1F NOT DUP2 AND LT PUSH2 0xC57 JUMPI JUMPDEST POP POP POP DUP2 SHL ADD PUSH1 0x4 DUP3 ADD SSTORE PUSH2 0x69A JUMP JUMPDEST ADD MLOAD PUSH1 0x0 NOT PUSH1 0xF8 DUP5 PUSH1 0x3 SHL AND SHR NOT AND SWAP1 SSTORE DUP9 DUP1 DUP1 PUSH2 0xC47 JUMP JUMPDEST DUP2 DUP2 ADD MLOAD DUP4 SSTORE PUSH1 0x20 SWAP5 DUP6 ADD SWAP5 PUSH1 0x1 SWAP1 SWAP4 ADD SWAP3 SWAP1 SWAP2 ADD SWAP1 PUSH2 0xC2C JUMP JUMPDEST SWAP1 SWAP2 POP PUSH1 0x4 DUP5 ADD PUSH1 0x0 MSTORE PUSH1 0x20 PUSH1 0x0 KECCAK256 PUSH1 0x1F DUP5 ADD PUSH1 0x5 SHR DUP2 ADD PUSH1 0x20 DUP6 LT PUSH2 0xCD7 JUMPI JUMPDEST SWAP1 DUP5 SWAP4 SWAP3 SWAP2 JUMPDEST PUSH1 0x1F DUP4 ADD PUSH1 0x5 SHR DUP3 ADD DUP2 LT PUSH2 0xCC8 JUMPI POP POP PUSH2 0x66B JUMP JUMPDEST PUSH1 0x0 DUP2 SSTORE DUP6 SWAP5 POP PUSH1 0x1 ADD PUSH2 0xCB2 JUMP JUMPDEST POP DUP1 PUSH2 0xCAC JUMP JUMPDEST ADD MLOAD SWAP1 POP DUP9 DUP1 PUSH2 0x625 JUMP JUMPDEST SWAP3 POP PUSH1 0x3 DUP5 ADD PUSH1 0x0 MSTORE PUSH1 0x20 PUSH1 0x0 KECCAK256 SWAP1 PUSH1 0x0 SWAP4 JUMPDEST PUSH1 0x1F NOT DUP5 AND DUP6 LT PUSH2 0xD40 JUMPI PUSH1 0x1 SWAP5 POP DUP4 PUSH1 0x1F NOT DUP2 AND LT PUSH2 0xD27 JUMPI JUMPDEST POP POP POP DUP2 SHL ADD PUSH1 0x3 DUP3 ADD SSTORE PUSH2 0x63D JUMP JUMPDEST ADD MLOAD PUSH1 0x0 NOT PUSH1 0xF8 DUP5 PUSH1 0x3 SHL AND SHR NOT AND SWAP1 SSTORE DUP9 DUP1 DUP1 PUSH2 0xD17 JUMP JUMPDEST DUP2 DUP2 ADD MLOAD DUP4 SSTORE PUSH1 0x20 SWAP5 DUP6 ADD SWAP5 PUSH1 0x1 SWAP1 SWAP4 ADD SWAP3 SWAP1 SWAP2 ADD SWAP1 PUSH2 0xCFC JUMP JUMPDEST SWAP1 SWAP2 POP PUSH1 0x3 DUP5 ADD PUSH1 0x0 MSTORE PUSH1 0x20 PUSH1 0x0 KECCAK256 PUSH1 0x1F DUP5 ADD PUSH1 0x5 SHR DUP2 ADD PUSH1 0x20 DUP6 LT PUSH2 0xDA7 JUMPI JUMPDEST SWAP1 DUP5 SWAP4 SWAP3 SWAP2 JUMPDEST PUSH1 0x1F DUP4 ADD PUSH1 0x5 SHR DUP3 ADD DUP2 LT PUSH2 0xD98 JUMPI POP POP PUSH2 0x60E JUMP JUMPDEST PUSH1 0x0 DUP2 SSTORE DUP6 SWAP5 POP PUSH1 0x1 ADD PUSH2 0xD82 JUMP JUMPDEST POP DUP1 PUSH2 0xD7C JUMP JUMPDEST ADD MLOAD SWAP1 POP DUP9 DUP1 PUSH2 0x5C8 JUMP JUMPDEST SWAP3 POP PUSH1 0x2 DUP5 ADD PUSH1 0x0 MSTORE PUSH1 0x20 PUSH1 0x0 KECCAK256 SWAP1 PUSH1 0x0 SWAP4 JUMPDEST PUSH1 0x1F NOT DUP5 AND DUP6 LT PUSH2 0xE10 JUMPI PUSH1 0x1 SWAP5 POP DUP4 PUSH1 0x1F NOT DUP2 AND LT PUSH2 0xDF7 JUMPI JUMPDEST POP POP POP DUP2 SHL ADD PUSH1 0x2 DUP3 ADD SSTORE PUSH2 0x5E0 JUMP JUMPDEST ADD MLOAD PUSH1 0x0 NOT PUSH1 0xF8 DUP5 PUSH1 0x3 SHL AND SHR NOT AND SWAP1 SSTORE DUP9 DUP1 DUP1 PUSH2 0xDE7 JUMP JUMPDEST DUP2 DUP2 ADD MLOAD DUP4 SSTORE PUSH1 0x20 SWAP5 DUP6 ADD SWAP5 PUSH1 0x1 SWAP1 SWAP4 ADD SWAP3 SWAP1 SWAP2 ADD SWAP1 PUSH2 0xDCC JUMP JUMPDEST SWAP1 SWAP2 POP PUSH1 0x2 DUP5 ADD PUSH1 0x0 MSTORE PUSH1 0x20 PUSH1 0x0 KECCAK256 PUSH1 0x1F DUP5 ADD PUSH1 0x5 SHR DUP2 ADD PUSH1 0x20 DUP6 LT PUSH2 0xE77 JUMPI JUMPDEST SWAP1 DUP5 SWAP4 SWAP3 SWAP2 JUMPDEST PUSH1 0x1F DUP4 ADD PUSH1 0x5 SHR DUP3 ADD DUP2 LT PUSH2 0xE68 JUMPI POP POP PUSH2 0x5B1 JUMP JUMPDEST PUSH1 0x0 DUP2 SSTORE DUP6 SWAP5 POP PUSH1 0x1 ADD PUSH2 0xE52 JUMP JUMPDEST POP DUP1 PUSH2 0xE4C JUMP JUMPDEST ADD MLOAD SWAP1 POP DUP9 DUP1 PUSH2 0x56B JUMP JUMPDEST SWAP3 POP PUSH1 0x1 DUP5 ADD PUSH1 0x0 MSTORE PUSH1 0x20 PUSH1 0x0 KECCAK256 SWAP1 PUSH1 0x0 SWAP4 JUMPDEST PUSH1 0x1F NOT DUP5 AND DUP6 LT PUSH2 0xEE0 JUMPI PUSH1 0x1 SWAP5 POP DUP4 PUSH1 0x1F NOT DUP2 AND LT PUSH2 0xEC7 JUMPI JUMPDEST POP POP POP DUP2 SHL ADD PUSH1 0x1 DUP3 ADD SSTORE PUSH2 0x583 JUMP JUMPDEST ADD MLOAD PUSH1 0x0 NOT PUSH1 0xF8 DUP5 PUSH1 0x3 SHL AND SHR NOT AND SWAP1 SSTORE DUP9 DUP1 DUP1 PUSH2 0xEB7 JUMP JUMPDEST DUP2 DUP2 ADD MLOAD DUP4 SSTORE PUSH1 0x20 SWAP5 DUP6 ADD SWAP5 PUSH1 0x1 SWAP1 SWAP4 ADD SWAP3 SWAP1 SWAP2 ADD SWAP1 PUSH2 0xE9C JUMP JUMPDEST SWAP1 SWAP2 POP PUSH1 0x1 DUP5 ADD PUSH1 0x0 MSTORE PUSH1 0x20 PUSH1 0x0 KECCAK256 PUSH1 0x1F DUP5 ADD PUSH1 0x5 SHR DUP2 ADD PUSH1 0x20 DUP6 LT PUSH2 0xF47 JUMPI JUMPDEST SWAP1 DUP5 SWAP4 SWAP3 SWAP2 JUMPDEST PUSH1 0x1F DUP4 ADD PUSH1 0x5 SHR DUP3 ADD DUP2 LT PUSH2 0xF38 JUMPI POP POP PUSH2 0x554 JUMP JUMPDEST PUSH1 0x0 DUP2 SSTORE DUP6 SWAP5 POP PUSH1 0x1 ADD PUSH2 0xF22 JUMP JUMPDEST POP DUP1 PUSH2 0xF1C JUMP JUMPDEST ADD MLOAD SWAP1 POP DUP9 DUP1 PUSH2 0x511 JUMP JUMPDEST SWAP3 POP DUP4 PUSH1 0x0 MSTORE PUSH1 0x20 PUSH1 0x0 KECCAK256 SWAP1 PUSH1 0x0 SWAP4 JUMPDEST PUSH1 0x1F NOT DUP5 AND DUP6 LT PUSH2 0xFAA JUMPI PUSH1 0x1 SWAP5 POP DUP4 PUSH1 0x1F NOT DUP2 AND LT PUSH2 0xF91 JUMPI JUMPDEST POP POP POP DUP2 SHL ADD DUP2 SSTORE PUSH2 0x526 JUMP JUMPDEST ADD MLOAD PUSH1 0x0 NOT PUSH1 0xF8 DUP5 PUSH1 0x3 SHL AND SHR NOT AND SWAP1 SSTORE DUP9 DUP1 DUP1 PUSH2 0xF84 JUMP JUMPDEST DUP2 DUP2 ADD MLOAD DUP4 SSTORE PUSH1 0x20 SWAP5 DUP6 ADD SWAP5 PUSH1 0x1 SWAP1 SWAP4 ADD SWAP3 SWAP1 SWAP2 ADD SWAP1 PUSH2 0xF69 JUMP JUMPDEST SWAP1 SWAP2 POP DUP4 PUSH1 0x0 MSTORE PUSH1 0x20 PUSH1 0x0 KECCAK256 PUSH1 0x1F DUP5 ADD PUSH1 0x5 SHR DUP2 ADD PUSH1 0x20 DUP6 LT PUSH2 0x100E JUMPI JUMPDEST SWAP1 DUP5 SWAP4 SWAP3 SWAP2 JUMPDEST PUSH1 0x1F DUP4 ADD PUSH1 0x5 SHR DUP3 ADD DUP2 LT PUSH2 0xFFF JUMPI POP POP PUSH2 0x4FA JUMP JUMPDEST PUSH1 0x0 DUP2 SSTORE DUP6 SWAP5 POP PUSH1 0x1 ADD PUSH2 0xFE9 JUMP JUMPDEST POP DUP1 PUSH2 0xFE3 JUMP JUMPDEST PUSH1 0x40 MLOAD PUSH3 0x461BCD PUSH1 0xE5 SHL DUP2 MSTORE PUSH1 0x20 PUSH1 0x4 DUP3 ADD MSTORE PUSH1 0x2E PUSH1 0x24 DUP3 ADD MSTORE PUSH32 0x557365722077697468207468697320457468657265756D204164647265737320 PUSH1 0x44 DUP3 ADD MSTORE PUSH14 0x616C726561647920657869737473 PUSH1 0x90 SHL PUSH1 0x64 DUP3 ADD MSTORE PUSH1 0x84 SWAP1 REVERT JUMPDEST CALLVALUE PUSH2 0x98 JUMPI PUSH1 0x40 CALLDATASIZE PUSH1 0x3 NOT ADD SLT PUSH2 0x98 JUMPI PUSH1 0x1 PUSH1 0x1 PUSH1 0x40 SHL SUB PUSH1 0x4 CALLDATALOAD DUP2 DUP2 GT PUSH2 0x98 JUMPI PUSH2 0x10A2 SWAP1 CALLDATASIZE SWAP1 PUSH1 0x4 ADD PUSH2 0x1312 JUMP JUMPDEST SWAP1 PUSH1 0x24 CALLDATALOAD SWAP1 DUP2 GT PUSH2 0x98 JUMPI PUSH2 0x10BB SWAP1 CALLDATASIZE SWAP1 PUSH1 0x4 ADD PUSH2 0x1312 JUMP JUMPDEST CALLER PUSH1 0x0 MSTORE PUSH1 0x20 SWAP1 PUSH1 0x0 DUP3 MSTORE PUSH1 0x4 PUSH1 0x40 PUSH1 0x0 KECCAK256 ADD SWAP3 PUSH1 0x40 MLOAD SWAP4 PUSH1 0x0 SWAP5 DUP2 SLOAD SWAP6 DUP2 PUSH2 0x10E3 DUP9 PUSH2 0x13B0 JUMP JUMPDEST SWAP2 DUP3 DUP3 MSTORE DUP8 DUP3 ADD SWAP5 PUSH1 0x1 SWAP10 DUP10 DUP12 DUP3 AND SWAP2 DUP3 PUSH1 0x0 EQ PUSH2 0x12B7 JUMPI POP POP PUSH1 0x1 EQ PUSH2 0x1276 JUMPI JUMPDEST POP PUSH2 0x1112 SWAP3 POP SUB DUP3 PUSH2 0x12F1 JUMP JUMPDEST MLOAD SWAP1 KECCAK256 SWAP1 DUP4 DUP2 MLOAD SWAP2 ADD KECCAK256 SUB PUSH2 0x123A JUMPI CALLER PUSH1 0x0 MSTORE PUSH1 0x0 DUP3 MSTORE PUSH1 0x5 PUSH1 0x40 PUSH1 0x0 KECCAK256 ADD PUSH1 0x40 MLOAD PUSH1 0x0 SWAP2 DUP2 DUP2 SLOAD SWAP4 PUSH2 0x1144 DUP6 PUSH2 0x13B0 JUMP JUMPDEST SWAP3 DUP4 DUP4 MSTORE DUP8 DUP4 ADD SWAP6 DUP9 DUP11 DUP3 AND SWAP2 DUP3 PUSH1 0x0 EQ PUSH2 0x121C JUMPI POP POP PUSH1 0x1 EQ PUSH2 0x11DB JUMPI JUMPDEST POP PUSH2 0x1170 SWAP3 POP SUB DUP3 PUSH2 0x12F1 JUMP JUMPDEST MLOAD SWAP1 KECCAK256 SWAP1 DUP3 DUP2 MLOAD SWAP2 ADD KECCAK256 SUB PUSH2 0x119D JUMPI PUSH1 0x0 SWAP1 CALLER DUP3 MSTORE MSTORE PUSH1 0x8 PUSH1 0x40 PUSH1 0x0 KECCAK256 ADD SWAP1 PUSH1 0xFF NOT DUP3 SLOAD AND OR SWAP1 SSTORE PUSH1 0x0 DUP1 RETURN JUMPDEST PUSH1 0x64 SWAP1 PUSH1 0x40 MLOAD SWAP1 PUSH3 0x461BCD PUSH1 0xE5 SHL DUP3 MSTORE PUSH1 0x4 DUP3 ADD MSTORE PUSH1 0x17 PUSH1 0x24 DUP3 ADD MSTORE PUSH23 0xA0C2E6E6EEDEE4C840C8DECAE640DCDEE840DAC2E8C6D PUSH1 0x4B SHL PUSH1 0x44 DUP3 ADD MSTORE REVERT JUMPDEST SWAP2 POP POP PUSH1 0x0 MSTORE DUP2 DUP6 DUP1 PUSH1 0x0 KECCAK256 DUP9 PUSH1 0x0 SWAP2 JUMPDEST DUP6 DUP4 LT PUSH2 0x1203 JUMPI POP POP PUSH2 0x1170 SWAP4 POP DUP3 ADD ADD DUP9 PUSH2 0x1163 JUMP JUMPDEST DUP1 SWAP2 SWAP3 SWAP5 POP SLOAD DUP4 DUP6 DUP9 ADD ADD MSTORE ADD SWAP2 ADD DUP7 SWAP1 DUP9 DUP6 SWAP4 PUSH2 0x11EC JUMP JUMPDEST PUSH1 0xFF NOT AND DUP9 MSTORE PUSH2 0x1170 SWAP6 ISZERO ISZERO PUSH1 0x5 SHL DUP6 ADD ADD SWAP3 POP DUP11 SWAP2 POP PUSH2 0x1163 SWAP1 POP JUMP JUMPDEST PUSH1 0x40 MLOAD PUSH3 0x461BCD PUSH1 0xE5 SHL DUP2 MSTORE PUSH1 0x4 DUP2 ADD DUP4 SWAP1 MSTORE PUSH1 0x14 PUSH1 0x24 DUP3 ADD MSTORE PUSH20 0x8ADAC2D2D840C8DECAE640DCDEE840DAC2E8C6D PUSH1 0x63 SHL PUSH1 0x44 DUP3 ADD MSTORE PUSH1 0x64 SWAP1 REVERT JUMPDEST SWAP2 POP POP PUSH1 0x0 MSTORE DUP2 DUP7 DUP1 PUSH1 0x0 KECCAK256 DUP10 PUSH1 0x0 SWAP2 JUMPDEST DUP6 DUP4 LT PUSH2 0x129E JUMPI POP POP PUSH2 0x1112 SWAP4 POP DUP3 ADD ADD DUP10 PUSH2 0x1105 JUMP JUMPDEST DUP1 SWAP2 SWAP3 SWAP5 POP SLOAD DUP4 DUP6 DUP9 ADD ADD MSTORE ADD SWAP2 ADD DUP8 SWAP1 DUP10 DUP6 SWAP4 PUSH2 0x1287 JUMP JUMPDEST PUSH1 0xFF NOT AND DUP9 MSTORE PUSH2 0x1112 SWAP6 ISZERO ISZERO PUSH1 0x5 SHL DUP6 ADD ADD SWAP3 POP DUP12 SWAP2 POP PUSH2 0x1105 SWAP1 POP JUMP JUMPDEST PUSH2 0x120 DUP2 ADD SWAP1 DUP2 LT PUSH1 0x1 PUSH1 0x1 PUSH1 0x40 SHL SUB DUP3 GT OR PUSH2 0x993 JUMPI PUSH1 0x40 MSTORE JUMP JUMPDEST SWAP1 PUSH1 0x1F DUP1 NOT SWAP2 ADD AND DUP2 ADD SWAP1 DUP2 LT PUSH1 0x1 PUSH1 0x1 PUSH1 0x40 SHL SUB DUP3 GT OR PUSH2 0x993 JUMPI PUSH1 0x40 MSTORE JUMP JUMPDEST DUP2 PUSH1 0x1F DUP3 ADD SLT ISZERO PUSH2 0x98 JUMPI DUP1 CALLDATALOAD SWAP1 PUSH1 0x1 PUSH1 0x1 PUSH1 0x40 SHL SUB DUP3 GT PUSH2 0x993 JUMPI PUSH1 0x40 MLOAD SWAP3 PUSH2 0x1346 PUSH1 0x1F DUP5 ADD PUSH1 0x1F NOT AND PUSH1 0x20 ADD DUP6 PUSH2 0x12F1 JUMP JUMPDEST DUP3 DUP5 MSTORE PUSH1 0x20 DUP4 DUP4 ADD ADD GT PUSH2 0x98 JUMPI DUP2 PUSH1 0x0 SWAP3 PUSH1 0x20 DUP1 SWAP4 ADD DUP4 DUP7 ADD CALLDATACOPY DUP4 ADD ADD MSTORE SWAP1 JUMP JUMPDEST PUSH1 0x0 JUMPDEST DUP4 DUP2 LT PUSH2 0x137B JUMPI POP POP PUSH1 0x0 SWAP2 ADD MSTORE JUMP JUMPDEST DUP2 DUP2 ADD MLOAD DUP4 DUP3 ADD MSTORE PUSH1 0x20 ADD PUSH2 0x136B JUMP JUMPDEST SWAP1 PUSH1 0x20 SWAP2 PUSH2 0x13A4 DUP2 MLOAD DUP1 SWAP3 DUP2 DUP6 MSTORE DUP6 DUP1 DUP7 ADD SWAP2 ADD PUSH2 0x1368 JUMP JUMPDEST PUSH1 0x1F ADD PUSH1 0x1F NOT AND ADD ADD SWAP1 JUMP JUMPDEST SWAP1 PUSH1 0x1 DUP3 DUP2 SHR SWAP3 AND DUP1 ISZERO PUSH2 0x13E0 JUMPI JUMPDEST PUSH1 0x20 DUP4 LT EQ PUSH2 0x13CA JUMPI JUMP JUMPDEST PUSH4 0x4E487B71 PUSH1 0xE0 SHL PUSH1 0x0 MSTORE PUSH1 0x22 PUSH1 0x4 MSTORE PUSH1 0x24 PUSH1 0x0 REVERT JUMPDEST SWAP2 PUSH1 0x7F AND SWAP2 PUSH2 0x13BF JUMP JUMPDEST SWAP1 PUSH1 0x40 MLOAD SWAP2 DUP3 PUSH1 0x0 DUP3 SLOAD SWAP3 PUSH2 0x13FE DUP5 PUSH2 0x13B0 JUMP JUMPDEST SWAP1 DUP2 DUP5 MSTORE PUSH1 0x1 SWAP5 DUP6 DUP2 AND SWAP1 DUP2 PUSH1 0x0 EQ PUSH2 0x146D JUMPI POP PUSH1 0x1 EQ PUSH2 0x142A JUMPI JUMPDEST POP POP PUSH2 0x1428 SWAP3 POP SUB DUP4 PUSH2 0x12F1 JUMP JUMPDEST JUMP JUMPDEST SWAP1 SWAP4 SWAP2 POP PUSH1 0x0 MSTORE PUSH1 0x20 SWAP1 DUP2 PUSH1 0x0 KECCAK256 SWAP4 PUSH1 0x0 SWAP2 JUMPDEST DUP2 DUP4 LT PUSH2 0x1455 JUMPI POP POP PUSH2 0x1428 SWAP4 POP DUP3 ADD ADD CODESIZE DUP1 PUSH2 0x141A JUMP JUMPDEST DUP6 SLOAD DUP9 DUP5 ADD DUP6 ADD MSTORE SWAP5 DUP6 ADD SWAP5 DUP8 SWAP5 POP SWAP2 DUP4 ADD SWAP2 PUSH2 0x143D JUMP JUMPDEST SWAP2 POP POP PUSH2 0x1428 SWAP5 POP PUSH1 0x20 SWAP3 POP PUSH1 0xFF NOT AND DUP3 DUP5 ADD MSTORE ISZERO ISZERO PUSH1 0x5 SHL DUP3 ADD ADD CODESIZE DUP1 PUSH2 0x141A JUMP INVALID LOG2 PUSH5 0x6970667358 0x22 SLT KECCAK256 PUSH5 0xA3502C88C4 0x21 PUSH26 0xE9CB687A374A5E13991869CF6094497D300C88A8D198CE4A6473 PUSH16 0x6C634300081300330000000000000000 "},"methodIdentifiers":{"getNameForAddress(address)":"d8c27b9b","getUser()":"832880e7","loginUser(string,string)":"22ce12e5","logoutUser()":"d8f145d2","registerUser(string,string,string,string,string,string,string,string)":"67601dd1","totalUsers()":"bff1f9e1","users(address)":"a87430ba"}}}}}