{"contracts/AdminAuthentication.sol":{"AdminAuthentication":{"abi":[{"anonymous":false,"inputs":[{"indexed":false,"internalType":"address","name":"adminAddress","type":"address"}],"name":"AdminAdded","type":"event"},{"anonymous":false,"inputs":[{"indexed":false,"internalType":"address","name":"adminAddress","type":"address"}],"name":"AdminLoggedIn","type":"event"},{"inputs":[{"internalType":"address","name":"_adminAddress","type":"address"},{"internalType":"string","name":"_password","type":"string"}],"name":"addAdmin","outputs":[],"stateMutability":"nonpayable","type":"function"},{"inputs":[{"internalType":"string","name":"_title","type":"string"},{"internalType":"string","name":"_description","type":"string"}],"name":"addPolicy","outputs":[],"stateMutability":"nonpayable","type":"function"},{"inputs":[{"internalType":"address","name":"_adminAddress","type":"address"}],"name":"handleSuccessfulLogin","outputs":[],"stateMutability":"nonpayable","type":"function"},{"inputs":[{"internalType":"address","name":"_adminAddress","type":"address"},{"internalType":"string","name":"_password","type":"string"}],"name":"login","outputs":[{"internalType":"bool","name":"","type":"bool"}],"stateMutability":"view","type":"function"},{"inputs":[],"name":"nextPolicyId","outputs":[{"internalType":"uint256","name":"","type":"uint256"}],"stateMutability":"view","type":"function"},{"inputs":[{"internalType":"uint256","name":"","type":"uint256"}],"name":"policies","outputs":[{"internalType":"string","name":"title","type":"string"},{"internalType":"string","name":"description","type":"string"}],"stateMutability":"view","type":"function"}],"evm":{"bytecode":{"linkReferences":{},"object":"6080806040523461001b576001600255610a1190816100218239f35b600080fdfe6040608081526004908136101561001557600080fd5b600091823560e01c80632f19d50b1461061b578063546b3586146105c857806387326741146102f2578063cad0b8db146102d3578063d16856ca146100c25763d3e894831461006357600080fd5b346100be5760203660031901126100be57918192358152600160205220906100ba6100996001610092856108b8565b94016108b8565b6100ac835194848695865285019061095e565b90838203602085015261095e565b0390f35b8280fd5b509190346102cf576100d33661083b565b6001600160a01b03909116808452602084815283852054909391929060ff16610295576101028151151561099e565b815161010d8161078b565b600181818093528681019384528588528787528488209051151560ff8019835416911617815501915180519767ffffffffffffffff89116102825750610153835461087e565b601f811161023c575b508590601f89116001146101be579780928192899a7f44d6d25963f097ad14f29f06854a01f575648a1ef82f30e562ccd3889717e3399a946101b3575b50501b916000199060031b1c19161790555b51908152a180f35b015192503880610199565b838852868820909891601f198316895b818110610227575099837f44d6d25963f097ad14f29f06854a01f575648a1ef82f30e562ccd3889717e3399a9b1061020e575b505050811b0190556101ab565b015160001960f88460031b161c19169055388080610201565b8b8301518455928501929189019189016101ce565b838852868820601f8a0160051c810191888b10610278575b601f0160051c019083905b82811061026d57505061015c565b89815501839061025f565b9091508190610254565b634e487b7160e01b885260419052602487fd5b815162461bcd60e51b8152808701859052601460248201527341646d696e20616c72656164792065786973747360601b6044820152606490fd5b5080fd5b5050346102cf57816003193601126102cf576020906002549051908152f35b50346100be57816003193601126100be5767ffffffffffffffff81358181116105c45761032290369084016107df565b906024358181116105c05761033a90369085016107df565b918451906103478261078b565b815260208082019384526002548752600195868252872091519182518481116105ad57908791610377825461087e565b94601f95868111610560575b5084908683116001146104fe578b9190836104f3575b5050600019600383901b1c191690831b1781555b0193519081519384116104e057908392916103c8865461087e565b83811161048e575b508092841160011461042b57508792610420575b5050600019600383901b1c191690841b1790555b60025490600019821461040d57500160025580f35b634e487b7160e01b845260119052602483fd5b0151905038806103e4565b9190879450601f198416868a52838a20938a905b828210610475575050841161045c575b505050811b0190556103f8565b015160001960f88460031b161c1916905538808061044f565b8484015186558a9790950194938401939081019061043f565b90919293508589528189208480870160051c8201928488106104d7575b9187968b92969594930160051c01915b8281106104c95750506103d0565b8b81558796508a91016104bb565b925081926104ab565b634e487b7160e01b885260418652602488fd5b015190503880610399565b838c52858c209190601f1984168d5b8882821061054a5750509084879594939210610531575b505050811b0181556103ad565b015160001960f88460031b161c19169055388080610524565b8385015186558e9890950194938401930161050d565b9091928094508b52848b208680850160051c8201928786106105a4575b908c9695949392910160051c01905b8181106105995750610383565b8c81558b950161058c565b9250819261057d565b634e487b7160e01b895260418752602489fd5b8580fd5b8480fd5b50346100be5760203660031901126100be57356001600160a01b03811691908290036100be577fb59f440754e07ccf4f8158d21ab17643d0854c21b74aaffee912ad01931b22839160209151908152a180f35b509190346102cf5761062c3661083b565b6001600160a01b03909116808452602084815283852054909592919060ff16156107515761065c8251151561099e565b845283855260019384848220018685518092849080549561067c8761087e565b91828552858501978c8116908160001461073057506001146106f4575b5050506106a8925003826107bd565b51902090858151910120036106be575051908152f35b83606492519162461bcd60e51b83528201526012602482015271125b98dbdc9c9958dd081c185cdcdddbdc9960721b6044820152fd5b9080935052898483205b82841061071957505050916106a89282010189923880610699565b8054878501870152869450928501928b91016106fe565b925050506106a894925060ff19168652151560051b82010189923880610699565b835162461bcd60e51b8152808401879052601460248201527310591b5a5b88191bd95cc81b9bdd08195e1a5cdd60621b6044820152606490fd5b6040810190811067ffffffffffffffff8211176107a757604052565b634e487b7160e01b600052604160045260246000fd5b90601f8019910116810190811067ffffffffffffffff8211176107a757604052565b81601f820112156108365780359067ffffffffffffffff82116107a75760405192610814601f8401601f1916602001856107bd565b8284526020838301011161083657816000926020809301838601378301015290565b600080fd5b906040600319830112610836576004356001600160a01b038116810361083657916024359067ffffffffffffffff82116108365761087b916004016107df565b90565b90600182811c921680156108ae575b602083101461089857565b634e487b7160e01b600052602260045260246000fd5b91607f169161088d565b90604051918260008254926108cc8461087e565b90818452600194858116908160001461093b57506001146108f8575b50506108f6925003836107bd565b565b9093915060005260209081600020936000915b8183106109235750506108f6935082010138806108e8565b8554888401850152948501948794509183019161090b565b9150506108f694506020925060ff191682840152151560051b82010138806108e8565b919082519283825260005b84811061098a575050826000602080949584010152601f8019910116010190565b602081830181015184830182015201610969565b156109a557565b60405162461bcd60e51b815260206004820152600e60248201526d115b5c1d1e481c185cdcdddbdc9960921b6044820152606490fdfea264697066735822122098be56d46fac4513625983492c66d427050087ae3d37f6f485601136b800a84c64736f6c63430008130033","opcodes":"PUSH1 0x80 DUP1 PUSH1 0x40 MSTORE CALLVALUE PUSH2 0x1B JUMPI PUSH1 0x1 PUSH1 0x2 SSTORE PUSH2 0xA11 SWAP1 DUP2 PUSH2 0x21 DUP3 CODECOPY RETURN JUMPDEST PUSH1 0x0 DUP1 REVERT INVALID PUSH1 0x40 PUSH1 0x80 DUP2 MSTORE PUSH1 0x4 SWAP1 DUP2 CALLDATASIZE LT ISZERO PUSH2 0x15 JUMPI PUSH1 0x0 DUP1 REVERT JUMPDEST PUSH1 0x0 SWAP2 DUP3 CALLDATALOAD PUSH1 0xE0 SHR DUP1 PUSH4 0x2F19D50B EQ PUSH2 0x61B JUMPI DUP1 PUSH4 0x546B3586 EQ PUSH2 0x5C8 JUMPI DUP1 PUSH4 0x87326741 EQ PUSH2 0x2F2 JUMPI DUP1 PUSH4 0xCAD0B8DB EQ PUSH2 0x2D3 JUMPI DUP1 PUSH4 0xD16856CA EQ PUSH2 0xC2 JUMPI PUSH4 0xD3E89483 EQ PUSH2 0x63 JUMPI PUSH1 0x0 DUP1 REVERT JUMPDEST CALLVALUE PUSH2 0xBE JUMPI PUSH1 0x20 CALLDATASIZE PUSH1 0x3 NOT ADD SLT PUSH2 0xBE JUMPI SWAP2 DUP2 SWAP3 CALLDATALOAD DUP2 MSTORE PUSH1 0x1 PUSH1 0x20 MSTORE KECCAK256 SWAP1 PUSH2 0xBA PUSH2 0x99 PUSH1 0x1 PUSH2 0x92 DUP6 PUSH2 0x8B8 JUMP JUMPDEST SWAP5 ADD PUSH2 0x8B8 JUMP JUMPDEST PUSH2 0xAC DUP4 MLOAD SWAP5 DUP5 DUP7 SWAP6 DUP7 MSTORE DUP6 ADD SWAP1 PUSH2 0x95E JUMP JUMPDEST SWAP1 DUP4 DUP3 SUB PUSH1 0x20 DUP6 ADD MSTORE PUSH2 0x95E JUMP JUMPDEST SUB SWAP1 RETURN JUMPDEST DUP3 DUP1 REVERT JUMPDEST POP SWAP2 SWAP1 CALLVALUE PUSH2 0x2CF JUMPI PUSH2 0xD3 CALLDATASIZE PUSH2 0x83B JUMP JUMPDEST PUSH1 0x1 PUSH1 0x1 PUSH1 0xA0 SHL SUB SWAP1 SWAP2 AND DUP1 DUP5 MSTORE PUSH1 0x20 DUP5 DUP2 MSTORE DUP4 DUP6 KECCAK256 SLOAD SWAP1 SWAP4 SWAP2 SWAP3 SWAP1 PUSH1 0xFF AND PUSH2 0x295 JUMPI PUSH2 0x102 DUP2 MLOAD ISZERO ISZERO PUSH2 0x99E JUMP JUMPDEST DUP2 MLOAD PUSH2 0x10D DUP2 PUSH2 0x78B JUMP JUMPDEST PUSH1 0x1 DUP2 DUP2 DUP1 SWAP4 MSTORE DUP7 DUP2 ADD SWAP4 DUP5 MSTORE DUP6 DUP9 MSTORE DUP8 DUP8 MSTORE DUP5 DUP9 KECCAK256 SWAP1 MLOAD ISZERO ISZERO PUSH1 0xFF DUP1 NOT DUP4 SLOAD AND SWAP2 AND OR DUP2 SSTORE ADD SWAP2 MLOAD DUP1 MLOAD SWAP8 PUSH8 0xFFFFFFFFFFFFFFFF DUP10 GT PUSH2 0x282 JUMPI POP PUSH2 0x153 DUP4 SLOAD PUSH2 0x87E JUMP JUMPDEST PUSH1 0x1F DUP2 GT PUSH2 0x23C JUMPI JUMPDEST POP DUP6 SWAP1 PUSH1 0x1F DUP10 GT PUSH1 0x1 EQ PUSH2 0x1BE JUMPI SWAP8 DUP1 SWAP3 DUP2 SWAP3 DUP10 SWAP11 PUSH32 0x44D6D25963F097AD14F29F06854A01F575648A1EF82F30E562CCD3889717E339 SWAP11 SWAP5 PUSH2 0x1B3 JUMPI JUMPDEST POP POP SHL SWAP2 PUSH1 0x0 NOT SWAP1 PUSH1 0x3 SHL SHR NOT AND OR SWAP1 SSTORE JUMPDEST MLOAD SWAP1 DUP2 MSTORE LOG1 DUP1 RETURN JUMPDEST ADD MLOAD SWAP3 POP CODESIZE DUP1 PUSH2 0x199 JUMP JUMPDEST DUP4 DUP9 MSTORE DUP7 DUP9 KECCAK256 SWAP1 SWAP9 SWAP2 PUSH1 0x1F NOT DUP4 AND DUP10 JUMPDEST DUP2 DUP2 LT PUSH2 0x227 JUMPI POP SWAP10 DUP4 PUSH32 0x44D6D25963F097AD14F29F06854A01F575648A1EF82F30E562CCD3889717E339 SWAP11 SWAP12 LT PUSH2 0x20E JUMPI JUMPDEST POP POP POP DUP2 SHL ADD SWAP1 SSTORE PUSH2 0x1AB JUMP JUMPDEST ADD MLOAD PUSH1 0x0 NOT PUSH1 0xF8 DUP5 PUSH1 0x3 SHL AND SHR NOT AND SWAP1 SSTORE CODESIZE DUP1 DUP1 PUSH2 0x201 JUMP JUMPDEST DUP12 DUP4 ADD MLOAD DUP5 SSTORE SWAP3 DUP6 ADD SWAP3 SWAP2 DUP10 ADD SWAP2 DUP10 ADD PUSH2 0x1CE JUMP JUMPDEST DUP4 DUP9 MSTORE DUP7 DUP9 KECCAK256 PUSH1 0x1F DUP11 ADD PUSH1 0x5 SHR DUP2 ADD SWAP2 DUP9 DUP12 LT PUSH2 0x278 JUMPI JUMPDEST PUSH1 0x1F ADD PUSH1 0x5 SHR ADD SWAP1 DUP4 SWAP1 JUMPDEST DUP3 DUP2 LT PUSH2 0x26D JUMPI POP POP PUSH2 0x15C JUMP JUMPDEST DUP10 DUP2 SSTORE ADD DUP4 SWAP1 PUSH2 0x25F JUMP JUMPDEST SWAP1 SWAP2 POP DUP2 SWAP1 PUSH2 0x254 JUMP JUMPDEST PUSH4 0x4E487B71 PUSH1 0xE0 SHL DUP9 MSTORE PUSH1 0x41 SWAP1 MSTORE PUSH1 0x24 DUP8 REVERT JUMPDEST DUP2 MLOAD PUSH3 0x461BCD PUSH1 0xE5 SHL DUP2 MSTORE DUP1 DUP8 ADD DUP6 SWAP1 MSTORE PUSH1 0x14 PUSH1 0x24 DUP3 ADD MSTORE PUSH20 0x41646D696E20616C726561647920657869737473 PUSH1 0x60 SHL PUSH1 0x44 DUP3 ADD MSTORE PUSH1 0x64 SWAP1 REVERT JUMPDEST POP DUP1 REVERT JUMPDEST POP POP CALLVALUE PUSH2 0x2CF JUMPI DUP2 PUSH1 0x3 NOT CALLDATASIZE ADD SLT PUSH2 0x2CF JUMPI PUSH1 0x20 SWAP1 PUSH1 0x2 SLOAD SWAP1 MLOAD SWAP1 DUP2 MSTORE RETURN JUMPDEST POP CALLVALUE PUSH2 0xBE JUMPI DUP2 PUSH1 0x3 NOT CALLDATASIZE ADD SLT PUSH2 0xBE JUMPI PUSH8 0xFFFFFFFFFFFFFFFF DUP2 CALLDATALOAD DUP2 DUP2 GT PUSH2 0x5C4 JUMPI PUSH2 0x322 SWAP1 CALLDATASIZE SWAP1 DUP5 ADD PUSH2 0x7DF JUMP JUMPDEST SWAP1 PUSH1 0x24 CALLDATALOAD DUP2 DUP2 GT PUSH2 0x5C0 JUMPI PUSH2 0x33A SWAP1 CALLDATASIZE SWAP1 DUP6 ADD PUSH2 0x7DF JUMP JUMPDEST SWAP2 DUP5 MLOAD SWAP1 PUSH2 0x347 DUP3 PUSH2 0x78B JUMP JUMPDEST DUP2 MSTORE PUSH1 0x20 DUP1 DUP3 ADD SWAP4 DUP5 MSTORE PUSH1 0x2 SLOAD DUP8 MSTORE PUSH1 0x1 SWAP6 DUP7 DUP3 MSTORE DUP8 KECCAK256 SWAP2 MLOAD SWAP2 DUP3 MLOAD DUP5 DUP2 GT PUSH2 0x5AD JUMPI SWAP1 DUP8 SWAP2 PUSH2 0x377 DUP3 SLOAD PUSH2 0x87E JUMP JUMPDEST SWAP5 PUSH1 0x1F SWAP6 DUP7 DUP2 GT PUSH2 0x560 JUMPI JUMPDEST POP DUP5 SWAP1 DUP7 DUP4 GT PUSH1 0x1 EQ PUSH2 0x4FE JUMPI DUP12 SWAP2 SWAP1 DUP4 PUSH2 0x4F3 JUMPI JUMPDEST POP POP PUSH1 0x0 NOT PUSH1 0x3 DUP4 SWAP1 SHL SHR NOT AND SWAP1 DUP4 SHL OR DUP2 SSTORE JUMPDEST ADD SWAP4 MLOAD SWAP1 DUP2 MLOAD SWAP4 DUP5 GT PUSH2 0x4E0 JUMPI SWAP1 DUP4 SWAP3 SWAP2 PUSH2 0x3C8 DUP7 SLOAD PUSH2 0x87E JUMP JUMPDEST DUP4 DUP2 GT PUSH2 0x48E JUMPI JUMPDEST POP DUP1 SWAP3 DUP5 GT PUSH1 0x1 EQ PUSH2 0x42B JUMPI POP DUP8 SWAP3 PUSH2 0x420 JUMPI JUMPDEST POP POP PUSH1 0x0 NOT PUSH1 0x3 DUP4 SWAP1 SHL SHR NOT AND SWAP1 DUP5 SHL OR SWAP1 SSTORE JUMPDEST PUSH1 0x2 SLOAD SWAP1 PUSH1 0x0 NOT DUP3 EQ PUSH2 0x40D JUMPI POP ADD PUSH1 0x2 SSTORE DUP1 RETURN JUMPDEST PUSH4 0x4E487B71 PUSH1 0xE0 SHL DUP5 MSTORE PUSH1 0x11 SWAP1 MSTORE PUSH1 0x24 DUP4 REVERT JUMPDEST ADD MLOAD SWAP1 POP CODESIZE DUP1 PUSH2 0x3E4 JUMP JUMPDEST SWAP2 SWAP1 DUP8 SWAP5 POP PUSH1 0x1F NOT DUP5 AND DUP7 DUP11 MSTORE DUP4 DUP11 KECCAK256 SWAP4 DUP11 SWAP1 JUMPDEST DUP3 DUP3 LT PUSH2 0x475 JUMPI POP POP DUP5 GT PUSH2 0x45C JUMPI JUMPDEST POP POP POP DUP2 SHL ADD SWAP1 SSTORE PUSH2 0x3F8 JUMP JUMPDEST ADD MLOAD PUSH1 0x0 NOT PUSH1 0xF8 DUP5 PUSH1 0x3 SHL AND SHR NOT AND SWAP1 SSTORE CODESIZE DUP1 DUP1 PUSH2 0x44F JUMP JUMPDEST DUP5 DUP5 ADD MLOAD DUP7 SSTORE DUP11 SWAP8 SWAP1 SWAP6 ADD SWAP5 SWAP4 DUP5 ADD SWAP4 SWAP1 DUP2 ADD SWAP1 PUSH2 0x43F JUMP JUMPDEST SWAP1 SWAP2 SWAP3 SWAP4 POP DUP6 DUP10 MSTORE DUP2 DUP10 KECCAK256 DUP5 DUP1 DUP8 ADD PUSH1 0x5 SHR DUP3 ADD SWAP3 DUP5 DUP9 LT PUSH2 0x4D7 JUMPI JUMPDEST SWAP2 DUP8 SWAP7 DUP12 SWAP3 SWAP7 SWAP6 SWAP5 SWAP4 ADD PUSH1 0x5 SHR ADD SWAP2 JUMPDEST DUP3 DUP2 LT PUSH2 0x4C9 JUMPI POP POP PUSH2 0x3D0 JUMP JUMPDEST DUP12 DUP2 SSTORE DUP8 SWAP7 POP DUP11 SWAP2 ADD PUSH2 0x4BB JUMP JUMPDEST SWAP3 POP DUP2 SWAP3 PUSH2 0x4AB JUMP JUMPDEST PUSH4 0x4E487B71 PUSH1 0xE0 SHL DUP9 MSTORE PUSH1 0x41 DUP7 MSTORE PUSH1 0x24 DUP9 REVERT JUMPDEST ADD MLOAD SWAP1 POP CODESIZE DUP1 PUSH2 0x399 JUMP JUMPDEST DUP4 DUP13 MSTORE DUP6 DUP13 KECCAK256 SWAP2 SWAP1 PUSH1 0x1F NOT DUP5 AND DUP14 JUMPDEST DUP9 DUP3 DUP3 LT PUSH2 0x54A JUMPI POP POP SWAP1 DUP5 DUP8 SWAP6 SWAP5 SWAP4 SWAP3 LT PUSH2 0x531 JUMPI JUMPDEST POP POP POP DUP2 SHL ADD DUP2 SSTORE PUSH2 0x3AD JUMP JUMPDEST ADD MLOAD PUSH1 0x0 NOT PUSH1 0xF8 DUP5 PUSH1 0x3 SHL AND SHR NOT AND SWAP1 SSTORE CODESIZE DUP1 DUP1 PUSH2 0x524 JUMP JUMPDEST DUP4 DUP6 ADD MLOAD DUP7 SSTORE DUP15 SWAP9 SWAP1 SWAP6 ADD SWAP5 SWAP4 DUP5 ADD SWAP4 ADD PUSH2 0x50D JUMP JUMPDEST SWAP1 SWAP2 SWAP3 DUP1 SWAP5 POP DUP12 MSTORE DUP5 DUP12 KECCAK256 DUP7 DUP1 DUP6 ADD PUSH1 0x5 SHR DUP3 ADD SWAP3 DUP8 DUP7 LT PUSH2 0x5A4 JUMPI JUMPDEST SWAP1 DUP13 SWAP7 SWAP6 SWAP5 SWAP4 SWAP3 SWAP2 ADD PUSH1 0x5 SHR ADD SWAP1 JUMPDEST DUP2 DUP2 LT PUSH2 0x599 JUMPI POP PUSH2 0x383 JUMP JUMPDEST DUP13 DUP2 SSTORE DUP12 SWAP6 ADD PUSH2 0x58C JUMP JUMPDEST SWAP3 POP DUP2 SWAP3 PUSH2 0x57D JUMP JUMPDEST PUSH4 0x4E487B71 PUSH1 0xE0 SHL DUP10 MSTORE PUSH1 0x41 DUP8 MSTORE PUSH1 0x24 DUP10 REVERT JUMPDEST DUP6 DUP1 REVERT JUMPDEST DUP5 DUP1 REVERT JUMPDEST POP CALLVALUE PUSH2 0xBE JUMPI PUSH1 0x20 CALLDATASIZE PUSH1 0x3 NOT ADD SLT PUSH2 0xBE JUMPI CALLDATALOAD PUSH1 0x1 PUSH1 0x1 PUSH1 0xA0 SHL SUB DUP2 AND SWAP2 SWAP1 DUP3 SWAP1 SUB PUSH2 0xBE JUMPI PUSH32 0xB59F440754E07CCF4F8158D21AB17643D0854C21B74AAFFEE912AD01931B2283 SWAP2 PUSH1 0x20 SWAP2 MLOAD SWAP1 DUP2 MSTORE LOG1 DUP1 RETURN JUMPDEST POP SWAP2 SWAP1 CALLVALUE PUSH2 0x2CF JUMPI PUSH2 0x62C CALLDATASIZE PUSH2 0x83B JUMP JUMPDEST PUSH1 0x1 PUSH1 0x1 PUSH1 0xA0 SHL SUB SWAP1 SWAP2 AND DUP1 DUP5 MSTORE PUSH1 0x20 DUP5 DUP2 MSTORE DUP4 DUP6 KECCAK256 SLOAD SWAP1 SWAP6 SWAP3 SWAP2 SWAP1 PUSH1 0xFF AND ISZERO PUSH2 0x751 JUMPI PUSH2 0x65C DUP3 MLOAD ISZERO ISZERO PUSH2 0x99E JUMP JUMPDEST DUP5 MSTORE DUP4 DUP6 MSTORE PUSH1 0x1 SWAP4 DUP5 DUP5 DUP3 KECCAK256 ADD DUP7 DUP6 MLOAD DUP1 SWAP3 DUP5 SWAP1 DUP1 SLOAD SWAP6 PUSH2 0x67C DUP8 PUSH2 0x87E JUMP JUMPDEST SWAP2 DUP3 DUP6 MSTORE DUP6 DUP6 ADD SWAP8 DUP13 DUP2 AND SWAP1 DUP2 PUSH1 0x0 EQ PUSH2 0x730 JUMPI POP PUSH1 0x1 EQ PUSH2 0x6F4 JUMPI JUMPDEST POP POP POP PUSH2 0x6A8 SWAP3 POP SUB DUP3 PUSH2 0x7BD JUMP JUMPDEST MLOAD SWAP1 KECCAK256 SWAP1 DUP6 DUP2 MLOAD SWAP2 ADD KECCAK256 SUB PUSH2 0x6BE JUMPI POP MLOAD SWAP1 DUP2 MSTORE RETURN JUMPDEST DUP4 PUSH1 0x64 SWAP3 MLOAD SWAP2 PUSH3 0x461BCD PUSH1 0xE5 SHL DUP4 MSTORE DUP3 ADD MSTORE PUSH1 0x12 PUSH1 0x24 DUP3 ADD MSTORE PUSH18 0x125B98DBDC9C9958DD081C185CDCDDDBDC99 PUSH1 0x72 SHL PUSH1 0x44 DUP3 ADD MSTORE REVERT JUMPDEST SWAP1 DUP1 SWAP4 POP MSTORE DUP10 DUP5 DUP4 KECCAK256 JUMPDEST DUP3 DUP5 LT PUSH2 0x719 JUMPI POP POP POP SWAP2 PUSH2 0x6A8 SWAP3 DUP3 ADD ADD DUP10 SWAP3 CODESIZE DUP1 PUSH2 0x699 JUMP JUMPDEST DUP1 SLOAD DUP8 DUP6 ADD DUP8 ADD MSTORE DUP7 SWAP5 POP SWAP3 DUP6 ADD SWAP3 DUP12 SWAP2 ADD PUSH2 0x6FE JUMP JUMPDEST SWAP3 POP POP POP PUSH2 0x6A8 SWAP5 SWAP3 POP PUSH1 0xFF NOT AND DUP7 MSTORE ISZERO ISZERO PUSH1 0x5 SHL DUP3 ADD ADD DUP10 SWAP3 CODESIZE DUP1 PUSH2 0x699 JUMP JUMPDEST DUP4 MLOAD PUSH3 0x461BCD PUSH1 0xE5 SHL DUP2 MSTORE DUP1 DUP5 ADD DUP8 SWAP1 MSTORE PUSH1 0x14 PUSH1 0x24 DUP3 ADD MSTORE PUSH20 0x10591B5A5B88191BD95CC81B9BDD08195E1A5CDD PUSH1 0x62 SHL PUSH1 0x44 DUP3 ADD MSTORE PUSH1 0x64 SWAP1 REVERT JUMPDEST PUSH1 0x40 DUP2 ADD SWAP1 DUP2 LT PUSH8 0xFFFFFFFFFFFFFFFF DUP3 GT OR PUSH2 0x7A7 JUMPI PUSH1 0x40 MSTORE JUMP JUMPDEST PUSH4 0x4E487B71 PUSH1 0xE0 SHL PUSH1 0x0 MSTORE PUSH1 0x41 PUSH1 0x4 MSTORE PUSH1 0x24 PUSH1 0x0 REVERT JUMPDEST SWAP1 PUSH1 0x1F DUP1 NOT SWAP2 ADD AND DUP2 ADD SWAP1 DUP2 LT PUSH8 0xFFFFFFFFFFFFFFFF DUP3 GT OR PUSH2 0x7A7 JUMPI PUSH1 0x40 MSTORE JUMP JUMPDEST DUP2 PUSH1 0x1F DUP3 ADD SLT ISZERO PUSH2 0x836 JUMPI DUP1 CALLDATALOAD SWAP1 PUSH8 0xFFFFFFFFFFFFFFFF DUP3 GT PUSH2 0x7A7 JUMPI PUSH1 0x40 MLOAD SWAP3 PUSH2 0x814 PUSH1 0x1F DUP5 ADD PUSH1 0x1F NOT AND PUSH1 0x20 ADD DUP6 PUSH2 0x7BD JUMP JUMPDEST DUP3 DUP5 MSTORE PUSH1 0x20 DUP4 DUP4 ADD ADD GT PUSH2 0x836 JUMPI DUP2 PUSH1 0x0 SWAP3 PUSH1 0x20 DUP1 SWAP4 ADD DUP4 DUP7 ADD CALLDATACOPY DUP4 ADD ADD MSTORE SWAP1 JUMP JUMPDEST PUSH1 0x0 DUP1 REVERT JUMPDEST SWAP1 PUSH1 0x40 PUSH1 0x3 NOT DUP4 ADD SLT PUSH2 0x836 JUMPI PUSH1 0x4 CALLDATALOAD PUSH1 0x1 PUSH1 0x1 PUSH1 0xA0 SHL SUB DUP2 AND DUP2 SUB PUSH2 0x836 JUMPI SWAP2 PUSH1 0x24 CALLDATALOAD SWAP1 PUSH8 0xFFFFFFFFFFFFFFFF DUP3 GT PUSH2 0x836 JUMPI PUSH2 0x87B SWAP2 PUSH1 0x4 ADD PUSH2 0x7DF JUMP JUMPDEST SWAP1 JUMP JUMPDEST SWAP1 PUSH1 0x1 DUP3 DUP2 SHR SWAP3 AND DUP1 ISZERO PUSH2 0x8AE JUMPI JUMPDEST PUSH1 0x20 DUP4 LT EQ PUSH2 0x898 JUMPI JUMP JUMPDEST PUSH4 0x4E487B71 PUSH1 0xE0 SHL PUSH1 0x0 MSTORE PUSH1 0x22 PUSH1 0x4 MSTORE PUSH1 0x24 PUSH1 0x0 REVERT JUMPDEST SWAP2 PUSH1 0x7F AND SWAP2 PUSH2 0x88D JUMP JUMPDEST SWAP1 PUSH1 0x40 MLOAD SWAP2 DUP3 PUSH1 0x0 DUP3 SLOAD SWAP3 PUSH2 0x8CC DUP5 PUSH2 0x87E JUMP JUMPDEST SWAP1 DUP2 DUP5 MSTORE PUSH1 0x1 SWAP5 DUP6 DUP2 AND SWAP1 DUP2 PUSH1 0x0 EQ PUSH2 0x93B JUMPI POP PUSH1 0x1 EQ PUSH2 0x8F8 JUMPI JUMPDEST POP POP PUSH2 0x8F6 SWAP3 POP SUB DUP4 PUSH2 0x7BD JUMP JUMPDEST JUMP JUMPDEST SWAP1 SWAP4 SWAP2 POP PUSH1 0x0 MSTORE PUSH1 0x20 SWAP1 DUP2 PUSH1 0x0 KECCAK256 SWAP4 PUSH1 0x0 SWAP2 JUMPDEST DUP2 DUP4 LT PUSH2 0x923 JUMPI POP POP PUSH2 0x8F6 SWAP4 POP DUP3 ADD ADD CODESIZE DUP1 PUSH2 0x8E8 JUMP JUMPDEST DUP6 SLOAD DUP9 DUP5 ADD DUP6 ADD MSTORE SWAP5 DUP6 ADD SWAP5 DUP8 SWAP5 POP SWAP2 DUP4 ADD SWAP2 PUSH2 0x90B JUMP JUMPDEST SWAP2 POP POP PUSH2 0x8F6 SWAP5 POP PUSH1 0x20 SWAP3 POP PUSH1 0xFF NOT AND DUP3 DUP5 ADD MSTORE ISZERO ISZERO PUSH1 0x5 SHL DUP3 ADD ADD CODESIZE DUP1 PUSH2 0x8E8 JUMP JUMPDEST SWAP2 SWAP1 DUP3 MLOAD SWAP3 DUP4 DUP3 MSTORE PUSH1 0x0 JUMPDEST DUP5 DUP2 LT PUSH2 0x98A JUMPI POP POP DUP3 PUSH1 0x0 PUSH1 0x20 DUP1 SWAP5 SWAP6 DUP5 ADD ADD MSTORE PUSH1 0x1F DUP1 NOT SWAP2 ADD AND ADD ADD SWAP1 JUMP JUMPDEST PUSH1 0x20 DUP2 DUP4 ADD DUP2 ADD MLOAD DUP5 DUP4 ADD DUP3 ADD MSTORE ADD PUSH2 0x969 JUMP JUMPDEST ISZERO PUSH2 0x9A5 JUMPI JUMP JUMPDEST PUSH1 0x40 MLOAD PUSH3 0x461BCD PUSH1 0xE5 SHL DUP2 MSTORE PUSH1 0x20 PUSH1 0x4 DUP3 ADD MSTORE PUSH1 0xE PUSH1 0x24 DUP3 ADD MSTORE PUSH14 0x115B5C1D1E481C185CDCDDDBDC99 PUSH1 0x92 SHL PUSH1 0x44 DUP3 ADD MSTORE PUSH1 0x64 SWAP1 REVERT INVALID LOG2 PUSH5 0x6970667358 0x22 SLT KECCAK256 SWAP9 0xBE JUMP 0xD4 PUSH16 0xAC4513625983492C66D427050087AE3D CALLDATACOPY 0xF6 DELEGATECALL DUP6 PUSH1 0x11 CALLDATASIZE 0xB8 STOP 0xA8 0x4C PUSH5 0x736F6C6343 STOP ADDMOD SGT STOP CALLER "},"methodIdentifiers":{"addAdmin(address,string)":"d16856ca","addPolicy(string,string)":"87326741","handleSuccessfulLogin(address)":"546b3586","login(address,string)":"2f19d50b","nextPolicyId()":"cad0b8db","policies(uint256)":"d3e89483"}}}}}