{"contracts/UserManagement.sol":{"UserManagement":{"abi":[{"anonymous":false,"inputs":[{"indexed":true,"internalType":"address","name":"userAddress","type":"address"},{"indexed":false,"internalType":"string","name":"cnic","type":"string"},{"indexed":false,"internalType":"string","name":"name","type":"string"},{"indexed":false,"internalType":"string","name":"email","type":"string"}],"name":"UserRegistered","type":"event"},{"inputs":[],"name":"getAllUsers","outputs":[{"components":[{"internalType":"string","name":"cnic","type":"string"},{"internalType":"string","name":"name","type":"string"},{"internalType":"string","name":"fatherName","type":"string"},{"internalType":"string","name":"phoneNumber","type":"string"},{"internalType":"string","name":"email","type":"string"},{"internalType":"string","name":"password","type":"string"},{"internalType":"string","name":"permanentAddress","type":"string"},{"internalType":"string","name":"currentAddress","type":"string"},{"internalType":"bool","name":"isregister","type":"bool"}],"internalType":"struct UserManagement.User[]","name":"","type":"tuple[]"}],"stateMutability":"view","type":"function"},{"inputs":[{"internalType":"address","name":"_userAddress","type":"address"}],"name":"getNameForAddress","outputs":[{"internalType":"string","name":"","type":"string"}],"stateMutability":"view","type":"function"},{"inputs":[{"internalType":"address","name":"_owner","type":"address"}],"name":"getUser","outputs":[{"internalType":"string","name":"","type":"string"},{"internalType":"string","name":"","type":"string"},{"internalType":"string","name":"","type":"string"},{"internalType":"string","name":"","type":"string"},{"internalType":"string","name":"","type":"string"},{"internalType":"string","name":"","type":"string"},{"internalType":"string","name":"","type":"string"},{"internalType":"string","name":"","type":"string"},{"internalType":"bool","name":"","type":"bool"}],"stateMutability":"view","type":"function"},{"inputs":[{"internalType":"string","name":"_email","type":"string"},{"internalType":"string","name":"_password","type":"string"}],"name":"loginUser","outputs":[],"stateMutability":"nonpayable","type":"function"},{"inputs":[],"name":"logoutUser","outputs":[],"stateMutability":"nonpayable","type":"function"},{"inputs":[{"internalType":"string","name":"_CNIC","type":"string"},{"internalType":"string","name":"_name","type":"string"},{"internalType":"string","name":"_fatherName","type":"string"},{"internalType":"string","name":"_phoneNumber","type":"string"},{"internalType":"string","name":"_email","type":"string"},{"internalType":"string","name":"_password","type":"string"},{"internalType":"string","name":"_permanentAddress","type":"string"},{"internalType":"string","name":"_currentAddress","type":"string"}],"name":"registerUser","outputs":[],"stateMutability":"nonpayable","type":"function"},{"inputs":[{"internalType":"uint256","name":"","type":"uint256"}],"name":"registeredUsers","outputs":[{"internalType":"address","name":"","type":"address"}],"stateMutability":"view","type":"function"},{"inputs":[],"name":"totalUsers","outputs":[{"internalType":"uint256","name":"","type":"uint256"}],"stateMutability":"view","type":"function"},{"inputs":[{"internalType":"address","name":"","type":"address"}],"name":"users","outputs":[{"internalType":"string","name":"cnic","type":"string"},{"internalType":"string","name":"name","type":"string"},{"internalType":"string","name":"fatherName","type":"string"},{"internalType":"string","name":"phoneNumber","type":"string"},{"internalType":"string","name":"email","type":"string"},{"internalType":"string","name":"password","type":"string"},{"internalType":"string","name":"permanentAddress","type":"string"},{"internalType":"string","name":"currentAddress","type":"string"},{"internalType":"bool","name":"isregister","type":"bool"}],"stateMutability":"view","type":"function"}],"evm":{"bytecode":{"linkReferences":{},"object":"608080604052346100165761180b908161001c8239f35b600080fdfe6080604052600436101561001257600080fd5b60e0600035811c806322ce12e5146113c957806367601dd11461069b5780636f77926b146105525780637259e0f814610510578063a87430ba14610416578063bff1f9e1146103f8578063d8c27b9b14610398578063d8f145d2146103695763e2842d791461008057600080fd5b34610364576000366003190112610364576003805461009e816117aa565b916100ac6040519384611533565b818352601f196100bb836117aa565b0160005b81811061031557505060005b8281106101e357505050604051906020808301818452825180915260408401918060408360051b8701019401926000965b8388106101095786860387f35b90919293948380600192603f198a82030186528851906101c56101b56101a261018f61017c6101696101576101478951610120808b528a01906115cd565b8a8a01518982038c8b01526115cd565b604089015188820360408a01526115cd565b60608089015190888303908901526115cd565b60808088015190878303908801526115cd565b60a08087015190868303908701526115cd565b60c08086015190858303908601526115cd565b87840151838203898501526115cd565b916101008091015115159101529701930197019690939291936100fc565b806101f061031092611684565b60018060a01b03915490851b1c1660005260206000815260ff600860406000206040519361021d85611517565b6040516102358161022e81866116ef565b0382611533565b8552604051906102538261024c81600187016116ef565b0383611533565b85015260405161026a8161022e81600286016116ef565b60408501526040516102828161022e818b86016116ef565b606085015260405161029b8161022e81600486016116ef565b60808501526040516102b48161022e81600586016116ef565b60a08501526040516102cd8161022e81600686016116ef565b60c08501526040516102e68161022e81600786016116ef565b8a85015201541615156101008201526102ff82876117c1565b5261030a81866117c1565b50611785565b6100cb565b60209060405161032481611517565b60608082528390808284015280604084015280808401528060808401528060a08401528060c08401528983015260006101008301528288010152016100bf565b600080fd5b3461036457600036600319011261036457336000526000602052600860406000200160ff198154169055600080f35b34610364576020366003190112610364576004356001600160a01b038116908190036103645760005260026020526103f461022e6103e06040600020604051928380926116ef565b6040519182916020835260208301906115cd565b0390f35b34610364576000366003190112610364576020600354604051908152f35b34610364576020366003190112610364576004356001600160a01b03811690819003610364576000526000602052604060002060405161045a8161022e81856116ef565b6103f4604051926104798461047281600185016116ef565b0385611533565b6040519061048e8261024c81600285016116ef565b6040516104a28161022e81600386016116ef565b6040516104b68161022e81600487016116ef565b604051906104cb8261024c81600588016116ef565b604051926104e08461047281600689016116ef565b60ff600860405196610500886104f981600785016116ef565b0389611533565b01541695604051998a998a6115f2565b346103645760203660031901126103645760043560045481101561036457610539602091611684565b905460405160039290921b1c6001600160a01b03168152f35b5034610364576020366003190112610364576004356001600160a01b038116908190036103645760005260006020526040600020906103f460405161059681611517565b6040516105a78161022e81886116ef565b8152604051926105be8461047281600189016116ef565b60208201938452604051946105e1866105da81600285016116ef565b0387611533565b60408301958652604051906105fd8261024c81600385016116ef565b606084019182526040516106188161022e81600486016116ef565b60808501908152604051906106348261024c81600587016116ef565b60a0860191825260ff600860405194610654866105da81600685016116ef565b60c0890195865260405180986106718261024c81600787016116ef565b8a0152015416151595866101008201525197519851935190519151925193604051998a998a6115f2565b50346103645761010080600319360112610364576004356001600160401b038111610364576106ce903690600401611554565b6024356001600160401b038111610364576106ed903690600401611554565b916044356001600160401b0381116103645761070d903690600401611554565b906064356001600160401b0381116103645761072d903690600401611554565b946084356001600160401b0381116103645761074d903690600401611554565b9560a4356001600160401b0381116103645761076d903690600401611554565b60c4356001600160401b0381116103645761078c903690600401611554565b9060e4356001600160401b038111610364576107ac903690600401611554565b9233600052600060205260ff6008604060002001541661136d57604051966107d388611517565b8888528960208901526040880152606087015288608087015260a086015260c08501528184015260018284015233600052600060205260406000209083518051906001600160401b038211610c3457819061082e85546116b5565b601f811161131d575b50602090601f83116001146112b1576000926112a6575b50508160011b916000199060031b1c19161782555b60208401518051906001600160401b038211610c3457819061088860018601546116b5565b601f8111611253575b50602090601f83116001146111e1576000926111d6575b50508160011b916000199060031b1c19161760018301555b60408401518051906001600160401b038211610c345781906108e560028601546116b5565b601f8111611183575b50602090601f831160011461111157600092611106575b50508160011b916000199060031b1c19161760028301555b60608401518051906001600160401b038211610c3457819061094260038601546116b5565b601f81116110b3575b50602090601f831160011461104157600092611036575b50508160011b916000199060031b1c19161760038301555b60808401518051906001600160401b038211610c3457819061099f60048601546116b5565b601f8111610fe3575b50602090601f8311600114610f7157600092610f66575b50508160011b916000199060031b1c19161760048301555b60a08401518051906001600160401b038211610c345781906109fc60058601546116b5565b601f8111610f13575b50602090601f8311600114610ea157600092610e96575b50508160011b916000199060031b1c19161760058301555b60c08401518051906001600160401b038211610c34578190610a5960068601546116b5565b601f8111610e43575b50602090601f8311600114610dd157600092610dc6575b50508160011b916000199060031b1c19161760068301555b8301518051906001600160401b038211610c3457610ab260078401546116b5565b601f8111610d7f575b50602090601f8311600114610d0c57600893929160009183610d01575b50508160011b916000199060031b1c19161760078201555b01910151151560ff801983541691161790556040516020818551610b178183858a016115aa565b810160018152030190203360018060a01b0319825416179055336000526002602052604060002082516001600160401b038111610c3457610b5882546116b5565b601f8111610cb9575b50806020601f8211600114610c5557600091610c4a575b508160011b916000199060031b1c19161790555b610b97600354611785565b60035560045490600160401b821015610c3457610c2f610c207f509c70f523067009f7db7f46db6956d7af8b679323680dc3821a8bad001ac1e194610be5856001610c129701600455611684565b81549060031b9033821b9160018060a01b03901b19161790556040519485946060865260608601906115cd565b9084820360208601526115cd565b828103604084015233956115cd565b0390a2005b634e487b7160e01b600052604160045260246000fd5b905084015138610b78565b6000848152602081209250601f198416905b818110610ca157509083600194939210610c88575b5050811b019055610b8c565b86015160001960f88460031b161c191690553880610c7c565b9192602060018192868b015181550194019201610c67565b826000526020600020601f830160051c81019160208410610cf7575b601f0160051c01905b818110610ceb5750610b61565b60008155600101610cde565b9091508190610cd5565b015190503880610ad8565b906007840160005260206000209160005b601f1985168110610d67575091839160019360089695601f19811610610d4e575b505050811b016007820155610af0565b015160001960f88460031b161c19169055388080610d3e565b91926020600181928685015181550194019201610d1d565b600784016000526020600020601f840160051c810160208510610dbf575b601f830160051c82018110610db3575050610abb565b60008155600101610d9d565b5080610d9d565b015190503880610a79565b9250600685016000526020600020906000935b601f1984168510610e28576001945083601f19811610610e0f575b505050811b016006830155610a91565b015160001960f88460031b161c19169055388080610dff565b81810151835560209485019460019093019290910190610de4565b909150600685016000526020600020601f840160051c810160208510610e8f575b90849392915b601f830160051c82018110610e80575050610a62565b60008155859450600101610e6a565b5080610e64565b015190503880610a1c565b9250600585016000526020600020906000935b601f1984168510610ef8576001945083601f19811610610edf575b505050811b016005830155610a34565b015160001960f88460031b161c19169055388080610ecf565b81810151835560209485019460019093019290910190610eb4565b909150600585016000526020600020601f840160051c810160208510610f5f575b90849392915b601f830160051c82018110610f50575050610a05565b60008155859450600101610f3a565b5080610f34565b0151905038806109bf565b9250600485016000526020600020906000935b601f1984168510610fc8576001945083601f19811610610faf575b505050811b0160048301556109d7565b015160001960f88460031b161c19169055388080610f9f565b81810151835560209485019460019093019290910190610f84565b909150600485016000526020600020601f840160051c81016020851061102f575b90849392915b601f830160051c820181106110205750506109a8565b6000815585945060010161100a565b5080611004565b015190503880610962565b9250600385016000526020600020906000935b601f1984168510611098576001945083601f1981161061107f575b505050811b01600383015561097a565b015160001960f88460031b161c1916905538808061106f565b81810151835560209485019460019093019290910190611054565b909150600385016000526020600020601f840160051c8101602085106110ff575b90849392915b601f830160051c820181106110f057505061094b565b600081558594506001016110da565b50806110d4565b015190503880610905565b9250600285016000526020600020906000935b601f1984168510611168576001945083601f1981161061114f575b505050811b01600283015561091d565b015160001960f88460031b161c1916905538808061113f565b81810151835560209485019460019093019290910190611124565b909150600285016000526020600020601f840160051c8101602085106111cf575b90849392915b601f830160051c820181106111c05750506108ee565b600081558594506001016111aa565b50806111a4565b0151905038806108a8565b9250600185016000526020600020906000935b601f1984168510611238576001945083601f1981161061121f575b505050811b0160018301556108c0565b015160001960f88460031b161c1916905538808061120f565b818101518355602094850194600190930192909101906111f4565b909150600185016000526020600020601f840160051c81016020851061129f575b90849392915b601f830160051c82018110611290575050610891565b6000815585945060010161127a565b5080611274565b01519050388061084e565b9250846000526020600020906000935b601f1984168510611302576001945083601f198116106112e9575b505050811b018255610863565b015160001960f88460031b161c191690553880806112dc565b818101518355602094850194600190930192909101906112c1565b909150846000526020600020601f840160051c810160208510611366575b90849392915b601f830160051c82018110611357575050610837565b60008155859450600101611341565b508061133b565b60405162461bcd60e51b815260206004820152602e60248201527f557365722077697468207468697320457468657265756d20416464726573732060448201526d616c72656164792065786973747360901b6064820152608490fd5b34610364576040366003190112610364576001600160401b03600435818111610364576113fa903690600401611554565b9060243590811161036457611413903690600401611554565b336000526020916000835261022e6114386004604060002001604051928380926116ef565b83815191012090838151910120036114db57336000526000825261022e61146c6005604060002001604051928380926116ef565b828151910120908281519101200361149d57600090338252526008604060002001600160ff19825416179055600080f35b6064906040519062461bcd60e51b8252600482015260176024820152760a0c2e6e6eedee4c840c8decae640dcdee840dac2e8c6d604b1b6044820152fd5b60405162461bcd60e51b815260048101839052601460248201527308adac2d2d840c8decae640dcdee840dac2e8c6d60631b6044820152606490fd5b61012081019081106001600160401b03821117610c3457604052565b90601f801991011681019081106001600160401b03821117610c3457604052565b81601f82011215610364578035906001600160401b038211610c345760405192611588601f8401601f191660200185611533565b8284526020838301011161036457816000926020809301838601378301015290565b60005b8381106115bd5750506000910152565b81810151838201526020016115ad565b906020916115e6815180928185528580860191016115aa565b601f01601f1916010190565b97946116529061164461166e966116368c9d9e9d6101009c9861162861166099610c1261167c9f9a6101208087528601906115cd565b9160408184039101526115cd565b8c810360608e0152906115cd565b908a820360808c01526115cd565b9088820360a08a01526115cd565b9086820360c08801526115cd565b9084820360e08601526115cd565b931515910152565b60045481101561169f57600460005260206000200190600090565b634e487b7160e01b600052603260045260246000fd5b90600182811c921680156116e5575b60208310146116cf57565b634e487b7160e01b600052602260045260246000fd5b91607f16916116c4565b9060009291805491611700836116b5565b9182825260019384811690816000146117625750600114611722575b50505050565b90919394506000526020928360002092846000945b83861061174e57505050500101903880808061171c565b805485870183015294019385908201611737565b9294505050602093945060ff191683830152151560051b0101903880808061171c565b60001981146117945760010190565b634e487b7160e01b600052601160045260246000fd5b6001600160401b038111610c345760051b60200190565b805182101561169f5760209160051b01019056fea2646970667358221220472913d50e3f20ff810435afca7830f70258542dc820c2566e938fa6a5fce6fc64736f6c63430008130033","opcodes":"PUSH1 0x80 DUP1 PUSH1 0x40 MSTORE CALLVALUE PUSH2 0x16 JUMPI PUSH2 0x180B SWAP1 DUP2 PUSH2 0x1C DUP3 CODECOPY RETURN JUMPDEST PUSH1 0x0 DUP1 REVERT INVALID PUSH1 0x80 PUSH1 0x40 MSTORE PUSH1 0x4 CALLDATASIZE LT ISZERO PUSH2 0x12 JUMPI PUSH1 0x0 DUP1 REVERT JUMPDEST PUSH1 0xE0 PUSH1 0x0 CALLDATALOAD DUP2 SHR DUP1 PUSH4 0x22CE12E5 EQ PUSH2 0x13C9 JUMPI DUP1 PUSH4 0x67601DD1 EQ PUSH2 0x69B JUMPI DUP1 PUSH4 0x6F77926B EQ PUSH2 0x552 JUMPI DUP1 PUSH4 0x7259E0F8 EQ PUSH2 0x510 JUMPI DUP1 PUSH4 0xA87430BA EQ PUSH2 0x416 JUMPI DUP1 PUSH4 0xBFF1F9E1 EQ PUSH2 0x3F8 JUMPI DUP1 PUSH4 0xD8C27B9B EQ PUSH2 0x398 JUMPI DUP1 PUSH4 0xD8F145D2 EQ PUSH2 0x369 JUMPI PUSH4 0xE2842D79 EQ PUSH2 0x80 JUMPI PUSH1 0x0 DUP1 REVERT JUMPDEST CALLVALUE PUSH2 0x364 JUMPI PUSH1 0x0 CALLDATASIZE PUSH1 0x3 NOT ADD SLT PUSH2 0x364 JUMPI PUSH1 0x3 DUP1 SLOAD PUSH2 0x9E DUP2 PUSH2 0x17AA JUMP JUMPDEST SWAP2 PUSH2 0xAC PUSH1 0x40 MLOAD SWAP4 DUP5 PUSH2 0x1533 JUMP JUMPDEST DUP2 DUP4 MSTORE PUSH1 0x1F NOT PUSH2 0xBB DUP4 PUSH2 0x17AA JUMP JUMPDEST ADD PUSH1 0x0 JUMPDEST DUP2 DUP2 LT PUSH2 0x315 JUMPI POP POP PUSH1 0x0 JUMPDEST DUP3 DUP2 LT PUSH2 0x1E3 JUMPI POP POP POP PUSH1 0x40 MLOAD SWAP1 PUSH1 0x20 DUP1 DUP4 ADD DUP2 DUP5 MSTORE DUP3 MLOAD DUP1 SWAP2 MSTORE PUSH1 0x40 DUP5 ADD SWAP2 DUP1 PUSH1 0x40 DUP4 PUSH1 0x5 SHL DUP8 ADD ADD SWAP5 ADD SWAP3 PUSH1 0x0 SWAP7 JUMPDEST DUP4 DUP9 LT PUSH2 0x109 JUMPI DUP7 DUP7 SUB DUP8 RETURN JUMPDEST SWAP1 SWAP2 SWAP3 SWAP4 SWAP5 DUP4 DUP1 PUSH1 0x1 SWAP3 PUSH1 0x3F NOT DUP11 DUP3 SUB ADD DUP7 MSTORE DUP9 MLOAD SWAP1 PUSH2 0x1C5 PUSH2 0x1B5 PUSH2 0x1A2 PUSH2 0x18F PUSH2 0x17C PUSH2 0x169 PUSH2 0x157 PUSH2 0x147 DUP10 MLOAD PUSH2 0x120 DUP1 DUP12 MSTORE DUP11 ADD SWAP1 PUSH2 0x15CD JUMP JUMPDEST DUP11 DUP11 ADD MLOAD DUP10 DUP3 SUB DUP13 DUP12 ADD MSTORE PUSH2 0x15CD JUMP JUMPDEST PUSH1 0x40 DUP10 ADD MLOAD DUP9 DUP3 SUB PUSH1 0x40 DUP11 ADD MSTORE PUSH2 0x15CD JUMP JUMPDEST PUSH1 0x60 DUP1 DUP10 ADD MLOAD SWAP1 DUP9 DUP4 SUB SWAP1 DUP10 ADD MSTORE PUSH2 0x15CD JUMP JUMPDEST PUSH1 0x80 DUP1 DUP9 ADD MLOAD SWAP1 DUP8 DUP4 SUB SWAP1 DUP9 ADD MSTORE PUSH2 0x15CD JUMP JUMPDEST PUSH1 0xA0 DUP1 DUP8 ADD MLOAD SWAP1 DUP7 DUP4 SUB SWAP1 DUP8 ADD MSTORE PUSH2 0x15CD JUMP JUMPDEST PUSH1 0xC0 DUP1 DUP7 ADD MLOAD SWAP1 DUP6 DUP4 SUB SWAP1 DUP7 ADD MSTORE PUSH2 0x15CD JUMP JUMPDEST DUP8 DUP5 ADD MLOAD DUP4 DUP3 SUB DUP10 DUP6 ADD MSTORE PUSH2 0x15CD JUMP JUMPDEST SWAP2 PUSH2 0x100 DUP1 SWAP2 ADD MLOAD ISZERO ISZERO SWAP2 ADD MSTORE SWAP8 ADD SWAP4 ADD SWAP8 ADD SWAP7 SWAP1 SWAP4 SWAP3 SWAP2 SWAP4 PUSH2 0xFC JUMP JUMPDEST DUP1 PUSH2 0x1F0 PUSH2 0x310 SWAP3 PUSH2 0x1684 JUMP JUMPDEST PUSH1 0x1 DUP1 PUSH1 0xA0 SHL SUB SWAP2 SLOAD SWAP1 DUP6 SHL SHR AND PUSH1 0x0 MSTORE PUSH1 0x20 PUSH1 0x0 DUP2 MSTORE PUSH1 0xFF PUSH1 0x8 PUSH1 0x40 PUSH1 0x0 KECCAK256 PUSH1 0x40 MLOAD SWAP4 PUSH2 0x21D DUP6 PUSH2 0x1517 JUMP JUMPDEST PUSH1 0x40 MLOAD PUSH2 0x235 DUP2 PUSH2 0x22E DUP2 DUP7 PUSH2 0x16EF JUMP JUMPDEST SUB DUP3 PUSH2 0x1533 JUMP JUMPDEST DUP6 MSTORE PUSH1 0x40 MLOAD SWAP1 PUSH2 0x253 DUP3 PUSH2 0x24C DUP2 PUSH1 0x1 DUP8 ADD PUSH2 0x16EF JUMP JUMPDEST SUB DUP4 PUSH2 0x1533 JUMP JUMPDEST DUP6 ADD MSTORE PUSH1 0x40 MLOAD PUSH2 0x26A DUP2 PUSH2 0x22E DUP2 PUSH1 0x2 DUP7 ADD PUSH2 0x16EF JUMP JUMPDEST PUSH1 0x40 DUP6 ADD MSTORE PUSH1 0x40 MLOAD PUSH2 0x282 DUP2 PUSH2 0x22E DUP2 DUP12 DUP7 ADD PUSH2 0x16EF JUMP JUMPDEST PUSH1 0x60 DUP6 ADD MSTORE PUSH1 0x40 MLOAD PUSH2 0x29B DUP2 PUSH2 0x22E DUP2 PUSH1 0x4 DUP7 ADD PUSH2 0x16EF JUMP JUMPDEST PUSH1 0x80 DUP6 ADD MSTORE PUSH1 0x40 MLOAD PUSH2 0x2B4 DUP2 PUSH2 0x22E DUP2 PUSH1 0x5 DUP7 ADD PUSH2 0x16EF JUMP JUMPDEST PUSH1 0xA0 DUP6 ADD MSTORE PUSH1 0x40 MLOAD PUSH2 0x2CD DUP2 PUSH2 0x22E DUP2 PUSH1 0x6 DUP7 ADD PUSH2 0x16EF JUMP JUMPDEST PUSH1 0xC0 DUP6 ADD MSTORE PUSH1 0x40 MLOAD PUSH2 0x2E6 DUP2 PUSH2 0x22E DUP2 PUSH1 0x7 DUP7 ADD PUSH2 0x16EF JUMP JUMPDEST DUP11 DUP6 ADD MSTORE ADD SLOAD AND ISZERO ISZERO PUSH2 0x100 DUP3 ADD MSTORE PUSH2 0x2FF DUP3 DUP8 PUSH2 0x17C1 JUMP JUMPDEST MSTORE PUSH2 0x30A DUP2 DUP7 PUSH2 0x17C1 JUMP JUMPDEST POP PUSH2 0x1785 JUMP JUMPDEST PUSH2 0xCB JUMP JUMPDEST PUSH1 0x20 SWAP1 PUSH1 0x40 MLOAD PUSH2 0x324 DUP2 PUSH2 0x1517 JUMP JUMPDEST PUSH1 0x60 DUP1 DUP3 MSTORE DUP4 SWAP1 DUP1 DUP3 DUP5 ADD MSTORE DUP1 PUSH1 0x40 DUP5 ADD MSTORE DUP1 DUP1 DUP5 ADD MSTORE DUP1 PUSH1 0x80 DUP5 ADD MSTORE DUP1 PUSH1 0xA0 DUP5 ADD MSTORE DUP1 PUSH1 0xC0 DUP5 ADD MSTORE DUP10 DUP4 ADD MSTORE PUSH1 0x0 PUSH2 0x100 DUP4 ADD MSTORE DUP3 DUP9 ADD ADD MSTORE ADD PUSH2 0xBF JUMP JUMPDEST PUSH1 0x0 DUP1 REVERT JUMPDEST CALLVALUE PUSH2 0x364 JUMPI PUSH1 0x0 CALLDATASIZE PUSH1 0x3 NOT ADD SLT PUSH2 0x364 JUMPI CALLER PUSH1 0x0 MSTORE PUSH1 0x0 PUSH1 0x20 MSTORE PUSH1 0x8 PUSH1 0x40 PUSH1 0x0 KECCAK256 ADD PUSH1 0xFF NOT DUP2 SLOAD AND SWAP1 SSTORE PUSH1 0x0 DUP1 RETURN JUMPDEST CALLVALUE PUSH2 0x364 JUMPI PUSH1 0x20 CALLDATASIZE PUSH1 0x3 NOT ADD SLT PUSH2 0x364 JUMPI PUSH1 0x4 CALLDATALOAD PUSH1 0x1 PUSH1 0x1 PUSH1 0xA0 SHL SUB DUP2 AND SWAP1 DUP2 SWAP1 SUB PUSH2 0x364 JUMPI PUSH1 0x0 MSTORE PUSH1 0x2 PUSH1 0x20 MSTORE PUSH2 0x3F4 PUSH2 0x22E PUSH2 0x3E0 PUSH1 0x40 PUSH1 0x0 KECCAK256 PUSH1 0x40 MLOAD SWAP3 DUP4 DUP1 SWAP3 PUSH2 0x16EF JUMP JUMPDEST PUSH1 0x40 MLOAD SWAP2 DUP3 SWAP2 PUSH1 0x20 DUP4 MSTORE PUSH1 0x20 DUP4 ADD SWAP1 PUSH2 0x15CD JUMP JUMPDEST SUB SWAP1 RETURN JUMPDEST CALLVALUE PUSH2 0x364 JUMPI PUSH1 0x0 CALLDATASIZE PUSH1 0x3 NOT ADD SLT PUSH2 0x364 JUMPI PUSH1 0x20 PUSH1 0x3 SLOAD PUSH1 0x40 MLOAD SWAP1 DUP2 MSTORE RETURN JUMPDEST CALLVALUE PUSH2 0x364 JUMPI PUSH1 0x20 CALLDATASIZE PUSH1 0x3 NOT ADD SLT PUSH2 0x364 JUMPI PUSH1 0x4 CALLDATALOAD PUSH1 0x1 PUSH1 0x1 PUSH1 0xA0 SHL SUB DUP2 AND SWAP1 DUP2 SWAP1 SUB PUSH2 0x364 JUMPI PUSH1 0x0 MSTORE PUSH1 0x0 PUSH1 0x20 MSTORE PUSH1 0x40 PUSH1 0x0 KECCAK256 PUSH1 0x40 MLOAD PUSH2 0x45A DUP2 PUSH2 0x22E DUP2 DUP6 PUSH2 0x16EF JUMP JUMPDEST PUSH2 0x3F4 PUSH1 0x40 MLOAD SWAP3 PUSH2 0x479 DUP5 PUSH2 0x472 DUP2 PUSH1 0x1 DUP6 ADD PUSH2 0x16EF JUMP JUMPDEST SUB DUP6 PUSH2 0x1533 JUMP JUMPDEST PUSH1 0x40 MLOAD SWAP1 PUSH2 0x48E DUP3 PUSH2 0x24C DUP2 PUSH1 0x2 DUP6 ADD PUSH2 0x16EF JUMP JUMPDEST PUSH1 0x40 MLOAD PUSH2 0x4A2 DUP2 PUSH2 0x22E DUP2 PUSH1 0x3 DUP7 ADD PUSH2 0x16EF JUMP JUMPDEST PUSH1 0x40 MLOAD PUSH2 0x4B6 DUP2 PUSH2 0x22E DUP2 PUSH1 0x4 DUP8 ADD PUSH2 0x16EF JUMP JUMPDEST PUSH1 0x40 MLOAD SWAP1 PUSH2 0x4CB DUP3 PUSH2 0x24C DUP2 PUSH1 0x5 DUP9 ADD PUSH2 0x16EF JUMP JUMPDEST PUSH1 0x40 MLOAD SWAP3 PUSH2 0x4E0 DUP5 PUSH2 0x472 DUP2 PUSH1 0x6 DUP10 ADD PUSH2 0x16EF JUMP JUMPDEST PUSH1 0xFF PUSH1 0x8 PUSH1 0x40 MLOAD SWAP7 PUSH2 0x500 DUP9 PUSH2 0x4F9 DUP2 PUSH1 0x7 DUP6 ADD PUSH2 0x16EF JUMP JUMPDEST SUB DUP10 PUSH2 0x1533 JUMP JUMPDEST ADD SLOAD AND SWAP6 PUSH1 0x40 MLOAD SWAP10 DUP11 SWAP10 DUP11 PUSH2 0x15F2 JUMP JUMPDEST CALLVALUE PUSH2 0x364 JUMPI PUSH1 0x20 CALLDATASIZE PUSH1 0x3 NOT ADD SLT PUSH2 0x364 JUMPI PUSH1 0x4 CALLDATALOAD PUSH1 0x4 SLOAD DUP2 LT ISZERO PUSH2 0x364 JUMPI PUSH2 0x539 PUSH1 0x20 SWAP2 PUSH2 0x1684 JUMP JUMPDEST SWAP1 SLOAD PUSH1 0x40 MLOAD PUSH1 0x3 SWAP3 SWAP1 SWAP3 SHL SHR PUSH1 0x1 PUSH1 0x1 PUSH1 0xA0 SHL SUB AND DUP2 MSTORE RETURN JUMPDEST POP CALLVALUE PUSH2 0x364 JUMPI PUSH1 0x20 CALLDATASIZE PUSH1 0x3 NOT ADD SLT PUSH2 0x364 JUMPI PUSH1 0x4 CALLDATALOAD PUSH1 0x1 PUSH1 0x1 PUSH1 0xA0 SHL SUB DUP2 AND SWAP1 DUP2 SWAP1 SUB PUSH2 0x364 JUMPI PUSH1 0x0 MSTORE PUSH1 0x0 PUSH1 0x20 MSTORE PUSH1 0x40 PUSH1 0x0 KECCAK256 SWAP1 PUSH2 0x3F4 PUSH1 0x40 MLOAD PUSH2 0x596 DUP2 PUSH2 0x1517 JUMP JUMPDEST PUSH1 0x40 MLOAD PUSH2 0x5A7 DUP2 PUSH2 0x22E DUP2 DUP9 PUSH2 0x16EF JUMP JUMPDEST DUP2 MSTORE PUSH1 0x40 MLOAD SWAP3 PUSH2 0x5BE DUP5 PUSH2 0x472 DUP2 PUSH1 0x1 DUP10 ADD PUSH2 0x16EF JUMP JUMPDEST PUSH1 0x20 DUP3 ADD SWAP4 DUP5 MSTORE PUSH1 0x40 MLOAD SWAP5 PUSH2 0x5E1 DUP7 PUSH2 0x5DA DUP2 PUSH1 0x2 DUP6 ADD PUSH2 0x16EF JUMP JUMPDEST SUB DUP8 PUSH2 0x1533 JUMP JUMPDEST PUSH1 0x40 DUP4 ADD SWAP6 DUP7 MSTORE PUSH1 0x40 MLOAD SWAP1 PUSH2 0x5FD DUP3 PUSH2 0x24C DUP2 PUSH1 0x3 DUP6 ADD PUSH2 0x16EF JUMP JUMPDEST PUSH1 0x60 DUP5 ADD SWAP2 DUP3 MSTORE PUSH1 0x40 MLOAD PUSH2 0x618 DUP2 PUSH2 0x22E DUP2 PUSH1 0x4 DUP7 ADD PUSH2 0x16EF JUMP JUMPDEST PUSH1 0x80 DUP6 ADD SWAP1 DUP2 MSTORE PUSH1 0x40 MLOAD SWAP1 PUSH2 0x634 DUP3 PUSH2 0x24C DUP2 PUSH1 0x5 DUP8 ADD PUSH2 0x16EF JUMP JUMPDEST PUSH1 0xA0 DUP7 ADD SWAP2 DUP3 MSTORE PUSH1 0xFF PUSH1 0x8 PUSH1 0x40 MLOAD SWAP5 PUSH2 0x654 DUP7 PUSH2 0x5DA DUP2 PUSH1 0x6 DUP6 ADD PUSH2 0x16EF JUMP JUMPDEST PUSH1 0xC0 DUP10 ADD SWAP6 DUP7 MSTORE PUSH1 0x40 MLOAD DUP1 SWAP9 PUSH2 0x671 DUP3 PUSH2 0x24C DUP2 PUSH1 0x7 DUP8 ADD PUSH2 0x16EF JUMP JUMPDEST DUP11 ADD MSTORE ADD SLOAD AND ISZERO ISZERO SWAP6 DUP7 PUSH2 0x100 DUP3 ADD MSTORE MLOAD SWAP8 MLOAD SWAP9 MLOAD SWAP4 MLOAD SWAP1 MLOAD SWAP2 MLOAD SWAP3 MLOAD SWAP4 PUSH1 0x40 MLOAD SWAP10 DUP11 SWAP10 DUP11 PUSH2 0x15F2 JUMP JUMPDEST POP CALLVALUE PUSH2 0x364 JUMPI PUSH2 0x100 DUP1 PUSH1 0x3 NOT CALLDATASIZE ADD SLT PUSH2 0x364 JUMPI PUSH1 0x4 CALLDATALOAD PUSH1 0x1 PUSH1 0x1 PUSH1 0x40 SHL SUB DUP2 GT PUSH2 0x364 JUMPI PUSH2 0x6CE SWAP1 CALLDATASIZE SWAP1 PUSH1 0x4 ADD PUSH2 0x1554 JUMP JUMPDEST PUSH1 0x24 CALLDATALOAD PUSH1 0x1 PUSH1 0x1 PUSH1 0x40 SHL SUB DUP2 GT PUSH2 0x364 JUMPI PUSH2 0x6ED SWAP1 CALLDATASIZE SWAP1 PUSH1 0x4 ADD PUSH2 0x1554 JUMP JUMPDEST SWAP2 PUSH1 0x44 CALLDATALOAD PUSH1 0x1 PUSH1 0x1 PUSH1 0x40 SHL SUB DUP2 GT PUSH2 0x364 JUMPI PUSH2 0x70D SWAP1 CALLDATASIZE SWAP1 PUSH1 0x4 ADD PUSH2 0x1554 JUMP JUMPDEST SWAP1 PUSH1 0x64 CALLDATALOAD PUSH1 0x1 PUSH1 0x1 PUSH1 0x40 SHL SUB DUP2 GT PUSH2 0x364 JUMPI PUSH2 0x72D SWAP1 CALLDATASIZE SWAP1 PUSH1 0x4 ADD PUSH2 0x1554 JUMP JUMPDEST SWAP5 PUSH1 0x84 CALLDATALOAD PUSH1 0x1 PUSH1 0x1 PUSH1 0x40 SHL SUB DUP2 GT PUSH2 0x364 JUMPI PUSH2 0x74D SWAP1 CALLDATASIZE SWAP1 PUSH1 0x4 ADD PUSH2 0x1554 JUMP JUMPDEST SWAP6 PUSH1 0xA4 CALLDATALOAD PUSH1 0x1 PUSH1 0x1 PUSH1 0x40 SHL SUB DUP2 GT PUSH2 0x364 JUMPI PUSH2 0x76D SWAP1 CALLDATASIZE SWAP1 PUSH1 0x4 ADD PUSH2 0x1554 JUMP JUMPDEST PUSH1 0xC4 CALLDATALOAD PUSH1 0x1 PUSH1 0x1 PUSH1 0x40 SHL SUB DUP2 GT PUSH2 0x364 JUMPI PUSH2 0x78C SWAP1 CALLDATASIZE SWAP1 PUSH1 0x4 ADD PUSH2 0x1554 JUMP JUMPDEST SWAP1 PUSH1 0xE4 CALLDATALOAD PUSH1 0x1 PUSH1 0x1 PUSH1 0x40 SHL SUB DUP2 GT PUSH2 0x364 JUMPI PUSH2 0x7AC SWAP1 CALLDATASIZE SWAP1 PUSH1 0x4 ADD PUSH2 0x1554 JUMP JUMPDEST SWAP3 CALLER PUSH1 0x0 MSTORE PUSH1 0x0 PUSH1 0x20 MSTORE PUSH1 0xFF PUSH1 0x8 PUSH1 0x40 PUSH1 0x0 KECCAK256 ADD SLOAD AND PUSH2 0x136D JUMPI PUSH1 0x40 MLOAD SWAP7 PUSH2 0x7D3 DUP9 PUSH2 0x1517 JUMP JUMPDEST DUP9 DUP9 MSTORE DUP10 PUSH1 0x20 DUP10 ADD MSTORE PUSH1 0x40 DUP9 ADD MSTORE PUSH1 0x60 DUP8 ADD MSTORE DUP9 PUSH1 0x80 DUP8 ADD MSTORE PUSH1 0xA0 DUP7 ADD MSTORE PUSH1 0xC0 DUP6 ADD MSTORE DUP2 DUP5 ADD MSTORE PUSH1 0x1 DUP3 DUP5 ADD MSTORE CALLER PUSH1 0x0 MSTORE PUSH1 0x0 PUSH1 0x20 MSTORE PUSH1 0x40 PUSH1 0x0 KECCAK256 SWAP1 DUP4 MLOAD DUP1 MLOAD SWAP1 PUSH1 0x1 PUSH1 0x1 PUSH1 0x40 SHL SUB DUP3 GT PUSH2 0xC34 JUMPI DUP2 SWAP1 PUSH2 0x82E DUP6 SLOAD PUSH2 0x16B5 JUMP JUMPDEST PUSH1 0x1F DUP2 GT PUSH2 0x131D JUMPI JUMPDEST POP PUSH1 0x20 SWAP1 PUSH1 0x1F DUP4 GT PUSH1 0x1 EQ PUSH2 0x12B1 JUMPI PUSH1 0x0 SWAP3 PUSH2 0x12A6 JUMPI JUMPDEST POP POP DUP2 PUSH1 0x1 SHL SWAP2 PUSH1 0x0 NOT SWAP1 PUSH1 0x3 SHL SHR NOT AND OR DUP3 SSTORE JUMPDEST PUSH1 0x20 DUP5 ADD MLOAD DUP1 MLOAD SWAP1 PUSH1 0x1 PUSH1 0x1 PUSH1 0x40 SHL SUB DUP3 GT PUSH2 0xC34 JUMPI DUP2 SWAP1 PUSH2 0x888 PUSH1 0x1 DUP7 ADD SLOAD PUSH2 0x16B5 JUMP JUMPDEST PUSH1 0x1F DUP2 GT PUSH2 0x1253 JUMPI JUMPDEST POP PUSH1 0x20 SWAP1 PUSH1 0x1F DUP4 GT PUSH1 0x1 EQ PUSH2 0x11E1 JUMPI PUSH1 0x0 SWAP3 PUSH2 0x11D6 JUMPI JUMPDEST POP POP DUP2 PUSH1 0x1 SHL SWAP2 PUSH1 0x0 NOT SWAP1 PUSH1 0x3 SHL SHR NOT AND OR PUSH1 0x1 DUP4 ADD SSTORE JUMPDEST PUSH1 0x40 DUP5 ADD MLOAD DUP1 MLOAD SWAP1 PUSH1 0x1 PUSH1 0x1 PUSH1 0x40 SHL SUB DUP3 GT PUSH2 0xC34 JUMPI DUP2 SWAP1 PUSH2 0x8E5 PUSH1 0x2 DUP7 ADD SLOAD PUSH2 0x16B5 JUMP JUMPDEST PUSH1 0x1F DUP2 GT PUSH2 0x1183 JUMPI JUMPDEST POP PUSH1 0x20 SWAP1 PUSH1 0x1F DUP4 GT PUSH1 0x1 EQ PUSH2 0x1111 JUMPI PUSH1 0x0 SWAP3 PUSH2 0x1106 JUMPI JUMPDEST POP POP DUP2 PUSH1 0x1 SHL SWAP2 PUSH1 0x0 NOT SWAP1 PUSH1 0x3 SHL SHR NOT AND OR PUSH1 0x2 DUP4 ADD SSTORE JUMPDEST PUSH1 0x60 DUP5 ADD MLOAD DUP1 MLOAD SWAP1 PUSH1 0x1 PUSH1 0x1 PUSH1 0x40 SHL SUB DUP3 GT PUSH2 0xC34 JUMPI DUP2 SWAP1 PUSH2 0x942 PUSH1 0x3 DUP7 ADD SLOAD PUSH2 0x16B5 JUMP JUMPDEST PUSH1 0x1F DUP2 GT PUSH2 0x10B3 JUMPI JUMPDEST POP PUSH1 0x20 SWAP1 PUSH1 0x1F DUP4 GT PUSH1 0x1 EQ PUSH2 0x1041 JUMPI PUSH1 0x0 SWAP3 PUSH2 0x1036 JUMPI JUMPDEST POP POP DUP2 PUSH1 0x1 SHL SWAP2 PUSH1 0x0 NOT SWAP1 PUSH1 0x3 SHL SHR NOT AND OR PUSH1 0x3 DUP4 ADD SSTORE JUMPDEST PUSH1 0x80 DUP5 ADD MLOAD DUP1 MLOAD SWAP1 PUSH1 0x1 PUSH1 0x1 PUSH1 0x40 SHL SUB DUP3 GT PUSH2 0xC34 JUMPI DUP2 SWAP1 PUSH2 0x99F PUSH1 0x4 DUP7 ADD SLOAD PUSH2 0x16B5 JUMP JUMPDEST PUSH1 0x1F DUP2 GT PUSH2 0xFE3 JUMPI JUMPDEST POP PUSH1 0x20 SWAP1 PUSH1 0x1F DUP4 GT PUSH1 0x1 EQ PUSH2 0xF71 JUMPI PUSH1 0x0 SWAP3 PUSH2 0xF66 JUMPI JUMPDEST POP POP DUP2 PUSH1 0x1 SHL SWAP2 PUSH1 0x0 NOT SWAP1 PUSH1 0x3 SHL SHR NOT AND OR PUSH1 0x4 DUP4 ADD SSTORE JUMPDEST PUSH1 0xA0 DUP5 ADD MLOAD DUP1 MLOAD SWAP1 PUSH1 0x1 PUSH1 0x1 PUSH1 0x40 SHL SUB DUP3 GT PUSH2 0xC34 JUMPI DUP2 SWAP1 PUSH2 0x9FC PUSH1 0x5 DUP7 ADD SLOAD PUSH2 0x16B5 JUMP JUMPDEST PUSH1 0x1F DUP2 GT PUSH2 0xF13 JUMPI JUMPDEST POP PUSH1 0x20 SWAP1 PUSH1 0x1F DUP4 GT PUSH1 0x1 EQ PUSH2 0xEA1 JUMPI PUSH1 0x0 SWAP3 PUSH2 0xE96 JUMPI JUMPDEST POP POP DUP2 PUSH1 0x1 SHL SWAP2 PUSH1 0x0 NOT SWAP1 PUSH1 0x3 SHL SHR NOT AND OR PUSH1 0x5 DUP4 ADD SSTORE JUMPDEST PUSH1 0xC0 DUP5 ADD MLOAD DUP1 MLOAD SWAP1 PUSH1 0x1 PUSH1 0x1 PUSH1 0x40 SHL SUB DUP3 GT PUSH2 0xC34 JUMPI DUP2 SWAP1 PUSH2 0xA59 PUSH1 0x6 DUP7 ADD SLOAD PUSH2 0x16B5 JUMP JUMPDEST PUSH1 0x1F DUP2 GT PUSH2 0xE43 JUMPI JUMPDEST POP PUSH1 0x20 SWAP1 PUSH1 0x1F DUP4 GT PUSH1 0x1 EQ PUSH2 0xDD1 JUMPI PUSH1 0x0 SWAP3 PUSH2 0xDC6 JUMPI JUMPDEST POP POP DUP2 PUSH1 0x1 SHL SWAP2 PUSH1 0x0 NOT SWAP1 PUSH1 0x3 SHL SHR NOT AND OR PUSH1 0x6 DUP4 ADD SSTORE JUMPDEST DUP4 ADD MLOAD DUP1 MLOAD SWAP1 PUSH1 0x1 PUSH1 0x1 PUSH1 0x40 SHL SUB DUP3 GT PUSH2 0xC34 JUMPI PUSH2 0xAB2 PUSH1 0x7 DUP5 ADD SLOAD PUSH2 0x16B5 JUMP JUMPDEST PUSH1 0x1F DUP2 GT PUSH2 0xD7F JUMPI JUMPDEST POP PUSH1 0x20 SWAP1 PUSH1 0x1F DUP4 GT PUSH1 0x1 EQ PUSH2 0xD0C JUMPI PUSH1 0x8 SWAP4 SWAP3 SWAP2 PUSH1 0x0 SWAP2 DUP4 PUSH2 0xD01 JUMPI JUMPDEST POP POP DUP2 PUSH1 0x1 SHL SWAP2 PUSH1 0x0 NOT SWAP1 PUSH1 0x3 SHL SHR NOT AND OR PUSH1 0x7 DUP3 ADD SSTORE JUMPDEST ADD SWAP2 ADD MLOAD ISZERO ISZERO PUSH1 0xFF DUP1 NOT DUP4 SLOAD AND SWAP2 AND OR SWAP1 SSTORE PUSH1 0x40 MLOAD PUSH1 0x20 DUP2 DUP6 MLOAD PUSH2 0xB17 DUP2 DUP4 DUP6 DUP11 ADD PUSH2 0x15AA JUMP JUMPDEST DUP2 ADD PUSH1 0x1 DUP2 MSTORE SUB ADD SWAP1 KECCAK256 CALLER PUSH1 0x1 DUP1 PUSH1 0xA0 SHL SUB NOT DUP3 SLOAD AND OR SWAP1 SSTORE CALLER PUSH1 0x0 MSTORE PUSH1 0x2 PUSH1 0x20 MSTORE PUSH1 0x40 PUSH1 0x0 KECCAK256 DUP3 MLOAD PUSH1 0x1 PUSH1 0x1 PUSH1 0x40 SHL SUB DUP2 GT PUSH2 0xC34 JUMPI PUSH2 0xB58 DUP3 SLOAD PUSH2 0x16B5 JUMP JUMPDEST PUSH1 0x1F DUP2 GT PUSH2 0xCB9 JUMPI JUMPDEST POP DUP1 PUSH1 0x20 PUSH1 0x1F DUP3 GT PUSH1 0x1 EQ PUSH2 0xC55 JUMPI PUSH1 0x0 SWAP2 PUSH2 0xC4A JUMPI JUMPDEST POP DUP2 PUSH1 0x1 SHL SWAP2 PUSH1 0x0 NOT SWAP1 PUSH1 0x3 SHL SHR NOT AND OR SWAP1 SSTORE JUMPDEST PUSH2 0xB97 PUSH1 0x3 SLOAD PUSH2 0x1785 JUMP JUMPDEST PUSH1 0x3 SSTORE PUSH1 0x4 SLOAD SWAP1 PUSH1 0x1 PUSH1 0x40 SHL DUP3 LT ISZERO PUSH2 0xC34 JUMPI PUSH2 0xC2F PUSH2 0xC20 PUSH32 0x509C70F523067009F7DB7F46DB6956D7AF8B679323680DC3821A8BAD001AC1E1 SWAP5 PUSH2 0xBE5 DUP6 PUSH1 0x1 PUSH2 0xC12 SWAP8 ADD PUSH1 0x4 SSTORE PUSH2 0x1684 JUMP JUMPDEST DUP2 SLOAD SWAP1 PUSH1 0x3 SHL SWAP1 CALLER DUP3 SHL SWAP2 PUSH1 0x1 DUP1 PUSH1 0xA0 SHL SUB SWAP1 SHL NOT AND OR SWAP1 SSTORE PUSH1 0x40 MLOAD SWAP5 DUP6 SWAP5 PUSH1 0x60 DUP7 MSTORE PUSH1 0x60 DUP7 ADD SWAP1 PUSH2 0x15CD JUMP JUMPDEST SWAP1 DUP5 DUP3 SUB PUSH1 0x20 DUP7 ADD MSTORE PUSH2 0x15CD JUMP JUMPDEST DUP3 DUP2 SUB PUSH1 0x40 DUP5 ADD MSTORE CALLER SWAP6 PUSH2 0x15CD JUMP JUMPDEST SUB SWAP1 LOG2 STOP JUMPDEST PUSH4 0x4E487B71 PUSH1 0xE0 SHL PUSH1 0x0 MSTORE PUSH1 0x41 PUSH1 0x4 MSTORE PUSH1 0x24 PUSH1 0x0 REVERT JUMPDEST SWAP1 POP DUP5 ADD MLOAD CODESIZE PUSH2 0xB78 JUMP JUMPDEST PUSH1 0x0 DUP5 DUP2 MSTORE PUSH1 0x20 DUP2 KECCAK256 SWAP3 POP PUSH1 0x1F NOT DUP5 AND SWAP1 JUMPDEST DUP2 DUP2 LT PUSH2 0xCA1 JUMPI POP SWAP1 DUP4 PUSH1 0x1 SWAP5 SWAP4 SWAP3 LT PUSH2 0xC88 JUMPI JUMPDEST POP POP DUP2 SHL ADD SWAP1 SSTORE PUSH2 0xB8C JUMP JUMPDEST DUP7 ADD MLOAD PUSH1 0x0 NOT PUSH1 0xF8 DUP5 PUSH1 0x3 SHL AND SHR NOT AND SWAP1 SSTORE CODESIZE DUP1 PUSH2 0xC7C JUMP JUMPDEST SWAP2 SWAP3 PUSH1 0x20 PUSH1 0x1 DUP2 SWAP3 DUP7 DUP12 ADD MLOAD DUP2 SSTORE ADD SWAP5 ADD SWAP3 ADD PUSH2 0xC67 JUMP JUMPDEST DUP3 PUSH1 0x0 MSTORE PUSH1 0x20 PUSH1 0x0 KECCAK256 PUSH1 0x1F DUP4 ADD PUSH1 0x5 SHR DUP2 ADD SWAP2 PUSH1 0x20 DUP5 LT PUSH2 0xCF7 JUMPI JUMPDEST PUSH1 0x1F ADD PUSH1 0x5 SHR ADD SWAP1 JUMPDEST DUP2 DUP2 LT PUSH2 0xCEB JUMPI POP PUSH2 0xB61 JUMP JUMPDEST PUSH1 0x0 DUP2 SSTORE PUSH1 0x1 ADD PUSH2 0xCDE JUMP JUMPDEST SWAP1 SWAP2 POP DUP2 SWAP1 PUSH2 0xCD5 JUMP JUMPDEST ADD MLOAD SWAP1 POP CODESIZE DUP1 PUSH2 0xAD8 JUMP JUMPDEST SWAP1 PUSH1 0x7 DUP5 ADD PUSH1 0x0 MSTORE PUSH1 0x20 PUSH1 0x0 KECCAK256 SWAP2 PUSH1 0x0 JUMPDEST PUSH1 0x1F NOT DUP6 AND DUP2 LT PUSH2 0xD67 JUMPI POP SWAP2 DUP4 SWAP2 PUSH1 0x1 SWAP4 PUSH1 0x8 SWAP7 SWAP6 PUSH1 0x1F NOT DUP2 AND LT PUSH2 0xD4E JUMPI JUMPDEST POP POP POP DUP2 SHL ADD PUSH1 0x7 DUP3 ADD SSTORE PUSH2 0xAF0 JUMP JUMPDEST ADD MLOAD PUSH1 0x0 NOT PUSH1 0xF8 DUP5 PUSH1 0x3 SHL AND SHR NOT AND SWAP1 SSTORE CODESIZE DUP1 DUP1 PUSH2 0xD3E JUMP JUMPDEST SWAP2 SWAP3 PUSH1 0x20 PUSH1 0x1 DUP2 SWAP3 DUP7 DUP6 ADD MLOAD DUP2 SSTORE ADD SWAP5 ADD SWAP3 ADD PUSH2 0xD1D JUMP JUMPDEST PUSH1 0x7 DUP5 ADD PUSH1 0x0 MSTORE PUSH1 0x20 PUSH1 0x0 KECCAK256 PUSH1 0x1F DUP5 ADD PUSH1 0x5 SHR DUP2 ADD PUSH1 0x20 DUP6 LT PUSH2 0xDBF JUMPI JUMPDEST PUSH1 0x1F DUP4 ADD PUSH1 0x5 SHR DUP3 ADD DUP2 LT PUSH2 0xDB3 JUMPI POP POP PUSH2 0xABB JUMP JUMPDEST PUSH1 0x0 DUP2 SSTORE PUSH1 0x1 ADD PUSH2 0xD9D JUMP JUMPDEST POP DUP1 PUSH2 0xD9D JUMP JUMPDEST ADD MLOAD SWAP1 POP CODESIZE DUP1 PUSH2 0xA79 JUMP JUMPDEST SWAP3 POP PUSH1 0x6 DUP6 ADD PUSH1 0x0 MSTORE PUSH1 0x20 PUSH1 0x0 KECCAK256 SWAP1 PUSH1 0x0 SWAP4 JUMPDEST PUSH1 0x1F NOT DUP5 AND DUP6 LT PUSH2 0xE28 JUMPI PUSH1 0x1 SWAP5 POP DUP4 PUSH1 0x1F NOT DUP2 AND LT PUSH2 0xE0F JUMPI JUMPDEST POP POP POP DUP2 SHL ADD PUSH1 0x6 DUP4 ADD SSTORE PUSH2 0xA91 JUMP JUMPDEST ADD MLOAD PUSH1 0x0 NOT PUSH1 0xF8 DUP5 PUSH1 0x3 SHL AND SHR NOT AND SWAP1 SSTORE CODESIZE DUP1 DUP1 PUSH2 0xDFF JUMP JUMPDEST DUP2 DUP2 ADD MLOAD DUP4 SSTORE PUSH1 0x20 SWAP5 DUP6 ADD SWAP5 PUSH1 0x1 SWAP1 SWAP4 ADD SWAP3 SWAP1 SWAP2 ADD SWAP1 PUSH2 0xDE4 JUMP JUMPDEST SWAP1 SWAP2 POP PUSH1 0x6 DUP6 ADD PUSH1 0x0 MSTORE PUSH1 0x20 PUSH1 0x0 KECCAK256 PUSH1 0x1F DUP5 ADD PUSH1 0x5 SHR DUP2 ADD PUSH1 0x20 DUP6 LT PUSH2 0xE8F JUMPI JUMPDEST SWAP1 DUP5 SWAP4 SWAP3 SWAP2 JUMPDEST PUSH1 0x1F DUP4 ADD PUSH1 0x5 SHR DUP3 ADD DUP2 LT PUSH2 0xE80 JUMPI POP POP PUSH2 0xA62 JUMP JUMPDEST PUSH1 0x0 DUP2 SSTORE DUP6 SWAP5 POP PUSH1 0x1 ADD PUSH2 0xE6A JUMP JUMPDEST POP DUP1 PUSH2 0xE64 JUMP JUMPDEST ADD MLOAD SWAP1 POP CODESIZE DUP1 PUSH2 0xA1C JUMP JUMPDEST SWAP3 POP PUSH1 0x5 DUP6 ADD PUSH1 0x0 MSTORE PUSH1 0x20 PUSH1 0x0 KECCAK256 SWAP1 PUSH1 0x0 SWAP4 JUMPDEST PUSH1 0x1F NOT DUP5 AND DUP6 LT PUSH2 0xEF8 JUMPI PUSH1 0x1 SWAP5 POP DUP4 PUSH1 0x1F NOT DUP2 AND LT PUSH2 0xEDF JUMPI JUMPDEST POP POP POP DUP2 SHL ADD PUSH1 0x5 DUP4 ADD SSTORE PUSH2 0xA34 JUMP JUMPDEST ADD MLOAD PUSH1 0x0 NOT PUSH1 0xF8 DUP5 PUSH1 0x3 SHL AND SHR NOT AND SWAP1 SSTORE CODESIZE DUP1 DUP1 PUSH2 0xECF JUMP JUMPDEST DUP2 DUP2 ADD MLOAD DUP4 SSTORE PUSH1 0x20 SWAP5 DUP6 ADD SWAP5 PUSH1 0x1 SWAP1 SWAP4 ADD SWAP3 SWAP1 SWAP2 ADD SWAP1 PUSH2 0xEB4 JUMP JUMPDEST SWAP1 SWAP2 POP PUSH1 0x5 DUP6 ADD PUSH1 0x0 MSTORE PUSH1 0x20 PUSH1 0x0 KECCAK256 PUSH1 0x1F DUP5 ADD PUSH1 0x5 SHR DUP2 ADD PUSH1 0x20 DUP6 LT PUSH2 0xF5F JUMPI JUMPDEST SWAP1 DUP5 SWAP4 SWAP3 SWAP2 JUMPDEST PUSH1 0x1F DUP4 ADD PUSH1 0x5 SHR DUP3 ADD DUP2 LT PUSH2 0xF50 JUMPI POP POP PUSH2 0xA05 JUMP JUMPDEST PUSH1 0x0 DUP2 SSTORE DUP6 SWAP5 POP PUSH1 0x1 ADD PUSH2 0xF3A JUMP JUMPDEST POP DUP1 PUSH2 0xF34 JUMP JUMPDEST ADD MLOAD SWAP1 POP CODESIZE DUP1 PUSH2 0x9BF JUMP JUMPDEST SWAP3 POP PUSH1 0x4 DUP6 ADD PUSH1 0x0 MSTORE PUSH1 0x20 PUSH1 0x0 KECCAK256 SWAP1 PUSH1 0x0 SWAP4 JUMPDEST PUSH1 0x1F NOT DUP5 AND DUP6 LT PUSH2 0xFC8 JUMPI PUSH1 0x1 SWAP5 POP DUP4 PUSH1 0x1F NOT DUP2 AND LT PUSH2 0xFAF JUMPI JUMPDEST POP POP POP DUP2 SHL ADD PUSH1 0x4 DUP4 ADD SSTORE PUSH2 0x9D7 JUMP JUMPDEST ADD MLOAD PUSH1 0x0 NOT PUSH1 0xF8 DUP5 PUSH1 0x3 SHL AND SHR NOT AND SWAP1 SSTORE CODESIZE DUP1 DUP1 PUSH2 0xF9F JUMP JUMPDEST DUP2 DUP2 ADD MLOAD DUP4 SSTORE PUSH1 0x20 SWAP5 DUP6 ADD SWAP5 PUSH1 0x1 SWAP1 SWAP4 ADD SWAP3 SWAP1 SWAP2 ADD SWAP1 PUSH2 0xF84 JUMP JUMPDEST SWAP1 SWAP2 POP PUSH1 0x4 DUP6 ADD PUSH1 0x0 MSTORE PUSH1 0x20 PUSH1 0x0 KECCAK256 PUSH1 0x1F DUP5 ADD PUSH1 0x5 SHR DUP2 ADD PUSH1 0x20 DUP6 LT PUSH2 0x102F JUMPI JUMPDEST SWAP1 DUP5 SWAP4 SWAP3 SWAP2 JUMPDEST PUSH1 0x1F DUP4 ADD PUSH1 0x5 SHR DUP3 ADD DUP2 LT PUSH2 0x1020 JUMPI POP POP PUSH2 0x9A8 JUMP JUMPDEST PUSH1 0x0 DUP2 SSTORE DUP6 SWAP5 POP PUSH1 0x1 ADD PUSH2 0x100A JUMP JUMPDEST POP DUP1 PUSH2 0x1004 JUMP JUMPDEST ADD MLOAD SWAP1 POP CODESIZE DUP1 PUSH2 0x962 JUMP JUMPDEST SWAP3 POP PUSH1 0x3 DUP6 ADD PUSH1 0x0 MSTORE PUSH1 0x20 PUSH1 0x0 KECCAK256 SWAP1 PUSH1 0x0 SWAP4 JUMPDEST PUSH1 0x1F NOT DUP5 AND DUP6 LT PUSH2 0x1098 JUMPI PUSH1 0x1 SWAP5 POP DUP4 PUSH1 0x1F NOT DUP2 AND LT PUSH2 0x107F JUMPI JUMPDEST POP POP POP DUP2 SHL ADD PUSH1 0x3 DUP4 ADD SSTORE PUSH2 0x97A JUMP JUMPDEST ADD MLOAD PUSH1 0x0 NOT PUSH1 0xF8 DUP5 PUSH1 0x3 SHL AND SHR NOT AND SWAP1 SSTORE CODESIZE DUP1 DUP1 PUSH2 0x106F JUMP JUMPDEST DUP2 DUP2 ADD MLOAD DUP4 SSTORE PUSH1 0x20 SWAP5 DUP6 ADD SWAP5 PUSH1 0x1 SWAP1 SWAP4 ADD SWAP3 SWAP1 SWAP2 ADD SWAP1 PUSH2 0x1054 JUMP JUMPDEST SWAP1 SWAP2 POP PUSH1 0x3 DUP6 ADD PUSH1 0x0 MSTORE PUSH1 0x20 PUSH1 0x0 KECCAK256 PUSH1 0x1F DUP5 ADD PUSH1 0x5 SHR DUP2 ADD PUSH1 0x20 DUP6 LT PUSH2 0x10FF JUMPI JUMPDEST SWAP1 DUP5 SWAP4 SWAP3 SWAP2 JUMPDEST PUSH1 0x1F DUP4 ADD PUSH1 0x5 SHR DUP3 ADD DUP2 LT PUSH2 0x10F0 JUMPI POP POP PUSH2 0x94B JUMP JUMPDEST PUSH1 0x0 DUP2 SSTORE DUP6 SWAP5 POP PUSH1 0x1 ADD PUSH2 0x10DA JUMP JUMPDEST POP DUP1 PUSH2 0x10D4 JUMP JUMPDEST ADD MLOAD SWAP1 POP CODESIZE DUP1 PUSH2 0x905 JUMP JUMPDEST SWAP3 POP PUSH1 0x2 DUP6 ADD PUSH1 0x0 MSTORE PUSH1 0x20 PUSH1 0x0 KECCAK256 SWAP1 PUSH1 0x0 SWAP4 JUMPDEST PUSH1 0x1F NOT DUP5 AND DUP6 LT PUSH2 0x1168 JUMPI PUSH1 0x1 SWAP5 POP DUP4 PUSH1 0x1F NOT DUP2 AND LT PUSH2 0x114F JUMPI JUMPDEST POP POP POP DUP2 SHL ADD PUSH1 0x2 DUP4 ADD SSTORE PUSH2 0x91D JUMP JUMPDEST ADD MLOAD PUSH1 0x0 NOT PUSH1 0xF8 DUP5 PUSH1 0x3 SHL AND SHR NOT AND SWAP1 SSTORE CODESIZE DUP1 DUP1 PUSH2 0x113F JUMP JUMPDEST DUP2 DUP2 ADD MLOAD DUP4 SSTORE PUSH1 0x20 SWAP5 DUP6 ADD SWAP5 PUSH1 0x1 SWAP1 SWAP4 ADD SWAP3 SWAP1 SWAP2 ADD SWAP1 PUSH2 0x1124 JUMP JUMPDEST SWAP1 SWAP2 POP PUSH1 0x2 DUP6 ADD PUSH1 0x0 MSTORE PUSH1 0x20 PUSH1 0x0 KECCAK256 PUSH1 0x1F DUP5 ADD PUSH1 0x5 SHR DUP2 ADD PUSH1 0x20 DUP6 LT PUSH2 0x11CF JUMPI JUMPDEST SWAP1 DUP5 SWAP4 SWAP3 SWAP2 JUMPDEST PUSH1 0x1F DUP4 ADD PUSH1 0x5 SHR DUP3 ADD DUP2 LT PUSH2 0x11C0 JUMPI POP POP PUSH2 0x8EE JUMP JUMPDEST PUSH1 0x0 DUP2 SSTORE DUP6 SWAP5 POP PUSH1 0x1 ADD PUSH2 0x11AA JUMP JUMPDEST POP DUP1 PUSH2 0x11A4 JUMP JUMPDEST ADD MLOAD SWAP1 POP CODESIZE DUP1 PUSH2 0x8A8 JUMP JUMPDEST SWAP3 POP PUSH1 0x1 DUP6 ADD PUSH1 0x0 MSTORE PUSH1 0x20 PUSH1 0x0 KECCAK256 SWAP1 PUSH1 0x0 SWAP4 JUMPDEST PUSH1 0x1F NOT DUP5 AND DUP6 LT PUSH2 0x1238 JUMPI PUSH1 0x1 SWAP5 POP DUP4 PUSH1 0x1F NOT DUP2 AND LT PUSH2 0x121F JUMPI JUMPDEST POP POP POP DUP2 SHL ADD PUSH1 0x1 DUP4 ADD SSTORE PUSH2 0x8C0 JUMP JUMPDEST ADD MLOAD PUSH1 0x0 NOT PUSH1 0xF8 DUP5 PUSH1 0x3 SHL AND SHR NOT AND SWAP1 SSTORE CODESIZE DUP1 DUP1 PUSH2 0x120F JUMP JUMPDEST DUP2 DUP2 ADD MLOAD DUP4 SSTORE PUSH1 0x20 SWAP5 DUP6 ADD SWAP5 PUSH1 0x1 SWAP1 SWAP4 ADD SWAP3 SWAP1 SWAP2 ADD SWAP1 PUSH2 0x11F4 JUMP JUMPDEST SWAP1 SWAP2 POP PUSH1 0x1 DUP6 ADD PUSH1 0x0 MSTORE PUSH1 0x20 PUSH1 0x0 KECCAK256 PUSH1 0x1F DUP5 ADD PUSH1 0x5 SHR DUP2 ADD PUSH1 0x20 DUP6 LT PUSH2 0x129F JUMPI JUMPDEST SWAP1 DUP5 SWAP4 SWAP3 SWAP2 JUMPDEST PUSH1 0x1F DUP4 ADD PUSH1 0x5 SHR DUP3 ADD DUP2 LT PUSH2 0x1290 JUMPI POP POP PUSH2 0x891 JUMP JUMPDEST PUSH1 0x0 DUP2 SSTORE DUP6 SWAP5 POP PUSH1 0x1 ADD PUSH2 0x127A JUMP JUMPDEST POP DUP1 PUSH2 0x1274 JUMP JUMPDEST ADD MLOAD SWAP1 POP CODESIZE DUP1 PUSH2 0x84E JUMP JUMPDEST SWAP3 POP DUP5 PUSH1 0x0 MSTORE PUSH1 0x20 PUSH1 0x0 KECCAK256 SWAP1 PUSH1 0x0 SWAP4 JUMPDEST PUSH1 0x1F NOT DUP5 AND DUP6 LT PUSH2 0x1302 JUMPI PUSH1 0x1 SWAP5 POP DUP4 PUSH1 0x1F NOT DUP2 AND LT PUSH2 0x12E9 JUMPI JUMPDEST POP POP POP DUP2 SHL ADD DUP3 SSTORE PUSH2 0x863 JUMP JUMPDEST ADD MLOAD PUSH1 0x0 NOT PUSH1 0xF8 DUP5 PUSH1 0x3 SHL AND SHR NOT AND SWAP1 SSTORE CODESIZE DUP1 DUP1 PUSH2 0x12DC JUMP JUMPDEST DUP2 DUP2 ADD MLOAD DUP4 SSTORE PUSH1 0x20 SWAP5 DUP6 ADD SWAP5 PUSH1 0x1 SWAP1 SWAP4 ADD SWAP3 SWAP1 SWAP2 ADD SWAP1 PUSH2 0x12C1 JUMP JUMPDEST SWAP1 SWAP2 POP DUP5 PUSH1 0x0 MSTORE PUSH1 0x20 PUSH1 0x0 KECCAK256 PUSH1 0x1F DUP5 ADD PUSH1 0x5 SHR DUP2 ADD PUSH1 0x20 DUP6 LT PUSH2 0x1366 JUMPI JUMPDEST SWAP1 DUP5 SWAP4 SWAP3 SWAP2 JUMPDEST PUSH1 0x1F DUP4 ADD PUSH1 0x5 SHR DUP3 ADD DUP2 LT PUSH2 0x1357 JUMPI POP POP PUSH2 0x837 JUMP JUMPDEST PUSH1 0x0 DUP2 SSTORE DUP6 SWAP5 POP PUSH1 0x1 ADD PUSH2 0x1341 JUMP JUMPDEST POP DUP1 PUSH2 0x133B JUMP JUMPDEST PUSH1 0x40 MLOAD PUSH3 0x461BCD PUSH1 0xE5 SHL DUP2 MSTORE PUSH1 0x20 PUSH1 0x4 DUP3 ADD MSTORE PUSH1 0x2E PUSH1 0x24 DUP3 ADD MSTORE PUSH32 0x557365722077697468207468697320457468657265756D204164647265737320 PUSH1 0x44 DUP3 ADD MSTORE PUSH14 0x616C726561647920657869737473 PUSH1 0x90 SHL PUSH1 0x64 DUP3 ADD MSTORE PUSH1 0x84 SWAP1 REVERT JUMPDEST CALLVALUE PUSH2 0x364 JUMPI PUSH1 0x40 CALLDATASIZE PUSH1 0x3 NOT ADD SLT PUSH2 0x364 JUMPI PUSH1 0x1 PUSH1 0x1 PUSH1 0x40 SHL SUB PUSH1 0x4 CALLDATALOAD DUP2 DUP2 GT PUSH2 0x364 JUMPI PUSH2 0x13FA SWAP1 CALLDATASIZE SWAP1 PUSH1 0x4 ADD PUSH2 0x1554 JUMP JUMPDEST SWAP1 PUSH1 0x24 CALLDATALOAD SWAP1 DUP2 GT PUSH2 0x364 JUMPI PUSH2 0x1413 SWAP1 CALLDATASIZE SWAP1 PUSH1 0x4 ADD PUSH2 0x1554 JUMP JUMPDEST CALLER PUSH1 0x0 MSTORE PUSH1 0x20 SWAP2 PUSH1 0x0 DUP4 MSTORE PUSH2 0x22E PUSH2 0x1438 PUSH1 0x4 PUSH1 0x40 PUSH1 0x0 KECCAK256 ADD PUSH1 0x40 MLOAD SWAP3 DUP4 DUP1 SWAP3 PUSH2 0x16EF JUMP JUMPDEST DUP4 DUP2 MLOAD SWAP2 ADD KECCAK256 SWAP1 DUP4 DUP2 MLOAD SWAP2 ADD KECCAK256 SUB PUSH2 0x14DB JUMPI CALLER PUSH1 0x0 MSTORE PUSH1 0x0 DUP3 MSTORE PUSH2 0x22E PUSH2 0x146C PUSH1 0x5 PUSH1 0x40 PUSH1 0x0 KECCAK256 ADD PUSH1 0x40 MLOAD SWAP3 DUP4 DUP1 SWAP3 PUSH2 0x16EF JUMP JUMPDEST DUP3 DUP2 MLOAD SWAP2 ADD KECCAK256 SWAP1 DUP3 DUP2 MLOAD SWAP2 ADD KECCAK256 SUB PUSH2 0x149D JUMPI PUSH1 0x0 SWAP1 CALLER DUP3 MSTORE MSTORE PUSH1 0x8 PUSH1 0x40 PUSH1 0x0 KECCAK256 ADD PUSH1 0x1 PUSH1 0xFF NOT DUP3 SLOAD AND OR SWAP1 SSTORE PUSH1 0x0 DUP1 RETURN JUMPDEST PUSH1 0x64 SWAP1 PUSH1 0x40 MLOAD SWAP1 PUSH3 0x461BCD PUSH1 0xE5 SHL DUP3 MSTORE PUSH1 0x4 DUP3 ADD MSTORE PUSH1 0x17 PUSH1 0x24 DUP3 ADD MSTORE PUSH23 0xA0C2E6E6EEDEE4C840C8DECAE640DCDEE840DAC2E8C6D PUSH1 0x4B SHL PUSH1 0x44 DUP3 ADD MSTORE REVERT JUMPDEST PUSH1 0x40 MLOAD PUSH3 0x461BCD PUSH1 0xE5 SHL DUP2 MSTORE PUSH1 0x4 DUP2 ADD DUP4 SWAP1 MSTORE PUSH1 0x14 PUSH1 0x24 DUP3 ADD MSTORE PUSH20 0x8ADAC2D2D840C8DECAE640DCDEE840DAC2E8C6D PUSH1 0x63 SHL PUSH1 0x44 DUP3 ADD MSTORE PUSH1 0x64 SWAP1 REVERT JUMPDEST PUSH2 0x120 DUP2 ADD SWAP1 DUP2 LT PUSH1 0x1 PUSH1 0x1 PUSH1 0x40 SHL SUB DUP3 GT OR PUSH2 0xC34 JUMPI PUSH1 0x40 MSTORE JUMP JUMPDEST SWAP1 PUSH1 0x1F DUP1 NOT SWAP2 ADD AND DUP2 ADD SWAP1 DUP2 LT PUSH1 0x1 PUSH1 0x1 PUSH1 0x40 SHL SUB DUP3 GT OR PUSH2 0xC34 JUMPI PUSH1 0x40 MSTORE JUMP JUMPDEST DUP2 PUSH1 0x1F DUP3 ADD SLT ISZERO PUSH2 0x364 JUMPI DUP1 CALLDATALOAD SWAP1 PUSH1 0x1 PUSH1 0x1 PUSH1 0x40 SHL SUB DUP3 GT PUSH2 0xC34 JUMPI PUSH1 0x40 MLOAD SWAP3 PUSH2 0x1588 PUSH1 0x1F DUP5 ADD PUSH1 0x1F NOT AND PUSH1 0x20 ADD DUP6 PUSH2 0x1533 JUMP JUMPDEST DUP3 DUP5 MSTORE PUSH1 0x20 DUP4 DUP4 ADD ADD GT PUSH2 0x364 JUMPI DUP2 PUSH1 0x0 SWAP3 PUSH1 0x20 DUP1 SWAP4 ADD DUP4 DUP7 ADD CALLDATACOPY DUP4 ADD ADD MSTORE SWAP1 JUMP JUMPDEST PUSH1 0x0 JUMPDEST DUP4 DUP2 LT PUSH2 0x15BD JUMPI POP POP PUSH1 0x0 SWAP2 ADD MSTORE JUMP JUMPDEST DUP2 DUP2 ADD MLOAD DUP4 DUP3 ADD MSTORE PUSH1 0x20 ADD PUSH2 0x15AD JUMP JUMPDEST SWAP1 PUSH1 0x20 SWAP2 PUSH2 0x15E6 DUP2 MLOAD DUP1 SWAP3 DUP2 DUP6 MSTORE DUP6 DUP1 DUP7 ADD SWAP2 ADD PUSH2 0x15AA JUMP JUMPDEST PUSH1 0x1F ADD PUSH1 0x1F NOT AND ADD ADD SWAP1 JUMP JUMPDEST SWAP8 SWAP5 PUSH2 0x1652 SWAP1 PUSH2 0x1644 PUSH2 0x166E SWAP7 PUSH2 0x1636 DUP13 SWAP14 SWAP15 SWAP14 PUSH2 0x100 SWAP13 SWAP9 PUSH2 0x1628 PUSH2 0x1660 SWAP10 PUSH2 0xC12 PUSH2 0x167C SWAP16 SWAP11 PUSH2 0x120 DUP1 DUP8 MSTORE DUP7 ADD SWAP1 PUSH2 0x15CD JUMP JUMPDEST SWAP2 PUSH1 0x40 DUP2 DUP5 SUB SWAP2 ADD MSTORE PUSH2 0x15CD JUMP JUMPDEST DUP13 DUP2 SUB PUSH1 0x60 DUP15 ADD MSTORE SWAP1 PUSH2 0x15CD JUMP JUMPDEST SWAP1 DUP11 DUP3 SUB PUSH1 0x80 DUP13 ADD MSTORE PUSH2 0x15CD JUMP JUMPDEST SWAP1 DUP9 DUP3 SUB PUSH1 0xA0 DUP11 ADD MSTORE PUSH2 0x15CD JUMP JUMPDEST SWAP1 DUP7 DUP3 SUB PUSH1 0xC0 DUP9 ADD MSTORE PUSH2 0x15CD JUMP JUMPDEST SWAP1 DUP5 DUP3 SUB PUSH1 0xE0 DUP7 ADD MSTORE PUSH2 0x15CD JUMP JUMPDEST SWAP4 ISZERO ISZERO SWAP2 ADD MSTORE JUMP JUMPDEST PUSH1 0x4 SLOAD DUP2 LT ISZERO PUSH2 0x169F JUMPI PUSH1 0x4 PUSH1 0x0 MSTORE PUSH1 0x20 PUSH1 0x0 KECCAK256 ADD SWAP1 PUSH1 0x0 SWAP1 JUMP JUMPDEST PUSH4 0x4E487B71 PUSH1 0xE0 SHL PUSH1 0x0 MSTORE PUSH1 0x32 PUSH1 0x4 MSTORE PUSH1 0x24 PUSH1 0x0 REVERT JUMPDEST SWAP1 PUSH1 0x1 DUP3 DUP2 SHR SWAP3 AND DUP1 ISZERO PUSH2 0x16E5 JUMPI JUMPDEST PUSH1 0x20 DUP4 LT EQ PUSH2 0x16CF JUMPI JUMP JUMPDEST PUSH4 0x4E487B71 PUSH1 0xE0 SHL PUSH1 0x0 MSTORE PUSH1 0x22 PUSH1 0x4 MSTORE PUSH1 0x24 PUSH1 0x0 REVERT JUMPDEST SWAP2 PUSH1 0x7F AND SWAP2 PUSH2 0x16C4 JUMP JUMPDEST SWAP1 PUSH1 0x0 SWAP3 SWAP2 DUP1 SLOAD SWAP2 PUSH2 0x1700 DUP4 PUSH2 0x16B5 JUMP JUMPDEST SWAP2 DUP3 DUP3 MSTORE PUSH1 0x1 SWAP4 DUP5 DUP2 AND SWAP1 DUP2 PUSH1 0x0 EQ PUSH2 0x1762 JUMPI POP PUSH1 0x1 EQ PUSH2 0x1722 JUMPI JUMPDEST POP POP POP POP JUMP JUMPDEST SWAP1 SWAP2 SWAP4 SWAP5 POP PUSH1 0x0 MSTORE PUSH1 0x20 SWAP3 DUP4 PUSH1 0x0 KECCAK256 SWAP3 DUP5 PUSH1 0x0 SWAP5 JUMPDEST DUP4 DUP7 LT PUSH2 0x174E JUMPI POP POP POP POP ADD ADD SWAP1 CODESIZE DUP1 DUP1 DUP1 PUSH2 0x171C JUMP JUMPDEST DUP1 SLOAD DUP6 DUP8 ADD DUP4 ADD MSTORE SWAP5 ADD SWAP4 DUP6 SWAP1 DUP3 ADD PUSH2 0x1737 JUMP JUMPDEST SWAP3 SWAP5 POP POP POP PUSH1 0x20 SWAP4 SWAP5 POP PUSH1 0xFF NOT AND DUP4 DUP4 ADD MSTORE ISZERO ISZERO PUSH1 0x5 SHL ADD ADD SWAP1 CODESIZE DUP1 DUP1 DUP1 PUSH2 0x171C JUMP JUMPDEST PUSH1 0x0 NOT DUP2 EQ PUSH2 0x1794 JUMPI PUSH1 0x1 ADD SWAP1 JUMP JUMPDEST PUSH4 0x4E487B71 PUSH1 0xE0 SHL PUSH1 0x0 MSTORE PUSH1 0x11 PUSH1 0x4 MSTORE PUSH1 0x24 PUSH1 0x0 REVERT JUMPDEST PUSH1 0x1 PUSH1 0x1 PUSH1 0x40 SHL SUB DUP2 GT PUSH2 0xC34 JUMPI PUSH1 0x5 SHL PUSH1 0x20 ADD SWAP1 JUMP JUMPDEST DUP1 MLOAD DUP3 LT ISZERO PUSH2 0x169F JUMPI PUSH1 0x20 SWAP2 PUSH1 0x5 SHL ADD ADD SWAP1 JUMP INVALID LOG2 PUSH5 0x6970667358 0x22 SLT KECCAK256 SELFBALANCE 0x29 SGT 0xD5 0xE EXTCODEHASH KECCAK256 SELFDESTRUCT DUP2 DIV CALLDATALOAD 0xAF 0xCA PUSH25 0x30F70258542DC820C2566E938FA6A5FCE6FC64736F6C634300 ADDMOD SGT STOP CALLER "},"methodIdentifiers":{"getAllUsers()":"e2842d79","getNameForAddress(address)":"d8c27b9b","getUser(address)":"6f77926b","loginUser(string,string)":"22ce12e5","logoutUser()":"d8f145d2","registerUser(string,string,string,string,string,string,string,string)":"67601dd1","registeredUsers(uint256)":"7259e0f8","totalUsers()":"bff1f9e1","users(address)":"a87430ba"}}}}}