{"contracts/LandRegistration.sol":{"LandRegistration":{"abi":[{"anonymous":false,"inputs":[{"indexed":true,"internalType":"uint256","name":"landId","type":"uint256"},{"indexed":true,"internalType":"address","name":"owner","type":"address"}],"name":"LandRegistered","type":"event"},{"anonymous":false,"inputs":[{"indexed":true,"internalType":"uint256","name":"landId","type":"uint256"},{"indexed":true,"internalType":"address","name":"from","type":"address"},{"indexed":true,"internalType":"address","name":"to","type":"address"}],"name":"LandTransferred","type":"event"},{"anonymous":false,"inputs":[{"indexed":true,"internalType":"uint256","name":"landId","type":"uint256"},{"indexed":false,"internalType":"string","name":"requestType","type":"string"},{"indexed":true,"internalType":"address","name":"requester","type":"address"}],"name":"RequestAdded","type":"event"},{"anonymous":false,"inputs":[{"indexed":true,"internalType":"uint256","name":"landId","type":"uint256"},{"indexed":false,"internalType":"string","name":"requestType","type":"string"},{"indexed":true,"internalType":"address","name":"verifier","type":"address"}],"name":"RequestVerified","type":"event"},{"inputs":[],"name":"getAllLandDetails","outputs":[{"components":[{"internalType":"uint256","name":"Land_id","type":"uint256"},{"internalType":"string","name":"fullName","type":"string"},{"internalType":"string","name":"fatherName","type":"string"},{"internalType":"string","name":"cnic","type":"string"},{"internalType":"string","name":"email","type":"string"},{"internalType":"string","name":"permanentAddress","type":"string"},{"internalType":"string","name":"temporaryAddress","type":"string"},{"internalType":"string","name":"size","type":"string"},{"internalType":"string","name":"location","type":"string"},{"internalType":"address","name":"owner","type":"address"},{"internalType":"bool","name":"isRegister","type":"bool"}],"internalType":"struct LandRegistration.LandDetails[]","name":"","type":"tuple[]"}],"stateMutability":"view","type":"function"},{"inputs":[{"internalType":"uint256","name":"_landId","type":"uint256"}],"name":"getLandDetails","outputs":[{"internalType":"string","name":"fullName","type":"string"},{"internalType":"string","name":"email","type":"string"},{"internalType":"string","name":"fatherName","type":"string"},{"internalType":"string","name":"cnic","type":"string"},{"internalType":"string","name":"permanentAddress","type":"string"},{"internalType":"string","name":"temporaryAddress","type":"string"},{"internalType":"string","name":"_size","type":"string"},{"internalType":"string","name":"_location","type":"string"},{"internalType":"address","name":"owner","type":"address"}],"stateMutability":"view","type":"function"},{"inputs":[{"internalType":"address","name":"_owner","type":"address"}],"name":"getOwnedLandDetails","outputs":[{"components":[{"internalType":"uint256","name":"Land_id","type":"uint256"},{"internalType":"string","name":"fullName","type":"string"},{"internalType":"string","name":"fatherName","type":"string"},{"internalType":"string","name":"cnic","type":"string"},{"internalType":"string","name":"email","type":"string"},{"internalType":"string","name":"permanentAddress","type":"string"},{"internalType":"string","name":"temporaryAddress","type":"string"},{"internalType":"string","name":"size","type":"string"},{"internalType":"string","name":"location","type":"string"},{"internalType":"address","name":"owner","type":"address"},{"internalType":"bool","name":"isRegister","type":"bool"}],"internalType":"struct LandRegistration.LandDetails[]","name":"","type":"tuple[]"}],"stateMutability":"view","type":"function"},{"inputs":[{"internalType":"uint256","name":"_landId","type":"uint256"}],"name":"getOwnershipHistory","outputs":[{"internalType":"address[]","name":"","type":"address[]"}],"stateMutability":"view","type":"function"},{"inputs":[],"name":"getPendingRequests","outputs":[{"components":[{"internalType":"uint256","name":"Land_id","type":"uint256"},{"internalType":"string","name":"fullName","type":"string"},{"internalType":"string","name":"fatherName","type":"string"},{"internalType":"string","name":"cnic","type":"string"},{"internalType":"string","name":"email","type":"string"},{"internalType":"string","name":"permanentAddress","type":"string"},{"internalType":"string","name":"temporaryAddress","type":"string"},{"internalType":"string","name":"size","type":"string"},{"internalType":"string","name":"location","type":"string"},{"internalType":"address","name":"owner","type":"address"},{"internalType":"string","name":"requestType","type":"string"}],"internalType":"struct LandRegistration.PendingRequest[]","name":"","type":"tuple[]"}],"stateMutability":"view","type":"function"},{"inputs":[],"name":"landCounter","outputs":[{"internalType":"uint256","name":"","type":"uint256"}],"stateMutability":"view","type":"function"},{"inputs":[{"internalType":"uint256","name":"","type":"uint256"}],"name":"landRegistry","outputs":[{"internalType":"uint256","name":"Land_id","type":"uint256"},{"internalType":"string","name":"fullName","type":"string"},{"internalType":"string","name":"fatherName","type":"string"},{"internalType":"string","name":"cnic","type":"string"},{"internalType":"string","name":"email","type":"string"},{"internalType":"string","name":"permanentAddress","type":"string"},{"internalType":"string","name":"temporaryAddress","type":"string"},{"internalType":"string","name":"size","type":"string"},{"internalType":"string","name":"location","type":"string"},{"internalType":"address","name":"owner","type":"address"},{"internalType":"bool","name":"isRegister","type":"bool"}],"stateMutability":"view","type":"function"},{"inputs":[{"internalType":"uint256","name":"","type":"uint256"}],"name":"ownershipHistory","outputs":[{"internalType":"uint256","name":"Land_id","type":"uint256"}],"stateMutability":"view","type":"function"},{"inputs":[{"internalType":"uint256","name":"","type":"uint256"}],"name":"pendingRequests","outputs":[{"internalType":"uint256","name":"Land_id","type":"uint256"},{"internalType":"string","name":"fullName","type":"string"},{"internalType":"string","name":"fatherName","type":"string"},{"internalType":"string","name":"cnic","type":"string"},{"internalType":"string","name":"email","type":"string"},{"internalType":"string","name":"permanentAddress","type":"string"},{"internalType":"string","name":"temporaryAddress","type":"string"},{"internalType":"string","name":"size","type":"string"},{"internalType":"string","name":"location","type":"string"},{"internalType":"address","name":"owner","type":"address"},{"internalType":"string","name":"requestType","type":"string"}],"stateMutability":"view","type":"function"},{"inputs":[{"internalType":"string","name":"_fullName","type":"string"},{"internalType":"uint256","name":"_Land_id","type":"uint256"},{"internalType":"string","name":"_size","type":"string"},{"internalType":"string","name":"_location","type":"string"},{"internalType":"string","name":"_fatherName","type":"string"},{"internalType":"string","name":"_email","type":"string"},{"internalType":"string","name":"_cnic","type":"string"},{"internalType":"string","name":"_permanentAddress","type":"string"},{"internalType":"string","name":"_temporaryAddress","type":"string"}],"name":"registerLand","outputs":[],"stateMutability":"nonpayable","type":"function"},{"inputs":[{"internalType":"uint256","name":"","type":"uint256"}],"name":"registeredLandIds","outputs":[{"internalType":"uint256","name":"","type":"uint256"}],"stateMutability":"view","type":"function"},{"inputs":[{"internalType":"uint256","name":"_landId","type":"uint256"},{"internalType":"address","name":"_recipient","type":"address"},{"internalType":"string","name":"_recipientName","type":"string"},{"internalType":"string","name":"_recipientCnic","type":"string"},{"internalType":"string","name":"_recipientfatherName","type":"string"},{"internalType":"string","name":"_currentAddress","type":"string"},{"internalType":"string","name":"_permanentAddress","type":"string"},{"internalType":"string","name":"_email","type":"string"}],"name":"transferLand","outputs":[],"stateMutability":"nonpayable","type":"function"},{"inputs":[{"internalType":"uint256","name":"_landId","type":"uint256"},{"internalType":"string","name":"_fullName","type":"string"},{"internalType":"string","name":"_fatherName","type":"string"},{"internalType":"string","name":"_cnic","type":"string"},{"internalType":"string","name":"_permanentAddress","type":"string"},{"internalType":"string","name":"_size","type":"string"},{"internalType":"string","name":"_location","type":"string"},{"internalType":"string","name":"_temporaryAddress","type":"string"}],"name":"updateLandDetails","outputs":[],"stateMutability":"nonpayable","type":"function"},{"inputs":[{"internalType":"uint256","name":"_index","type":"uint256"}],"name":"verifyRequest","outputs":[],"stateMutability":"nonpayable","type":"function"}],"evm":{"bytecode":{"linkReferences":{},"object":"6080806040523461001657613598908161001c8239f35b600080fdfe6080604052600436101561001257600080fd5b60003560e01c806309c05b0e1461244a57806319159f201461241e5780633c652a9a146122c45780634abac37b146121695780637ae6da9b1461108d5780637ce411f9146109b857806380a1f712146107f95780639e29ce18146107db578063a3695b1814610695578063a6ac704e1461053a578063da5f55e914610502578063f1dbaccb1461044e578063f47d31dc146102555763fe0cb7dc146100b657600080fd5b346102505760203660031901126102505760043560005260006020526040600020604051906100e4826125cf565b805482526100f4600182016126d6565b6020830190815290610108600282016126d6565b604084019081529261011c600383016126d6565b6060820190815261012f600484016126d6565b6080830190815294610143600585016126d6565b60a08401908152610156600686016126d6565b60c08501908152610169600787016126d6565b60e086019081529161017d600888016126d6565b946101009786898901526009015498600160a01b600190038a16976101209a898c83015260a01c60ff16151590610140015251995194519051915192519351946040519a8a8c9b8c528b016101d19161277c565b8a810360208c01526101e29161277c565b89810360408b01526101f39161277c565b88810360608a01526102049161277c565b87810360808901526102159161277c565b86810360a08801526102269161277c565b85810360c08701526102379161277c565b84810360e08601526102489161277c565b918301520390f35b600080fd5b3461025057602080600319360112610250576004356001600160a01b038181169291839003610250576003805492906000805b8581106103e85750610299906134b4565b9460009260005b8681106102b957604051806102b58a826127bc565b0390f35b6102c2816128f0565b905490851b1c60005260008252604060002086600982015460a09260ff82851c16938480956103dd575b610304575b50505050506102ff90613384565b6102a0565b9288926103a260086103d297946102ff999d97610354604051986103278a6125cf565b83548a528d610338600186016126d6565b908b0152610348600285016126d6565b60408b015283016126d6565b6060890152610365600483016126d6565b6080890152610376600583016126d6565b90880152610386600682016126d6565b60c0880152610397600782016126d6565b60e0880152016126d6565b6101008501521661012083015215156101408201526103c1828c61354e565b526103cc818b61354e565b50613384565b9490868a80806102f1565b5087848416146102ec565b6103f1816128f0565b905490841b1c60005260008452600960406000200154878660ff8360a01c169283610442575b50505061042d575b61042890613384565b610288565b9061043a61042891613384565b91905061041f565b1614905087868a610417565b346102505760208060031936011261025057600435600052600190818152816040600020019160405191828185549182815201908195600052826000209060005b8181106104e657505050836104a5910384612606565b60405192818401908285525180915260408401949160005b8281106104ca5785870386f35b83516001600160a01b03168752958101959281019284016104bd565b82546001600160a01b031684529284019291850191850161048f565b34610250576020366003190112610250576004356003548110156102505761052b6020916128f0565b90549060031b1c604051908152f35b3461025057600036600319011261025057600261055781546134b4565b600380549192600090815b84811061057757604051806102b588826127bc565b610580816128f0565b905490851b1c6000526020600081526040600020600981015460a09160ff82841c1692836105bc575b50505050506105b790613384565b610562565b9161065860086105b79799959361068a9795604051966105db886125cf565b825488526105eb600184016126d6565b908801526105fa8b83016126d6565b604088015261060a8d83016126d6565b606088015261061b600483016126d6565b608088015261062c600583016126d6565b9087015261063c600682016126d6565b60c087015261064d600782016126d6565b60e0870152016126d6565b6101008401526001600160a01b0316610120830152151561014082015261067f828a61354e565b526103cc818961354e565b9290878080806105a9565b3461025057602036600319011261025057600435600052600060205260406000208054600182016106c5906126d6565b916106d2600282016126d6565b906106df600382016126d6565b6106eb600483016126d6565b6106f7600584016126d6565b610703600685016126d6565b91610710600786016126d6565b9361071d600887016126d6565b956009015496604051998a998a526101608060208c01528a0161073f9161277c565b89810360408b01526107509161277c565b88810360608a01526107619161277c565b87810360808901526107729161277c565b86810360a08801526107839161277c565b85810360c08701526107949161277c565b84810360e08601526107a59161277c565b8381036101008501526107b79161277c565b90600160a01b60019003811661012084015260a01c60ff1615156101408301520390f35b34610250576000366003190112610250576020600254604051908152f35b3461025057600036600319011261025057600454610816816132aa565b906108246040519283612606565b80825260046000908152602091828401917f8a35acfbc15ff81a39ae7d344fd709f28e8600b4aa8c65c6b64bfe7fe36bd19b835b8383106109955750505050604051918083019381845251809452604083019360408160051b85010192916000955b8287106108935785850386f35b909192938280610985600193603f198a820301865288518051825261095f61094b6109396109266109136109006108ed6108db8b8901518c61016080918d01528b019061277c565b60408901518a820360408c015261277c565b606080890151908a8303908b015261277c565b60808088015190898303908a015261277c565b60a080870151908883039089015261277c565b60c080860151908783039088015261277c565b60e084015185820360e087015261277c565b61010080840151908583039086015261277c565b91610120878060a01b03818401511690820152610140809201519181840391015261277c565b9601920196019592919092610886565b600b866001926109a7859a999a6132c1565b815201920192019190959495610858565b3461025057610100366003190112610250576004356024356001600160401b038111610250576109ec903690600401612627565b906044356001600160401b03811161025057610a0c903690600401612627565b916064356001600160401b03811161025057610a2c903690600401612627565b6084356001600160401b03811161025057610a4b903690600401612627565b60a4356001600160401b03811161025057610a6a903690600401612627565b9160c4356001600160401b03811161025057610a8a903690600401612627565b9560e4356001600160401b03811161025057610aaa903690600401612627565b95806000526000602052610acf60018060a01b0360096040600020015416331461322f565b600052600060205260406000209480516001600160401b038111610da857806001880192610b0782610b01865461269c565b86612946565b602090601f831160011461102157600092611016575b50508160011b916000199060031b1c19161790555b8051906001600160401b038211610da8578190610b5f82610b5660028a015461269c565b60028a01612946565b602090601f8311600114610fa957600092610f9e575b50508160011b916000199060031b1c19161760028501555b8051906001600160401b038211610da8578190610bba82610bb1600389015461269c565b60038901612946565b602090601f8311600114610f2c57600092610f21575b50508160011b916000199060031b1c19161760038401555b8051906001600160401b038211610da8578190610c1582610c0c600588015461269c565b60058801612946565b602090601f8311600114610eaf57600092610ea4575b50508160011b916000199060031b1c19161760058301555b805160078301916001600160401b038211610da8578190610c6882610b01865461269c565b602090601f8311600114610e3e57600092610e33575b50508160011b916000199060031b1c19161790555b6008810183516001600160401b038111610da857610cbb81610cb5845461269c565b84612946565b6020601f8211600114610dc957819060069596600092610dbe575b50508160011b916000199060031b1c19161790555b0181516001600160401b038111610da857610d0a81610cb5845461269c565b602092601f8211600114610d475792819293600092610d3c575b5050600019600383901b1c191660019190911b179055005b015190508380610d24565b601f198216938360005260206000209160005b868110610d905750836001959610610d77575b505050811b019055005b015160001960f88460031b161c19169055838080610d6d565b91926020600181928685015181550194019201610d5a565b634e487b7160e01b600052604160045260246000fd5b015190508680610cd6565b601f198216958360005260206000209660005b818110610e1b5750916006969791846001959410610e02575b505050811b019055610ceb565b015160001960f88460031b161c19169055868080610df5565b83830151895560019098019760209384019301610ddc565b015190508680610c7e565b6000858152602081209350601f198516905b818110610e8c5750908460019594939210610e73575b505050811b019055610c93565b015160001960f88460031b161c19169055868080610e66565b92936020600181928786015181550195019301610e50565b015190508680610c2b565b9250600585016000526020600020906000935b601f1984168510610f06576001945083601f19811610610eed575b505050811b016005830155610c43565b015160001960f88460031b161c19169055868080610edd565b81810151835560209485019460019093019290910190610ec2565b015190508780610bd0565b9250600386016000526020600020906000935b601f1984168510610f83576001945083601f19811610610f6a575b505050811b016003840155610be8565b015160001960f88460031b161c19169055878080610f5a565b81810151835560209485019460019093019290910190610f3f565b015190508880610b75565b600288016000908152602081209350601f198516905b818110610ffe5750908460019594939210610fe5575b505050811b016002850155610b8d565b015160001960f88460031b161c19169055888080610fd5565b92936020600181928786015181550195019301610fbf565b015190508a80610b1d565b9250836000526020600020906000935b601f1984168510611072576001945083601f19811610611059575b505050811b019055610b32565b015160001960f88460031b161c191690558a808061104c565b81810151835560209485019460019093019290910190611031565b34610250576020366003190112610250576110b26110ac60043561267d565b506132c1565b610140810151602081519101206110c761290b565b6020815191012014600014611b595760e081015190610100810151602082015190825193608084015160408501519060608601519060a08701519160c08801519360018060a01b036101208a015116976040519a6111248c6125cf565b8b5260208b015260408a01526060890152608088015260a087015260c086015260e08501526101008401526101208301526001610140830152611168600254613384565b6002558051600354600160401b811015610da85780600161118c92016003556128f0565b90918254908260031b1b916000199060031b1b1916179055805160005260006020526040600020908251825560208301519283516001600160401b038111610da8576111e8816111df600187015461269c565b60018701612946565b6020601f8211600114611aea578192939495600092611adf575b50508160011b916000199060031b1c19161760018401555b60408101519283516001600160401b038111610da85761124a81611241600285015461269c565b60028501612946565b6020601f8211600114611a70578192939495600092611a65575b50508160011b916000199060031b1c19161760028201555b60608201519283516001600160401b038111610da8576112ac816112a3600386015461269c565b60038601612946565b6020601f82116001146119f65781929394956000926119eb575b50508160011b916000199060031b1c19161760038301555b60808301519283516001600160401b038111610da85761130e81611305600487015461269c565b60048701612946565b6020601f821160011461197c578192939495600092611971575b50508160011b916000199060031b1c19161760048401555b60a08101519283516001600160401b038111610da85761137081611367600585015461269c565b60058501612946565b6020601f82116001146119025781929394956000926118f7575b50508160011b916000199060031b1c19161760058201555b60c08201519283516001600160401b038111610da8576113d2816113c9600686015461269c565b60068601612946565b6020601f821160011461188857819293949560009261187d575b50508160011b916000199060031b1c19161760068301555b60e08301519283516001600160401b038111610da8576114348161142b600787015461269c565b60078701612946565b6020601f821160011461180e578192939495600092611803575b50508160011b916000199060031b1c19161760078401555b6101008101519283516001600160401b038111610da8576114978161148e600885015461269c565b60088501612946565b6020601f82116001146117905781906009949596600092611785575b50508160011b916000199060031b1c19161760088201555b61012080840151929091018054610140909401516001600160a81b03199094166001600160a01b039384161793151560a01b60ff60a01b169390931790925582519183015116907fcb4990052f95f6057496d19524f6c3163f50af9f33f2c15b092928e03414323e600080a35b600454806004351015611750576000199080820190811161173a5761155c9061267d565b5061156860043561267d565b61164d57818103611679575b5050600454801561166357016115898161267d565b61164d57600a81600061160493556115a36001820161346b565b6115af6002820161346b565b6115bb6003820161346b565b6115c76004820161346b565b6115d36005820161346b565b6115df6006820161346b565b6115eb6007820161346b565b6115f76008820161346b565b600060098201550161346b565b6004556101408151910151907fbf3747916bbe426e0fd532a54a21bcf371c5ca55c33adbfd8b43756bb1bea93860405160208152806116483395602083019061277c565b0390a3005b634e487b7160e01b600052600060045260246000fd5b634e487b7160e01b600052603160045260246000fd5b600a8083611733945484556116946001820160018601613393565b6116a46002820160028601613393565b6116b46003820160038601613393565b6116c46004820160048601613393565b6116d46005820160058601613393565b6116e46006820160068601613393565b6116f46007820160078601613393565b6117046008820160088601613393565b60098181015490850180546001600160a01b0319166001600160a01b0392909216919091179055019101613393565b8280611574565b634e487b7160e01b600052601160045260246000fd5b60405162461bcd60e51b815260206004820152600d60248201526c092dcecc2d8d2c840d2dcc8caf609b1b6044820152606490fd5b0151905086806114b3565b6008830160005260206000209560005b601f19841681106117eb57509582916009959697600194601f198116106117d2575b505050811b0160088201556114cb565b015160001960f88460031b161c191690558680806117c2565b828201518855600190970196602092830192016117a0565b01519050858061144e565b6007850160005260206000209060005b601f1984168110611865575060019394959683601f1981161061184c575b505050811b016007840155611466565b015160001960f88460031b161c1916905585808061183c565b9091602060018192858b01518155019301910161181e565b0151905085806113ec565b6006840160005260206000209060005b601f19841681106118df575060019394959683601f198116106118c6575b505050811b016006830155611404565b015160001960f88460031b161c191690558580806118b6565b9091602060018192858b015181550193019101611898565b01519050858061138a565b6005830160005260206000209060005b601f1984168110611959575060019394959683601f19811610611940575b505050811b0160058201556113a2565b015160001960f88460031b161c19169055858080611930565b9091602060018192858b015181550193019101611912565b015190508580611328565b6004850160005260206000209060005b601f19841681106119d3575060019394959683601f198116106119ba575b505050811b016004840155611340565b015160001960f88460031b161c191690558580806119aa565b9091602060018192858b01518155019301910161198c565b0151905085806112c6565b6003840160005260206000209060005b601f1984168110611a4d575060019394959683601f19811610611a34575b505050811b0160038301556112de565b015160001960f88460031b161c19169055858080611a24565b9091602060018192858b015181550193019101611a06565b015190508580611264565b6002830160005260206000209060005b601f1984168110611ac7575060019394959683601f19811610611aae575b505050811b01600282015561127c565b015160001960f88460031b161c19169055858080611a9e565b9091602060018192858b015181550193019101611a80565b015190508580611202565b6001850160005260206000209060005b601f1984168110611b41575060019394959683601f19811610611b28575b505050811b01600184015561121a565b015160001960f88460031b161c19169055858080611b18565b9091602060018192858b015181550193019101611afa565b61014081015160208151910120611b6e613286565b6020815191012003611538578051600052600060205260018060a01b0360096040600020015416815160005260016020526001604060002001805490600160401b821015610da857600182018082558210156121535760005260206000200160018060a01b031990828282541617905560018060a01b0361012084015116835160005260006020526009604060002001918254161790556020820151918051600052600160406000200183516001600160401b038111610da857611c3681610cb5845461269c565b6020601f82116001146120ea5781929394956000926120df575b50508160011b916000199060031b1c19161790555b60608101519181516000526000602052600360406000200183516001600160401b038111610da857611c9b81610cb5845461269c565b6020601f821160011461207657819293949560009261206b575b50508160011b916000199060031b1c19161790555b60808201519180516000526000602052600460406000200183516001600160401b038111610da857611d0081610cb5845461269c565b6020601f8211600114612002578192939495600092611ff7575b50508160011b916000199060031b1c19161790555b60408101519181516000526000602052600260406000200183516001600160401b038111610da857611d6581610cb5845461269c565b6020601f8211600114611f8e578192939495600092611f83575b50508160011b916000199060031b1c19161790555b60c08201519180516000526000602052600660406000200183516001600160401b038111610da857611dca81610cb5845461269c565b6020601f8211600114611f1a578192939495600092611f0f575b50508160011b916000199060031b1c19161790555b60a08101519181516000526000602052600560406000200183516001600160401b038111610da857611e2f81610cb5845461269c565b6020601f8211600114611ea6578192939495600092611e9b575b50508160011b916000199060031b1c19161790555b81516101208301516001600160a01b031691907f1080b2f211753e5090f26ef7ffdc6bb3e66a125c7290200d10b502160bb1f566600080a4611538565b015190508580611e49565b8260005260206000209060005b601f1984168110611ef7575060019394959683601f19811610611ede575b505050811b019055611e5e565b015160001960f88460031b161c19169055858080611ed1565b9091602060018192858b015181550193019101611eb3565b015190508580611de4565b8260005260206000209060005b601f1984168110611f6b575060019394959683601f19811610611f52575b505050811b019055611df9565b015160001960f88460031b161c19169055858080611f45565b9091602060018192858b015181550193019101611f27565b015190508580611d7f565b8260005260206000209060005b601f1984168110611fdf575060019394959683601f19811610611fc6575b505050811b019055611d94565b015160001960f88460031b161c19169055858080611fb9565b9091602060018192858b015181550193019101611f9b565b015190508580611d1a565b8260005260206000209060005b601f1984168110612053575060019394959683601f1981161061203a575b505050811b019055611d2f565b015160001960f88460031b161c1916905585808061202d565b9091602060018192858b01518155019301910161200f565b015190508580611cb5565b8260005260206000209060005b601f19841681106120c7575060019394959683601f198116106120ae575b505050811b019055611cca565b015160001960f88460031b161c191690558580806120a1565b9091602060018192858b015181550193019101612083565b015190508580611c50565b8260005260206000209060005b601f198416811061213b575060019394959683601f19811610612122575b505050811b019055611c65565b015160001960f88460031b161c19169055858080612115565b9091602060018192858b0151815501930191016120f7565b634e487b7160e01b600052603260045260246000fd5b3461025057610120366003190112610250576001600160401b036004358181116102505761219b903690600401612627565b602435604435838111610250576121b6903690600401612627565b606435848111610250576121ce903690600401612627565b90608435858111610250576121e7903690600401612627565b9460a43581811161025057612200903690600401612627565b9060c43581811161025057612219903690600401612627565b9160e43582811161025057612232903690600401612627565b91610104359081116102505761224c903690600401612627565b9286600052600060205260ff60096040600020015460a01c1661227f5761227d9861227561290b565b98339861298b565b005b60405162461bcd60e51b815260206004820152601a60248201527f4c616e6420697320416c726561647920526567697374657265640000000000006044820152606490fd5b3461025057602036600319011261025057600435600454811015610250576122eb9061267d565b5080546122fa600183016126d6565b91612307600282016126d6565b90612314600382016126d6565b612320600483016126d6565b61232c600584016126d6565b612338600685016126d6565b90612345600786016126d6565b92612352600887016126d6565b60098701546001600160a01b03169690959061237090600a016126d6565b976040519a8b9a8b526101608060208d01528b0161238d9161277c565b8a810360408c015261239e9161277c565b89810360608b01526123af9161277c565b88810360808a01526123c09161277c565b87810360a08901526123d19161277c565b86810360c08801526123e29161277c565b85810360e08701526123f39161277c565b8481036101008601526124059161277c565b906101208401528281036101408401526102b59161277c565b346102505760203660031901126102505760043560005260016020526020604060002054604051908152f35b3461025057610100366003190112610250576001600160a01b036004356024358281168103610250576001600160401b0360443581811161025057612493903690600401612627565b90606435818111610250576124ac903690600401612627565b94608435828111610250576124c5903690600401612627565b9160a435818111610250576124de903690600401612627565b9160c435828111610250576124f7903690600401612627565b9160e4359081116102505761251361252e913690600401612627565b9188600052600060205260096040600020015416331461322f565b86600052600060205260ff60096040600020015460a01c16156125915761227d9787600052600060205261256860076040600020016126d6565b9488600052600060205261258260086040600020016126d6565b9661258b613286565b9961298b565b60405162461bcd60e51b815260206004820152601660248201527513185b99081a5cc81b9bdd081c9959da5cdd195c995960521b6044820152606490fd5b61016081019081106001600160401b03821117610da857604052565b604081019081106001600160401b03821117610da857604052565b90601f801991011681019081106001600160401b03821117610da857604052565b81601f82011215610250578035906001600160401b038211610da8576040519261265b601f8401601f191660200185612606565b8284526020838301011161025057816000926020809301838601378301015290565b600454811015612153576004600052600b602060002091020190600090565b90600182811c921680156126cc575b60208310146126b657565b634e487b7160e01b600052602260045260246000fd5b91607f16916126ab565b90604051918260008254926126ea8461269c565b9081845260019485811690816000146127595750600114612716575b505061271492500383612606565b565b9093915060005260209081600020936000915b81831061274157505061271493508201013880612706565b85548884018501529485019487945091830191612729565b91505061271494506020925060ff191682840152151560051b8201013880612706565b919082519283825260005b8481106127a8575050826000602080949584010152601f8019910116010190565b602081830181015184830182015201612787565b602080820190808352835180925260409283810182858560051b8401019601946000925b8584106127f1575050505050505090565b909192939495968580600192603f198582030187528a5190815181526128c06128ac61289961288661287361286061284d8d61283b8b8b01518c61016080918d01528b019061277c565b90808b0151908a8303908b015261277c565b6060808a015190898303908a015261277c565b608080890151908883039089015261277c565b60a080880151908783039088015261277c565b60c080870151908683039087015261277c565b60e080860151908583039086015261277c565b61010080850151908483039085015261277c565b91610120868060a01b038183015116908301526101408091015115159101529901940194019295949391906127e0565b60035481101561215357600360005260206000200190600090565b60405190612918826125eb565b60088252673932b3b4b9ba32b960c11b6020830152565b81811061293a575050565b6000815560010161292f565b9190601f811161295557505050565b612714926000526020600020906020601f840160051c83019310612981575b601f0160051c019061292f565b9091508190612974565b989794919693909592604051976129a1896125cf565b8a89526020890197885260408901526060880152608087015260a086015260c085015260e08401526101008301526001600160a01b0383166101208301526101408201859052600454600160401b811015610da857806001612a06920160045561267d565b91909161164d5782518255518051906001600160401b038211610da8578190612a36826111df600187015461269c565b602090601f83116001146131bd576000926131b2575b50508160011b916000199060031b1c19161760018201555b60408201518051906001600160401b038211610da8578190612a9682612a8d600287015461269c565b60028701612946565b602090601f831160011461314057600092613135575b50508160011b916000199060031b1c19161760028201555b60608201518051906001600160401b038211610da8578190612af682612aed600387015461269c565b60038701612946565b602090601f83116001146130c3576000926130b8575b50508160011b916000199060031b1c19161760038201555b60808201518051906001600160401b038211610da8578190612b4d82611305600487015461269c565b602090601f83116001146130465760009261303b575b50508160011b916000199060031b1c19161760048201555b60a08201518051906001600160401b038211610da8578190612bad82612ba4600587015461269c565b60058701612946565b602090601f8311600114612fc957600092612fbe575b50508160011b916000199060031b1c19161760058201555b60c08201518051906001600160401b038211610da8578190612c0d82612c04600687015461269c565b60068701612946565b602090601f8311600114612f4c57600092612f41575b50508160011b916000199060031b1c19161760068201555b60e08201518051906001600160401b038211610da8578190612c648261142b600787015461269c565b602090601f8311600114612ecf57600092612ec4575b50508160011b916000199060031b1c19161760078201555b61010082015180516001600160401b038111610da8576008830191612cc182612cbb855461269c565b85612946565b602090601f8311600114612e55579180600a94926101409694600092612e4a575b50508160011b916000199060031b1c19161790555b6009810160018060a01b036101208601511660018060a01b0319825416179055019101518051906001600160401b038211610da857612d3a82612cbb855461269c565b602090601f8311600114612dbc579180612dac94927f90b328f02ed250ff4bf17cafcbd924782f15c92b3a87a4082e92ae216e1822c29694600092612db1575b50508160011b916000199060031b1c19161790555b6040519182916020835260018060a01b031695602083019061277c565b0390a3565b015190503880612d7a565b90601f198316918460005260206000209260005b818110612e3257509260019285927f90b328f02ed250ff4bf17cafcbd924782f15c92b3a87a4082e92ae216e1822c29896612dac989610612e19575b505050811b019055612d8f565b015160001960f88460031b161c19169055388080612e0c565b92936020600181928786015181550195019301612dd0565b015190503880612ce2565b90601f198316918460005260206000209260005b818110612eac57509260019285926101409896600a989610612e93575b505050811b019055612cf7565b015160001960f88460031b161c19169055388080612e86565b92936020600181928786015181550195019301612e69565b015190503880612c7a565b9250600784016000526020600020906000935b601f1984168510612f26576001945083601f19811610612f0d575b505050811b016007820155612c92565b015160001960f88460031b161c19169055388080612efd565b81810151835560209485019460019093019290910190612ee2565b015190503880612c23565b9250600684016000526020600020906000935b601f1984168510612fa3576001945083601f19811610612f8a575b505050811b016006820155612c3b565b015160001960f88460031b161c19169055388080612f7a565b81810151835560209485019460019093019290910190612f5f565b015190503880612bc3565b9250600584016000526020600020906000935b601f1984168510613020576001945083601f19811610613007575b505050811b016005820155612bdb565b015160001960f88460031b161c19169055388080612ff7565b81810151835560209485019460019093019290910190612fdc565b015190503880612b63565b9250600484016000526020600020906000935b601f198416851061309d576001945083601f19811610613084575b505050811b016004820155612b7b565b015160001960f88460031b161c19169055388080613074565b81810151835560209485019460019093019290910190613059565b015190503880612b0c565b9250600384016000526020600020906000935b601f198416851061311a576001945083601f19811610613101575b505050811b016003820155612b24565b015160001960f88460031b161c191690553880806130f1565b818101518355602094850194600190930192909101906130d6565b015190503880612aac565b9250600284016000526020600020906000935b601f1984168510613197576001945083601f1981161061317e575b505050811b016002820155612ac4565b015160001960f88460031b161c1916905538808061316e565b81810151835560209485019460019093019290910190613153565b015190503880612a4c565b9250600184016000526020600020906000935b601f1984168510613214576001945083601f198116106131fb575b505050811b016001820155612a64565b015160001960f88460031b161c191690553880806131eb565b818101518355602094850194600190930192909101906131d0565b1561323657565b60405162461bcd60e51b815260206004820152602260248201527f596f7520617265206e6f7420746865206f776e6572206f662074686973206c616044820152611b9960f21b6064820152608490fd5b60405190613293826125eb565b60088252673a3930b739b332b960c11b6020830152565b6001600160401b038111610da85760051b60200190565b906040516132ce816125cf565b61014061337f600a8395805485526132e8600182016126d6565b60208601526132f9600282016126d6565b604086015261330a600382016126d6565b606086015261331b600482016126d6565b608086015261332c600582016126d6565b60a086015261333d600682016126d6565b60c086015261334e600782016126d6565b60e086015261335f600882016126d6565b61010086015260098101546001600160a01b0316610120860152016126d6565b910152565b600019811461173a5760010190565b90808214613467576133a5815461269c565b906001600160401b038211610da85781906133c482610b01865461269c565b600090601f83116001146133fb576000926133f0575b50508160011b916000199060031b1c1916179055565b0154905038806133da565b81526020808220858352818320935090601f1985169083905b82821061344e575050908460019594939210613435575b505050811b019055565b015460001960f88460031b161c1916905538808061342b565b8495819295850154815560018091019601940190613414565b5050565b613475815461269c565b908161347f575050565b81601f60009311600114613491575055565b9080839182526134b0601f60208420940160051c84016001850161292f565b5555565b906134be826132aa565b6040906134cd82519182612606565b83815280936134de601f19916132aa565b0191600091825b8481106134f3575050505050565b6020908351613501816125cf565b858152606083908082840152808784015280808401528060808401528060a08401528060c08401528060e084015261010083015286610120830152866101408301528285010152016134e5565b80518210156121535760209160051b01019056fea2646970667358221220ebba39385d17bced3fcf121264e5a1784f2346c3de1c7220a119e9c806b7ad7064736f6c63430008130033","opcodes":"PUSH1 0x80 DUP1 PUSH1 0x40 MSTORE CALLVALUE PUSH2 0x16 JUMPI PUSH2 0x3598 SWAP1 DUP2 PUSH2 0x1C DUP3 CODECOPY RETURN JUMPDEST PUSH1 0x0 DUP1 REVERT INVALID PUSH1 0x80 PUSH1 0x40 MSTORE PUSH1 0x4 CALLDATASIZE LT ISZERO PUSH2 0x12 JUMPI PUSH1 0x0 DUP1 REVERT JUMPDEST PUSH1 0x0 CALLDATALOAD PUSH1 0xE0 SHR DUP1 PUSH4 0x9C05B0E EQ PUSH2 0x244A JUMPI DUP1 PUSH4 0x19159F20 EQ PUSH2 0x241E JUMPI DUP1 PUSH4 0x3C652A9A EQ PUSH2 0x22C4 JUMPI DUP1 PUSH4 0x4ABAC37B EQ PUSH2 0x2169 JUMPI DUP1 PUSH4 0x7AE6DA9B EQ PUSH2 0x108D JUMPI DUP1 PUSH4 0x7CE411F9 EQ PUSH2 0x9B8 JUMPI DUP1 PUSH4 0x80A1F712 EQ PUSH2 0x7F9 JUMPI DUP1 PUSH4 0x9E29CE18 EQ PUSH2 0x7DB JUMPI DUP1 PUSH4 0xA3695B18 EQ PUSH2 0x695 JUMPI DUP1 PUSH4 0xA6AC704E EQ PUSH2 0x53A JUMPI DUP1 PUSH4 0xDA5F55E9 EQ PUSH2 0x502 JUMPI DUP1 PUSH4 0xF1DBACCB EQ PUSH2 0x44E JUMPI DUP1 PUSH4 0xF47D31DC EQ PUSH2 0x255 JUMPI PUSH4 0xFE0CB7DC EQ PUSH2 0xB6 JUMPI PUSH1 0x0 DUP1 REVERT JUMPDEST CALLVALUE PUSH2 0x250 JUMPI PUSH1 0x20 CALLDATASIZE PUSH1 0x3 NOT ADD SLT PUSH2 0x250 JUMPI PUSH1 0x4 CALLDATALOAD PUSH1 0x0 MSTORE PUSH1 0x0 PUSH1 0x20 MSTORE PUSH1 0x40 PUSH1 0x0 KECCAK256 PUSH1 0x40 MLOAD SWAP1 PUSH2 0xE4 DUP3 PUSH2 0x25CF JUMP JUMPDEST DUP1 SLOAD DUP3 MSTORE PUSH2 0xF4 PUSH1 0x1 DUP3 ADD PUSH2 0x26D6 JUMP JUMPDEST PUSH1 0x20 DUP4 ADD SWAP1 DUP2 MSTORE SWAP1 PUSH2 0x108 PUSH1 0x2 DUP3 ADD PUSH2 0x26D6 JUMP JUMPDEST PUSH1 0x40 DUP5 ADD SWAP1 DUP2 MSTORE SWAP3 PUSH2 0x11C PUSH1 0x3 DUP4 ADD PUSH2 0x26D6 JUMP JUMPDEST PUSH1 0x60 DUP3 ADD SWAP1 DUP2 MSTORE PUSH2 0x12F PUSH1 0x4 DUP5 ADD PUSH2 0x26D6 JUMP JUMPDEST PUSH1 0x80 DUP4 ADD SWAP1 DUP2 MSTORE SWAP5 PUSH2 0x143 PUSH1 0x5 DUP6 ADD PUSH2 0x26D6 JUMP JUMPDEST PUSH1 0xA0 DUP5 ADD SWAP1 DUP2 MSTORE PUSH2 0x156 PUSH1 0x6 DUP7 ADD PUSH2 0x26D6 JUMP JUMPDEST PUSH1 0xC0 DUP6 ADD SWAP1 DUP2 MSTORE PUSH2 0x169 PUSH1 0x7 DUP8 ADD PUSH2 0x26D6 JUMP JUMPDEST PUSH1 0xE0 DUP7 ADD SWAP1 DUP2 MSTORE SWAP2 PUSH2 0x17D PUSH1 0x8 DUP9 ADD PUSH2 0x26D6 JUMP JUMPDEST SWAP5 PUSH2 0x100 SWAP8 DUP7 DUP10 DUP10 ADD MSTORE PUSH1 0x9 ADD SLOAD SWAP9 PUSH1 0x1 PUSH1 0xA0 SHL PUSH1 0x1 SWAP1 SUB DUP11 AND SWAP8 PUSH2 0x120 SWAP11 DUP10 DUP13 DUP4 ADD MSTORE PUSH1 0xA0 SHR PUSH1 0xFF AND ISZERO ISZERO SWAP1 PUSH2 0x140 ADD MSTORE MLOAD SWAP10 MLOAD SWAP5 MLOAD SWAP1 MLOAD SWAP2 MLOAD SWAP3 MLOAD SWAP4 MLOAD SWAP5 PUSH1 0x40 MLOAD SWAP11 DUP11 DUP13 SWAP12 DUP13 MSTORE DUP12 ADD PUSH2 0x1D1 SWAP2 PUSH2 0x277C JUMP JUMPDEST DUP11 DUP2 SUB PUSH1 0x20 DUP13 ADD MSTORE PUSH2 0x1E2 SWAP2 PUSH2 0x277C JUMP JUMPDEST DUP10 DUP2 SUB PUSH1 0x40 DUP12 ADD MSTORE PUSH2 0x1F3 SWAP2 PUSH2 0x277C JUMP JUMPDEST DUP9 DUP2 SUB PUSH1 0x60 DUP11 ADD MSTORE PUSH2 0x204 SWAP2 PUSH2 0x277C JUMP JUMPDEST DUP8 DUP2 SUB PUSH1 0x80 DUP10 ADD MSTORE PUSH2 0x215 SWAP2 PUSH2 0x277C JUMP JUMPDEST DUP7 DUP2 SUB PUSH1 0xA0 DUP9 ADD MSTORE PUSH2 0x226 SWAP2 PUSH2 0x277C JUMP JUMPDEST DUP6 DUP2 SUB PUSH1 0xC0 DUP8 ADD MSTORE PUSH2 0x237 SWAP2 PUSH2 0x277C JUMP JUMPDEST DUP5 DUP2 SUB PUSH1 0xE0 DUP7 ADD MSTORE PUSH2 0x248 SWAP2 PUSH2 0x277C JUMP JUMPDEST SWAP2 DUP4 ADD MSTORE SUB SWAP1 RETURN JUMPDEST PUSH1 0x0 DUP1 REVERT JUMPDEST CALLVALUE PUSH2 0x250 JUMPI PUSH1 0x20 DUP1 PUSH1 0x3 NOT CALLDATASIZE ADD SLT PUSH2 0x250 JUMPI PUSH1 0x4 CALLDATALOAD PUSH1 0x1 PUSH1 0x1 PUSH1 0xA0 SHL SUB DUP2 DUP2 AND SWAP3 SWAP2 DUP4 SWAP1 SUB PUSH2 0x250 JUMPI PUSH1 0x3 DUP1 SLOAD SWAP3 SWAP1 PUSH1 0x0 DUP1 JUMPDEST DUP6 DUP2 LT PUSH2 0x3E8 JUMPI POP PUSH2 0x299 SWAP1 PUSH2 0x34B4 JUMP JUMPDEST SWAP5 PUSH1 0x0 SWAP3 PUSH1 0x0 JUMPDEST DUP7 DUP2 LT PUSH2 0x2B9 JUMPI PUSH1 0x40 MLOAD DUP1 PUSH2 0x2B5 DUP11 DUP3 PUSH2 0x27BC JUMP JUMPDEST SUB SWAP1 RETURN JUMPDEST PUSH2 0x2C2 DUP2 PUSH2 0x28F0 JUMP JUMPDEST SWAP1 SLOAD SWAP1 DUP6 SHL SHR PUSH1 0x0 MSTORE PUSH1 0x0 DUP3 MSTORE PUSH1 0x40 PUSH1 0x0 KECCAK256 DUP7 PUSH1 0x9 DUP3 ADD SLOAD PUSH1 0xA0 SWAP3 PUSH1 0xFF DUP3 DUP6 SHR AND SWAP4 DUP5 DUP1 SWAP6 PUSH2 0x3DD JUMPI JUMPDEST PUSH2 0x304 JUMPI JUMPDEST POP POP POP POP POP PUSH2 0x2FF SWAP1 PUSH2 0x3384 JUMP JUMPDEST PUSH2 0x2A0 JUMP JUMPDEST SWAP3 DUP9 SWAP3 PUSH2 0x3A2 PUSH1 0x8 PUSH2 0x3D2 SWAP8 SWAP5 PUSH2 0x2FF SWAP10 SWAP14 SWAP8 PUSH2 0x354 PUSH1 0x40 MLOAD SWAP9 PUSH2 0x327 DUP11 PUSH2 0x25CF JUMP JUMPDEST DUP4 SLOAD DUP11 MSTORE DUP14 PUSH2 0x338 PUSH1 0x1 DUP7 ADD PUSH2 0x26D6 JUMP JUMPDEST SWAP1 DUP12 ADD MSTORE PUSH2 0x348 PUSH1 0x2 DUP6 ADD PUSH2 0x26D6 JUMP JUMPDEST PUSH1 0x40 DUP12 ADD MSTORE DUP4 ADD PUSH2 0x26D6 JUMP JUMPDEST PUSH1 0x60 DUP10 ADD MSTORE PUSH2 0x365 PUSH1 0x4 DUP4 ADD PUSH2 0x26D6 JUMP JUMPDEST PUSH1 0x80 DUP10 ADD MSTORE PUSH2 0x376 PUSH1 0x5 DUP4 ADD PUSH2 0x26D6 JUMP JUMPDEST SWAP1 DUP9 ADD MSTORE PUSH2 0x386 PUSH1 0x6 DUP3 ADD PUSH2 0x26D6 JUMP JUMPDEST PUSH1 0xC0 DUP9 ADD MSTORE PUSH2 0x397 PUSH1 0x7 DUP3 ADD PUSH2 0x26D6 JUMP JUMPDEST PUSH1 0xE0 DUP9 ADD MSTORE ADD PUSH2 0x26D6 JUMP JUMPDEST PUSH2 0x100 DUP6 ADD MSTORE AND PUSH2 0x120 DUP4 ADD MSTORE ISZERO ISZERO PUSH2 0x140 DUP3 ADD MSTORE PUSH2 0x3C1 DUP3 DUP13 PUSH2 0x354E JUMP JUMPDEST MSTORE PUSH2 0x3CC DUP2 DUP12 PUSH2 0x354E JUMP JUMPDEST POP PUSH2 0x3384 JUMP JUMPDEST SWAP5 SWAP1 DUP7 DUP11 DUP1 DUP1 PUSH2 0x2F1 JUMP JUMPDEST POP DUP8 DUP5 DUP5 AND EQ PUSH2 0x2EC JUMP JUMPDEST PUSH2 0x3F1 DUP2 PUSH2 0x28F0 JUMP JUMPDEST SWAP1 SLOAD SWAP1 DUP5 SHL SHR PUSH1 0x0 MSTORE PUSH1 0x0 DUP5 MSTORE PUSH1 0x9 PUSH1 0x40 PUSH1 0x0 KECCAK256 ADD SLOAD DUP8 DUP7 PUSH1 0xFF DUP4 PUSH1 0xA0 SHR AND SWAP3 DUP4 PUSH2 0x442 JUMPI JUMPDEST POP POP POP PUSH2 0x42D JUMPI JUMPDEST PUSH2 0x428 SWAP1 PUSH2 0x3384 JUMP JUMPDEST PUSH2 0x288 JUMP JUMPDEST SWAP1 PUSH2 0x43A PUSH2 0x428 SWAP2 PUSH2 0x3384 JUMP JUMPDEST SWAP2 SWAP1 POP PUSH2 0x41F JUMP JUMPDEST AND EQ SWAP1 POP DUP8 DUP7 DUP11 PUSH2 0x417 JUMP JUMPDEST CALLVALUE PUSH2 0x250 JUMPI PUSH1 0x20 DUP1 PUSH1 0x3 NOT CALLDATASIZE ADD SLT PUSH2 0x250 JUMPI PUSH1 0x4 CALLDATALOAD PUSH1 0x0 MSTORE PUSH1 0x1 SWAP1 DUP2 DUP2 MSTORE DUP2 PUSH1 0x40 PUSH1 0x0 KECCAK256 ADD SWAP2 PUSH1 0x40 MLOAD SWAP2 DUP3 DUP2 DUP6 SLOAD SWAP2 DUP3 DUP2 MSTORE ADD SWAP1 DUP2 SWAP6 PUSH1 0x0 MSTORE DUP3 PUSH1 0x0 KECCAK256 SWAP1 PUSH1 0x0 JUMPDEST DUP2 DUP2 LT PUSH2 0x4E6 JUMPI POP POP POP DUP4 PUSH2 0x4A5 SWAP2 SUB DUP5 PUSH2 0x2606 JUMP JUMPDEST PUSH1 0x40 MLOAD SWAP3 DUP2 DUP5 ADD SWAP1 DUP3 DUP6 MSTORE MLOAD DUP1 SWAP2 MSTORE PUSH1 0x40 DUP5 ADD SWAP5 SWAP2 PUSH1 0x0 JUMPDEST DUP3 DUP2 LT PUSH2 0x4CA JUMPI DUP6 DUP8 SUB DUP7 RETURN JUMPDEST DUP4 MLOAD PUSH1 0x1 PUSH1 0x1 PUSH1 0xA0 SHL SUB AND DUP8 MSTORE SWAP6 DUP2 ADD SWAP6 SWAP3 DUP2 ADD SWAP3 DUP5 ADD PUSH2 0x4BD JUMP JUMPDEST DUP3 SLOAD PUSH1 0x1 PUSH1 0x1 PUSH1 0xA0 SHL SUB AND DUP5 MSTORE SWAP3 DUP5 ADD SWAP3 SWAP2 DUP6 ADD SWAP2 DUP6 ADD PUSH2 0x48F JUMP JUMPDEST CALLVALUE PUSH2 0x250 JUMPI PUSH1 0x20 CALLDATASIZE PUSH1 0x3 NOT ADD SLT PUSH2 0x250 JUMPI PUSH1 0x4 CALLDATALOAD PUSH1 0x3 SLOAD DUP2 LT ISZERO PUSH2 0x250 JUMPI PUSH2 0x52B PUSH1 0x20 SWAP2 PUSH2 0x28F0 JUMP JUMPDEST SWAP1 SLOAD SWAP1 PUSH1 0x3 SHL SHR PUSH1 0x40 MLOAD SWAP1 DUP2 MSTORE RETURN JUMPDEST CALLVALUE PUSH2 0x250 JUMPI PUSH1 0x0 CALLDATASIZE PUSH1 0x3 NOT ADD SLT PUSH2 0x250 JUMPI PUSH1 0x2 PUSH2 0x557 DUP2 SLOAD PUSH2 0x34B4 JUMP JUMPDEST PUSH1 0x3 DUP1 SLOAD SWAP2 SWAP3 PUSH1 0x0 SWAP1 DUP2 JUMPDEST DUP5 DUP2 LT PUSH2 0x577 JUMPI PUSH1 0x40 MLOAD DUP1 PUSH2 0x2B5 DUP9 DUP3 PUSH2 0x27BC JUMP JUMPDEST PUSH2 0x580 DUP2 PUSH2 0x28F0 JUMP JUMPDEST SWAP1 SLOAD SWAP1 DUP6 SHL SHR PUSH1 0x0 MSTORE PUSH1 0x20 PUSH1 0x0 DUP2 MSTORE PUSH1 0x40 PUSH1 0x0 KECCAK256 PUSH1 0x9 DUP2 ADD SLOAD PUSH1 0xA0 SWAP2 PUSH1 0xFF DUP3 DUP5 SHR AND SWAP3 DUP4 PUSH2 0x5BC JUMPI JUMPDEST POP POP POP POP POP PUSH2 0x5B7 SWAP1 PUSH2 0x3384 JUMP JUMPDEST PUSH2 0x562 JUMP JUMPDEST SWAP2 PUSH2 0x658 PUSH1 0x8 PUSH2 0x5B7 SWAP8 SWAP10 SWAP6 SWAP4 PUSH2 0x68A SWAP8 SWAP6 PUSH1 0x40 MLOAD SWAP7 PUSH2 0x5DB DUP9 PUSH2 0x25CF JUMP JUMPDEST DUP3 SLOAD DUP9 MSTORE PUSH2 0x5EB PUSH1 0x1 DUP5 ADD PUSH2 0x26D6 JUMP JUMPDEST SWAP1 DUP9 ADD MSTORE PUSH2 0x5FA DUP12 DUP4 ADD PUSH2 0x26D6 JUMP JUMPDEST PUSH1 0x40 DUP9 ADD MSTORE PUSH2 0x60A DUP14 DUP4 ADD PUSH2 0x26D6 JUMP JUMPDEST PUSH1 0x60 DUP9 ADD MSTORE PUSH2 0x61B PUSH1 0x4 DUP4 ADD PUSH2 0x26D6 JUMP JUMPDEST PUSH1 0x80 DUP9 ADD MSTORE PUSH2 0x62C PUSH1 0x5 DUP4 ADD PUSH2 0x26D6 JUMP JUMPDEST SWAP1 DUP8 ADD MSTORE PUSH2 0x63C PUSH1 0x6 DUP3 ADD PUSH2 0x26D6 JUMP JUMPDEST PUSH1 0xC0 DUP8 ADD MSTORE PUSH2 0x64D PUSH1 0x7 DUP3 ADD PUSH2 0x26D6 JUMP JUMPDEST PUSH1 0xE0 DUP8 ADD MSTORE ADD PUSH2 0x26D6 JUMP JUMPDEST PUSH2 0x100 DUP5 ADD MSTORE PUSH1 0x1 PUSH1 0x1 PUSH1 0xA0 SHL SUB AND PUSH2 0x120 DUP4 ADD MSTORE ISZERO ISZERO PUSH2 0x140 DUP3 ADD MSTORE PUSH2 0x67F DUP3 DUP11 PUSH2 0x354E JUMP JUMPDEST MSTORE PUSH2 0x3CC DUP2 DUP10 PUSH2 0x354E JUMP JUMPDEST SWAP3 SWAP1 DUP8 DUP1 DUP1 DUP1 PUSH2 0x5A9 JUMP JUMPDEST CALLVALUE PUSH2 0x250 JUMPI PUSH1 0x20 CALLDATASIZE PUSH1 0x3 NOT ADD SLT PUSH2 0x250 JUMPI PUSH1 0x4 CALLDATALOAD PUSH1 0x0 MSTORE PUSH1 0x0 PUSH1 0x20 MSTORE PUSH1 0x40 PUSH1 0x0 KECCAK256 DUP1 SLOAD PUSH1 0x1 DUP3 ADD PUSH2 0x6C5 SWAP1 PUSH2 0x26D6 JUMP JUMPDEST SWAP2 PUSH2 0x6D2 PUSH1 0x2 DUP3 ADD PUSH2 0x26D6 JUMP JUMPDEST SWAP1 PUSH2 0x6DF PUSH1 0x3 DUP3 ADD PUSH2 0x26D6 JUMP JUMPDEST PUSH2 0x6EB PUSH1 0x4 DUP4 ADD PUSH2 0x26D6 JUMP JUMPDEST PUSH2 0x6F7 PUSH1 0x5 DUP5 ADD PUSH2 0x26D6 JUMP JUMPDEST PUSH2 0x703 PUSH1 0x6 DUP6 ADD PUSH2 0x26D6 JUMP JUMPDEST SWAP2 PUSH2 0x710 PUSH1 0x7 DUP7 ADD PUSH2 0x26D6 JUMP JUMPDEST SWAP4 PUSH2 0x71D PUSH1 0x8 DUP8 ADD PUSH2 0x26D6 JUMP JUMPDEST SWAP6 PUSH1 0x9 ADD SLOAD SWAP7 PUSH1 0x40 MLOAD SWAP10 DUP11 SWAP10 DUP11 MSTORE PUSH2 0x160 DUP1 PUSH1 0x20 DUP13 ADD MSTORE DUP11 ADD PUSH2 0x73F SWAP2 PUSH2 0x277C JUMP JUMPDEST DUP10 DUP2 SUB PUSH1 0x40 DUP12 ADD MSTORE PUSH2 0x750 SWAP2 PUSH2 0x277C JUMP JUMPDEST DUP9 DUP2 SUB PUSH1 0x60 DUP11 ADD MSTORE PUSH2 0x761 SWAP2 PUSH2 0x277C JUMP JUMPDEST DUP8 DUP2 SUB PUSH1 0x80 DUP10 ADD MSTORE PUSH2 0x772 SWAP2 PUSH2 0x277C JUMP JUMPDEST DUP7 DUP2 SUB PUSH1 0xA0 DUP9 ADD MSTORE PUSH2 0x783 SWAP2 PUSH2 0x277C JUMP JUMPDEST DUP6 DUP2 SUB PUSH1 0xC0 DUP8 ADD MSTORE PUSH2 0x794 SWAP2 PUSH2 0x277C JUMP JUMPDEST DUP5 DUP2 SUB PUSH1 0xE0 DUP7 ADD MSTORE PUSH2 0x7A5 SWAP2 PUSH2 0x277C JUMP JUMPDEST DUP4 DUP2 SUB PUSH2 0x100 DUP6 ADD MSTORE PUSH2 0x7B7 SWAP2 PUSH2 0x277C JUMP JUMPDEST SWAP1 PUSH1 0x1 PUSH1 0xA0 SHL PUSH1 0x1 SWAP1 SUB DUP2 AND PUSH2 0x120 DUP5 ADD MSTORE PUSH1 0xA0 SHR PUSH1 0xFF AND ISZERO ISZERO PUSH2 0x140 DUP4 ADD MSTORE SUB SWAP1 RETURN JUMPDEST CALLVALUE PUSH2 0x250 JUMPI PUSH1 0x0 CALLDATASIZE PUSH1 0x3 NOT ADD SLT PUSH2 0x250 JUMPI PUSH1 0x20 PUSH1 0x2 SLOAD PUSH1 0x40 MLOAD SWAP1 DUP2 MSTORE RETURN JUMPDEST CALLVALUE PUSH2 0x250 JUMPI PUSH1 0x0 CALLDATASIZE PUSH1 0x3 NOT ADD SLT PUSH2 0x250 JUMPI PUSH1 0x4 SLOAD PUSH2 0x816 DUP2 PUSH2 0x32AA JUMP JUMPDEST SWAP1 PUSH2 0x824 PUSH1 0x40 MLOAD SWAP3 DUP4 PUSH2 0x2606 JUMP JUMPDEST DUP1 DUP3 MSTORE PUSH1 0x4 PUSH1 0x0 SWAP1 DUP2 MSTORE PUSH1 0x20 SWAP2 DUP3 DUP5 ADD SWAP2 PUSH32 0x8A35ACFBC15FF81A39AE7D344FD709F28E8600B4AA8C65C6B64BFE7FE36BD19B DUP4 JUMPDEST DUP4 DUP4 LT PUSH2 0x995 JUMPI POP POP POP POP PUSH1 0x40 MLOAD SWAP2 DUP1 DUP4 ADD SWAP4 DUP2 DUP5 MSTORE MLOAD DUP1 SWAP5 MSTORE PUSH1 0x40 DUP4 ADD SWAP4 PUSH1 0x40 DUP2 PUSH1 0x5 SHL DUP6 ADD ADD SWAP3 SWAP2 PUSH1 0x0 SWAP6 JUMPDEST DUP3 DUP8 LT PUSH2 0x893 JUMPI DUP6 DUP6 SUB DUP7 RETURN JUMPDEST SWAP1 SWAP2 SWAP3 SWAP4 DUP3 DUP1 PUSH2 0x985 PUSH1 0x1 SWAP4 PUSH1 0x3F NOT DUP11 DUP3 SUB ADD DUP7 MSTORE DUP9 MLOAD DUP1 MLOAD DUP3 MSTORE PUSH2 0x95F PUSH2 0x94B PUSH2 0x939 PUSH2 0x926 PUSH2 0x913 PUSH2 0x900 PUSH2 0x8ED PUSH2 0x8DB DUP12 DUP10 ADD MLOAD DUP13 PUSH2 0x160 DUP1 SWAP2 DUP14 ADD MSTORE DUP12 ADD SWAP1 PUSH2 0x277C JUMP JUMPDEST PUSH1 0x40 DUP10 ADD MLOAD DUP11 DUP3 SUB PUSH1 0x40 DUP13 ADD MSTORE PUSH2 0x277C JUMP JUMPDEST PUSH1 0x60 DUP1 DUP10 ADD MLOAD SWAP1 DUP11 DUP4 SUB SWAP1 DUP12 ADD MSTORE PUSH2 0x277C JUMP JUMPDEST PUSH1 0x80 DUP1 DUP9 ADD MLOAD SWAP1 DUP10 DUP4 SUB SWAP1 DUP11 ADD MSTORE PUSH2 0x277C JUMP JUMPDEST PUSH1 0xA0 DUP1 DUP8 ADD MLOAD SWAP1 DUP9 DUP4 SUB SWAP1 DUP10 ADD MSTORE PUSH2 0x277C JUMP JUMPDEST PUSH1 0xC0 DUP1 DUP7 ADD MLOAD SWAP1 DUP8 DUP4 SUB SWAP1 DUP9 ADD MSTORE PUSH2 0x277C JUMP JUMPDEST PUSH1 0xE0 DUP5 ADD MLOAD DUP6 DUP3 SUB PUSH1 0xE0 DUP8 ADD MSTORE PUSH2 0x277C JUMP JUMPDEST PUSH2 0x100 DUP1 DUP5 ADD MLOAD SWAP1 DUP6 DUP4 SUB SWAP1 DUP7 ADD MSTORE PUSH2 0x277C JUMP JUMPDEST SWAP2 PUSH2 0x120 DUP8 DUP1 PUSH1 0xA0 SHL SUB DUP2 DUP5 ADD MLOAD AND SWAP1 DUP3 ADD MSTORE PUSH2 0x140 DUP1 SWAP3 ADD MLOAD SWAP2 DUP2 DUP5 SUB SWAP2 ADD MSTORE PUSH2 0x277C JUMP JUMPDEST SWAP7 ADD SWAP3 ADD SWAP7 ADD SWAP6 SWAP3 SWAP2 SWAP1 SWAP3 PUSH2 0x886 JUMP JUMPDEST PUSH1 0xB DUP7 PUSH1 0x1 SWAP3 PUSH2 0x9A7 DUP6 SWAP11 SWAP10 SWAP11 PUSH2 0x32C1 JUMP JUMPDEST DUP2 MSTORE ADD SWAP3 ADD SWAP3 ADD SWAP2 SWAP1 SWAP6 SWAP5 SWAP6 PUSH2 0x858 JUMP JUMPDEST CALLVALUE PUSH2 0x250 JUMPI PUSH2 0x100 CALLDATASIZE PUSH1 0x3 NOT ADD SLT PUSH2 0x250 JUMPI PUSH1 0x4 CALLDATALOAD PUSH1 0x24 CALLDATALOAD PUSH1 0x1 PUSH1 0x1 PUSH1 0x40 SHL SUB DUP2 GT PUSH2 0x250 JUMPI PUSH2 0x9EC SWAP1 CALLDATASIZE SWAP1 PUSH1 0x4 ADD PUSH2 0x2627 JUMP JUMPDEST SWAP1 PUSH1 0x44 CALLDATALOAD PUSH1 0x1 PUSH1 0x1 PUSH1 0x40 SHL SUB DUP2 GT PUSH2 0x250 JUMPI PUSH2 0xA0C SWAP1 CALLDATASIZE SWAP1 PUSH1 0x4 ADD PUSH2 0x2627 JUMP JUMPDEST SWAP2 PUSH1 0x64 CALLDATALOAD PUSH1 0x1 PUSH1 0x1 PUSH1 0x40 SHL SUB DUP2 GT PUSH2 0x250 JUMPI PUSH2 0xA2C SWAP1 CALLDATASIZE SWAP1 PUSH1 0x4 ADD PUSH2 0x2627 JUMP JUMPDEST PUSH1 0x84 CALLDATALOAD PUSH1 0x1 PUSH1 0x1 PUSH1 0x40 SHL SUB DUP2 GT PUSH2 0x250 JUMPI PUSH2 0xA4B SWAP1 CALLDATASIZE SWAP1 PUSH1 0x4 ADD PUSH2 0x2627 JUMP JUMPDEST PUSH1 0xA4 CALLDATALOAD PUSH1 0x1 PUSH1 0x1 PUSH1 0x40 SHL SUB DUP2 GT PUSH2 0x250 JUMPI PUSH2 0xA6A SWAP1 CALLDATASIZE SWAP1 PUSH1 0x4 ADD PUSH2 0x2627 JUMP JUMPDEST SWAP2 PUSH1 0xC4 CALLDATALOAD PUSH1 0x1 PUSH1 0x1 PUSH1 0x40 SHL SUB DUP2 GT PUSH2 0x250 JUMPI PUSH2 0xA8A SWAP1 CALLDATASIZE SWAP1 PUSH1 0x4 ADD PUSH2 0x2627 JUMP JUMPDEST SWAP6 PUSH1 0xE4 CALLDATALOAD PUSH1 0x1 PUSH1 0x1 PUSH1 0x40 SHL SUB DUP2 GT PUSH2 0x250 JUMPI PUSH2 0xAAA SWAP1 CALLDATASIZE SWAP1 PUSH1 0x4 ADD PUSH2 0x2627 JUMP JUMPDEST SWAP6 DUP1 PUSH1 0x0 MSTORE PUSH1 0x0 PUSH1 0x20 MSTORE PUSH2 0xACF PUSH1 0x1 DUP1 PUSH1 0xA0 SHL SUB PUSH1 0x9 PUSH1 0x40 PUSH1 0x0 KECCAK256 ADD SLOAD AND CALLER EQ PUSH2 0x322F JUMP JUMPDEST PUSH1 0x0 MSTORE PUSH1 0x0 PUSH1 0x20 MSTORE PUSH1 0x40 PUSH1 0x0 KECCAK256 SWAP5 DUP1 MLOAD PUSH1 0x1 PUSH1 0x1 PUSH1 0x40 SHL SUB DUP2 GT PUSH2 0xDA8 JUMPI DUP1 PUSH1 0x1 DUP9 ADD SWAP3 PUSH2 0xB07 DUP3 PUSH2 0xB01 DUP7 SLOAD PUSH2 0x269C JUMP JUMPDEST DUP7 PUSH2 0x2946 JUMP JUMPDEST PUSH1 0x20 SWAP1 PUSH1 0x1F DUP4 GT PUSH1 0x1 EQ PUSH2 0x1021 JUMPI PUSH1 0x0 SWAP3 PUSH2 0x1016 JUMPI JUMPDEST POP POP DUP2 PUSH1 0x1 SHL SWAP2 PUSH1 0x0 NOT SWAP1 PUSH1 0x3 SHL SHR NOT AND OR SWAP1 SSTORE JUMPDEST DUP1 MLOAD SWAP1 PUSH1 0x1 PUSH1 0x1 PUSH1 0x40 SHL SUB DUP3 GT PUSH2 0xDA8 JUMPI DUP2 SWAP1 PUSH2 0xB5F DUP3 PUSH2 0xB56 PUSH1 0x2 DUP11 ADD SLOAD PUSH2 0x269C JUMP JUMPDEST PUSH1 0x2 DUP11 ADD PUSH2 0x2946 JUMP JUMPDEST PUSH1 0x20 SWAP1 PUSH1 0x1F DUP4 GT PUSH1 0x1 EQ PUSH2 0xFA9 JUMPI PUSH1 0x0 SWAP3 PUSH2 0xF9E JUMPI JUMPDEST POP POP DUP2 PUSH1 0x1 SHL SWAP2 PUSH1 0x0 NOT SWAP1 PUSH1 0x3 SHL SHR NOT AND OR PUSH1 0x2 DUP6 ADD SSTORE JUMPDEST DUP1 MLOAD SWAP1 PUSH1 0x1 PUSH1 0x1 PUSH1 0x40 SHL SUB DUP3 GT PUSH2 0xDA8 JUMPI DUP2 SWAP1 PUSH2 0xBBA DUP3 PUSH2 0xBB1 PUSH1 0x3 DUP10 ADD SLOAD PUSH2 0x269C JUMP JUMPDEST PUSH1 0x3 DUP10 ADD PUSH2 0x2946 JUMP JUMPDEST PUSH1 0x20 SWAP1 PUSH1 0x1F DUP4 GT PUSH1 0x1 EQ PUSH2 0xF2C JUMPI PUSH1 0x0 SWAP3 PUSH2 0xF21 JUMPI JUMPDEST POP POP DUP2 PUSH1 0x1 SHL SWAP2 PUSH1 0x0 NOT SWAP1 PUSH1 0x3 SHL SHR NOT AND OR PUSH1 0x3 DUP5 ADD SSTORE JUMPDEST DUP1 MLOAD SWAP1 PUSH1 0x1 PUSH1 0x1 PUSH1 0x40 SHL SUB DUP3 GT PUSH2 0xDA8 JUMPI DUP2 SWAP1 PUSH2 0xC15 DUP3 PUSH2 0xC0C PUSH1 0x5 DUP9 ADD SLOAD PUSH2 0x269C JUMP JUMPDEST PUSH1 0x5 DUP9 ADD PUSH2 0x2946 JUMP JUMPDEST PUSH1 0x20 SWAP1 PUSH1 0x1F DUP4 GT PUSH1 0x1 EQ PUSH2 0xEAF JUMPI PUSH1 0x0 SWAP3 PUSH2 0xEA4 JUMPI JUMPDEST POP POP DUP2 PUSH1 0x1 SHL SWAP2 PUSH1 0x0 NOT SWAP1 PUSH1 0x3 SHL SHR NOT AND OR PUSH1 0x5 DUP4 ADD SSTORE JUMPDEST DUP1 MLOAD PUSH1 0x7 DUP4 ADD SWAP2 PUSH1 0x1 PUSH1 0x1 PUSH1 0x40 SHL SUB DUP3 GT PUSH2 0xDA8 JUMPI DUP2 SWAP1 PUSH2 0xC68 DUP3 PUSH2 0xB01 DUP7 SLOAD PUSH2 0x269C JUMP JUMPDEST PUSH1 0x20 SWAP1 PUSH1 0x1F DUP4 GT PUSH1 0x1 EQ PUSH2 0xE3E JUMPI PUSH1 0x0 SWAP3 PUSH2 0xE33 JUMPI JUMPDEST POP POP DUP2 PUSH1 0x1 SHL SWAP2 PUSH1 0x0 NOT SWAP1 PUSH1 0x3 SHL SHR NOT AND OR SWAP1 SSTORE JUMPDEST PUSH1 0x8 DUP2 ADD DUP4 MLOAD PUSH1 0x1 PUSH1 0x1 PUSH1 0x40 SHL SUB DUP2 GT PUSH2 0xDA8 JUMPI PUSH2 0xCBB DUP2 PUSH2 0xCB5 DUP5 SLOAD PUSH2 0x269C JUMP JUMPDEST DUP5 PUSH2 0x2946 JUMP JUMPDEST PUSH1 0x20 PUSH1 0x1F DUP3 GT PUSH1 0x1 EQ PUSH2 0xDC9 JUMPI DUP2 SWAP1 PUSH1 0x6 SWAP6 SWAP7 PUSH1 0x0 SWAP3 PUSH2 0xDBE JUMPI JUMPDEST POP POP DUP2 PUSH1 0x1 SHL SWAP2 PUSH1 0x0 NOT SWAP1 PUSH1 0x3 SHL SHR NOT AND OR SWAP1 SSTORE JUMPDEST ADD DUP2 MLOAD PUSH1 0x1 PUSH1 0x1 PUSH1 0x40 SHL SUB DUP2 GT PUSH2 0xDA8 JUMPI PUSH2 0xD0A DUP2 PUSH2 0xCB5 DUP5 SLOAD PUSH2 0x269C JUMP JUMPDEST PUSH1 0x20 SWAP3 PUSH1 0x1F DUP3 GT PUSH1 0x1 EQ PUSH2 0xD47 JUMPI SWAP3 DUP2 SWAP3 SWAP4 PUSH1 0x0 SWAP3 PUSH2 0xD3C JUMPI JUMPDEST POP POP PUSH1 0x0 NOT PUSH1 0x3 DUP4 SWAP1 SHL SHR NOT AND PUSH1 0x1 SWAP2 SWAP1 SWAP2 SHL OR SWAP1 SSTORE STOP JUMPDEST ADD MLOAD SWAP1 POP DUP4 DUP1 PUSH2 0xD24 JUMP JUMPDEST PUSH1 0x1F NOT DUP3 AND SWAP4 DUP4 PUSH1 0x0 MSTORE PUSH1 0x20 PUSH1 0x0 KECCAK256 SWAP2 PUSH1 0x0 JUMPDEST DUP7 DUP2 LT PUSH2 0xD90 JUMPI POP DUP4 PUSH1 0x1 SWAP6 SWAP7 LT PUSH2 0xD77 JUMPI JUMPDEST POP POP POP DUP2 SHL ADD SWAP1 SSTORE STOP JUMPDEST ADD MLOAD PUSH1 0x0 NOT PUSH1 0xF8 DUP5 PUSH1 0x3 SHL AND SHR NOT AND SWAP1 SSTORE DUP4 DUP1 DUP1 PUSH2 0xD6D JUMP JUMPDEST SWAP2 SWAP3 PUSH1 0x20 PUSH1 0x1 DUP2 SWAP3 DUP7 DUP6 ADD MLOAD DUP2 SSTORE ADD SWAP5 ADD SWAP3 ADD PUSH2 0xD5A JUMP JUMPDEST PUSH4 0x4E487B71 PUSH1 0xE0 SHL PUSH1 0x0 MSTORE PUSH1 0x41 PUSH1 0x4 MSTORE PUSH1 0x24 PUSH1 0x0 REVERT JUMPDEST ADD MLOAD SWAP1 POP DUP7 DUP1 PUSH2 0xCD6 JUMP JUMPDEST PUSH1 0x1F NOT DUP3 AND SWAP6 DUP4 PUSH1 0x0 MSTORE PUSH1 0x20 PUSH1 0x0 KECCAK256 SWAP7 PUSH1 0x0 JUMPDEST DUP2 DUP2 LT PUSH2 0xE1B JUMPI POP SWAP2 PUSH1 0x6 SWAP7 SWAP8 SWAP2 DUP5 PUSH1 0x1 SWAP6 SWAP5 LT PUSH2 0xE02 JUMPI JUMPDEST POP POP POP DUP2 SHL ADD SWAP1 SSTORE PUSH2 0xCEB JUMP JUMPDEST ADD MLOAD PUSH1 0x0 NOT PUSH1 0xF8 DUP5 PUSH1 0x3 SHL AND SHR NOT AND SWAP1 SSTORE DUP7 DUP1 DUP1 PUSH2 0xDF5 JUMP JUMPDEST DUP4 DUP4 ADD MLOAD DUP10 SSTORE PUSH1 0x1 SWAP1 SWAP9 ADD SWAP8 PUSH1 0x20 SWAP4 DUP5 ADD SWAP4 ADD PUSH2 0xDDC JUMP JUMPDEST ADD MLOAD SWAP1 POP DUP7 DUP1 PUSH2 0xC7E JUMP JUMPDEST PUSH1 0x0 DUP6 DUP2 MSTORE PUSH1 0x20 DUP2 KECCAK256 SWAP4 POP PUSH1 0x1F NOT DUP6 AND SWAP1 JUMPDEST DUP2 DUP2 LT PUSH2 0xE8C JUMPI POP SWAP1 DUP5 PUSH1 0x1 SWAP6 SWAP5 SWAP4 SWAP3 LT PUSH2 0xE73 JUMPI JUMPDEST POP POP POP DUP2 SHL ADD SWAP1 SSTORE PUSH2 0xC93 JUMP JUMPDEST ADD MLOAD PUSH1 0x0 NOT PUSH1 0xF8 DUP5 PUSH1 0x3 SHL AND SHR NOT AND SWAP1 SSTORE DUP7 DUP1 DUP1 PUSH2 0xE66 JUMP JUMPDEST SWAP3 SWAP4 PUSH1 0x20 PUSH1 0x1 DUP2 SWAP3 DUP8 DUP7 ADD MLOAD DUP2 SSTORE ADD SWAP6 ADD SWAP4 ADD PUSH2 0xE50 JUMP JUMPDEST ADD MLOAD SWAP1 POP DUP7 DUP1 PUSH2 0xC2B JUMP JUMPDEST SWAP3 POP PUSH1 0x5 DUP6 ADD PUSH1 0x0 MSTORE PUSH1 0x20 PUSH1 0x0 KECCAK256 SWAP1 PUSH1 0x0 SWAP4 JUMPDEST PUSH1 0x1F NOT DUP5 AND DUP6 LT PUSH2 0xF06 JUMPI PUSH1 0x1 SWAP5 POP DUP4 PUSH1 0x1F NOT DUP2 AND LT PUSH2 0xEED JUMPI JUMPDEST POP POP POP DUP2 SHL ADD PUSH1 0x5 DUP4 ADD SSTORE PUSH2 0xC43 JUMP JUMPDEST ADD MLOAD PUSH1 0x0 NOT PUSH1 0xF8 DUP5 PUSH1 0x3 SHL AND SHR NOT AND SWAP1 SSTORE DUP7 DUP1 DUP1 PUSH2 0xEDD JUMP JUMPDEST DUP2 DUP2 ADD MLOAD DUP4 SSTORE PUSH1 0x20 SWAP5 DUP6 ADD SWAP5 PUSH1 0x1 SWAP1 SWAP4 ADD SWAP3 SWAP1 SWAP2 ADD SWAP1 PUSH2 0xEC2 JUMP JUMPDEST ADD MLOAD SWAP1 POP DUP8 DUP1 PUSH2 0xBD0 JUMP JUMPDEST SWAP3 POP PUSH1 0x3 DUP7 ADD PUSH1 0x0 MSTORE PUSH1 0x20 PUSH1 0x0 KECCAK256 SWAP1 PUSH1 0x0 SWAP4 JUMPDEST PUSH1 0x1F NOT DUP5 AND DUP6 LT PUSH2 0xF83 JUMPI PUSH1 0x1 SWAP5 POP DUP4 PUSH1 0x1F NOT DUP2 AND LT PUSH2 0xF6A JUMPI JUMPDEST POP POP POP DUP2 SHL ADD PUSH1 0x3 DUP5 ADD SSTORE PUSH2 0xBE8 JUMP JUMPDEST ADD MLOAD PUSH1 0x0 NOT PUSH1 0xF8 DUP5 PUSH1 0x3 SHL AND SHR NOT AND SWAP1 SSTORE DUP8 DUP1 DUP1 PUSH2 0xF5A JUMP JUMPDEST DUP2 DUP2 ADD MLOAD DUP4 SSTORE PUSH1 0x20 SWAP5 DUP6 ADD SWAP5 PUSH1 0x1 SWAP1 SWAP4 ADD SWAP3 SWAP1 SWAP2 ADD SWAP1 PUSH2 0xF3F JUMP JUMPDEST ADD MLOAD SWAP1 POP DUP9 DUP1 PUSH2 0xB75 JUMP JUMPDEST PUSH1 0x2 DUP9 ADD PUSH1 0x0 SWAP1 DUP2 MSTORE PUSH1 0x20 DUP2 KECCAK256 SWAP4 POP PUSH1 0x1F NOT DUP6 AND SWAP1 JUMPDEST DUP2 DUP2 LT PUSH2 0xFFE JUMPI POP SWAP1 DUP5 PUSH1 0x1 SWAP6 SWAP5 SWAP4 SWAP3 LT PUSH2 0xFE5 JUMPI JUMPDEST POP POP POP DUP2 SHL ADD PUSH1 0x2 DUP6 ADD SSTORE PUSH2 0xB8D JUMP JUMPDEST ADD MLOAD PUSH1 0x0 NOT PUSH1 0xF8 DUP5 PUSH1 0x3 SHL AND SHR NOT AND SWAP1 SSTORE DUP9 DUP1 DUP1 PUSH2 0xFD5 JUMP JUMPDEST SWAP3 SWAP4 PUSH1 0x20 PUSH1 0x1 DUP2 SWAP3 DUP8 DUP7 ADD MLOAD DUP2 SSTORE ADD SWAP6 ADD SWAP4 ADD PUSH2 0xFBF JUMP JUMPDEST ADD MLOAD SWAP1 POP DUP11 DUP1 PUSH2 0xB1D JUMP JUMPDEST SWAP3 POP DUP4 PUSH1 0x0 MSTORE PUSH1 0x20 PUSH1 0x0 KECCAK256 SWAP1 PUSH1 0x0 SWAP4 JUMPDEST PUSH1 0x1F NOT DUP5 AND DUP6 LT PUSH2 0x1072 JUMPI PUSH1 0x1 SWAP5 POP DUP4 PUSH1 0x1F NOT DUP2 AND LT PUSH2 0x1059 JUMPI JUMPDEST POP POP POP DUP2 SHL ADD SWAP1 SSTORE PUSH2 0xB32 JUMP JUMPDEST ADD MLOAD PUSH1 0x0 NOT PUSH1 0xF8 DUP5 PUSH1 0x3 SHL AND SHR NOT AND SWAP1 SSTORE DUP11 DUP1 DUP1 PUSH2 0x104C JUMP JUMPDEST DUP2 DUP2 ADD MLOAD DUP4 SSTORE PUSH1 0x20 SWAP5 DUP6 ADD SWAP5 PUSH1 0x1 SWAP1 SWAP4 ADD SWAP3 SWAP1 SWAP2 ADD SWAP1 PUSH2 0x1031 JUMP JUMPDEST CALLVALUE PUSH2 0x250 JUMPI PUSH1 0x20 CALLDATASIZE PUSH1 0x3 NOT ADD SLT PUSH2 0x250 JUMPI PUSH2 0x10B2 PUSH2 0x10AC PUSH1 0x4 CALLDATALOAD PUSH2 0x267D JUMP JUMPDEST POP PUSH2 0x32C1 JUMP JUMPDEST PUSH2 0x140 DUP2 ADD MLOAD PUSH1 0x20 DUP2 MLOAD SWAP2 ADD KECCAK256 PUSH2 0x10C7 PUSH2 0x290B JUMP JUMPDEST PUSH1 0x20 DUP2 MLOAD SWAP2 ADD KECCAK256 EQ PUSH1 0x0 EQ PUSH2 0x1B59 JUMPI PUSH1 0xE0 DUP2 ADD MLOAD SWAP1 PUSH2 0x100 DUP2 ADD MLOAD PUSH1 0x20 DUP3 ADD MLOAD SWAP1 DUP3 MLOAD SWAP4 PUSH1 0x80 DUP5 ADD MLOAD PUSH1 0x40 DUP6 ADD MLOAD SWAP1 PUSH1 0x60 DUP7 ADD MLOAD SWAP1 PUSH1 0xA0 DUP8 ADD MLOAD SWAP2 PUSH1 0xC0 DUP9 ADD MLOAD SWAP4 PUSH1 0x1 DUP1 PUSH1 0xA0 SHL SUB PUSH2 0x120 DUP11 ADD MLOAD AND SWAP8 PUSH1 0x40 MLOAD SWAP11 PUSH2 0x1124 DUP13 PUSH2 0x25CF JUMP JUMPDEST DUP12 MSTORE PUSH1 0x20 DUP12 ADD MSTORE PUSH1 0x40 DUP11 ADD MSTORE PUSH1 0x60 DUP10 ADD MSTORE PUSH1 0x80 DUP9 ADD MSTORE PUSH1 0xA0 DUP8 ADD MSTORE PUSH1 0xC0 DUP7 ADD MSTORE PUSH1 0xE0 DUP6 ADD MSTORE PUSH2 0x100 DUP5 ADD MSTORE PUSH2 0x120 DUP4 ADD MSTORE PUSH1 0x1 PUSH2 0x140 DUP4 ADD MSTORE PUSH2 0x1168 PUSH1 0x2 SLOAD PUSH2 0x3384 JUMP JUMPDEST PUSH1 0x2 SSTORE DUP1 MLOAD PUSH1 0x3 SLOAD PUSH1 0x1 PUSH1 0x40 SHL DUP2 LT ISZERO PUSH2 0xDA8 JUMPI DUP1 PUSH1 0x1 PUSH2 0x118C SWAP3 ADD PUSH1 0x3 SSTORE PUSH2 0x28F0 JUMP JUMPDEST SWAP1 SWAP2 DUP3 SLOAD SWAP1 DUP3 PUSH1 0x3 SHL SHL SWAP2 PUSH1 0x0 NOT SWAP1 PUSH1 0x3 SHL SHL NOT AND OR SWAP1 SSTORE DUP1 MLOAD PUSH1 0x0 MSTORE PUSH1 0x0 PUSH1 0x20 MSTORE PUSH1 0x40 PUSH1 0x0 KECCAK256 SWAP1 DUP3 MLOAD DUP3 SSTORE PUSH1 0x20 DUP4 ADD MLOAD SWAP3 DUP4 MLOAD PUSH1 0x1 PUSH1 0x1 PUSH1 0x40 SHL SUB DUP2 GT PUSH2 0xDA8 JUMPI PUSH2 0x11E8 DUP2 PUSH2 0x11DF PUSH1 0x1 DUP8 ADD SLOAD PUSH2 0x269C JUMP JUMPDEST PUSH1 0x1 DUP8 ADD PUSH2 0x2946 JUMP JUMPDEST PUSH1 0x20 PUSH1 0x1F DUP3 GT PUSH1 0x1 EQ PUSH2 0x1AEA JUMPI DUP2 SWAP3 SWAP4 SWAP5 SWAP6 PUSH1 0x0 SWAP3 PUSH2 0x1ADF JUMPI JUMPDEST POP POP DUP2 PUSH1 0x1 SHL SWAP2 PUSH1 0x0 NOT SWAP1 PUSH1 0x3 SHL SHR NOT AND OR PUSH1 0x1 DUP5 ADD SSTORE JUMPDEST PUSH1 0x40 DUP2 ADD MLOAD SWAP3 DUP4 MLOAD PUSH1 0x1 PUSH1 0x1 PUSH1 0x40 SHL SUB DUP2 GT PUSH2 0xDA8 JUMPI PUSH2 0x124A DUP2 PUSH2 0x1241 PUSH1 0x2 DUP6 ADD SLOAD PUSH2 0x269C JUMP JUMPDEST PUSH1 0x2 DUP6 ADD PUSH2 0x2946 JUMP JUMPDEST PUSH1 0x20 PUSH1 0x1F DUP3 GT PUSH1 0x1 EQ PUSH2 0x1A70 JUMPI DUP2 SWAP3 SWAP4 SWAP5 SWAP6 PUSH1 0x0 SWAP3 PUSH2 0x1A65 JUMPI JUMPDEST POP POP DUP2 PUSH1 0x1 SHL SWAP2 PUSH1 0x0 NOT SWAP1 PUSH1 0x3 SHL SHR NOT AND OR PUSH1 0x2 DUP3 ADD SSTORE JUMPDEST PUSH1 0x60 DUP3 ADD MLOAD SWAP3 DUP4 MLOAD PUSH1 0x1 PUSH1 0x1 PUSH1 0x40 SHL SUB DUP2 GT PUSH2 0xDA8 JUMPI PUSH2 0x12AC DUP2 PUSH2 0x12A3 PUSH1 0x3 DUP7 ADD SLOAD PUSH2 0x269C JUMP JUMPDEST PUSH1 0x3 DUP7 ADD PUSH2 0x2946 JUMP JUMPDEST PUSH1 0x20 PUSH1 0x1F DUP3 GT PUSH1 0x1 EQ PUSH2 0x19F6 JUMPI DUP2 SWAP3 SWAP4 SWAP5 SWAP6 PUSH1 0x0 SWAP3 PUSH2 0x19EB JUMPI JUMPDEST POP POP DUP2 PUSH1 0x1 SHL SWAP2 PUSH1 0x0 NOT SWAP1 PUSH1 0x3 SHL SHR NOT AND OR PUSH1 0x3 DUP4 ADD SSTORE JUMPDEST PUSH1 0x80 DUP4 ADD MLOAD SWAP3 DUP4 MLOAD PUSH1 0x1 PUSH1 0x1 PUSH1 0x40 SHL SUB DUP2 GT PUSH2 0xDA8 JUMPI PUSH2 0x130E DUP2 PUSH2 0x1305 PUSH1 0x4 DUP8 ADD SLOAD PUSH2 0x269C JUMP JUMPDEST PUSH1 0x4 DUP8 ADD PUSH2 0x2946 JUMP JUMPDEST PUSH1 0x20 PUSH1 0x1F DUP3 GT PUSH1 0x1 EQ PUSH2 0x197C JUMPI DUP2 SWAP3 SWAP4 SWAP5 SWAP6 PUSH1 0x0 SWAP3 PUSH2 0x1971 JUMPI JUMPDEST POP POP DUP2 PUSH1 0x1 SHL SWAP2 PUSH1 0x0 NOT SWAP1 PUSH1 0x3 SHL SHR NOT AND OR PUSH1 0x4 DUP5 ADD SSTORE JUMPDEST PUSH1 0xA0 DUP2 ADD MLOAD SWAP3 DUP4 MLOAD PUSH1 0x1 PUSH1 0x1 PUSH1 0x40 SHL SUB DUP2 GT PUSH2 0xDA8 JUMPI PUSH2 0x1370 DUP2 PUSH2 0x1367 PUSH1 0x5 DUP6 ADD SLOAD PUSH2 0x269C JUMP JUMPDEST PUSH1 0x5 DUP6 ADD PUSH2 0x2946 JUMP JUMPDEST PUSH1 0x20 PUSH1 0x1F DUP3 GT PUSH1 0x1 EQ PUSH2 0x1902 JUMPI DUP2 SWAP3 SWAP4 SWAP5 SWAP6 PUSH1 0x0 SWAP3 PUSH2 0x18F7 JUMPI JUMPDEST POP POP DUP2 PUSH1 0x1 SHL SWAP2 PUSH1 0x0 NOT SWAP1 PUSH1 0x3 SHL SHR NOT AND OR PUSH1 0x5 DUP3 ADD SSTORE JUMPDEST PUSH1 0xC0 DUP3 ADD MLOAD SWAP3 DUP4 MLOAD PUSH1 0x1 PUSH1 0x1 PUSH1 0x40 SHL SUB DUP2 GT PUSH2 0xDA8 JUMPI PUSH2 0x13D2 DUP2 PUSH2 0x13C9 PUSH1 0x6 DUP7 ADD SLOAD PUSH2 0x269C JUMP JUMPDEST PUSH1 0x6 DUP7 ADD PUSH2 0x2946 JUMP JUMPDEST PUSH1 0x20 PUSH1 0x1F DUP3 GT PUSH1 0x1 EQ PUSH2 0x1888 JUMPI DUP2 SWAP3 SWAP4 SWAP5 SWAP6 PUSH1 0x0 SWAP3 PUSH2 0x187D JUMPI JUMPDEST POP POP DUP2 PUSH1 0x1 SHL SWAP2 PUSH1 0x0 NOT SWAP1 PUSH1 0x3 SHL SHR NOT AND OR PUSH1 0x6 DUP4 ADD SSTORE JUMPDEST PUSH1 0xE0 DUP4 ADD MLOAD SWAP3 DUP4 MLOAD PUSH1 0x1 PUSH1 0x1 PUSH1 0x40 SHL SUB DUP2 GT PUSH2 0xDA8 JUMPI PUSH2 0x1434 DUP2 PUSH2 0x142B PUSH1 0x7 DUP8 ADD SLOAD PUSH2 0x269C JUMP JUMPDEST PUSH1 0x7 DUP8 ADD PUSH2 0x2946 JUMP JUMPDEST PUSH1 0x20 PUSH1 0x1F DUP3 GT PUSH1 0x1 EQ PUSH2 0x180E JUMPI DUP2 SWAP3 SWAP4 SWAP5 SWAP6 PUSH1 0x0 SWAP3 PUSH2 0x1803 JUMPI JUMPDEST POP POP DUP2 PUSH1 0x1 SHL SWAP2 PUSH1 0x0 NOT SWAP1 PUSH1 0x3 SHL SHR NOT AND OR PUSH1 0x7 DUP5 ADD SSTORE JUMPDEST PUSH2 0x100 DUP2 ADD MLOAD SWAP3 DUP4 MLOAD PUSH1 0x1 PUSH1 0x1 PUSH1 0x40 SHL SUB DUP2 GT PUSH2 0xDA8 JUMPI PUSH2 0x1497 DUP2 PUSH2 0x148E PUSH1 0x8 DUP6 ADD SLOAD PUSH2 0x269C JUMP JUMPDEST PUSH1 0x8 DUP6 ADD PUSH2 0x2946 JUMP JUMPDEST PUSH1 0x20 PUSH1 0x1F DUP3 GT PUSH1 0x1 EQ PUSH2 0x1790 JUMPI DUP2 SWAP1 PUSH1 0x9 SWAP5 SWAP6 SWAP7 PUSH1 0x0 SWAP3 PUSH2 0x1785 JUMPI JUMPDEST POP POP DUP2 PUSH1 0x1 SHL SWAP2 PUSH1 0x0 NOT SWAP1 PUSH1 0x3 SHL SHR NOT AND OR PUSH1 0x8 DUP3 ADD SSTORE JUMPDEST PUSH2 0x120 DUP1 DUP5 ADD MLOAD SWAP3 SWAP1 SWAP2 ADD DUP1 SLOAD PUSH2 0x140 SWAP1 SWAP5 ADD MLOAD PUSH1 0x1 PUSH1 0x1 PUSH1 0xA8 SHL SUB NOT SWAP1 SWAP5 AND PUSH1 0x1 PUSH1 0x1 PUSH1 0xA0 SHL SUB SWAP4 DUP5 AND OR SWAP4 ISZERO ISZERO PUSH1 0xA0 SHL PUSH1 0xFF PUSH1 0xA0 SHL AND SWAP4 SWAP1 SWAP4 OR SWAP1 SWAP3 SSTORE DUP3 MLOAD SWAP2 DUP4 ADD MLOAD AND SWAP1 PUSH32 0xCB4990052F95F6057496D19524F6C3163F50AF9F33F2C15B092928E03414323E PUSH1 0x0 DUP1 LOG3 JUMPDEST PUSH1 0x4 SLOAD DUP1 PUSH1 0x4 CALLDATALOAD LT ISZERO PUSH2 0x1750 JUMPI PUSH1 0x0 NOT SWAP1 DUP1 DUP3 ADD SWAP1 DUP2 GT PUSH2 0x173A JUMPI PUSH2 0x155C SWAP1 PUSH2 0x267D JUMP JUMPDEST POP PUSH2 0x1568 PUSH1 0x4 CALLDATALOAD PUSH2 0x267D JUMP JUMPDEST PUSH2 0x164D JUMPI DUP2 DUP2 SUB PUSH2 0x1679 JUMPI JUMPDEST POP POP PUSH1 0x4 SLOAD DUP1 ISZERO PUSH2 0x1663 JUMPI ADD PUSH2 0x1589 DUP2 PUSH2 0x267D JUMP JUMPDEST PUSH2 0x164D JUMPI PUSH1 0xA DUP2 PUSH1 0x0 PUSH2 0x1604 SWAP4 SSTORE PUSH2 0x15A3 PUSH1 0x1 DUP3 ADD PUSH2 0x346B JUMP JUMPDEST PUSH2 0x15AF PUSH1 0x2 DUP3 ADD PUSH2 0x346B JUMP JUMPDEST PUSH2 0x15BB PUSH1 0x3 DUP3 ADD PUSH2 0x346B JUMP JUMPDEST PUSH2 0x15C7 PUSH1 0x4 DUP3 ADD PUSH2 0x346B JUMP JUMPDEST PUSH2 0x15D3 PUSH1 0x5 DUP3 ADD PUSH2 0x346B JUMP JUMPDEST PUSH2 0x15DF PUSH1 0x6 DUP3 ADD PUSH2 0x346B JUMP JUMPDEST PUSH2 0x15EB PUSH1 0x7 DUP3 ADD PUSH2 0x346B JUMP JUMPDEST PUSH2 0x15F7 PUSH1 0x8 DUP3 ADD PUSH2 0x346B JUMP JUMPDEST PUSH1 0x0 PUSH1 0x9 DUP3 ADD SSTORE ADD PUSH2 0x346B JUMP JUMPDEST PUSH1 0x4 SSTORE PUSH2 0x140 DUP2 MLOAD SWAP2 ADD MLOAD SWAP1 PUSH32 0xBF3747916BBE426E0FD532A54A21BCF371C5CA55C33ADBFD8B43756BB1BEA938 PUSH1 0x40 MLOAD PUSH1 0x20 DUP2 MSTORE DUP1 PUSH2 0x1648 CALLER SWAP6 PUSH1 0x20 DUP4 ADD SWAP1 PUSH2 0x277C JUMP JUMPDEST SUB SWAP1 LOG3 STOP JUMPDEST PUSH4 0x4E487B71 PUSH1 0xE0 SHL PUSH1 0x0 MSTORE PUSH1 0x0 PUSH1 0x4 MSTORE PUSH1 0x24 PUSH1 0x0 REVERT JUMPDEST PUSH4 0x4E487B71 PUSH1 0xE0 SHL PUSH1 0x0 MSTORE PUSH1 0x31 PUSH1 0x4 MSTORE PUSH1 0x24 PUSH1 0x0 REVERT JUMPDEST PUSH1 0xA DUP1 DUP4 PUSH2 0x1733 SWAP5 SLOAD DUP5 SSTORE PUSH2 0x1694 PUSH1 0x1 DUP3 ADD PUSH1 0x1 DUP7 ADD PUSH2 0x3393 JUMP JUMPDEST PUSH2 0x16A4 PUSH1 0x2 DUP3 ADD PUSH1 0x2 DUP7 ADD PUSH2 0x3393 JUMP JUMPDEST PUSH2 0x16B4 PUSH1 0x3 DUP3 ADD PUSH1 0x3 DUP7 ADD PUSH2 0x3393 JUMP JUMPDEST PUSH2 0x16C4 PUSH1 0x4 DUP3 ADD PUSH1 0x4 DUP7 ADD PUSH2 0x3393 JUMP JUMPDEST PUSH2 0x16D4 PUSH1 0x5 DUP3 ADD PUSH1 0x5 DUP7 ADD PUSH2 0x3393 JUMP JUMPDEST PUSH2 0x16E4 PUSH1 0x6 DUP3 ADD PUSH1 0x6 DUP7 ADD PUSH2 0x3393 JUMP JUMPDEST PUSH2 0x16F4 PUSH1 0x7 DUP3 ADD PUSH1 0x7 DUP7 ADD PUSH2 0x3393 JUMP JUMPDEST PUSH2 0x1704 PUSH1 0x8 DUP3 ADD PUSH1 0x8 DUP7 ADD PUSH2 0x3393 JUMP JUMPDEST PUSH1 0x9 DUP2 DUP2 ADD SLOAD SWAP1 DUP6 ADD DUP1 SLOAD PUSH1 0x1 PUSH1 0x1 PUSH1 0xA0 SHL SUB NOT AND PUSH1 0x1 PUSH1 0x1 PUSH1 0xA0 SHL SUB SWAP3 SWAP1 SWAP3 AND SWAP2 SWAP1 SWAP2 OR SWAP1 SSTORE ADD SWAP2 ADD PUSH2 0x3393 JUMP JUMPDEST DUP3 DUP1 PUSH2 0x1574 JUMP JUMPDEST PUSH4 0x4E487B71 PUSH1 0xE0 SHL PUSH1 0x0 MSTORE PUSH1 0x11 PUSH1 0x4 MSTORE PUSH1 0x24 PUSH1 0x0 REVERT JUMPDEST PUSH1 0x40 MLOAD PUSH3 0x461BCD PUSH1 0xE5 SHL DUP2 MSTORE PUSH1 0x20 PUSH1 0x4 DUP3 ADD MSTORE PUSH1 0xD PUSH1 0x24 DUP3 ADD MSTORE PUSH13 0x92DCECC2D8D2C840D2DCC8CAF PUSH1 0x9B SHL PUSH1 0x44 DUP3 ADD MSTORE PUSH1 0x64 SWAP1 REVERT JUMPDEST ADD MLOAD SWAP1 POP DUP7 DUP1 PUSH2 0x14B3 JUMP JUMPDEST PUSH1 0x8 DUP4 ADD PUSH1 0x0 MSTORE PUSH1 0x20 PUSH1 0x0 KECCAK256 SWAP6 PUSH1 0x0 JUMPDEST PUSH1 0x1F NOT DUP5 AND DUP2 LT PUSH2 0x17EB JUMPI POP SWAP6 DUP3 SWAP2 PUSH1 0x9 SWAP6 SWAP7 SWAP8 PUSH1 0x1 SWAP5 PUSH1 0x1F NOT DUP2 AND LT PUSH2 0x17D2 JUMPI JUMPDEST POP POP POP DUP2 SHL ADD PUSH1 0x8 DUP3 ADD SSTORE PUSH2 0x14CB JUMP JUMPDEST ADD MLOAD PUSH1 0x0 NOT PUSH1 0xF8 DUP5 PUSH1 0x3 SHL AND SHR NOT AND SWAP1 SSTORE DUP7 DUP1 DUP1 PUSH2 0x17C2 JUMP JUMPDEST DUP3 DUP3 ADD MLOAD DUP9 SSTORE PUSH1 0x1 SWAP1 SWAP8 ADD SWAP7 PUSH1 0x20 SWAP3 DUP4 ADD SWAP3 ADD PUSH2 0x17A0 JUMP JUMPDEST ADD MLOAD SWAP1 POP DUP6 DUP1 PUSH2 0x144E JUMP JUMPDEST PUSH1 0x7 DUP6 ADD PUSH1 0x0 MSTORE PUSH1 0x20 PUSH1 0x0 KECCAK256 SWAP1 PUSH1 0x0 JUMPDEST PUSH1 0x1F NOT DUP5 AND DUP2 LT PUSH2 0x1865 JUMPI POP PUSH1 0x1 SWAP4 SWAP5 SWAP6 SWAP7 DUP4 PUSH1 0x1F NOT DUP2 AND LT PUSH2 0x184C JUMPI JUMPDEST POP POP POP DUP2 SHL ADD PUSH1 0x7 DUP5 ADD SSTORE PUSH2 0x1466 JUMP JUMPDEST ADD MLOAD PUSH1 0x0 NOT PUSH1 0xF8 DUP5 PUSH1 0x3 SHL AND SHR NOT AND SWAP1 SSTORE DUP6 DUP1 DUP1 PUSH2 0x183C JUMP JUMPDEST SWAP1 SWAP2 PUSH1 0x20 PUSH1 0x1 DUP2 SWAP3 DUP6 DUP12 ADD MLOAD DUP2 SSTORE ADD SWAP4 ADD SWAP2 ADD PUSH2 0x181E JUMP JUMPDEST ADD MLOAD SWAP1 POP DUP6 DUP1 PUSH2 0x13EC JUMP JUMPDEST PUSH1 0x6 DUP5 ADD PUSH1 0x0 MSTORE PUSH1 0x20 PUSH1 0x0 KECCAK256 SWAP1 PUSH1 0x0 JUMPDEST PUSH1 0x1F NOT DUP5 AND DUP2 LT PUSH2 0x18DF JUMPI POP PUSH1 0x1 SWAP4 SWAP5 SWAP6 SWAP7 DUP4 PUSH1 0x1F NOT DUP2 AND LT PUSH2 0x18C6 JUMPI JUMPDEST POP POP POP DUP2 SHL ADD PUSH1 0x6 DUP4 ADD SSTORE PUSH2 0x1404 JUMP JUMPDEST ADD MLOAD PUSH1 0x0 NOT PUSH1 0xF8 DUP5 PUSH1 0x3 SHL AND SHR NOT AND SWAP1 SSTORE DUP6 DUP1 DUP1 PUSH2 0x18B6 JUMP JUMPDEST SWAP1 SWAP2 PUSH1 0x20 PUSH1 0x1 DUP2 SWAP3 DUP6 DUP12 ADD MLOAD DUP2 SSTORE ADD SWAP4 ADD SWAP2 ADD PUSH2 0x1898 JUMP JUMPDEST ADD MLOAD SWAP1 POP DUP6 DUP1 PUSH2 0x138A JUMP JUMPDEST PUSH1 0x5 DUP4 ADD PUSH1 0x0 MSTORE PUSH1 0x20 PUSH1 0x0 KECCAK256 SWAP1 PUSH1 0x0 JUMPDEST PUSH1 0x1F NOT DUP5 AND DUP2 LT PUSH2 0x1959 JUMPI POP PUSH1 0x1 SWAP4 SWAP5 SWAP6 SWAP7 DUP4 PUSH1 0x1F NOT DUP2 AND LT PUSH2 0x1940 JUMPI JUMPDEST POP POP POP DUP2 SHL ADD PUSH1 0x5 DUP3 ADD SSTORE PUSH2 0x13A2 JUMP JUMPDEST ADD MLOAD PUSH1 0x0 NOT PUSH1 0xF8 DUP5 PUSH1 0x3 SHL AND SHR NOT AND SWAP1 SSTORE DUP6 DUP1 DUP1 PUSH2 0x1930 JUMP JUMPDEST SWAP1 SWAP2 PUSH1 0x20 PUSH1 0x1 DUP2 SWAP3 DUP6 DUP12 ADD MLOAD DUP2 SSTORE ADD SWAP4 ADD SWAP2 ADD PUSH2 0x1912 JUMP JUMPDEST ADD MLOAD SWAP1 POP DUP6 DUP1 PUSH2 0x1328 JUMP JUMPDEST PUSH1 0x4 DUP6 ADD PUSH1 0x0 MSTORE PUSH1 0x20 PUSH1 0x0 KECCAK256 SWAP1 PUSH1 0x0 JUMPDEST PUSH1 0x1F NOT DUP5 AND DUP2 LT PUSH2 0x19D3 JUMPI POP PUSH1 0x1 SWAP4 SWAP5 SWAP6 SWAP7 DUP4 PUSH1 0x1F NOT DUP2 AND LT PUSH2 0x19BA JUMPI JUMPDEST POP POP POP DUP2 SHL ADD PUSH1 0x4 DUP5 ADD SSTORE PUSH2 0x1340 JUMP JUMPDEST ADD MLOAD PUSH1 0x0 NOT PUSH1 0xF8 DUP5 PUSH1 0x3 SHL AND SHR NOT AND SWAP1 SSTORE DUP6 DUP1 DUP1 PUSH2 0x19AA JUMP JUMPDEST SWAP1 SWAP2 PUSH1 0x20 PUSH1 0x1 DUP2 SWAP3 DUP6 DUP12 ADD MLOAD DUP2 SSTORE ADD SWAP4 ADD SWAP2 ADD PUSH2 0x198C JUMP JUMPDEST ADD MLOAD SWAP1 POP DUP6 DUP1 PUSH2 0x12C6 JUMP JUMPDEST PUSH1 0x3 DUP5 ADD PUSH1 0x0 MSTORE PUSH1 0x20 PUSH1 0x0 KECCAK256 SWAP1 PUSH1 0x0 JUMPDEST PUSH1 0x1F NOT DUP5 AND DUP2 LT PUSH2 0x1A4D JUMPI POP PUSH1 0x1 SWAP4 SWAP5 SWAP6 SWAP7 DUP4 PUSH1 0x1F NOT DUP2 AND LT PUSH2 0x1A34 JUMPI JUMPDEST POP POP POP DUP2 SHL ADD PUSH1 0x3 DUP4 ADD SSTORE PUSH2 0x12DE JUMP JUMPDEST ADD MLOAD PUSH1 0x0 NOT PUSH1 0xF8 DUP5 PUSH1 0x3 SHL AND SHR NOT AND SWAP1 SSTORE DUP6 DUP1 DUP1 PUSH2 0x1A24 JUMP JUMPDEST SWAP1 SWAP2 PUSH1 0x20 PUSH1 0x1 DUP2 SWAP3 DUP6 DUP12 ADD MLOAD DUP2 SSTORE ADD SWAP4 ADD SWAP2 ADD PUSH2 0x1A06 JUMP JUMPDEST ADD MLOAD SWAP1 POP DUP6 DUP1 PUSH2 0x1264 JUMP JUMPDEST PUSH1 0x2 DUP4 ADD PUSH1 0x0 MSTORE PUSH1 0x20 PUSH1 0x0 KECCAK256 SWAP1 PUSH1 0x0 JUMPDEST PUSH1 0x1F NOT DUP5 AND DUP2 LT PUSH2 0x1AC7 JUMPI POP PUSH1 0x1 SWAP4 SWAP5 SWAP6 SWAP7 DUP4 PUSH1 0x1F NOT DUP2 AND LT PUSH2 0x1AAE JUMPI JUMPDEST POP POP POP DUP2 SHL ADD PUSH1 0x2 DUP3 ADD SSTORE PUSH2 0x127C JUMP JUMPDEST ADD MLOAD PUSH1 0x0 NOT PUSH1 0xF8 DUP5 PUSH1 0x3 SHL AND SHR NOT AND SWAP1 SSTORE DUP6 DUP1 DUP1 PUSH2 0x1A9E JUMP JUMPDEST SWAP1 SWAP2 PUSH1 0x20 PUSH1 0x1 DUP2 SWAP3 DUP6 DUP12 ADD MLOAD DUP2 SSTORE ADD SWAP4 ADD SWAP2 ADD PUSH2 0x1A80 JUMP JUMPDEST ADD MLOAD SWAP1 POP DUP6 DUP1 PUSH2 0x1202 JUMP JUMPDEST PUSH1 0x1 DUP6 ADD PUSH1 0x0 MSTORE PUSH1 0x20 PUSH1 0x0 KECCAK256 SWAP1 PUSH1 0x0 JUMPDEST PUSH1 0x1F NOT DUP5 AND DUP2 LT PUSH2 0x1B41 JUMPI POP PUSH1 0x1 SWAP4 SWAP5 SWAP6 SWAP7 DUP4 PUSH1 0x1F NOT DUP2 AND LT PUSH2 0x1B28 JUMPI JUMPDEST POP POP POP DUP2 SHL ADD PUSH1 0x1 DUP5 ADD SSTORE PUSH2 0x121A JUMP JUMPDEST ADD MLOAD PUSH1 0x0 NOT PUSH1 0xF8 DUP5 PUSH1 0x3 SHL AND SHR NOT AND SWAP1 SSTORE DUP6 DUP1 DUP1 PUSH2 0x1B18 JUMP JUMPDEST SWAP1 SWAP2 PUSH1 0x20 PUSH1 0x1 DUP2 SWAP3 DUP6 DUP12 ADD MLOAD DUP2 SSTORE ADD SWAP4 ADD SWAP2 ADD PUSH2 0x1AFA JUMP JUMPDEST PUSH2 0x140 DUP2 ADD MLOAD PUSH1 0x20 DUP2 MLOAD SWAP2 ADD KECCAK256 PUSH2 0x1B6E PUSH2 0x3286 JUMP JUMPDEST PUSH1 0x20 DUP2 MLOAD SWAP2 ADD KECCAK256 SUB PUSH2 0x1538 JUMPI DUP1 MLOAD PUSH1 0x0 MSTORE PUSH1 0x0 PUSH1 0x20 MSTORE PUSH1 0x1 DUP1 PUSH1 0xA0 SHL SUB PUSH1 0x9 PUSH1 0x40 PUSH1 0x0 KECCAK256 ADD SLOAD AND DUP2 MLOAD PUSH1 0x0 MSTORE PUSH1 0x1 PUSH1 0x20 MSTORE PUSH1 0x1 PUSH1 0x40 PUSH1 0x0 KECCAK256 ADD DUP1 SLOAD SWAP1 PUSH1 0x1 PUSH1 0x40 SHL DUP3 LT ISZERO PUSH2 0xDA8 JUMPI PUSH1 0x1 DUP3 ADD DUP1 DUP3 SSTORE DUP3 LT ISZERO PUSH2 0x2153 JUMPI PUSH1 0x0 MSTORE PUSH1 0x20 PUSH1 0x0 KECCAK256 ADD PUSH1 0x1 DUP1 PUSH1 0xA0 SHL SUB NOT SWAP1 DUP3 DUP3 DUP3 SLOAD AND OR SWAP1 SSTORE PUSH1 0x1 DUP1 PUSH1 0xA0 SHL SUB PUSH2 0x120 DUP5 ADD MLOAD AND DUP4 MLOAD PUSH1 0x0 MSTORE PUSH1 0x0 PUSH1 0x20 MSTORE PUSH1 0x9 PUSH1 0x40 PUSH1 0x0 KECCAK256 ADD SWAP2 DUP3 SLOAD AND OR SWAP1 SSTORE PUSH1 0x20 DUP3 ADD MLOAD SWAP2 DUP1 MLOAD PUSH1 0x0 MSTORE PUSH1 0x1 PUSH1 0x40 PUSH1 0x0 KECCAK256 ADD DUP4 MLOAD PUSH1 0x1 PUSH1 0x1 PUSH1 0x40 SHL SUB DUP2 GT PUSH2 0xDA8 JUMPI PUSH2 0x1C36 DUP2 PUSH2 0xCB5 DUP5 SLOAD PUSH2 0x269C JUMP JUMPDEST PUSH1 0x20 PUSH1 0x1F DUP3 GT PUSH1 0x1 EQ PUSH2 0x20EA JUMPI DUP2 SWAP3 SWAP4 SWAP5 SWAP6 PUSH1 0x0 SWAP3 PUSH2 0x20DF JUMPI JUMPDEST POP POP DUP2 PUSH1 0x1 SHL SWAP2 PUSH1 0x0 NOT SWAP1 PUSH1 0x3 SHL SHR NOT AND OR SWAP1 SSTORE JUMPDEST PUSH1 0x60 DUP2 ADD MLOAD SWAP2 DUP2 MLOAD PUSH1 0x0 MSTORE PUSH1 0x0 PUSH1 0x20 MSTORE PUSH1 0x3 PUSH1 0x40 PUSH1 0x0 KECCAK256 ADD DUP4 MLOAD PUSH1 0x1 PUSH1 0x1 PUSH1 0x40 SHL SUB DUP2 GT PUSH2 0xDA8 JUMPI PUSH2 0x1C9B DUP2 PUSH2 0xCB5 DUP5 SLOAD PUSH2 0x269C JUMP JUMPDEST PUSH1 0x20 PUSH1 0x1F DUP3 GT PUSH1 0x1 EQ PUSH2 0x2076 JUMPI DUP2 SWAP3 SWAP4 SWAP5 SWAP6 PUSH1 0x0 SWAP3 PUSH2 0x206B JUMPI JUMPDEST POP POP DUP2 PUSH1 0x1 SHL SWAP2 PUSH1 0x0 NOT SWAP1 PUSH1 0x3 SHL SHR NOT AND OR SWAP1 SSTORE JUMPDEST PUSH1 0x80 DUP3 ADD MLOAD SWAP2 DUP1 MLOAD PUSH1 0x0 MSTORE PUSH1 0x0 PUSH1 0x20 MSTORE PUSH1 0x4 PUSH1 0x40 PUSH1 0x0 KECCAK256 ADD DUP4 MLOAD PUSH1 0x1 PUSH1 0x1 PUSH1 0x40 SHL SUB DUP2 GT PUSH2 0xDA8 JUMPI PUSH2 0x1D00 DUP2 PUSH2 0xCB5 DUP5 SLOAD PUSH2 0x269C JUMP JUMPDEST PUSH1 0x20 PUSH1 0x1F DUP3 GT PUSH1 0x1 EQ PUSH2 0x2002 JUMPI DUP2 SWAP3 SWAP4 SWAP5 SWAP6 PUSH1 0x0 SWAP3 PUSH2 0x1FF7 JUMPI JUMPDEST POP POP DUP2 PUSH1 0x1 SHL SWAP2 PUSH1 0x0 NOT SWAP1 PUSH1 0x3 SHL SHR NOT AND OR SWAP1 SSTORE JUMPDEST PUSH1 0x40 DUP2 ADD MLOAD SWAP2 DUP2 MLOAD PUSH1 0x0 MSTORE PUSH1 0x0 PUSH1 0x20 MSTORE PUSH1 0x2 PUSH1 0x40 PUSH1 0x0 KECCAK256 ADD DUP4 MLOAD PUSH1 0x1 PUSH1 0x1 PUSH1 0x40 SHL SUB DUP2 GT PUSH2 0xDA8 JUMPI PUSH2 0x1D65 DUP2 PUSH2 0xCB5 DUP5 SLOAD PUSH2 0x269C JUMP JUMPDEST PUSH1 0x20 PUSH1 0x1F DUP3 GT PUSH1 0x1 EQ PUSH2 0x1F8E JUMPI DUP2 SWAP3 SWAP4 SWAP5 SWAP6 PUSH1 0x0 SWAP3 PUSH2 0x1F83 JUMPI JUMPDEST POP POP DUP2 PUSH1 0x1 SHL SWAP2 PUSH1 0x0 NOT SWAP1 PUSH1 0x3 SHL SHR NOT AND OR SWAP1 SSTORE JUMPDEST PUSH1 0xC0 DUP3 ADD MLOAD SWAP2 DUP1 MLOAD PUSH1 0x0 MSTORE PUSH1 0x0 PUSH1 0x20 MSTORE PUSH1 0x6 PUSH1 0x40 PUSH1 0x0 KECCAK256 ADD DUP4 MLOAD PUSH1 0x1 PUSH1 0x1 PUSH1 0x40 SHL SUB DUP2 GT PUSH2 0xDA8 JUMPI PUSH2 0x1DCA DUP2 PUSH2 0xCB5 DUP5 SLOAD PUSH2 0x269C JUMP JUMPDEST PUSH1 0x20 PUSH1 0x1F DUP3 GT PUSH1 0x1 EQ PUSH2 0x1F1A JUMPI DUP2 SWAP3 SWAP4 SWAP5 SWAP6 PUSH1 0x0 SWAP3 PUSH2 0x1F0F JUMPI JUMPDEST POP POP DUP2 PUSH1 0x1 SHL SWAP2 PUSH1 0x0 NOT SWAP1 PUSH1 0x3 SHL SHR NOT AND OR SWAP1 SSTORE JUMPDEST PUSH1 0xA0 DUP2 ADD MLOAD SWAP2 DUP2 MLOAD PUSH1 0x0 MSTORE PUSH1 0x0 PUSH1 0x20 MSTORE PUSH1 0x5 PUSH1 0x40 PUSH1 0x0 KECCAK256 ADD DUP4 MLOAD PUSH1 0x1 PUSH1 0x1 PUSH1 0x40 SHL SUB DUP2 GT PUSH2 0xDA8 JUMPI PUSH2 0x1E2F DUP2 PUSH2 0xCB5 DUP5 SLOAD PUSH2 0x269C JUMP JUMPDEST PUSH1 0x20 PUSH1 0x1F DUP3 GT PUSH1 0x1 EQ PUSH2 0x1EA6 JUMPI DUP2 SWAP3 SWAP4 SWAP5 SWAP6 PUSH1 0x0 SWAP3 PUSH2 0x1E9B JUMPI JUMPDEST POP POP DUP2 PUSH1 0x1 SHL SWAP2 PUSH1 0x0 NOT SWAP1 PUSH1 0x3 SHL SHR NOT AND OR SWAP1 SSTORE JUMPDEST DUP2 MLOAD PUSH2 0x120 DUP4 ADD MLOAD PUSH1 0x1 PUSH1 0x1 PUSH1 0xA0 SHL SUB AND SWAP2 SWAP1 PUSH32 0x1080B2F211753E5090F26EF7FFDC6BB3E66A125C7290200D10B502160BB1F566 PUSH1 0x0 DUP1 LOG4 PUSH2 0x1538 JUMP JUMPDEST ADD MLOAD SWAP1 POP DUP6 DUP1 PUSH2 0x1E49 JUMP JUMPDEST DUP3 PUSH1 0x0 MSTORE PUSH1 0x20 PUSH1 0x0 KECCAK256 SWAP1 PUSH1 0x0 JUMPDEST PUSH1 0x1F NOT DUP5 AND DUP2 LT PUSH2 0x1EF7 JUMPI POP PUSH1 0x1 SWAP4 SWAP5 SWAP6 SWAP7 DUP4 PUSH1 0x1F NOT DUP2 AND LT PUSH2 0x1EDE JUMPI JUMPDEST POP POP POP DUP2 SHL ADD SWAP1 SSTORE PUSH2 0x1E5E JUMP JUMPDEST ADD MLOAD PUSH1 0x0 NOT PUSH1 0xF8 DUP5 PUSH1 0x3 SHL AND SHR NOT AND SWAP1 SSTORE DUP6 DUP1 DUP1 PUSH2 0x1ED1 JUMP JUMPDEST SWAP1 SWAP2 PUSH1 0x20 PUSH1 0x1 DUP2 SWAP3 DUP6 DUP12 ADD MLOAD DUP2 SSTORE ADD SWAP4 ADD SWAP2 ADD PUSH2 0x1EB3 JUMP JUMPDEST ADD MLOAD SWAP1 POP DUP6 DUP1 PUSH2 0x1DE4 JUMP JUMPDEST DUP3 PUSH1 0x0 MSTORE PUSH1 0x20 PUSH1 0x0 KECCAK256 SWAP1 PUSH1 0x0 JUMPDEST PUSH1 0x1F NOT DUP5 AND DUP2 LT PUSH2 0x1F6B JUMPI POP PUSH1 0x1 SWAP4 SWAP5 SWAP6 SWAP7 DUP4 PUSH1 0x1F NOT DUP2 AND LT PUSH2 0x1F52 JUMPI JUMPDEST POP POP POP DUP2 SHL ADD SWAP1 SSTORE PUSH2 0x1DF9 JUMP JUMPDEST ADD MLOAD PUSH1 0x0 NOT PUSH1 0xF8 DUP5 PUSH1 0x3 SHL AND SHR NOT AND SWAP1 SSTORE DUP6 DUP1 DUP1 PUSH2 0x1F45 JUMP JUMPDEST SWAP1 SWAP2 PUSH1 0x20 PUSH1 0x1 DUP2 SWAP3 DUP6 DUP12 ADD MLOAD DUP2 SSTORE ADD SWAP4 ADD SWAP2 ADD PUSH2 0x1F27 JUMP JUMPDEST ADD MLOAD SWAP1 POP DUP6 DUP1 PUSH2 0x1D7F JUMP JUMPDEST DUP3 PUSH1 0x0 MSTORE PUSH1 0x20 PUSH1 0x0 KECCAK256 SWAP1 PUSH1 0x0 JUMPDEST PUSH1 0x1F NOT DUP5 AND DUP2 LT PUSH2 0x1FDF JUMPI POP PUSH1 0x1 SWAP4 SWAP5 SWAP6 SWAP7 DUP4 PUSH1 0x1F NOT DUP2 AND LT PUSH2 0x1FC6 JUMPI JUMPDEST POP POP POP DUP2 SHL ADD SWAP1 SSTORE PUSH2 0x1D94 JUMP JUMPDEST ADD MLOAD PUSH1 0x0 NOT PUSH1 0xF8 DUP5 PUSH1 0x3 SHL AND SHR NOT AND SWAP1 SSTORE DUP6 DUP1 DUP1 PUSH2 0x1FB9 JUMP JUMPDEST SWAP1 SWAP2 PUSH1 0x20 PUSH1 0x1 DUP2 SWAP3 DUP6 DUP12 ADD MLOAD DUP2 SSTORE ADD SWAP4 ADD SWAP2 ADD PUSH2 0x1F9B JUMP JUMPDEST ADD MLOAD SWAP1 POP DUP6 DUP1 PUSH2 0x1D1A JUMP JUMPDEST DUP3 PUSH1 0x0 MSTORE PUSH1 0x20 PUSH1 0x0 KECCAK256 SWAP1 PUSH1 0x0 JUMPDEST PUSH1 0x1F NOT DUP5 AND DUP2 LT PUSH2 0x2053 JUMPI POP PUSH1 0x1 SWAP4 SWAP5 SWAP6 SWAP7 DUP4 PUSH1 0x1F NOT DUP2 AND LT PUSH2 0x203A JUMPI JUMPDEST POP POP POP DUP2 SHL ADD SWAP1 SSTORE PUSH2 0x1D2F JUMP JUMPDEST ADD MLOAD PUSH1 0x0 NOT PUSH1 0xF8 DUP5 PUSH1 0x3 SHL AND SHR NOT AND SWAP1 SSTORE DUP6 DUP1 DUP1 PUSH2 0x202D JUMP JUMPDEST SWAP1 SWAP2 PUSH1 0x20 PUSH1 0x1 DUP2 SWAP3 DUP6 DUP12 ADD MLOAD DUP2 SSTORE ADD SWAP4 ADD SWAP2 ADD PUSH2 0x200F JUMP JUMPDEST ADD MLOAD SWAP1 POP DUP6 DUP1 PUSH2 0x1CB5 JUMP JUMPDEST DUP3 PUSH1 0x0 MSTORE PUSH1 0x20 PUSH1 0x0 KECCAK256 SWAP1 PUSH1 0x0 JUMPDEST PUSH1 0x1F NOT DUP5 AND DUP2 LT PUSH2 0x20C7 JUMPI POP PUSH1 0x1 SWAP4 SWAP5 SWAP6 SWAP7 DUP4 PUSH1 0x1F NOT DUP2 AND LT PUSH2 0x20AE JUMPI JUMPDEST POP POP POP DUP2 SHL ADD SWAP1 SSTORE PUSH2 0x1CCA JUMP JUMPDEST ADD MLOAD PUSH1 0x0 NOT PUSH1 0xF8 DUP5 PUSH1 0x3 SHL AND SHR NOT AND SWAP1 SSTORE DUP6 DUP1 DUP1 PUSH2 0x20A1 JUMP JUMPDEST SWAP1 SWAP2 PUSH1 0x20 PUSH1 0x1 DUP2 SWAP3 DUP6 DUP12 ADD MLOAD DUP2 SSTORE ADD SWAP4 ADD SWAP2 ADD PUSH2 0x2083 JUMP JUMPDEST ADD MLOAD SWAP1 POP DUP6 DUP1 PUSH2 0x1C50 JUMP JUMPDEST DUP3 PUSH1 0x0 MSTORE PUSH1 0x20 PUSH1 0x0 KECCAK256 SWAP1 PUSH1 0x0 JUMPDEST PUSH1 0x1F NOT DUP5 AND DUP2 LT PUSH2 0x213B JUMPI POP PUSH1 0x1 SWAP4 SWAP5 SWAP6 SWAP7 DUP4 PUSH1 0x1F NOT DUP2 AND LT PUSH2 0x2122 JUMPI JUMPDEST POP POP POP DUP2 SHL ADD SWAP1 SSTORE PUSH2 0x1C65 JUMP JUMPDEST ADD MLOAD PUSH1 0x0 NOT PUSH1 0xF8 DUP5 PUSH1 0x3 SHL AND SHR NOT AND SWAP1 SSTORE DUP6 DUP1 DUP1 PUSH2 0x2115 JUMP JUMPDEST SWAP1 SWAP2 PUSH1 0x20 PUSH1 0x1 DUP2 SWAP3 DUP6 DUP12 ADD MLOAD DUP2 SSTORE ADD SWAP4 ADD SWAP2 ADD PUSH2 0x20F7 JUMP JUMPDEST PUSH4 0x4E487B71 PUSH1 0xE0 SHL PUSH1 0x0 MSTORE PUSH1 0x32 PUSH1 0x4 MSTORE PUSH1 0x24 PUSH1 0x0 REVERT JUMPDEST CALLVALUE PUSH2 0x250 JUMPI PUSH2 0x120 CALLDATASIZE PUSH1 0x3 NOT ADD SLT PUSH2 0x250 JUMPI PUSH1 0x1 PUSH1 0x1 PUSH1 0x40 SHL SUB PUSH1 0x4 CALLDATALOAD DUP2 DUP2 GT PUSH2 0x250 JUMPI PUSH2 0x219B SWAP1 CALLDATASIZE SWAP1 PUSH1 0x4 ADD PUSH2 0x2627 JUMP JUMPDEST PUSH1 0x24 CALLDATALOAD PUSH1 0x44 CALLDATALOAD DUP4 DUP2 GT PUSH2 0x250 JUMPI PUSH2 0x21B6 SWAP1 CALLDATASIZE SWAP1 PUSH1 0x4 ADD PUSH2 0x2627 JUMP JUMPDEST PUSH1 0x64 CALLDATALOAD DUP5 DUP2 GT PUSH2 0x250 JUMPI PUSH2 0x21CE SWAP1 CALLDATASIZE SWAP1 PUSH1 0x4 ADD PUSH2 0x2627 JUMP JUMPDEST SWAP1 PUSH1 0x84 CALLDATALOAD DUP6 DUP2 GT PUSH2 0x250 JUMPI PUSH2 0x21E7 SWAP1 CALLDATASIZE SWAP1 PUSH1 0x4 ADD PUSH2 0x2627 JUMP JUMPDEST SWAP5 PUSH1 0xA4 CALLDATALOAD DUP2 DUP2 GT PUSH2 0x250 JUMPI PUSH2 0x2200 SWAP1 CALLDATASIZE SWAP1 PUSH1 0x4 ADD PUSH2 0x2627 JUMP JUMPDEST SWAP1 PUSH1 0xC4 CALLDATALOAD DUP2 DUP2 GT PUSH2 0x250 JUMPI PUSH2 0x2219 SWAP1 CALLDATASIZE SWAP1 PUSH1 0x4 ADD PUSH2 0x2627 JUMP JUMPDEST SWAP2 PUSH1 0xE4 CALLDATALOAD DUP3 DUP2 GT PUSH2 0x250 JUMPI PUSH2 0x2232 SWAP1 CALLDATASIZE SWAP1 PUSH1 0x4 ADD PUSH2 0x2627 JUMP JUMPDEST SWAP2 PUSH2 0x104 CALLDATALOAD SWAP1 DUP2 GT PUSH2 0x250 JUMPI PUSH2 0x224C SWAP1 CALLDATASIZE SWAP1 PUSH1 0x4 ADD PUSH2 0x2627 JUMP JUMPDEST SWAP3 DUP7 PUSH1 0x0 MSTORE PUSH1 0x0 PUSH1 0x20 MSTORE PUSH1 0xFF PUSH1 0x9 PUSH1 0x40 PUSH1 0x0 KECCAK256 ADD SLOAD PUSH1 0xA0 SHR AND PUSH2 0x227F JUMPI PUSH2 0x227D SWAP9 PUSH2 0x2275 PUSH2 0x290B JUMP JUMPDEST SWAP9 CALLER SWAP9 PUSH2 0x298B JUMP JUMPDEST STOP JUMPDEST PUSH1 0x40 MLOAD PUSH3 0x461BCD PUSH1 0xE5 SHL DUP2 MSTORE PUSH1 0x20 PUSH1 0x4 DUP3 ADD MSTORE PUSH1 0x1A PUSH1 0x24 DUP3 ADD MSTORE PUSH32 0x4C616E6420697320416C72656164792052656769737465726564000000000000 PUSH1 0x44 DUP3 ADD MSTORE PUSH1 0x64 SWAP1 REVERT JUMPDEST CALLVALUE PUSH2 0x250 JUMPI PUSH1 0x20 CALLDATASIZE PUSH1 0x3 NOT ADD SLT PUSH2 0x250 JUMPI PUSH1 0x4 CALLDATALOAD PUSH1 0x4 SLOAD DUP2 LT ISZERO PUSH2 0x250 JUMPI PUSH2 0x22EB SWAP1 PUSH2 0x267D JUMP JUMPDEST POP DUP1 SLOAD PUSH2 0x22FA PUSH1 0x1 DUP4 ADD PUSH2 0x26D6 JUMP JUMPDEST SWAP2 PUSH2 0x2307 PUSH1 0x2 DUP3 ADD PUSH2 0x26D6 JUMP JUMPDEST SWAP1 PUSH2 0x2314 PUSH1 0x3 DUP3 ADD PUSH2 0x26D6 JUMP JUMPDEST PUSH2 0x2320 PUSH1 0x4 DUP4 ADD PUSH2 0x26D6 JUMP JUMPDEST PUSH2 0x232C PUSH1 0x5 DUP5 ADD PUSH2 0x26D6 JUMP JUMPDEST PUSH2 0x2338 PUSH1 0x6 DUP6 ADD PUSH2 0x26D6 JUMP JUMPDEST SWAP1 PUSH2 0x2345 PUSH1 0x7 DUP7 ADD PUSH2 0x26D6 JUMP JUMPDEST SWAP3 PUSH2 0x2352 PUSH1 0x8 DUP8 ADD PUSH2 0x26D6 JUMP JUMPDEST PUSH1 0x9 DUP8 ADD SLOAD PUSH1 0x1 PUSH1 0x1 PUSH1 0xA0 SHL SUB AND SWAP7 SWAP1 SWAP6 SWAP1 PUSH2 0x2370 SWAP1 PUSH1 0xA ADD PUSH2 0x26D6 JUMP JUMPDEST SWAP8 PUSH1 0x40 MLOAD SWAP11 DUP12 SWAP11 DUP12 MSTORE PUSH2 0x160 DUP1 PUSH1 0x20 DUP14 ADD MSTORE DUP12 ADD PUSH2 0x238D SWAP2 PUSH2 0x277C JUMP JUMPDEST DUP11 DUP2 SUB PUSH1 0x40 DUP13 ADD MSTORE PUSH2 0x239E SWAP2 PUSH2 0x277C JUMP JUMPDEST DUP10 DUP2 SUB PUSH1 0x60 DUP12 ADD MSTORE PUSH2 0x23AF SWAP2 PUSH2 0x277C JUMP JUMPDEST DUP9 DUP2 SUB PUSH1 0x80 DUP11 ADD MSTORE PUSH2 0x23C0 SWAP2 PUSH2 0x277C JUMP JUMPDEST DUP8 DUP2 SUB PUSH1 0xA0 DUP10 ADD MSTORE PUSH2 0x23D1 SWAP2 PUSH2 0x277C JUMP JUMPDEST DUP7 DUP2 SUB PUSH1 0xC0 DUP9 ADD MSTORE PUSH2 0x23E2 SWAP2 PUSH2 0x277C JUMP JUMPDEST DUP6 DUP2 SUB PUSH1 0xE0 DUP8 ADD MSTORE PUSH2 0x23F3 SWAP2 PUSH2 0x277C JUMP JUMPDEST DUP5 DUP2 SUB PUSH2 0x100 DUP7 ADD MSTORE PUSH2 0x2405 SWAP2 PUSH2 0x277C JUMP JUMPDEST SWAP1 PUSH2 0x120 DUP5 ADD MSTORE DUP3 DUP2 SUB PUSH2 0x140 DUP5 ADD MSTORE PUSH2 0x2B5 SWAP2 PUSH2 0x277C JUMP JUMPDEST CALLVALUE PUSH2 0x250 JUMPI PUSH1 0x20 CALLDATASIZE PUSH1 0x3 NOT ADD SLT PUSH2 0x250 JUMPI PUSH1 0x4 CALLDATALOAD PUSH1 0x0 MSTORE PUSH1 0x1 PUSH1 0x20 MSTORE PUSH1 0x20 PUSH1 0x40 PUSH1 0x0 KECCAK256 SLOAD PUSH1 0x40 MLOAD SWAP1 DUP2 MSTORE RETURN JUMPDEST CALLVALUE PUSH2 0x250 JUMPI PUSH2 0x100 CALLDATASIZE PUSH1 0x3 NOT ADD SLT PUSH2 0x250 JUMPI PUSH1 0x1 PUSH1 0x1 PUSH1 0xA0 SHL SUB PUSH1 0x4 CALLDATALOAD PUSH1 0x24 CALLDATALOAD DUP3 DUP2 AND DUP2 SUB PUSH2 0x250 JUMPI PUSH1 0x1 PUSH1 0x1 PUSH1 0x40 SHL SUB PUSH1 0x44 CALLDATALOAD DUP2 DUP2 GT PUSH2 0x250 JUMPI PUSH2 0x2493 SWAP1 CALLDATASIZE SWAP1 PUSH1 0x4 ADD PUSH2 0x2627 JUMP JUMPDEST SWAP1 PUSH1 0x64 CALLDATALOAD DUP2 DUP2 GT PUSH2 0x250 JUMPI PUSH2 0x24AC SWAP1 CALLDATASIZE SWAP1 PUSH1 0x4 ADD PUSH2 0x2627 JUMP JUMPDEST SWAP5 PUSH1 0x84 CALLDATALOAD DUP3 DUP2 GT PUSH2 0x250 JUMPI PUSH2 0x24C5 SWAP1 CALLDATASIZE SWAP1 PUSH1 0x4 ADD PUSH2 0x2627 JUMP JUMPDEST SWAP2 PUSH1 0xA4 CALLDATALOAD DUP2 DUP2 GT PUSH2 0x250 JUMPI PUSH2 0x24DE SWAP1 CALLDATASIZE SWAP1 PUSH1 0x4 ADD PUSH2 0x2627 JUMP JUMPDEST SWAP2 PUSH1 0xC4 CALLDATALOAD DUP3 DUP2 GT PUSH2 0x250 JUMPI PUSH2 0x24F7 SWAP1 CALLDATASIZE SWAP1 PUSH1 0x4 ADD PUSH2 0x2627 JUMP JUMPDEST SWAP2 PUSH1 0xE4 CALLDATALOAD SWAP1 DUP2 GT PUSH2 0x250 JUMPI PUSH2 0x2513 PUSH2 0x252E SWAP2 CALLDATASIZE SWAP1 PUSH1 0x4 ADD PUSH2 0x2627 JUMP JUMPDEST SWAP2 DUP9 PUSH1 0x0 MSTORE PUSH1 0x0 PUSH1 0x20 MSTORE PUSH1 0x9 PUSH1 0x40 PUSH1 0x0 KECCAK256 ADD SLOAD AND CALLER EQ PUSH2 0x322F JUMP JUMPDEST DUP7 PUSH1 0x0 MSTORE PUSH1 0x0 PUSH1 0x20 MSTORE PUSH1 0xFF PUSH1 0x9 PUSH1 0x40 PUSH1 0x0 KECCAK256 ADD SLOAD PUSH1 0xA0 SHR AND ISZERO PUSH2 0x2591 JUMPI PUSH2 0x227D SWAP8 DUP8 PUSH1 0x0 MSTORE PUSH1 0x0 PUSH1 0x20 MSTORE PUSH2 0x2568 PUSH1 0x7 PUSH1 0x40 PUSH1 0x0 KECCAK256 ADD PUSH2 0x26D6 JUMP JUMPDEST SWAP5 DUP9 PUSH1 0x0 MSTORE PUSH1 0x0 PUSH1 0x20 MSTORE PUSH2 0x2582 PUSH1 0x8 PUSH1 0x40 PUSH1 0x0 KECCAK256 ADD PUSH2 0x26D6 JUMP JUMPDEST SWAP7 PUSH2 0x258B PUSH2 0x3286 JUMP JUMPDEST SWAP10 PUSH2 0x298B JUMP JUMPDEST PUSH1 0x40 MLOAD PUSH3 0x461BCD PUSH1 0xE5 SHL DUP2 MSTORE PUSH1 0x20 PUSH1 0x4 DUP3 ADD MSTORE PUSH1 0x16 PUSH1 0x24 DUP3 ADD MSTORE PUSH22 0x13185B99081A5CC81B9BDD081C9959DA5CDD195C9959 PUSH1 0x52 SHL PUSH1 0x44 DUP3 ADD MSTORE PUSH1 0x64 SWAP1 REVERT JUMPDEST PUSH2 0x160 DUP2 ADD SWAP1 DUP2 LT PUSH1 0x1 PUSH1 0x1 PUSH1 0x40 SHL SUB DUP3 GT OR PUSH2 0xDA8 JUMPI PUSH1 0x40 MSTORE JUMP JUMPDEST PUSH1 0x40 DUP2 ADD SWAP1 DUP2 LT PUSH1 0x1 PUSH1 0x1 PUSH1 0x40 SHL SUB DUP3 GT OR PUSH2 0xDA8 JUMPI PUSH1 0x40 MSTORE JUMP JUMPDEST SWAP1 PUSH1 0x1F DUP1 NOT SWAP2 ADD AND DUP2 ADD SWAP1 DUP2 LT PUSH1 0x1 PUSH1 0x1 PUSH1 0x40 SHL SUB DUP3 GT OR PUSH2 0xDA8 JUMPI PUSH1 0x40 MSTORE JUMP JUMPDEST DUP2 PUSH1 0x1F DUP3 ADD SLT ISZERO PUSH2 0x250 JUMPI DUP1 CALLDATALOAD SWAP1 PUSH1 0x1 PUSH1 0x1 PUSH1 0x40 SHL SUB DUP3 GT PUSH2 0xDA8 JUMPI PUSH1 0x40 MLOAD SWAP3 PUSH2 0x265B PUSH1 0x1F DUP5 ADD PUSH1 0x1F NOT AND PUSH1 0x20 ADD DUP6 PUSH2 0x2606 JUMP JUMPDEST DUP3 DUP5 MSTORE PUSH1 0x20 DUP4 DUP4 ADD ADD GT PUSH2 0x250 JUMPI DUP2 PUSH1 0x0 SWAP3 PUSH1 0x20 DUP1 SWAP4 ADD DUP4 DUP7 ADD CALLDATACOPY DUP4 ADD ADD MSTORE SWAP1 JUMP JUMPDEST PUSH1 0x4 SLOAD DUP2 LT ISZERO PUSH2 0x2153 JUMPI PUSH1 0x4 PUSH1 0x0 MSTORE PUSH1 0xB PUSH1 0x20 PUSH1 0x0 KECCAK256 SWAP2 MUL ADD SWAP1 PUSH1 0x0 SWAP1 JUMP JUMPDEST SWAP1 PUSH1 0x1 DUP3 DUP2 SHR SWAP3 AND DUP1 ISZERO PUSH2 0x26CC JUMPI JUMPDEST PUSH1 0x20 DUP4 LT EQ PUSH2 0x26B6 JUMPI JUMP JUMPDEST PUSH4 0x4E487B71 PUSH1 0xE0 SHL PUSH1 0x0 MSTORE PUSH1 0x22 PUSH1 0x4 MSTORE PUSH1 0x24 PUSH1 0x0 REVERT JUMPDEST SWAP2 PUSH1 0x7F AND SWAP2 PUSH2 0x26AB JUMP JUMPDEST SWAP1 PUSH1 0x40 MLOAD SWAP2 DUP3 PUSH1 0x0 DUP3 SLOAD SWAP3 PUSH2 0x26EA DUP5 PUSH2 0x269C JUMP JUMPDEST SWAP1 DUP2 DUP5 MSTORE PUSH1 0x1 SWAP5 DUP6 DUP2 AND SWAP1 DUP2 PUSH1 0x0 EQ PUSH2 0x2759 JUMPI POP PUSH1 0x1 EQ PUSH2 0x2716 JUMPI JUMPDEST POP POP PUSH2 0x2714 SWAP3 POP SUB DUP4 PUSH2 0x2606 JUMP JUMPDEST JUMP JUMPDEST SWAP1 SWAP4 SWAP2 POP PUSH1 0x0 MSTORE PUSH1 0x20 SWAP1 DUP2 PUSH1 0x0 KECCAK256 SWAP4 PUSH1 0x0 SWAP2 JUMPDEST DUP2 DUP4 LT PUSH2 0x2741 JUMPI POP POP PUSH2 0x2714 SWAP4 POP DUP3 ADD ADD CODESIZE DUP1 PUSH2 0x2706 JUMP JUMPDEST DUP6 SLOAD DUP9 DUP5 ADD DUP6 ADD MSTORE SWAP5 DUP6 ADD SWAP5 DUP8 SWAP5 POP SWAP2 DUP4 ADD SWAP2 PUSH2 0x2729 JUMP JUMPDEST SWAP2 POP POP PUSH2 0x2714 SWAP5 POP PUSH1 0x20 SWAP3 POP PUSH1 0xFF NOT AND DUP3 DUP5 ADD MSTORE ISZERO ISZERO PUSH1 0x5 SHL DUP3 ADD ADD CODESIZE DUP1 PUSH2 0x2706 JUMP JUMPDEST SWAP2 SWAP1 DUP3 MLOAD SWAP3 DUP4 DUP3 MSTORE PUSH1 0x0 JUMPDEST DUP5 DUP2 LT PUSH2 0x27A8 JUMPI POP POP DUP3 PUSH1 0x0 PUSH1 0x20 DUP1 SWAP5 SWAP6 DUP5 ADD ADD MSTORE PUSH1 0x1F DUP1 NOT SWAP2 ADD AND ADD ADD SWAP1 JUMP JUMPDEST PUSH1 0x20 DUP2 DUP4 ADD DUP2 ADD MLOAD DUP5 DUP4 ADD DUP3 ADD MSTORE ADD PUSH2 0x2787 JUMP JUMPDEST PUSH1 0x20 DUP1 DUP3 ADD SWAP1 DUP1 DUP4 MSTORE DUP4 MLOAD DUP1 SWAP3 MSTORE PUSH1 0x40 SWAP3 DUP4 DUP2 ADD DUP3 DUP6 DUP6 PUSH1 0x5 SHL DUP5 ADD ADD SWAP7 ADD SWAP5 PUSH1 0x0 SWAP3 JUMPDEST DUP6 DUP5 LT PUSH2 0x27F1 JUMPI POP POP POP POP POP POP POP SWAP1 JUMP JUMPDEST SWAP1 SWAP2 SWAP3 SWAP4 SWAP5 SWAP6 SWAP7 DUP6 DUP1 PUSH1 0x1 SWAP3 PUSH1 0x3F NOT DUP6 DUP3 SUB ADD DUP8 MSTORE DUP11 MLOAD SWAP1 DUP2 MLOAD DUP2 MSTORE PUSH2 0x28C0 PUSH2 0x28AC PUSH2 0x2899 PUSH2 0x2886 PUSH2 0x2873 PUSH2 0x2860 PUSH2 0x284D DUP14 PUSH2 0x283B DUP12 DUP12 ADD MLOAD DUP13 PUSH2 0x160 DUP1 SWAP2 DUP14 ADD MSTORE DUP12 ADD SWAP1 PUSH2 0x277C JUMP JUMPDEST SWAP1 DUP1 DUP12 ADD MLOAD SWAP1 DUP11 DUP4 SUB SWAP1 DUP12 ADD MSTORE PUSH2 0x277C JUMP JUMPDEST PUSH1 0x60 DUP1 DUP11 ADD MLOAD SWAP1 DUP10 DUP4 SUB SWAP1 DUP11 ADD MSTORE PUSH2 0x277C JUMP JUMPDEST PUSH1 0x80 DUP1 DUP10 ADD MLOAD SWAP1 DUP9 DUP4 SUB SWAP1 DUP10 ADD MSTORE PUSH2 0x277C JUMP JUMPDEST PUSH1 0xA0 DUP1 DUP9 ADD MLOAD SWAP1 DUP8 DUP4 SUB SWAP1 DUP9 ADD MSTORE PUSH2 0x277C JUMP JUMPDEST PUSH1 0xC0 DUP1 DUP8 ADD MLOAD SWAP1 DUP7 DUP4 SUB SWAP1 DUP8 ADD MSTORE PUSH2 0x277C JUMP JUMPDEST PUSH1 0xE0 DUP1 DUP7 ADD MLOAD SWAP1 DUP6 DUP4 SUB SWAP1 DUP7 ADD MSTORE PUSH2 0x277C JUMP JUMPDEST PUSH2 0x100 DUP1 DUP6 ADD MLOAD SWAP1 DUP5 DUP4 SUB SWAP1 DUP6 ADD MSTORE PUSH2 0x277C JUMP JUMPDEST SWAP2 PUSH2 0x120 DUP7 DUP1 PUSH1 0xA0 SHL SUB DUP2 DUP4 ADD MLOAD AND SWAP1 DUP4 ADD MSTORE PUSH2 0x140 DUP1 SWAP2 ADD MLOAD ISZERO ISZERO SWAP2 ADD MSTORE SWAP10 ADD SWAP5 ADD SWAP5 ADD SWAP3 SWAP6 SWAP5 SWAP4 SWAP2 SWAP1 PUSH2 0x27E0 JUMP JUMPDEST PUSH1 0x3 SLOAD DUP2 LT ISZERO PUSH2 0x2153 JUMPI PUSH1 0x3 PUSH1 0x0 MSTORE PUSH1 0x20 PUSH1 0x0 KECCAK256 ADD SWAP1 PUSH1 0x0 SWAP1 JUMP JUMPDEST PUSH1 0x40 MLOAD SWAP1 PUSH2 0x2918 DUP3 PUSH2 0x25EB JUMP JUMPDEST PUSH1 0x8 DUP3 MSTORE PUSH8 0x3932B3B4B9BA32B9 PUSH1 0xC1 SHL PUSH1 0x20 DUP4 ADD MSTORE JUMP JUMPDEST DUP2 DUP2 LT PUSH2 0x293A JUMPI POP POP JUMP JUMPDEST PUSH1 0x0 DUP2 SSTORE PUSH1 0x1 ADD PUSH2 0x292F JUMP JUMPDEST SWAP2 SWAP1 PUSH1 0x1F DUP2 GT PUSH2 0x2955 JUMPI POP POP POP JUMP JUMPDEST PUSH2 0x2714 SWAP3 PUSH1 0x0 MSTORE PUSH1 0x20 PUSH1 0x0 KECCAK256 SWAP1 PUSH1 0x20 PUSH1 0x1F DUP5 ADD PUSH1 0x5 SHR DUP4 ADD SWAP4 LT PUSH2 0x2981 JUMPI JUMPDEST PUSH1 0x1F ADD PUSH1 0x5 SHR ADD SWAP1 PUSH2 0x292F JUMP JUMPDEST SWAP1 SWAP2 POP DUP2 SWAP1 PUSH2 0x2974 JUMP JUMPDEST SWAP9 SWAP8 SWAP5 SWAP2 SWAP7 SWAP4 SWAP1 SWAP6 SWAP3 PUSH1 0x40 MLOAD SWAP8 PUSH2 0x29A1 DUP10 PUSH2 0x25CF JUMP JUMPDEST DUP11 DUP10 MSTORE PUSH1 0x20 DUP10 ADD SWAP8 DUP9 MSTORE PUSH1 0x40 DUP10 ADD MSTORE PUSH1 0x60 DUP9 ADD MSTORE PUSH1 0x80 DUP8 ADD MSTORE PUSH1 0xA0 DUP7 ADD MSTORE PUSH1 0xC0 DUP6 ADD MSTORE PUSH1 0xE0 DUP5 ADD MSTORE PUSH2 0x100 DUP4 ADD MSTORE PUSH1 0x1 PUSH1 0x1 PUSH1 0xA0 SHL SUB DUP4 AND PUSH2 0x120 DUP4 ADD MSTORE PUSH2 0x140 DUP3 ADD DUP6 SWAP1 MSTORE PUSH1 0x4 SLOAD PUSH1 0x1 PUSH1 0x40 SHL DUP2 LT ISZERO PUSH2 0xDA8 JUMPI DUP1 PUSH1 0x1 PUSH2 0x2A06 SWAP3 ADD PUSH1 0x4 SSTORE PUSH2 0x267D JUMP JUMPDEST SWAP2 SWAP1 SWAP2 PUSH2 0x164D JUMPI DUP3 MLOAD DUP3 SSTORE MLOAD DUP1 MLOAD SWAP1 PUSH1 0x1 PUSH1 0x1 PUSH1 0x40 SHL SUB DUP3 GT PUSH2 0xDA8 JUMPI DUP2 SWAP1 PUSH2 0x2A36 DUP3 PUSH2 0x11DF PUSH1 0x1 DUP8 ADD SLOAD PUSH2 0x269C JUMP JUMPDEST PUSH1 0x20 SWAP1 PUSH1 0x1F DUP4 GT PUSH1 0x1 EQ PUSH2 0x31BD JUMPI PUSH1 0x0 SWAP3 PUSH2 0x31B2 JUMPI JUMPDEST POP POP DUP2 PUSH1 0x1 SHL SWAP2 PUSH1 0x0 NOT SWAP1 PUSH1 0x3 SHL SHR NOT AND OR PUSH1 0x1 DUP3 ADD SSTORE JUMPDEST PUSH1 0x40 DUP3 ADD MLOAD DUP1 MLOAD SWAP1 PUSH1 0x1 PUSH1 0x1 PUSH1 0x40 SHL SUB DUP3 GT PUSH2 0xDA8 JUMPI DUP2 SWAP1 PUSH2 0x2A96 DUP3 PUSH2 0x2A8D PUSH1 0x2 DUP8 ADD SLOAD PUSH2 0x269C JUMP JUMPDEST PUSH1 0x2 DUP8 ADD PUSH2 0x2946 JUMP JUMPDEST PUSH1 0x20 SWAP1 PUSH1 0x1F DUP4 GT PUSH1 0x1 EQ PUSH2 0x3140 JUMPI PUSH1 0x0 SWAP3 PUSH2 0x3135 JUMPI JUMPDEST POP POP DUP2 PUSH1 0x1 SHL SWAP2 PUSH1 0x0 NOT SWAP1 PUSH1 0x3 SHL SHR NOT AND OR PUSH1 0x2 DUP3 ADD SSTORE JUMPDEST PUSH1 0x60 DUP3 ADD MLOAD DUP1 MLOAD SWAP1 PUSH1 0x1 PUSH1 0x1 PUSH1 0x40 SHL SUB DUP3 GT PUSH2 0xDA8 JUMPI DUP2 SWAP1 PUSH2 0x2AF6 DUP3 PUSH2 0x2AED PUSH1 0x3 DUP8 ADD SLOAD PUSH2 0x269C JUMP JUMPDEST PUSH1 0x3 DUP8 ADD PUSH2 0x2946 JUMP JUMPDEST PUSH1 0x20 SWAP1 PUSH1 0x1F DUP4 GT PUSH1 0x1 EQ PUSH2 0x30C3 JUMPI PUSH1 0x0 SWAP3 PUSH2 0x30B8 JUMPI JUMPDEST POP POP DUP2 PUSH1 0x1 SHL SWAP2 PUSH1 0x0 NOT SWAP1 PUSH1 0x3 SHL SHR NOT AND OR PUSH1 0x3 DUP3 ADD SSTORE JUMPDEST PUSH1 0x80 DUP3 ADD MLOAD DUP1 MLOAD SWAP1 PUSH1 0x1 PUSH1 0x1 PUSH1 0x40 SHL SUB DUP3 GT PUSH2 0xDA8 JUMPI DUP2 SWAP1 PUSH2 0x2B4D DUP3 PUSH2 0x1305 PUSH1 0x4 DUP8 ADD SLOAD PUSH2 0x269C JUMP JUMPDEST PUSH1 0x20 SWAP1 PUSH1 0x1F DUP4 GT PUSH1 0x1 EQ PUSH2 0x3046 JUMPI PUSH1 0x0 SWAP3 PUSH2 0x303B JUMPI JUMPDEST POP POP DUP2 PUSH1 0x1 SHL SWAP2 PUSH1 0x0 NOT SWAP1 PUSH1 0x3 SHL SHR NOT AND OR PUSH1 0x4 DUP3 ADD SSTORE JUMPDEST PUSH1 0xA0 DUP3 ADD MLOAD DUP1 MLOAD SWAP1 PUSH1 0x1 PUSH1 0x1 PUSH1 0x40 SHL SUB DUP3 GT PUSH2 0xDA8 JUMPI DUP2 SWAP1 PUSH2 0x2BAD DUP3 PUSH2 0x2BA4 PUSH1 0x5 DUP8 ADD SLOAD PUSH2 0x269C JUMP JUMPDEST PUSH1 0x5 DUP8 ADD PUSH2 0x2946 JUMP JUMPDEST PUSH1 0x20 SWAP1 PUSH1 0x1F DUP4 GT PUSH1 0x1 EQ PUSH2 0x2FC9 JUMPI PUSH1 0x0 SWAP3 PUSH2 0x2FBE JUMPI JUMPDEST POP POP DUP2 PUSH1 0x1 SHL SWAP2 PUSH1 0x0 NOT SWAP1 PUSH1 0x3 SHL SHR NOT AND OR PUSH1 0x5 DUP3 ADD SSTORE JUMPDEST PUSH1 0xC0 DUP3 ADD MLOAD DUP1 MLOAD SWAP1 PUSH1 0x1 PUSH1 0x1 PUSH1 0x40 SHL SUB DUP3 GT PUSH2 0xDA8 JUMPI DUP2 SWAP1 PUSH2 0x2C0D DUP3 PUSH2 0x2C04 PUSH1 0x6 DUP8 ADD SLOAD PUSH2 0x269C JUMP JUMPDEST PUSH1 0x6 DUP8 ADD PUSH2 0x2946 JUMP JUMPDEST PUSH1 0x20 SWAP1 PUSH1 0x1F DUP4 GT PUSH1 0x1 EQ PUSH2 0x2F4C JUMPI PUSH1 0x0 SWAP3 PUSH2 0x2F41 JUMPI JUMPDEST POP POP DUP2 PUSH1 0x1 SHL SWAP2 PUSH1 0x0 NOT SWAP1 PUSH1 0x3 SHL SHR NOT AND OR PUSH1 0x6 DUP3 ADD SSTORE JUMPDEST PUSH1 0xE0 DUP3 ADD MLOAD DUP1 MLOAD SWAP1 PUSH1 0x1 PUSH1 0x1 PUSH1 0x40 SHL SUB DUP3 GT PUSH2 0xDA8 JUMPI DUP2 SWAP1 PUSH2 0x2C64 DUP3 PUSH2 0x142B PUSH1 0x7 DUP8 ADD SLOAD PUSH2 0x269C JUMP JUMPDEST PUSH1 0x20 SWAP1 PUSH1 0x1F DUP4 GT PUSH1 0x1 EQ PUSH2 0x2ECF JUMPI PUSH1 0x0 SWAP3 PUSH2 0x2EC4 JUMPI JUMPDEST POP POP DUP2 PUSH1 0x1 SHL SWAP2 PUSH1 0x0 NOT SWAP1 PUSH1 0x3 SHL SHR NOT AND OR PUSH1 0x7 DUP3 ADD SSTORE JUMPDEST PUSH2 0x100 DUP3 ADD MLOAD DUP1 MLOAD PUSH1 0x1 PUSH1 0x1 PUSH1 0x40 SHL SUB DUP2 GT PUSH2 0xDA8 JUMPI PUSH1 0x8 DUP4 ADD SWAP2 PUSH2 0x2CC1 DUP3 PUSH2 0x2CBB DUP6 SLOAD PUSH2 0x269C JUMP JUMPDEST DUP6 PUSH2 0x2946 JUMP JUMPDEST PUSH1 0x20 SWAP1 PUSH1 0x1F DUP4 GT PUSH1 0x1 EQ PUSH2 0x2E55 JUMPI SWAP2 DUP1 PUSH1 0xA SWAP5 SWAP3 PUSH2 0x140 SWAP7 SWAP5 PUSH1 0x0 SWAP3 PUSH2 0x2E4A JUMPI JUMPDEST POP POP DUP2 PUSH1 0x1 SHL SWAP2 PUSH1 0x0 NOT SWAP1 PUSH1 0x3 SHL SHR NOT AND OR SWAP1 SSTORE JUMPDEST PUSH1 0x9 DUP2 ADD PUSH1 0x1 DUP1 PUSH1 0xA0 SHL SUB PUSH2 0x120 DUP7 ADD MLOAD AND PUSH1 0x1 DUP1 PUSH1 0xA0 SHL SUB NOT DUP3 SLOAD AND OR SWAP1 SSTORE ADD SWAP2 ADD MLOAD DUP1 MLOAD SWAP1 PUSH1 0x1 PUSH1 0x1 PUSH1 0x40 SHL SUB DUP3 GT PUSH2 0xDA8 JUMPI PUSH2 0x2D3A DUP3 PUSH2 0x2CBB DUP6 SLOAD PUSH2 0x269C JUMP JUMPDEST PUSH1 0x20 SWAP1 PUSH1 0x1F DUP4 GT PUSH1 0x1 EQ PUSH2 0x2DBC JUMPI SWAP2 DUP1 PUSH2 0x2DAC SWAP5 SWAP3 PUSH32 0x90B328F02ED250FF4BF17CAFCBD924782F15C92B3A87A4082E92AE216E1822C2 SWAP7 SWAP5 PUSH1 0x0 SWAP3 PUSH2 0x2DB1 JUMPI JUMPDEST POP POP DUP2 PUSH1 0x1 SHL SWAP2 PUSH1 0x0 NOT SWAP1 PUSH1 0x3 SHL SHR NOT AND OR SWAP1 SSTORE JUMPDEST PUSH1 0x40 MLOAD SWAP2 DUP3 SWAP2 PUSH1 0x20 DUP4 MSTORE PUSH1 0x1 DUP1 PUSH1 0xA0 SHL SUB AND SWAP6 PUSH1 0x20 DUP4 ADD SWAP1 PUSH2 0x277C JUMP JUMPDEST SUB SWAP1 LOG3 JUMP JUMPDEST ADD MLOAD SWAP1 POP CODESIZE DUP1 PUSH2 0x2D7A JUMP JUMPDEST SWAP1 PUSH1 0x1F NOT DUP4 AND SWAP2 DUP5 PUSH1 0x0 MSTORE PUSH1 0x20 PUSH1 0x0 KECCAK256 SWAP3 PUSH1 0x0 JUMPDEST DUP2 DUP2 LT PUSH2 0x2E32 JUMPI POP SWAP3 PUSH1 0x1 SWAP3 DUP6 SWAP3 PUSH32 0x90B328F02ED250FF4BF17CAFCBD924782F15C92B3A87A4082E92AE216E1822C2 SWAP9 SWAP7 PUSH2 0x2DAC SWAP9 SWAP7 LT PUSH2 0x2E19 JUMPI JUMPDEST POP POP POP DUP2 SHL ADD SWAP1 SSTORE PUSH2 0x2D8F JUMP JUMPDEST ADD MLOAD PUSH1 0x0 NOT PUSH1 0xF8 DUP5 PUSH1 0x3 SHL AND SHR NOT AND SWAP1 SSTORE CODESIZE DUP1 DUP1 PUSH2 0x2E0C JUMP JUMPDEST SWAP3 SWAP4 PUSH1 0x20 PUSH1 0x1 DUP2 SWAP3 DUP8 DUP7 ADD MLOAD DUP2 SSTORE ADD SWAP6 ADD SWAP4 ADD PUSH2 0x2DD0 JUMP JUMPDEST ADD MLOAD SWAP1 POP CODESIZE DUP1 PUSH2 0x2CE2 JUMP JUMPDEST SWAP1 PUSH1 0x1F NOT DUP4 AND SWAP2 DUP5 PUSH1 0x0 MSTORE PUSH1 0x20 PUSH1 0x0 KECCAK256 SWAP3 PUSH1 0x0 JUMPDEST DUP2 DUP2 LT PUSH2 0x2EAC JUMPI POP SWAP3 PUSH1 0x1 SWAP3 DUP6 SWAP3 PUSH2 0x140 SWAP9 SWAP7 PUSH1 0xA SWAP9 SWAP7 LT PUSH2 0x2E93 JUMPI JUMPDEST POP POP POP DUP2 SHL ADD SWAP1 SSTORE PUSH2 0x2CF7 JUMP JUMPDEST ADD MLOAD PUSH1 0x0 NOT PUSH1 0xF8 DUP5 PUSH1 0x3 SHL AND SHR NOT AND SWAP1 SSTORE CODESIZE DUP1 DUP1 PUSH2 0x2E86 JUMP JUMPDEST SWAP3 SWAP4 PUSH1 0x20 PUSH1 0x1 DUP2 SWAP3 DUP8 DUP7 ADD MLOAD DUP2 SSTORE ADD SWAP6 ADD SWAP4 ADD PUSH2 0x2E69 JUMP JUMPDEST ADD MLOAD SWAP1 POP CODESIZE DUP1 PUSH2 0x2C7A JUMP JUMPDEST SWAP3 POP PUSH1 0x7 DUP5 ADD PUSH1 0x0 MSTORE PUSH1 0x20 PUSH1 0x0 KECCAK256 SWAP1 PUSH1 0x0 SWAP4 JUMPDEST PUSH1 0x1F NOT DUP5 AND DUP6 LT PUSH2 0x2F26 JUMPI PUSH1 0x1 SWAP5 POP DUP4 PUSH1 0x1F NOT DUP2 AND LT PUSH2 0x2F0D JUMPI JUMPDEST POP POP POP DUP2 SHL ADD PUSH1 0x7 DUP3 ADD SSTORE PUSH2 0x2C92 JUMP JUMPDEST ADD MLOAD PUSH1 0x0 NOT PUSH1 0xF8 DUP5 PUSH1 0x3 SHL AND SHR NOT AND SWAP1 SSTORE CODESIZE DUP1 DUP1 PUSH2 0x2EFD JUMP JUMPDEST DUP2 DUP2 ADD MLOAD DUP4 SSTORE PUSH1 0x20 SWAP5 DUP6 ADD SWAP5 PUSH1 0x1 SWAP1 SWAP4 ADD SWAP3 SWAP1 SWAP2 ADD SWAP1 PUSH2 0x2EE2 JUMP JUMPDEST ADD MLOAD SWAP1 POP CODESIZE DUP1 PUSH2 0x2C23 JUMP JUMPDEST SWAP3 POP PUSH1 0x6 DUP5 ADD PUSH1 0x0 MSTORE PUSH1 0x20 PUSH1 0x0 KECCAK256 SWAP1 PUSH1 0x0 SWAP4 JUMPDEST PUSH1 0x1F NOT DUP5 AND DUP6 LT PUSH2 0x2FA3 JUMPI PUSH1 0x1 SWAP5 POP DUP4 PUSH1 0x1F NOT DUP2 AND LT PUSH2 0x2F8A JUMPI JUMPDEST POP POP POP DUP2 SHL ADD PUSH1 0x6 DUP3 ADD SSTORE PUSH2 0x2C3B JUMP JUMPDEST ADD MLOAD PUSH1 0x0 NOT PUSH1 0xF8 DUP5 PUSH1 0x3 SHL AND SHR NOT AND SWAP1 SSTORE CODESIZE DUP1 DUP1 PUSH2 0x2F7A JUMP JUMPDEST DUP2 DUP2 ADD MLOAD DUP4 SSTORE PUSH1 0x20 SWAP5 DUP6 ADD SWAP5 PUSH1 0x1 SWAP1 SWAP4 ADD SWAP3 SWAP1 SWAP2 ADD SWAP1 PUSH2 0x2F5F JUMP JUMPDEST ADD MLOAD SWAP1 POP CODESIZE DUP1 PUSH2 0x2BC3 JUMP JUMPDEST SWAP3 POP PUSH1 0x5 DUP5 ADD PUSH1 0x0 MSTORE PUSH1 0x20 PUSH1 0x0 KECCAK256 SWAP1 PUSH1 0x0 SWAP4 JUMPDEST PUSH1 0x1F NOT DUP5 AND DUP6 LT PUSH2 0x3020 JUMPI PUSH1 0x1 SWAP5 POP DUP4 PUSH1 0x1F NOT DUP2 AND LT PUSH2 0x3007 JUMPI JUMPDEST POP POP POP DUP2 SHL ADD PUSH1 0x5 DUP3 ADD SSTORE PUSH2 0x2BDB JUMP JUMPDEST ADD MLOAD PUSH1 0x0 NOT PUSH1 0xF8 DUP5 PUSH1 0x3 SHL AND SHR NOT AND SWAP1 SSTORE CODESIZE DUP1 DUP1 PUSH2 0x2FF7 JUMP JUMPDEST DUP2 DUP2 ADD MLOAD DUP4 SSTORE PUSH1 0x20 SWAP5 DUP6 ADD SWAP5 PUSH1 0x1 SWAP1 SWAP4 ADD SWAP3 SWAP1 SWAP2 ADD SWAP1 PUSH2 0x2FDC JUMP JUMPDEST ADD MLOAD SWAP1 POP CODESIZE DUP1 PUSH2 0x2B63 JUMP JUMPDEST SWAP3 POP PUSH1 0x4 DUP5 ADD PUSH1 0x0 MSTORE PUSH1 0x20 PUSH1 0x0 KECCAK256 SWAP1 PUSH1 0x0 SWAP4 JUMPDEST PUSH1 0x1F NOT DUP5 AND DUP6 LT PUSH2 0x309D JUMPI PUSH1 0x1 SWAP5 POP DUP4 PUSH1 0x1F NOT DUP2 AND LT PUSH2 0x3084 JUMPI JUMPDEST POP POP POP DUP2 SHL ADD PUSH1 0x4 DUP3 ADD SSTORE PUSH2 0x2B7B JUMP JUMPDEST ADD MLOAD PUSH1 0x0 NOT PUSH1 0xF8 DUP5 PUSH1 0x3 SHL AND SHR NOT AND SWAP1 SSTORE CODESIZE DUP1 DUP1 PUSH2 0x3074 JUMP JUMPDEST DUP2 DUP2 ADD MLOAD DUP4 SSTORE PUSH1 0x20 SWAP5 DUP6 ADD SWAP5 PUSH1 0x1 SWAP1 SWAP4 ADD SWAP3 SWAP1 SWAP2 ADD SWAP1 PUSH2 0x3059 JUMP JUMPDEST ADD MLOAD SWAP1 POP CODESIZE DUP1 PUSH2 0x2B0C JUMP JUMPDEST SWAP3 POP PUSH1 0x3 DUP5 ADD PUSH1 0x0 MSTORE PUSH1 0x20 PUSH1 0x0 KECCAK256 SWAP1 PUSH1 0x0 SWAP4 JUMPDEST PUSH1 0x1F NOT DUP5 AND DUP6 LT PUSH2 0x311A JUMPI PUSH1 0x1 SWAP5 POP DUP4 PUSH1 0x1F NOT DUP2 AND LT PUSH2 0x3101 JUMPI JUMPDEST POP POP POP DUP2 SHL ADD PUSH1 0x3 DUP3 ADD SSTORE PUSH2 0x2B24 JUMP JUMPDEST ADD MLOAD PUSH1 0x0 NOT PUSH1 0xF8 DUP5 PUSH1 0x3 SHL AND SHR NOT AND SWAP1 SSTORE CODESIZE DUP1 DUP1 PUSH2 0x30F1 JUMP JUMPDEST DUP2 DUP2 ADD MLOAD DUP4 SSTORE PUSH1 0x20 SWAP5 DUP6 ADD SWAP5 PUSH1 0x1 SWAP1 SWAP4 ADD SWAP3 SWAP1 SWAP2 ADD SWAP1 PUSH2 0x30D6 JUMP JUMPDEST ADD MLOAD SWAP1 POP CODESIZE DUP1 PUSH2 0x2AAC JUMP JUMPDEST SWAP3 POP PUSH1 0x2 DUP5 ADD PUSH1 0x0 MSTORE PUSH1 0x20 PUSH1 0x0 KECCAK256 SWAP1 PUSH1 0x0 SWAP4 JUMPDEST PUSH1 0x1F NOT DUP5 AND DUP6 LT PUSH2 0x3197 JUMPI PUSH1 0x1 SWAP5 POP DUP4 PUSH1 0x1F NOT DUP2 AND LT PUSH2 0x317E JUMPI JUMPDEST POP POP POP DUP2 SHL ADD PUSH1 0x2 DUP3 ADD SSTORE PUSH2 0x2AC4 JUMP JUMPDEST ADD MLOAD PUSH1 0x0 NOT PUSH1 0xF8 DUP5 PUSH1 0x3 SHL AND SHR NOT AND SWAP1 SSTORE CODESIZE DUP1 DUP1 PUSH2 0x316E JUMP JUMPDEST DUP2 DUP2 ADD MLOAD DUP4 SSTORE PUSH1 0x20 SWAP5 DUP6 ADD SWAP5 PUSH1 0x1 SWAP1 SWAP4 ADD SWAP3 SWAP1 SWAP2 ADD SWAP1 PUSH2 0x3153 JUMP JUMPDEST ADD MLOAD SWAP1 POP CODESIZE DUP1 PUSH2 0x2A4C JUMP JUMPDEST SWAP3 POP PUSH1 0x1 DUP5 ADD PUSH1 0x0 MSTORE PUSH1 0x20 PUSH1 0x0 KECCAK256 SWAP1 PUSH1 0x0 SWAP4 JUMPDEST PUSH1 0x1F NOT DUP5 AND DUP6 LT PUSH2 0x3214 JUMPI PUSH1 0x1 SWAP5 POP DUP4 PUSH1 0x1F NOT DUP2 AND LT PUSH2 0x31FB JUMPI JUMPDEST POP POP POP DUP2 SHL ADD PUSH1 0x1 DUP3 ADD SSTORE PUSH2 0x2A64 JUMP JUMPDEST ADD MLOAD PUSH1 0x0 NOT PUSH1 0xF8 DUP5 PUSH1 0x3 SHL AND SHR NOT AND SWAP1 SSTORE CODESIZE DUP1 DUP1 PUSH2 0x31EB JUMP JUMPDEST DUP2 DUP2 ADD MLOAD DUP4 SSTORE PUSH1 0x20 SWAP5 DUP6 ADD SWAP5 PUSH1 0x1 SWAP1 SWAP4 ADD SWAP3 SWAP1 SWAP2 ADD SWAP1 PUSH2 0x31D0 JUMP JUMPDEST ISZERO PUSH2 0x3236 JUMPI JUMP JUMPDEST PUSH1 0x40 MLOAD PUSH3 0x461BCD PUSH1 0xE5 SHL DUP2 MSTORE PUSH1 0x20 PUSH1 0x4 DUP3 ADD MSTORE PUSH1 0x22 PUSH1 0x24 DUP3 ADD MSTORE PUSH32 0x596F7520617265206E6F7420746865206F776E6572206F662074686973206C61 PUSH1 0x44 DUP3 ADD MSTORE PUSH2 0x1B99 PUSH1 0xF2 SHL PUSH1 0x64 DUP3 ADD MSTORE PUSH1 0x84 SWAP1 REVERT JUMPDEST PUSH1 0x40 MLOAD SWAP1 PUSH2 0x3293 DUP3 PUSH2 0x25EB JUMP JUMPDEST PUSH1 0x8 DUP3 MSTORE PUSH8 0x3A3930B739B332B9 PUSH1 0xC1 SHL PUSH1 0x20 DUP4 ADD MSTORE JUMP JUMPDEST PUSH1 0x1 PUSH1 0x1 PUSH1 0x40 SHL SUB DUP2 GT PUSH2 0xDA8 JUMPI PUSH1 0x5 SHL PUSH1 0x20 ADD SWAP1 JUMP JUMPDEST SWAP1 PUSH1 0x40 MLOAD PUSH2 0x32CE DUP2 PUSH2 0x25CF JUMP JUMPDEST PUSH2 0x140 PUSH2 0x337F PUSH1 0xA DUP4 SWAP6 DUP1 SLOAD DUP6 MSTORE PUSH2 0x32E8 PUSH1 0x1 DUP3 ADD PUSH2 0x26D6 JUMP JUMPDEST PUSH1 0x20 DUP7 ADD MSTORE PUSH2 0x32F9 PUSH1 0x2 DUP3 ADD PUSH2 0x26D6 JUMP JUMPDEST PUSH1 0x40 DUP7 ADD MSTORE PUSH2 0x330A PUSH1 0x3 DUP3 ADD PUSH2 0x26D6 JUMP JUMPDEST PUSH1 0x60 DUP7 ADD MSTORE PUSH2 0x331B PUSH1 0x4 DUP3 ADD PUSH2 0x26D6 JUMP JUMPDEST PUSH1 0x80 DUP7 ADD MSTORE PUSH2 0x332C PUSH1 0x5 DUP3 ADD PUSH2 0x26D6 JUMP JUMPDEST PUSH1 0xA0 DUP7 ADD MSTORE PUSH2 0x333D PUSH1 0x6 DUP3 ADD PUSH2 0x26D6 JUMP JUMPDEST PUSH1 0xC0 DUP7 ADD MSTORE PUSH2 0x334E PUSH1 0x7 DUP3 ADD PUSH2 0x26D6 JUMP JUMPDEST PUSH1 0xE0 DUP7 ADD MSTORE PUSH2 0x335F PUSH1 0x8 DUP3 ADD PUSH2 0x26D6 JUMP JUMPDEST PUSH2 0x100 DUP7 ADD MSTORE PUSH1 0x9 DUP2 ADD SLOAD PUSH1 0x1 PUSH1 0x1 PUSH1 0xA0 SHL SUB AND PUSH2 0x120 DUP7 ADD MSTORE ADD PUSH2 0x26D6 JUMP JUMPDEST SWAP2 ADD MSTORE JUMP JUMPDEST PUSH1 0x0 NOT DUP2 EQ PUSH2 0x173A JUMPI PUSH1 0x1 ADD SWAP1 JUMP JUMPDEST SWAP1 DUP1 DUP3 EQ PUSH2 0x3467 JUMPI PUSH2 0x33A5 DUP2 SLOAD PUSH2 0x269C JUMP JUMPDEST SWAP1 PUSH1 0x1 PUSH1 0x1 PUSH1 0x40 SHL SUB DUP3 GT PUSH2 0xDA8 JUMPI DUP2 SWAP1 PUSH2 0x33C4 DUP3 PUSH2 0xB01 DUP7 SLOAD PUSH2 0x269C JUMP JUMPDEST PUSH1 0x0 SWAP1 PUSH1 0x1F DUP4 GT PUSH1 0x1 EQ PUSH2 0x33FB JUMPI PUSH1 0x0 SWAP3 PUSH2 0x33F0 JUMPI JUMPDEST POP POP DUP2 PUSH1 0x1 SHL SWAP2 PUSH1 0x0 NOT SWAP1 PUSH1 0x3 SHL SHR NOT AND OR SWAP1 SSTORE JUMP JUMPDEST ADD SLOAD SWAP1 POP CODESIZE DUP1 PUSH2 0x33DA JUMP JUMPDEST DUP2 MSTORE PUSH1 0x20 DUP1 DUP3 KECCAK256 DUP6 DUP4 MSTORE DUP2 DUP4 KECCAK256 SWAP4 POP SWAP1 PUSH1 0x1F NOT DUP6 AND SWAP1 DUP4 SWAP1 JUMPDEST DUP3 DUP3 LT PUSH2 0x344E JUMPI POP POP SWAP1 DUP5 PUSH1 0x1 SWAP6 SWAP5 SWAP4 SWAP3 LT PUSH2 0x3435 JUMPI JUMPDEST POP POP POP DUP2 SHL ADD SWAP1 SSTORE JUMP JUMPDEST ADD SLOAD PUSH1 0x0 NOT PUSH1 0xF8 DUP5 PUSH1 0x3 SHL AND SHR NOT AND SWAP1 SSTORE CODESIZE DUP1 DUP1 PUSH2 0x342B JUMP JUMPDEST DUP5 SWAP6 DUP2 SWAP3 SWAP6 DUP6 ADD SLOAD DUP2 SSTORE PUSH1 0x1 DUP1 SWAP2 ADD SWAP7 ADD SWAP5 ADD SWAP1 PUSH2 0x3414 JUMP JUMPDEST POP POP JUMP JUMPDEST PUSH2 0x3475 DUP2 SLOAD PUSH2 0x269C JUMP JUMPDEST SWAP1 DUP2 PUSH2 0x347F JUMPI POP POP JUMP JUMPDEST DUP2 PUSH1 0x1F PUSH1 0x0 SWAP4 GT PUSH1 0x1 EQ PUSH2 0x3491 JUMPI POP SSTORE JUMP JUMPDEST SWAP1 DUP1 DUP4 SWAP2 DUP3 MSTORE PUSH2 0x34B0 PUSH1 0x1F PUSH1 0x20 DUP5 KECCAK256 SWAP5 ADD PUSH1 0x5 SHR DUP5 ADD PUSH1 0x1 DUP6 ADD PUSH2 0x292F JUMP JUMPDEST SSTORE SSTORE JUMP JUMPDEST SWAP1 PUSH2 0x34BE DUP3 PUSH2 0x32AA JUMP JUMPDEST PUSH1 0x40 SWAP1 PUSH2 0x34CD DUP3 MLOAD SWAP2 DUP3 PUSH2 0x2606 JUMP JUMPDEST DUP4 DUP2 MSTORE DUP1 SWAP4 PUSH2 0x34DE PUSH1 0x1F NOT SWAP2 PUSH2 0x32AA JUMP JUMPDEST ADD SWAP2 PUSH1 0x0 SWAP2 DUP3 JUMPDEST DUP5 DUP2 LT PUSH2 0x34F3 JUMPI POP POP POP POP POP JUMP JUMPDEST PUSH1 0x20 SWAP1 DUP4 MLOAD PUSH2 0x3501 DUP2 PUSH2 0x25CF JUMP JUMPDEST DUP6 DUP2 MSTORE PUSH1 0x60 DUP4 SWAP1 DUP1 DUP3 DUP5 ADD MSTORE DUP1 DUP8 DUP5 ADD MSTORE DUP1 DUP1 DUP5 ADD MSTORE DUP1 PUSH1 0x80 DUP5 ADD MSTORE DUP1 PUSH1 0xA0 DUP5 ADD MSTORE DUP1 PUSH1 0xC0 DUP5 ADD MSTORE DUP1 PUSH1 0xE0 DUP5 ADD MSTORE PUSH2 0x100 DUP4 ADD MSTORE DUP7 PUSH2 0x120 DUP4 ADD MSTORE DUP7 PUSH2 0x140 DUP4 ADD MSTORE DUP3 DUP6 ADD ADD MSTORE ADD PUSH2 0x34E5 JUMP JUMPDEST DUP1 MLOAD DUP3 LT ISZERO PUSH2 0x2153 JUMPI PUSH1 0x20 SWAP2 PUSH1 0x5 SHL ADD ADD SWAP1 JUMP INVALID LOG2 PUSH5 0x6970667358 0x22 SLT KECCAK256 0xEB 0xBA CODECOPY CODESIZE 0x5D OR 0xBC 0xED EXTCODEHASH 0xCF SLT SLT PUSH5 0xE5A1784F23 CHAINID 0xC3 0xDE SHR PUSH19 0x20A119E9C806B7AD7064736F6C634300081300 CALLER "},"methodIdentifiers":{"getAllLandDetails()":"a6ac704e","getLandDetails(uint256)":"fe0cb7dc","getOwnedLandDetails(address)":"f47d31dc","getOwnershipHistory(uint256)":"f1dbaccb","getPendingRequests()":"80a1f712","landCounter()":"9e29ce18","landRegistry(uint256)":"a3695b18","ownershipHistory(uint256)":"19159f20","pendingRequests(uint256)":"3c652a9a","registerLand(string,uint256,string,string,string,string,string,string,string)":"4abac37b","registeredLandIds(uint256)":"da5f55e9","transferLand(uint256,address,string,string,string,string,string,string)":"09c05b0e","updateLandDetails(uint256,string,string,string,string,string,string,string)":"7ce411f9","verifyRequest(uint256)":"7ae6da9b"}}}}}