{
  "_format": "hh-sol-artifact-1",
  "contractName": "UserAuthenticationManagement",
  "sourceName": "contracts/UserAuthenticationManagement.sol",
  "abi": [
    {
      "inputs": [],
      "name": "getUser",
      "outputs": [
        {
          "internalType": "string",
          "name": "",
          "type": "string"
        },
        {
          "internalType": "string",
          "name": "",
          "type": "string"
        },
        {
          "internalType": "string",
          "name": "",
          "type": "string"
        },
        {
          "internalType": "string",
          "name": "",
          "type": "string"
        }
      ],
      "stateMutability": "view",
      "type": "function"
    },
    {
      "inputs": [
        {
          "internalType": "string",
          "name": "_email",
          "type": "string"
        },
        {
          "internalType": "string",
          "name": "_password",
          "type": "string"
        }
      ],
      "name": "loginUser",
      "outputs": [
        {
          "internalType": "bool",
          "name": "",
          "type": "bool"
        }
      ],
      "stateMutability": "view",
      "type": "function"
    },
    {
      "inputs": [
        {
          "internalType": "string",
          "name": "_CNIC",
          "type": "string"
        },
        {
          "internalType": "string",
          "name": "_name",
          "type": "string"
        },
        {
          "internalType": "string",
          "name": "_fatherName",
          "type": "string"
        },
        {
          "internalType": "string",
          "name": "_phoneNumber",
          "type": "string"
        },
        {
          "internalType": "string",
          "name": "_email",
          "type": "string"
        },
        {
          "internalType": "string",
          "name": "_password",
          "type": "string"
        },
        {
          "internalType": "string",
          "name": "_permanentAddress",
          "type": "string"
        },
        {
          "internalType": "string",
          "name": "_currentAddress",
          "type": "string"
        }
      ],
      "name": "registerUser",
      "outputs": [],
      "stateMutability": "nonpayable",
      "type": "function"
    },
    {
      "inputs": [
        {
          "internalType": "address",
          "name": "",
          "type": "address"
        }
      ],
      "name": "users",
      "outputs": [
        {
          "internalType": "string",
          "name": "cnic",
          "type": "string"
        },
        {
          "internalType": "string",
          "name": "name",
          "type": "string"
        },
        {
          "internalType": "string",
          "name": "fatherName",
          "type": "string"
        },
        {
          "internalType": "string",
          "name": "phoneNumber",
          "type": "string"
        },
        {
          "internalType": "string",
          "name": "email",
          "type": "string"
        },
        {
          "internalType": "string",
          "name": "password",
          "type": "string"
        },
        {
          "internalType": "string",
          "name": "permanentAddress",
          "type": "string"
        },
        {
          "internalType": "string",
          "name": "currentAddress",
          "type": "string"
        },
        {
          "internalType": "bool",
          "name": "isregister",
          "type": "bool"
        }
      ],
      "stateMutability": "view",
      "type": "function"
    }
  ],
  "bytecode": "0x608060405234801561001057600080fd5b50611d50806100206000396000f3fe608060405234801561001057600080fd5b506004361061004c5760003560e01c806322ce12e51461005157806367601dd114610081578063832880e71461009d578063a87430ba146100be575b600080fd5b61006b6004803603810190610066919061146d565b6100f6565b6040516100789190611500565b60405180910390f35b61009b6004803603810190610096919061151b565b6106ff565b005b6100a5610956565b6040516100b59493929190611730565b60405180910390f35b6100d860048036038101906100d391906117ef565b610e78565b6040516100ed9998979695949392919061181c565b60405180910390f35b600080600184604051610109919061191d565b908152602001604051809103902060009054906101000a900473ffffffffffffffffffffffffffffffffffffffff169050600073ffffffffffffffffffffffffffffffffffffffff168173ffffffffffffffffffffffffffffffffffffffff16036101a9576040517f08c379a00000000000000000000000000000000000000000000000000000000081526004016101a090611980565b60405180910390fd5b60008060008373ffffffffffffffffffffffffffffffffffffffff1673ffffffffffffffffffffffffffffffffffffffff16815260200190815260200160002060405180610120016040529081600082018054610205906119cf565b80601f0160208091040260200160405190810160405280929190818152602001828054610231906119cf565b801561027e5780601f106102535761010080835404028352916020019161027e565b820191906000526020600020905b81548152906001019060200180831161026157829003601f168201915b50505050508152602001600182018054610297906119cf565b80601f01602080910402602001604051908101604052809291908181526020018280546102c3906119cf565b80156103105780601f106102e557610100808354040283529160200191610310565b820191906000526020600020905b8154815290600101906020018083116102f357829003601f168201915b50505050508152602001600282018054610329906119cf565b80601f0160208091040260200160405190810160405280929190818152602001828054610355906119cf565b80156103a25780601f10610377576101008083540402835291602001916103a2565b820191906000526020600020905b81548152906001019060200180831161038557829003601f168201915b505050505081526020016003820180546103bb906119cf565b80601f01602080910402602001604051908101604052809291908181526020018280546103e7906119cf565b80156104345780601f1061040957610100808354040283529160200191610434565b820191906000526020600020905b81548152906001019060200180831161041757829003601f168201915b5050505050815260200160048201805461044d906119cf565b80601f0160208091040260200160405190810160405280929190818152602001828054610479906119cf565b80156104c65780601f1061049b576101008083540402835291602001916104c6565b820191906000526020600020905b8154815290600101906020018083116104a957829003601f168201915b505050505081526020016005820180546104df906119cf565b80601f016020809104026020016040519081016040528092919081815260200182805461050b906119cf565b80156105585780601f1061052d57610100808354040283529160200191610558565b820191906000526020600020905b81548152906001019060200180831161053b57829003601f168201915b50505050508152602001600682018054610571906119cf565b80601f016020809104026020016040519081016040528092919081815260200182805461059d906119cf565b80156105ea5780601f106105bf576101008083540402835291602001916105ea565b820191906000526020600020905b8154815290600101906020018083116105cd57829003601f168201915b50505050508152602001600782018054610603906119cf565b80601f016020809104026020016040519081016040528092919081815260200182805461062f906119cf565b801561067c5780601f106106515761010080835404028352916020019161067c565b820191906000526020600020905b81548152906001019060200180831161065f57829003601f168201915b505050505081526020016008820160009054906101000a900460ff16151515158152505090508060a001516040516020016106b7919061191d565b60405160208183030381529060405280519060200120846040516020016106de919061191d565b60405160208183030381529060405280519060200120149250505092915050565b600015156000803373ffffffffffffffffffffffffffffffffffffffff1673ffffffffffffffffffffffffffffffffffffffff16815260200190815260200160002060080160009054906101000a900460ff16151514610794576040517f08c379a000000000000000000000000000000000000000000000000000000000815260040161078b90611a72565b60405180910390fd5b60006040518061012001604052808a8152602001898152602001888152602001878152602001868152602001858152602001848152602001838152602001600115158152509050806000803373ffffffffffffffffffffffffffffffffffffffff1673ffffffffffffffffffffffffffffffffffffffff168152602001908152602001600020600082015181600001908161082f9190611c48565b5060208201518160010190816108459190611c48565b50604082015181600201908161085b9190611c48565b5060608201518160030190816108719190611c48565b5060808201518160040190816108879190611c48565b5060a082015181600501908161089d9190611c48565b5060c08201518160060190816108b39190611c48565b5060e08201518160070190816108c99190611c48565b506101008201518160080160006101000a81548160ff021916908315150217905550905050336001866040516108ff919061191d565b908152602001604051809103902060006101000a81548173ffffffffffffffffffffffffffffffffffffffff021916908373ffffffffffffffffffffffffffffffffffffffff160217905550505050505050505050565b60608060608060008060003373ffffffffffffffffffffffffffffffffffffffff1673ffffffffffffffffffffffffffffffffffffffff168152602001908152602001600020604051806101200160405290816000820180546109b8906119cf565b80601f01602080910402602001604051908101604052809291908181526020018280546109e4906119cf565b8015610a315780601f10610a0657610100808354040283529160200191610a31565b820191906000526020600020905b815481529060010190602001808311610a1457829003601f168201915b50505050508152602001600182018054610a4a906119cf565b80601f0160208091040260200160405190810160405280929190818152602001828054610a76906119cf565b8015610ac35780601f10610a9857610100808354040283529160200191610ac3565b820191906000526020600020905b815481529060010190602001808311610aa657829003601f168201915b50505050508152602001600282018054610adc906119cf565b80601f0160208091040260200160405190810160405280929190818152602001828054610b08906119cf565b8015610b555780601f10610b2a57610100808354040283529160200191610b55565b820191906000526020600020905b815481529060010190602001808311610b3857829003601f168201915b50505050508152602001600382018054610b6e906119cf565b80601f0160208091040260200160405190810160405280929190818152602001828054610b9a906119cf565b8015610be75780601f10610bbc57610100808354040283529160200191610be7565b820191906000526020600020905b815481529060010190602001808311610bca57829003601f168201915b50505050508152602001600482018054610c00906119cf565b80601f0160208091040260200160405190810160405280929190818152602001828054610c2c906119cf565b8015610c795780601f10610c4e57610100808354040283529160200191610c79565b820191906000526020600020905b815481529060010190602001808311610c5c57829003601f168201915b50505050508152602001600582018054610c92906119cf565b80601f0160208091040260200160405190810160405280929190818152602001828054610cbe906119cf565b8015610d0b5780601f10610ce057610100808354040283529160200191610d0b565b820191906000526020600020905b815481529060010190602001808311610cee57829003601f168201915b50505050508152602001600682018054610d24906119cf565b80601f0160208091040260200160405190810160405280929190818152602001828054610d50906119cf565b8015610d9d5780601f10610d7257610100808354040283529160200191610d9d565b820191906000526020600020905b815481529060010190602001808311610d8057829003601f168201915b50505050508152602001600782018054610db6906119cf565b80601f0160208091040260200160405190810160405280929190818152602001828054610de2906119cf565b8015610e2f5780601f10610e0457610100808354040283529160200191610e2f565b820191906000526020600020905b815481529060010190602001808311610e1257829003601f168201915b505050505081526020016008820160009054906101000a900460ff16151515158152505090508060000151816020015182608001518360a0015194509450945094505090919293565b6000602052806000526040600020600091509050806000018054610e9b906119cf565b80601f0160208091040260200160405190810160405280929190818152602001828054610ec7906119cf565b8015610f145780601f10610ee957610100808354040283529160200191610f14565b820191906000526020600020905b815481529060010190602001808311610ef757829003601f168201915b505050505090806001018054610f29906119cf565b80601f0160208091040260200160405190810160405280929190818152602001828054610f55906119cf565b8015610fa25780601f10610f7757610100808354040283529160200191610fa2565b820191906000526020600020905b815481529060010190602001808311610f8557829003601f168201915b505050505090806002018054610fb7906119cf565b80601f0160208091040260200160405190810160405280929190818152602001828054610fe3906119cf565b80156110305780601f1061100557610100808354040283529160200191611030565b820191906000526020600020905b81548152906001019060200180831161101357829003601f168201915b505050505090806003018054611045906119cf565b80601f0160208091040260200160405190810160405280929190818152602001828054611071906119cf565b80156110be5780601f10611093576101008083540402835291602001916110be565b820191906000526020600020905b8154815290600101906020018083116110a157829003601f168201915b5050505050908060040180546110d3906119cf565b80601f01602080910402602001604051908101604052809291908181526020018280546110ff906119cf565b801561114c5780601f106111215761010080835404028352916020019161114c565b820191906000526020600020905b81548152906001019060200180831161112f57829003601f168201915b505050505090806005018054611161906119cf565b80601f016020809104026020016040519081016040528092919081815260200182805461118d906119cf565b80156111da5780601f106111af576101008083540402835291602001916111da565b820191906000526020600020905b8154815290600101906020018083116111bd57829003601f168201915b5050505050908060060180546111ef906119cf565b80601f016020809104026020016040519081016040528092919081815260200182805461121b906119cf565b80156112685780601f1061123d57610100808354040283529160200191611268565b820191906000526020600020905b81548152906001019060200180831161124b57829003601f168201915b50505050509080600701805461127d906119cf565b80601f01602080910402602001604051908101604052809291908181526020018280546112a9906119cf565b80156112f65780601f106112cb576101008083540402835291602001916112f6565b820191906000526020600020905b8154815290600101906020018083116112d957829003601f168201915b5050505050908060080160009054906101000a900460ff16905089565b6000604051905090565b600080fd5b600080fd5b600080fd5b600080fd5b6000601f19601f8301169050919050565b7f4e487b7100000000000000000000000000000000000000000000000000000000600052604160045260246000fd5b61137a82611331565b810181811067ffffffffffffffff8211171561139957611398611342565b5b80604052505050565b60006113ac611313565b90506113b88282611371565b919050565b600067ffffffffffffffff8211156113d8576113d7611342565b5b6113e182611331565b9050602081019050919050565b82818337600083830152505050565b600061141061140b846113bd565b6113a2565b90508281526020810184848401111561142c5761142b61132c565b5b6114378482856113ee565b509392505050565b600082601f83011261145457611453611327565b5b81356114648482602086016113fd565b91505092915050565b600080604083850312156114845761148361131d565b5b600083013567ffffffffffffffff8111156114a2576114a1611322565b5b6114ae8582860161143f565b925050602083013567ffffffffffffffff8111156114cf576114ce611322565b5b6114db8582860161143f565b9150509250929050565b60008115159050919050565b6114fa816114e5565b82525050565b600060208201905061151560008301846114f1565b92915050565b600080600080600080600080610100898b03121561153c5761153b61131d565b5b600089013567ffffffffffffffff81111561155a57611559611322565b5b6115668b828c0161143f565b985050602089013567ffffffffffffffff81111561158757611586611322565b5b6115938b828c0161143f565b975050604089013567ffffffffffffffff8111156115b4576115b3611322565b5b6115c08b828c0161143f565b965050606089013567ffffffffffffffff8111156115e1576115e0611322565b5b6115ed8b828c0161143f565b955050608089013567ffffffffffffffff81111561160e5761160d611322565b5b61161a8b828c0161143f565b94505060a089013567ffffffffffffffff81111561163b5761163a611322565b5b6116478b828c0161143f565b93505060c089013567ffffffffffffffff81111561166857611667611322565b5b6116748b828c0161143f565b92505060e089013567ffffffffffffffff81111561169557611694611322565b5b6116a18b828c0161143f565b9150509295985092959890939650565b600081519050919050565b600082825260208201905092915050565b60005b838110156116eb5780820151818401526020810190506116d0565b60008484015250505050565b6000611702826116b1565b61170c81856116bc565b935061171c8185602086016116cd565b61172581611331565b840191505092915050565b6000608082019050818103600083015261174a81876116f7565b9050818103602083015261175e81866116f7565b9050818103604083015261177281856116f7565b9050818103606083015261178681846116f7565b905095945050505050565b600073ffffffffffffffffffffffffffffffffffffffff82169050919050565b60006117bc82611791565b9050919050565b6117cc816117b1565b81146117d757600080fd5b50565b6000813590506117e9816117c3565b92915050565b6000602082840312156118055761180461131d565b5b6000611813848285016117da565b91505092915050565b6000610120820190508181036000830152611837818c6116f7565b9050818103602083015261184b818b6116f7565b9050818103604083015261185f818a6116f7565b9050818103606083015261187381896116f7565b9050818103608083015261188781886116f7565b905081810360a083015261189b81876116f7565b905081810360c08301526118af81866116f7565b905081810360e08301526118c381856116f7565b90506118d36101008301846114f1565b9a9950505050505050505050565b600081905092915050565b60006118f7826116b1565b61190181856118e1565b93506119118185602086016116cd565b80840191505092915050565b600061192982846118ec565b915081905092915050565b7f456d61696c206e6f7420666f756e640000000000000000000000000000000000600082015250565b600061196a600f836116bc565b915061197582611934565b602082019050919050565b600060208201905081810360008301526119998161195d565b9050919050565b7f4e487b7100000000000000000000000000000000000000000000000000000000600052602260045260246000fd5b600060028204905060018216806119e757607f821691505b6020821081036119fa576119f96119a0565b5b50919050565b7f557365722077697468207468697320457468657265756d20416464726573732060008201527f616c726561647920657869737473000000000000000000000000000000000000602082015250565b6000611a5c602e836116bc565b9150611a6782611a00565b604082019050919050565b60006020820190508181036000830152611a8b81611a4f565b9050919050565b60008190508160005260206000209050919050565b60006020601f8301049050919050565b600082821b905092915050565b600060088302611af47fffffffffffffffffffffffffffffffffffffffffffffffffffffffffffffffff82611ab7565b611afe8683611ab7565b95508019841693508086168417925050509392505050565b6000819050919050565b6000819050919050565b6000611b45611b40611b3b84611b16565b611b20565b611b16565b9050919050565b6000819050919050565b611b5f83611b2a565b611b73611b6b82611b4c565b848454611ac4565b825550505050565b600090565b611b88611b7b565b611b93818484611b56565b505050565b5b81811015611bb757611bac600082611b80565b600181019050611b99565b5050565b601f821115611bfc57611bcd81611a92565b611bd684611aa7565b81016020851015611be5578190505b611bf9611bf185611aa7565b830182611b98565b50505b505050565b600082821c905092915050565b6000611c1f60001984600802611c01565b1980831691505092915050565b6000611c388383611c0e565b9150826002028217905092915050565b611c51826116b1565b67ffffffffffffffff811115611c6a57611c69611342565b5b611c7482546119cf565b611c7f828285611bbb565b600060209050601f831160018114611cb25760008415611ca0578287015190505b611caa8582611c2c565b865550611d12565b601f198416611cc086611a92565b60005b82811015611ce857848901518255600182019150602085019450602081019050611cc3565b86831015611d055784890151611d01601f891682611c0e565b8355505b6001600288020188555050505b50505050505056fea26469706673582212205697cfee295532cfa9a4e08634b1271a59009942741cc8677c562a283617749c64736f6c63430008130033",
  "linkReferences": {},
  "deployedLinkReferences": {}
}