{
  "_format": "hh-sol-artifact-1",
  "contractName": "AdminAuthentication",
  "sourceName": "contracts/AdminAuthentication.sol",
  "abi": [
    {
      "anonymous": false,
      "inputs": [
        {
          "indexed": false,
          "internalType": "address",
          "name": "adminAddress",
          "type": "address"
        }
      ],
      "name": "AdminAdded",
      "type": "event"
    },
    {
      "anonymous": false,
      "inputs": [
        {
          "indexed": false,
          "internalType": "address",
          "name": "adminAddress",
          "type": "address"
        }
      ],
      "name": "AdminLoggedIn",
      "type": "event"
    },
    {
      "inputs": [
        {
          "internalType": "address",
          "name": "_adminAddress",
          "type": "address"
        },
        {
          "internalType": "string",
          "name": "_password",
          "type": "string"
        }
      ],
      "name": "addAdmin",
      "outputs": [],
      "stateMutability": "nonpayable",
      "type": "function"
    },
    {
      "inputs": [
        {
          "internalType": "string",
          "name": "_title",
          "type": "string"
        },
        {
          "internalType": "string",
          "name": "_description",
          "type": "string"
        }
      ],
      "name": "addPolicy",
      "outputs": [],
      "stateMutability": "nonpayable",
      "type": "function"
    },
    {
      "inputs": [
        {
          "internalType": "address",
          "name": "_adminAddress",
          "type": "address"
        }
      ],
      "name": "handleSuccessfulLogin",
      "outputs": [],
      "stateMutability": "nonpayable",
      "type": "function"
    },
    {
      "inputs": [
        {
          "internalType": "address",
          "name": "_adminAddress",
          "type": "address"
        },
        {
          "internalType": "string",
          "name": "_password",
          "type": "string"
        }
      ],
      "name": "login",
      "outputs": [
        {
          "internalType": "bool",
          "name": "",
          "type": "bool"
        }
      ],
      "stateMutability": "view",
      "type": "function"
    },
    {
      "inputs": [],
      "name": "nextPolicyId",
      "outputs": [
        {
          "internalType": "uint256",
          "name": "",
          "type": "uint256"
        }
      ],
      "stateMutability": "view",
      "type": "function"
    },
    {
      "inputs": [
        {
          "internalType": "uint256",
          "name": "",
          "type": "uint256"
        }
      ],
      "name": "policies",
      "outputs": [
        {
          "internalType": "string",
          "name": "title",
          "type": "string"
        },
        {
          "internalType": "string",
          "name": "description",
          "type": "string"
        }
      ],
      "stateMutability": "view",
      "type": "function"
    }
  ],
  "bytecode": "0x6080604052600160025534801561001557600080fd5b5061108d806100256000396000f3fe608060405234801561001057600080fd5b50600436106100625760003560e01c80632f19d50b14610067578063546b35861461009757806387326741146100b3578063cad0b8db146100cf578063d16856ca146100ed578063d3e8948314610109575b600080fd5b610081600480360381019061007c91906107f4565b61013a565b60405161008e919061086b565b60405180910390f35b6100b160048036038101906100ac9190610886565b6102b6565b005b6100cd60048036038101906100c891906108b3565b6102f0565b005b6100d7610365565b6040516100e49190610944565b60405180910390f35b610107600480360381019061010291906107f4565b61036b565b005b610123600480360381019061011e919061098b565b610508565b604051610131929190610a37565b60405180910390f35b60008060008473ffffffffffffffffffffffffffffffffffffffff1673ffffffffffffffffffffffffffffffffffffffff16815260200190815260200160002060000160009054906101000a900460ff166101ca576040517f08c379a00000000000000000000000000000000000000000000000000000000081526004016101c190610aba565b60405180910390fd5b600082511161020e576040517f08c379a000000000000000000000000000000000000000000000000000000000815260040161020590610b26565b60405180910390fd5b81805190602001206000808573ffffffffffffffffffffffffffffffffffffffff1673ffffffffffffffffffffffffffffffffffffffff1681526020019081526020016000206001016040516102649190610c49565b6040518091039020146102ac576040517f08c379a00000000000000000000000000000000000000000000000000000000081526004016102a390610cac565b60405180910390fd5b6001905092915050565b7fb59f440754e07ccf4f8158d21ab17643d0854c21b74aaffee912ad01931b2283816040516102e59190610cdb565b60405180910390a150565b604051806040016040528083815260200182815250600160006002548152602001908152602001600020600082015181600001908161032f9190610ea2565b5060208201518160010190816103459190610ea2565b509050506002600081548092919061035c90610fa3565b91905055505050565b60025481565b6000808373ffffffffffffffffffffffffffffffffffffffff1673ffffffffffffffffffffffffffffffffffffffff16815260200190815260200160002060000160009054906101000a900460ff16156103fa576040517f08c379a00000000000000000000000000000000000000000000000000000000081526004016103f190611037565b60405180910390fd5b600081511161043e576040517f08c379a000000000000000000000000000000000000000000000000000000000815260040161043590610b26565b60405180910390fd5b6040518060400160405280600115158152602001828152506000808473ffffffffffffffffffffffffffffffffffffffff1673ffffffffffffffffffffffffffffffffffffffff16815260200190815260200160002060008201518160000160006101000a81548160ff02191690831515021790555060208201518160010190816104c99190610ea2565b509050507f44d6d25963f097ad14f29f06854a01f575648a1ef82f30e562ccd3889717e339826040516104fc9190610cdb565b60405180910390a15050565b600160205280600052604060002060009150905080600001805461052b90610b75565b80601f016020809104026020016040519081016040528092919081815260200182805461055790610b75565b80156105a45780601f10610579576101008083540402835291602001916105a4565b820191906000526020600020905b81548152906001019060200180831161058757829003601f168201915b5050505050908060010180546105b990610b75565b80601f01602080910402602001604051908101604052809291908181526020018280546105e590610b75565b80156106325780601f1061060757610100808354040283529160200191610632565b820191906000526020600020905b81548152906001019060200180831161061557829003601f168201915b5050505050905082565b6000604051905090565b600080fd5b600080fd5b600073ffffffffffffffffffffffffffffffffffffffff82169050919050565b600061067b82610650565b9050919050565b61068b81610670565b811461069657600080fd5b50565b6000813590506106a881610682565b92915050565b600080fd5b600080fd5b6000601f19601f8301169050919050565b7f4e487b7100000000000000000000000000000000000000000000000000000000600052604160045260246000fd5b610701826106b8565b810181811067ffffffffffffffff821117156107205761071f6106c9565b5b80604052505050565b600061073361063c565b905061073f82826106f8565b919050565b600067ffffffffffffffff82111561075f5761075e6106c9565b5b610768826106b8565b9050602081019050919050565b82818337600083830152505050565b600061079761079284610744565b610729565b9050828152602081018484840111156107b3576107b26106b3565b5b6107be848285610775565b509392505050565b600082601f8301126107db576107da6106ae565b5b81356107eb848260208601610784565b91505092915050565b6000806040838503121561080b5761080a610646565b5b600061081985828601610699565b925050602083013567ffffffffffffffff81111561083a5761083961064b565b5b610846858286016107c6565b9150509250929050565b60008115159050919050565b61086581610850565b82525050565b6000602082019050610880600083018461085c565b92915050565b60006020828403121561089c5761089b610646565b5b60006108aa84828501610699565b91505092915050565b600080604083850312156108ca576108c9610646565b5b600083013567ffffffffffffffff8111156108e8576108e761064b565b5b6108f4858286016107c6565b925050602083013567ffffffffffffffff8111156109155761091461064b565b5b610921858286016107c6565b9150509250929050565b6000819050919050565b61093e8161092b565b82525050565b60006020820190506109596000830184610935565b92915050565b6109688161092b565b811461097357600080fd5b50565b6000813590506109858161095f565b92915050565b6000602082840312156109a1576109a0610646565b5b60006109af84828501610976565b91505092915050565b600081519050919050565b600082825260208201905092915050565b60005b838110156109f25780820151818401526020810190506109d7565b60008484015250505050565b6000610a09826109b8565b610a1381856109c3565b9350610a238185602086016109d4565b610a2c816106b8565b840191505092915050565b60006040820190508181036000830152610a5181856109fe565b90508181036020830152610a6581846109fe565b90509392505050565b7f41646d696e20646f6573206e6f74206578697374000000000000000000000000600082015250565b6000610aa46014836109c3565b9150610aaf82610a6e565b602082019050919050565b60006020820190508181036000830152610ad381610a97565b9050919050565b7f456d7074792070617373776f7264000000000000000000000000000000000000600082015250565b6000610b10600e836109c3565b9150610b1b82610ada565b602082019050919050565b60006020820190508181036000830152610b3f81610b03565b9050919050565b7f4e487b7100000000000000000000000000000000000000000000000000000000600052602260045260246000fd5b60006002820490506001821680610b8d57607f821691505b602082108103610ba057610b9f610b46565b5b50919050565b600081905092915050565b60008190508160005260206000209050919050565b60008154610bd381610b75565b610bdd8186610ba6565b94506001821660008114610bf85760018114610c0d57610c40565b60ff1983168652811515820286019350610c40565b610c1685610bb1565b60005b83811015610c3857815481890152600182019150602081019050610c19565b838801955050505b50505092915050565b6000610c558284610bc6565b915081905092915050565b7f496e636f72726563742070617373776f72640000000000000000000000000000600082015250565b6000610c966012836109c3565b9150610ca182610c60565b602082019050919050565b60006020820190508181036000830152610cc581610c89565b9050919050565b610cd581610670565b82525050565b6000602082019050610cf06000830184610ccc565b92915050565b60008190508160005260206000209050919050565b60006020601f8301049050919050565b600082821b905092915050565b600060088302610d587fffffffffffffffffffffffffffffffffffffffffffffffffffffffffffffffff82610d1b565b610d628683610d1b565b95508019841693508086168417925050509392505050565b6000819050919050565b6000610d9f610d9a610d958461092b565b610d7a565b61092b565b9050919050565b6000819050919050565b610db983610d84565b610dcd610dc582610da6565b848454610d28565b825550505050565b600090565b610de2610dd5565b610ded818484610db0565b505050565b5b81811015610e1157610e06600082610dda565b600181019050610df3565b5050565b601f821115610e5657610e2781610cf6565b610e3084610d0b565b81016020851015610e3f578190505b610e53610e4b85610d0b565b830182610df2565b50505b505050565b600082821c905092915050565b6000610e7960001984600802610e5b565b1980831691505092915050565b6000610e928383610e68565b9150826002028217905092915050565b610eab826109b8565b67ffffffffffffffff811115610ec457610ec36106c9565b5b610ece8254610b75565b610ed9828285610e15565b600060209050601f831160018114610f0c5760008415610efa578287015190505b610f048582610e86565b865550610f6c565b601f198416610f1a86610cf6565b60005b82811015610f4257848901518255600182019150602085019450602081019050610f1d565b86831015610f5f5784890151610f5b601f891682610e68565b8355505b6001600288020188555050505b505050505050565b7f4e487b7100000000000000000000000000000000000000000000000000000000600052601160045260246000fd5b6000610fae8261092b565b91507fffffffffffffffffffffffffffffffffffffffffffffffffffffffffffffffff8203610fe057610fdf610f74565b5b600182019050919050565b7f41646d696e20616c726561647920657869737473000000000000000000000000600082015250565b60006110216014836109c3565b915061102c82610feb565b602082019050919050565b6000602082019050818103600083015261105081611014565b905091905056fea2646970667358221220c9c33d3a930c07e8cc023669d994eb7e4000cef09c516b8642a7dbedb5d5a4b764736f6c63430008130033",
  "linkReferences": {},
  "deployedLinkReferences": {}
}