{
  "_format": "hh-sol-artifact-1",
  "contractName": "AdminAuthentication",
  "sourceName": "contracts/AdminAuthentication.sol",
  "abi": [
    {
      "anonymous": false,
      "inputs": [
        {
          "indexed": false,
          "internalType": "address",
          "name": "adminAddress",
          "type": "address"
        }
      ],
      "name": "AdminAdded",
      "type": "event"
    },
    {
      "anonymous": false,
      "inputs": [
        {
          "indexed": false,
          "internalType": "address",
          "name": "adminAddress",
          "type": "address"
        }
      ],
      "name": "AdminLoggedIn",
      "type": "event"
    },
    {
      "inputs": [
        {
          "internalType": "address",
          "name": "_adminAddress",
          "type": "address"
        },
        {
          "internalType": "string",
          "name": "_password",
          "type": "string"
        }
      ],
      "name": "addAdmin",
      "outputs": [],
      "stateMutability": "nonpayable",
      "type": "function"
    },
    {
      "inputs": [
        {
          "internalType": "string",
          "name": "_title",
          "type": "string"
        },
        {
          "internalType": "string",
          "name": "_description",
          "type": "string"
        }
      ],
      "name": "addPolicy",
      "outputs": [],
      "stateMutability": "nonpayable",
      "type": "function"
    },
    {
      "inputs": [
        {
          "internalType": "address",
          "name": "_userAddress",
          "type": "address"
        }
      ],
      "name": "getNameForAddress",
      "outputs": [
        {
          "internalType": "string",
          "name": "",
          "type": "string"
        }
      ],
      "stateMutability": "view",
      "type": "function"
    },
    {
      "inputs": [],
      "name": "getUser",
      "outputs": [
        {
          "internalType": "string",
          "name": "",
          "type": "string"
        },
        {
          "internalType": "string",
          "name": "",
          "type": "string"
        },
        {
          "internalType": "string",
          "name": "",
          "type": "string"
        },
        {
          "internalType": "string",
          "name": "",
          "type": "string"
        }
      ],
      "stateMutability": "view",
      "type": "function"
    },
    {
      "inputs": [
        {
          "internalType": "string",
          "name": "_password",
          "type": "string"
        }
      ],
      "name": "login",
      "outputs": [
        {
          "internalType": "bool",
          "name": "",
          "type": "bool"
        }
      ],
      "stateMutability": "view",
      "type": "function"
    },
    {
      "inputs": [
        {
          "internalType": "string",
          "name": "_email",
          "type": "string"
        },
        {
          "internalType": "string",
          "name": "_password",
          "type": "string"
        }
      ],
      "name": "loginUser",
      "outputs": [],
      "stateMutability": "nonpayable",
      "type": "function"
    },
    {
      "inputs": [],
      "name": "logoutUser",
      "outputs": [],
      "stateMutability": "nonpayable",
      "type": "function"
    },
    {
      "inputs": [],
      "name": "nextPolicyId",
      "outputs": [
        {
          "internalType": "uint256",
          "name": "",
          "type": "uint256"
        }
      ],
      "stateMutability": "view",
      "type": "function"
    },
    {
      "inputs": [
        {
          "internalType": "uint256",
          "name": "",
          "type": "uint256"
        }
      ],
      "name": "policies",
      "outputs": [
        {
          "internalType": "string",
          "name": "title",
          "type": "string"
        },
        {
          "internalType": "string",
          "name": "description",
          "type": "string"
        }
      ],
      "stateMutability": "view",
      "type": "function"
    },
    {
      "inputs": [
        {
          "internalType": "string",
          "name": "_CNIC",
          "type": "string"
        },
        {
          "internalType": "string",
          "name": "_name",
          "type": "string"
        },
        {
          "internalType": "string",
          "name": "_fatherName",
          "type": "string"
        },
        {
          "internalType": "string",
          "name": "_phoneNumber",
          "type": "string"
        },
        {
          "internalType": "string",
          "name": "_email",
          "type": "string"
        },
        {
          "internalType": "string",
          "name": "_password",
          "type": "string"
        },
        {
          "internalType": "string",
          "name": "_permanentAddress",
          "type": "string"
        },
        {
          "internalType": "string",
          "name": "_currentAddress",
          "type": "string"
        }
      ],
      "name": "registerUser",
      "outputs": [],
      "stateMutability": "nonpayable",
      "type": "function"
    },
    {
      "inputs": [
        {
          "internalType": "address",
          "name": "",
          "type": "address"
        }
      ],
      "name": "users",
      "outputs": [
        {
          "internalType": "string",
          "name": "cnic",
          "type": "string"
        },
        {
          "internalType": "string",
          "name": "name",
          "type": "string"
        },
        {
          "internalType": "string",
          "name": "fatherName",
          "type": "string"
        },
        {
          "internalType": "string",
          "name": "phoneNumber",
          "type": "string"
        },
        {
          "internalType": "string",
          "name": "email",
          "type": "string"
        },
        {
          "internalType": "string",
          "name": "password",
          "type": "string"
        },
        {
          "internalType": "string",
          "name": "permanentAddress",
          "type": "string"
        },
        {
          "internalType": "string",
          "name": "currentAddress",
          "type": "string"
        },
        {
          "internalType": "bool",
          "name": "isregister",
          "type": "bool"
        }
      ],
      "stateMutability": "view",
      "type": "function"
    }
  ],
  "bytecode": "0x6080604052600160055534801561001557600080fd5b50612679806100256000396000f3fe608060405234801561001057600080fd5b50600436106100a95760003560e01c8063a87430ba11610071578063a87430ba14610153578063cad0b8db1461018b578063d16856ca146101a9578063d3e89483146101c5578063d8c27b9b146101f6578063d8f145d214610226576100a9565b806322ce12e5146100ae5780633a7d280c146100ca57806367601dd1146100fa578063832880e7146101165780638732674114610137575b600080fd5b6100c860048036038101906100c3919061180c565b610230565b005b6100e460048036038101906100df9190611884565b6103ca565b6040516100f191906118e8565b60405180910390f35b610114600480360381019061010f9190611903565b610547565b005b61011e6107eb565b60405161012e9493929190611b18565b60405180910390f35b610151600480360381019061014c919061180c565b610d0d565b005b61016d60048036038101906101689190611bd7565b610e11565b60405161018299989796959493929190611c04565b60405180910390f35b6101936112ac565b6040516101a09190611ce2565b60405180910390f35b6101c360048036038101906101be9190611cfd565b6112b2565b005b6101df60048036038101906101da9190611d85565b611451565b6040516101ed929190611db2565b60405180910390f35b610210600480360381019061020b9190611bd7565b611585565b60405161021d9190611de9565b60405180910390f35b61022e611656565b005b81805190602001206000803373ffffffffffffffffffffffffffffffffffffffff1673ffffffffffffffffffffffffffffffffffffffff1681526020019081526020016000206004016040516102869190611f0e565b6040518091039020146102ce576040517f08c379a00000000000000000000000000000000000000000000000000000000081526004016102c590611f71565b60405180910390fd5b80805190602001206000803373ffffffffffffffffffffffffffffffffffffffff1673ffffffffffffffffffffffffffffffffffffffff1681526020019081526020016000206005016040516103249190611f0e565b60405180910390201461036c576040517f08c379a000000000000000000000000000000000000000000000000000000000815260040161036390611fdd565b60405180910390fd5b60016000803373ffffffffffffffffffffffffffffffffffffffff1673ffffffffffffffffffffffffffffffffffffffff16815260200190815260200160002060080160006101000a81548160ff0219169083151502179055505050565b6000600360003373ffffffffffffffffffffffffffffffffffffffff1673ffffffffffffffffffffffffffffffffffffffff16815260200190815260200160002060000160009054906101000a900460ff1661045b576040517f08c379a000000000000000000000000000000000000000000000000000000000815260040161045290612049565b60405180910390fd5b600082511161049f576040517f08c379a0000000000000000000000000000000000000000000000000000000008152600401610496906120b5565b60405180910390fd5b8180519060200120600360003373ffffffffffffffffffffffffffffffffffffffff1673ffffffffffffffffffffffffffffffffffffffff1681526020019081526020016000206001016040516104f69190611f0e565b60405180910390201461053e576040517f08c379a000000000000000000000000000000000000000000000000000000000815260040161053590612121565b60405180910390fd5b60019050919050565b600015156000803373ffffffffffffffffffffffffffffffffffffffff1673ffffffffffffffffffffffffffffffffffffffff16815260200190815260200160002060080160009054906101000a900460ff161515146105dc576040517f08c379a00000000000000000000000000000000000000000000000000000000081526004016105d3906121b3565b60405180910390fd5b60006040518061012001604052808a8152602001898152602001888152602001878152602001868152602001858152602001848152602001838152602001600015158152509050806000803373ffffffffffffffffffffffffffffffffffffffff1673ffffffffffffffffffffffffffffffffffffffff1681526020019081526020016000206000820151816000019081610677919061237f565b50602082015181600101908161068d919061237f565b5060408201518160020190816106a3919061237f565b5060608201518160030190816106b9919061237f565b5060808201518160040190816106cf919061237f565b5060a08201518160050190816106e5919061237f565b5060c08201518160060190816106fb919061237f565b5060e0820151816007019081610711919061237f565b506101008201518160080160006101000a81548160ff02191690831515021790555090505033600186604051610747919061248d565b908152602001604051809103902060006101000a81548173ffffffffffffffffffffffffffffffffffffffff021916908373ffffffffffffffffffffffffffffffffffffffff16021790555087600260003373ffffffffffffffffffffffffffffffffffffffff1673ffffffffffffffffffffffffffffffffffffffff16815260200190815260200160002090816107df919061237f565b50505050505050505050565b60608060608060008060003373ffffffffffffffffffffffffffffffffffffffff1673ffffffffffffffffffffffffffffffffffffffff1681526020019081526020016000206040518061012001604052908160008201805461084d90611e3a565b80601f016020809104026020016040519081016040528092919081815260200182805461087990611e3a565b80156108c65780601f1061089b576101008083540402835291602001916108c6565b820191906000526020600020905b8154815290600101906020018083116108a957829003601f168201915b505050505081526020016001820180546108df90611e3a565b80601f016020809104026020016040519081016040528092919081815260200182805461090b90611e3a565b80156109585780601f1061092d57610100808354040283529160200191610958565b820191906000526020600020905b81548152906001019060200180831161093b57829003601f168201915b5050505050815260200160028201805461097190611e3a565b80601f016020809104026020016040519081016040528092919081815260200182805461099d90611e3a565b80156109ea5780601f106109bf576101008083540402835291602001916109ea565b820191906000526020600020905b8154815290600101906020018083116109cd57829003601f168201915b50505050508152602001600382018054610a0390611e3a565b80601f0160208091040260200160405190810160405280929190818152602001828054610a2f90611e3a565b8015610a7c5780601f10610a5157610100808354040283529160200191610a7c565b820191906000526020600020905b815481529060010190602001808311610a5f57829003601f168201915b50505050508152602001600482018054610a9590611e3a565b80601f0160208091040260200160405190810160405280929190818152602001828054610ac190611e3a565b8015610b0e5780601f10610ae357610100808354040283529160200191610b0e565b820191906000526020600020905b815481529060010190602001808311610af157829003601f168201915b50505050508152602001600582018054610b2790611e3a565b80601f0160208091040260200160405190810160405280929190818152602001828054610b5390611e3a565b8015610ba05780601f10610b7557610100808354040283529160200191610ba0565b820191906000526020600020905b815481529060010190602001808311610b8357829003601f168201915b50505050508152602001600682018054610bb990611e3a565b80601f0160208091040260200160405190810160405280929190818152602001828054610be590611e3a565b8015610c325780601f10610c0757610100808354040283529160200191610c32565b820191906000526020600020905b815481529060010190602001808311610c1557829003601f168201915b50505050508152602001600782018054610c4b90611e3a565b80601f0160208091040260200160405190810160405280929190818152602001828054610c7790611e3a565b8015610cc45780601f10610c9957610100808354040283529160200191610cc4565b820191906000526020600020905b815481529060010190602001808311610ca757829003601f168201915b505050505081526020016008820160009054906101000a900460ff16151515158152505090508060000151816020015182608001518360a0015194509450945094505090919293565b600360003373ffffffffffffffffffffffffffffffffffffffff1673ffffffffffffffffffffffffffffffffffffffff16815260200190815260200160002060000160009054906101000a900460ff16610d9c576040517f08c379a0000000000000000000000000000000000000000000000000000000008152600401610d9390612516565b60405180910390fd5b6040518060400160405280838152602001828152506004600060055481526020019081526020016000206000820151816000019081610ddb919061237f565b506020820151816001019081610df1919061237f565b5090505060056000815480929190610e0890612565565b91905055505050565b6000602052806000526040600020600091509050806000018054610e3490611e3a565b80601f0160208091040260200160405190810160405280929190818152602001828054610e6090611e3a565b8015610ead5780601f10610e8257610100808354040283529160200191610ead565b820191906000526020600020905b815481529060010190602001808311610e9057829003601f168201915b505050505090806001018054610ec290611e3a565b80601f0160208091040260200160405190810160405280929190818152602001828054610eee90611e3a565b8015610f3b5780601f10610f1057610100808354040283529160200191610f3b565b820191906000526020600020905b815481529060010190602001808311610f1e57829003601f168201915b505050505090806002018054610f5090611e3a565b80601f0160208091040260200160405190810160405280929190818152602001828054610f7c90611e3a565b8015610fc95780601f10610f9e57610100808354040283529160200191610fc9565b820191906000526020600020905b815481529060010190602001808311610fac57829003601f168201915b505050505090806003018054610fde90611e3a565b80601f016020809104026020016040519081016040528092919081815260200182805461100a90611e3a565b80156110575780601f1061102c57610100808354040283529160200191611057565b820191906000526020600020905b81548152906001019060200180831161103a57829003601f168201915b50505050509080600401805461106c90611e3a565b80601f016020809104026020016040519081016040528092919081815260200182805461109890611e3a565b80156110e55780601f106110ba576101008083540402835291602001916110e5565b820191906000526020600020905b8154815290600101906020018083116110c857829003601f168201915b5050505050908060050180546110fa90611e3a565b80601f016020809104026020016040519081016040528092919081815260200182805461112690611e3a565b80156111735780601f1061114857610100808354040283529160200191611173565b820191906000526020600020905b81548152906001019060200180831161115657829003601f168201915b50505050509080600601805461118890611e3a565b80601f01602080910402602001604051908101604052809291908181526020018280546111b490611e3a565b80156112015780601f106111d657610100808354040283529160200191611201565b820191906000526020600020905b8154815290600101906020018083116111e457829003601f168201915b50505050509080600701805461121690611e3a565b80601f016020809104026020016040519081016040528092919081815260200182805461124290611e3a565b801561128f5780601f106112645761010080835404028352916020019161128f565b820191906000526020600020905b81548152906001019060200180831161127257829003601f168201915b5050505050908060080160009054906101000a900460ff16905089565b60055481565b600360008373ffffffffffffffffffffffffffffffffffffffff1673ffffffffffffffffffffffffffffffffffffffff16815260200190815260200160002060000160009054906101000a900460ff1615611342576040517f08c379a0000000000000000000000000000000000000000000000000000000008152600401611339906125f9565b60405180910390fd5b6000815111611386576040517f08c379a000000000000000000000000000000000000000000000000000000000815260040161137d906120b5565b60405180910390fd5b604051806040016040528060011515815260200182815250600360008473ffffffffffffffffffffffffffffffffffffffff1673ffffffffffffffffffffffffffffffffffffffff16815260200190815260200160002060008201518160000160006101000a81548160ff0219169083151502179055506020820151816001019081611412919061237f565b509050507f44d6d25963f097ad14f29f06854a01f575648a1ef82f30e562ccd3889717e339826040516114459190612628565b60405180910390a15050565b600460205280600052604060002060009150905080600001805461147490611e3a565b80601f01602080910402602001604051908101604052809291908181526020018280546114a090611e3a565b80156114ed5780601f106114c2576101008083540402835291602001916114ed565b820191906000526020600020905b8154815290600101906020018083116114d057829003601f168201915b50505050509080600101805461150290611e3a565b80601f016020809104026020016040519081016040528092919081815260200182805461152e90611e3a565b801561157b5780601f106115505761010080835404028352916020019161157b565b820191906000526020600020905b81548152906001019060200180831161155e57829003601f168201915b5050505050905082565b6060600260008373ffffffffffffffffffffffffffffffffffffffff1673ffffffffffffffffffffffffffffffffffffffff16815260200190815260200160002080546115d190611e3a565b80601f01602080910402602001604051908101604052809291908181526020018280546115fd90611e3a565b801561164a5780601f1061161f5761010080835404028352916020019161164a565b820191906000526020600020905b81548152906001019060200180831161162d57829003601f168201915b50505050509050919050565b60008060003373ffffffffffffffffffffffffffffffffffffffff1673ffffffffffffffffffffffffffffffffffffffff16815260200190815260200160002060080160006101000a81548160ff021916908315150217905550565b6000604051905090565b600080fd5b600080fd5b600080fd5b600080fd5b6000601f19601f8301169050919050565b7f4e487b7100000000000000000000000000000000000000000000000000000000600052604160045260246000fd5b611719826116d0565b810181811067ffffffffffffffff82111715611738576117376116e1565b5b80604052505050565b600061174b6116b2565b90506117578282611710565b919050565b600067ffffffffffffffff821115611777576117766116e1565b5b611780826116d0565b9050602081019050919050565b82818337600083830152505050565b60006117af6117aa8461175c565b611741565b9050828152602081018484840111156117cb576117ca6116cb565b5b6117d684828561178d565b509392505050565b600082601f8301126117f3576117f26116c6565b5b813561180384826020860161179c565b91505092915050565b60008060408385031215611823576118226116bc565b5b600083013567ffffffffffffffff811115611841576118406116c1565b5b61184d858286016117de565b925050602083013567ffffffffffffffff81111561186e5761186d6116c1565b5b61187a858286016117de565b9150509250929050565b60006020828403121561189a576118996116bc565b5b600082013567ffffffffffffffff8111156118b8576118b76116c1565b5b6118c4848285016117de565b91505092915050565b60008115159050919050565b6118e2816118cd565b82525050565b60006020820190506118fd60008301846118d9565b92915050565b600080600080600080600080610100898b031215611924576119236116bc565b5b600089013567ffffffffffffffff811115611942576119416116c1565b5b61194e8b828c016117de565b985050602089013567ffffffffffffffff81111561196f5761196e6116c1565b5b61197b8b828c016117de565b975050604089013567ffffffffffffffff81111561199c5761199b6116c1565b5b6119a88b828c016117de565b965050606089013567ffffffffffffffff8111156119c9576119c86116c1565b5b6119d58b828c016117de565b955050608089013567ffffffffffffffff8111156119f6576119f56116c1565b5b611a028b828c016117de565b94505060a089013567ffffffffffffffff811115611a2357611a226116c1565b5b611a2f8b828c016117de565b93505060c089013567ffffffffffffffff811115611a5057611a4f6116c1565b5b611a5c8b828c016117de565b92505060e089013567ffffffffffffffff811115611a7d57611a7c6116c1565b5b611a898b828c016117de565b9150509295985092959890939650565b600081519050919050565b600082825260208201905092915050565b60005b83811015611ad3578082015181840152602081019050611ab8565b60008484015250505050565b6000611aea82611a99565b611af48185611aa4565b9350611b04818560208601611ab5565b611b0d816116d0565b840191505092915050565b60006080820190508181036000830152611b328187611adf565b90508181036020830152611b468186611adf565b90508181036040830152611b5a8185611adf565b90508181036060830152611b6e8184611adf565b905095945050505050565b600073ffffffffffffffffffffffffffffffffffffffff82169050919050565b6000611ba482611b79565b9050919050565b611bb481611b99565b8114611bbf57600080fd5b50565b600081359050611bd181611bab565b92915050565b600060208284031215611bed57611bec6116bc565b5b6000611bfb84828501611bc2565b91505092915050565b6000610120820190508181036000830152611c1f818c611adf565b90508181036020830152611c33818b611adf565b90508181036040830152611c47818a611adf565b90508181036060830152611c5b8189611adf565b90508181036080830152611c6f8188611adf565b905081810360a0830152611c838187611adf565b905081810360c0830152611c978186611adf565b905081810360e0830152611cab8185611adf565b9050611cbb6101008301846118d9565b9a9950505050505050505050565b6000819050919050565b611cdc81611cc9565b82525050565b6000602082019050611cf76000830184611cd3565b92915050565b60008060408385031215611d1457611d136116bc565b5b6000611d2285828601611bc2565b925050602083013567ffffffffffffffff811115611d4357611d426116c1565b5b611d4f858286016117de565b9150509250929050565b611d6281611cc9565b8114611d6d57600080fd5b50565b600081359050611d7f81611d59565b92915050565b600060208284031215611d9b57611d9a6116bc565b5b6000611da984828501611d70565b91505092915050565b60006040820190508181036000830152611dcc8185611adf565b90508181036020830152611de08184611adf565b90509392505050565b60006020820190508181036000830152611e038184611adf565b905092915050565b7f4e487b7100000000000000000000000000000000000000000000000000000000600052602260045260246000fd5b60006002820490506001821680611e5257607f821691505b602082108103611e6557611e64611e0b565b5b50919050565b600081905092915050565b60008190508160005260206000209050919050565b60008154611e9881611e3a565b611ea28186611e6b565b94506001821660008114611ebd5760018114611ed257611f05565b60ff1983168652811515820286019350611f05565b611edb85611e76565b60005b83811015611efd57815481890152600182019150602081019050611ede565b838801955050505b50505092915050565b6000611f1a8284611e8b565b915081905092915050565b7f456d61696c20646f6573206e6f74206d61746368000000000000000000000000600082015250565b6000611f5b601483611aa4565b9150611f6682611f25565b602082019050919050565b60006020820190508181036000830152611f8a81611f4e565b9050919050565b7f50617373776f726420646f6573206e6f74206d61746368000000000000000000600082015250565b6000611fc7601783611aa4565b9150611fd282611f91565b602082019050919050565b60006020820190508181036000830152611ff681611fba565b9050919050565b7f41646d696e20646f6573206e6f74206578697374000000000000000000000000600082015250565b6000612033601483611aa4565b915061203e82611ffd565b602082019050919050565b6000602082019050818103600083015261206281612026565b9050919050565b7f456d7074792070617373776f7264000000000000000000000000000000000000600082015250565b600061209f600e83611aa4565b91506120aa82612069565b602082019050919050565b600060208201905081810360008301526120ce81612092565b9050919050565b7f496e636f72726563742070617373776f72640000000000000000000000000000600082015250565b600061210b601283611aa4565b9150612116826120d5565b602082019050919050565b6000602082019050818103600083015261213a816120fe565b9050919050565b7f557365722077697468207468697320457468657265756d20416464726573732060008201527f616c726561647920657869737473000000000000000000000000000000000000602082015250565b600061219d602e83611aa4565b91506121a882612141565b604082019050919050565b600060208201905081810360008301526121cc81612190565b9050919050565b60008190508160005260206000209050919050565b60006020601f8301049050919050565b600082821b905092915050565b6000600883026122357fffffffffffffffffffffffffffffffffffffffffffffffffffffffffffffffff826121f8565b61223f86836121f8565b95508019841693508086168417925050509392505050565b6000819050919050565b600061227c61227761227284611cc9565b612257565b611cc9565b9050919050565b6000819050919050565b61229683612261565b6122aa6122a282612283565b848454612205565b825550505050565b600090565b6122bf6122b2565b6122ca81848461228d565b505050565b5b818110156122ee576122e36000826122b7565b6001810190506122d0565b5050565b601f82111561233357612304816121d3565b61230d846121e8565b8101602085101561231c578190505b612330612328856121e8565b8301826122cf565b50505b505050565b600082821c905092915050565b600061235660001984600802612338565b1980831691505092915050565b600061236f8383612345565b9150826002028217905092915050565b61238882611a99565b67ffffffffffffffff8111156123a1576123a06116e1565b5b6123ab8254611e3a565b6123b68282856122f2565b600060209050601f8311600181146123e957600084156123d7578287015190505b6123e18582612363565b865550612449565b601f1984166123f7866121d3565b60005b8281101561241f578489015182556001820191506020850194506020810190506123fa565b8683101561243c5784890151612438601f891682612345565b8355505b6001600288020188555050505b505050505050565b600081905092915050565b600061246782611a99565b6124718185612451565b9350612481818560208601611ab5565b80840191505092915050565b6000612499828461245c565b915081905092915050565b7f4f6e6c792061646d696e2063616e2063616c6c20746869732066756e6374696f60008201527f6e00000000000000000000000000000000000000000000000000000000000000602082015250565b6000612500602183611aa4565b915061250b826124a4565b604082019050919050565b6000602082019050818103600083015261252f816124f3565b9050919050565b7f4e487b7100000000000000000000000000000000000000000000000000000000600052601160045260246000fd5b600061257082611cc9565b91507fffffffffffffffffffffffffffffffffffffffffffffffffffffffffffffffff82036125a2576125a1612536565b5b600182019050919050565b7f41646d696e20616c726561647920657869737473000000000000000000000000600082015250565b60006125e3601483611aa4565b91506125ee826125ad565b602082019050919050565b60006020820190508181036000830152612612816125d6565b9050919050565b61262281611b99565b82525050565b600060208201905061263d6000830184612619565b9291505056fea2646970667358221220fec13b310a1c763af2dbd67fd1809d9452a45a397c398845389d051c654351dd64736f6c63430008130033",
  "linkReferences": {},
  "deployedLinkReferences": {}
}