{
  "_format": "hh-sol-artifact-1",
  "contractName": "AdminAuthentication",
  "sourceName": "contracts/AdminAuthentication.sol",
  "abi": [
    {
      "anonymous": false,
      "inputs": [
        {
          "indexed": false,
          "internalType": "address",
          "name": "adminAddress",
          "type": "address"
        }
      ],
      "name": "AdminAdded",
      "type": "event"
    },
    {
      "anonymous": false,
      "inputs": [
        {
          "indexed": false,
          "internalType": "address",
          "name": "adminAddress",
          "type": "address"
        }
      ],
      "name": "AdminLoggedIn",
      "type": "event"
    },
    {
      "inputs": [
        {
          "internalType": "address",
          "name": "_adminAddress",
          "type": "address"
        },
        {
          "internalType": "string",
          "name": "_password",
          "type": "string"
        }
      ],
      "name": "addAdmin",
      "outputs": [],
      "stateMutability": "nonpayable",
      "type": "function"
    },
    {
      "inputs": [
        {
          "internalType": "string",
          "name": "_title",
          "type": "string"
        },
        {
          "internalType": "string",
          "name": "_description",
          "type": "string"
        }
      ],
      "name": "addPolicy",
      "outputs": [],
      "stateMutability": "nonpayable",
      "type": "function"
    },
    {
      "inputs": [
        {
          "internalType": "address",
          "name": "_adminAddress",
          "type": "address"
        }
      ],
      "name": "handleSuccessfulLogin",
      "outputs": [],
      "stateMutability": "nonpayable",
      "type": "function"
    },
    {
      "inputs": [
        {
          "internalType": "address",
          "name": "_adminAddress",
          "type": "address"
        },
        {
          "internalType": "string",
          "name": "_password",
          "type": "string"
        }
      ],
      "name": "login",
      "outputs": [
        {
          "internalType": "bool",
          "name": "",
          "type": "bool"
        }
      ],
      "stateMutability": "view",
      "type": "function"
    },
    {
      "inputs": [],
      "name": "nextPolicyId",
      "outputs": [
        {
          "internalType": "uint256",
          "name": "",
          "type": "uint256"
        }
      ],
      "stateMutability": "view",
      "type": "function"
    },
    {
      "inputs": [
        {
          "internalType": "uint256",
          "name": "",
          "type": "uint256"
        }
      ],
      "name": "policies",
      "outputs": [
        {
          "internalType": "string",
          "name": "title",
          "type": "string"
        },
        {
          "internalType": "string",
          "name": "description",
          "type": "string"
        }
      ],
      "stateMutability": "view",
      "type": "function"
    }
  ],
  "bytecode": "0x6080806040523461001b576001600255610a1190816100218239f35b600080fdfe6040608081526004908136101561001557600080fd5b600091823560e01c80632f19d50b1461061b578063546b3586146105c857806387326741146102f2578063cad0b8db146102d3578063d16856ca146100c25763d3e894831461006357600080fd5b346100be5760203660031901126100be57918192358152600160205220906100ba6100996001610092856108b8565b94016108b8565b6100ac835194848695865285019061095e565b90838203602085015261095e565b0390f35b8280fd5b509190346102cf576100d33661083b565b6001600160a01b03909116808452602084815283852054909391929060ff16610295576101028151151561099e565b815161010d8161078b565b600181818093528681019384528588528787528488209051151560ff8019835416911617815501915180519767ffffffffffffffff89116102825750610153835461087e565b601f811161023c575b508590601f89116001146101be579780928192899a7f44d6d25963f097ad14f29f06854a01f575648a1ef82f30e562ccd3889717e3399a946101b3575b50501b916000199060031b1c19161790555b51908152a180f35b015192503880610199565b838852868820909891601f198316895b818110610227575099837f44d6d25963f097ad14f29f06854a01f575648a1ef82f30e562ccd3889717e3399a9b1061020e575b505050811b0190556101ab565b015160001960f88460031b161c19169055388080610201565b8b8301518455928501929189019189016101ce565b838852868820601f8a0160051c810191888b10610278575b601f0160051c019083905b82811061026d57505061015c565b89815501839061025f565b9091508190610254565b634e487b7160e01b885260419052602487fd5b815162461bcd60e51b8152808701859052601460248201527341646d696e20616c72656164792065786973747360601b6044820152606490fd5b5080fd5b5050346102cf57816003193601126102cf576020906002549051908152f35b50346100be57816003193601126100be5767ffffffffffffffff81358181116105c45761032290369084016107df565b906024358181116105c05761033a90369085016107df565b918451906103478261078b565b815260208082019384526002548752600195868252872091519182518481116105ad57908791610377825461087e565b94601f95868111610560575b5084908683116001146104fe578b9190836104f3575b5050600019600383901b1c191690831b1781555b0193519081519384116104e057908392916103c8865461087e565b83811161048e575b508092841160011461042b57508792610420575b5050600019600383901b1c191690841b1790555b60025490600019821461040d57500160025580f35b634e487b7160e01b845260119052602483fd5b0151905038806103e4565b9190879450601f198416868a52838a20938a905b828210610475575050841161045c575b505050811b0190556103f8565b015160001960f88460031b161c1916905538808061044f565b8484015186558a9790950194938401939081019061043f565b90919293508589528189208480870160051c8201928488106104d7575b9187968b92969594930160051c01915b8281106104c95750506103d0565b8b81558796508a91016104bb565b925081926104ab565b634e487b7160e01b885260418652602488fd5b015190503880610399565b838c52858c209190601f1984168d5b8882821061054a5750509084879594939210610531575b505050811b0181556103ad565b015160001960f88460031b161c19169055388080610524565b8385015186558e9890950194938401930161050d565b9091928094508b52848b208680850160051c8201928786106105a4575b908c9695949392910160051c01905b8181106105995750610383565b8c81558b950161058c565b9250819261057d565b634e487b7160e01b895260418752602489fd5b8580fd5b8480fd5b50346100be5760203660031901126100be57356001600160a01b03811691908290036100be577fb59f440754e07ccf4f8158d21ab17643d0854c21b74aaffee912ad01931b22839160209151908152a180f35b509190346102cf5761062c3661083b565b6001600160a01b03909116808452602084815283852054909592919060ff16156107515761065c8251151561099e565b845283855260019384848220018685518092849080549561067c8761087e565b91828552858501978c8116908160001461073057506001146106f4575b5050506106a8925003826107bd565b51902090858151910120036106be575051908152f35b83606492519162461bcd60e51b83528201526012602482015271125b98dbdc9c9958dd081c185cdcdddbdc9960721b6044820152fd5b9080935052898483205b82841061071957505050916106a89282010189923880610699565b8054878501870152869450928501928b91016106fe565b925050506106a894925060ff19168652151560051b82010189923880610699565b835162461bcd60e51b8152808401879052601460248201527310591b5a5b88191bd95cc81b9bdd08195e1a5cdd60621b6044820152606490fd5b6040810190811067ffffffffffffffff8211176107a757604052565b634e487b7160e01b600052604160045260246000fd5b90601f8019910116810190811067ffffffffffffffff8211176107a757604052565b81601f820112156108365780359067ffffffffffffffff82116107a75760405192610814601f8401601f1916602001856107bd565b8284526020838301011161083657816000926020809301838601378301015290565b600080fd5b906040600319830112610836576004356001600160a01b038116810361083657916024359067ffffffffffffffff82116108365761087b916004016107df565b90565b90600182811c921680156108ae575b602083101461089857565b634e487b7160e01b600052602260045260246000fd5b91607f169161088d565b90604051918260008254926108cc8461087e565b90818452600194858116908160001461093b57506001146108f8575b50506108f6925003836107bd565b565b9093915060005260209081600020936000915b8183106109235750506108f6935082010138806108e8565b8554888401850152948501948794509183019161090b565b9150506108f694506020925060ff191682840152151560051b82010138806108e8565b919082519283825260005b84811061098a575050826000602080949584010152601f8019910116010190565b602081830181015184830182015201610969565b156109a557565b60405162461bcd60e51b815260206004820152600e60248201526d115b5c1d1e481c185cdcdddbdc9960921b6044820152606490fdfea264697066735822122038c43c9eb2e956bea9e057a16266239548fe856b97b2b552a73208ba17ddbb7364736f6c63430008130033",
  "linkReferences": {},
  "deployedLinkReferences": {}
}